Component: ARM Compiler 5.06 update 7 (build 960) Tool: armlink [4d3601]

==============================================================================

Section Cross References

    startup_armcm0.o(RESET) refers to startup_armcm0.o(.text) for Reset_Handler
    startup_armcm0.o(RESET) refers to ch57x_int.o(.text) for NMI_Handler
    startup_armcm0.o(RESET) refers to pt_ports.o(.text) for SysTick_Handler
    startup_armcm0.o(RESET) refers to mcu.o(.text) for LLE_IRQHandler
    startup_armcm0.o(RESET) refers to rtc.o(.text) for RTC_IRQHandler
    startup_armcm0.o(.text) refers to ch57x_clk.o(.text) for SystemInit
    startup_armcm0.o(.text) refers to entry.o(.ARM.Collect$$$$00000000) for __main
    key.o(.text) refers to tmos.o(i.tmos_start_task) for tmos_start_task
    key.o(.text) refers to key.o(.data) for .data
    key.o(.text) refers to mcu.o(.data) for halTaskID
    led.o(.text) refers to led.o(i.__ARM_common_switch8) for __ARM_common_switch8
    led.o(.text) refers to tmos.o(i.TMOS_GetSystemClock) for TMOS_GetSystemClock
    led.o(.text) refers to tmos.o(i.tmos_start_task) for tmos_start_task
    led.o(.text) refers to uidiv.o(.text) for __aeabi_uidivmod
    led.o(.text) refers to led.o(.data) for .data
    led.o(.text) refers to led.o(.bss) for .bss
    led.o(.text) refers to mcu.o(.data) for halTaskID
    mcu.o(.text) refers to ch57x_clk.o(.text) for Calibration_LSI
==============================================================================

Removing Unused input sections from the image.

    Removing startup_armcm0.o(STACK), (1024 bytes).
    Removing startup_armcm0.o(HEAP), (1024 bytes).
    Removing key.o(.rev16_text), (4 bytes).
    Removing key.o(.revsh_text), (4 bytes).
    Removing key.o(.text), (144 bytes).
    Removing key.o(.data), (8 bytes).
    Removing led.o(.rev16_text), (4 bytes).
    Removing led.o(.revsh_text), (4 bytes).
    Removing led.o(.text), (580 bytes).
    Removing led.o(.bss), (52 bytes).
    Removing led.o(.data), (2 bytes).
    Removing mcu.o(.rev16_text), (4 bytes).
    Removing mcu.o(.revsh_text), (4 bytes).
    Removing rtc.o(.rev16_text), (4 bytes).
    Removing rtc.o(.revsh_text), (4 bytes).
    Removing sleep.o(.rev16_text), (4 bytes).
    Removing sleep.o(.revsh_text), (4 bytes).
    Removing sleep.o(.text), (6 bytes).
==============================================================================

Image Symbol Table

    Local Symbols

    Symbol Name                              Value     Ov Type        Size  Object(Section)

    RESET                                    0x00000000   Section      144  startup_armcm0.o(RESET)
    ../clib/../cmprslib/zerorunl2.c          0x00000000   Number         0  __dczerorl2.o ABSOLUTE
    ../clib/microlib/division.c              0x00000000   Number         0  idiv.o ABSOLUTE
    ../clib/microlib/division.c              0x00000000   Number         0  uldiv.o ABSOLUTE
    ../clib/microlib/division.c              0x00000000   Number         0  uidiv.o ABSOLUTE
    ../clib/microlib/init/entry.s            0x00000000   Number         0  entry5.o ABSOLUTE
    ../clib/microlib/init/entry.s            0x00000000   Number         0  entry9b.o ABSOLUTE
    ../clib/microlib/init/entry.s            0x00000000   Number         0  entry9a.o ABSOLUTE
    ../clib/microlib/init/entry.s            0x00000000   Number         0  entry12b.o ABSOLUTE
    ../clib/microlib/init/entry.s            0x00000000   Number         0  entry8b.o ABSOLUTE
    ../clib/microlib/init/entry.s            0x00000000   Number         0  entry12a.o ABSOLUTE
    ../clib/microlib/init/entry.s            0x00000000   Number         0  entry8a.o ABSOLUTE
    ../clib/microlib/init/entry.s            0x00000000   Number         0  entry7b.o ABSOLUTE
    ../clib/microlib/init/entry.s            0x00000000   Number         0  entry11b.o ABSOLUTE
    ../clib/microlib/init/entry.s            0x00000000   Number         0  entry7a.o ABSOLUTE
    ../clib/microlib/init/entry.s            0x00000000   Number         0  entry11a.o ABSOLUTE
    ../clib/microlib/init/entry.s            0x00000000   Number         0  entry10b.o ABSOLUTE
    ../clib/microlib/init/entry.s            0x00000000   Number         0  entry10a.o ABSOLUTE
    ../clib/microlib/init/entry.s            0x00000000   Number         0  entry.o ABSOLUTE
    ../clib/microlib/init/entry.s            0x00000000   Number         0  entry2.o ABSOLUTE
    ../clib/microlib/longlong.c              0x00000000   Number         0  llushr.o ABSOLUTE
    ../clib/microlib/longlong.c              0x00000000   Number         0  llmul.o ABSOLUTE
    ../clib/microlib/longlong.c              0x00000000   Number         0  llshl.o ABSOLUTE
    ../clib/microlib/longlong.c              0x00000000   Number         0  llsshr.o ABSOLUTE
    ../clib/microlib/printf/printf.c         0x00000000   Number         0  printf8.o ABSOLUTE
    ../clib/microlib/printf/printf.c         0x00000000   Number         0  printfa.o ABSOLUTE
    ../clib/microlib/printf/printf.c         0x00000000   Number         0  printfb.o ABSOLUTE
    ../clib/microlib/printf/printf.c         0x00000000   Number         0  printf0.o ABSOLUTE
    ../clib/microlib/printf/printf.c         0x00000000   Number         0  printf1.o ABSOLUTE
    ../clib/microlib/printf/printf.c         0x00000000   Number         0  printf2.o ABSOLUTE
    ../clib/microlib/printf/printf.c         0x00000000   Number         0  printf3.o ABSOLUTE
    ../clib/microlib/printf/printf.c         0x00000000   Number         0  printf4.o ABSOLUTE
    ../clib/microlib/printf/printf.c         0x00000000   Number         0  printf5.o ABSOLUTE
    ../clib/microlib/printf/printf.c         0x00000000   Number         0  printf6.o ABSOLUTE
    ../clib/microlib/printf/printf.c         0x00000000   Number         0  printf7.o ABSOLUTE
    ../clib/microlib/printf/stubs.s          0x00000000   Number         0  stubs.o ABSOLUTE
    ../clib/microlib/stdio/streams.c         0x00000000   Number         0  stdout.o ABSOLUTE
    ../clib/microlib/string/memcpy.c         0x00000000   Number         0  memcpyb.o ABSOLUTE
    ../clib/microlib/string/memcpy.c         0x00000000   Number         0  memcpya.o ABSOLUTE
    ../clib/microlib/string/memset.c         0x00000000   Number         0  memseta.o ABSOLUTE
    ../clib/microlib/stubs.s                 0x00000000   Number         0  iusefp.o ABSOLUTE
    ../fplib/microlib/fpadd.c                0x00000000   Number         0  dadd.o ABSOLUTE
    ../fplib/microlib/fpdiv.c                0x00000000   Number         0  ddiv.o ABSOLUTE
    ../fplib/microlib/fpepilogue.c           0x00000000   Number         0  depilogue.o ABSOLUTE
    ../fplib/microlib/fpfix.c                0x00000000   Number         0  dfixul.o ABSOLUTE
    ../fplib/microlib/fpmul.c                0x00000000   Number         0  dmul.o ABSOLUTE
    ..\..\Role\broadcaster.c                 0x00000000   Number         0  broadcaster.o ABSOLUTE
    ..\..\Role\central.c                     0x00000000   Number         0  central.o ABSOLUTE
    ..\..\Role\gapbondmgr.c                  0x00000000   Number         0  gapbondmgr.o ABSOLUTE
    ..\..\Role\observer.c                    0x00000000   Number         0  observer.o ABSOLUTE
    ..\..\Role\peripheral.c                  0x00000000   Number         0  peripheral.o ABSOLUTE
    ..\..\Role\role.c                        0x00000000   Number         0  role.o ABSOLUTE
    ..\..\control\Inter_c\ctl_input.c        0x00000000   Number         0  ctl_input.o ABSOLUTE
    ..\..\control\Inter_c\ctl_output.c       0x00000000   Number         0  ctl_output.o ABSOLUTE
    ..\..\control\api_c\api_c.c              0x00000000   Number         0  api_c.o ABSOLUTE
    ..\..\control\ip_core\aes.c              0x00000000   Number         0  aes.o ABSOLUTE
    ..\..\control\ip_core\bb.c               0x00000000   Number         0  bb.o ABSOLUTE
    ..\..\control\ip_core\dma.c              0x00000000   Number         0  dma.o ABSOLUTE
    ..\..\control\ip_core\ip.c               0x00000000   Number         0  ip.o ABSOLUTE
    ..\..\control\ip_core\lle.c              0x00000000   Number         0  lle.o ABSOLUTE
    ..\..\control\ip_core\rfend.c            0x00000000   Number         0  rfend.o ABSOLUTE
    ..\..\control\ll\ll.c                    0x00000000   Number         0  ll.o ABSOLUTE
    ..\..\control\ll\ll_address.c            0x00000000   Number         0  ll_address.o ABSOLUTE
    ..\..\control\ll\ll_advertise.c          0x00000000   Number         0  ll_advertise.o ABSOLUTE
    ..\..\control\ll\ll_connect.c            0x00000000   Number         0  ll_connect.o ABSOLUTE
    ..\..\control\ll\ll_core.c               0x00000000   Number         0  ll_core.o ABSOLUTE
    ..\..\control\ll\ll_hop.c                0x00000000   Number         0  ll_hop.o ABSOLUTE
    ..\..\control\ll\ll_initiate.c           0x00000000   Number         0  ll_initiate.o ABSOLUTE
    ..\..\control\ll\ll_master.c             0x00000000   Number         0  ll_master.o ABSOLUTE
    ..\..\control\ll\ll_pdu.c                0x00000000   Number         0  ll_pdu.o ABSOLUTE
    ..\..\control\ll\ll_report.c             0x00000000   Number         0  ll_report.o ABSOLUTE
    ..\..\control\ll\ll_resolvinglist.c      0x00000000   Number         0  ll_resolvinglist.o ABSOLUTE
    ..\..\control\ll\ll_scan.c               0x00000000   Number         0  ll_scan.o ABSOLUTE
    ..\..\control\ll\ll_slave.c              0x00000000   Number         0  ll_slave.o ABSOLUTE
    ..\..\control\ll\ll_whitelist.c          0x00000000   Number         0  ll_whitelist.o ABSOLUTE
    ..\..\host\Inter_h\host_input.c          0x00000000   Number         0  host_input.o ABSOLUTE
    ..\..\host\Inter_h\host_output.c         0x00000000   Number         0  host_output.o ABSOLUTE
    ..\..\host\core_h\att.c                  0x00000000   Number         0  att.o ABSOLUTE
    ..\..\host\core_h\att_client.c           0x00000000   Number         0  att_client.o ABSOLUTE
    ..\..\host\core_h\att_server.c           0x00000000   Number         0  att_server.o ABSOLUTE
    ..\..\host\core_h\gap.c                  0x00000000   Number         0  gap.o ABSOLUTE
    ..\..\host\core_h\gap_central.c          0x00000000   Number         0  gap_central.o ABSOLUTE
    ..\..\host\core_h\gap_peripheral.c       0x00000000   Number         0  gap_peripheral.o ABSOLUTE
    ..\..\host\core_h\gapgattserver.c        0x00000000   Number         0  gapgattserver.o ABSOLUTE
    ..\..\host\core_h\gatt.c                 0x00000000   Number         0  gatt.o ABSOLUTE
    ..\..\host\core_h\gatt_uuid.c            0x00000000   Number         0  gatt_uuid.o ABSOLUTE
    ..\..\host\core_h\gattclientapp.c        0x00000000   Number         0  gattclientapp.o ABSOLUTE
    ..\..\host\core_h\gattservapp.c          0x00000000   Number         0  gattservapp.o ABSOLUTE
    ..\..\host\core_h\l2cap.c                0x00000000   Number         0  l2cap.o ABSOLUTE
    ..\..\host\core_h\l2cap_input.c          0x00000000   Number         0  l2cap_input.o ABSOLUTE
    ..\..\host\core_h\l2cap_output.c         0x00000000   Number         0  l2cap_output.o ABSOLUTE
    ..\..\host\core_h\l2cap_sdu.c            0x00000000   Number         0  l2cap_sdu.o ABSOLUTE
    ..\..\host\core_h\linkdb.c               0x00000000   Number         0  linkdb.o ABSOLUTE
    ..\..\host\core_h\sm.c                   0x00000000   Number         0  sm.o ABSOLUTE
    ..\..\tmos\memory.c                      0x00000000   Number         0  memory.o ABSOLUTE
    ..\..\tmos\message.c                     0x00000000   Number         0  message.o ABSOLUTE
    ..\..\tmos\tmos.c                        0x00000000   Number         0  tmos.o ABSOLUTE
    ..\..\tmos\tmos_hw.c                     0x00000000   Number         0  tmos_hw.o ABSOLUTE
    ..\..\tmos\tmos_snv.c                    0x00000000   Number         0  tmos_snv.o ABSOLUTE
    ..\\..\\Role\\broadcaster.c              0x00000000   Number         0  broadcaster.o ABSOLUTE
    ..\\..\\Role\\central.c                  0x00000000   Number         0  central.o ABSOLUTE
    ..\\..\\Role\\gapbondmgr.c               0x00000000   Number         0  gapbondmgr.o ABSOLUTE
    ..\\..\\Role\\observer.c                 0x00000000   Number         0  observer.o ABSOLUTE
    ..\\..\\Role\\peripheral.c               0x00000000   Number         0  peripheral.o ABSOLUTE
    ..\\..\\Role\\role.c                     0x00000000   Number         0  role.o ABSOLUTE
    ..\\..\\control\\Inter_c\\ctl_input.c    0x00000000   Number         0  ctl_input.o ABSOLUTE
    ..\\..\\control\\Inter_c\\ctl_output.c   0x00000000   Number         0  ctl_output.o ABSOLUTE
    ..\\..\\control\\api_c\\api_c.c          0x00000000   Number         0  api_c.o ABSOLUTE
    ..\\..\\control\\ip_core\\aes.c          0x00000000   Number         0  aes.o ABSOLUTE
    ..\\..\\control\\ip_core\\bb.c           0x00000000   Number         0  bb.o ABSOLUTE
    ..\\..\\control\\ip_core\\dma.c          0x00000000   Number         0  dma.o ABSOLUTE
    ..\\..\\control\\ip_core\\ip.c           0x00000000   Number         0  ip.o ABSOLUTE
    ..\\..\\control\\ip_core\\lle.c          0x00000000   Number         0  lle.o ABSOLUTE
    ..\\..\\control\\ip_core\\rfend.c        0x00000000   Number         0  rfend.o ABSOLUTE
    ..\\..\\control\\ll\\ll.c                0x00000000   Number         0  ll.o ABSOLUTE
    ..\\..\\control\\ll\\ll_address.c        0x00000000   Number         0  ll_address.o ABSOLUTE
    ..\\..\\control\\ll\\ll_advertise.c      0x00000000   Number         0  ll_advertise.o ABSOLUTE
    ..\\..\\control\\ll\\ll_connect.c        0x00000000   Number         0  ll_connect.o ABSOLUTE
    ..\\..\\control\\ll\\ll_core.c           0x00000000   Number         0  ll_core.o ABSOLUTE
    ..\\..\\control\\ll\\ll_hop.c            0x00000000   Number         0  ll_hop.o ABSOLUTE
    ..\\..\\control\\ll\\ll_initiate.c       0x00000000   Number         0  ll_initiate.o ABSOLUTE
    ..\\..\\control\\ll\\ll_master.c         0x00000000   Number         0  ll_master.o ABSOLUTE
    ..\\..\\control\\ll\\ll_pdu.c            0x00000000   Number         0  ll_pdu.o ABSOLUTE
    ..\\..\\control\\ll\\ll_report.c         0x00000000   Number         0  ll_report.o ABSOLUTE
    ..\\..\\control\\ll\\ll_resolvinglist.c  0x00000000   Number         0  ll_resolvinglist.o ABSOLUTE
    ..\\..\\control\\ll\\ll_scan.c           0x00000000   Number         0  ll_scan.o ABSOLUTE
    ..\\..\\control\\ll\\ll_slave.c          0x00000000   Number         0  ll_slave.o ABSOLUTE
    ..\\..\\control\\ll\\ll_whitelist.c      0x00000000   Number         0  ll_whitelist.o ABSOLUTE
    ..\\..\\host\\Inter_h\\host_input.c      0x00000000   Number         0  host_input.o ABSOLUTE
    ..\\..\\host\\Inter_h\\host_output.c     0x00000000   Number         0  host_output.o ABSOLUTE
    ..\\..\\host\\core_h\\att.c              0x00000000   Number         0  att.o ABSOLUTE
    ..\\..\\host\\core_h\\att_client.c       0x00000000   Number         0  att_client.o ABSOLUTE
    ..\\..\\host\\core_h\\att_server.c       0x00000000   Number         0  att_server.o ABSOLUTE
    ..\\..\\host\\core_h\\gap.c              0x00000000   Number         0  gap.o ABSOLUTE
    ..\\..\\host\\core_h\\gap_central.c      0x00000000   Number         0  gap_central.o ABSOLUTE
    ..\\..\\host\\core_h\\gap_peripheral.c   0x00000000   Number         0  gap_peripheral.o ABSOLUTE
    ..\\..\\host\\core_h\\gapgattserver.c    0x00000000   Number         0  gapgattserver.o ABSOLUTE
    ..\\..\\host\\core_h\\gatt.c             0x00000000   Number         0  gatt.o ABSOLUTE
    ..\\..\\host\\core_h\\gatt_uuid.c        0x00000000   Number         0  gatt_uuid.o ABSOLUTE
    ..\\..\\host\\core_h\\gattclientapp.c    0x00000000   Number         0  gattclientapp.o ABSOLUTE
    ..\\..\\host\\core_h\\gattservapp.c      0x00000000   Number         0  gattservapp.o ABSOLUTE
    ..\\..\\host\\core_h\\l2cap.c            0x00000000   Number         0  l2cap.o ABSOLUTE
    ..\\..\\host\\core_h\\l2cap_input.c      0x00000000   Number         0  l2cap_input.o ABSOLUTE
    ..\\..\\host\\core_h\\l2cap_output.c     0x00000000   Number         0  l2cap_output.o ABSOLUTE
    ..\\..\\host\\core_h\\l2cap_sdu.c        0x00000000   Number         0  l2cap_sdu.o ABSOLUTE
    ..\\..\\host\\core_h\\linkdb.c           0x00000000   Number         0  linkdb.o ABSOLUTE
    ..\\..\\host\\core_h\\sm.c               0x00000000   Number         0  sm.o ABSOLUTE
    ..\\..\\tmos\\memory.c                   0x00000000   Number         0  memory.o ABSOLUTE
    ..\\..\\tmos\\message.c                  0x00000000   Number         0  message.o ABSOLUTE
    ..\\..\\tmos\\tmos.c                     0x00000000   Number         0  tmos.o ABSOLUTE
    ..\\..\\tmos\\tmos_hw.c                  0x00000000   Number         0  tmos_hw.o ABSOLUTE
    ..\\..\\tmos\\tmos_snv.c                 0x00000000   Number         0  tmos_snv.o ABSOLUTE
    Core\Startup\startup_ARMCM0.s            0x00000000   Number         0  startup_armcm0.o ABSOLUTE
    Drivers\BLE\HAL\KEY.c                    0x00000000   Number         0  key.o ABSOLUTE
    Drivers\BLE\HAL\LED.c                    0x00000000   Number         0  led.o ABSOLUTE
    Drivers\BLE\HAL\MCU.c                    0x00000000   Number         0  mcu.o ABSOLUTE
    Drivers\BLE\HAL\RTC.c                    0x00000000   Number         0  rtc.o ABSOLUTE
    Drivers\BLE\HAL\SLEEP.c                  0x00000000   Number         0  sleep.o ABSOLUTE
    Drivers\StdPeriphDriver\CH57x_adc.c      0x00000000   Number         0  ch57x_adc.o ABSOLUTE
    Drivers\StdPeriphDriver\CH57x_clk.c      0x00000000   Number         0  ch57x_clk.o ABSOLUTE
    Drivers\StdPeriphDriver\CH57x_flash.c    0x00000000   Number         0  ch57x_flash.o ABSOLUTE
    Drivers\StdPeriphDriver\CH57x_gpio.c     0x00000000   Number         0  ch57x_gpio.o ABSOLUTE
    Drivers\StdPeriphDriver\CH57x_int.c      0x00000000   Number         0  ch57x_int.o ABSOLUTE
    Drivers\StdPeriphDriver\CH57x_lcd.c      0x00000000   Number         0  ch57x_lcd.o ABSOLUTE
    Drivers\StdPeriphDriver\CH57x_pwm.c      0x00000000   Number         0  ch57x_pwm.o ABSOLUTE
    Drivers\StdPeriphDriver\CH57x_pwr.c      0x00000000   Number         0  ch57x_pwr.o ABSOLUTE
    Drivers\StdPeriphDriver\CH57x_spi0.c     0x00000000   Number         0  ch57x_spi0.o ABSOLUTE
    Drivers\StdPeriphDriver\CH57x_spi1.c     0x00000000   Number         0  ch57x_spi1.o ABSOLUTE
    Drivers\StdPeriphDriver\CH57x_sys.c      0x00000000   Number         0  ch57x_sys.o ABSOLUTE
    Drivers\StdPeriphDriver\CH57x_timer0.c   0x00000000   Number         0  ch57x_timer0.o ABSOLUTE
    Drivers\StdPeriphDriver\CH57x_timer1.c   0x00000000   Number         0  ch57x_timer1.o ABSOLUTE
    Drivers\StdPeriphDriver\CH57x_timer2.c   0x00000000   Number         0  ch57x_timer2.o ABSOLUTE
    Drivers\StdPeriphDriver\CH57x_timer3.c   0x00000000   Number         0  ch57x_timer3.o ABSOLUTE
    Drivers\StdPeriphDriver\CH57x_uart0.c    0x00000000   Number         0  ch57x_uart0.o ABSOLUTE
    Drivers\StdPeriphDriver\CH57x_uart1.c    0x00000000   Number         0  ch57x_uart1.o ABSOLUTE
    Drivers\StdPeriphDriver\CH57x_uart2.c    0x00000000   Number         0  ch57x_uart2.o ABSOLUTE
    Drivers\StdPeriphDriver\CH57x_uart3.c    0x00000000   Number         0  ch57x_uart3.o ABSOLUTE
    Drivers\StdPeriphDriver\CH57x_usbdev.c   0x00000000   Number         0  ch57x_usbdev.o ABSOLUTE
    Drivers\\BLE\\HAL\\KEY.c                 0x00000000   Number         0  key.o ABSOLUTE
    Drivers\\BLE\\HAL\\LED.c                 0x00000000   Number         0  led.o ABSOLUTE
    Drivers\\BLE\\HAL\\MCU.c                 0x00000000   Number         0  mcu.o ABSOLUTE
    Drivers\\BLE\\HAL\\RTC.c                 0x00000000   Number         0  rtc.o ABSOLUTE
    Drivers\\BLE\\HAL\\SLEEP.c               0x00000000   Number         0  sleep.o ABSOLUTE
    Drivers\\StdPeriphDriver\\CH57x_adc.c    0x00000000   Number         0  ch57x_adc.o ABSOLUTE
    Drivers\\StdPeriphDriver\\CH57x_clk.c    0x00000000   Number         0  ch57x_clk.o ABSOLUTE
    Drivers\\StdPeriphDriver\\CH57x_flash.c  0x00000000   Number         0  ch57x_flash.o ABSOLUTE
    Drivers\\StdPeriphDriver\\CH57x_gpio.c   0x00000000   Number         0  ch57x_gpio.o ABSOLUTE
    Drivers\\StdPeriphDriver\\CH57x_int.c    0x00000000   Number         0  ch57x_int.o ABSOLUTE
    Drivers\\StdPeriphDriver\\CH57x_lcd.c    0x00000000   Number         0  ch57x_lcd.o ABSOLUTE
    Drivers\\StdPeriphDriver\\CH57x_pwm.c    0x00000000   Number         0  ch57x_pwm.o ABSOLUTE
    Drivers\\StdPeriphDriver\\CH57x_pwr.c    0x00000000   Number         0  ch57x_pwr.o ABSOLUTE
    Drivers\\StdPeriphDriver\\CH57x_spi0.c   0x00000000   Number         0  ch57x_spi0.o ABSOLUTE
    Drivers\\StdPeriphDriver\\CH57x_spi1.c   0x00000000   Number         0  ch57x_spi1.o ABSOLUTE
    Drivers\\StdPeriphDriver\\CH57x_sys.c    0x00000000   Number         0  ch57x_sys.o ABSOLUTE
    Drivers\\StdPeriphDriver\\CH57x_timer0.c 0x00000000   Number         0  ch57x_timer0.o ABSOLUTE
    Drivers\\StdPeriphDriver\\CH57x_timer1.c 0x00000000   Number         0  ch57x_timer1.o ABSOLUTE
    Drivers\\StdPeriphDriver\\CH57x_timer2.c 0x00000000   Number         0  ch57x_timer2.o ABSOLUTE
    Drivers\\StdPeriphDriver\\CH57x_timer3.c 0x00000000   Number         0  ch57x_timer3.o ABSOLUTE
    Drivers\\StdPeriphDriver\\CH57x_uart0.c  0x00000000   Number         0  ch57x_uart0.o ABSOLUTE
    Drivers\\StdPeriphDriver\\CH57x_uart1.c  0x00000000   Number         0  ch57x_uart1.o ABSOLUTE
    Drivers\\StdPeriphDriver\\CH57x_uart2.c  0x00000000   Number         0  ch57x_uart2.o ABSOLUTE
    Drivers\\StdPeriphDriver\\CH57x_uart3.c  0x00000000   Number         0  ch57x_uart3.o ABSOLUTE
    Drivers\\StdPeriphDriver\\CH57x_usbdev.c 0x00000000   Number         0  ch57x_usbdev.o ABSOLUTE
    OS\ProtoThread-Core\lib\list.c           0x00000000   Number         0  list.o ABSOLUTE
    OS\ProtoThread-Core\lib\memb.c           0x00000000   Number         0  memb.o ABSOLUTE
    OS\ProtoThread-Core\lib\ringbuf.c        0x00000000   Number         0  ringbuf.o ABSOLUTE
    OS\ProtoThread-Core\protothread.c        0x00000000   Number         0  protothread.o ABSOLUTE
    OS\ProtoThread-Core\sys\ctimer.c         0x00000000   Number         0  ctimer.o ABSOLUTE
    OS\ProtoThread-Core\sys\etimer.c         0x00000000   Number         0  etimer.o ABSOLUTE
    OS\ProtoThread-Core\sys\process.c        0x00000000   Number         0  process.o ABSOLUTE
    OS\ProtoThread-Core\sys\timer.c          0x00000000   Number         0  timer.o ABSOLUTE
    OS\ProtoThread-Core\transplant_ports\pt_ports.c 0x00000000   Number         0  pt_ports.o ABSOLUTE
    OS\\ProtoThread-Core\\lib\\list.c        0x00000000   Number         0  list.o ABSOLUTE
    OS\\ProtoThread-Core\\lib\\memb.c        0x00000000   Number         0  memb.o ABSOLUTE
    OS\\ProtoThread-Core\\lib\\ringbuf.c     0x00000000   Number         0  ringbuf.o ABSOLUTE
    OS\\ProtoThread-Core\\protothread.c      0x00000000   Number         0  protothread.o ABSOLUTE
    OS\\ProtoThread-Core\\sys\\ctimer.c      0x00000000   Number         0  ctimer.o ABSOLUTE
    OS\\ProtoThread-Core\\sys\\etimer.c      0x00000000   Number         0  etimer.o ABSOLUTE
    OS\\ProtoThread-Core\\sys\\process.c     0x00000000   Number         0  process.o ABSOLUTE
    OS\\ProtoThread-Core\\sys\\timer.c       0x00000000   Number         0  timer.o ABSOLUTE
    OS\\ProtoThread-Core\\transplant_ports\\pt_ports.c 0x00000000   Number         0  pt_ports.o ABSOLUTE
    Src\APP\app_process.c                    0x00000000   Number         0  app_process.o ABSOLUTE
    Src\APP\peripheral.c                     0x00000000   Number         0  peripheral.o ABSOLUTE
    Src\APP\peripheral_main.c                0x00000000   Number         0  peripheral_main.o ABSOLUTE
    Src\APP\pt-sem-example.c                 0x00000000   Number         0  pt-sem-example.o ABSOLUTE
    Src\Profile\devinfoservice.c             0x00000000   Number         0  devinfoservice.o ABSOLUTE
    Src\Profile\gattprofile.c                0x00000000   Number         0  gattprofile.o ABSOLUTE
    Src\\APP\\app_process.c                  0x00000000   Number         0  app_process.o ABSOLUTE
    Src\\APP\\peripheral.c                   0x00000000   Number         0  peripheral.o ABSOLUTE
    Src\\APP\\peripheral_main.c              0x00000000   Number         0  peripheral_main.o ABSOLUTE
    Src\\APP\\pt-sem-example.c               0x00000000   Number         0  pt-sem-example.o ABSOLUTE
    cdrcmple.s                               0x00000000   Number         0  cdrcmple.o ABSOLUTE
    dc.s                                     0x00000000   Number         0  dc.o ABSOLUTE
    handlers.s                               0x00000000   Number         0  handlers.o ABSOLUTE
    init.s                                   0x00000000   Number         0  init.o ABSOLUTE
    .ARM.Collect$$$$00000000                 0x00000090   Section        0  entry.o(.ARM.Collect$$$$00000000)
    .ARM.Collect$$$$00000001                 0x00000090   Section        4  entry2.o(.ARM.Collect$$$$00000001)
    .ARM.Collect$$$$00000004                 0x00000094   Section        4  entry5.o(.ARM.Collect$$$$00000004)
    .ARM.Collect$$$$00000008                 0x00000098   Section        0  entry7b.o(.ARM.Collect$$$$00000008)
    .ARM.Collect$$$$0000000A                 0x00000098   Section        0  entry8b.o(.ARM.Collect$$$$0000000A)
    .ARM.Collect$$$$0000000B                 0x00000098   Section        8  entry9a.o(.ARM.Collect$$$$0000000B)
    .ARM.Collect$$$$0000000E                 0x000000a0   Section        4  entry12b.o(.ARM.Collect$$$$0000000E)
    .ARM.Collect$$$$0000000F                 0x000000a4   Section        0  entry10a.o(.ARM.Collect$$$$0000000F)
    .ARM.Collect$$$$00000011                 0x000000a4   Section        0  entry11a.o(.ARM.Collect$$$$00000011)
    .ARM.Collect$$$$00002712                 0x000000a4   Section        4  entry2.o(.ARM.Collect$$$$00002712)
    __lit__00000000                          0x000000a4   Data           4  entry2.o(.ARM.Collect$$$$00002712)
    .text                                    0x000000a8   Section       28  startup_armcm0.o(.text)
    .text                                    0x000000c4   Section        0  mcu.o(.text)
    .text                                    0x0000029c   Section        0  rtc.o(.text)
    .text                                    0x00000310   Section        0  ch57x_adc.o(.text)
    .text                                    0x0000048c   Section        0  ch57x_clk.o(.text)
    .text                                    0x00000b60   Section        0  ch57x_gpio.o(.text)
    .text                                    0x00000cb0   Section        0  ch57x_int.o(.text)
    .text                                    0x00000ecc   Section        0  ch57x_pwr.o(.text)
    .text                                    0x00001064   Section        0  ch57x_sys.o(.text)
    .text                                    0x00001168   Section        0  ch57x_uart1.o(.text)
    .text                                    0x00001214   Section        0  list.o(.text)
    .text                                    0x00001308   Section        0  ctimer.o(.text)
    process_thread_ctimer_process            0x00001309   Thumb Code   120  ctimer.o(.text)
    .text                                    0x00001488   Section        0  etimer.o(.text)
    update_time                              0x00001489   Thumb Code    52  etimer.o(.text)
    process_thread_etimer_process            0x000014c9   Thumb Code   154  etimer.o(.text)
    add_timer                                0x00001563   Thumb Code    58  etimer.o(.text)
    .text                                    0x00001654   Section        0  process.o(.text)
    exit_process                             0x00001669   Thumb Code   126  process.o(.text)
    call_process                             0x000016e7   Thumb Code    60  process.o(.text)
    do_poll                                  0x00001779   Thumb Code    42  process.o(.text)
    do_event                                 0x0000180b   Thumb Code    96  process.o(.text)
    .text                                    0x00001874   Section        0  timer.o(.text)
    .text                                    0x000018d0   Section        0  pt_ports.o(.text)
    .text                                    0x00001934   Section        0  protothread.o(.text)
    .text                                    0x00001960   Section        0  devinfoservice.o(.text)
    devInfo_ReadAttrCB                       0x000019f9   Thumb Code   290  devinfoservice.o(.text)
    .text                                    0x00001b30   Section        0  gattprofile.o(.text)
    simpleProfile_HandleConnStatusCB         0x00001b31   Thumb Code    40  gattprofile.o(.text)
    simpleProfile_ReadAttrCB                 0x00001c6f   Thumb Code   104  gattprofile.o(.text)
    simpleProfile_WriteAttrCB                0x00001cd7   Thumb Code   154  gattprofile.o(.text)
    .text                                    0x00001d90   Section        0  peripheral_main.o(.text)
    .text                                    0x00001ddc   Section        0  peripheral.o(.text)
    Peripheral_LinkTerminated                0x00001fef   Thumb Code    70  peripheral.o(.text)
    peripheralRssiCB                         0x00002035   Thumb Code    14  peripheral.o(.text)
    peripheralParamUpdateCB                  0x00002043   Thumb Code    38  peripheral.o(.text)
    peripheralStateNotificationCB            0x00002069   Thumb Code   120  peripheral.o(.text)
    simpleProfileChangeCB                    0x000020e1   Thumb Code    34  peripheral.o(.text)
    Peripheral_LinkEstablished               0x00002103   Thumb Code    92  peripheral.o(.text)
    .text                                    0x000022c8   Section        0  pt-sem-example.o(.text)
    process_thread_sem_received_process      0x000022c9   Thumb Code   126  pt-sem-example.o(.text)
    process_thread_sem_send_process          0x00002347   Thumb Code   126  pt-sem-example.o(.text)
    .text                                    0x00002450   Section        0  uidiv.o(.text)
    .text                                    0x0000247c   Section        0  idiv.o(.text)
    .text                                    0x000024a4   Section        0  llmul.o(.text)
    .text                                    0x0000251e   Section        0  llshl.o(.text)
    .text                                    0x0000253e   Section        0  memcpya.o(.text)
    .text                                    0x00002562   Section        0  uldiv.o(.text)
    .text                                    0x000025c4   Section       36  init.o(.text)
    .text                                    0x000025e8   Section        0  llushr.o(.text)
    .text                                    0x0000260a   Section        0  __dczerorl2.o(.text)
    i.AES_DecError                           0x00002660   Section        0  aes.o(i.AES_DecError)
    i.AES_DevAESEnc                          0x000026b4   Section        0  aes.o(i.AES_DevAESEnc)
    i.AES_DevPktDec                          0x0000277c   Section        0  aes.o(i.AES_DevPktDec)
    i.AES_DevPktEnc                          0x00002830   Section        0  aes.o(i.AES_DevPktEnc)
    i.API_DisconnectCmd                      0x000028e4   Section        0  api_c.o(i.API_DisconnectCmd)
    i.API_GetConnectNumeber                  0x000028f8   Section        0  api_c.o(i.API_GetConnectNumeber)
    i.API_HostNumCompletedPktCmd             0x00002904   Section        0  api_c.o(i.API_HostNumCompletedPktCmd)
    i.API_LE_AddDeviceToResolvingList        0x00002938   Section        0  api_c.o(i.API_LE_AddDeviceToResolvingList)
    i.API_LE_AddWhiteListCmd                 0x00002958   Section        0  api_c.o(i.API_LE_AddWhiteListCmd)
    i.API_LE_ClearResolvingList              0x00002978   Section        0  api_c.o(i.API_LE_ClearResolvingList)
    i.API_LE_ClearWhiteListCmd               0x00002998   Section        0  api_c.o(i.API_LE_ClearWhiteListCmd)
    i.API_LE_ConnUpdateCmd                   0x000029b8   Section        0  api_c.o(i.API_LE_ConnUpdateCmd)
    i.API_LE_CreateConnCancelCmd             0x000029d8   Section        0  api_c.o(i.API_LE_CreateConnCancelCmd)
    i.API_LE_LtkReqNegReplyCmd               0x000029f4   Section        0  api_c.o(i.API_LE_LtkReqNegReplyCmd)
    i.API_LE_LtkReqReplyCmd                  0x00002a18   Section        0  api_c.o(i.API_LE_LtkReqReplyCmd)
    i.API_LE_RandCmd                         0x00002a3c   Section        0  api_c.o(i.API_LE_RandCmd)
    i.API_LE_ReadBufSizeCmd                  0x00002a5c   Section        0  api_c.o(i.API_LE_ReadBufSizeCmd)
    i.API_LE_RemoteConnParamReqNegReplyCmd   0x00002a80   Section        0  api_c.o(i.API_LE_RemoteConnParamReqNegReplyCmd)
    i.API_LE_RemoteConnParamReqReplyCmd      0x00002aa4   Section        0  api_c.o(i.API_LE_RemoteConnParamReqReplyCmd)
    i.API_LE_SetAddressResolvableEnableCmd   0x00002ad8   Section        0  api_c.o(i.API_LE_SetAddressResolvableEnableCmd)
    i.API_LE_SetAdvDataCmd                   0x00002af8   Section        0  api_c.o(i.API_LE_SetAdvDataCmd)
    i.API_LE_SetAdvEnableCmd                 0x00002b18   Section        0  api_c.o(i.API_LE_SetAdvEnableCmd)
    i.API_LE_SetAdvParamCmd                  0x00002b38   Section        0  api_c.o(i.API_LE_SetAdvParamCmd)
    i.API_LE_SetRandomAddressCmd             0x00002b64   Section        0  api_c.o(i.API_LE_SetRandomAddressCmd)
    i.API_LE_SetResolvableAddressTimeoutCmd  0x00002b84   Section        0  api_c.o(i.API_LE_SetResolvableAddressTimeoutCmd)
    i.API_LE_SetScanEnableCmd                0x00002ba4   Section        0  api_c.o(i.API_LE_SetScanEnableCmd)
    i.API_LE_SetScanRspDataCmd               0x00002bc4   Section        0  api_c.o(i.API_LE_SetScanRspDataCmd)
    i.API_LE_StartEncryptCmd                 0x00002be4   Section        0  api_c.o(i.API_LE_StartEncryptCmd)
    i.API_MD_DisconnectCmd                   0x00002bf8   Section        0  api_c.o(i.API_MD_DisconnectCmd)
    i.API_ReadBDADDRCmd                      0x00002c00   Section        0  api_c.o(i.API_ReadBDADDRCmd)
    i.API_ReadRssiCmd                        0x00002c24   Section        0  api_c.o(i.API_ReadRssiCmd)
    i.API_SendDataPkt                        0x00002c50   Section        0  api_c.o(i.API_SendDataPkt)
    i.ATT_BuildErrorRsp                      0x00002c58   Section        0  att.o(i.ATT_BuildErrorRsp)
    i.ATT_BuildExchangeMTURsp                0x00002c6e   Section        0  att_server.o(i.ATT_BuildExchangeMTURsp)
    i.ATT_BuildFindByTypeValueRsp            0x00002c7c   Section        0  att_server.o(i.ATT_BuildFindByTypeValueRsp)
    i.ATT_BuildFindInfoRsp                   0x00002c84   Section        0  att_server.o(i.ATT_BuildFindInfoRsp)
    i.ATT_BuildHandleValueInd                0x00002c9e   Section        0  att_server.o(i.ATT_BuildHandleValueInd)
    i.ATT_BuildPrepareWriteRsp               0x00002cb0   Section        0  att_server.o(i.ATT_BuildPrepareWriteRsp)
    i.ATT_BuildReadBlobRsp                   0x00002ccc   Section        0  att_server.o(i.ATT_BuildReadBlobRsp)
    i.ATT_BuildReadByGrpTypeRsp              0x00002cd0   Section        0  att_server.o(i.ATT_BuildReadByGrpTypeRsp)
    i.ATT_BuildReadByTypeRsp                 0x00002ce0   Section        0  att_server.o(i.ATT_BuildReadByTypeRsp)
    i.ATT_BuildReadMultiRsp                  0x00002cf0   Section        0  att_server.o(i.ATT_BuildReadMultiRsp)
    i.ATT_BuildReadRsp                       0x00002cf4   Section        0  att_server.o(i.ATT_BuildReadRsp)
    i.ATT_CompareUUID                        0x00002cf8   Section        0  att.o(i.ATT_CompareUUID)
    i.ATT_ConvertUUIDto128                   0x00002d44   Section        0  att.o(i.ATT_ConvertUUIDto128)
    i.ATT_ErrorRsp                           0x00002d70   Section        0  att.o(i.ATT_ErrorRsp)
    i.ATT_ExchangeMTURsp                     0x00002d88   Section        0  att_server.o(i.ATT_ExchangeMTURsp)
    i.ATT_ExecuteWriteRsp                    0x00002da8   Section        0  att_server.o(i.ATT_ExecuteWriteRsp)
    i.ATT_FindByTypeValueRsp                 0x00002db8   Section        0  att_server.o(i.ATT_FindByTypeValueRsp)
    i.ATT_FindInfoRsp                        0x00002de8   Section        0  att_server.o(i.ATT_FindInfoRsp)
    i.ATT_GetMTU                             0x00002e24   Section        0  att.o(i.ATT_GetMTU)
    i.ATT_HandleValueInd                     0x00002e44   Section        0  att_server.o(i.ATT_HandleValueInd)
    i.ATT_HandleValueNoti                    0x00002e70   Section        0  att_server.o(i.ATT_HandleValueNoti)
    i.ATT_ParamInit                          0x00002e9c   Section        0  att.o(i.ATT_ParamInit)
    i.ATT_ParseExchangeMTUReq                0x00002eac   Section        0  att_server.o(i.ATT_ParseExchangeMTUReq)
    i.ATT_ParseExecuteWriteReq               0x00002ec4   Section        0  att_server.o(i.ATT_ParseExecuteWriteReq)
    i.ATT_ParseFindByTypeValueReq            0x00002ed6   Section        0  att_server.o(i.ATT_ParseFindByTypeValueReq)
    i.ATT_ParseFindInfoReq                   0x00002f1e   Section        0  att_server.o(i.ATT_ParseFindInfoReq)
    i.ATT_ParsePacket                        0x00002f40   Section        0  att.o(i.ATT_ParsePacket)
    i.ATT_ParsePrepareWriteReq               0x00002faa   Section        0  att_server.o(i.ATT_ParsePrepareWriteReq)
    i.ATT_ParseReadBlobReq                   0x00002fe0   Section        0  att_server.o(i.ATT_ParseReadBlobReq)
    i.ATT_ParseReadByTypeReq                 0x00003002   Section        0  att_server.o(i.ATT_ParseReadByTypeReq)
    i.ATT_ParseReadMultiReq                  0x0000303e   Section        0  att_server.o(i.ATT_ParseReadMultiReq)
    i.ATT_ParseReadReq                       0x00003056   Section        0  att_server.o(i.ATT_ParseReadReq)
    i.ATT_ParseWriteReq                      0x0000306e   Section        0  att_server.o(i.ATT_ParseWriteReq)
    i.ATT_PrepareWriteRsp                    0x000030a0   Section        0  att_server.o(i.ATT_PrepareWriteRsp)
    i.ATT_ReadBlobRsp                        0x000030c8   Section        0  att_server.o(i.ATT_ReadBlobRsp)
    i.ATT_ReadByGrpTypeRsp                   0x000030f0   Section        0  att_server.o(i.ATT_ReadByGrpTypeRsp)
    i.ATT_ReadByTypeRsp                      0x00003120   Section        0  att_server.o(i.ATT_ReadByTypeRsp)
    i.ATT_ReadMultiRsp                       0x00003150   Section        0  att_server.o(i.ATT_ReadMultiRsp)
    i.ATT_ReadRsp                            0x0000317c   Section        0  att_server.o(i.ATT_ReadRsp)
    i.ATT_RegisterServer                     0x000031a8   Section        0  att.o(i.ATT_RegisterServer)
    i.ATT_UpdateMTU                          0x000031b4   Section        0  att.o(i.ATT_UpdateMTU)
    i.ATT_WriteRsp                           0x000031e0   Section        0  att_server.o(i.ATT_WriteRsp)
    i.BB_DevInit                             0x000031f0   Section        0  bb.o(i.BB_DevInit)
    i.BLE_ADCTune                            0x0000320c   Section        0  ip.o(i.BLE_ADCTune)
    i.BLE_IPCoreInit                         0x00003234   Section        0  ip.o(i.BLE_IPCoreInit)
    i.BLE_IRQHandler                         0x0000332c   Section        0  lle.o(i.BLE_IRQHandler)
    i.BLE_LibInit                            0x000034a4   Section        0  tmos.o(i.BLE_LibInit)
    i.BLE_RegInit                            0x0000359c   Section        0  ip.o(i.BLE_RegInit)
    i.CreatePRBS15                           0x000035e4   Section        0  ctl_input.o(i.CreatePRBS15)
    i.CreatePRBS9                            0x00003628   Section        0  ctl_input.o(i.CreatePRBS9)
    i.DMA_DevInit                            0x0000366c   Section        0  dma.o(i.DMA_DevInit)
    i.ErasePage                              0x0000369c   Section        0  tmos_hw.o(i.ErasePage)
    i.GAPBondMgr_Erase                       0x000036e8   Section        0  gapbondmgr.o(i.GAPBondMgr_Erase)
    i.GAPBondMgr_GetParameter                0x00003730   Section        0  gapbondmgr.o(i.GAPBondMgr_GetParameter)
    i.GAPBondMgr_Init                        0x000037f4   Section        0  gapbondmgr.o(i.GAPBondMgr_Init)
    i.GAPBondMgr_LinkEst                     0x0000380c   Section        0  gapbondmgr.o(i.GAPBondMgr_LinkEst)
    i.GAPBondMgr_LinkTerm                    0x0000393c   Section        0  gapbondmgr.o(i.GAPBondMgr_LinkTerm)
    i.GAPBondMgr_ParamInit                   0x000039a4   Section        0  gapbondmgr.o(i.GAPBondMgr_ParamInit)
    i.GAPBondMgr_PeripheralRegister          0x00003a90   Section        0  gapbondmgr.o(i.GAPBondMgr_PeripheralRegister)
    i.GAPBondMgr_ProcessEvent                0x00003ab0   Section        0  gapbondmgr.o(i.GAPBondMgr_ProcessEvent)
    i.GAPBondMgr_ProcessGAPMsg               0x00003b50   Section        0  gapbondmgr.o(i.GAPBondMgr_ProcessGAPMsg)
    i.GAPBondMgr_ResolveAddr                 0x00003d5c   Section        0  gapbondmgr.o(i.GAPBondMgr_ResolveAddr)
    i.GAPBondMgr_ServiceChangeInd            0x00003e1c   Section        0  gapbondmgr.o(i.GAPBondMgr_ServiceChangeInd)
    i.GAPBondMgr_SetParameter                0x00003e94   Section        0  gapbondmgr.o(i.GAPBondMgr_SetParameter)
    i.GAPBondMgr_SlaveReqSecurity            0x000041a8   Section        0  gapbondmgr.o(i.GAPBondMgr_SlaveReqSecurity)
    i.GAPBondMgr_UpdateCharCfg               0x00004214   Section        0  gapbondmgr.o(i.GAPBondMgr_UpdateCharCfg)
    i.GAPRole_BroadcasterSetCB               0x00004278   Section        0  broadcaster.o(i.GAPRole_BroadcasterSetCB)
    i.GAPRole_GetParameter                   0x00004284   Section        0  role.o(i.GAPRole_GetParameter)
    i.GAPRole_ParamInit                      0x00004330   Section        0  role.o(i.GAPRole_ParamInit)
    i.GAPRole_PeripheralConnParamUpdateReq   0x00004394   Section        0  peripheral.o(i.GAPRole_PeripheralConnParamUpdateReq)
    i.GAPRole_PeripheralEnable               0x000043e4   Section        0  peripheral.o(i.GAPRole_PeripheralEnable)
    i.GAPRole_PeripheralInit                 0x000044b4   Section        0  role.o(i.GAPRole_PeripheralInit)
    i.GAPRole_PeripheralProcessEvent         0x00004514   Section        0  peripheral.o(i.GAPRole_PeripheralProcessEvent)
    i.GAPRole_PeripheralStartDevice          0x0000467c   Section        0  peripheral.o(i.GAPRole_PeripheralStartDevice)
    i.GAPRole_ReadRssiCmd                    0x000046e4   Section        0  role.o(i.GAPRole_ReadRssiCmd)
    i.GAPRole_SetParameter                   0x000046ec   Section        0  role.o(i.GAPRole_SetParameter)
    i.GAPRole_TerminateLink                  0x00004878   Section        0  role.o(i.GAPRole_TerminateLink)
    i.GAP_Authenticate                       0x00004894   Section        0  gap.o(i.GAP_Authenticate)
    i.GAP_Bond                               0x0000493c   Section        0  gap.o(i.GAP_Bond)
    i.GAP_CentConnRegister                   0x000049c0   Section        0  gap_central.o(i.GAP_CentConnRegister)
    i.GAP_CentDevMgrInit                     0x000049e0   Section        0  gap_central.o(i.GAP_CentDevMgrInit)
    i.GAP_CentralParamInit                   0x00004a58   Section        0  gap_central.o(i.GAP_CentralParamInit)
    i.GAP_DeviceInit                         0x00004a9c   Section        0  gapgattserver.o(i.GAP_DeviceInit)
    i.GAP_EndDiscoverable                    0x00004b44   Section        0  gap_peripheral.o(i.GAP_EndDiscoverable)
    i.GAP_GetParamValue                      0x00004b98   Section        0  gap.o(i.GAP_GetParamValue)
    i.GAP_Init                               0x00004bb0   Section        0  gap.o(i.GAP_Init)
    i.GAP_MakeDiscoverable                   0x00004be8   Section        0  gap_peripheral.o(i.GAP_MakeDiscoverable)
    i.GAP_NumActiveConnections               0x00004cc4   Section        0  gap.o(i.GAP_NumActiveConnections)
    i.GAP_ParamInit                          0x00004ccc   Section        0  gap.o(i.GAP_ParamInit)
    i.GAP_ParamsInit                         0x00004d44   Section        0  gap.o(i.GAP_ParamsInit)
    i.GAP_PasscodeUpdate                     0x00004d7c   Section        0  gap.o(i.GAP_PasscodeUpdate)
    i.GAP_PeriConnRegister                   0x00004dc4   Section        0  gap_peripheral.o(i.GAP_PeriConnRegister)
    i.GAP_PeriDevMgrInit                     0x00004df4   Section        0  gap_peripheral.o(i.GAP_PeriDevMgrInit)
    i.GAP_PeripheralParamInit                0x00004e80   Section        0  gap_peripheral.o(i.GAP_PeripheralParamInit)
    i.GAP_ProcessEvent                       0x00004ec0   Section        0  gap.o(i.GAP_ProcessEvent)
    i.GAP_RegisterForMsgs                    0x00004fa4   Section        0  gap.o(i.GAP_RegisterForMsgs)
    i.GAP_ResolvePrivateAddr                 0x00004fb0   Section        0  gap.o(i.GAP_ResolvePrivateAddr)
    i.GAP_SecParamsInit                      0x00004fb8   Section        0  gap.o(i.GAP_SecParamsInit)
    i.GAP_SendSlaveSecurityRequest           0x00005014   Section        0  gap.o(i.GAP_SendSlaveSecurityRequest)
    i.GAP_SetParamValue                      0x00005054   Section        0  gap.o(i.GAP_SetParamValue)
    i.GAP_Signable                           0x00005088   Section        0  gap.o(i.GAP_Signable)
    i.GAP_TerminateAuth                      0x000050d8   Section        0  gap.o(i.GAP_TerminateAuth)
    i.GAP_TerminateLinkReq                   0x000050f8   Section        0  gap.o(i.GAP_TerminateLinkReq)
    i.GAP_UpdateAdvertisingData              0x00005180   Section        0  gap_peripheral.o(i.GAP_UpdateAdvertisingData)
    i.GATTServApp_AddService                 0x00005210   Section        0  gattservapp.o(i.GATTServApp_AddService)
    i.GATTServApp_Init                       0x0000523c   Section        0  gattservapp.o(i.GATTServApp_Init)
    i.GATTServApp_InitCharCfg                0x000052a4   Section        0  gattservapp.o(i.GATTServApp_InitCharCfg)
    i.GATTServApp_ParamInit                  0x000052d4   Section        0  gattservapp.o(i.GATTServApp_ParamInit)
    i.GATTServApp_ProcessCCCWriteReq         0x00005370   Section        0  gattservapp.o(i.GATTServApp_ProcessCCCWriteReq)
    i.GATTServApp_ProcessEvent               0x000053bc   Section        0  gattservapp.o(i.GATTServApp_ProcessEvent)
    i.GATTServApp_ReadAttr                   0x00005404   Section        0  gattservapp.o(i.GATTServApp_ReadAttr)
    i.GATTServApp_ReadCharCfg                0x0000562c   Section        0  gattservapp.o(i.GATTServApp_ReadCharCfg)
    i.GATTServApp_RegisterForMsg             0x0000563c   Section        0  gattservapp.o(i.GATTServApp_RegisterForMsg)
    i.GATTServApp_RegisterService            0x00005648   Section        0  gattservapp.o(i.GATTServApp_RegisterService)
    i.GATTServApp_SendCCCUpdatedEvent        0x000056ac   Section        0  gattservapp.o(i.GATTServApp_SendCCCUpdatedEvent)
    i.GATTServApp_SendServiceChangedInd      0x000056e4   Section        0  gattservapp.o(i.GATTServApp_SendServiceChangedInd)
    i.GATTServApp_UpdateCharCfg              0x00005708   Section        0  gattservapp.o(i.GATTServApp_UpdateCharCfg)
    i.GATTServApp_WriteAttr                  0x00005720   Section        0  gattservapp.o(i.GATTServApp_WriteAttr)
    i.GATTServApp_WriteCharCfg               0x00005798   Section        0  gattservapp.o(i.GATTServApp_WriteCharCfg)
    i.GATT_AppCompletedMsg                   0x000057c4   Section        0  gatt.o(i.GATT_AppCompletedMsg)
    i.GATT_FindHandle                        0x000057f0   Section        0  gattservapp.o(i.GATT_FindHandle)
    i.GATT_FindHandleUUID                    0x00005838   Section        0  gattservapp.o(i.GATT_FindHandleUUID)
    i.GATT_FindNextAttr                      0x000058ac   Section        0  gattservapp.o(i.GATT_FindNextAttr)
    i.GATT_Indication                        0x00005940   Section        0  gattservapp.o(i.GATT_Indication)
    i.GATT_Init                              0x000059a8   Section        0  gatt.o(i.GATT_Init)
    i.GATT_InitServer                        0x000059d4   Section        0  gattservapp.o(i.GATT_InitServer)
    i.GATT_Notification                      0x00005a24   Section        0  gattservapp.o(i.GATT_Notification)
    i.GATT_NotifyEvent                       0x00005a7c   Section        0  gatt.o(i.GATT_NotifyEvent)
    i.GATT_ProcessEvent                      0x00005ab4   Section        0  gatt.o(i.GATT_ProcessEvent)
    i.GATT_RegisterForPeriMsgs               0x00005ba8   Section        0  gatt.o(i.GATT_RegisterForPeriMsgs)
    i.GATT_RegisterService                   0x00005bb4   Section        0  gattservapp.o(i.GATT_RegisterService)
    i.GATT_ServiceChangedInd                 0x00005c6c   Section        0  gatt.o(i.GATT_ServiceChangedInd)
    i.GATT_ServiceEncKeySize                 0x00005ce4   Section        0  gattservapp.o(i.GATT_ServiceEncKeySize)
    i.GATT_ServiceNumAttrs                   0x00005cf6   Section        0  gattservapp.o(i.GATT_ServiceNumAttrs)
    i.GATT_UpdateMTU                         0x00005d04   Section        0  gatt.o(i.GATT_UpdateMTU)
    i.GATT_VerifyPrepareWritePermissions     0x00005d50   Section        0  gattservapp.o(i.GATT_VerifyPrepareWritePermissions)
    i.GATT_VerifyReadPermissions             0x00005da2   Section        0  gattservapp.o(i.GATT_VerifyReadPermissions)
    i.GATT_VerifyWritePermissions            0x00005df8   Section        0  gattservapp.o(i.GATT_VerifyWritePermissions)
    i.GATT_bm_alloc                          0x00005e5c   Section        0  gatt.o(i.GATT_bm_alloc)
    i.GATT_bm_free                           0x00005ee8   Section        0  gatt.o(i.GATT_bm_free)
    i.GGS_AddService                         0x00005ef8   Section        0  gapgattserver.o(i.GGS_AddService)
    i.GGS_ParamInit                          0x00005f24   Section        0  gapgattserver.o(i.GGS_ParamInit)
    i.GGS_SetParameter                       0x0000604c   Section        0  gapgattserver.o(i.GGS_SetParameter)
    i.GetTxPower                             0x000060e0   Section        0  ip.o(i.GetTxPower)
    i.HCI_AuthenticatedPayloadTimeoutExpiredCback 0x0000612c   Section        0  ctl_output.o(i.HCI_AuthenticatedPayloadTimeoutExpiredCback)
    i.HCI_CommandCompleteCback               0x0000612e   Section        0  ctl_output.o(i.HCI_CommandCompleteCback)
    i.HCI_CommandStatusCback                 0x00006136   Section        0  ctl_output.o(i.HCI_CommandStatusCback)
    i.HCI_DataBufferOverflowCback            0x0000613e   Section        0  ctl_output.o(i.HCI_DataBufferOverflowCback)
    i.HCI_DisconnectCmd                      0x00006146   Section        0  host_output.o(i.HCI_DisconnectCmd)
    i.HCI_DisconnectionCompleteCback         0x0000614e   Section        0  ctl_output.o(i.HCI_DisconnectionCompleteCback)
    i.HCI_EncryptionChangeCback              0x00006156   Section        0  ctl_output.o(i.HCI_EncryptionChangeCback)
    i.HCI_EncryptionKeyRefreshCompleteCback  0x0000615e   Section        0  ctl_output.o(i.HCI_EncryptionKeyRefreshCompleteCback)
    i.HCI_HostNumCompletedPktCmd             0x00006166   Section        0  host_output.o(i.HCI_HostNumCompletedPktCmd)
    i.HCI_LE_AddDeviceToResolvingList        0x00006170   Section        0  host_output.o(i.HCI_LE_AddDeviceToResolvingList)
    i.HCI_LE_AddWhiteListCmd                 0x00006178   Section        0  host_output.o(i.HCI_LE_AddWhiteListCmd)
    i.HCI_LE_ClearResolvingList              0x00006180   Section        0  host_output.o(i.HCI_LE_ClearResolvingList)
    i.HCI_LE_ClearWhiteListCmd               0x00006188   Section        0  host_output.o(i.HCI_LE_ClearWhiteListCmd)
    i.HCI_LE_ConnUpdateCmd                   0x00006190   Section        0  host_output.o(i.HCI_LE_ConnUpdateCmd)
    i.HCI_LE_ConnectionCompleteCback         0x000061a0   Section        0  ctl_output.o(i.HCI_LE_ConnectionCompleteCback)
    i.HCI_LE_ConnectionUpdateCompleteCback   0x000061ba   Section        0  ctl_output.o(i.HCI_LE_ConnectionUpdateCompleteCback)
    i.HCI_LE_CreateConnCancelCmd             0x000061c6   Section        0  host_output.o(i.HCI_LE_CreateConnCancelCmd)
    i.HCI_LE_DataLengthChangeCback           0x000061ce   Section        0  ctl_output.o(i.HCI_LE_DataLengthChangeCback)
    i.HCI_LE_EnhancedConnectionCompleteCback 0x000061da   Section        0  ctl_output.o(i.HCI_LE_EnhancedConnectionCompleteCback)
    i.HCI_LE_LongTermKeyRequestCback         0x000061fa   Section        0  ctl_output.o(i.HCI_LE_LongTermKeyRequestCback)
    i.HCI_LE_LtkReqNegReplyCmd               0x00006202   Section        0  host_output.o(i.HCI_LE_LtkReqNegReplyCmd)
    i.HCI_LE_LtkReqReplyCmd                  0x0000620a   Section        0  host_output.o(i.HCI_LE_LtkReqReplyCmd)
    i.HCI_LE_RandCmd                         0x00006212   Section        0  host_output.o(i.HCI_LE_RandCmd)
    i.HCI_LE_ReadBufSizeCmd                  0x0000621a   Section        0  host_output.o(i.HCI_LE_ReadBufSizeCmd)
    i.HCI_LE_ReadRemoteUsedFeaturesCompleteCback 0x00006222   Section        0  ctl_output.o(i.HCI_LE_ReadRemoteUsedFeaturesCompleteCback)
    i.HCI_LE_RemoteConnParamReqNegReplyCmd   0x0000622a   Section        0  host_output.o(i.HCI_LE_RemoteConnParamReqNegReplyCmd)
    i.HCI_LE_RemoteConnParamReqReplyCmd      0x00006232   Section        0  host_output.o(i.HCI_LE_RemoteConnParamReqReplyCmd)
    i.HCI_LE_RemoteConnectionParameterRequestCback 0x00006242   Section        0  ctl_output.o(i.HCI_LE_RemoteConnectionParameterRequestCback)
    i.HCI_LE_SetAddressResolvableEnableCmd   0x0000624e   Section        0  host_output.o(i.HCI_LE_SetAddressResolvableEnableCmd)
    i.HCI_LE_SetAdvDataCmd                   0x00006256   Section        0  host_output.o(i.HCI_LE_SetAdvDataCmd)
    i.HCI_LE_SetAdvEnableCmd                 0x0000625e   Section        0  host_output.o(i.HCI_LE_SetAdvEnableCmd)
    i.HCI_LE_SetAdvParamCmd                  0x00006266   Section        0  host_output.o(i.HCI_LE_SetAdvParamCmd)
    i.HCI_LE_SetRandomAddressCmd             0x0000627c   Section        0  host_output.o(i.HCI_LE_SetRandomAddressCmd)
    i.HCI_LE_SetResolvableAddressTimeoutCmd  0x00006284   Section        0  host_output.o(i.HCI_LE_SetResolvableAddressTimeoutCmd)
    i.HCI_LE_SetScanEnableCmd                0x0000628c   Section        0  host_output.o(i.HCI_LE_SetScanEnableCmd)
    i.HCI_LE_SetScanRspDataCmd               0x00006294   Section        0  host_output.o(i.HCI_LE_SetScanRspDataCmd)
    i.HCI_LE_StartEncyptCmd                  0x0000629c   Section        0  host_output.o(i.HCI_LE_StartEncyptCmd)
    i.HCI_MB_DisconnectCmd                   0x000062ac   Section        0  host_output.o(i.HCI_MB_DisconnectCmd)
    i.HCI_NumberOfCompletedPacketsCback      0x000062b4   Section        0  ctl_output.o(i.HCI_NumberOfCompletedPacketsCback)
    i.HCI_ReadBDADDRCmd                      0x000062bc   Section        0  host_output.o(i.HCI_ReadBDADDRCmd)
    i.HCI_ReadRemoteVersionInfoCback         0x000062c4   Section        0  ctl_output.o(i.HCI_ReadRemoteVersionInfoCback)
    i.HCI_ReadRssiCmd                        0x000062d0   Section        0  host_output.o(i.HCI_ReadRssiCmd)
    i.HCI_RemoteConnectionParameterRequestCback 0x000062d8   Section        0  ctl_output.o(i.HCI_RemoteConnectionParameterRequestCback)
    i.HCI_RxDataCompleteCback                0x000062e4   Section        0  ctl_output.o(i.HCI_RxDataCompleteCback)
    i.HCI_SendDataPkt                        0x000062ec   Section        0  host_output.o(i.HCI_SendDataPkt)
    i.HCI_ValidConnTimeParams                0x000062f4   Section        0  host_output.o(i.HCI_ValidConnTimeParams)
    i.HOST_CommandCompleteEvent              0x00006330   Section        0  host_input.o(i.HOST_CommandCompleteEvent)
    i.HOST_CommandStatusEvent                0x00006370   Section        0  host_input.o(i.HOST_CommandStatusEvent)
    i.HOST_DataBufferOverflowEvent           0x000063a0   Section        0  host_input.o(i.HOST_DataBufferOverflowEvent)
    i.HOST_DisconnectionCompleteEvent        0x000063c8   Section        0  host_input.o(i.HOST_DisconnectionCompleteEvent)
    i.HOST_EncryptionChangeEvent             0x000063f8   Section        0  host_input.o(i.HOST_EncryptionChangeEvent)
    i.HOST_EncryptionKeyRefreshCompleteEvent 0x0000642c   Section        0  host_input.o(i.HOST_EncryptionKeyRefreshCompleteEvent)
    i.HOST_LE_ConnectionCompleteEvent        0x00006458   Section        0  host_input.o(i.HOST_LE_ConnectionCompleteEvent)
    i.HOST_LE_ConnectionUpdateCompleteEvent  0x000064d8   Section        0  host_input.o(i.HOST_LE_ConnectionUpdateCompleteEvent)
    i.HOST_LE_DataLengthChangeEvent          0x00006514   Section        0  host_input.o(i.HOST_LE_DataLengthChangeEvent)
    i.HOST_LE_EnhancedConnectionCompleteEvent 0x00006550   Section        0  host_input.o(i.HOST_LE_EnhancedConnectionCompleteEvent)
    i.HOST_LE_LongTermKeyRequestEvent        0x00006604   Section        0  host_input.o(i.HOST_LE_LongTermKeyRequestEvent)
    i.HOST_LE_ReadRemoteUsedFeaturesCompleteEvent 0x00006640   Section        0  host_input.o(i.HOST_LE_ReadRemoteUsedFeaturesCompleteEvent)
    i.HOST_LE_RemoteConnectionParameterRequestEvent 0x0000667c   Section        0  host_input.o(i.HOST_LE_RemoteConnectionParameterRequestEvent)
    i.HOST_NumberOfCompletedPacketsEvent     0x000066b8   Section        0  host_input.o(i.HOST_NumberOfCompletedPacketsEvent)
    i.HOST_ReadRemoteVersionInfoEvent        0x000066e8   Section        0  host_input.o(i.HOST_ReadRemoteVersionInfoEvent)
    i.HOST_RecvDataPackets                   0x00006720   Section        0  host_input.o(i.HOST_RecvDataPackets)
    i.HOST_RemoteConnectionParameterRequestEvent 0x00006844   Section        0  host_input.o(i.HOST_RemoteConnectionParameterRequestEvent)
    i.L2CAP_CmdReject                        0x00006874   Section        0  l2cap_sdu.o(i.L2CAP_CmdReject)
    i.L2CAP_ConnParamUpdateReq               0x0000688c   Section        0  l2cap_sdu.o(i.L2CAP_ConnParamUpdateReq)
    i.L2CAP_ConnParamUpdateRsp               0x000068a8   Section        0  l2cap_sdu.o(i.L2CAP_ConnParamUpdateRsp)
    i.L2CAP_DisconnectReq                    0x000068c0   Section        0  l2cap_sdu.o(i.L2CAP_DisconnectReq)
    i.L2CAP_GetMTU                           0x000068e8   Section        0  l2cap.o(i.L2CAP_GetMTU)
    i.L2CAP_HostNumCompletedPkts             0x000068f4   Section        0  l2cap.o(i.L2CAP_HostNumCompletedPkts)
    i.L2CAP_Init                             0x0000690c   Section        0  l2cap.o(i.L2CAP_Init)
    i.L2CAP_ParseConnectReq                  0x000069bc   Section        0  l2cap.o(i.L2CAP_ParseConnectReq)
    i.L2CAP_ParseFlowCtrlCredit              0x000069fa   Section        0  l2cap.o(i.L2CAP_ParseFlowCtrlCredit)
    i.L2CAP_ParseParamUpdateReq              0x00006a1a   Section        0  l2cap_input.o(i.L2CAP_ParseParamUpdateReq)
    i.L2CAP_ProcessEvent                     0x00006a50   Section        0  l2cap.o(i.L2CAP_ProcessEvent)
    i.L2CAP_RegisterApp                      0x00006ae0   Section        0  l2cap.o(i.L2CAP_RegisterApp)
    i.L2CAP_SendData                         0x00006b0c   Section        0  l2cap_output.o(i.L2CAP_SendData)
    i.L2CAP_SetBufSize                       0x00006b88   Section        0  l2cap.o(i.L2CAP_SetBufSize)
    i.L2CAP_bm_alloc                         0x00006b98   Section        0  l2cap.o(i.L2CAP_bm_alloc)
    i.LLE_DevInit                            0x00006bb8   Section        0  lle.o(i.LLE_DevInit)
    i.LL_AddDeviceToResolvingList            0x00006bf0   Section        0  ctl_input.o(i.LL_AddDeviceToResolvingList)
    i.LL_AddWhiteListDevice                  0x00006c84   Section        0  ctl_input.o(i.LL_AddWhiteListDevice)
    i.LL_AddrGenerateResolvableAddress       0x00006cfc   Section        0  ll_address.o(i.LL_AddrGenerateResolvableAddress)
    i.LL_AddrInit                            0x00006d80   Section        0  ll_address.o(i.LL_AddrInit)
    i.LL_AdvertiseDirectTimeout              0x00006e9c   Section        0  ll_advertise.o(i.LL_AdvertiseDirectTimeout)
    i.LL_AdvertiseEnalbe                     0x00006eb0   Section        0  ll_advertise.o(i.LL_AdvertiseEnalbe)
    i.LL_AdvertiseToStandby                  0x00006edc   Section        0  ll_advertise.o(i.LL_AdvertiseToStandby)
    i.LL_ClearResolvingList                  0x00006f14   Section        0  ctl_input.o(i.LL_ClearResolvingList)
    i.LL_ClearWhiteList                      0x00006f20   Section        0  ctl_input.o(i.LL_ClearWhiteList)
    i.LL_ConnUpdate                          0x00006f6c   Section        0  ctl_input.o(i.LL_ConnUpdate)
    i.LL_ConnectFlowcontrolRx                0x0000706c   Section        0  ll_connect.o(i.LL_ConnectFlowcontrolRx)
    i.LL_ConnectFlowcontrolTx                0x0000708e   Section        0  ll_connect.o(i.LL_ConnectFlowcontrolTx)
    i.LL_ConnectFreeTmosPrioritID            0x000070b0   Section        0  ll_connect.o(i.LL_ConnectFreeTmosPrioritID)
    i.LL_ConnectRxPktnumIncrease             0x00007134   Section        0  ll_connect.o(i.LL_ConnectRxPktnumIncrease)
    i.LL_ConnectShut                         0x00007164   Section        0  ll_connect.o(i.LL_ConnectShut)
    i.LL_ConnectToStandby                    0x000071f8   Section        0  ll_connect.o(i.LL_ConnectToStandby)
    i.LL_ConnectTxPktnumIncrease             0x00007274   Section        0  ll_connect.o(i.LL_ConnectTxPktnumIncrease)
    i.LL_ConnectionParamReq                  0x000072b0   Section        0  ll_pdu.o(i.LL_ConnectionParamReq)
    i.LL_ConnectionParamRsp                  0x0000731c   Section        0  ll_pdu.o(i.LL_ConnectionParamRsp)
    i.LL_CoreClose                           0x0000737c   Section        0  ll_core.o(i.LL_CoreClose)
    i.LL_CoreDataListFree                    0x000073dc   Section        0  ll_core.o(i.LL_CoreDataListFree)
    i.LL_CoreDataListInit                    0x000073fc   Section        0  ll_core.o(i.LL_CoreDataListInit)
    i.LL_CoreGetCore                         0x00007478   Section        0  ll_core.o(i.LL_CoreGetCore)
    i.LL_CoreGetDataList                     0x00007498   Section        0  ll_core.o(i.LL_CoreGetDataList)
    i.LL_CoreInit                            0x000074d0   Section        0  ll_core.o(i.LL_CoreInit)
    i.LL_CoreOpen                            0x000074e4   Section        0  ll_core.o(i.LL_CoreOpen)
    i.LL_CreateConnCancel                    0x00007584   Section        0  ctl_input.o(i.LL_CreateConnCancel)
    i.LL_Disconnect                          0x000075a4   Section        0  ctl_input.o(i.LL_Disconnect)
    i.LL_EncRsp                              0x000075d4   Section        0  ll_pdu.o(i.LL_EncRsp)
    i.LL_Encrypt                             0x00007614   Section        0  aes.o(i.LL_Encrypt)
    i.LL_FeatureRsp                          0x000076d6   Section        0  ll_pdu.o(i.LL_FeatureRsp)
    i.LL_GetNextConnectEventTime             0x0000770c   Section        0  ll_connect.o(i.LL_GetNextConnectEventTime)
    i.LL_HopGetChannel                       0x000077cc   Section        0  ll_hop.o(i.LL_HopGetChannel)
    i.LL_HopInit                             0x00007884   Section        0  ll_hop.o(i.LL_HopInit)
    i.LL_Init                                0x0000788c   Section        0  ll.o(i.LL_Init)
    i.LL_InitiateToStandby                   0x00007958   Section        0  ll_initiate.o(i.LL_InitiateToStandby)
    i.LL_LE_ReadBufSize                      0x0000799c   Section        0  ctl_input.o(i.LL_LE_ReadBufSize)
    i.LL_LengthReq                           0x000079b8   Section        0  ll_pdu.o(i.LL_LengthReq)
    i.LL_LengthRsp                           0x00007a32   Section        0  ll_pdu.o(i.LL_LengthRsp)
    i.LL_LtkReqNegReply                      0x00007a9a   Section        0  ctl_input.o(i.LL_LtkReqNegReply)
    i.LL_LtkReqReply                         0x00007acc   Section        0  ctl_input.o(i.LL_LtkReqReply)
    i.LL_MD_Disconnect                       0x00007b4c   Section        0  ctl_input.o(i.LL_MD_Disconnect)
    i.LL_PauseEncRsp                         0x00007b6a   Section        0  ll_pdu.o(i.LL_PauseEncRsp)
    i.LL_PingReq                             0x00007b86   Section        0  ll_pdu.o(i.LL_PingReq)
    i.LL_PingRsp                             0x00007bac   Section        0  ll_pdu.o(i.LL_PingRsp)
    i.LL_ProcessEvent                        0x00007bc4   Section        0  ll.o(i.LL_ProcessEvent)
    i.LL_ProcessTMOSReportMsg                0x00007ccc   Section        0  ll_report.o(i.LL_ProcessTMOSReportMsg)
    i.LL_Rand                                0x00008192   Section        0  ctl_input.o(i.LL_Rand)
    i.LL_ReadBDAddr                          0x000081b0   Section        0  ctl_input.o(i.LL_ReadBDAddr)
    i.LL_ReadRssi                            0x000081d0   Section        0  ctl_input.o(i.LL_ReadRssi)
    i.LL_ReceiverTest                        0x000081e8   Section        0  ctl_input.o(i.LL_ReceiverTest)
    i.LL_RejectInd                           0x0000821c   Section        0  ll_pdu.o(i.LL_RejectInd)
    i.LL_RejectIndExt                        0x00008240   Section        0  ll_pdu.o(i.LL_RejectIndExt)
    i.LL_RemoteConnParamReqNegReply          0x00008260   Section        0  ctl_input.o(i.LL_RemoteConnParamReqNegReply)
    i.LL_RemoteConnParamReqReply             0x00008290   Section        0  ctl_input.o(i.LL_RemoteConnParamReqReply)
    i.LL_ReportGenerateEvent                 0x00008394   Section        0  ll_report.o(i.LL_ReportGenerateEvent)
    i.LL_ResolvinglistAdd                    0x000083c0   Section        0  ll_resolvinglist.o(i.LL_ResolvinglistAdd)
    i.LL_ResolvinglistCheckPeerResolution    0x000084b0   Section        0  ll_resolvinglist.o(i.LL_ResolvinglistCheckPeerResolution)
    i.LL_ResolvinglistClearall               0x000084f0   Section        0  ll_resolvinglist.o(i.LL_ResolvinglistClearall)
    i.LL_ResolvinglistInit                   0x00008520   Section        0  ll_resolvinglist.o(i.LL_ResolvinglistInit)
    i.LL_ResolvinglistPeerIdentifyAddressGetIrk 0x00008538   Section        0  ll_resolvinglist.o(i.LL_ResolvinglistPeerIdentifyAddressGetIrk)
    i.LL_ResolvinglistPeerRpaAddressGetIrk   0x00008570   Section        0  ll_resolvinglist.o(i.LL_ResolvinglistPeerRpaAddressGetIrk)
    i.LL_RxConnParamReq                      0x0000859c   Section        0  ll_pdu.o(i.LL_RxConnParamReq)
    i.LL_RxLenUpdate                         0x00008670   Section        0  ll_pdu.o(i.LL_RxLenUpdate)
    i.LL_RxVersionExchange                   0x000086b0   Section        0  ll_pdu.o(i.LL_RxVersionExchange)
    i.LL_ScanToStandby                       0x000086d0   Section        0  ll_scan.o(i.LL_ScanToStandby)
    i.LL_SendAck                             0x0000871c   Section        0  ll_pdu.o(i.LL_SendAck)
    i.LL_SendDataPkt                         0x0000873c   Section        0  ctl_input.o(i.LL_SendDataPkt)
    i.LL_SendDmaBuf                          0x00008874   Section        0  ll_pdu.o(i.LL_SendDmaBuf)
    i.LL_SetAddressResolvableEnable          0x00008914   Section        0  ctl_input.o(i.LL_SetAddressResolvableEnable)
    i.LL_SetAdvControl                       0x00008960   Section        0  ctl_input.o(i.LL_SetAdvControl)
    i.LL_SetAdvData                          0x00008a50   Section        0  ctl_input.o(i.LL_SetAdvData)
    i.LL_SetAdvParam                         0x00008a90   Section        0  ctl_input.o(i.LL_SetAdvParam)
    i.LL_SetDataLength                       0x00008b3c   Section        0  ctl_input.o(i.LL_SetDataLength)
    i.LL_SetRandomAddress                    0x00008ba4   Section        0  ctl_input.o(i.LL_SetRandomAddress)
    i.LL_SetResolvableAddressTimeout         0x00008c20   Section        0  ctl_input.o(i.LL_SetResolvableAddressTimeout)
    i.LL_SetScanEnable                       0x00008c4c   Section        0  ctl_input.o(i.LL_SetScanEnable)
    i.LL_SetScanRspData                      0x00008cd0   Section        0  ctl_input.o(i.LL_SetScanRspData)
    i.LL_SlaveEnalbe                         0x00008d0c   Section        0  ll_slave.o(i.LL_SlaveEnalbe)
    i.LL_SlaveFeatureReq                     0x00008d2c   Section        0  ll_pdu.o(i.LL_SlaveFeatureReq)
    i.LL_StartEncReq                         0x00008d66   Section        0  ll_pdu.o(i.LL_StartEncReq)
    i.LL_StartEncRsp                         0x00008d82   Section        0  ll_pdu.o(i.LL_StartEncRsp)
    i.LL_StartEncrypt                        0x00008d9e   Section        0  ctl_input.o(i.LL_StartEncrypt)
    i.LL_TerminateInd                        0x00008eec   Section        0  ll_pdu.o(i.LL_TerminateInd)
    i.LL_TransmitterTest                     0x00008f18   Section        0  ctl_input.o(i.LL_TransmitterTest)
    i.LL_UnknowRsp                           0x00009010   Section        0  ll_pdu.o(i.LL_UnknowRsp)
    i.LL_VersionInd                          0x00009034   Section        0  ll_pdu.o(i.LL_VersionInd)
    i.LL_WhitelistAdd                        0x00009070   Section        0  ll_whitelist.o(i.LL_WhitelistAdd)
    i.LL_WhitelistClearAll                   0x000090e0   Section        0  ll_whitelist.o(i.LL_WhitelistClearAll)
    i.LL_WhitelistInit                       0x00009104   Section        0  ll_whitelist.o(i.LL_WhitelistInit)
    i.LL_WhitelistLookup                     0x00009114   Section        0  ll_whitelist.o(i.LL_WhitelistLookup)
    i.RFEND_DevInit                          0x00009144   Section        0  rfend.o(i.RFEND_DevInit)
    i.RFEND_RXAdc                            0x00009210   Section        0  rfend.o(i.RFEND_RXAdc)
    i.RFEND_RXFilter                         0x00009304   Section        0  rfend.o(i.RFEND_RXFilter)
    i.RFEND_TXCtune                          0x00009374   Section        0  rfend.o(i.RFEND_TXCtune)
    i.RFEND_TXFtune                          0x00009ef4   Section        0  rfend.o(i.RFEND_TXFtune)
    i.RTC_Get32KClock                        0x00009f08   Section        0  tmos_hw.o(i.RTC_Get32KClock)
    i.RTC_GetTickCount                       0x00009f20   Section        0  tmos_hw.o(i.RTC_GetTickCount)
    i.ReadFlash                              0x00009f94   Section        0  tmos_hw.o(i.ReadFlash)
    i.SM_CalcRandomAddr                      0x00009fae   Section        0  sm.o(i.SM_CalcRandomAddr)
    i.SM_GenerateAuthenSig                   0x00009ff0   Section        0  sm.o(i.SM_GenerateAuthenSig)
    i.SM_Init                                0x0000a094   Section        0  sm.o(i.SM_Init)
    i.SM_InitiatorInit                       0x0000a0b8   Section        0  sm.o(i.SM_InitiatorInit)
    i.SM_ParamInit                           0x0000a0d8   Section        0  sm.o(i.SM_ParamInit)
    i.SM_PasskeyUpdate                       0x0000a120   Section        0  sm.o(i.SM_PasskeyUpdate)
    i.SM_ProcessEvent                        0x0000a1a4   Section        0  sm.o(i.SM_ProcessEvent)
    i.SM_ResolveRandomAddrs                  0x0000a220   Section        0  sm.o(i.SM_ResolveRandomAddrs)
    i.SM_ResponderInit                       0x0000a26c   Section        0  sm.o(i.SM_ResponderInit)
    i.SM_StartEncryption                     0x0000a28c   Section        0  sm.o(i.SM_StartEncryption)
    i.SM_StartPairing                        0x0000a2fe   Section        0  sm.o(i.SM_StartPairing)
    i.SM_VerifyAuthenSig                     0x0000a394   Section        0  sm.o(i.SM_VerifyAuthenSig)
    i.TMOS_CbTimerProcessEvent               0x0000a484   Section        0  tmos.o(i.TMOS_CbTimerProcessEvent)
    i.TMOS_Init                              0x0000a4f0   Section        0  tmos.o(i.TMOS_Init)
    i.TMOS_ProcessEventRegister              0x0000a580   Section        0  tmos.o(i.TMOS_ProcessEventRegister)
    i.TMOS_ProcessRegister                   0x0000a5ac   Section        0  tmos.o(i.TMOS_ProcessRegister)
    i.TMOS_SystemProcess                     0x0000a5bc   Section        0  tmos.o(i.TMOS_SystemProcess)
    i.TMOS_TimerInit                         0x0000a7e8   Section        0  tmos_hw.o(i.TMOS_TimerInit)
    i.TMOS_TimerRegister                     0x0000a820   Section        0  tmos.o(i.TMOS_TimerRegister)
    i.WtireFlash                             0x0000a838   Section        0  tmos_hw.o(i.WtireFlash)
    i.__0printf$8                            0x0000a894   Section        0  printf8.o(i.__0printf$8)
    i.__ARM_common_ll_muluu                  0x0000a8b4   Section        0  tmos_hw.o(i.__ARM_common_ll_muluu)
    i.__ARM_common_switch8                   0x0000a8e4   Section        0  led.o(i.__ARM_common_switch8)
    i.__scatterload_copy                     0x0000a8fe   Section       14  handlers.o(i.__scatterload_copy)
    i.__scatterload_null                     0x0000a90c   Section        2  handlers.o(i.__scatterload_null)
    i.__scatterload_zeroinit                 0x0000a90e   Section       14  handlers.o(i.__scatterload_zeroinit)
    i._printf_core                           0x0000a91c   Section        0  printf8.o(i._printf_core)
    _printf_core                             0x0000a91d   Thumb Code  1020  printf8.o(i._printf_core)
    i._printf_post_padding                   0x0000ad44   Section        0  printf8.o(i._printf_post_padding)
    _printf_post_padding                     0x0000ad45   Thumb Code    32  printf8.o(i._printf_post_padding)
    i._printf_pre_padding                    0x0000ad64   Section        0  printf8.o(i._printf_pre_padding)
    _printf_pre_padding                      0x0000ad65   Thumb Code    44  printf8.o(i._printf_pre_padding)
    i.attSendMsg                             0x0000ad90   Section        0  att.o(i.attSendMsg)
    i.attSendRspMsg                          0x0000ae18   Section        0  att.o(i.attSendRspMsg)
    i.ble_ll_chkcrc                          0x0000ae50   Section        0  ip.o(i.ble_ll_chkcrc)
    i.ble_ll_common_rand16                   0x0000aea0   Section        0  tmos_hw.o(i.ble_ll_common_rand16)
    i.ble_ll_common_rand32                   0x0000aebe   Section        0  tmos_hw.o(i.ble_ll_common_rand32)
    i.ble_ll_common_rand8                    0x0000aeda   Section        0  tmos_hw.o(i.ble_ll_common_rand8)
    i.ble_ll_hw_api_rx                       0x0000aef8   Section        0  ip.o(i.ble_ll_hw_api_rx)
    i.ble_ll_hw_api_rx_test                  0x0000afe8   Section        0  ip.o(i.ble_ll_hw_api_rx_test)
    i.ble_ll_hw_api_shut                     0x0000b054   Section        0  ip.o(i.ble_ll_hw_api_shut)
    i.ble_ll_hw_api_tx                       0x0000b0b4   Section        0  ip.o(i.ble_ll_hw_api_tx)
    i.ble_ll_hw_api_tx_set_len               0x0000b2dc   Section        0  ip.o(i.ble_ll_hw_api_tx_set_len)
    i.ble_ll_hw_api_tx_test                  0x0000b360   Section        0  ip.o(i.ble_ll_hw_api_tx_test)
    i.ble_ll_set_connect_event               0x0000b50c   Section        0  tmos_hw.o(i.ble_ll_set_connect_event)
    i.ble_timeout_process                    0x0000b520   Section        0  tmos_hw.o(i.ble_timeout_process)
    i.disconnectNext                         0x0000b57c   Section        0  gap.o(i.disconnectNext)
    disconnectNext                           0x0000b57d   Thumb Code    26  gap.o(i.disconnectNext)
    i.gapAddAddrAdj                          0x0000b596   Section        0  gap.o(i.gapAddAddrAdj)
    i.gapBondFreeAuthEvt                     0x0000b5d0   Section        0  gapbondmgr.o(i.gapBondFreeAuthEvt)
    gapBondFreeAuthEvt                       0x0000b5d1   Thumb Code    24  gapbondmgr.o(i.gapBondFreeAuthEvt)
    i.gapBondMgrAddBond                      0x0000b5ec   Section        0  gapbondmgr.o(i.gapBondMgrAddBond)
    gapBondMgrAddBond                        0x0000b5ed   Thumb Code   312  gapbondmgr.o(i.gapBondMgrAddBond)
    i.gapBondMgrAuthenticate                 0x0000b728   Section        0  gapbondmgr.o(i.gapBondMgrAuthenticate)
    gapBondMgrAuthenticate                   0x0000b729   Thumb Code   386  gapbondmgr.o(i.gapBondMgrAuthenticate)
    i.gapBondMgrBondReq                      0x0000b8b4   Section        0  gapbondmgr.o(i.gapBondMgrBondReq)
    gapBondMgrBondReq                        0x0000b8b5   Thumb Code    78  gapbondmgr.o(i.gapBondMgrBondReq)
    i.gapBondMgrBondTotal                    0x0000b904   Section        0  gapbondmgr.o(i.gapBondMgrBondTotal)
    gapBondMgrBondTotal                      0x0000b905   Thumb Code    46  gapbondmgr.o(i.gapBondMgrBondTotal)
    i.gapBondMgrChangeState                  0x0000b938   Section        0  gapbondmgr.o(i.gapBondMgrChangeState)
    gapBondMgrChangeState                    0x0000b939   Thumb Code    96  gapbondmgr.o(i.gapBondMgrChangeState)
    i.gapBondMgrEraseAllBondings             0x0000b99c   Section        0  gapbondmgr.o(i.gapBondMgrEraseAllBondings)
    gapBondMgrEraseAllBondings               0x0000b99d   Thumb Code    32  gapbondmgr.o(i.gapBondMgrEraseAllBondings)
    i.gapBondMgrEraseBonding                 0x0000b9c0   Section        0  gapbondmgr.o(i.gapBondMgrEraseBonding)
    gapBondMgrEraseBonding                   0x0000b9c1   Thumb Code   226  gapbondmgr.o(i.gapBondMgrEraseBonding)
    i.gapBondMgrFindAddr                     0x0000baa8   Section        0  gapbondmgr.o(i.gapBondMgrFindAddr)
    gapBondMgrFindAddr                       0x0000baa9   Thumb Code    46  gapbondmgr.o(i.gapBondMgrFindAddr)
    i.gapBondMgrFindCharCfgItem              0x0000badc   Section        0  gapbondmgr.o(i.gapBondMgrFindCharCfgItem)
    gapBondMgrFindCharCfgItem                0x0000badd   Thumb Code    28  gapbondmgr.o(i.gapBondMgrFindCharCfgItem)
    i.gapBondMgrGetPublicAddr                0x0000baf8   Section        0  gapbondmgr.o(i.gapBondMgrGetPublicAddr)
    gapBondMgrGetPublicAddr                  0x0000baf9   Thumb Code    58  gapbondmgr.o(i.gapBondMgrGetPublicAddr)
    i.gapBondMgrGetStateFlags                0x0000bb38   Section        0  gapbondmgr.o(i.gapBondMgrGetStateFlags)
    gapBondMgrGetStateFlags                  0x0000bb39   Thumb Code    36  gapbondmgr.o(i.gapBondMgrGetStateFlags)
    i.gapBondMgrInvertCharCfgItem            0x0000bb5c   Section        0  gapbondmgr.o(i.gapBondMgrInvertCharCfgItem)
    gapBondMgrInvertCharCfgItem              0x0000bb5d   Thumb Code    28  gapbondmgr.o(i.gapBondMgrInvertCharCfgItem)
    i.gapBondMgrReadBonds                    0x0000bb78   Section        0  gapbondmgr.o(i.gapBondMgrReadBonds)
    gapBondMgrReadBonds                      0x0000bb79   Thumb Code   128  gapbondmgr.o(i.gapBondMgrReadBonds)
    i.gapBondMgrSendServiceChange            0x0000bbfc   Section        0  gapbondmgr.o(i.gapBondMgrSendServiceChange)
    gapBondMgrSendServiceChange              0x0000bbfd   Thumb Code    14  gapbondmgr.o(i.gapBondMgrSendServiceChange)
    i.gapBondMgrUpdateCharCfg                0x0000bc10   Section        0  gapbondmgr.o(i.gapBondMgrUpdateCharCfg)
    gapBondMgrUpdateCharCfg                  0x0000bc11   Thumb Code   176  gapbondmgr.o(i.gapBondMgrUpdateCharCfg)
    i.gapBondMgr_ProcessTMOSMsg              0x0000bcc4   Section        0  gapbondmgr.o(i.gapBondMgr_ProcessTMOSMsg)
    gapBondMgr_ProcessTMOSMsg                0x0000bcc5   Thumb Code    94  gapbondmgr.o(i.gapBondMgr_ProcessTMOSMsg)
    i.gapBondMgr_SyncCharCfg                 0x0000bd28   Section        0  gapbondmgr.o(i.gapBondMgr_SyncCharCfg)
    gapBondMgr_SyncCharCfg                   0x0000bd29   Thumb Code   116  gapbondmgr.o(i.gapBondMgr_SyncCharCfg)
    i.gapBondMgr_SyncResolveList             0x0000bda8   Section        0  gapbondmgr.o(i.gapBondMgr_SyncResolveList)
    gapBondMgr_SyncResolveList               0x0000bda9   Thumb Code   106  gapbondmgr.o(i.gapBondMgr_SyncResolveList)
    i.gapBondMgr_SyncWhiteList               0x0000be18   Section        0  gapbondmgr.o(i.gapBondMgr_SyncWhiteList)
    gapBondMgr_SyncWhiteList                 0x0000be19   Thumb Code    52  gapbondmgr.o(i.gapBondMgr_SyncWhiteList)
    i.gapBondPairStateCB                     0x0000be50   Section        0  gapbondmgr.o(i.gapBondPairStateCB)
    gapBondPairStateCB                       0x0000be51   Thumb Code    50  gapbondmgr.o(i.gapBondPairStateCB)
    i.gapBondPasscodeCB                      0x0000be88   Section        0  gapbondmgr.o(i.gapBondPasscodeCB)
    gapBondPasscodeCB                        0x0000be89   Thumb Code    96  gapbondmgr.o(i.gapBondPasscodeCB)
    i.gapBondSetupPrivFlag                   0x0000beec   Section        0  gapbondmgr.o(i.gapBondSetupPrivFlag)
    gapBondSetupPrivFlag                     0x0000beed   Thumb Code    32  gapbondmgr.o(i.gapBondSetupPrivFlag)
    i.gapCancelLinkReq                       0x0000bf0c   Section        0  gap_central.o(i.gapCancelLinkReq)
    i.gapCentProcessConnEvt                  0x0000bf44   Section        0  gap_central.o(i.gapCentProcessConnEvt)
    i.gapCentProcessHCICmdEvt                0x0000c02c   Section        0  gap_central.o(i.gapCentProcessHCICmdEvt)
    i.gapDetermineAddrType                   0x0000c05c   Section        0  gap.o(i.gapDetermineAddrType)
    i.gapFindADType                          0x0000c082   Section        0  gap.o(i.gapFindADType)
    i.gapFreeAdvertState                     0x0000c0c8   Section        0  gap_peripheral.o(i.gapFreeAdvertState)
    gapFreeAdvertState                       0x0000c0c9   Thumb Code    20  gap_peripheral.o(i.gapFreeAdvertState)
    i.gapFreeAuthLink                        0x0000c0e0   Section        0  gap.o(i.gapFreeAuthLink)
    i.gapFreeEstLink                         0x0000c114   Section        0  gap.o(i.gapFreeEstLink)
    i.gapFreeScanRecs                        0x0000c12c   Section        0  gap_central.o(i.gapFreeScanRecs)
    i.gapGetDevAddress                       0x0000c1ac   Section        0  gap.o(i.gapGetDevAddress)
    i.gapGetDevAddressMode                   0x0000c1cc   Section        0  gap.o(i.gapGetDevAddressMode)
    i.gapGetIRK                              0x0000c1d8   Section        0  gap.o(i.gapGetIRK)
    i.gapGetSRK                              0x0000c1e4   Section        0  gap.o(i.gapGetSRK)
    i.gapGetSignCounter                      0x0000c1f0   Section        0  gap.o(i.gapGetSignCounter)
    i.gapIncSignCounter                      0x0000c1fc   Section        0  gap.o(i.gapIncSignCounter)
    i.gapL2capConnParamUpdateReq             0x0000c21c   Section        0  gap.o(i.gapL2capConnParamUpdateReq)
    i.gapPairingCompleteCB                   0x0000c248   Section        0  gap.o(i.gapPairingCompleteCB)
    i.gapPasskeyNeededCB                     0x0000c356   Section        0  gap.o(i.gapPasskeyNeededCB)
    i.gapPeriProcessConnEvt                  0x0000c3bc   Section        0  gap_peripheral.o(i.gapPeriProcessConnEvt)
    gapPeriProcessConnEvt                    0x0000c3bd   Thumb Code   132  gap_peripheral.o(i.gapPeriProcessConnEvt)
    i.gapPeriProcessHCICmdCompleteEvt        0x0000c44c   Section        0  gap_peripheral.o(i.gapPeriProcessHCICmdCompleteEvt)
    gapPeriProcessHCICmdCompleteEvt          0x0000c44d   Thumb Code   130  gap_peripheral.o(i.gapPeriProcessHCICmdCompleteEvt)
    i.gapProcessAdvertisingEvt               0x0000c4dc   Section        0  gap_peripheral.o(i.gapProcessAdvertisingEvt)
    gapProcessAdvertisingEvt                 0x0000c4dd   Thumb Code   112  gap_peripheral.o(i.gapProcessAdvertisingEvt)
    i.gapProcessConnEvt                      0x0000c564   Section        0  gap.o(i.gapProcessConnEvt)
    i.gapProcessConnectionCompleteEvt        0x0000c5a4   Section        0  gap.o(i.gapProcessConnectionCompleteEvt)
    gapProcessConnectionCompleteEvt          0x0000c5a5   Thumb Code   194  gap.o(i.gapProcessConnectionCompleteEvt)
    i.gapProcessDisconnectCompleteEvt        0x0000c670   Section        0  gap.o(i.gapProcessDisconnectCompleteEvt)
    i.gapProcessEnhancedConnectionCompleteEvt 0x0000c6e4   Section        0  gap.o(i.gapProcessEnhancedConnectionCompleteEvt)
    gapProcessEnhancedConnectionCompleteEvt  0x0000c6e5   Thumb Code   196  gap.o(i.gapProcessEnhancedConnectionCompleteEvt)
    i.gapProcessNewAddr                      0x0000c7b0   Section        0  gap.o(i.gapProcessNewAddr)
    i.gapProcessRandomAddrComplete           0x0000c7e0   Section        0  gap.o(i.gapProcessRandomAddrComplete)
    i.gapProcessRemoteConnParamReqEvt        0x0000c84c   Section        0  gap.o(i.gapProcessRemoteConnParamReqEvt)
    gapProcessRemoteConnParamReqEvt          0x0000c84d   Thumb Code    90  gap.o(i.gapProcessRemoteConnParamReqEvt)
    i.gapProcessScanningDirectEvt            0x0000c8ac   Section        0  gap_central.o(i.gapProcessScanningDirectEvt)
    i.gapProcessScanningEvt                  0x0000c950   Section        0  gap_central.o(i.gapProcessScanningEvt)
    i.gapProcessTMOSMsg                      0x0000cbdc   Section        0  gap.o(i.gapProcessTMOSMsg)
    gapProcessTMOSMsg                        0x0000cbdd   Thumb Code   470  gap.o(i.gapProcessTMOSMsg)
    i.gapRegisterCentral                     0x0000cdd0   Section        0  gap.o(i.gapRegisterCentral)
    i.gapRegisterCentralConn                 0x0000cddc   Section        0  gap.o(i.gapRegisterCentralConn)
    i.gapRegisterPeripheral                  0x0000cde8   Section        0  gap.o(i.gapRegisterPeripheral)
    i.gapRegisterPeripheralConn              0x0000cdf4   Section        0  gap.o(i.gapRegisterPeripheralConn)
    i.gapRole_PeripheralProcessGAPMsg        0x0000ce00   Section        0  peripheral.o(i.gapRole_PeripheralProcessGAPMsg)
    gapRole_PeripheralProcessGAPMsg          0x0000ce01   Thumb Code   398  peripheral.o(i.gapRole_PeripheralProcessGAPMsg)
    i.gapRole_PeripheralProcessTMOSMsg       0x0000cfcc   Section        0  peripheral.o(i.gapRole_PeripheralProcessTMOSMsg)
    gapRole_PeripheralProcessTMOSMsg         0x0000cfcd   Thumb Code    72  peripheral.o(i.gapRole_PeripheralProcessTMOSMsg)
    i.gapSendBondCompleteEvent               0x0000d01c   Section        0  gap.o(i.gapSendBondCompleteEvent)
    i.gapSendDevDiscEvent                    0x0000d064   Section        0  gap_central.o(i.gapSendDevDiscEvent)
    i.gapSendDeviceInitDoneEvent             0x0000d134   Section        0  gap.o(i.gapSendDeviceInitDoneEvent)
    i.gapSendEstLinkEvent                    0x0000d178   Section        0  gap.o(i.gapSendEstLinkEvent)
    i.gapSendLinkUpdateEvent                 0x0000d1d8   Section        0  gap.o(i.gapSendLinkUpdateEvent)
    i.gapSendMakeDiscEvent                   0x0000d224   Section        0  gap_peripheral.o(i.gapSendMakeDiscEvent)
    i.gapSendPairingReqEvent                 0x0000d25c   Section        0  gap.o(i.gapSendPairingReqEvent)
    i.gapSendScanEnable                      0x0000d2b8   Section        0  gap_central.o(i.gapSendScanEnable)
    gapSendScanEnable                        0x0000d2b9   Thumb Code    28  gap_central.o(i.gapSendScanEnable)
    i.gapSendSlaveSecurityReqEvent           0x0000d2d4   Section        0  gap.o(i.gapSendSlaveSecurityReqEvent)
    i.gapSetAdvParams                        0x0000d310   Section        0  gap_peripheral.o(i.gapSetAdvParams)
    gapSetAdvParams                          0x0000d311   Thumb Code   116  gap_peripheral.o(i.gapSetAdvParams)
    i.gapSetScanParamStatus                  0x0000d390   Section        0  gap_central.o(i.gapSetScanParamStatus)
    gapSetScanParamStatus                    0x0000d391   Thumb Code    64  gap_central.o(i.gapSetScanParamStatus)
    i.gapUpdateConnSignCounter               0x0000d3d8   Section        0  gap.o(i.gapUpdateConnSignCounter)
    i.gapValidADType                         0x0000d426   Section        0  gap.o(i.gapValidADType)
    i.gapWriteAdvEnableStatus                0x0000d43c   Section        0  gap_peripheral.o(i.gapWriteAdvEnableStatus)
    gapWriteAdvEnableStatus                  0x0000d43d   Thumb Code   184  gap_peripheral.o(i.gapWriteAdvEnableStatus)
    i.gattFindServerInfo                     0x0000d510   Section        0  gattservapp.o(i.gattFindServerInfo)
    i.gattFindService                        0x0000d534   Section        0  gattservapp.o(i.gattFindService)
    i.gattGetPayload                         0x0000d554   Section        0  gatt.o(i.gattGetPayload)
    i.gattGetServerStatus                    0x0000d5bc   Section        0  gattservapp.o(i.gattGetServerStatus)
    gattGetServerStatus                      0x0000d5bd   Thumb Code    44  gattservapp.o(i.gattGetServerStatus)
    i.gattNotifyEvent                        0x0000d5e8   Section        0  gatt.o(i.gattNotifyEvent)
    i.gattProcessExchangeMTUReq              0x0000d642   Section        0  gattservapp.o(i.gattProcessExchangeMTUReq)
    gattProcessExchangeMTUReq                0x0000d643   Thumb Code     4  gattservapp.o(i.gattProcessExchangeMTUReq)
    i.gattProcessExecuteWriteReq             0x0000d646   Section        0  gattservapp.o(i.gattProcessExecuteWriteReq)
    gattProcessExecuteWriteReq               0x0000d647   Thumb Code     4  gattservapp.o(i.gattProcessExecuteWriteReq)
    i.gattProcessFindByTypeValueReq          0x0000d64a   Section        0  gattservapp.o(i.gattProcessFindByTypeValueReq)
    gattProcessFindByTypeValueReq            0x0000d64b   Thumb Code    44  gattservapp.o(i.gattProcessFindByTypeValueReq)
    i.gattProcessFindInfoReq                 0x0000d678   Section        0  gattservapp.o(i.gattProcessFindInfoReq)
    gattProcessFindInfoReq                   0x0000d679   Thumb Code   288  gattservapp.o(i.gattProcessFindInfoReq)
    i.gattProcessPrepareWriteReq             0x0000d79c   Section        0  gattservapp.o(i.gattProcessPrepareWriteReq)
    gattProcessPrepareWriteReq               0x0000d79d   Thumb Code    38  gattservapp.o(i.gattProcessPrepareWriteReq)
    i.gattProcessReadByGrpTypeReq            0x0000d7c4   Section        0  gattservapp.o(i.gattProcessReadByGrpTypeReq)
    gattProcessReadByGrpTypeReq              0x0000d7c5   Thumb Code    68  gattservapp.o(i.gattProcessReadByGrpTypeReq)
    i.gattProcessReadByTypeReq               0x0000d80c   Section        0  gattservapp.o(i.gattProcessReadByTypeReq)
    gattProcessReadByTypeReq                 0x0000d80d   Thumb Code    44  gattservapp.o(i.gattProcessReadByTypeReq)
    i.gattProcessReadMultiReq                0x0000d838   Section        0  gattservapp.o(i.gattProcessReadMultiReq)
    gattProcessReadMultiReq                  0x0000d839   Thumb Code   102  gattservapp.o(i.gattProcessReadMultiReq)
    i.gattProcessReadReq                     0x0000d89e   Section        0  gattservapp.o(i.gattProcessReadReq)
    gattProcessReadReq                       0x0000d89f   Thumb Code    34  gattservapp.o(i.gattProcessReadReq)
    i.gattProcessWriteReq                    0x0000d8c0   Section        0  gattservapp.o(i.gattProcessWriteReq)
    gattProcessWriteReq                      0x0000d8c1   Thumb Code    38  gattservapp.o(i.gattProcessWriteReq)
    i.gattRegisterServer                     0x0000d8e8   Section        0  gatt.o(i.gattRegisterServer)
    i.gattResetServerInfo                    0x0000d8f4   Section        0  gattservapp.o(i.gattResetServerInfo)
    i.gattSendFlowCtrlEvt                    0x0000d904   Section        0  gatt.o(i.gattSendFlowCtrlEvt)
    i.gattServApp_ClearPrepareWriteQ         0x0000d940   Section        0  gattservapp.o(i.gattServApp_ClearPrepareWriteQ)
    i.gattServApp_FindAuthorizeAttrCB        0x0000d97c   Section        0  gattservapp.o(i.gattServApp_FindAuthorizeAttrCB)
    i.gattServApp_FindCharCfgItem            0x0000d98a   Section        0  gattservapp.o(i.gattServApp_FindCharCfgItem)
    gattServApp_FindCharCfgItem              0x0000d98b   Thumb Code    26  gattservapp.o(i.gattServApp_FindCharCfgItem)
    i.gattServApp_FindPrepareWriteQ          0x0000d9a4   Section        0  gattservapp.o(i.gattServApp_FindPrepareWriteQ)
    i.gattServApp_FindServiceCBs             0x0000d9c8   Section        0  gattservapp.o(i.gattServApp_FindServiceCBs)
    i.gattServApp_HandleConnStatusCB         0x0000d9e8   Section        0  gattservapp.o(i.gattServApp_HandleConnStatusCB)
    i.gattServApp_IsWriteLong                0x0000da44   Section        0  gattservapp.o(i.gattServApp_IsWriteLong)
    i.gattServApp_ProcessExecuteWriteReq     0x0000db00   Section        0  gattservapp.o(i.gattServApp_ProcessExecuteWriteReq)
    i.gattServApp_ProcessFindByTypeValueReq  0x0000dbdc   Section        0  gattservapp.o(i.gattServApp_ProcessFindByTypeValueReq)
    i.gattServApp_ProcessMsg                 0x0000dd18   Section        0  gattservapp.o(i.gattServApp_ProcessMsg)
    gattServApp_ProcessMsg                   0x0000dd19   Thumb Code   570  gattservapp.o(i.gattServApp_ProcessMsg)
    i.gattServApp_ProcessPrepareWriteReq     0x0000df6c   Section        0  gattservapp.o(i.gattServApp_ProcessPrepareWriteReq)
    i.gattServApp_ProcessReadByGrpTypeReq    0x0000e04c   Section        0  gattservapp.o(i.gattServApp_ProcessReadByGrpTypeReq)
    i.gattServApp_ProcessReadByTypeReq       0x0000e1e0   Section        0  gattservapp.o(i.gattServApp_ProcessReadByTypeReq)
    i.gattServApp_ProcessReadMultiReq        0x0000e320   Section        0  gattservapp.o(i.gattServApp_ProcessReadMultiReq)
    i.gattServApp_ProcessWriteReq            0x0000e430   Section        0  gattservapp.o(i.gattServApp_ProcessWriteReq)
    i.gattServApp_WriteAttrCB                0x0000e4c0   Section        0  gattservapp.o(i.gattServApp_WriteAttrCB)
    i.gattServerHandleConnStatusCB           0x0000e4f0   Section        0  gattservapp.o(i.gattServerHandleConnStatusCB)
    i.gattServerHandleTimerCB                0x0000e570   Section        0  gattservapp.o(i.gattServerHandleTimerCB)
    gattServerHandleTimerCB                  0x0000e571   Thumb Code    42  gattservapp.o(i.gattServerHandleTimerCB)
    i.gattServerNotifyTxCB                   0x0000e59a   Section        0  gattservapp.o(i.gattServerNotifyTxCB)
    gattServerNotifyTxCB                     0x0000e59b   Thumb Code    28  gattservapp.o(i.gattServerNotifyTxCB)
    i.gattServerProcessMsgCB                 0x0000e5b8   Section        0  gattservapp.o(i.gattServerProcessMsgCB)
    i.gattServiceLastHandle                  0x0000e708   Section        0  gattservapp.o(i.gattServiceLastHandle)
    gattServiceLastHandle                    0x0000e709   Thumb Code    22  gattservapp.o(i.gattServiceLastHandle)
    i.gattStartTimer                         0x0000e71e   Section        0  gatt.o(i.gattStartTimer)
    i.gattStopTimer                          0x0000e72c   Section        0  gatt.o(i.gattStopTimer)
    i.generate_subkey                        0x0000e748   Section        0  sm.o(i.generate_subkey)
    i.ggs_ReadAttrCB                         0x0000e7e4   Section        0  gapgattserver.o(i.ggs_ReadAttrCB)
    ggs_ReadAttrCB                           0x0000e7e5   Thumb Code   206  gapgattserver.o(i.ggs_ReadAttrCB)
    i.ggs_SetAttrWPermit                     0x0000e8bc   Section        0  gapgattserver.o(i.ggs_SetAttrWPermit)
    ggs_SetAttrWPermit                       0x0000e8bd   Thumb Code   110  gapgattserver.o(i.ggs_SetAttrWPermit)
    i.ggs_WriteAttrCB                        0x0000e92c   Section        0  gapgattserver.o(i.ggs_WriteAttrCB)
    ggs_WriteAttrCB                          0x0000e92d   Thumb Code   260  gapgattserver.o(i.ggs_WriteAttrCB)
    i.l2capAllocConnChannel                  0x0000ea3c   Section        0  l2cap.o(i.l2capAllocConnChannel)
    i.l2capBuildCmdReject                    0x0000eae4   Section        0  l2cap_sdu.o(i.l2capBuildCmdReject)
    i.l2capBuildConnectRsp                   0x0000eb24   Section        0  l2cap_sdu.o(i.l2capBuildConnectRsp)
    l2capBuildConnectRsp                     0x0000eb25   Thumb Code    54  l2cap_sdu.o(i.l2capBuildConnectRsp)
    i.l2capBuildDisconnectReq                0x0000eb5a   Section        0  l2cap_sdu.o(i.l2capBuildDisconnectReq)
    l2capBuildDisconnectReq                  0x0000eb5b   Thumb Code    24  l2cap_sdu.o(i.l2capBuildDisconnectReq)
    i.l2capBuildDisconnectRsp                0x0000eb72   Section        0  l2cap_sdu.o(i.l2capBuildDisconnectRsp)
    i.l2capBuildParamUpdateReq               0x0000eb8a   Section        0  l2cap_sdu.o(i.l2capBuildParamUpdateReq)
    l2capBuildParamUpdateReq                 0x0000eb8b   Thumb Code    44  l2cap_sdu.o(i.l2capBuildParamUpdateReq)
    i.l2capBuildParamUpdateRsp               0x0000ebb6   Section        0  l2cap_sdu.o(i.l2capBuildParamUpdateRsp)
    l2capBuildParamUpdateRsp                 0x0000ebb7   Thumb Code    14  l2cap_sdu.o(i.l2capBuildParamUpdateRsp)
    i.l2capDisconnectAllChannels             0x0000ebc4   Section        0  l2cap.o(i.l2capDisconnectAllChannels)
    i.l2capDisconnectChannel                 0x0000ec5c   Section        0  l2cap.o(i.l2capDisconnectChannel)
    i.l2capEncapSendData                     0x0000ec7c   Section        0  l2cap_output.o(i.l2capEncapSendData)
    i.l2capFindLocalCID                      0x0000ed30   Section        0  l2cap.o(i.l2capFindLocalCID)
    i.l2capFindLocalId                       0x0000ed5c   Section        0  l2cap.o(i.l2capFindLocalId)
    i.l2capFindPsm                           0x0000ed8c   Section        0  l2cap.o(i.l2capFindPsm)
    i.l2capFindRemoteCID                     0x0000edbc   Section        0  l2cap.o(i.l2capFindRemoteCID)
    i.l2capFreeChannel                       0x0000edf8   Section        0  l2cap.o(i.l2capFreeChannel)
    i.l2capFreePendingPkt                    0x0000ee2c   Section        0  l2cap.o(i.l2capFreePendingPkt)
    i.l2capFreeTxSDU                         0x0000ee5c   Section        0  l2cap_output.o(i.l2capFreeTxSDU)
    i.l2capGetCoChannelInfo                  0x0000eed0   Section        0  l2cap.o(i.l2capGetCoChannelInfo)
    i.l2capHandleConnStatusCB                0x0000ef28   Section        0  l2cap.o(i.l2capHandleConnStatusCB)
    i.l2capHandleRxError                     0x0000ef54   Section        0  l2cap.o(i.l2capHandleRxError)
    i.l2capHandleTimerCB                     0x0000ef5e   Section        0  l2cap.o(i.l2capHandleTimerCB)
    i.l2capNotifyChannelEstEvt               0x0000ef7a   Section        0  l2cap_output.o(i.l2capNotifyChannelEstEvt)
    i.l2capNotifyChannelTermEvt              0x0000efce   Section        0  l2cap_output.o(i.l2capNotifyChannelTermEvt)
    i.l2capNotifyCreditEvt                   0x0000f008   Section        0  l2cap_output.o(i.l2capNotifyCreditEvt)
    i.l2capNotifyData                        0x0000f088   Section        0  l2cap_output.o(i.l2capNotifyData)
    i.l2capNotifyEvent                       0x0000f0ce   Section        0  l2cap_output.o(i.l2capNotifyEvent)
    i.l2capNotifySignal                      0x0000f11c   Section        0  l2cap_output.o(i.l2capNotifySignal)
    i.l2capNumActiveChannnels                0x0000f16c   Section        0  l2cap.o(i.l2capNumActiveChannnels)
    i.l2capParseCmdReject                    0x0000f1ac   Section        0  l2cap_input.o(i.l2capParseCmdReject)
    i.l2capParseConnectRsp                   0x0000f1ec   Section        0  l2cap_input.o(i.l2capParseConnectRsp)
    i.l2capParseDisconnectReq                0x0000f22a   Section        0  l2cap_input.o(i.l2capParseDisconnectReq)
    i.l2capParseDisconnectRsp                0x0000f24a   Section        0  l2cap_input.o(i.l2capParseDisconnectRsp)
    i.l2capParsePacket                       0x0000f26a   Section        0  l2cap_input.o(i.l2capParsePacket)
    i.l2capParseParamUpdateRsp               0x0000f2ca   Section        0  l2cap_input.o(i.l2capParseParamUpdateRsp)
    i.l2capParseSignalHdr                    0x0000f2e0   Section        0  l2cap_input.o(i.l2capParseSignalHdr)
    i.l2capProcessConnectReq                 0x0000f2f4   Section        0  l2cap_input.o(i.l2capProcessConnectReq)
    i.l2capProcessReq                        0x0000f3b4   Section        0  l2cap_input.o(i.l2capProcessReq)
    i.l2capProcessRsp                        0x0000f4e8   Section        0  l2cap_input.o(i.l2capProcessRsp)
    i.l2capProcessRxData                     0x0000f5f8   Section        0  l2cap_input.o(i.l2capProcessRxData)
    i.l2capReassembleSegment                 0x0000f6dc   Section        0  l2cap_output.o(i.l2capReassembleSegment)
    i.l2capSendCmd                           0x0000f7fc   Section        0  l2cap_output.o(i.l2capSendCmd)
    i.l2capSendConnectRsp                    0x0000f864   Section        0  l2cap_sdu.o(i.l2capSendConnectRsp)
    i.l2capSendFCPkt                         0x0000f8ec   Section        0  l2cap_output.o(i.l2capSendFCPkt)
    i.l2capSendNextSegment                   0x0000f93c   Section        0  l2cap_output.o(i.l2capSendNextSegment)
    i.l2capSendPkt                           0x0000f9d4   Section        0  l2cap_output.o(i.l2capSendPkt)
    i.l2capSendReq                           0x0000fa14   Section        0  l2cap_output.o(i.l2capSendReq)
    i.l2capSendSegment                       0x0000fab0   Section        0  l2cap_output.o(i.l2capSendSegment)
    i.l2capStartTimer                        0x0000fb70   Section        0  l2cap.o(i.l2capStartTimer)
    i.l2capStopTimer                         0x0000fb9c   Section        0  l2cap.o(i.l2capStopTimer)
    i.l2capStoreFCPkt                        0x0000fbac   Section        0  l2cap_output.o(i.l2capStoreFCPkt)
    i.leftshift_onebit                       0x0000fbd4   Section        0  sm.o(i.leftshift_onebit)
    i.linkDB_Add                             0x0000fbf0   Section        0  linkdb.o(i.linkDB_Add)
    i.linkDB_Authen                          0x0000fc60   Section        0  linkdb.o(i.linkDB_Authen)
    i.linkDB_Find                            0x0000fcb8   Section        0  linkdb.o(i.linkDB_Find)
    i.linkDB_FindFirst                       0x0000fce8   Section        0  linkdb.o(i.linkDB_FindFirst)
    i.linkDB_GetHandleFromSMEvtID            0x0000fd24   Section        0  linkdb.o(i.linkDB_GetHandleFromSMEvtID)
    i.linkDB_GetPairingParam                 0x0000fd5c   Section        0  linkdb.o(i.linkDB_GetPairingParam)
    i.linkDB_GetSMEvtID                      0x0000fdb4   Section        0  linkdb.o(i.linkDB_GetSMEvtID)
    i.linkDB_Init                            0x0000fe00   Section        0  linkdb.o(i.linkDB_Init)
    i.linkDB_MTU                             0x0000fe64   Section        0  linkdb.o(i.linkDB_MTU)
    i.linkDB_NeedSendKey                     0x0000fe74   Section        0  linkdb.o(i.linkDB_NeedSendKey)
    i.linkDB_NumActive                       0x0000febc   Section        0  linkdb.o(i.linkDB_NumActive)
    i.linkDB_NumConns                        0x0000fee8   Section        0  linkdb.o(i.linkDB_NumConns)
    i.linkDB_PerformFunc                     0x0000fef4   Section        0  linkdb.o(i.linkDB_PerformFunc)
    i.linkDB_PeripheralLinkNum               0x0000ff24   Section        0  linkdb.o(i.linkDB_PeripheralLinkNum)
    i.linkDB_Register                        0x0000ff5c   Section        0  linkdb.o(i.linkDB_Register)
    i.linkDB_Remove                          0x0000ff80   Section        0  linkdb.o(i.linkDB_Remove)
    i.linkDB_Role                            0x0000ffb6   Section        0  linkdb.o(i.linkDB_Role)
    i.linkDB_State                           0x0000ffc4   Section        0  linkdb.o(i.linkDB_State)
    i.linkDB_UpdateMTU                       0x0000ffe4   Section        0  linkdb.o(i.linkDB_UpdateMTU)
    i.llAdvTraverseallChannel                0x00010000   Section        0  ll_advertise.o(i.llAdvTraverseallChannel)
    i.llAdvertiseCreateCore                  0x00010054   Section        0  ll_advertise.o(i.llAdvertiseCreateCore)
    llAdvertiseCreateCore                    0x00010055   Thumb Code    76  ll_advertise.o(i.llAdvertiseCreateCore)
    i.llAdvertiseSet                         0x000100b4   Section        0  ll_advertise.o(i.llAdvertiseSet)
    i.llAdvertiseStart                       0x000101c0   Section        0  ll_advertise.o(i.llAdvertiseStart)
    i.llSlaveCreateCore                      0x0001024c   Section        0  ll_slave.o(i.llSlaveCreateCore)
    llSlaveCreateCore                        0x0001024d   Thumb Code   156  ll_slave.o(i.llSlaveCreateCore)
    i.llSlaveSetFirstTimer                   0x000102f4   Section        0  ll_slave.o(i.llSlaveSetFirstTimer)
    llSlaveSetFirstTimer                     0x000102f5   Thumb Code   260  ll_slave.o(i.llSlaveSetFirstTimer)
    i.ll_advertise_process                   0x00010418   Section        0  ll_advertise.o(i.ll_advertise_process)
    i.ll_advertise_tx                        0x0001081c   Section        0  ll_advertise.o(i.ll_advertise_tx)
    ll_advertise_tx                          0x0001081d   Thumb Code   352  ll_advertise.o(i.ll_advertise_tx)
    i.ll_connect_action_in_connintervaltimeout 0x000109a8   Section        0  ll_connect.o(i.ll_connect_action_in_connintervaltimeout)
    i.ll_connect_auth_timeout                0x00010c34   Section        0  ll_connect.o(i.ll_connect_auth_timeout)
    i.ll_connect_calculate_effective_len     0x00010c4e   Section        0  ll_connect.o(i.ll_connect_calculate_effective_len)
    i.ll_connect_change_connect_point        0x00010cd0   Section        0  ll_connect.o(i.ll_connect_change_connect_point)
    i.ll_connect_event_continue              0x00010e7c   Section        0  ll_connect.o(i.ll_connect_event_continue)
    i.ll_connect_flowcontrol_init            0x00010f2c   Section        0  ll_connect.o(i.ll_connect_flowcontrol_init)
    i.ll_connect_get_master_number           0x00010f38   Section        0  ll_connect.o(i.ll_connect_get_master_number)
    i.ll_connect_get_slave_number            0x00010f54   Section        0  ll_connect.o(i.ll_connect_get_slave_number)
    i.ll_connect_get_update_point            0x00010f70   Section        0  ll_connect.o(i.ll_connect_get_update_point)
    i.ll_connect_init_dataLen                0x00010ff8   Section        0  ll_connect.o(i.ll_connect_init_dataLen)
    i.ll_connect_init_pingOffset             0x0001107c   Section        0  ll_connect.o(i.ll_connect_init_pingOffset)
    i.ll_connect_parse_datapdu_head          0x000110a6   Section        0  ll_connect.o(i.ll_connect_parse_datapdu_head)
    i.ll_connect_procedure_timeout           0x000110cc   Section        0  ll_connect.o(i.ll_connect_procedure_timeout)
    i.ll_connect_recv_data                   0x000110ec   Section        0  ll_connect.o(i.ll_connect_recv_data)
    i.ll_connect_send_data                   0x000111a0   Section        0  ll_connect.o(i.ll_connect_send_data)
    i.ll_connect_set_auth_timeout            0x000112a0   Section        0  ll_connect.o(i.ll_connect_set_auth_timeout)
    i.ll_connect_set_connect_timeout         0x000112e0   Section        0  ll_connect.o(i.ll_connect_set_connect_timeout)
    i.ll_connect_set_procedure_timeout       0x0001130c   Section        0  ll_connect.o(i.ll_connect_set_procedure_timeout)
    i.ll_connect_supervision_timeout         0x00011338   Section        0  ll_connect.o(i.ll_connect_supervision_timeout)
    i.ll_connect_update_get_offset           0x00011360   Section        0  ll_connect.o(i.ll_connect_update_get_offset)
    i.ll_get_prime_number                    0x0001140c   Section        0  ll.o(i.ll_get_prime_number)
    i.ll_hw_api_rx_set_txlen                 0x00011434   Section        0  ip.o(i.ll_hw_api_rx_set_txlen)
    i.ll_hw_api_set_pkt_dec                  0x00011498   Section        0  ip.o(i.ll_hw_api_set_pkt_dec)
    i.ll_hw_api_set_pkt_enc                  0x000114b8   Section        0  ip.o(i.ll_hw_api_set_pkt_enc)
    i.ll_hw_temp_sample                      0x000114d8   Section        0  tmos_hw.o(i.ll_hw_temp_sample)
    i.ll_hw_timer_slave_recv_timeout         0x0001154c   Section        0  ll_slave.o(i.ll_hw_timer_slave_recv_timeout)
    ll_hw_timer_slave_recv_timeout           0x0001154d   Thumb Code    22  ll_slave.o(i.ll_hw_timer_slave_recv_timeout)
    i.ll_hw_timer_window_widening            0x00011564   Section        0  ll_connect.o(i.ll_hw_timer_window_widening)
    i.ll_resolvinglist_checkRPA              0x00011598   Section        0  ll_resolvinglist.o(i.ll_resolvinglist_checkRPA)
    ll_resolvinglist_checkRPA                0x00011599   Thumb Code    82  ll_resolvinglist.o(i.ll_resolvinglist_checkRPA)
    i.ll_resolvinglist_renew_rpa             0x000115ec   Section        0  ll_resolvinglist.o(i.ll_resolvinglist_renew_rpa)
    i.ll_resolvinglist_renew_set             0x00011634   Section        0  ll_resolvinglist.o(i.ll_resolvinglist_renew_set)
    i.ll_resolvinglist_timeout_renew_rpa     0x00011648   Section        0  ll_resolvinglist.o(i.ll_resolvinglist_timeout_renew_rpa)
    i.ll_slave_check_connect_point           0x00011698   Section        0  ll_connect.o(i.ll_slave_check_connect_point)
    i.ll_slave_process                       0x00011840   Section        0  ll_slave.o(i.ll_slave_process)
    i.ll_slave_process_after_tx              0x00012520   Section        0  ll_slave.o(i.ll_slave_process_after_tx)
    ll_slave_process_after_tx                0x00012521   Thumb Code   644  ll_slave.o(i.ll_slave_process_after_tx)
    i.ll_slave_process_event                 0x000127ac   Section        0  ll_slave.o(i.ll_slave_process_event)
    ll_slave_process_event                   0x000127ad   Thumb Code   588  ll_slave.o(i.ll_slave_process_event)
    i.padding                                0x00012a10   Section        0  sm.o(i.padding)
    i.reportStatusChange                     0x00012a38   Section        0  linkdb.o(i.reportStatusChange)
    reportStatusChange                       0x00012a39   Thumb Code    32  linkdb.o(i.reportStatusChange)
    i.sendAuthEvent                          0x00012a5c   Section        0  gap.o(i.sendAuthEvent)
    i.sendTerminateEvent                     0x00012b2c   Section        0  gap.o(i.sendTerminateEvent)
    i.setupInitiatorKeys                     0x00012b5c   Section        0  sm.o(i.setupInitiatorKeys)
    i.smDetermineKeySize                     0x00012baa   Section        0  sm.o(i.smDetermineKeySize)
    i.smEndPairing                           0x00012bc8   Section        0  sm.o(i.smEndPairing)
    i.smFreePairingParams                    0x00012c10   Section        0  sm.o(i.smFreePairingParams)
    i.smGenerateConfirm                      0x00012c60   Section        0  sm.o(i.smGenerateConfirm)
    i.smGeneratePairingReqRsp                0x00012c84   Section        0  sm.o(i.smGeneratePairingReqRsp)
    i.smGenerateRandBuf                      0x00012cb8   Section        0  gap.o(i.smGenerateRandBuf)
    i.smGenerateRandMsg                      0x00012ce0   Section        0  sm.o(i.smGenerateRandMsg)
    i.smInitiatorSendNextKeyInfo             0x00012d04   Section        0  sm.o(i.smInitiatorSendNextKeyInfo)
    i.smLinkCheck                            0x00012e64   Section        0  sm.o(i.smLinkCheck)
    i.smNextPairingState                     0x00012e84   Section        0  sm.o(i.smNextPairingState)
    i.smPairingSendEncInfo                   0x00012ec4   Section        0  sm.o(i.smPairingSendEncInfo)
    i.smPairingSendIdentityAddrInfo          0x00012ed8   Section        0  sm.o(i.smPairingSendIdentityAddrInfo)
    i.smPairingSendIdentityInfo              0x00012f00   Section        0  sm.o(i.smPairingSendIdentityInfo)
    i.smPairingSendMasterID                  0x00012f14   Section        0  sm.o(i.smPairingSendMasterID)
    i.smPairingSendSingingInfo               0x00012f3c   Section        0  sm.o(i.smPairingSendSingingInfo)
    i.smProcessDataMsg                       0x00012f50   Section        0  sm.o(i.smProcessDataMsg)
    i.smProcessEncryptChange                 0x00013018   Section        0  sm.o(i.smProcessEncryptChange)
    i.smProcessPairingReq                    0x000130d4   Section        0  sm.o(i.smProcessPairingReq)
    i.smProcessRandComplete                  0x00013120   Section        0  sm.o(i.smProcessRandComplete)
    i.smProcessTMOSMsg                       0x00013198   Section        0  sm.o(i.smProcessTMOSMsg)
    i.smResponderProcessLTKReq               0x00013220   Section        0  sm.o(i.smResponderProcessLTKReq)
    i.smResponderSendNextKeyInfo             0x000133a0   Section        0  sm.o(i.smResponderSendNextKeyInfo)
    i.smSavePairInfo                         0x00013558   Section        0  sm.o(i.smSavePairInfo)
    i.smSendFailAndEnd                       0x000136bc   Section        0  sm.o(i.smSendFailAndEnd)
    i.smSendSMMsg                            0x000136e0   Section        0  sm.o(i.smSendSMMsg)
    i.smSetPairingReqRsp                     0x0001372a   Section        0  sm.o(i.smSetPairingReqRsp)
    i.smStartEncryption                      0x00013764   Section        0  sm.o(i.smStartEncryption)
    i.smStartRspTimer                        0x00013784   Section        0  sm.o(i.smStartRspTimer)
    i.smStopRspTimer                         0x000137b0   Section        0  sm.o(i.smStopRspTimer)
    i.smTimedOut                             0x000137c4   Section        0  sm.o(i.smTimedOut)
    i.smUint8ToAuthReq                       0x000137dc   Section        0  sm.o(i.smUint8ToAuthReq)
    i.sm_CMAC                                0x000137e0   Section        0  sm.o(i.sm_CMAC)
    i.sm_ah                                  0x00013906   Section        0  sm.o(i.sm_ah)
    i.sm_c1                                  0x00013960   Section        0  sm.o(i.sm_c1)
    i.sm_c1new                               0x000139e2   Section        0  sm.o(i.sm_c1new)
    i.sm_s1                                  0x00013ac2   Section        0  sm.o(i.sm_s1)
    i.sm_xor                                 0x00013b24   Section        0  sm.o(i.sm_xor)
    i.smpBuildEncInfo                        0x00013b3a   Section        0  sm.o(i.smpBuildEncInfo)
    i.smpBuildIdentityAddrInfo               0x00013b5a   Section        0  sm.o(i.smpBuildIdentityAddrInfo)
    i.smpBuildIdentityInfo                   0x00013b7e   Section        0  sm.o(i.smpBuildIdentityInfo)
    i.smpBuildMasterID                       0x00013b9e   Section        0  sm.o(i.smpBuildMasterID)
    i.smpBuildPairingConfirm                 0x00013bc8   Section        0  sm.o(i.smpBuildPairingConfirm)
    i.smpBuildPairingFailed                  0x00013be8   Section        0  sm.o(i.smpBuildPairingFailed)
    i.smpBuildPairingRandom                  0x00013c00   Section        0  sm.o(i.smpBuildPairingRandom)
    i.smpBuildPairingReq                     0x00013c20   Section        0  sm.o(i.smpBuildPairingReq)
    i.smpBuildPairingReqRsp                  0x00013c2e   Section        0  sm.o(i.smpBuildPairingReqRsp)
    i.smpBuildPairingRsp                     0x00013cc0   Section        0  sm.o(i.smpBuildPairingRsp)
    i.smpBuildSecurityReq                    0x00013cce   Section        0  sm.o(i.smpBuildSecurityReq)
    i.smpBuildSigningInfo                    0x00013ce6   Section        0  sm.o(i.smpBuildSigningInfo)
    i.smpInitiatorProcessIncoming            0x00013d06   Section        0  sm.o(i.smpInitiatorProcessIncoming)
    i.smpInitiatorProcessPairingRsp          0x00013ece   Section        0  sm.o(i.smpInitiatorProcessPairingRsp)
    i.smpParseEncInfo                        0x00013f8c   Section        0  sm.o(i.smpParseEncInfo)
    i.smpParseIdentityAddrInfo               0x00013faa   Section        0  sm.o(i.smpParseIdentityAddrInfo)
    i.smpParseIdentityInfo                   0x00013fcc   Section        0  sm.o(i.smpParseIdentityInfo)
    i.smpParseMasterID                       0x00013fea   Section        0  sm.o(i.smpParseMasterID)
    i.smpParsePairingConfirm                 0x00014012   Section        0  sm.o(i.smpParsePairingConfirm)
    i.smpParsePairingFailed                  0x00014030   Section        0  sm.o(i.smpParsePairingFailed)
    i.smpParsePairingRandom                  0x00014050   Section        0  sm.o(i.smpParsePairingRandom)
    i.smpParsePairingReq                     0x00014070   Section        0  sm.o(i.smpParsePairingReq)
    i.smpParseSecurityReq                    0x0001416c   Section        0  sm.o(i.smpParseSecurityReq)
    i.smpParseSigningInfo                    0x00014180   Section        0  sm.o(i.smpParseSigningInfo)
    i.smpResponderProcessIncoming            0x0001419e   Section        0  sm.o(i.smpResponderProcessIncoming)
    i.smpResponderProcessPairingReq          0x0001436c   Section        0  sm.o(i.smpResponderProcessPairingReq)
    i.tmosFindTask                           0x0001440c   Section        0  tmos.o(i.tmosFindTask)
    tmosFindTask                             0x0001440d   Thumb Code    28  tmos.o(i.tmosFindTask)
    i.tmos_bm_adjust_header                  0x0001442c   Section        0  memory.o(i.tmos_bm_adjust_header)
    i.tmos_clear_event                       0x00014460   Section        0  tmos.o(i.tmos_clear_event)
    i.tmos_get_task_timer                    0x00014484   Section        0  tmos.o(i.tmos_get_task_timer)
    i.tmos_isbufset                          0x00014496   Section        0  tmos.o(i.tmos_isbufset)
    i.tmos_memcmp                            0x000144b4   Section        0  tmos.o(i.tmos_memcmp)
    i.tmos_memcpy                            0x000144d0   Section        0  tmos.o(i.tmos_memcpy)
    i.tmos_memdup                            0x000144e8   Section        0  tmos.o(i.tmos_memdup)
    i.tmos_memory_allocate                   0x00014508   Section        0  memory.o(i.tmos_memory_allocate)
    i.tmos_memory_free                       0x000145b4   Section        0  memory.o(i.tmos_memory_free)
    i.tmos_memory_init                       0x00014660   Section        0  memory.o(i.tmos_memory_init)
    i.tmos_memset                            0x000146c0   Section        0  tmos.o(i.tmos_memset)
    i.tmos_msg_allocate                      0x000146d0   Section        0  message.o(i.tmos_msg_allocate)
    i.tmos_msg_deallocate                    0x000146f8   Section        0  message.o(i.tmos_msg_deallocate)
    i.tmos_msg_enqueue                       0x00014718   Section        0  message.o(i.tmos_msg_enqueue)
    i.tmos_msg_init                          0x0001473c   Section        0  message.o(i.tmos_msg_init)
    i.tmos_msg_receive                       0x00014748   Section        0  message.o(i.tmos_msg_receive)
    i.tmos_msg_send                          0x000147b8   Section        0  message.o(i.tmos_msg_send)
    i.tmos_rand                              0x00014810   Section        0  tmos.o(i.tmos_rand)
    i.tmos_revmemcpy                         0x00014848   Section        0  tmos.o(i.tmos_revmemcpy)
    i.tmos_set_event                         0x0001485c   Section        0  tmos.o(i.tmos_set_event)
    i.tmos_snv_clear                         0x00014880   Section        0  tmos_snv.o(i.tmos_snv_clear)
    i.tmos_snv_compact                       0x000148c4   Section        0  tmos_snv.o(i.tmos_snv_compact)
    i.tmos_snv_init                          0x000148c8   Section        0  tmos_snv.o(i.tmos_snv_init)
    i.tmos_snv_notify                        0x000148fc   Section        0  tmos_snv.o(i.tmos_snv_notify)
    i.tmos_snv_read                          0x0001493c   Section        0  tmos_snv.o(i.tmos_snv_read)
    i.tmos_snv_write                         0x000149c4   Section        0  tmos_snv.o(i.tmos_snv_write)
    i.tmos_start_callback_task               0x00014a70   Section        0  tmos.o(i.tmos_start_callback_task)
    i.tmos_start_reload_task                 0x00014adc   Section        0  tmos.o(i.tmos_start_reload_task)
    i.tmos_start_task                        0x00014b00   Section        0  tmos.o(i.tmos_start_task)
    i.tmos_stop_callback_task                0x00014b74   Section        0  tmos.o(i.tmos_stop_callback_task)
    i.tmos_stop_task                         0x00014bbc   Section        0  tmos.o(i.tmos_stop_task)
    i.tmos_strlen                            0x00014be2   Section        0  tmos.o(i.tmos_strlen)
    i.tmos_update_callback_timer             0x00014bf4   Section        0  tmos.o(i.tmos_update_callback_timer)
    i.xor_128                                0x00014c58   Section        0  sm.o(i.xor_128)
    .constdata                               0x00014c6e   Section        2  devinfoservice.o(.constdata)
    .constdata                               0x00014c70   Section        2  devinfoservice.o(.constdata)
    .constdata                               0x00014c72   Section        2  devinfoservice.o(.constdata)
    .constdata                               0x00014c74   Section        2  devinfoservice.o(.constdata)
    .constdata                               0x00014c76   Section        2  devinfoservice.o(.constdata)
    .constdata                               0x00014c78   Section        2  devinfoservice.o(.constdata)
    .constdata                               0x00014c7a   Section        2  devinfoservice.o(.constdata)
    .constdata                               0x00014c7c   Section        2  devinfoservice.o(.constdata)
    .constdata                               0x00014c7e   Section        2  devinfoservice.o(.constdata)
    .constdata                               0x00014c80   Section        2  devinfoservice.o(.constdata)
    .constdata                               0x00014c84   Section        8  devinfoservice.o(.constdata)
    devInfoService                           0x00014c84   Data           8  devinfoservice.o(.constdata)
    .constdata                               0x00014c8c   Section      113  devinfoservice.o(.constdata)
    devInfoModelNumber                       0x00014c8c   Data          13  devinfoservice.o(.constdata)
    devInfoSerialNumber                      0x00014c99   Data          14  devinfoservice.o(.constdata)
    devInfoFirmwareRev                       0x00014ca7   Data          18  devinfoservice.o(.constdata)
    devInfoHardwareRev                       0x00014cb9   Data          18  devinfoservice.o(.constdata)
    devInfoSoftwareRev                       0x00014ccb   Data          18  devinfoservice.o(.constdata)
    devInfoMfrName                           0x00014cdd   Data          18  devinfoservice.o(.constdata)
    devInfo11073Cert                         0x00014cef   Data          14  devinfoservice.o(.constdata)
    .constdata                               0x00014cfd   Section        2  gattprofile.o(.constdata)
    .constdata                               0x00014cff   Section        2  gattprofile.o(.constdata)
    .constdata                               0x00014d01   Section        2  gattprofile.o(.constdata)
    .constdata                               0x00014d03   Section        2  gattprofile.o(.constdata)
    .constdata                               0x00014d05   Section        2  gattprofile.o(.constdata)
    .constdata                               0x00014d07   Section        2  gattprofile.o(.constdata)
    .constdata                               0x00014d0c   Section        8  gattprofile.o(.constdata)
    simpleProfileService                     0x00014d0c   Data           8  gattprofile.o(.constdata)
    .constdata                               0x00014d14   Section       20  ip.o(.constdata)
    .constdata                               0x00014d28   Section        8  gapgattserver.o(.constdata)
    gapService                               0x00014d28   Data           8  gapgattserver.o(.constdata)
    .constdata                               0x00014d30   Section       96  gattservapp.o(.constdata)
    .constdata                               0x00014d90   Section       42  gatt_uuid.o(.constdata)
    .constdata                               0x00014dba   Section        2  gatt_uuid.o(.constdata)
    .constdata                               0x00014dbc   Section       16  ll_slave.o(.constdata)
    .constdata                               0x00014dcc   Section       16  att.o(.constdata)
    .constdata                               0x00014ddc   Section       41  sm.o(.constdata)
    .constdata                               0x00014e05   Section       23  ll.o(.constdata)
    .data                                    0x20000000   Section        1  mcu.o(.data)
    .data                                    0x20000004   Section        4  rtc.o(.data)
    .data                                    0x20000008   Section        4  ctimer.o(.data)
    ctimer_list_list                         0x20000008   Data           4  ctimer.o(.data)
    .data                                    0x2000000c   Section       20  ctimer.o(.data)
    initialized                              0x2000000c   Data           1  ctimer.o(.data)
    ctimer_list                              0x20000010   Data           4  ctimer.o(.data)
    .data                                    0x20000020   Section       20  etimer.o(.data)
    timerlist                                0x20000020   Data           4  etimer.o(.data)
    next_expiration                          0x20000024   Data           4  etimer.o(.data)
    .data                                    0x20000034   Section       12  process.o(.data)
    lastevent                                0x20000034   Data           1  process.o(.data)
    nevents                                  0x20000035   Data           1  process.o(.data)
    fevent                                   0x20000036   Data           1  process.o(.data)
    poll_requested                           0x20000037   Data           1  process.o(.data)
    .data                                    0x20000040   Section        4  pt_ports.o(.data)
    .data                                    0x20000044   Section        1  devinfoservice.o(.data)
    devInfoSystemIdProps                     0x20000044   Data           1  devinfoservice.o(.data)
    .data                                    0x20000048   Section      332  devinfoservice.o(.data)
    devInfoPnpId                             0x20000048   Data           7  devinfoservice.o(.data)
    devInfoSystemId                          0x2000004f   Data           8  devinfoservice.o(.data)
    devInfoAttrTbl                           0x20000058   Data         304  devinfoservice.o(.data)
    .data                                    0x20000194   Section        1  devinfoservice.o(.data)
    devInfoModelNumberProps                  0x20000194   Data           1  devinfoservice.o(.data)
    .data                                    0x20000195   Section        1  devinfoservice.o(.data)
    devInfoSerialNumberProps                 0x20000195   Data           1  devinfoservice.o(.data)
    .data                                    0x20000196   Section        1  devinfoservice.o(.data)
    devInfoFirmwareRevProps                  0x20000196   Data           1  devinfoservice.o(.data)
    .data                                    0x20000197   Section        1  devinfoservice.o(.data)
    devInfoHardwareRevProps                  0x20000197   Data           1  devinfoservice.o(.data)
    .data                                    0x20000198   Section        1  devinfoservice.o(.data)
    devInfoSoftwareRevProps                  0x20000198   Data           1  devinfoservice.o(.data)
    .data                                    0x20000199   Section        1  devinfoservice.o(.data)
    devInfoMfrNameProps                      0x20000199   Data           1  devinfoservice.o(.data)
    .data                                    0x2000019a   Section        1  devinfoservice.o(.data)
    devInfo11073CertProps                    0x2000019a   Data           1  devinfoservice.o(.data)
    .data                                    0x2000019b   Section        1  devinfoservice.o(.data)
    devInfoPnpIdProps                        0x2000019b   Data           1  devinfoservice.o(.data)
    .data                                    0x2000019c   Section      300  gattprofile.o(.data)
    simpleProfileChar1                       0x2000019c   Data           1  gattprofile.o(.data)
    simpleProfileChar2                       0x2000019d   Data           1  gattprofile.o(.data)
    simpleProfileChar3                       0x2000019e   Data           1  gattprofile.o(.data)
    simpleProfileChar4                       0x2000019f   Data           1  gattprofile.o(.data)
    simpleProfile_AppCBs                     0x200001a0   Data           4  gattprofile.o(.data)
    simpleProfileChar5                       0x200001a4   Data           5  gattprofile.o(.data)
    simpleProfileAttrTbl                     0x200001ac   Data         272  gattprofile.o(.data)
    .data                                    0x200002c8   Section        1  gattprofile.o(.data)
    simpleProfileChar1Props                  0x200002c8   Data           1  gattprofile.o(.data)
    .data                                    0x200002c9   Section       18  gattprofile.o(.data)
    simpleProfileChar1UserDesp               0x200002c9   Data          18  gattprofile.o(.data)
    .data                                    0x200002db   Section        1  gattprofile.o(.data)
    simpleProfileChar2Props                  0x200002db   Data           1  gattprofile.o(.data)
    .data                                    0x200002dc   Section       18  gattprofile.o(.data)
    simpleProfileChar2UserDesp               0x200002dc   Data          18  gattprofile.o(.data)
    .data                                    0x200002ee   Section        1  gattprofile.o(.data)
    simpleProfileChar3Props                  0x200002ee   Data           1  gattprofile.o(.data)
    .data                                    0x200002ef   Section       18  gattprofile.o(.data)
    simpleProfileChar3UserDesp               0x200002ef   Data          18  gattprofile.o(.data)
    .data                                    0x20000301   Section        1  gattprofile.o(.data)
    simpleProfileChar4Props                  0x20000301   Data           1  gattprofile.o(.data)
    .data                                    0x20000302   Section       18  gattprofile.o(.data)
    simpleProfileChar4UserDesp               0x20000302   Data          18  gattprofile.o(.data)
    .data                                    0x20000314   Section        1  gattprofile.o(.data)
    simpleProfileChar5Props                  0x20000314   Data           1  gattprofile.o(.data)
    .data                                    0x20000315   Section       18  gattprofile.o(.data)
    simpleProfileChar5UserDesp               0x20000315   Data          18  gattprofile.o(.data)
    .data                                    0x20000328   Section      104  peripheral.o(.data)
    Peripheral_TaskID                        0x20000328   Data           1  peripheral.o(.data)
    Peripheral_SimpleProfileCBs              0x2000032c   Data           4  peripheral.o(.data)
    advertData                               0x20000330   Data           7  peripheral.o(.data)
    Broadcaster_BroadcasterCBs               0x20000338   Data           8  peripheral.o(.data)
    Peripheral_BondMgrCBs                    0x20000340   Data           8  peripheral.o(.data)
    peripheralConnList                       0x20000348   Data           8  peripheral.o(.data)
    scanRspData                              0x20000350   Data          28  peripheral.o(.data)
    attDeviceName                            0x2000036c   Data          21  peripheral.o(.data)
    Peripheral_PeripheralCBs                 0x20000384   Data          12  peripheral.o(.data)
    .data                                    0x20000390   Section       40  pt-sem-example.o(.data)
    .data                                    0x200003b8   Section       24  tmos.o(.data)
    holdrand                                 0x200003b8   Data           4  tmos.o(.data)
    .data                                    0x200003d0   Section        4  message.o(.data)
    .data                                    0x200003d4   Section        4  tmos_hw.o(.data)
    .data                                    0x200003d8   Section        4  lle.o(.data)
    .data                                    0x200003dc   Section        8  ip.o(.data)
    .data                                    0x200003e4   Section       42  gap.o(.data)
    terminateReason                          0x200003e4   Data           1  gap.o(.data)
    terminateAllTaskID                       0x200003e5   Data           1  gap.o(.data)
    pfnCentralCBs                            0x200003e8   Data           4  gap.o(.data)
    pfnCentralConnCBs                        0x200003ec   Data           4  gap.o(.data)
    pfnPeripheralCBs                         0x200003f0   Data           4  gap.o(.data)
    pfnPeripheralConnCBs                     0x200003f4   Data           4  gap.o(.data)
    gapCurrentRandomAddr                     0x20000400   Data           6  gap.o(.data)
    slaveUpdateReq                           0x20000406   Data           8  gap.o(.data)
    .data                                    0x20000410   Section      176  gapgattserver.o(.data)
    deviceNameCharProps                      0x20000410   Data           1  gapgattserver.o(.data)
    appearanceCharProps                      0x20000411   Data           1  gapgattserver.o(.data)
    periConnParamCharProps                   0x20000412   Data           1  gapgattserver.o(.data)
    centAddrResCharProps                     0x20000413   Data           1  gapgattserver.o(.data)
    centAddrRes                              0x20000414   Data           1  gapgattserver.o(.data)
    ggsAddService                            0x20000415   Data           1  gapgattserver.o(.data)
    appearance                               0x20000416   Data           2  gapgattserver.o(.data)
    ggs_AppCBs                               0x20000418   Data           4  gapgattserver.o(.data)
    periConnParameters                       0x2000041c   Data           8  gapgattserver.o(.data)
    gapAttrTbl                               0x20000424   Data         144  gapgattserver.o(.data)
    .data                                    0x200004c0   Section       12  gatt.o(.data)
    gattPeriAppTaskID                        0x200004c0   Data           1  gatt.o(.data)
    gattCentAppTaskID                        0x200004c1   Data           1  gatt.o(.data)
    .data                                    0x200004cc   Section      112  gattservapp.o(.data)
    serviceChangedCharProps                  0x200004cc   Data           1  gattservapp.o(.data)
    reqTaskId                                0x200004cd   Data           1  gattservapp.o(.data)
    appTaskID                                0x200004ce   Data           1  gattservapp.o(.data)
    GATTServApp_TaskID                       0x200004cf   Data           1  gattservapp.o(.data)
    gattAddService                           0x200004d0   Data           1  gattservapp.o(.data)
    nextHandle                               0x200004d2   Data           2  gattservapp.o(.data)
    attrLen                                  0x200004d4   Data           2  gattservapp.o(.data)
    pAttrValue                               0x200004d8   Data           4  gattservapp.o(.data)
    serviceCBsList                           0x200004dc   Data           4  gattservapp.o(.data)
    pServiceList                             0x200004e0   Data           4  gattservapp.o(.data)
    prepareWritesTbl                         0x200004e4   Data           4  gattservapp.o(.data)
    gattService                              0x200004e8   Data           8  gattservapp.o(.data)
    gattAttrTbl                              0x200004f0   Data          64  gattservapp.o(.data)
    gattServiceCBs                           0x20000530   Data          12  gattservapp.o(.data)
    .data                                    0x2000053c   Section        8  linkdb.o(.data)
    .data                                    0x20000544   Section       80  gapbondmgr.o(.data)
    gapBond_Peri_PairingMode                 0x20000544   Data           1  gapbondmgr.o(.data)
    gapBond_Peri_MITM                        0x20000545   Data           1  gapbondmgr.o(.data)
    gapBond_Peri_IOCap                       0x20000546   Data           1  gapbondmgr.o(.data)
    gapBond_Peri_OOBDataFlag                 0x20000547   Data           1  gapbondmgr.o(.data)
    gapBond_Peri_Bonding                     0x20000548   Data           1  gapbondmgr.o(.data)
    gapBond_Peri_KeyDistList                 0x20000549   Data           1  gapbondmgr.o(.data)
    gapBond_Cent_PairingMode                 0x2000054a   Data           1  gapbondmgr.o(.data)
    gapBond_Cent_MITM                        0x2000054b   Data           1  gapbondmgr.o(.data)
    gapBond_Cent_IOCap                       0x2000054c   Data           1  gapbondmgr.o(.data)
    gapBond_Cent_OOBDataFlag                 0x2000054d   Data           1  gapbondmgr.o(.data)
    gapBond_Cent_Bonding                     0x2000054e   Data           1  gapbondmgr.o(.data)
    gapBond_Cent_KeyDistList                 0x2000054f   Data           1  gapbondmgr.o(.data)
    gapBond_AutoFail                         0x20000550   Data           1  gapbondmgr.o(.data)
    gapBond_AutoFailReason                   0x20000551   Data           1  gapbondmgr.o(.data)
    gapBond_KeySize                          0x20000552   Data           1  gapbondmgr.o(.data)
    gattCCFlag                               0x20000553   Data           1  gapbondmgr.o(.data)
    gapBond_BondFailOption                   0x20000554   Data           1  gapbondmgr.o(.data)
    autoSyncWhiteList                        0x20000555   Data           1  gapbondmgr.o(.data)
    autoSyncResolveList                      0x20000556   Data           1  gapbondmgr.o(.data)
    eraseAllBonds                            0x20000557   Data           1  gapbondmgr.o(.data)
    gapBondMgr_TaskID                        0x2000055b   Data           1  gapbondmgr.o(.data)
    gapBondMax                               0x2000055c   Data           1  gapbondmgr.o(.data)
    bondIdx                                  0x2000055d   Data           1  gapbondmgr.o(.data)
    service                                  0x20000560   Data           2  gapbondmgr.o(.data)
    gapBond_Peri_Passcode                    0x20000564   Data           4  gapbondmgr.o(.data)
    gapBond_Cent_Passcode                    0x20000568   Data           4  gapbondmgr.o(.data)
    pGapBondCB                               0x2000056c   Data           4  gapbondmgr.o(.data)
    pGapPeriBondCB                           0x20000570   Data           4  gapbondmgr.o(.data)
    pGapCentBondCB                           0x20000574   Data           4  gapbondmgr.o(.data)
    pAuthEvt                                 0x20000578   Data           4  gapbondmgr.o(.data)
    pAttr                                    0x2000057c   Data           4  gapbondmgr.o(.data)
    bonds                                    0x20000580   Data           4  gapbondmgr.o(.data)
    gapBondCB                                0x2000058c   Data           8  gapbondmgr.o(.data)
    .data                                    0x20000594   Section        4  peripheral.o(.data)
    pGapRoles_AppCGs                         0x20000594   Data           4  peripheral.o(.data)
    .data                                    0x20000598   Section        4  broadcaster.o(.data)
    .data                                    0x2000059c   Section       67  role.o(.data)
    .data                                    0x200005e0   Section       12  memory.o(.data)
    .data                                    0x200005ec   Section        4  aes.o(.data)
    .data                                    0x200005f0   Section        4  bb.o(.data)
    .data                                    0x200005f4   Section        4  dma.o(.data)
    .data                                    0x200005f8   Section        4  rfend.o(.data)
    .data                                    0x200005fc   Section        4  ll_connect.o(.data)
    .data                                    0x20000600   Section       16  host_input.o(.data)
    fragment                                 0x20000600   Data           1  host_input.o(.data)
    .data                                    0x20000610   Section        8  att.o(.data)
    .data                                    0x20000618   Section       20  gap_central.o(.data)
    .data                                    0x2000062c   Section       20  gap_peripheral.o(.data)
    gapAdvAppTaskID                          0x2000062c   Data           1  gap_peripheral.o(.data)
    gapLimitedAdvertisingTimeout             0x2000062e   Data           2  gap_peripheral.o(.data)
    pGapAdData                               0x20000630   Data           4  gap_peripheral.o(.data)
    pGapAdvTokens                            0x20000634   Data           4  gap_peripheral.o(.data)
    pGapScanRspData                          0x20000638   Data           4  gap_peripheral.o(.data)
    gapPeripheralConnCBs                     0x2000063c   Data           4  gap_peripheral.o(.data)
    .data                                    0x20000640   Section       24  l2cap.o(.data)
    .data                                    0x20000658   Section       36  sm.o(.data)
    .data                                    0x2000067c   Section        4  ll.o(.data)
    .data                                    0x20000680   Section        4  stdout.o(.data)
    .bss                                     0x20000684   Section      384  process.o(.bss)
    events                                   0x20000684   Data         384  process.o(.bss)
    .bss                                     0x20000804   Section       16  gattprofile.o(.bss)
    simpleProfileChar4Config                 0x20000804   Data          16  gattprofile.o(.bss)
    .bss                                     0x20000814   Section     8192  peripheral_main.o(.bss)
    .bss                                     0x20002814   Section       32  pt-sem-example.o(.bss)
    et                                       0x20002814   Data          16  pt-sem-example.o(.bss)
    et                                       0x20002824   Data          16  pt-sem-example.o(.bss)
    .bss                                     0x20002834   Section      112  tmos.o(.bss)
    .bss                                     0x200028a4   Section       24  ip.o(.bss)
    .bss                                     0x200028bc   Section       84  gap.o(.bss)
    .bss                                     0x20002910   Section       22  gapgattserver.o(.bss)
    deviceName                               0x20002910   Data          22  gapgattserver.o(.bss)
    .bss                                     0x20002928   Section       54  gattservapp.o(.bss)
    rsp                                      0x20002928   Data          24  gattservapp.o(.bss)
    serverInfoTbl                            0x20002940   Data          18  gattservapp.o(.bss)
    indCharCfg                               0x20002952   Data          12  gattservapp.o(.bss)
    .bss                                     0x20002960   Section       48  linkdb.o(.bss)
    .bss                                     0x20002990   Section       32  gapbondmgr.o(.bss)
    gapBond_Peri_OOBData                     0x20002990   Data          16  gapbondmgr.o(.bss)
    gapBond_Cent_OOBData                     0x200029a0   Data          16  gapbondmgr.o(.bss)
    .bss                                     0x200029b0   Section       32  peripheral.o(.bss)
    gapRole_OldIRK                           0x200029b0   Data          16  peripheral.o(.bss)
    gapRole_OldSRK                           0x200029c0   Data          16  peripheral.o(.bss)
    .bss                                     0x200029d0   Section       63  role.o(.bss)
    .bss                                     0x20002a10   Section       12  gap_central.o(.bss)
    .bss                                     0x20002a1c   Section       12  gap_peripheral.o(.bss)
    gapPeripheralCBs                         0x20002a1c   Data          12  gap_peripheral.o(.bss)
    .bss                                     0x20002a28   Section       16  l2cap.o(.bss)
    .bss                                     0x20002a38   Section       48  l2cap.o(.bss)
    .bss                                     0x20002a68   Section      176  ll.o(.bss)

    Global Symbols

    Symbol Name                              Value     Ov Type        Size  Object(Section)

    BuildAttributes$$THM_ISAv3M$S$PE$A:L22$X:L11$S22$IEEE1$IW$USESV6$~STKCKD$USESV7$~SHL$OSPACE$ROPI$EBA8$MICROLIB$REQ8$PRES8$EABIv2 0x00000000   Number         0  anon$$obj.o ABSOLUTE
    __ARM_use_no_argv                        0x00000000   Number         0  peripheral_main.o ABSOLUTE
    __Vectors                                0x00000000   Data           4  startup_armcm0.o(RESET)
    _printf_a                                0x00000000   Number         0  stubs.o ABSOLUTE
    _printf_c                                0x00000000   Number         0  stubs.o ABSOLUTE
    _printf_charcount                        0x00000000   Number         0  stubs.o ABSOLUTE
    _printf_d                                0x00000000   Number         0  stubs.o ABSOLUTE
    _printf_e                                0x00000000   Number         0  stubs.o ABSOLUTE
    _printf_f                                0x00000000   Number         0  stubs.o ABSOLUTE
    _printf_flags                            0x00000000   Number         0  stubs.o ABSOLUTE
    _printf_fp_dec                           0x00000000   Number         0  stubs.o ABSOLUTE
    _printf_fp_hex                           0x00000000   Number         0  stubs.o ABSOLUTE
    _printf_g                                0x00000000   Number         0  stubs.o ABSOLUTE
    _printf_i                                0x00000000   Number         0  stubs.o ABSOLUTE
    _printf_int_dec                          0x00000000   Number         0  stubs.o ABSOLUTE
    _printf_l                                0x00000000   Number         0  stubs.o ABSOLUTE
    _printf_lc                               0x00000000   Number         0  stubs.o ABSOLUTE
    _printf_ll                               0x00000000   Number         0  stubs.o ABSOLUTE
    _printf_lld                              0x00000000   Number         0  stubs.o ABSOLUTE
    _printf_lli                              0x00000000   Number         0  stubs.o ABSOLUTE
    _printf_llo                              0x00000000   Number         0  stubs.o ABSOLUTE
    _printf_llu                              0x00000000   Number         0  stubs.o ABSOLUTE
    _printf_llx                              0x00000000   Number         0  stubs.o ABSOLUTE
    _printf_longlong_dec                     0x00000000   Number         0  stubs.o ABSOLUTE
    _printf_longlong_hex                     0x00000000   Number         0  stubs.o ABSOLUTE
    _printf_longlong_oct                     0x00000000   Number         0  stubs.o ABSOLUTE
    _printf_ls                               0x00000000   Number         0  stubs.o ABSOLUTE
    _printf_mbtowc                           0x00000000   Number         0  stubs.o ABSOLUTE
    _printf_n                                0x00000000   Number         0  stubs.o ABSOLUTE
    _printf_o                                0x00000000   Number         0  stubs.o ABSOLUTE
    _printf_p                                0x00000000   Number         0  stubs.o ABSOLUTE
    _printf_percent                          0x00000000   Number         0  stubs.o ABSOLUTE
    _printf_pre_padding                      0x00000000   Number         0  stubs.o ABSOLUTE
    _printf_return_value                     0x00000000   Number         0  stubs.o ABSOLUTE
    _printf_s                                0x00000000   Number         0  stubs.o ABSOLUTE
    _printf_sizespec                         0x00000000   Number         0  stubs.o ABSOLUTE
    _printf_str                              0x00000000   Number         0  stubs.o ABSOLUTE
    _printf_truncate_signed                  0x00000000   Number         0  stubs.o ABSOLUTE
    _printf_truncate_unsigned                0x00000000   Number         0  stubs.o ABSOLUTE
    _printf_u                                0x00000000   Number         0  stubs.o ABSOLUTE
    _printf_wc                               0x00000000   Number         0  stubs.o ABSOLUTE
    _printf_wctomb                           0x00000000   Number         0  stubs.o ABSOLUTE
    _printf_widthprec                        0x00000000   Number         0  stubs.o ABSOLUTE
    _printf_x                                0x00000000   Number         0  stubs.o ABSOLUTE
    __arm_fini_                               - Undefined Weak Reference
    __cpp_initialize__aeabi_                  - Undefined Weak Reference
    __cxa_finalize                            - Undefined Weak Reference
    _clock_init                               - Undefined Weak Reference
    _microlib_exit                            - Undefined Weak Reference
    __Vectors_End                            0x00000090   Data           0  startup_armcm0.o(RESET)
    __Vectors_Size                           0x00000090   Number         0  startup_armcm0.o ABSOLUTE
    __main                                   0x00000091   Thumb Code     0  entry.o(.ARM.Collect$$$$00000000)
    _main_stk                                0x00000091   Thumb Code     0  entry2.o(.ARM.Collect$$$$00000001)
    _main_scatterload                        0x00000095   Thumb Code     0  entry5.o(.ARM.Collect$$$$00000004)
    __main_after_scatterload                 0x00000099   Thumb Code     0  entry5.o(.ARM.Collect$$$$00000004)
    _main_clock                              0x00000099   Thumb Code     0  entry7b.o(.ARM.Collect$$$$00000008)
    _main_cpp_init                           0x00000099   Thumb Code     0  entry8b.o(.ARM.Collect$$$$0000000A)
    _main_init                               0x00000099   Thumb Code     0  entry9a.o(.ARM.Collect$$$$0000000B)
    __rt_lib_shutdown_fini                   0x000000a1   Thumb Code     0  entry12b.o(.ARM.Collect$$$$0000000E)
    __rt_final_cpp                           0x000000a5   Thumb Code     0  entry10a.o(.ARM.Collect$$$$0000000F)
    __rt_final_exit                          0x000000a5   Thumb Code     0  entry11a.o(.ARM.Collect$$$$00000011)
    Reset_Handler                            0x000000a9   Thumb Code     8  startup_armcm0.o(.text)
    HardFault_Handler                        0x000000b3   Thumb Code     0  startup_armcm0.o(.text)
    SVC_Handler                              0x000000b3   Thumb Code     2  startup_armcm0.o(.text)
    PendSV_Handler                           0x000000b5   Thumb Code     2  startup_armcm0.o(.text)
    ADC_IRQHandler                           0x000000b9   Thumb Code     0  startup_armcm0.o(.text)
    BB_IRQHandler                            0x000000b9   Thumb Code     0  startup_armcm0.o(.text)
    ETH_IRQHandler                           0x000000b9   Thumb Code     0  startup_armcm0.o(.text)
    GPIO_IRQHandler                          0x000000b9   Thumb Code     0  startup_armcm0.o(.text)
    LED_IRQHandler                           0x000000b9   Thumb Code     0  startup_armcm0.o(.text)
    SLAVE_IRQHandler                         0x000000b9   Thumb Code     0  startup_armcm0.o(.text)
    SPI0_IRQHandler                          0x000000b9   Thumb Code     0  startup_armcm0.o(.text)
    SPI1_IRQHandler                          0x000000b9   Thumb Code     0  startup_armcm0.o(.text)
    TMR0_IRQHandler                          0x000000b9   Thumb Code     0  startup_armcm0.o(.text)
    TMR1_IRQHandler                          0x000000b9   Thumb Code     0  startup_armcm0.o(.text)
    TMR2_IRQHandler                          0x000000b9   Thumb Code     0  startup_armcm0.o(.text)
    TMR3_IRQHandler                          0x000000b9   Thumb Code     0  startup_armcm0.o(.text)
    UART0_IRQHandler                         0x000000b9   Thumb Code     0  startup_armcm0.o(.text)
    UART1_IRQHandler                         0x000000b9   Thumb Code     0  startup_armcm0.o(.text)
    UART2_IRQHandler                         0x000000b9   Thumb Code     0  startup_armcm0.o(.text)
    UART3_IRQHandler                         0x000000b9   Thumb Code     0  startup_armcm0.o(.text)
    USB_IRQHandler                           0x000000b9   Thumb Code     0  startup_armcm0.o(.text)
    WDT_IRQHandler                           0x000000b9   Thumb Code     0  startup_armcm0.o(.text)
    Lib_Calibration_LSI                      0x000000c5   Thumb Code    16  mcu.o(.text)
    HAL_GetInterTempValue                    0x000000d5   Thumb Code    38  mcu.o(.text)
    CH57X_BLEInit                            0x000000fb   Thumb Code   162  mcu.o(.text)
    HAL_ProcessEvent                         0x0000019d   Thumb Code    94  mcu.o(.text)
    HAL_Init                                 0x000001fb   Thumb Code    32  mcu.o(.text)
    LLE_IRQHandler                           0x0000021b   Thumb Code     8  mcu.o(.text)
    RTC_SetTignTime                          0x0000029d   Thumb Code    36  rtc.o(.text)
    RTC_IRQHandler                           0x000002c1   Thumb Code    16  rtc.o(.text)
    HAL_TimeInit                             0x000002d1   Thumb Code    52  rtc.o(.text)
    ADC_DataCalib_Rough                      0x00000311   Thumb Code    80  ch57x_adc.o(.text)
    ADC_DataCalib_Fine                       0x00000361   Thumb Code    68  ch57x_adc.o(.text)
    ADC_ExtSingleChSampInit                  0x000003a5   Thumb Code    14  ch57x_adc.o(.text)
    ADC_ExtDiffChSampInit                    0x000003b3   Thumb Code    14  ch57x_adc.o(.text)
    ADC_InterTSSampInit                      0x000003c1   Thumb Code    20  ch57x_adc.o(.text)
    ADC_InterBATSampInit                     0x000003d5   Thumb Code    12  ch57x_adc.o(.text)
    TouchKey_ChSampInit                      0x000003e1   Thumb Code    12  ch57x_adc.o(.text)
    ADC_ExcutSingleConver                    0x000003ed   Thumb Code    20  ch57x_adc.o(.text)
    TouchKey_ExcutSingleConver               0x00000401   Thumb Code    22  ch57x_adc.o(.text)
    ADC_GetCurrentTS                         0x00000417   Thumb Code    84  ch57x_adc.o(.text)
    SystemInit                               0x0000048d   Thumb Code    46  ch57x_clk.o(.text)
    SetSysClock                              0x000004bb   Thumb Code   174  ch57x_clk.o(.text)
    GetSysClock                              0x00000569   Thumb Code    52  ch57x_clk.o(.text)
    HClk32M_Select                           0x0000059d   Thumb Code    36  ch57x_clk.o(.text)
    LClk32K_Select                           0x000005c1   Thumb Code    38  ch57x_clk.o(.text)
    HSECFG_Current                           0x000005e7   Thumb Code    30  ch57x_clk.o(.text)
    HSECFG_Capacitance                       0x00000605   Thumb Code    28  ch57x_clk.o(.text)
    LSECFG_Current                           0x00000621   Thumb Code    34  ch57x_clk.o(.text)
    LSECFG_Capacitance                       0x00000643   Thumb Code    32  ch57x_clk.o(.text)
    Calibration_LSI                          0x00000663   Thumb Code   322  ch57x_clk.o(.text)
    RTC_InitTime                             0x000007a5   Thumb Code   316  ch57x_clk.o(.text)
    RTC_GetTime                              0x000008e1   Thumb Code   352  ch57x_clk.o(.text)
    RTC_SetCycle32k                          0x00000a41   Thumb Code    66  ch57x_clk.o(.text)
    RTC_GetCycle32k                          0x00000a83   Thumb Code    14  ch57x_clk.o(.text)
    RTC_TMRFunCfg                            0x00000a91   Thumb Code    40  ch57x_clk.o(.text)
    RTC_TRIGFunCfg                           0x00000ab9   Thumb Code    66  ch57x_clk.o(.text)
    RTC_ModeFunDisable                       0x00000afb   Thumb Code    44  ch57x_clk.o(.text)
    RTC_GetITFlag                            0x00000b27   Thumb Code    22  ch57x_clk.o(.text)
    RTC_ClearITFlag                          0x00000b3d   Thumb Code    22  ch57x_clk.o(.text)
    GPIOA_ModeCfg                            0x00000b61   Thumb Code    74  ch57x_gpio.o(.text)
    GPIOB_ModeCfg                            0x00000bab   Thumb Code    76  ch57x_gpio.o(.text)
    GPIOA_ITModeCfg                          0x00000bf7   Thumb Code    68  ch57x_gpio.o(.text)
    GPIOB_ITModeCfg                          0x00000c3b   Thumb Code    72  ch57x_gpio.o(.text)
    GPIOPinRemap                             0x00000c83   Thumb Code    20  ch57x_gpio.o(.text)
    GPIOAGPPCfg                              0x00000c97   Thumb Code    20  ch57x_gpio.o(.text)
    NMI_Handler                              0x00000cb1   Thumb Code    98  ch57x_int.o(.text)
    LowPower_Halt_1                          0x00000d13   Thumb Code    86  ch57x_int.o(.text)
    LowPower_Halt_2                          0x00000d69   Thumb Code   110  ch57x_int.o(.text)
    LowPower_Sleep                           0x00000dd7   Thumb Code   110  ch57x_int.o(.text)
    LowPower_Shutdown                        0x00000e45   Thumb Code   118  ch57x_int.o(.text)
    PWR_DCDCCfg                              0x00000ecd   Thumb Code    60  ch57x_pwr.o(.text)
    PWR_UnitModCfg                           0x00000f09   Thumb Code    90  ch57x_pwr.o(.text)
    PWR_PeriphClkCfg                         0x00000f63   Thumb Code    36  ch57x_pwr.o(.text)
    PWR_PeriphWakeUpCfg                      0x00000f87   Thumb Code    36  ch57x_pwr.o(.text)
    PowerMonitor                             0x00000fab   Thumb Code    58  ch57x_pwr.o(.text)
    LowPower_Idle                            0x00000fe5   Thumb Code    14  ch57x_pwr.o(.text)
    EnterCodeUpgrade                         0x00000ff3   Thumb Code   102  ch57x_pwr.o(.text)
    SYS_GetInfoSta                           0x00001065   Thumb Code    26  ch57x_sys.o(.text)
    SYS_ResetExecute                         0x0000107f   Thumb Code    24  ch57x_sys.o(.text)
    SYS_DisableAllIrq                        0x00001097   Thumb Code    18  ch57x_sys.o(.text)
    SYS_RecoverIrq                           0x000010a9   Thumb Code     6  ch57x_sys.o(.text)
    SYS_GetSysTickCnt                        0x000010af   Thumb Code     6  ch57x_sys.o(.text)
    WWDG_ITCfg                               0x000010b5   Thumb Code    34  ch57x_sys.o(.text)
    WWDG_ResetCfg                            0x000010d7   Thumb Code    34  ch57x_sys.o(.text)
    WWDG_ClearFlag                           0x000010f9   Thumb Code    24  ch57x_sys.o(.text)
    mDelayuS                                 0x00001111   Thumb Code    32  ch57x_sys.o(.text)
    mDelaymS                                 0x00001131   Thumb Code    28  ch57x_sys.o(.text)
    fputc                                    0x0000114d   Thumb Code    12  ch57x_sys.o(.text)
    UART1_BaudRateCfg                        0x00001169   Thumb Code    34  ch57x_uart1.o(.text)
    UART1_DefInit                            0x0000118b   Thumb Code    30  ch57x_uart1.o(.text)
    UART1_ByteTrigCfg                        0x000011a9   Thumb Code    16  ch57x_uart1.o(.text)
    UART1_INTCfg                             0x000011b9   Thumb Code    28  ch57x_uart1.o(.text)
    UART1_Reset                              0x000011d5   Thumb Code     8  ch57x_uart1.o(.text)
    UART1_SendString                         0x000011dd   Thumb Code    26  ch57x_uart1.o(.text)
    UART1_RecvString                         0x000011f7   Thumb Code    26  ch57x_uart1.o(.text)
    list_init                                0x00001215   Thumb Code     6  list.o(.text)
    list_head                                0x0000121b   Thumb Code     4  list.o(.text)
    list_copy                                0x0000121f   Thumb Code     6  list.o(.text)
    list_tail                                0x00001225   Thumb Code    18  list.o(.text)
    list_remove                              0x00001237   Thumb Code    42  list.o(.text)
    list_add                                 0x00001261   Thumb Code    32  list.o(.text)
    list_push                                0x00001281   Thumb Code    18  list.o(.text)
    list_chop                                0x00001293   Thumb Code    32  list.o(.text)
    list_pop                                 0x000012b3   Thumb Code    14  list.o(.text)
    list_length                              0x000012c1   Thumb Code    18  list.o(.text)
    list_insert                              0x000012d3   Thumb Code    28  list.o(.text)
    list_item_next                           0x000012ef   Thumb Code     8  list.o(.text)
    list_contains                            0x000012f7   Thumb Code    18  list.o(.text)
    ctimer_init                              0x00001381   Thumb Code    26  ctimer.o(.text)
    ctimer_set_with_process                  0x0000139b   Thumb Code    52  ctimer.o(.text)
    ctimer_set                               0x000013cf   Thumb Code    14  ctimer.o(.text)
    ctimer_reset                             0x000013dd   Thumb Code    40  ctimer.o(.text)
    ctimer_restart                           0x00001405   Thumb Code    40  ctimer.o(.text)
    ctimer_stop                              0x0000142d   Thumb Code    36  ctimer.o(.text)
    ctimer_expired                           0x00001451   Thumb Code    46  ctimer.o(.text)
    etimer_request_poll                      0x000014bd   Thumb Code    12  etimer.o(.text)
    etimer_set                               0x0000159d   Thumb Code    16  etimer.o(.text)
    etimer_reset_with_new_interval           0x000015ad   Thumb Code    20  etimer.o(.text)
    etimer_reset                             0x000015c1   Thumb Code    16  etimer.o(.text)
    etimer_restart                           0x000015d1   Thumb Code    16  etimer.o(.text)
    etimer_adjust                            0x000015e1   Thumb Code     8  etimer.o(.text)
    etimer_expired                           0x000015e9   Thumb Code    14  etimer.o(.text)
    etimer_expiration_time                   0x000015f7   Thumb Code     8  etimer.o(.text)
    etimer_start_time                        0x000015ff   Thumb Code     4  etimer.o(.text)
    etimer_pending                           0x00001603   Thumb Code    12  etimer.o(.text)
    etimer_next_expiration_time              0x0000160f   Thumb Code    16  etimer.o(.text)
    etimer_stop                              0x0000161f   Thumb Code    46  etimer.o(.text)
    process_alloc_event                      0x00001655   Thumb Code    10  process.o(.text)
    process_is_running                       0x0000165f   Thumb Code    10  process.o(.text)
    process_post_synch                       0x00001723   Thumb Code    14  process.o(.text)
    process_start                            0x00001731   Thumb Code    48  process.o(.text)
    process_exit                             0x00001761   Thumb Code     6  process.o(.text)
    process_init                             0x00001767   Thumb Code    18  process.o(.text)
    process_run                              0x000017a3   Thumb Code    26  process.o(.text)
    process_nevents                          0x000017bd   Thumb Code    10  process.o(.text)
    process_post                             0x000017c7   Thumb Code    44  process.o(.text)
    process_poll                             0x000017f3   Thumb Code    24  process.o(.text)
    timer_set                                0x00001875   Thumb Code    14  timer.o(.text)
    timer_expired                            0x00001883   Thumb Code    28  timer.o(.text)
    timer_reset                              0x0000189f   Thumb Code    22  timer.o(.text)
    timer_restart                            0x000018b5   Thumb Code    12  timer.o(.text)
    timer_remaining                          0x000018c1   Thumb Code    16  timer.o(.text)
    protothread_clock_init                   0x000018d1   Thumb Code    44  pt_ports.o(.text)
    protothread_clock_time                   0x000018fd   Thumb Code     6  pt_ports.o(.text)
    SysTick_Handler                          0x00001903   Thumb Code    34  pt_ports.o(.text)
    protothread_init                         0x00001935   Thumb Code    24  protothread.o(.text)
    protothread_mainLoop                     0x0000194d   Thumb Code    14  protothread.o(.text)
    DevInfo_AddService                       0x00001961   Thumb Code    16  devinfoservice.o(.text)
    DevInfo_SetParameter                     0x00001971   Thumb Code    30  devinfoservice.o(.text)
    DevInfo_GetParameter                     0x0000198f   Thumb Code   106  devinfoservice.o(.text)
    SimpleProfile_AddService                 0x00001b59   Thumb Code    44  gattprofile.o(.text)
    SimpleProfile_RegisterAppCBs             0x00001b85   Thumb Code    18  gattprofile.o(.text)
    SimpleProfile_SetParameter               0x00001b97   Thumb Code   104  gattprofile.o(.text)
    SimpleProfile_GetParameter               0x00001bff   Thumb Code    72  gattprofile.o(.text)
    simpleProfile_Notify                     0x00001c47   Thumb Code    40  gattprofile.o(.text)
    main                                     0x00001d91   Thumb Code    62  peripheral_main.o(.text)
    Peripheral_ProcessEvent                  0x00001ddd   Thumb Code   196  peripheral.o(.text)
    Peripheral_Init                          0x00001ea1   Thumb Code   334  peripheral.o(.text)
    pt_sem_test                              0x000023c5   Thumb Code    40  pt-sem-example.o(.text)
    __aeabi_uidiv                            0x00002451   Thumb Code     0  uidiv.o(.text)
    __aeabi_uidivmod                         0x00002451   Thumb Code    44  uidiv.o(.text)
    __aeabi_idiv                             0x0000247d   Thumb Code     0  idiv.o(.text)
    __aeabi_idivmod                          0x0000247d   Thumb Code    40  idiv.o(.text)
    __aeabi_lmul                             0x000024a5   Thumb Code   122  llmul.o(.text)
    _ll_mul                                  0x000024a5   Thumb Code     0  llmul.o(.text)
    __aeabi_llsl                             0x0000251f   Thumb Code    32  llshl.o(.text)
    _ll_shift_l                              0x0000251f   Thumb Code     0  llshl.o(.text)
    __aeabi_memcpy                           0x0000253f   Thumb Code    36  memcpya.o(.text)
    __aeabi_memcpy4                          0x0000253f   Thumb Code     0  memcpya.o(.text)
    __aeabi_memcpy8                          0x0000253f   Thumb Code     0  memcpya.o(.text)
    __aeabi_uldivmod                         0x00002563   Thumb Code    96  uldiv.o(.text)
    __scatterload                            0x000025c5   Thumb Code    28  init.o(.text)
    __scatterload_rt2                        0x000025c5   Thumb Code     0  init.o(.text)
    __aeabi_llsr                             0x000025e9   Thumb Code    34  llushr.o(.text)
    _ll_ushift_r                             0x000025e9   Thumb Code     0  llushr.o(.text)
    __decompress                             0x0000260b   Thumb Code     0  __dczerorl2.o(.text)
    __decompress1                            0x0000260b   Thumb Code    86  __dczerorl2.o(.text)
    AES_DecError                             0x00002661   Thumb Code    76  aes.o(i.AES_DecError)
    AES_DevAESEnc                            0x000026b5   Thumb Code   194  aes.o(i.AES_DevAESEnc)
    AES_DevPktDec                            0x0000277d   Thumb Code   172  aes.o(i.AES_DevPktDec)
    AES_DevPktEnc                            0x00002831   Thumb Code   172  aes.o(i.AES_DevPktEnc)
    API_DisconnectCmd                        0x000028e5   Thumb Code    16  api_c.o(i.API_DisconnectCmd)
    API_GetConnectNumeber                    0x000028f9   Thumb Code     6  api_c.o(i.API_GetConnectNumeber)
    API_HostNumCompletedPktCmd               0x00002905   Thumb Code    46  api_c.o(i.API_HostNumCompletedPktCmd)
    API_LE_AddDeviceToResolvingList          0x00002939   Thumb Code    26  api_c.o(i.API_LE_AddDeviceToResolvingList)
    API_LE_AddWhiteListCmd                   0x00002959   Thumb Code    26  api_c.o(i.API_LE_AddWhiteListCmd)
    API_LE_ClearResolvingList                0x00002979   Thumb Code    26  api_c.o(i.API_LE_ClearResolvingList)
    API_LE_ClearWhiteListCmd                 0x00002999   Thumb Code    26  api_c.o(i.API_LE_ClearWhiteListCmd)
    API_LE_ConnUpdateCmd                     0x000029b9   Thumb Code    26  api_c.o(i.API_LE_ConnUpdateCmd)
    API_LE_CreateConnCancelCmd               0x000029d9   Thumb Code    24  api_c.o(i.API_LE_CreateConnCancelCmd)
    API_LE_LtkReqNegReplyCmd                 0x000029f5   Thumb Code    32  api_c.o(i.API_LE_LtkReqNegReplyCmd)
    API_LE_LtkReqReplyCmd                    0x00002a19   Thumb Code    32  api_c.o(i.API_LE_LtkReqReplyCmd)
    API_LE_RandCmd                           0x00002a3d   Thumb Code    28  api_c.o(i.API_LE_RandCmd)
    API_LE_ReadBufSizeCmd                    0x00002a5d   Thumb Code    30  api_c.o(i.API_LE_ReadBufSizeCmd)
    API_LE_RemoteConnParamReqNegReplyCmd     0x00002a81   Thumb Code    32  api_c.o(i.API_LE_RemoteConnParamReqNegReplyCmd)
    API_LE_RemoteConnParamReqReplyCmd        0x00002aa5   Thumb Code    46  api_c.o(i.API_LE_RemoteConnParamReqReplyCmd)
    API_LE_SetAddressResolvableEnableCmd     0x00002ad9   Thumb Code    26  api_c.o(i.API_LE_SetAddressResolvableEnableCmd)
    API_LE_SetAdvDataCmd                     0x00002af9   Thumb Code    26  api_c.o(i.API_LE_SetAdvDataCmd)
    API_LE_SetAdvEnableCmd                   0x00002b19   Thumb Code    26  api_c.o(i.API_LE_SetAdvEnableCmd)
    API_LE_SetAdvParamCmd                    0x00002b39   Thumb Code    40  api_c.o(i.API_LE_SetAdvParamCmd)
    API_LE_SetRandomAddressCmd               0x00002b65   Thumb Code    26  api_c.o(i.API_LE_SetRandomAddressCmd)
    API_LE_SetResolvableAddressTimeoutCmd    0x00002b85   Thumb Code    26  api_c.o(i.API_LE_SetResolvableAddressTimeoutCmd)
    API_LE_SetScanEnableCmd                  0x00002ba5   Thumb Code    26  api_c.o(i.API_LE_SetScanEnableCmd)
    API_LE_SetScanRspDataCmd                 0x00002bc5   Thumb Code    26  api_c.o(i.API_LE_SetScanRspDataCmd)
    API_LE_StartEncryptCmd                   0x00002be5   Thumb Code    16  api_c.o(i.API_LE_StartEncryptCmd)
    API_MD_DisconnectCmd                     0x00002bf9   Thumb Code     8  api_c.o(i.API_MD_DisconnectCmd)
    API_ReadBDADDRCmd                        0x00002c01   Thumb Code    30  api_c.o(i.API_ReadBDADDRCmd)
    API_ReadRssiCmd                          0x00002c25   Thumb Code    38  api_c.o(i.API_ReadRssiCmd)
    API_SendDataPkt                          0x00002c51   Thumb Code     8  api_c.o(i.API_SendDataPkt)
    ATT_BuildErrorRsp                        0x00002c59   Thumb Code    22  att.o(i.ATT_BuildErrorRsp)
    ATT_BuildExchangeMTURsp                  0x00002c6f   Thumb Code    14  att_server.o(i.ATT_BuildExchangeMTURsp)
    ATT_BuildFindByTypeValueRsp              0x00002c7d   Thumb Code     8  att_server.o(i.ATT_BuildFindByTypeValueRsp)
    ATT_BuildFindInfoRsp                     0x00002c85   Thumb Code    26  att_server.o(i.ATT_BuildFindInfoRsp)
    ATT_BuildHandleValueInd                  0x00002c9f   Thumb Code    18  att_server.o(i.ATT_BuildHandleValueInd)
    ATT_BuildPrepareWriteRsp                 0x00002cb1   Thumb Code    28  att_server.o(i.ATT_BuildPrepareWriteRsp)
    ATT_BuildReadBlobRsp                     0x00002ccd   Thumb Code     4  att_server.o(i.ATT_BuildReadBlobRsp)
    ATT_BuildReadByGrpTypeRsp                0x00002cd1   Thumb Code    16  att_server.o(i.ATT_BuildReadByGrpTypeRsp)
    ATT_BuildReadByTypeRsp                   0x00002ce1   Thumb Code    16  att_server.o(i.ATT_BuildReadByTypeRsp)
    ATT_BuildReadMultiRsp                    0x00002cf1   Thumb Code     4  att_server.o(i.ATT_BuildReadMultiRsp)
    ATT_BuildReadRsp                         0x00002cf5   Thumb Code     4  att_server.o(i.ATT_BuildReadRsp)
    ATT_CompareUUID                          0x00002cf9   Thumb Code    74  att.o(i.ATT_CompareUUID)
    ATT_ConvertUUIDto128                     0x00002d45   Thumb Code    38  att.o(i.ATT_ConvertUUIDto128)
    ATT_ErrorRsp                             0x00002d71   Thumb Code    18  att.o(i.ATT_ErrorRsp)
    ATT_ExchangeMTURsp                       0x00002d89   Thumb Code    28  att_server.o(i.ATT_ExchangeMTURsp)
    ATT_ExecuteWriteRsp                      0x00002da9   Thumb Code    16  att_server.o(i.ATT_ExecuteWriteRsp)
    ATT_FindByTypeValueRsp                   0x00002db9   Thumb Code    44  att_server.o(i.ATT_FindByTypeValueRsp)
    ATT_FindInfoRsp                          0x00002de9   Thumb Code    54  att_server.o(i.ATT_FindInfoRsp)
    ATT_GetMTU                               0x00002e25   Thumb Code    26  att.o(i.ATT_GetMTU)
    ATT_HandleValueInd                       0x00002e45   Thumb Code    38  att_server.o(i.ATT_HandleValueInd)
    ATT_HandleValueNoti                      0x00002e71   Thumb Code    38  att_server.o(i.ATT_HandleValueNoti)
    ATT_ParamInit                            0x00002e9d   Thumb Code    10  att.o(i.ATT_ParamInit)
    ATT_ParseExchangeMTUReq                  0x00002ead   Thumb Code    24  att_server.o(i.ATT_ParseExchangeMTUReq)
    ATT_ParseExecuteWriteReq                 0x00002ec5   Thumb Code    18  att_server.o(i.ATT_ParseExecuteWriteReq)
    ATT_ParseFindByTypeValueReq              0x00002ed7   Thumb Code    72  att_server.o(i.ATT_ParseFindByTypeValueReq)
    ATT_ParseFindInfoReq                     0x00002f1f   Thumb Code    34  att_server.o(i.ATT_ParseFindInfoReq)
    ATT_ParsePacket                          0x00002f41   Thumb Code   106  att.o(i.ATT_ParsePacket)
    ATT_ParsePrepareWriteReq                 0x00002fab   Thumb Code    54  att_server.o(i.ATT_ParsePrepareWriteReq)
    ATT_ParseReadBlobReq                     0x00002fe1   Thumb Code    34  att_server.o(i.ATT_ParseReadBlobReq)
    ATT_ParseReadByTypeReq                   0x00003003   Thumb Code    60  att_server.o(i.ATT_ParseReadByTypeReq)
    ATT_ParseReadMultiReq                    0x0000303f   Thumb Code    24  att_server.o(i.ATT_ParseReadMultiReq)
    ATT_ParseReadReq                         0x00003057   Thumb Code    24  att_server.o(i.ATT_ParseReadReq)
    ATT_ParseWriteReq                        0x0000306f   Thumb Code    48  att_server.o(i.ATT_ParseWriteReq)
    ATT_PrepareWriteRsp                      0x000030a1   Thumb Code    34  att_server.o(i.ATT_PrepareWriteRsp)
    ATT_ReadBlobRsp                          0x000030c9   Thumb Code    34  att_server.o(i.ATT_ReadBlobRsp)
    ATT_ReadByGrpTypeRsp                     0x000030f1   Thumb Code    44  att_server.o(i.ATT_ReadByGrpTypeRsp)
    ATT_ReadByTypeRsp                        0x00003121   Thumb Code    44  att_server.o(i.ATT_ReadByTypeRsp)
    ATT_ReadMultiRsp                         0x00003151   Thumb Code    38  att_server.o(i.ATT_ReadMultiRsp)
    ATT_ReadRsp                              0x0000317d   Thumb Code    38  att_server.o(i.ATT_ReadRsp)
    ATT_RegisterServer                       0x000031a9   Thumb Code     6  att.o(i.ATT_RegisterServer)
    ATT_UpdateMTU                            0x000031b5   Thumb Code    38  att.o(i.ATT_UpdateMTU)
    ATT_WriteRsp                             0x000031e1   Thumb Code    16  att_server.o(i.ATT_WriteRsp)
    BB_DevInit                               0x000031f1   Thumb Code    14  bb.o(i.BB_DevInit)
    BLE_ADCTune                              0x0000320d   Thumb Code    32  ip.o(i.BLE_ADCTune)
    BLE_IPCoreInit                           0x00003235   Thumb Code   178  ip.o(i.BLE_IPCoreInit)
    BLE_IRQHandler                           0x0000332d   Thumb Code   348  lle.o(i.BLE_IRQHandler)
    BLE_LibInit                              0x000034a5   Thumb Code   240  tmos.o(i.BLE_LibInit)
    BLE_RegInit                              0x0000359d   Thumb Code    62  ip.o(i.BLE_RegInit)
    CreatePRBS15                             0x000035e5   Thumb Code    60  ctl_input.o(i.CreatePRBS15)
    CreatePRBS9                              0x00003629   Thumb Code    58  ctl_input.o(i.CreatePRBS9)
    DMA_DevInit                              0x0000366d   Thumb Code    38  dma.o(i.DMA_DevInit)
    ErasePage                                0x0000369d   Thumb Code    68  tmos_hw.o(i.ErasePage)
    GAPBondMgr_Erase                         0x000036e9   Thumb Code    68  gapbondmgr.o(i.GAPBondMgr_Erase)
    GAPBondMgr_GetParameter                  0x00003731   Thumb Code   186  gapbondmgr.o(i.GAPBondMgr_GetParameter)
    GAPBondMgr_Init                          0x000037f5   Thumb Code    18  gapbondmgr.o(i.GAPBondMgr_Init)
    GAPBondMgr_LinkEst                       0x0000380d   Thumb Code   298  gapbondmgr.o(i.GAPBondMgr_LinkEst)
    GAPBondMgr_LinkTerm                      0x0000393d   Thumb Code   100  gapbondmgr.o(i.GAPBondMgr_LinkTerm)
    GAPBondMgr_ParamInit                     0x000039a5   Thumb Code   216  gapbondmgr.o(i.GAPBondMgr_ParamInit)
    GAPBondMgr_PeripheralRegister            0x00003a91   Thumb Code    28  gapbondmgr.o(i.GAPBondMgr_PeripheralRegister)
    GAPBondMgr_ProcessEvent                  0x00003ab1   Thumb Code   156  gapbondmgr.o(i.GAPBondMgr_ProcessEvent)
    GAPBondMgr_ProcessGAPMsg                 0x00003b51   Thumb Code   514  gapbondmgr.o(i.GAPBondMgr_ProcessGAPMsg)
    GAPBondMgr_ResolveAddr                   0x00003d5d   Thumb Code   186  gapbondmgr.o(i.GAPBondMgr_ResolveAddr)
    GAPBondMgr_ServiceChangeInd              0x00003e1d   Thumb Code   108  gapbondmgr.o(i.GAPBondMgr_ServiceChangeInd)
    GAPBondMgr_SetParameter                  0x00003e95   Thumb Code   772  gapbondmgr.o(i.GAPBondMgr_SetParameter)
    GAPBondMgr_SlaveReqSecurity              0x000041a9   Thumb Code   102  gapbondmgr.o(i.GAPBondMgr_SlaveReqSecurity)
    GAPBondMgr_UpdateCharCfg                 0x00004215   Thumb Code    90  gapbondmgr.o(i.GAPBondMgr_UpdateCharCfg)
    GAPRole_BroadcasterSetCB                 0x00004279   Thumb Code     6  broadcaster.o(i.GAPRole_BroadcasterSetCB)
    GAPRole_GetParameter                     0x00004285   Thumb Code   164  role.o(i.GAPRole_GetParameter)
    GAPRole_ParamInit                        0x00004331   Thumb Code    90  role.o(i.GAPRole_ParamInit)
    GAPRole_PeripheralConnParamUpdateReq     0x00004395   Thumb Code    78  peripheral.o(i.GAPRole_PeripheralConnParamUpdateReq)
    GAPRole_PeripheralEnable                 0x000043e5   Thumb Code   152  peripheral.o(i.GAPRole_PeripheralEnable)
    GAPRole_PeripheralInit                   0x000044b5   Thumb Code    72  role.o(i.GAPRole_PeripheralInit)
    GAPRole_PeripheralProcessEvent           0x00004515   Thumb Code   300  peripheral.o(i.GAPRole_PeripheralProcessEvent)
    GAPRole_PeripheralStartDevice            0x0000467d   Thumb Code    70  peripheral.o(i.GAPRole_PeripheralStartDevice)
    GAPRole_ReadRssiCmd                      0x000046e5   Thumb Code     8  role.o(i.GAPRole_ReadRssiCmd)
    GAPRole_SetParameter                     0x000046ed   Thumb Code   384  role.o(i.GAPRole_SetParameter)
    GAPRole_TerminateLink                    0x00004879   Thumb Code    28  role.o(i.GAPRole_TerminateLink)
    GAP_Authenticate                         0x00004895   Thumb Code   160  gap.o(i.GAP_Authenticate)
    GAP_Bond                                 0x0000493d   Thumb Code   128  gap.o(i.GAP_Bond)
    GAP_CentConnRegister                     0x000049c1   Thumb Code    22  gap_central.o(i.GAP_CentConnRegister)
    GAP_CentDevMgrInit                       0x000049e1   Thumb Code   108  gap_central.o(i.GAP_CentDevMgrInit)
    GAP_CentralParamInit                     0x00004a59   Thumb Code    38  gap_central.o(i.GAP_CentralParamInit)
    GAP_DeviceInit                           0x00004a9d   Thumb Code   168  gapgattserver.o(i.GAP_DeviceInit)
    GAP_EndDiscoverable                      0x00004b45   Thumb Code    66  gap_peripheral.o(i.GAP_EndDiscoverable)
    GAP_GetParamValue                        0x00004b99   Thumb Code    16  gap.o(i.GAP_GetParamValue)
    GAP_Init                                 0x00004bb1   Thumb Code    48  gap.o(i.GAP_Init)
    GAP_MakeDiscoverable                     0x00004be9   Thumb Code   194  gap_peripheral.o(i.GAP_MakeDiscoverable)
    GAP_NumActiveConnections                 0x00004cc5   Thumb Code     8  gap.o(i.GAP_NumActiveConnections)
    GAP_ParamInit                            0x00004ccd   Thumb Code   106  gap.o(i.GAP_ParamInit)
    GAP_ParamsInit                           0x00004d45   Thumb Code    46  gap.o(i.GAP_ParamsInit)
    GAP_PasscodeUpdate                       0x00004d7d   Thumb Code    68  gap.o(i.GAP_PasscodeUpdate)
    GAP_PeriConnRegister                     0x00004dc5   Thumb Code    34  gap_peripheral.o(i.GAP_PeriConnRegister)
    GAP_PeriDevMgrInit                       0x00004df5   Thumb Code   122  gap_peripheral.o(i.GAP_PeriDevMgrInit)
    GAP_PeripheralParamInit                  0x00004e81   Thumb Code    40  gap_peripheral.o(i.GAP_PeripheralParamInit)
    GAP_ProcessEvent                         0x00004ec1   Thumb Code   216  gap.o(i.GAP_ProcessEvent)
    GAP_RegisterForMsgs                      0x00004fa5   Thumb Code     6  gap.o(i.GAP_RegisterForMsgs)
    GAP_ResolvePrivateAddr                   0x00004fb1   Thumb Code     8  gap.o(i.GAP_ResolvePrivateAddr)
    GAP_SecParamsInit                        0x00004fb9   Thumb Code    88  gap.o(i.GAP_SecParamsInit)
    GAP_SendSlaveSecurityRequest             0x00005015   Thumb Code    60  gap.o(i.GAP_SendSlaveSecurityRequest)
    GAP_SetParamValue                        0x00005055   Thumb Code    44  gap.o(i.GAP_SetParamValue)
    GAP_Signable                             0x00005089   Thumb Code    74  gap.o(i.GAP_Signable)
    GAP_TerminateAuth                        0x000050d9   Thumb Code    32  gap.o(i.GAP_TerminateAuth)
    GAP_TerminateLinkReq                     0x000050f9   Thumb Code   128  gap.o(i.GAP_TerminateLinkReq)
    GAP_UpdateAdvertisingData                0x00005181   Thumb Code   136  gap_peripheral.o(i.GAP_UpdateAdvertisingData)
    GATTServApp_AddService                   0x00005211   Thumb Code    40  gattservapp.o(i.GATTServApp_AddService)
    GATTServApp_Init                         0x0000523d   Thumb Code    82  gattservapp.o(i.GATTServApp_Init)
    GATTServApp_InitCharCfg                  0x000052a5   Thumb Code    42  gattservapp.o(i.GATTServApp_InitCharCfg)
    GATTServApp_ParamInit                    0x000052d5   Thumb Code   124  gattservapp.o(i.GATTServApp_ParamInit)
    GATTServApp_ProcessCCCWriteReq           0x00005371   Thumb Code    74  gattservapp.o(i.GATTServApp_ProcessCCCWriteReq)
    GATTServApp_ProcessEvent                 0x000053bd   Thumb Code    66  gattservapp.o(i.GATTServApp_ProcessEvent)
    GATTServApp_ReadAttr                     0x00005405   Thumb Code   540  gattservapp.o(i.GATTServApp_ReadAttr)
    GATTServApp_ReadCharCfg                  0x0000562d   Thumb Code    14  gattservapp.o(i.GATTServApp_ReadCharCfg)
    GATTServApp_RegisterForMsg               0x0000563d   Thumb Code     6  gattservapp.o(i.GATTServApp_RegisterForMsg)
    GATTServApp_RegisterService              0x00005649   Thumb Code    92  gattservapp.o(i.GATTServApp_RegisterService)
    GATTServApp_SendCCCUpdatedEvent          0x000056ad   Thumb Code    50  gattservapp.o(i.GATTServApp_SendCCCUpdatedEvent)
    GATTServApp_SendServiceChangedInd        0x000056e5   Thumb Code    30  gattservapp.o(i.GATTServApp_SendServiceChangedInd)
    GATTServApp_UpdateCharCfg                0x00005709   Thumb Code    24  gattservapp.o(i.GATTServApp_UpdateCharCfg)
    GATTServApp_WriteAttr                    0x00005721   Thumb Code   114  gattservapp.o(i.GATTServApp_WriteAttr)
    GATTServApp_WriteCharCfg                 0x00005799   Thumb Code    40  gattservapp.o(i.GATTServApp_WriteCharCfg)
    GATT_AppCompletedMsg                     0x000057c5   Thumb Code    42  gatt.o(i.GATT_AppCompletedMsg)
    GATT_FindHandle                          0x000057f1   Thumb Code    68  gattservapp.o(i.GATT_FindHandle)
    GATT_FindHandleUUID                      0x00005839   Thumb Code   112  gattservapp.o(i.GATT_FindHandleUUID)
    GATT_FindNextAttr                        0x000058ad   Thumb Code   132  gattservapp.o(i.GATT_FindNextAttr)
    GATT_Indication                          0x00005941   Thumb Code    98  gattservapp.o(i.GATT_Indication)
    GATT_Init                                0x000059a9   Thumb Code    38  gatt.o(i.GATT_Init)
    GATT_InitServer                          0x000059d5   Thumb Code    60  gattservapp.o(i.GATT_InitServer)
    GATT_Notification                        0x00005a25   Thumb Code    84  gattservapp.o(i.GATT_Notification)
    GATT_NotifyEvent                         0x00005a7d   Thumb Code    50  gatt.o(i.GATT_NotifyEvent)
    GATT_ProcessEvent                        0x00005ab5   Thumb Code   240  gatt.o(i.GATT_ProcessEvent)
    GATT_RegisterForPeriMsgs                 0x00005ba9   Thumb Code     6  gatt.o(i.GATT_RegisterForPeriMsgs)
    GATT_RegisterService                     0x00005bb5   Thumb Code   166  gattservapp.o(i.GATT_RegisterService)
    GATT_ServiceChangedInd                   0x00005c6d   Thumb Code   112  gatt.o(i.GATT_ServiceChangedInd)
    GATT_ServiceEncKeySize                   0x00005ce5   Thumb Code    18  gattservapp.o(i.GATT_ServiceEncKeySize)
    GATT_ServiceNumAttrs                     0x00005cf7   Thumb Code    14  gattservapp.o(i.GATT_ServiceNumAttrs)
    GATT_UpdateMTU                           0x00005d05   Thumb Code    72  gatt.o(i.GATT_UpdateMTU)
    GATT_VerifyPrepareWritePermissions       0x00005d51   Thumb Code    82  gattservapp.o(i.GATT_VerifyPrepareWritePermissions)
    GATT_VerifyReadPermissions               0x00005da3   Thumb Code    86  gattservapp.o(i.GATT_VerifyReadPermissions)
    GATT_VerifyWritePermissions              0x00005df9   Thumb Code   100  gattservapp.o(i.GATT_VerifyWritePermissions)
    GATT_bm_alloc                            0x00005e5d   Thumb Code   134  gatt.o(i.GATT_bm_alloc)
    GATT_bm_free                             0x00005ee9   Thumb Code    16  gatt.o(i.GATT_bm_free)
    GGS_AddService                           0x00005ef9   Thumb Code    40  gapgattserver.o(i.GGS_AddService)
    GGS_ParamInit                            0x00005f25   Thumb Code   252  gapgattserver.o(i.GGS_ParamInit)
    GGS_SetParameter                         0x0000604d   Thumb Code   138  gapgattserver.o(i.GGS_SetParameter)
    GetTxPower                               0x000060e1   Thumb Code    72  ip.o(i.GetTxPower)
    HCI_AuthenticatedPayloadTimeoutExpiredCback 0x0000612d   Thumb Code     2  ctl_output.o(i.HCI_AuthenticatedPayloadTimeoutExpiredCback)
    HCI_CommandCompleteCback                 0x0000612f   Thumb Code     8  ctl_output.o(i.HCI_CommandCompleteCback)
    HCI_CommandStatusCback                   0x00006137   Thumb Code     8  ctl_output.o(i.HCI_CommandStatusCback)
    HCI_DataBufferOverflowCback              0x0000613f   Thumb Code     8  ctl_output.o(i.HCI_DataBufferOverflowCback)
    HCI_DisconnectCmd                        0x00006147   Thumb Code     8  host_output.o(i.HCI_DisconnectCmd)
    HCI_DisconnectionCompleteCback           0x0000614f   Thumb Code     8  ctl_output.o(i.HCI_DisconnectionCompleteCback)
    HCI_EncryptionChangeCback                0x00006157   Thumb Code     8  ctl_output.o(i.HCI_EncryptionChangeCback)
    HCI_EncryptionKeyRefreshCompleteCback    0x0000615f   Thumb Code     8  ctl_output.o(i.HCI_EncryptionKeyRefreshCompleteCback)
    HCI_HostNumCompletedPktCmd               0x00006167   Thumb Code    10  host_output.o(i.HCI_HostNumCompletedPktCmd)
    HCI_LE_AddDeviceToResolvingList          0x00006171   Thumb Code     8  host_output.o(i.HCI_LE_AddDeviceToResolvingList)
    HCI_LE_AddWhiteListCmd                   0x00006179   Thumb Code     8  host_output.o(i.HCI_LE_AddWhiteListCmd)
    HCI_LE_ClearResolvingList                0x00006181   Thumb Code     8  host_output.o(i.HCI_LE_ClearResolvingList)
    HCI_LE_ClearWhiteListCmd                 0x00006189   Thumb Code     8  host_output.o(i.HCI_LE_ClearWhiteListCmd)
    HCI_LE_ConnUpdateCmd                     0x00006191   Thumb Code    16  host_output.o(i.HCI_LE_ConnUpdateCmd)
    HCI_LE_ConnectionCompleteCback           0x000061a1   Thumb Code    26  ctl_output.o(i.HCI_LE_ConnectionCompleteCback)
    HCI_LE_ConnectionUpdateCompleteCback     0x000061bb   Thumb Code    12  ctl_output.o(i.HCI_LE_ConnectionUpdateCompleteCback)
    HCI_LE_CreateConnCancelCmd               0x000061c7   Thumb Code     8  host_output.o(i.HCI_LE_CreateConnCancelCmd)
    HCI_LE_DataLengthChangeCback             0x000061cf   Thumb Code    12  ctl_output.o(i.HCI_LE_DataLengthChangeCback)
    HCI_LE_EnhancedConnectionCompleteCback   0x000061db   Thumb Code    32  ctl_output.o(i.HCI_LE_EnhancedConnectionCompleteCback)
    HCI_LE_LongTermKeyRequestCback           0x000061fb   Thumb Code     8  ctl_output.o(i.HCI_LE_LongTermKeyRequestCback)
    HCI_LE_LtkReqNegReplyCmd                 0x00006203   Thumb Code     8  host_output.o(i.HCI_LE_LtkReqNegReplyCmd)
    HCI_LE_LtkReqReplyCmd                    0x0000620b   Thumb Code     8  host_output.o(i.HCI_LE_LtkReqReplyCmd)
    HCI_LE_RandCmd                           0x00006213   Thumb Code     8  host_output.o(i.HCI_LE_RandCmd)
    HCI_LE_ReadBufSizeCmd                    0x0000621b   Thumb Code     8  host_output.o(i.HCI_LE_ReadBufSizeCmd)
    HCI_LE_ReadRemoteUsedFeaturesCompleteCback 0x00006223   Thumb Code     8  ctl_output.o(i.HCI_LE_ReadRemoteUsedFeaturesCompleteCback)
    HCI_LE_RemoteConnParamReqNegReplyCmd     0x0000622b   Thumb Code     8  host_output.o(i.HCI_LE_RemoteConnParamReqNegReplyCmd)
    HCI_LE_RemoteConnParamReqReplyCmd        0x00006233   Thumb Code    16  host_output.o(i.HCI_LE_RemoteConnParamReqReplyCmd)
    HCI_LE_RemoteConnectionParameterRequestCback 0x00006243   Thumb Code    12  ctl_output.o(i.HCI_LE_RemoteConnectionParameterRequestCback)
    HCI_LE_SetAddressResolvableEnableCmd     0x0000624f   Thumb Code     8  host_output.o(i.HCI_LE_SetAddressResolvableEnableCmd)
    HCI_LE_SetAdvDataCmd                     0x00006257   Thumb Code     8  host_output.o(i.HCI_LE_SetAdvDataCmd)
    HCI_LE_SetAdvEnableCmd                   0x0000625f   Thumb Code     8  host_output.o(i.HCI_LE_SetAdvEnableCmd)
    HCI_LE_SetAdvParamCmd                    0x00006267   Thumb Code    22  host_output.o(i.HCI_LE_SetAdvParamCmd)
    HCI_LE_SetRandomAddressCmd               0x0000627d   Thumb Code     8  host_output.o(i.HCI_LE_SetRandomAddressCmd)
    HCI_LE_SetResolvableAddressTimeoutCmd    0x00006285   Thumb Code     8  host_output.o(i.HCI_LE_SetResolvableAddressTimeoutCmd)
    HCI_LE_SetScanEnableCmd                  0x0000628d   Thumb Code     8  host_output.o(i.HCI_LE_SetScanEnableCmd)
    HCI_LE_SetScanRspDataCmd                 0x00006295   Thumb Code     8  host_output.o(i.HCI_LE_SetScanRspDataCmd)
    HCI_LE_StartEncyptCmd                    0x0000629d   Thumb Code    16  host_output.o(i.HCI_LE_StartEncyptCmd)
    HCI_MB_DisconnectCmd                     0x000062ad   Thumb Code     8  host_output.o(i.HCI_MB_DisconnectCmd)
    HCI_NumberOfCompletedPacketsCback        0x000062b5   Thumb Code     8  ctl_output.o(i.HCI_NumberOfCompletedPacketsCback)
    HCI_ReadBDADDRCmd                        0x000062bd   Thumb Code     8  host_output.o(i.HCI_ReadBDADDRCmd)
    HCI_ReadRemoteVersionInfoCback           0x000062c5   Thumb Code    12  ctl_output.o(i.HCI_ReadRemoteVersionInfoCback)
    HCI_ReadRssiCmd                          0x000062d1   Thumb Code     8  host_output.o(i.HCI_ReadRssiCmd)
    HCI_RemoteConnectionParameterRequestCback 0x000062d9   Thumb Code    12  ctl_output.o(i.HCI_RemoteConnectionParameterRequestCback)
    HCI_RxDataCompleteCback                  0x000062e5   Thumb Code     8  ctl_output.o(i.HCI_RxDataCompleteCback)
    HCI_SendDataPkt                          0x000062ed   Thumb Code     8  host_output.o(i.HCI_SendDataPkt)
    HCI_ValidConnTimeParams                  0x000062f5   Thumb Code    54  host_output.o(i.HCI_ValidConnTimeParams)
    HOST_CommandCompleteEvent                0x00006331   Thumb Code    58  host_input.o(i.HOST_CommandCompleteEvent)
    HOST_CommandStatusEvent                  0x00006371   Thumb Code    42  host_input.o(i.HOST_CommandStatusEvent)
    HOST_DataBufferOverflowEvent             0x000063a1   Thumb Code    34  host_input.o(i.HOST_DataBufferOverflowEvent)
    HOST_DisconnectionCompleteEvent          0x000063c9   Thumb Code    42  host_input.o(i.HOST_DisconnectionCompleteEvent)
    HOST_EncryptionChangeEvent               0x000063f9   Thumb Code    46  host_input.o(i.HOST_EncryptionChangeEvent)
    HOST_EncryptionKeyRefreshCompleteEvent   0x0000642d   Thumb Code    38  host_input.o(i.HOST_EncryptionKeyRefreshCompleteEvent)
    HOST_LE_ConnectionCompleteEvent          0x00006459   Thumb Code   120  host_input.o(i.HOST_LE_ConnectionCompleteEvent)
    HOST_LE_ConnectionUpdateCompleteEvent    0x000064d9   Thumb Code    54  host_input.o(i.HOST_LE_ConnectionUpdateCompleteEvent)
    HOST_LE_DataLengthChangeEvent            0x00006515   Thumb Code    54  host_input.o(i.HOST_LE_DataLengthChangeEvent)
    HOST_LE_EnhancedConnectionCompleteEvent  0x00006551   Thumb Code   170  host_input.o(i.HOST_LE_EnhancedConnectionCompleteEvent)
    HOST_LE_LongTermKeyRequestEvent          0x00006605   Thumb Code    56  host_input.o(i.HOST_LE_LongTermKeyRequestEvent)
    HOST_LE_ReadRemoteUsedFeaturesCompleteEvent 0x00006641   Thumb Code    56  host_input.o(i.HOST_LE_ReadRemoteUsedFeaturesCompleteEvent)
    HOST_LE_RemoteConnectionParameterRequestEvent 0x0000667d   Thumb Code    54  host_input.o(i.HOST_LE_RemoteConnectionParameterRequestEvent)
    HOST_NumberOfCompletedPacketsEvent       0x000066b9   Thumb Code    42  host_input.o(i.HOST_NumberOfCompletedPacketsEvent)
    HOST_ReadRemoteVersionInfoEvent          0x000066e9   Thumb Code    50  host_input.o(i.HOST_ReadRemoteVersionInfoEvent)
    HOST_RecvDataPackets                     0x00006721   Thumb Code   278  host_input.o(i.HOST_RecvDataPackets)
    HOST_RemoteConnectionParameterRequestEvent 0x00006845   Thumb Code    46  host_input.o(i.HOST_RemoteConnectionParameterRequestEvent)
    L2CAP_CmdReject                          0x00006875   Thumb Code    18  l2cap_sdu.o(i.L2CAP_CmdReject)
    L2CAP_ConnParamUpdateReq                 0x0000688d   Thumb Code    24  l2cap_sdu.o(i.L2CAP_ConnParamUpdateReq)
    L2CAP_ConnParamUpdateRsp                 0x000068a9   Thumb Code    18  l2cap_sdu.o(i.L2CAP_ConnParamUpdateRsp)
    L2CAP_DisconnectReq                      0x000068c1   Thumb Code    32  l2cap_sdu.o(i.L2CAP_DisconnectReq)
    L2CAP_GetMTU                             0x000068e9   Thumb Code     6  l2cap.o(i.L2CAP_GetMTU)
    L2CAP_HostNumCompletedPkts               0x000068f5   Thumb Code    20  l2cap.o(i.L2CAP_HostNumCompletedPkts)
    L2CAP_Init                               0x0000690d   Thumb Code   156  l2cap.o(i.L2CAP_Init)
    L2CAP_ParseConnectReq                    0x000069bd   Thumb Code    62  l2cap.o(i.L2CAP_ParseConnectReq)
    L2CAP_ParseFlowCtrlCredit                0x000069fb   Thumb Code    32  l2cap.o(i.L2CAP_ParseFlowCtrlCredit)
    L2CAP_ParseParamUpdateReq                0x00006a1b   Thumb Code    52  l2cap_input.o(i.L2CAP_ParseParamUpdateReq)
    L2CAP_ProcessEvent                       0x00006a51   Thumb Code   136  l2cap.o(i.L2CAP_ProcessEvent)
    L2CAP_RegisterApp                        0x00006ae1   Thumb Code    38  l2cap.o(i.L2CAP_RegisterApp)
    L2CAP_SendData                           0x00006b0d   Thumb Code   112  l2cap_output.o(i.L2CAP_SendData)
    L2CAP_SetBufSize                         0x00006b89   Thumb Code    12  l2cap.o(i.L2CAP_SetBufSize)
    L2CAP_bm_alloc                           0x00006b99   Thumb Code    26  l2cap.o(i.L2CAP_bm_alloc)
    LLE_DevInit                              0x00006bb9   Thumb Code    44  lle.o(i.LLE_DevInit)
    LL_AddDeviceToResolvingList              0x00006bf1   Thumb Code   138  ctl_input.o(i.LL_AddDeviceToResolvingList)
    LL_AddWhiteListDevice                    0x00006c85   Thumb Code   110  ctl_input.o(i.LL_AddWhiteListDevice)
    LL_AddrGenerateResolvableAddress         0x00006cfd   Thumb Code   126  ll_address.o(i.LL_AddrGenerateResolvableAddress)
    LL_AddrInit                              0x00006d81   Thumb Code   276  ll_address.o(i.LL_AddrInit)
    LL_AdvertiseDirectTimeout                0x00006e9d   Thumb Code    18  ll_advertise.o(i.LL_AdvertiseDirectTimeout)
    LL_AdvertiseEnalbe                       0x00006eb1   Thumb Code    28  ll_advertise.o(i.LL_AdvertiseEnalbe)
    LL_AdvertiseToStandby                    0x00006edd   Thumb Code    46  ll_advertise.o(i.LL_AdvertiseToStandby)
    LL_ClearResolvingList                    0x00006f15   Thumb Code    10  ctl_input.o(i.LL_ClearResolvingList)
    LL_ClearWhiteList                        0x00006f21   Thumb Code    70  ctl_input.o(i.LL_ClearWhiteList)
    LL_ConnUpdate                            0x00006f6d   Thumb Code   250  ctl_input.o(i.LL_ConnUpdate)
    LL_ConnectFlowcontrolRx                  0x0000706d   Thumb Code    34  ll_connect.o(i.LL_ConnectFlowcontrolRx)
    LL_ConnectFlowcontrolTx                  0x0000708f   Thumb Code    34  ll_connect.o(i.LL_ConnectFlowcontrolTx)
    LL_ConnectFreeTmosPrioritID              0x000070b1   Thumb Code   112  ll_connect.o(i.LL_ConnectFreeTmosPrioritID)
    LL_ConnectRxPktnumIncrease               0x00007135   Thumb Code    46  ll_connect.o(i.LL_ConnectRxPktnumIncrease)
    LL_ConnectShut                           0x00007165   Thumb Code   136  ll_connect.o(i.LL_ConnectShut)
    LL_ConnectToStandby                      0x000071f9   Thumb Code   118  ll_connect.o(i.LL_ConnectToStandby)
    LL_ConnectTxPktnumIncrease               0x00007275   Thumb Code    60  ll_connect.o(i.LL_ConnectTxPktnumIncrease)
    LL_ConnectionParamReq                    0x000072b1   Thumb Code   108  ll_pdu.o(i.LL_ConnectionParamReq)
    LL_ConnectionParamRsp                    0x0000731d   Thumb Code    96  ll_pdu.o(i.LL_ConnectionParamRsp)
    LL_CoreClose                             0x0000737d   Thumb Code    92  ll_core.o(i.LL_CoreClose)
    LL_CoreDataListFree                      0x000073dd   Thumb Code    26  ll_core.o(i.LL_CoreDataListFree)
    LL_CoreDataListInit                      0x000073fd   Thumb Code   112  ll_core.o(i.LL_CoreDataListInit)
    LL_CoreGetCore                           0x00007479   Thumb Code    26  ll_core.o(i.LL_CoreGetCore)
    LL_CoreGetDataList                       0x00007499   Thumb Code    44  ll_core.o(i.LL_CoreGetDataList)
    LL_CoreInit                              0x000074d1   Thumb Code    14  ll_core.o(i.LL_CoreInit)
    LL_CoreOpen                              0x000074e5   Thumb Code   156  ll_core.o(i.LL_CoreOpen)
    LL_CreateConnCancel                      0x00007585   Thumb Code    28  ctl_input.o(i.LL_CreateConnCancel)
    LL_Disconnect                            0x000075a5   Thumb Code    48  ctl_input.o(i.LL_Disconnect)
    LL_EncRsp                                0x000075d5   Thumb Code    64  ll_pdu.o(i.LL_EncRsp)
    LL_Encrypt                               0x00007615   Thumb Code   194  aes.o(i.LL_Encrypt)
    LL_FeatureRsp                            0x000076d7   Thumb Code    52  ll_pdu.o(i.LL_FeatureRsp)
