Component: ARM Compiler 5.06 update 7 (build 960) Tool: armlink [4d3601]

==============================================================================

Section Cross References

    startup_armcm0.o(RESET) refers to startup_armcm0.o(.text) for Reset_Handler
    startup_armcm0.o(RESET) refers to ch57x_int.o(.text) for NMI_Handler
    startup_armcm0.o(RESET) refers to mcu.o(.text) for LLE_IRQHandler
    startup_armcm0.o(RESET) refers to rtc.o(.text) for RTC_IRQHandler
    startup_armcm0.o(.text) refers to ch57x_clk.o(.text) for SystemInit
    startup_armcm0.o(.text) refers to entry.o(.ARM.Collect$$$$00000000) for __main
    key.o(.text) refers to tmos.o(i.tmos_start_task) for tmos_start_task
    key.o(.text) refers to key.o(.data) for .data
    key.o(.text) refers to mcu.o(.data) for halTaskID
    led.o(.text) refers to led.o(i.__ARM_common_switch8) for __ARM_common_switch8
    led.o(.text) refers to tmos.o(i.TMOS_GetSystemClock) for TMOS_GetSystemClock
    led.o(.text) refers to tmos.o(i.tmos_start_task) for tmos_start_task
    led.o(.text) refers to uidiv.o(.text) for __aeabi_uidivmod
    led.o(.text) refers to led.o(.data) for .data
    led.o(.text) refers to led.o(.bss) for .bss
    led.o(.text) refers to mcu.o(.data) for halTaskID
    mcu.o(.text) refers to ch57x_clk.o(.text) for Calibration_LSI
    mcu.o(.text) refers to ch57x_adc.o(.text) for ADC_InterTSSampInit
==============================================================================

Removing Unused input sections from the image.

    Removing startup_armcm0.o(STACK), (1024 bytes).
    Removing startup_armcm0.o(HEAP), (1024 bytes).
    Removing key.o(.rev16_text), (4 bytes).
    Removing key.o(.revsh_text), (4 bytes).
    Removing key.o(.text), (144 bytes).
    Removing key.o(.data), (8 bytes).
    Removing led.o(.rev16_text), (4 bytes).
    Removing led.o(.revsh_text), (4 bytes).
    Removing led.o(.text), (580 bytes).
    Removing led.o(.bss), (52 bytes).
    Removing led.o(.data), (2 bytes).
    Removing mcu.o(.rev16_text), (4 bytes).
    Removing mcu.o(.revsh_text), (4 bytes).
    Removing rtc.o(.rev16_text), (4 bytes).
    Removing rtc.o(.revsh_text), (4 bytes).
    Removing sleep.o(.rev16_text), (4 bytes).
    Removing sleep.o(.revsh_text), (4 bytes).
    Removing sleep.o(.text), (6 bytes).
==============================================================================

Image Symbol Table

    Local Symbols

    Symbol Name                              Value     Ov Type        Size  Object(Section)

    RESET                                    0x00000000   Section      144  startup_armcm0.o(RESET)
    ../clib/../cmprslib/zerorunl2.c          0x00000000   Number         0  __dczerorl2.o ABSOLUTE
    ../clib/microlib/division.c              0x00000000   Number         0  uidiv.o ABSOLUTE
    ../clib/microlib/division.c              0x00000000   Number         0  idiv.o ABSOLUTE
    ../clib/microlib/division.c              0x00000000   Number         0  uldiv.o ABSOLUTE
    ../clib/microlib/init/entry.s            0x00000000   Number         0  entry5.o ABSOLUTE
    ../clib/microlib/init/entry.s            0x00000000   Number         0  entry12b.o ABSOLUTE
    ../clib/microlib/init/entry.s            0x00000000   Number         0  entry2.o ABSOLUTE
    ../clib/microlib/init/entry.s            0x00000000   Number         0  entry10a.o ABSOLUTE
    ../clib/microlib/init/entry.s            0x00000000   Number         0  entry7a.o ABSOLUTE
    ../clib/microlib/init/entry.s            0x00000000   Number         0  entry7b.o ABSOLUTE
    ../clib/microlib/init/entry.s            0x00000000   Number         0  entry8a.o ABSOLUTE
    ../clib/microlib/init/entry.s            0x00000000   Number         0  entry8b.o ABSOLUTE
    ../clib/microlib/init/entry.s            0x00000000   Number         0  entry9a.o ABSOLUTE
    ../clib/microlib/init/entry.s            0x00000000   Number         0  entry9b.o ABSOLUTE
    ../clib/microlib/init/entry.s            0x00000000   Number         0  entry10b.o ABSOLUTE
    ../clib/microlib/init/entry.s            0x00000000   Number         0  entry11a.o ABSOLUTE
    ../clib/microlib/init/entry.s            0x00000000   Number         0  entry11b.o ABSOLUTE
    ../clib/microlib/init/entry.s            0x00000000   Number         0  entry12a.o ABSOLUTE
    ../clib/microlib/init/entry.s            0x00000000   Number         0  entry.o ABSOLUTE
    ../clib/microlib/longlong.c              0x00000000   Number         0  llsshr.o ABSOLUTE
    ../clib/microlib/longlong.c              0x00000000   Number         0  llshl.o ABSOLUTE
    ../clib/microlib/longlong.c              0x00000000   Number         0  llmul.o ABSOLUTE
    ../clib/microlib/longlong.c              0x00000000   Number         0  llushr.o ABSOLUTE
    ../clib/microlib/printf/printf.c         0x00000000   Number         0  printfa.o ABSOLUTE
    ../clib/microlib/printf/printf.c         0x00000000   Number         0  printf0.o ABSOLUTE
    ../clib/microlib/printf/printf.c         0x00000000   Number         0  printf1.o ABSOLUTE
    ../clib/microlib/printf/printf.c         0x00000000   Number         0  printf3.o ABSOLUTE
    ../clib/microlib/printf/printf.c         0x00000000   Number         0  printf4.o ABSOLUTE
    ../clib/microlib/printf/printf.c         0x00000000   Number         0  printf5.o ABSOLUTE
    ../clib/microlib/printf/printf.c         0x00000000   Number         0  printf6.o ABSOLUTE
    ../clib/microlib/printf/printf.c         0x00000000   Number         0  printf7.o ABSOLUTE
    ../clib/microlib/printf/printf.c         0x00000000   Number         0  printf2.o ABSOLUTE
    ../clib/microlib/printf/printf.c         0x00000000   Number         0  printf8.o ABSOLUTE
    ../clib/microlib/printf/printf.c         0x00000000   Number         0  printfb.o ABSOLUTE
    ../clib/microlib/printf/stubs.s          0x00000000   Number         0  stubs.o ABSOLUTE
    ../clib/microlib/stdio/streams.c         0x00000000   Number         0  stdout.o ABSOLUTE
    ../clib/microlib/string/memcpy.c         0x00000000   Number         0  memcpya.o ABSOLUTE
    ../clib/microlib/string/memcpy.c         0x00000000   Number         0  memcpyb.o ABSOLUTE
    ../clib/microlib/stubs.s                 0x00000000   Number         0  iusefp.o ABSOLUTE
    ../clib/microlib/unhosted.c              0x00000000   Number         0  uread4.o ABSOLUTE
    ../clib/microlib/unhosted.c              0x00000000   Number         0  uwrite4.o ABSOLUTE
    ../fplib/microlib/fpadd.c                0x00000000   Number         0  dadd.o ABSOLUTE
    ../fplib/microlib/fpdiv.c                0x00000000   Number         0  ddiv.o ABSOLUTE
    ../fplib/microlib/fpepilogue.c           0x00000000   Number         0  depilogue.o ABSOLUTE
    ../fplib/microlib/fpfix.c                0x00000000   Number         0  dfixul.o ABSOLUTE
    ../fplib/microlib/fpmul.c                0x00000000   Number         0  dmul.o ABSOLUTE
    ..\..\Role\broadcaster.c                 0x00000000   Number         0  broadcaster.o ABSOLUTE
    ..\..\Role\central.c                     0x00000000   Number         0  central.o ABSOLUTE
    ..\..\Role\gapbondmgr.c                  0x00000000   Number         0  gapbondmgr.o ABSOLUTE
    ..\..\Role\observer.c                    0x00000000   Number         0  observer.o ABSOLUTE
    ..\..\Role\peripheral.c                  0x00000000   Number         0  peripheral.o ABSOLUTE
    ..\..\Role\role.c                        0x00000000   Number         0  role.o ABSOLUTE
    ..\..\control\Inter_c\ctl_input.c        0x00000000   Number         0  ctl_input.o ABSOLUTE
    ..\..\control\Inter_c\ctl_output.c       0x00000000   Number         0  ctl_output.o ABSOLUTE
    ..\..\control\api_c\api_c.c              0x00000000   Number         0  api_c.o ABSOLUTE
    ..\..\control\ip_core\aes.c              0x00000000   Number         0  aes.o ABSOLUTE
    ..\..\control\ip_core\bb.c               0x00000000   Number         0  bb.o ABSOLUTE
    ..\..\control\ip_core\dma.c              0x00000000   Number         0  dma.o ABSOLUTE
    ..\..\control\ip_core\ip.c               0x00000000   Number         0  ip.o ABSOLUTE
    ..\..\control\ip_core\lle.c              0x00000000   Number         0  lle.o ABSOLUTE
    ..\..\control\ip_core\rf_fh.c            0x00000000   Number         0  rf_fh.o ABSOLUTE
    ..\..\control\ip_core\rfend.c            0x00000000   Number         0  rfend.o ABSOLUTE
    ..\..\control\ll\ll.c                    0x00000000   Number         0  ll.o ABSOLUTE
    ..\..\control\ll\ll_address.c            0x00000000   Number         0  ll_address.o ABSOLUTE
    ..\..\control\ll\ll_advertise.c          0x00000000   Number         0  ll_advertise.o ABSOLUTE
    ..\..\control\ll\ll_connect.c            0x00000000   Number         0  ll_connect.o ABSOLUTE
    ..\..\control\ll\ll_core.c               0x00000000   Number         0  ll_core.o ABSOLUTE
    ..\..\control\ll\ll_hop.c                0x00000000   Number         0  ll_hop.o ABSOLUTE
    ..\..\control\ll\ll_initiate.c           0x00000000   Number         0  ll_initiate.o ABSOLUTE
    ..\..\control\ll\ll_master.c             0x00000000   Number         0  ll_master.o ABSOLUTE
    ..\..\control\ll\ll_pdu.c                0x00000000   Number         0  ll_pdu.o ABSOLUTE
    ..\..\control\ll\ll_report.c             0x00000000   Number         0  ll_report.o ABSOLUTE
    ..\..\control\ll\ll_resolvinglist.c      0x00000000   Number         0  ll_resolvinglist.o ABSOLUTE
    ..\..\control\ll\ll_scan.c               0x00000000   Number         0  ll_scan.o ABSOLUTE
    ..\..\control\ll\ll_slave.c              0x00000000   Number         0  ll_slave.o ABSOLUTE
    ..\..\control\ll\ll_whitelist.c          0x00000000   Number         0  ll_whitelist.o ABSOLUTE
    ..\..\host\Inter_h\host_input.c          0x00000000   Number         0  host_input.o ABSOLUTE
    ..\..\host\Inter_h\host_output.c         0x00000000   Number         0  host_output.o ABSOLUTE
    ..\..\host\core_h\att.c                  0x00000000   Number         0  att.o ABSOLUTE
    ..\..\host\core_h\att_client.c           0x00000000   Number         0  att_client.o ABSOLUTE
    ..\..\host\core_h\att_server.c           0x00000000   Number         0  att_server.o ABSOLUTE
    ..\..\host\core_h\gap.c                  0x00000000   Number         0  gap.o ABSOLUTE
    ..\..\host\core_h\gap_central.c          0x00000000   Number         0  gap_central.o ABSOLUTE
    ..\..\host\core_h\gap_peripheral.c       0x00000000   Number         0  gap_peripheral.o ABSOLUTE
    ..\..\host\core_h\gapgattserver.c        0x00000000   Number         0  gapgattserver.o ABSOLUTE
    ..\..\host\core_h\gatt.c                 0x00000000   Number         0  gatt.o ABSOLUTE
    ..\..\host\core_h\gatt_uuid.c            0x00000000   Number         0  gatt_uuid.o ABSOLUTE
    ..\..\host\core_h\gattclientapp.c        0x00000000   Number         0  gattclientapp.o ABSOLUTE
    ..\..\host\core_h\gattservapp.c          0x00000000   Number         0  gattservapp.o ABSOLUTE
    ..\..\host\core_h\l2cap.c                0x00000000   Number         0  l2cap.o ABSOLUTE
    ..\..\host\core_h\l2cap_input.c          0x00000000   Number         0  l2cap_input.o ABSOLUTE
    ..\..\host\core_h\l2cap_output.c         0x00000000   Number         0  l2cap_output.o ABSOLUTE
    ..\..\host\core_h\l2cap_sdu.c            0x00000000   Number         0  l2cap_sdu.o ABSOLUTE
    ..\..\host\core_h\linkdb.c               0x00000000   Number         0  linkdb.o ABSOLUTE
    ..\..\host\core_h\sm.c                   0x00000000   Number         0  sm.o ABSOLUTE
    ..\..\tmos\memory.c                      0x00000000   Number         0  memory.o ABSOLUTE
    ..\..\tmos\message.c                     0x00000000   Number         0  message.o ABSOLUTE
    ..\..\tmos\tmos.c                        0x00000000   Number         0  tmos.o ABSOLUTE
    ..\..\tmos\tmos_hw.c                     0x00000000   Number         0  tmos_hw.o ABSOLUTE
    ..\..\tmos\tmos_snv.c                    0x00000000   Number         0  tmos_snv.o ABSOLUTE
    ..\\..\\Role\\broadcaster.c              0x00000000   Number         0  broadcaster.o ABSOLUTE
    ..\\..\\Role\\central.c                  0x00000000   Number         0  central.o ABSOLUTE
    ..\\..\\Role\\gapbondmgr.c               0x00000000   Number         0  gapbondmgr.o ABSOLUTE
    ..\\..\\Role\\observer.c                 0x00000000   Number         0  observer.o ABSOLUTE
    ..\\..\\Role\\peripheral.c               0x00000000   Number         0  peripheral.o ABSOLUTE
    ..\\..\\Role\\role.c                     0x00000000   Number         0  role.o ABSOLUTE
    ..\\..\\control\\Inter_c\\ctl_input.c    0x00000000   Number         0  ctl_input.o ABSOLUTE
    ..\\..\\control\\Inter_c\\ctl_output.c   0x00000000   Number         0  ctl_output.o ABSOLUTE
    ..\\..\\control\\api_c\\api_c.c          0x00000000   Number         0  api_c.o ABSOLUTE
    ..\\..\\control\\ip_core\\aes.c          0x00000000   Number         0  aes.o ABSOLUTE
    ..\\..\\control\\ip_core\\bb.c           0x00000000   Number         0  bb.o ABSOLUTE
    ..\\..\\control\\ip_core\\dma.c          0x00000000   Number         0  dma.o ABSOLUTE
    ..\\..\\control\\ip_core\\ip.c           0x00000000   Number         0  ip.o ABSOLUTE
    ..\\..\\control\\ip_core\\lle.c          0x00000000   Number         0  lle.o ABSOLUTE
    ..\\..\\control\\ip_core\\rf_fh.c        0x00000000   Number         0  rf_fh.o ABSOLUTE
    ..\\..\\control\\ip_core\\rfend.c        0x00000000   Number         0  rfend.o ABSOLUTE
    ..\\..\\control\\ll\\ll.c                0x00000000   Number         0  ll.o ABSOLUTE
    ..\\..\\control\\ll\\ll_address.c        0x00000000   Number         0  ll_address.o ABSOLUTE
    ..\\..\\control\\ll\\ll_advertise.c      0x00000000   Number         0  ll_advertise.o ABSOLUTE
    ..\\..\\control\\ll\\ll_connect.c        0x00000000   Number         0  ll_connect.o ABSOLUTE
    ..\\..\\control\\ll\\ll_core.c           0x00000000   Number         0  ll_core.o ABSOLUTE
    ..\\..\\control\\ll\\ll_hop.c            0x00000000   Number         0  ll_hop.o ABSOLUTE
    ..\\..\\control\\ll\\ll_initiate.c       0x00000000   Number         0  ll_initiate.o ABSOLUTE
    ..\\..\\control\\ll\\ll_master.c         0x00000000   Number         0  ll_master.o ABSOLUTE
    ..\\..\\control\\ll\\ll_pdu.c            0x00000000   Number         0  ll_pdu.o ABSOLUTE
    ..\\..\\control\\ll\\ll_report.c         0x00000000   Number         0  ll_report.o ABSOLUTE
    ..\\..\\control\\ll\\ll_resolvinglist.c  0x00000000   Number         0  ll_resolvinglist.o ABSOLUTE
    ..\\..\\control\\ll\\ll_scan.c           0x00000000   Number         0  ll_scan.o ABSOLUTE
    ..\\..\\control\\ll\\ll_slave.c          0x00000000   Number         0  ll_slave.o ABSOLUTE
    ..\\..\\control\\ll\\ll_whitelist.c      0x00000000   Number         0  ll_whitelist.o ABSOLUTE
    ..\\..\\host\\Inter_h\\host_input.c      0x00000000   Number         0  host_input.o ABSOLUTE
    ..\\..\\host\\Inter_h\\host_output.c     0x00000000   Number         0  host_output.o ABSOLUTE
    ..\\..\\host\\core_h\\att.c              0x00000000   Number         0  att.o ABSOLUTE
    ..\\..\\host\\core_h\\att_client.c       0x00000000   Number         0  att_client.o ABSOLUTE
    ..\\..\\host\\core_h\\att_server.c       0x00000000   Number         0  att_server.o ABSOLUTE
    ..\\..\\host\\core_h\\gap.c              0x00000000   Number         0  gap.o ABSOLUTE
    ..\\..\\host\\core_h\\gap_central.c      0x00000000   Number         0  gap_central.o ABSOLUTE
    ..\\..\\host\\core_h\\gap_peripheral.c   0x00000000   Number         0  gap_peripheral.o ABSOLUTE
    ..\\..\\host\\core_h\\gapgattserver.c    0x00000000   Number         0  gapgattserver.o ABSOLUTE
    ..\\..\\host\\core_h\\gatt.c             0x00000000   Number         0  gatt.o ABSOLUTE
    ..\\..\\host\\core_h\\gatt_uuid.c        0x00000000   Number         0  gatt_uuid.o ABSOLUTE
    ..\\..\\host\\core_h\\gattclientapp.c    0x00000000   Number         0  gattclientapp.o ABSOLUTE
    ..\\..\\host\\core_h\\gattservapp.c      0x00000000   Number         0  gattservapp.o ABSOLUTE
    ..\\..\\host\\core_h\\l2cap.c            0x00000000   Number         0  l2cap.o ABSOLUTE
    ..\\..\\host\\core_h\\l2cap_input.c      0x00000000   Number         0  l2cap_input.o ABSOLUTE
    ..\\..\\host\\core_h\\l2cap_output.c     0x00000000   Number         0  l2cap_output.o ABSOLUTE
    ..\\..\\host\\core_h\\l2cap_sdu.c        0x00000000   Number         0  l2cap_sdu.o ABSOLUTE
    ..\\..\\host\\core_h\\linkdb.c           0x00000000   Number         0  linkdb.o ABSOLUTE
    ..\\..\\host\\core_h\\sm.c               0x00000000   Number         0  sm.o ABSOLUTE
    ..\\..\\tmos\\memory.c                   0x00000000   Number         0  memory.o ABSOLUTE
    ..\\..\\tmos\\message.c                  0x00000000   Number         0  message.o ABSOLUTE
    ..\\..\\tmos\\tmos.c                     0x00000000   Number         0  tmos.o ABSOLUTE
    ..\\..\\tmos\\tmos_hw.c                  0x00000000   Number         0  tmos_hw.o ABSOLUTE
    ..\\..\\tmos\\tmos_snv.c                 0x00000000   Number         0  tmos_snv.o ABSOLUTE
    Core\Startup\startup_ARMCM0.s            0x00000000   Number         0  startup_armcm0.o ABSOLUTE
    Drivers\BLE\HAL\KEY.c                    0x00000000   Number         0  key.o ABSOLUTE
    Drivers\BLE\HAL\LED.c                    0x00000000   Number         0  led.o ABSOLUTE
    Drivers\BLE\HAL\MCU.c                    0x00000000   Number         0  mcu.o ABSOLUTE
    Drivers\BLE\HAL\RTC.c                    0x00000000   Number         0  rtc.o ABSOLUTE
    Drivers\BLE\HAL\SLEEP.c                  0x00000000   Number         0  sleep.o ABSOLUTE
    Drivers\LWNS\lwns.c                      0x00000000   Number         0  lwns.o ABSOLUTE
    Drivers\LWNS\lwns_addr.c                 0x00000000   Number         0  lwns_addr.o ABSOLUTE
    Drivers\LWNS\lwns_broadcast.c            0x00000000   Number         0  lwns_broadcast.o ABSOLUTE
    Drivers\LWNS\lwns_buffer.c               0x00000000   Number         0  lwns_buffer.o ABSOLUTE
    Drivers\LWNS\lwns_htimer.c               0x00000000   Number         0  lwns_htimer.o ABSOLUTE
    Drivers\LWNS\lwns_list.c                 0x00000000   Number         0  lwns_list.o ABSOLUTE
    Drivers\LWNS\lwns_memp.c                 0x00000000   Number         0  lwns_memp.o ABSOLUTE
    Drivers\LWNS\lwns_mesh.c                 0x00000000   Number         0  lwns_mesh.o ABSOLUTE
    Drivers\LWNS\lwns_multicast.c            0x00000000   Number         0  lwns_multicast.o ABSOLUTE
    Drivers\LWNS\lwns_multinetflood.c        0x00000000   Number         0  lwns_multinetflood.o ABSOLUTE
    Drivers\LWNS\lwns_neighbor.c             0x00000000   Number         0  lwns_neighbor.o ABSOLUTE
    Drivers\LWNS\lwns_netflood.c             0x00000000   Number         0  lwns_netflood.o ABSOLUTE
    Drivers\LWNS\lwns_packetassembly.c       0x00000000   Number         0  lwns_packetassembly.o ABSOLUTE
    Drivers\LWNS\lwns_port.c                 0x00000000   Number         0  lwns_port.o ABSOLUTE
    Drivers\LWNS\lwns_rgossip.c              0x00000000   Number         0  lwns_rgossip.o ABSOLUTE
    Drivers\LWNS\lwns_route.c                0x00000000   Number         0  lwns_route.o ABSOLUTE
    Drivers\LWNS\lwns_ruc.c                  0x00000000   Number         0  lwns_ruc.o ABSOLUTE
    Drivers\LWNS\lwns_rucft.c                0x00000000   Number         0  lwns_rucft.o ABSOLUTE
    Drivers\LWNS\lwns_unicast.c              0x00000000   Number         0  lwns_unicast.o ABSOLUTE
    Drivers\LWNS\lwns_uninetflood.c          0x00000000   Number         0  lwns_uninetflood.o ABSOLUTE
    Drivers\StdPeriphDriver\CH57x_adc.c      0x00000000   Number         0  ch57x_adc.o ABSOLUTE
    Drivers\StdPeriphDriver\CH57x_clk.c      0x00000000   Number         0  ch57x_clk.o ABSOLUTE
    Drivers\StdPeriphDriver\CH57x_flash.c    0x00000000   Number         0  ch57x_flash.o ABSOLUTE
    Drivers\StdPeriphDriver\CH57x_gpio.c     0x00000000   Number         0  ch57x_gpio.o ABSOLUTE
    Drivers\StdPeriphDriver\CH57x_int.c      0x00000000   Number         0  ch57x_int.o ABSOLUTE
    Drivers\StdPeriphDriver\CH57x_lcd.c      0x00000000   Number         0  ch57x_lcd.o ABSOLUTE
    Drivers\StdPeriphDriver\CH57x_pwm.c      0x00000000   Number         0  ch57x_pwm.o ABSOLUTE
    Drivers\StdPeriphDriver\CH57x_pwr.c      0x00000000   Number         0  ch57x_pwr.o ABSOLUTE
    Drivers\StdPeriphDriver\CH57x_spi0.c     0x00000000   Number         0  ch57x_spi0.o ABSOLUTE
    Drivers\StdPeriphDriver\CH57x_spi1.c     0x00000000   Number         0  ch57x_spi1.o ABSOLUTE
    Drivers\StdPeriphDriver\CH57x_sys.c      0x00000000   Number         0  ch57x_sys.o ABSOLUTE
    Drivers\StdPeriphDriver\CH57x_timer0.c   0x00000000   Number         0  ch57x_timer0.o ABSOLUTE
    Drivers\StdPeriphDriver\CH57x_timer1.c   0x00000000   Number         0  ch57x_timer1.o ABSOLUTE
    Drivers\StdPeriphDriver\CH57x_timer2.c   0x00000000   Number         0  ch57x_timer2.o ABSOLUTE
    Drivers\StdPeriphDriver\CH57x_timer3.c   0x00000000   Number         0  ch57x_timer3.o ABSOLUTE
    Drivers\StdPeriphDriver\CH57x_uart0.c    0x00000000   Number         0  ch57x_uart0.o ABSOLUTE
    Drivers\StdPeriphDriver\CH57x_uart1.c    0x00000000   Number         0  ch57x_uart1.o ABSOLUTE
    Drivers\StdPeriphDriver\CH57x_uart2.c    0x00000000   Number         0  ch57x_uart2.o ABSOLUTE
    Drivers\StdPeriphDriver\CH57x_uart3.c    0x00000000   Number         0  ch57x_uart3.o ABSOLUTE
    Drivers\StdPeriphDriver\CH57x_usbdev.c   0x00000000   Number         0  ch57x_usbdev.o ABSOLUTE
    Drivers\\BLE\\HAL\\KEY.c                 0x00000000   Number         0  key.o ABSOLUTE
    Drivers\\BLE\\HAL\\LED.c                 0x00000000   Number         0  led.o ABSOLUTE
    Drivers\\BLE\\HAL\\MCU.c                 0x00000000   Number         0  mcu.o ABSOLUTE
    Drivers\\BLE\\HAL\\RTC.c                 0x00000000   Number         0  rtc.o ABSOLUTE
    Drivers\\BLE\\HAL\\SLEEP.c               0x00000000   Number         0  sleep.o ABSOLUTE
    Drivers\\StdPeriphDriver\\CH57x_adc.c    0x00000000   Number         0  ch57x_adc.o ABSOLUTE
    Drivers\\StdPeriphDriver\\CH57x_clk.c    0x00000000   Number         0  ch57x_clk.o ABSOLUTE
    Drivers\\StdPeriphDriver\\CH57x_flash.c  0x00000000   Number         0  ch57x_flash.o ABSOLUTE
    Drivers\\StdPeriphDriver\\CH57x_gpio.c   0x00000000   Number         0  ch57x_gpio.o ABSOLUTE
    Drivers\\StdPeriphDriver\\CH57x_int.c    0x00000000   Number         0  ch57x_int.o ABSOLUTE
    Drivers\\StdPeriphDriver\\CH57x_lcd.c    0x00000000   Number         0  ch57x_lcd.o ABSOLUTE
    Drivers\\StdPeriphDriver\\CH57x_pwm.c    0x00000000   Number         0  ch57x_pwm.o ABSOLUTE
    Drivers\\StdPeriphDriver\\CH57x_pwr.c    0x00000000   Number         0  ch57x_pwr.o ABSOLUTE
    Drivers\\StdPeriphDriver\\CH57x_spi0.c   0x00000000   Number         0  ch57x_spi0.o ABSOLUTE
    Drivers\\StdPeriphDriver\\CH57x_spi1.c   0x00000000   Number         0  ch57x_spi1.o ABSOLUTE
    Drivers\\StdPeriphDriver\\CH57x_sys.c    0x00000000   Number         0  ch57x_sys.o ABSOLUTE
    Drivers\\StdPeriphDriver\\CH57x_timer0.c 0x00000000   Number         0  ch57x_timer0.o ABSOLUTE
    Drivers\\StdPeriphDriver\\CH57x_timer1.c 0x00000000   Number         0  ch57x_timer1.o ABSOLUTE
    Drivers\\StdPeriphDriver\\CH57x_timer2.c 0x00000000   Number         0  ch57x_timer2.o ABSOLUTE
    Drivers\\StdPeriphDriver\\CH57x_timer3.c 0x00000000   Number         0  ch57x_timer3.o ABSOLUTE
    Drivers\\StdPeriphDriver\\CH57x_uart0.c  0x00000000   Number         0  ch57x_uart0.o ABSOLUTE
    Drivers\\StdPeriphDriver\\CH57x_uart1.c  0x00000000   Number         0  ch57x_uart1.o ABSOLUTE
    Drivers\\StdPeriphDriver\\CH57x_uart2.c  0x00000000   Number         0  ch57x_uart2.o ABSOLUTE
    Drivers\\StdPeriphDriver\\CH57x_uart3.c  0x00000000   Number         0  ch57x_uart3.o ABSOLUTE
    Drivers\\StdPeriphDriver\\CH57x_usbdev.c 0x00000000   Number         0  ch57x_usbdev.o ABSOLUTE
    Src\APP\app_main.c                       0x00000000   Number         0  app_main.o ABSOLUTE
    Src\APP\lwns_adapter_blemesh_mac.c       0x00000000   Number         0  lwns_adapter_blemesh_mac.o ABSOLUTE
    Src\APP\lwns_adapter_csma_mac.c          0x00000000   Number         0  lwns_adapter_csma_mac.o ABSOLUTE
    Src\APP\lwns_adapter_no_mac.c            0x00000000   Number         0  lwns_adapter_no_mac.o ABSOLUTE
    Src\APP\lwns_broadcast_example.c         0x00000000   Number         0  lwns_broadcast_example.o ABSOLUTE
    Src\APP\lwns_mesh_example.c              0x00000000   Number         0  lwns_mesh_example.o ABSOLUTE
    Src\APP\lwns_multicast_example.c         0x00000000   Number         0  lwns_multicast_example.o ABSOLUTE
    Src\APP\lwns_multinetflood_example.c     0x00000000   Number         0  lwns_multinetflood_example.o ABSOLUTE
    Src\APP\lwns_netflood_example.c          0x00000000   Number         0  lwns_netflood_example.o ABSOLUTE
    Src\APP\lwns_ruc_example.c               0x00000000   Number         0  lwns_ruc_example.o ABSOLUTE
    Src\APP\lwns_rucft_example.c             0x00000000   Number         0  lwns_rucft_example.o ABSOLUTE
    Src\APP\lwns_sec.c                       0x00000000   Number         0  lwns_sec.o ABSOLUTE
    Src\APP\lwns_unicast_example.c           0x00000000   Number         0  lwns_unicast_example.o ABSOLUTE
    Src\APP\lwns_uninetflood_example.c       0x00000000   Number         0  lwns_uninetflood_example.o ABSOLUTE
    Src\\APP\\app_main.c                     0x00000000   Number         0  app_main.o ABSOLUTE
    Src\\APP\\lwns_adapter_blemesh_mac.c     0x00000000   Number         0  lwns_adapter_blemesh_mac.o ABSOLUTE
    Src\\APP\\lwns_adapter_csma_mac.c        0x00000000   Number         0  lwns_adapter_csma_mac.o ABSOLUTE
    Src\\APP\\lwns_adapter_no_mac.c          0x00000000   Number         0  lwns_adapter_no_mac.o ABSOLUTE
    Src\\APP\\lwns_broadcast_example.c       0x00000000   Number         0  lwns_broadcast_example.o ABSOLUTE
    Src\\APP\\lwns_mesh_example.c            0x00000000   Number         0  lwns_mesh_example.o ABSOLUTE
    Src\\APP\\lwns_multicast_example.c       0x00000000   Number         0  lwns_multicast_example.o ABSOLUTE
    Src\\APP\\lwns_multinetflood_example.c   0x00000000   Number         0  lwns_multinetflood_example.o ABSOLUTE
    Src\\APP\\lwns_netflood_example.c        0x00000000   Number         0  lwns_netflood_example.o ABSOLUTE
    Src\\APP\\lwns_ruc_example.c             0x00000000   Number         0  lwns_ruc_example.o ABSOLUTE
    Src\\APP\\lwns_rucft_example.c           0x00000000   Number         0  lwns_rucft_example.o ABSOLUTE
    Src\\APP\\lwns_sec.c                     0x00000000   Number         0  lwns_sec.o ABSOLUTE
    Src\\APP\\lwns_unicast_example.c         0x00000000   Number         0  lwns_unicast_example.o ABSOLUTE
    Src\\APP\\lwns_uninetflood_example.c     0x00000000   Number         0  lwns_uninetflood_example.o ABSOLUTE
    cdrcmple.s                               0x00000000   Number         0  cdrcmple.o ABSOLUTE
    dc.s                                     0x00000000   Number         0  dc.o ABSOLUTE
    handlers.s                               0x00000000   Number         0  handlers.o ABSOLUTE
    init.s                                   0x00000000   Number         0  init.o ABSOLUTE
    .ARM.Collect$$$$00000000                 0x00000090   Section        0  entry.o(.ARM.Collect$$$$00000000)
    .ARM.Collect$$$$00000001                 0x00000090   Section        4  entry2.o(.ARM.Collect$$$$00000001)
    .ARM.Collect$$$$00000004                 0x00000094   Section        4  entry5.o(.ARM.Collect$$$$00000004)
    .ARM.Collect$$$$00000008                 0x00000098   Section        0  entry7b.o(.ARM.Collect$$$$00000008)
    .ARM.Collect$$$$0000000A                 0x00000098   Section        0  entry8b.o(.ARM.Collect$$$$0000000A)
    .ARM.Collect$$$$0000000B                 0x00000098   Section        8  entry9a.o(.ARM.Collect$$$$0000000B)
    .ARM.Collect$$$$0000000E                 0x000000a0   Section        4  entry12b.o(.ARM.Collect$$$$0000000E)
    .ARM.Collect$$$$0000000F                 0x000000a4   Section        0  entry10a.o(.ARM.Collect$$$$0000000F)
    .ARM.Collect$$$$00000011                 0x000000a4   Section        0  entry11a.o(.ARM.Collect$$$$00000011)
    .ARM.Collect$$$$00002712                 0x000000a4   Section        4  entry2.o(.ARM.Collect$$$$00002712)
    __lit__00000000                          0x000000a4   Data           4  entry2.o(.ARM.Collect$$$$00002712)
    .highcode                                0x000000a8   Section        0  lwns_htimer.o(.highcode)
    .text                                    0x000000e4   Section       28  startup_armcm0.o(.text)
    .text                                    0x00000100   Section        0  mcu.o(.text)
    .text                                    0x000002d8   Section        0  rtc.o(.text)
    .text                                    0x0000034c   Section        0  ch57x_adc.o(.text)
    .text                                    0x000004c8   Section        0  ch57x_clk.o(.text)
    .text                                    0x00000b9c   Section        0  ch57x_flash.o(.text)
    .text                                    0x00000eb4   Section        0  ch57x_gpio.o(.text)
    .text                                    0x00001004   Section        0  ch57x_int.o(.text)
    .text                                    0x00001220   Section        0  ch57x_pwr.o(.text)
    .text                                    0x000013b8   Section        0  ch57x_sys.o(.text)
    .text                                    0x000014bc   Section        0  ch57x_uart1.o(.text)
    .text                                    0x00001568   Section        0  app_main.o(.text)
    .text                                    0x000015b4   Section        0  lwns_adapter_blemesh_mac.o(.text)
    RF_2G4StatusCallBack                     0x000015b5   Thumb Code   158  lwns_adapter_blemesh_mac.o(.text)
    lwns_phyoutput_ProcessEvent              0x00001691   Thumb Code   240  lwns_adapter_blemesh_mac.o(.text)
    lwns_adapter_ProcessEvent                0x00001781   Thumb Code   134  lwns_adapter_blemesh_mac.o(.text)
    ble_new_neighbor_callback                0x000018a5   Thumb Code    28  lwns_adapter_blemesh_mac.o(.text)
    ble_phy_output                           0x000018c1   Thumb Code   168  lwns_adapter_blemesh_mac.o(.text)
    .text                                    0x00001b60   Section        0  lwns_sec.o(.text)
    .text                                    0x00001bbc   Section        0  lwns_mesh_example.o(.text)
    lwns_mesh_recv                           0x00001bbd   Thumb Code    78  lwns_mesh_example.o(.text)
    lwns_mesh_sent                           0x00001c0b   Thumb Code    16  lwns_mesh_example.o(.text)
    lwns_mesh_timedout                       0x00001c1b   Thumb Code    16  lwns_mesh_example.o(.text)
    lwns_mesh_test_ProcessEvent              0x00001c2b   Thumb Code   234  lwns_mesh_example.o(.text)
    .text                                    0x00001e64   Section        0  lwns.o(.text)
    .text                                    0x0000200c   Section        0  lwns_broadcast.o(.text)
    .text                                    0x00002060   Section        0  lwns_buffer.o(.text)
    .text                                    0x00002274   Section        0  lwns_htimer.o(.text)
    lwns_htimer_add                          0x000022cb   Thumb Code    28  lwns_htimer.o(.text)
    .text                                    0x000022ec   Section        0  lwns_mesh.o(.text)
    lwns_lib_multihop_recv                   0x000022ed   Thumb Code   140  lwns_mesh.o(.text)
    lwns_lib_mesh_recv                       0x00002379   Thumb Code    84  lwns_mesh.o(.text)
    lwns_lib_mesh_forward                    0x000023cd   Thumb Code    72  lwns_mesh.o(.text)
    lwns_lib_mesh_found_route                0x00002415   Thumb Code    88  lwns_mesh.o(.text)
    lwns_lib_mesh_route_timed_out            0x0000246d   Thumb Code    36  lwns_mesh.o(.text)
    .text                                    0x000025b4   Section        0  lwns_netflood.o(.text)
    lwns_lib_recv_from_rgossip               0x000025b5   Thumb Code   382  lwns_netflood.o(.text)
    lwns_lib_netflood_sent                   0x00002733   Thumb Code    12  lwns_netflood.o(.text)
    lwns_lib_netflood_dropped                0x0000273f   Thumb Code    12  lwns_netflood.o(.text)
    .text                                    0x00002884   Section        0  lwns_route.o(.text)
    lwns_rrep_packet_received                0x00002927   Thumb Code   136  lwns_route.o(.text)
    lwns_rreq_packet_received                0x000029af   Thumb Code   174  lwns_route.o(.text)
    lwns_timeout_handler                     0x00002a77   Thumb Code    18  lwns_route.o(.text)
    lwns_route_check_periodic                0x00002aeb   Thumb Code    62  lwns_route.o(.text)
    .text                                    0x00002c10   Section        0  lwns_unicast.o(.text)
    lwns_lib_recv_from_broadcast             0x00002c11   Thumb Code    38  lwns_unicast.o(.text)
    lwns_lib_sent_by_broadcast               0x00002c37   Thumb Code    12  lwns_unicast.o(.text)
    lwns_lib_recv_from_uc                    0x00002c85   Thumb Code    12  lwns_unicast.o(.text)
    lwns_lib_sent_by_uc                      0x00002c91   Thumb Code    12  lwns_unicast.o(.text)
    suc_send                                 0x00002c9d   Thumb Code    48  lwns_unicast.o(.text)
    .text                                    0x00002cd8   Section        0  lwns_list.o(.text)
    .text                                    0x00002db0   Section        0  lwns_memp.o(.text)
    .text                                    0x00002e6c   Section        0  lwns_neighbor.o(.text)
    .text                                    0x00003004   Section        0  lwns_packetassembly.o(.text)
    lwns_unpack_header                       0x0000300d   Thumb Code   478  lwns_packetassembly.o(.text)
    lwns_pack_header                         0x000031ed   Thumb Code   486  lwns_packetassembly.o(.text)
    .text                                    0x000033d8   Section        0  lwns_port.o(.text)
    .text                                    0x00003458   Section        0  lwns_rgossip.o(.text)
    lwns_lib_rgossip_recv                    0x00003459   Thumb Code   120  lwns_rgossip.o(.text)
    lwns_lib_rgossip_sent                    0x000034d1   Thumb Code    12  lwns_rgossip.o(.text)
    lwns_lib_rgossip_send                    0x0000359d   Thumb Code    32  lwns_rgossip.o(.text)
    .text                                    0x000035c4   Section        0  uidiv.o(.text)
    .text                                    0x000035f0   Section        0  idiv.o(.text)
    .text                                    0x00003618   Section        0  llmul.o(.text)
    .text                                    0x00003692   Section        0  llshl.o(.text)
    .text                                    0x000036b2   Section        0  memcpya.o(.text)
    .text                                    0x000036d6   Section        0  uldiv.o(.text)
    .text                                    0x00003738   Section       36  init.o(.text)
    .text                                    0x0000375c   Section        0  llushr.o(.text)
    .text                                    0x0000377e   Section        0  __dczerorl2.o(.text)
    i.AES_DecError                           0x000037d4   Section        0  aes.o(i.AES_DecError)
    i.AES_DevAESDec                          0x00003828   Section        0  aes.o(i.AES_DevAESDec)
    i.AES_DevAESEnc                          0x000038f0   Section        0  aes.o(i.AES_DevAESEnc)
    i.AES_DevPktDec                          0x000039b8   Section        0  aes.o(i.AES_DevPktDec)
    i.AES_DevPktEnc                          0x00003a6c   Section        0  aes.o(i.AES_DevPktEnc)
    i.API_DisconnectCmd                      0x00003b20   Section        0  api_c.o(i.API_DisconnectCmd)
    i.API_HostNumCompletedPktCmd             0x00003b34   Section        0  api_c.o(i.API_HostNumCompletedPktCmd)
    i.API_LE_AddDeviceToResolvingList        0x00003b68   Section        0  api_c.o(i.API_LE_AddDeviceToResolvingList)
    i.API_LE_AddWhiteListCmd                 0x00003b88   Section        0  api_c.o(i.API_LE_AddWhiteListCmd)
    i.API_LE_ClearResolvingList              0x00003ba8   Section        0  api_c.o(i.API_LE_ClearResolvingList)
    i.API_LE_ClearWhiteListCmd               0x00003bc8   Section        0  api_c.o(i.API_LE_ClearWhiteListCmd)
    i.API_LE_ConnUpdateCmd                   0x00003be8   Section        0  api_c.o(i.API_LE_ConnUpdateCmd)
    i.API_LE_CreateConnCancelCmd             0x00003c08   Section        0  api_c.o(i.API_LE_CreateConnCancelCmd)
    i.API_LE_LtkReqNegReplyCmd               0x00003c24   Section        0  api_c.o(i.API_LE_LtkReqNegReplyCmd)
    i.API_LE_LtkReqReplyCmd                  0x00003c48   Section        0  api_c.o(i.API_LE_LtkReqReplyCmd)
    i.API_LE_RandCmd                         0x00003c6c   Section        0  api_c.o(i.API_LE_RandCmd)
    i.API_LE_ReadBufSizeCmd                  0x00003c8c   Section        0  api_c.o(i.API_LE_ReadBufSizeCmd)
    i.API_LE_RemoteConnParamReqNegReplyCmd   0x00003cb0   Section        0  api_c.o(i.API_LE_RemoteConnParamReqNegReplyCmd)
    i.API_LE_RemoteConnParamReqReplyCmd      0x00003cd4   Section        0  api_c.o(i.API_LE_RemoteConnParamReqReplyCmd)
    i.API_LE_SetAddressResolvableEnableCmd   0x00003d08   Section        0  api_c.o(i.API_LE_SetAddressResolvableEnableCmd)
    i.API_LE_SetAdvDataCmd                   0x00003d28   Section        0  api_c.o(i.API_LE_SetAdvDataCmd)
    i.API_LE_SetAdvEnableCmd                 0x00003d48   Section        0  api_c.o(i.API_LE_SetAdvEnableCmd)
    i.API_LE_SetAdvParamCmd                  0x00003d68   Section        0  api_c.o(i.API_LE_SetAdvParamCmd)
    i.API_LE_SetRandomAddressCmd             0x00003d94   Section        0  api_c.o(i.API_LE_SetRandomAddressCmd)
    i.API_LE_SetResolvableAddressTimeoutCmd  0x00003db4   Section        0  api_c.o(i.API_LE_SetResolvableAddressTimeoutCmd)
    i.API_LE_SetScanEnableCmd                0x00003dd4   Section        0  api_c.o(i.API_LE_SetScanEnableCmd)
    i.API_LE_SetScanRspDataCmd               0x00003df4   Section        0  api_c.o(i.API_LE_SetScanRspDataCmd)
    i.API_LE_StartEncryptCmd                 0x00003e14   Section        0  api_c.o(i.API_LE_StartEncryptCmd)
    i.API_MD_DisconnectCmd                   0x00003e28   Section        0  api_c.o(i.API_MD_DisconnectCmd)
    i.API_SendDataPkt                        0x00003e30   Section        0  api_c.o(i.API_SendDataPkt)
    i.ATT_BuildErrorRsp                      0x00003e38   Section        0  att.o(i.ATT_BuildErrorRsp)
    i.ATT_BuildExchangeMTURsp                0x00003e4e   Section        0  att_server.o(i.ATT_BuildExchangeMTURsp)
    i.ATT_BuildFindByTypeValueRsp            0x00003e5c   Section        0  att_server.o(i.ATT_BuildFindByTypeValueRsp)
    i.ATT_BuildFindInfoRsp                   0x00003e64   Section        0  att_server.o(i.ATT_BuildFindInfoRsp)
    i.ATT_BuildHandleValueInd                0x00003e7e   Section        0  att_server.o(i.ATT_BuildHandleValueInd)
    i.ATT_BuildPrepareWriteRsp               0x00003e90   Section        0  att_server.o(i.ATT_BuildPrepareWriteRsp)
    i.ATT_BuildReadBlobRsp                   0x00003eac   Section        0  att_server.o(i.ATT_BuildReadBlobRsp)
    i.ATT_BuildReadByGrpTypeRsp              0x00003eb0   Section        0  att_server.o(i.ATT_BuildReadByGrpTypeRsp)
    i.ATT_BuildReadByTypeRsp                 0x00003ec0   Section        0  att_server.o(i.ATT_BuildReadByTypeRsp)
    i.ATT_BuildReadMultiRsp                  0x00003ed0   Section        0  att_server.o(i.ATT_BuildReadMultiRsp)
    i.ATT_BuildReadRsp                       0x00003ed4   Section        0  att_server.o(i.ATT_BuildReadRsp)
    i.ATT_CompareUUID                        0x00003ed8   Section        0  att.o(i.ATT_CompareUUID)
    i.ATT_ConvertUUIDto128                   0x00003f24   Section        0  att.o(i.ATT_ConvertUUIDto128)
    i.ATT_ErrorRsp                           0x00003f50   Section        0  att.o(i.ATT_ErrorRsp)
    i.ATT_ExchangeMTURsp                     0x00003f68   Section        0  att_server.o(i.ATT_ExchangeMTURsp)
    i.ATT_ExecuteWriteRsp                    0x00003f88   Section        0  att_server.o(i.ATT_ExecuteWriteRsp)
    i.ATT_FindByTypeValueRsp                 0x00003f98   Section        0  att_server.o(i.ATT_FindByTypeValueRsp)
    i.ATT_FindInfoRsp                        0x00003fc8   Section        0  att_server.o(i.ATT_FindInfoRsp)
    i.ATT_GetMTU                             0x00004004   Section        0  att.o(i.ATT_GetMTU)
    i.ATT_HandleValueInd                     0x00004024   Section        0  att_server.o(i.ATT_HandleValueInd)
    i.ATT_ParamInit                          0x00004050   Section        0  att.o(i.ATT_ParamInit)
    i.ATT_ParseExchangeMTUReq                0x00004060   Section        0  att_server.o(i.ATT_ParseExchangeMTUReq)
    i.ATT_ParseExecuteWriteReq               0x00004078   Section        0  att_server.o(i.ATT_ParseExecuteWriteReq)
    i.ATT_ParseFindByTypeValueReq            0x0000408a   Section        0  att_server.o(i.ATT_ParseFindByTypeValueReq)
    i.ATT_ParseFindInfoReq                   0x000040d2   Section        0  att_server.o(i.ATT_ParseFindInfoReq)
    i.ATT_ParsePacket                        0x000040f4   Section        0  att.o(i.ATT_ParsePacket)
    i.ATT_ParsePrepareWriteReq               0x0000415e   Section        0  att_server.o(i.ATT_ParsePrepareWriteReq)
    i.ATT_ParseReadBlobReq                   0x00004194   Section        0  att_server.o(i.ATT_ParseReadBlobReq)
    i.ATT_ParseReadByTypeReq                 0x000041b6   Section        0  att_server.o(i.ATT_ParseReadByTypeReq)
    i.ATT_ParseReadMultiReq                  0x000041f2   Section        0  att_server.o(i.ATT_ParseReadMultiReq)
    i.ATT_ParseReadReq                       0x0000420a   Section        0  att_server.o(i.ATT_ParseReadReq)
    i.ATT_ParseWriteReq                      0x00004222   Section        0  att_server.o(i.ATT_ParseWriteReq)
    i.ATT_PrepareWriteRsp                    0x00004254   Section        0  att_server.o(i.ATT_PrepareWriteRsp)
    i.ATT_ReadBlobRsp                        0x0000427c   Section        0  att_server.o(i.ATT_ReadBlobRsp)
    i.ATT_ReadByGrpTypeRsp                   0x000042a4   Section        0  att_server.o(i.ATT_ReadByGrpTypeRsp)
    i.ATT_ReadByTypeRsp                      0x000042d4   Section        0  att_server.o(i.ATT_ReadByTypeRsp)
    i.ATT_ReadMultiRsp                       0x00004304   Section        0  att_server.o(i.ATT_ReadMultiRsp)
    i.ATT_ReadRsp                            0x00004330   Section        0  att_server.o(i.ATT_ReadRsp)
    i.ATT_RegisterServer                     0x0000435c   Section        0  att.o(i.ATT_RegisterServer)
    i.ATT_UpdateMTU                          0x00004368   Section        0  att.o(i.ATT_UpdateMTU)
    i.ATT_WriteRsp                           0x00004394   Section        0  att_server.o(i.ATT_WriteRsp)
    i.BB_DevInit                             0x000043a4   Section        0  bb.o(i.BB_DevInit)
    i.BLE_ADCTune                            0x000043c0   Section        0  ip.o(i.BLE_ADCTune)
    i.BLE_IPCoreInit                         0x000043e8   Section        0  ip.o(i.BLE_IPCoreInit)
    i.BLE_IRQHandler                         0x000044e0   Section        0  lle.o(i.BLE_IRQHandler)
    i.BLE_LibInit                            0x00004658   Section        0  tmos.o(i.BLE_LibInit)
    i.BLE_RegInit                            0x00004750   Section        0  ip.o(i.BLE_RegInit)
    i.CreatePRBS15                           0x00004798   Section        0  ctl_input.o(i.CreatePRBS15)
    i.CreatePRBS9                            0x000047dc   Section        0  ctl_input.o(i.CreatePRBS9)
    i.DMA_DevInit                            0x00004820   Section        0  dma.o(i.DMA_DevInit)
    i.ErasePage                              0x00004850   Section        0  tmos_hw.o(i.ErasePage)
    i.GAPBondMgr_Erase                       0x0000489c   Section        0  gapbondmgr.o(i.GAPBondMgr_Erase)
    i.GAPBondMgr_GetParameter                0x000048e4   Section        0  gapbondmgr.o(i.GAPBondMgr_GetParameter)
    i.GAPBondMgr_Init                        0x000049a8   Section        0  gapbondmgr.o(i.GAPBondMgr_Init)
    i.GAPBondMgr_LinkEst                     0x000049c0   Section        0  gapbondmgr.o(i.GAPBondMgr_LinkEst)
    i.GAPBondMgr_LinkTerm                    0x00004af0   Section        0  gapbondmgr.o(i.GAPBondMgr_LinkTerm)
    i.GAPBondMgr_ParamInit                   0x00004b58   Section        0  gapbondmgr.o(i.GAPBondMgr_ParamInit)
    i.GAPBondMgr_ProcessEvent                0x00004c44   Section        0  gapbondmgr.o(i.GAPBondMgr_ProcessEvent)
    i.GAPBondMgr_ProcessGAPMsg               0x00004ce4   Section        0  gapbondmgr.o(i.GAPBondMgr_ProcessGAPMsg)
    i.GAPBondMgr_ResolveAddr                 0x00004ef0   Section        0  gapbondmgr.o(i.GAPBondMgr_ResolveAddr)
    i.GAPBondMgr_ServiceChangeInd            0x00004fb0   Section        0  gapbondmgr.o(i.GAPBondMgr_ServiceChangeInd)
    i.GAPBondMgr_SetParameter                0x00005028   Section        0  gapbondmgr.o(i.GAPBondMgr_SetParameter)
    i.GAPBondMgr_SlaveReqSecurity            0x0000533c   Section        0  gapbondmgr.o(i.GAPBondMgr_SlaveReqSecurity)
    i.GAPBondMgr_UpdateCharCfg               0x000053a8   Section        0  gapbondmgr.o(i.GAPBondMgr_UpdateCharCfg)
    i.GAPRole_GetParameter                   0x0000540c   Section        0  role.o(i.GAPRole_GetParameter)
    i.GAPRole_ParamInit                      0x000054b8   Section        0  role.o(i.GAPRole_ParamInit)
    i.GAPRole_PeripheralEnable               0x0000551c   Section        0  peripheral.o(i.GAPRole_PeripheralEnable)
    i.GAPRole_PeripheralInit                 0x000055ec   Section        0  role.o(i.GAPRole_PeripheralInit)
    i.GAPRole_PeripheralProcessEvent         0x0000564c   Section        0  peripheral.o(i.GAPRole_PeripheralProcessEvent)
    i.GAP_Authenticate                       0x000057b4   Section        0  gap.o(i.GAP_Authenticate)
    i.GAP_Bond                               0x0000585c   Section        0  gap.o(i.GAP_Bond)
    i.GAP_CentralParamInit                   0x000058e0   Section        0  gap_central.o(i.GAP_CentralParamInit)
    i.GAP_EndDiscoverable                    0x00005924   Section        0  gap_peripheral.o(i.GAP_EndDiscoverable)
    i.GAP_GetParamValue                      0x00005978   Section        0  gap.o(i.GAP_GetParamValue)
    i.GAP_Init                               0x00005990   Section        0  gap.o(i.GAP_Init)
    i.GAP_MakeDiscoverable                   0x000059c8   Section        0  gap_peripheral.o(i.GAP_MakeDiscoverable)
    i.GAP_NumActiveConnections               0x00005aa4   Section        0  gap.o(i.GAP_NumActiveConnections)
    i.GAP_ParamInit                          0x00005aac   Section        0  gap.o(i.GAP_ParamInit)
    i.GAP_PasscodeUpdate                     0x00005b24   Section        0  gap.o(i.GAP_PasscodeUpdate)
    i.GAP_PeripheralParamInit                0x00005b6c   Section        0  gap_peripheral.o(i.GAP_PeripheralParamInit)
    i.GAP_ProcessEvent                       0x00005bac   Section        0  gap.o(i.GAP_ProcessEvent)
    i.GAP_RegisterForMsgs                    0x00005c90   Section        0  gap.o(i.GAP_RegisterForMsgs)
    i.GAP_ResolvePrivateAddr                 0x00005c9c   Section        0  gap.o(i.GAP_ResolvePrivateAddr)
    i.GAP_SendSlaveSecurityRequest           0x00005ca4   Section        0  gap.o(i.GAP_SendSlaveSecurityRequest)
    i.GAP_SetParamValue                      0x00005ce4   Section        0  gap.o(i.GAP_SetParamValue)
    i.GAP_Signable                           0x00005d18   Section        0  gap.o(i.GAP_Signable)
    i.GAP_TerminateAuth                      0x00005d68   Section        0  gap.o(i.GAP_TerminateAuth)
    i.GAP_TerminateLinkReq                   0x00005d88   Section        0  gap.o(i.GAP_TerminateLinkReq)
    i.GAP_UpdateAdvertisingData              0x00005e10   Section        0  gap_peripheral.o(i.GAP_UpdateAdvertisingData)
    i.GATTServApp_Init                       0x00005ea0   Section        0  gattservapp.o(i.GATTServApp_Init)
    i.GATTServApp_InitCharCfg                0x00005f08   Section        0  gattservapp.o(i.GATTServApp_InitCharCfg)
    i.GATTServApp_ParamInit                  0x00005f38   Section        0  gattservapp.o(i.GATTServApp_ParamInit)
    i.GATTServApp_ProcessCCCWriteReq         0x00005fd4   Section        0  gattservapp.o(i.GATTServApp_ProcessCCCWriteReq)
    i.GATTServApp_ProcessEvent               0x00006020   Section        0  gattservapp.o(i.GATTServApp_ProcessEvent)
    i.GATTServApp_ReadAttr                   0x00006068   Section        0  gattservapp.o(i.GATTServApp_ReadAttr)
    i.GATTServApp_ReadCharCfg                0x00006290   Section        0  gattservapp.o(i.GATTServApp_ReadCharCfg)
    i.GATTServApp_SendCCCUpdatedEvent        0x000062a0   Section        0  gattservapp.o(i.GATTServApp_SendCCCUpdatedEvent)
    i.GATTServApp_SendServiceChangedInd      0x000062d8   Section        0  gattservapp.o(i.GATTServApp_SendServiceChangedInd)
    i.GATTServApp_UpdateCharCfg              0x000062fc   Section        0  gattservapp.o(i.GATTServApp_UpdateCharCfg)
    i.GATTServApp_WriteAttr                  0x00006314   Section        0  gattservapp.o(i.GATTServApp_WriteAttr)
    i.GATTServApp_WriteCharCfg               0x0000638c   Section        0  gattservapp.o(i.GATTServApp_WriteCharCfg)
    i.GATT_AppCompletedMsg                   0x000063b8   Section        0  gatt.o(i.GATT_AppCompletedMsg)
    i.GATT_FindHandle                        0x000063e4   Section        0  gattservapp.o(i.GATT_FindHandle)
    i.GATT_FindHandleUUID                    0x0000642c   Section        0  gattservapp.o(i.GATT_FindHandleUUID)
    i.GATT_FindNextAttr                      0x000064a0   Section        0  gattservapp.o(i.GATT_FindNextAttr)
    i.GATT_Indication                        0x00006534   Section        0  gattservapp.o(i.GATT_Indication)
    i.GATT_Init                              0x0000659c   Section        0  gatt.o(i.GATT_Init)
    i.GATT_InitServer                        0x000065c8   Section        0  gattservapp.o(i.GATT_InitServer)
    i.GATT_NotifyEvent                       0x00006618   Section        0  gatt.o(i.GATT_NotifyEvent)
    i.GATT_ProcessEvent                      0x00006650   Section        0  gatt.o(i.GATT_ProcessEvent)
    i.GATT_ServiceChangedInd                 0x00006744   Section        0  gatt.o(i.GATT_ServiceChangedInd)
    i.GATT_ServiceEncKeySize                 0x000067bc   Section        0  gattservapp.o(i.GATT_ServiceEncKeySize)
    i.GATT_ServiceNumAttrs                   0x000067ce   Section        0  gattservapp.o(i.GATT_ServiceNumAttrs)
    i.GATT_UpdateMTU                         0x000067dc   Section        0  gatt.o(i.GATT_UpdateMTU)
    i.GATT_VerifyPrepareWritePermissions     0x00006828   Section        0  gattservapp.o(i.GATT_VerifyPrepareWritePermissions)
    i.GATT_VerifyReadPermissions             0x0000687a   Section        0  gattservapp.o(i.GATT_VerifyReadPermissions)
    i.GATT_VerifyWritePermissions            0x000068d0   Section        0  gattservapp.o(i.GATT_VerifyWritePermissions)
    i.GATT_bm_alloc                          0x00006934   Section        0  gatt.o(i.GATT_bm_alloc)
    i.GATT_bm_free                           0x000069c0   Section        0  gatt.o(i.GATT_bm_free)
    i.GGS_ParamInit                          0x000069d0   Section        0  gapgattserver.o(i.GGS_ParamInit)
    i.GGS_SetParameter                       0x00006af8   Section        0  gapgattserver.o(i.GGS_SetParameter)
    i.GetTxPower                             0x00006b8c   Section        0  ip.o(i.GetTxPower)
    i.HCI_AuthenticatedPayloadTimeoutExpiredCback 0x00006bd8   Section        0  ctl_output.o(i.HCI_AuthenticatedPayloadTimeoutExpiredCback)
    i.HCI_CommandCompleteCback               0x00006bda   Section        0  ctl_output.o(i.HCI_CommandCompleteCback)
    i.HCI_CommandStatusCback                 0x00006be2   Section        0  ctl_output.o(i.HCI_CommandStatusCback)
    i.HCI_DataBufferOverflowCback            0x00006bea   Section        0  ctl_output.o(i.HCI_DataBufferOverflowCback)
    i.HCI_DisconnectCmd                      0x00006bf2   Section        0  host_output.o(i.HCI_DisconnectCmd)
    i.HCI_DisconnectionCompleteCback         0x00006bfa   Section        0  ctl_output.o(i.HCI_DisconnectionCompleteCback)
    i.HCI_EncryptionChangeCback              0x00006c02   Section        0  ctl_output.o(i.HCI_EncryptionChangeCback)
    i.HCI_EncryptionKeyRefreshCompleteCback  0x00006c0a   Section        0  ctl_output.o(i.HCI_EncryptionKeyRefreshCompleteCback)
    i.HCI_HostNumCompletedPktCmd             0x00006c12   Section        0  host_output.o(i.HCI_HostNumCompletedPktCmd)
    i.HCI_LE_AddDeviceToResolvingList        0x00006c1c   Section        0  host_output.o(i.HCI_LE_AddDeviceToResolvingList)
    i.HCI_LE_AddWhiteListCmd                 0x00006c24   Section        0  host_output.o(i.HCI_LE_AddWhiteListCmd)
    i.HCI_LE_ClearResolvingList              0x00006c2c   Section        0  host_output.o(i.HCI_LE_ClearResolvingList)
    i.HCI_LE_ClearWhiteListCmd               0x00006c34   Section        0  host_output.o(i.HCI_LE_ClearWhiteListCmd)
    i.HCI_LE_ConnUpdateCmd                   0x00006c3c   Section        0  host_output.o(i.HCI_LE_ConnUpdateCmd)
    i.HCI_LE_ConnectionCompleteCback         0x00006c4c   Section        0  ctl_output.o(i.HCI_LE_ConnectionCompleteCback)
    i.HCI_LE_ConnectionUpdateCompleteCback   0x00006c66   Section        0  ctl_output.o(i.HCI_LE_ConnectionUpdateCompleteCback)
    i.HCI_LE_CreateConnCancelCmd             0x00006c72   Section        0  host_output.o(i.HCI_LE_CreateConnCancelCmd)
    i.HCI_LE_DataLengthChangeCback           0x00006c7a   Section        0  ctl_output.o(i.HCI_LE_DataLengthChangeCback)
    i.HCI_LE_EnhancedConnectionCompleteCback 0x00006c86   Section        0  ctl_output.o(i.HCI_LE_EnhancedConnectionCompleteCback)
    i.HCI_LE_LongTermKeyRequestCback         0x00006ca6   Section        0  ctl_output.o(i.HCI_LE_LongTermKeyRequestCback)
    i.HCI_LE_LtkReqNegReplyCmd               0x00006cae   Section        0  host_output.o(i.HCI_LE_LtkReqNegReplyCmd)
    i.HCI_LE_LtkReqReplyCmd                  0x00006cb6   Section        0  host_output.o(i.HCI_LE_LtkReqReplyCmd)
    i.HCI_LE_RandCmd                         0x00006cbe   Section        0  host_output.o(i.HCI_LE_RandCmd)
    i.HCI_LE_ReadBufSizeCmd                  0x00006cc6   Section        0  host_output.o(i.HCI_LE_ReadBufSizeCmd)
    i.HCI_LE_ReadRemoteUsedFeaturesCompleteCback 0x00006cce   Section        0  ctl_output.o(i.HCI_LE_ReadRemoteUsedFeaturesCompleteCback)
    i.HCI_LE_RemoteConnParamReqNegReplyCmd   0x00006cd6   Section        0  host_output.o(i.HCI_LE_RemoteConnParamReqNegReplyCmd)
    i.HCI_LE_RemoteConnParamReqReplyCmd      0x00006cde   Section        0  host_output.o(i.HCI_LE_RemoteConnParamReqReplyCmd)
    i.HCI_LE_RemoteConnectionParameterRequestCback 0x00006cee   Section        0  ctl_output.o(i.HCI_LE_RemoteConnectionParameterRequestCback)
    i.HCI_LE_SetAddressResolvableEnableCmd   0x00006cfa   Section        0  host_output.o(i.HCI_LE_SetAddressResolvableEnableCmd)
    i.HCI_LE_SetAdvDataCmd                   0x00006d02   Section        0  host_output.o(i.HCI_LE_SetAdvDataCmd)
    i.HCI_LE_SetAdvEnableCmd                 0x00006d0a   Section        0  host_output.o(i.HCI_LE_SetAdvEnableCmd)
    i.HCI_LE_SetAdvParamCmd                  0x00006d12   Section        0  host_output.o(i.HCI_LE_SetAdvParamCmd)
    i.HCI_LE_SetRandomAddressCmd             0x00006d28   Section        0  host_output.o(i.HCI_LE_SetRandomAddressCmd)
    i.HCI_LE_SetResolvableAddressTimeoutCmd  0x00006d30   Section        0  host_output.o(i.HCI_LE_SetResolvableAddressTimeoutCmd)
    i.HCI_LE_SetScanEnableCmd                0x00006d38   Section        0  host_output.o(i.HCI_LE_SetScanEnableCmd)
    i.HCI_LE_SetScanRspDataCmd               0x00006d40   Section        0  host_output.o(i.HCI_LE_SetScanRspDataCmd)
    i.HCI_LE_StartEncyptCmd                  0x00006d48   Section        0  host_output.o(i.HCI_LE_StartEncyptCmd)
    i.HCI_MB_DisconnectCmd                   0x00006d58   Section        0  host_output.o(i.HCI_MB_DisconnectCmd)
    i.HCI_NumberOfCompletedPacketsCback      0x00006d60   Section        0  ctl_output.o(i.HCI_NumberOfCompletedPacketsCback)
    i.HCI_ReadRemoteVersionInfoCback         0x00006d68   Section        0  ctl_output.o(i.HCI_ReadRemoteVersionInfoCback)
    i.HCI_RemoteConnectionParameterRequestCback 0x00006d74   Section        0  ctl_output.o(i.HCI_RemoteConnectionParameterRequestCback)
    i.HCI_RxDataCompleteCback                0x00006d80   Section        0  ctl_output.o(i.HCI_RxDataCompleteCback)
    i.HCI_SendDataPkt                        0x00006d88   Section        0  host_output.o(i.HCI_SendDataPkt)
    i.HCI_ValidConnTimeParams                0x00006d90   Section        0  host_output.o(i.HCI_ValidConnTimeParams)
    i.HOST_CommandCompleteEvent              0x00006dcc   Section        0  host_input.o(i.HOST_CommandCompleteEvent)
    i.HOST_CommandStatusEvent                0x00006e0c   Section        0  host_input.o(i.HOST_CommandStatusEvent)
    i.HOST_DataBufferOverflowEvent           0x00006e3c   Section        0  host_input.o(i.HOST_DataBufferOverflowEvent)
    i.HOST_DisconnectionCompleteEvent        0x00006e64   Section        0  host_input.o(i.HOST_DisconnectionCompleteEvent)
    i.HOST_EncryptionChangeEvent             0x00006e94   Section        0  host_input.o(i.HOST_EncryptionChangeEvent)
    i.HOST_EncryptionKeyRefreshCompleteEvent 0x00006ec8   Section        0  host_input.o(i.HOST_EncryptionKeyRefreshCompleteEvent)
    i.HOST_LE_ConnectionCompleteEvent        0x00006ef4   Section        0  host_input.o(i.HOST_LE_ConnectionCompleteEvent)
    i.HOST_LE_ConnectionUpdateCompleteEvent  0x00006f74   Section        0  host_input.o(i.HOST_LE_ConnectionUpdateCompleteEvent)
    i.HOST_LE_DataLengthChangeEvent          0x00006fb0   Section        0  host_input.o(i.HOST_LE_DataLengthChangeEvent)
    i.HOST_LE_EnhancedConnectionCompleteEvent 0x00006fec   Section        0  host_input.o(i.HOST_LE_EnhancedConnectionCompleteEvent)
    i.HOST_LE_LongTermKeyRequestEvent        0x000070a0   Section        0  host_input.o(i.HOST_LE_LongTermKeyRequestEvent)
    i.HOST_LE_ReadRemoteUsedFeaturesCompleteEvent 0x000070dc   Section        0  host_input.o(i.HOST_LE_ReadRemoteUsedFeaturesCompleteEvent)
    i.HOST_LE_RemoteConnectionParameterRequestEvent 0x00007118   Section        0  host_input.o(i.HOST_LE_RemoteConnectionParameterRequestEvent)
    i.HOST_NumberOfCompletedPacketsEvent     0x00007154   Section        0  host_input.o(i.HOST_NumberOfCompletedPacketsEvent)
    i.HOST_ReadRemoteVersionInfoEvent        0x00007184   Section        0  host_input.o(i.HOST_ReadRemoteVersionInfoEvent)
    i.HOST_RecvDataPackets                   0x000071bc   Section        0  host_input.o(i.HOST_RecvDataPackets)
    i.HOST_RemoteConnectionParameterRequestEvent 0x000072e0   Section        0  host_input.o(i.HOST_RemoteConnectionParameterRequestEvent)
    i.L2CAP_CmdReject                        0x00007310   Section        0  l2cap_sdu.o(i.L2CAP_CmdReject)
    i.L2CAP_ConnParamUpdateReq               0x00007328   Section        0  l2cap_sdu.o(i.L2CAP_ConnParamUpdateReq)
    i.L2CAP_ConnParamUpdateRsp               0x00007344   Section        0  l2cap_sdu.o(i.L2CAP_ConnParamUpdateRsp)
    i.L2CAP_DisconnectReq                    0x0000735c   Section        0  l2cap_sdu.o(i.L2CAP_DisconnectReq)
    i.L2CAP_GetMTU                           0x00007384   Section        0  l2cap.o(i.L2CAP_GetMTU)
    i.L2CAP_HostNumCompletedPkts             0x00007390   Section        0  l2cap.o(i.L2CAP_HostNumCompletedPkts)
    i.L2CAP_Init                             0x000073a8   Section        0  l2cap.o(i.L2CAP_Init)
    i.L2CAP_ParseConnectReq                  0x00007458   Section        0  l2cap.o(i.L2CAP_ParseConnectReq)
    i.L2CAP_ParseFlowCtrlCredit              0x00007496   Section        0  l2cap.o(i.L2CAP_ParseFlowCtrlCredit)
    i.L2CAP_ParseParamUpdateReq              0x000074b6   Section        0  l2cap_input.o(i.L2CAP_ParseParamUpdateReq)
    i.L2CAP_ProcessEvent                     0x000074ec   Section        0  l2cap.o(i.L2CAP_ProcessEvent)
    i.L2CAP_RegisterApp                      0x0000757c   Section        0  l2cap.o(i.L2CAP_RegisterApp)
    i.L2CAP_SendData                         0x000075a8   Section        0  l2cap_output.o(i.L2CAP_SendData)
    i.L2CAP_SetBufSize                       0x00007624   Section        0  l2cap.o(i.L2CAP_SetBufSize)
    i.L2CAP_bm_alloc                         0x00007634   Section        0  l2cap.o(i.L2CAP_bm_alloc)
    i.LLE_DevInit                            0x00007654   Section        0  lle.o(i.LLE_DevInit)
    i.LL_AddDeviceToResolvingList            0x0000768c   Section        0  ctl_input.o(i.LL_AddDeviceToResolvingList)
    i.LL_AddWhiteListDevice                  0x00007720   Section        0  ctl_input.o(i.LL_AddWhiteListDevice)
    i.LL_AddrGenerateResolvableAddress       0x00007798   Section        0  ll_address.o(i.LL_AddrGenerateResolvableAddress)
    i.LL_AddrInit                            0x0000781c   Section        0  ll_address.o(i.LL_AddrInit)
    i.LL_AdvertiseDirectTimeout              0x00007938   Section        0  ll_advertise.o(i.LL_AdvertiseDirectTimeout)
    i.LL_AdvertiseEnalbe                     0x0000794c   Section        0  ll_advertise.o(i.LL_AdvertiseEnalbe)
    i.LL_AdvertiseToStandby                  0x00007978   Section        0  ll_advertise.o(i.LL_AdvertiseToStandby)
    i.LL_ClearResolvingList                  0x000079b0   Section        0  ctl_input.o(i.LL_ClearResolvingList)
    i.LL_ClearWhiteList                      0x000079bc   Section        0  ctl_input.o(i.LL_ClearWhiteList)
    i.LL_ConnUpdate                          0x00007a08   Section        0  ctl_input.o(i.LL_ConnUpdate)
    i.LL_ConnectFlowcontrolRx                0x00007b08   Section        0  ll_connect.o(i.LL_ConnectFlowcontrolRx)
    i.LL_ConnectFlowcontrolTx                0x00007b2a   Section        0  ll_connect.o(i.LL_ConnectFlowcontrolTx)
    i.LL_ConnectFreeTmosPrioritID            0x00007b4c   Section        0  ll_connect.o(i.LL_ConnectFreeTmosPrioritID)
    i.LL_ConnectRxPktnumIncrease             0x00007bd0   Section        0  ll_connect.o(i.LL_ConnectRxPktnumIncrease)
    i.LL_ConnectShut                         0x00007c00   Section        0  ll_connect.o(i.LL_ConnectShut)
    i.LL_ConnectToStandby                    0x00007c94   Section        0  ll_connect.o(i.LL_ConnectToStandby)
    i.LL_ConnectTxPktnumIncrease             0x00007d10   Section        0  ll_connect.o(i.LL_ConnectTxPktnumIncrease)
    i.LL_ConnectionParamReq                  0x00007d4c   Section        0  ll_pdu.o(i.LL_ConnectionParamReq)
    i.LL_ConnectionParamRsp                  0x00007db8   Section        0  ll_pdu.o(i.LL_ConnectionParamRsp)
    i.LL_CoreClose                           0x00007e18   Section        0  ll_core.o(i.LL_CoreClose)
    i.LL_CoreDataListFree                    0x00007e78   Section        0  ll_core.o(i.LL_CoreDataListFree)
    i.LL_CoreDataListInit                    0x00007e98   Section        0  ll_core.o(i.LL_CoreDataListInit)
    i.LL_CoreGetCore                         0x00007f14   Section        0  ll_core.o(i.LL_CoreGetCore)
    i.LL_CoreGetDataList                     0x00007f34   Section        0  ll_core.o(i.LL_CoreGetDataList)
    i.LL_CoreInit                            0x00007f6c   Section        0  ll_core.o(i.LL_CoreInit)
    i.LL_CoreOpen                            0x00007f80   Section        0  ll_core.o(i.LL_CoreOpen)
    i.LL_CreateConnCancel                    0x00008020   Section        0  ctl_input.o(i.LL_CreateConnCancel)
    i.LL_Decrypt                             0x00008040   Section        0  aes.o(i.LL_Decrypt)
    i.LL_Disconnect                          0x00008102   Section        0  ctl_input.o(i.LL_Disconnect)
    i.LL_EncRsp                              0x00008132   Section        0  ll_pdu.o(i.LL_EncRsp)
    i.LL_Encrypt                             0x00008172   Section        0  aes.o(i.LL_Encrypt)
    i.LL_FeatureRsp                          0x00008234   Section        0  ll_pdu.o(i.LL_FeatureRsp)
    i.LL_GetNextConnectEventTime             0x00008268   Section        0  ll_connect.o(i.LL_GetNextConnectEventTime)
    i.LL_HopGetChannel                       0x00008328   Section        0  ll_hop.o(i.LL_HopGetChannel)
    i.LL_HopInit                             0x000083e0   Section        0  ll_hop.o(i.LL_HopInit)
    i.LL_Init                                0x000083e8   Section        0  ll.o(i.LL_Init)
    i.LL_InitiateToStandby                   0x000084b4   Section        0  ll_initiate.o(i.LL_InitiateToStandby)
    i.LL_LE_ReadBufSize                      0x000084f8   Section        0  ctl_input.o(i.LL_LE_ReadBufSize)
    i.LL_LengthReq                           0x00008514   Section        0  ll_pdu.o(i.LL_LengthReq)
    i.LL_LengthRsp                           0x0000858e   Section        0  ll_pdu.o(i.LL_LengthRsp)
    i.LL_LtkReqNegReply                      0x000085f6   Section        0  ctl_input.o(i.LL_LtkReqNegReply)
    i.LL_LtkReqReply                         0x00008628   Section        0  ctl_input.o(i.LL_LtkReqReply)
    i.LL_MD_Disconnect                       0x000086a8   Section        0  ctl_input.o(i.LL_MD_Disconnect)
    i.LL_PauseEncRsp                         0x000086c6   Section        0  ll_pdu.o(i.LL_PauseEncRsp)
    i.LL_PingReq                             0x000086e2   Section        0  ll_pdu.o(i.LL_PingReq)
    i.LL_PingRsp                             0x00008708   Section        0  ll_pdu.o(i.LL_PingRsp)
    i.LL_ProcessEvent                        0x00008720   Section        0  ll.o(i.LL_ProcessEvent)
    i.LL_ProcessTMOSReportMsg                0x00008828   Section        0  ll_report.o(i.LL_ProcessTMOSReportMsg)
    i.LL_Rand                                0x00008cee   Section        0  ctl_input.o(i.LL_Rand)
    i.LL_ReceiverTest                        0x00008d0a   Section        0  ctl_input.o(i.LL_ReceiverTest)
    i.LL_RejectInd                           0x00008d3e   Section        0  ll_pdu.o(i.LL_RejectInd)
    i.LL_RejectIndExt                        0x00008d62   Section        0  ll_pdu.o(i.LL_RejectIndExt)
    i.LL_RemoteConnParamReqNegReply          0x00008d82   Section        0  ctl_input.o(i.LL_RemoteConnParamReqNegReply)
    i.LL_RemoteConnParamReqReply             0x00008db4   Section        0  ctl_input.o(i.LL_RemoteConnParamReqReply)
    i.LL_ReportGenerateEvent                 0x00008eb8   Section        0  ll_report.o(i.LL_ReportGenerateEvent)
    i.LL_ResolvinglistAdd                    0x00008ee4   Section        0  ll_resolvinglist.o(i.LL_ResolvinglistAdd)
    i.LL_ResolvinglistCheckPeerResolution    0x00008fd4   Section        0  ll_resolvinglist.o(i.LL_ResolvinglistCheckPeerResolution)
    i.LL_ResolvinglistClearall               0x00009014   Section        0  ll_resolvinglist.o(i.LL_ResolvinglistClearall)
    i.LL_ResolvinglistInit                   0x00009044   Section        0  ll_resolvinglist.o(i.LL_ResolvinglistInit)
    i.LL_ResolvinglistPeerIdentifyAddressGetIrk 0x0000905c   Section        0  ll_resolvinglist.o(i.LL_ResolvinglistPeerIdentifyAddressGetIrk)
    i.LL_ResolvinglistPeerRpaAddressGetIrk   0x00009094   Section        0  ll_resolvinglist.o(i.LL_ResolvinglistPeerRpaAddressGetIrk)
    i.LL_RxConnParamReq                      0x000090c0   Section        0  ll_pdu.o(i.LL_RxConnParamReq)
    i.LL_RxLenUpdate                         0x00009194   Section        0  ll_pdu.o(i.LL_RxLenUpdate)
    i.LL_RxVersionExchange                   0x000091d4   Section        0  ll_pdu.o(i.LL_RxVersionExchange)
    i.LL_ScanToStandby                       0x000091f4   Section        0  ll_scan.o(i.LL_ScanToStandby)
    i.LL_SendAck                             0x00009240   Section        0  ll_pdu.o(i.LL_SendAck)
    i.LL_SendDataPkt                         0x00009260   Section        0  ctl_input.o(i.LL_SendDataPkt)
    i.LL_SendDmaBuf                          0x00009398   Section        0  ll_pdu.o(i.LL_SendDmaBuf)
    i.LL_SetAddressResolvableEnable          0x00009438   Section        0  ctl_input.o(i.LL_SetAddressResolvableEnable)
    i.LL_SetAdvControl                       0x00009484   Section        0  ctl_input.o(i.LL_SetAdvControl)
    i.LL_SetAdvData                          0x00009574   Section        0  ctl_input.o(i.LL_SetAdvData)
    i.LL_SetAdvParam                         0x000095b4   Section        0  ctl_input.o(i.LL_SetAdvParam)
    i.LL_SetDataLength                       0x00009660   Section        0  ctl_input.o(i.LL_SetDataLength)
    i.LL_SetRandomAddress                    0x000096c8   Section        0  ctl_input.o(i.LL_SetRandomAddress)
    i.LL_SetResolvableAddressTimeout         0x00009744   Section        0  ctl_input.o(i.LL_SetResolvableAddressTimeout)
    i.LL_SetScanEnable                       0x00009770   Section        0  ctl_input.o(i.LL_SetScanEnable)
    i.LL_SetScanRspData                      0x000097f4   Section        0  ctl_input.o(i.LL_SetScanRspData)
    i.LL_SlaveEnalbe                         0x00009830   Section        0  ll_slave.o(i.LL_SlaveEnalbe)
    i.LL_SlaveFeatureReq                     0x00009850   Section        0  ll_pdu.o(i.LL_SlaveFeatureReq)
    i.LL_StartEncReq                         0x0000988a   Section        0  ll_pdu.o(i.LL_StartEncReq)
    i.LL_StartEncRsp                         0x000098a6   Section        0  ll_pdu.o(i.LL_StartEncRsp)
    i.LL_StartEncrypt                        0x000098c2   Section        0  ctl_input.o(i.LL_StartEncrypt)
    i.LL_TerminateInd                        0x00009a10   Section        0  ll_pdu.o(i.LL_TerminateInd)
    i.LL_TransmitterTest                     0x00009a3c   Section        0  ctl_input.o(i.LL_TransmitterTest)
    i.LL_UnknowRsp                           0x00009b34   Section        0  ll_pdu.o(i.LL_UnknowRsp)
    i.LL_VersionInd                          0x00009b58   Section        0  ll_pdu.o(i.LL_VersionInd)
    i.LL_WhitelistAdd                        0x00009b94   Section        0  ll_whitelist.o(i.LL_WhitelistAdd)
    i.LL_WhitelistClearAll                   0x00009c04   Section        0  ll_whitelist.o(i.LL_WhitelistClearAll)
    i.LL_WhitelistInit                       0x00009c28   Section        0  ll_whitelist.o(i.LL_WhitelistInit)
    i.LL_WhitelistLookup                     0x00009c38   Section        0  ll_whitelist.o(i.LL_WhitelistLookup)
    i.RFEND_DevInit                          0x00009c68   Section        0  rfend.o(i.RFEND_DevInit)
    i.RFEND_RXAdc                            0x00009d34   Section        0  rfend.o(i.RFEND_RXAdc)
    i.RFEND_RXFilter                         0x00009e28   Section        0  rfend.o(i.RFEND_RXFilter)
    i.RFEND_TXCtune                          0x00009e98   Section        0  rfend.o(i.RFEND_TXCtune)
    i.RFEND_TXFtune                          0x0000aa18   Section        0  rfend.o(i.RFEND_TXFtune)
    i.RFFH_ProcessEvent                      0x0000aa2c   Section        0  rf_fh.o(i.RFFH_ProcessEvent)
    i.RF_Config                              0x0000aacc   Section        0  rf_fh.o(i.RF_Config)
    i.RF_FrequencyHoppingChange              0x0000ab4c   Section        0  rf_fh.o(i.RF_FrequencyHoppingChange)
    i.RF_FrequencyHoppingGet                 0x0000abbc   Section        0  rf_fh.o(i.RF_FrequencyHoppingGet)
    i.RF_FrequencyHoppingShut                0x0000ac1c   Section        0  rf_fh.o(i.RF_FrequencyHoppingShut)
    i.RF_HopGetChannel                       0x0000ac6c   Section        0  rf_fh.o(i.RF_HopGetChannel)
    i.RF_ProcessStatus                       0x0000acd8   Section        0  rf_fh.o(i.RF_ProcessStatus)
    RF_ProcessStatus                         0x0000acd9   Thumb Code  1046  rf_fh.o(i.RF_ProcessStatus)
    i.RF_RoleInit                            0x0000b0f0   Section        0  rf_fh.o(i.RF_RoleInit)
    i.RF_Rx                                  0x0000b10c   Section        0  rf_fh.o(i.RF_Rx)
    i.RF_SetChannel                          0x0000b2cc   Section        0  rf_fh.o(i.RF_SetChannel)
    i.RF_Shut                                0x0000b2f8   Section        0  rf_fh.o(i.RF_Shut)
    i.RF_Tx                                  0x0000b330   Section        0  rf_fh.o(i.RF_Tx)
    i.RTC_Get32KClock                        0x0000b648   Section        0  tmos_hw.o(i.RTC_Get32KClock)
    i.RTC_GetTickCount                       0x0000b660   Section        0  tmos_hw.o(i.RTC_GetTickCount)
    i.ReadFlash                              0x0000b6d4   Section        0  tmos_hw.o(i.ReadFlash)
    i.SM_CalcRandomAddr                      0x0000b6ee   Section        0  sm.o(i.SM_CalcRandomAddr)
    i.SM_GenerateAuthenSig                   0x0000b730   Section        0  sm.o(i.SM_GenerateAuthenSig)
    i.SM_Init                                0x0000b7d4   Section        0  sm.o(i.SM_Init)
    i.SM_ParamInit                           0x0000b7f8   Section        0  sm.o(i.SM_ParamInit)
    i.SM_PasskeyUpdate                       0x0000b840   Section        0  sm.o(i.SM_PasskeyUpdate)
    i.SM_ProcessEvent                        0x0000b8c4   Section        0  sm.o(i.SM_ProcessEvent)
    i.SM_ResolveRandomAddrs                  0x0000b940   Section        0  sm.o(i.SM_ResolveRandomAddrs)
    i.SM_StartEncryption                     0x0000b98c   Section        0  sm.o(i.SM_StartEncryption)
    i.SM_StartPairing                        0x0000b9fe   Section        0  sm.o(i.SM_StartPairing)
    i.SM_VerifyAuthenSig                     0x0000ba94   Section        0  sm.o(i.SM_VerifyAuthenSig)
    i.TMOS_CbTimerProcessEvent               0x0000bb84   Section        0  tmos.o(i.TMOS_CbTimerProcessEvent)
    i.TMOS_Init                              0x0000bbf0   Section        0  tmos.o(i.TMOS_Init)
    i.TMOS_ProcessEventRegister              0x0000bc80   Section        0  tmos.o(i.TMOS_ProcessEventRegister)
    i.TMOS_ProcessRegister                   0x0000bcac   Section        0  tmos.o(i.TMOS_ProcessRegister)
    i.TMOS_SystemProcess                     0x0000bcbc   Section        0  tmos.o(i.TMOS_SystemProcess)
    i.TMOS_TimerInit                         0x0000bee8   Section        0  tmos_hw.o(i.TMOS_TimerInit)
    i.TMOS_TimerRegister                     0x0000bf20   Section        0  tmos.o(i.TMOS_TimerRegister)
    i.WtireFlash                             0x0000bf38   Section        0  tmos_hw.o(i.WtireFlash)
    i.__0printf$8                            0x0000bf94   Section        0  printf8.o(i.__0printf$8)
    i.__ARM_common_ll_muluu                  0x0000bfb4   Section        0  tmos_hw.o(i.__ARM_common_ll_muluu)
    i.__ARM_common_switch8                   0x0000bfe4   Section        0  led.o(i.__ARM_common_switch8)
    i.__scatterload_copy                     0x0000bffe   Section       14  handlers.o(i.__scatterload_copy)
    i.__scatterload_null                     0x0000c00c   Section        2  handlers.o(i.__scatterload_null)
    i.__scatterload_zeroinit                 0x0000c00e   Section       14  handlers.o(i.__scatterload_zeroinit)
    i._printf_core                           0x0000c01c   Section        0  printf8.o(i._printf_core)
    _printf_core                             0x0000c01d   Thumb Code  1020  printf8.o(i._printf_core)
    i._printf_post_padding                   0x0000c444   Section        0  printf8.o(i._printf_post_padding)
    _printf_post_padding                     0x0000c445   Thumb Code    32  printf8.o(i._printf_post_padding)
    i._printf_pre_padding                    0x0000c464   Section        0  printf8.o(i._printf_pre_padding)
    _printf_pre_padding                      0x0000c465   Thumb Code    44  printf8.o(i._printf_pre_padding)
    i.attSendMsg                             0x0000c490   Section        0  att.o(i.attSendMsg)
    i.attSendRspMsg                          0x0000c518   Section        0  att.o(i.attSendRspMsg)
    i.ble_ll_chkcrc                          0x0000c550   Section        0  ip.o(i.ble_ll_chkcrc)
    i.ble_ll_common_rand16                   0x0000c5a0   Section        0  tmos_hw.o(i.ble_ll_common_rand16)
    i.ble_ll_common_rand32                   0x0000c5be   Section        0  tmos_hw.o(i.ble_ll_common_rand32)
    i.ble_ll_common_rand8                    0x0000c5da   Section        0  tmos_hw.o(i.ble_ll_common_rand8)
    i.ble_ll_hw_api_rx                       0x0000c5f8   Section        0  ip.o(i.ble_ll_hw_api_rx)
    i.ble_ll_hw_api_rx_test                  0x0000c6e8   Section        0  ip.o(i.ble_ll_hw_api_rx_test)
    i.ble_ll_hw_api_shut                     0x0000c754   Section        0  ip.o(i.ble_ll_hw_api_shut)
    i.ble_ll_hw_api_tx                       0x0000c7b4   Section        0  ip.o(i.ble_ll_hw_api_tx)
    i.ble_ll_hw_api_tx_set_len               0x0000c9dc   Section        0  ip.o(i.ble_ll_hw_api_tx_set_len)
    i.ble_ll_hw_api_tx_test                  0x0000ca60   Section        0  ip.o(i.ble_ll_hw_api_tx_test)
    i.ble_ll_set_connect_event               0x0000cc0c   Section        0  tmos_hw.o(i.ble_ll_set_connect_event)
    i.ble_timeout_process                    0x0000cc20   Section        0  tmos_hw.o(i.ble_timeout_process)
    i.disconnectNext                         0x0000cc7c   Section        0  gap.o(i.disconnectNext)
    disconnectNext                           0x0000cc7d   Thumb Code    26  gap.o(i.disconnectNext)
    i.gapAddAddrAdj                          0x0000cc96   Section        0  gap.o(i.gapAddAddrAdj)
    i.gapBondFreeAuthEvt                     0x0000ccd0   Section        0  gapbondmgr.o(i.gapBondFreeAuthEvt)
    gapBondFreeAuthEvt                       0x0000ccd1   Thumb Code    24  gapbondmgr.o(i.gapBondFreeAuthEvt)
    i.gapBondMgrAddBond                      0x0000ccec   Section        0  gapbondmgr.o(i.gapBondMgrAddBond)
    gapBondMgrAddBond                        0x0000cced   Thumb Code   312  gapbondmgr.o(i.gapBondMgrAddBond)
    i.gapBondMgrAuthenticate                 0x0000ce28   Section        0  gapbondmgr.o(i.gapBondMgrAuthenticate)
    gapBondMgrAuthenticate                   0x0000ce29   Thumb Code   386  gapbondmgr.o(i.gapBondMgrAuthenticate)
    i.gapBondMgrBondReq                      0x0000cfb4   Section        0  gapbondmgr.o(i.gapBondMgrBondReq)
    gapBondMgrBondReq                        0x0000cfb5   Thumb Code    78  gapbondmgr.o(i.gapBondMgrBondReq)
    i.gapBondMgrBondTotal                    0x0000d004   Section        0  gapbondmgr.o(i.gapBondMgrBondTotal)
    gapBondMgrBondTotal                      0x0000d005   Thumb Code    46  gapbondmgr.o(i.gapBondMgrBondTotal)
    i.gapBondMgrChangeState                  0x0000d038   Section        0  gapbondmgr.o(i.gapBondMgrChangeState)
    gapBondMgrChangeState                    0x0000d039   Thumb Code    96  gapbondmgr.o(i.gapBondMgrChangeState)
    i.gapBondMgrEraseAllBondings             0x0000d09c   Section        0  gapbondmgr.o(i.gapBondMgrEraseAllBondings)
    gapBondMgrEraseAllBondings               0x0000d09d   Thumb Code    32  gapbondmgr.o(i.gapBondMgrEraseAllBondings)
    i.gapBondMgrEraseBonding                 0x0000d0c0   Section        0  gapbondmgr.o(i.gapBondMgrEraseBonding)
    gapBondMgrEraseBonding                   0x0000d0c1   Thumb Code   226  gapbondmgr.o(i.gapBondMgrEraseBonding)
    i.gapBondMgrFindAddr                     0x0000d1a8   Section        0  gapbondmgr.o(i.gapBondMgrFindAddr)
    gapBondMgrFindAddr                       0x0000d1a9   Thumb Code    46  gapbondmgr.o(i.gapBondMgrFindAddr)
    i.gapBondMgrFindCharCfgItem              0x0000d1dc   Section        0  gapbondmgr.o(i.gapBondMgrFindCharCfgItem)
    gapBondMgrFindCharCfgItem                0x0000d1dd   Thumb Code    28  gapbondmgr.o(i.gapBondMgrFindCharCfgItem)
    i.gapBondMgrGetPublicAddr                0x0000d1f8   Section        0  gapbondmgr.o(i.gapBondMgrGetPublicAddr)
    gapBondMgrGetPublicAddr                  0x0000d1f9   Thumb Code    58  gapbondmgr.o(i.gapBondMgrGetPublicAddr)
    i.gapBondMgrGetStateFlags                0x0000d238   Section        0  gapbondmgr.o(i.gapBondMgrGetStateFlags)
    gapBondMgrGetStateFlags                  0x0000d239   Thumb Code    36  gapbondmgr.o(i.gapBondMgrGetStateFlags)
    i.gapBondMgrInvertCharCfgItem            0x0000d25c   Section        0  gapbondmgr.o(i.gapBondMgrInvertCharCfgItem)
    gapBondMgrInvertCharCfgItem              0x0000d25d   Thumb Code    28  gapbondmgr.o(i.gapBondMgrInvertCharCfgItem)
    i.gapBondMgrReadBonds                    0x0000d278   Section        0  gapbondmgr.o(i.gapBondMgrReadBonds)
    gapBondMgrReadBonds                      0x0000d279   Thumb Code   128  gapbondmgr.o(i.gapBondMgrReadBonds)
    i.gapBondMgrSendServiceChange            0x0000d2fc   Section        0  gapbondmgr.o(i.gapBondMgrSendServiceChange)
    gapBondMgrSendServiceChange              0x0000d2fd   Thumb Code    14  gapbondmgr.o(i.gapBondMgrSendServiceChange)
    i.gapBondMgrUpdateCharCfg                0x0000d310   Section        0  gapbondmgr.o(i.gapBondMgrUpdateCharCfg)
    gapBondMgrUpdateCharCfg                  0x0000d311   Thumb Code   176  gapbondmgr.o(i.gapBondMgrUpdateCharCfg)
    i.gapBondMgr_ProcessTMOSMsg              0x0000d3c4   Section        0  gapbondmgr.o(i.gapBondMgr_ProcessTMOSMsg)
    gapBondMgr_ProcessTMOSMsg                0x0000d3c5   Thumb Code    94  gapbondmgr.o(i.gapBondMgr_ProcessTMOSMsg)
    i.gapBondMgr_SyncCharCfg                 0x0000d428   Section        0  gapbondmgr.o(i.gapBondMgr_SyncCharCfg)
    gapBondMgr_SyncCharCfg                   0x0000d429   Thumb Code   116  gapbondmgr.o(i.gapBondMgr_SyncCharCfg)
    i.gapBondMgr_SyncResolveList             0x0000d4a8   Section        0  gapbondmgr.o(i.gapBondMgr_SyncResolveList)
    gapBondMgr_SyncResolveList               0x0000d4a9   Thumb Code   106  gapbondmgr.o(i.gapBondMgr_SyncResolveList)
    i.gapBondMgr_SyncWhiteList               0x0000d518   Section        0  gapbondmgr.o(i.gapBondMgr_SyncWhiteList)
    gapBondMgr_SyncWhiteList                 0x0000d519   Thumb Code    52  gapbondmgr.o(i.gapBondMgr_SyncWhiteList)
    i.gapBondPairStateCB                     0x0000d550   Section        0  gapbondmgr.o(i.gapBondPairStateCB)
    gapBondPairStateCB                       0x0000d551   Thumb Code    50  gapbondmgr.o(i.gapBondPairStateCB)
    i.gapBondPasscodeCB                      0x0000d588   Section        0  gapbondmgr.o(i.gapBondPasscodeCB)
    gapBondPasscodeCB                        0x0000d589   Thumb Code    96  gapbondmgr.o(i.gapBondPasscodeCB)
    i.gapBondSetupPrivFlag                   0x0000d5ec   Section        0  gapbondmgr.o(i.gapBondSetupPrivFlag)
    gapBondSetupPrivFlag                     0x0000d5ed   Thumb Code    32  gapbondmgr.o(i.gapBondSetupPrivFlag)
    i.gapCancelLinkReq                       0x0000d60c   Section        0  gap_central.o(i.gapCancelLinkReq)
    i.gapCentProcessConnEvt                  0x0000d644   Section        0  gap_central.o(i.gapCentProcessConnEvt)
    i.gapCentProcessHCICmdEvt                0x0000d72c   Section        0  gap_central.o(i.gapCentProcessHCICmdEvt)
    i.gapDetermineAddrType                   0x0000d75c   Section        0  gap.o(i.gapDetermineAddrType)
    i.gapFindADType                          0x0000d782   Section        0  gap.o(i.gapFindADType)
    i.gapFreeAdvertState                     0x0000d7c8   Section        0  gap_peripheral.o(i.gapFreeAdvertState)
    gapFreeAdvertState                       0x0000d7c9   Thumb Code    20  gap_peripheral.o(i.gapFreeAdvertState)
    i.gapFreeAuthLink                        0x0000d7e0   Section        0  gap.o(i.gapFreeAuthLink)
    i.gapFreeEstLink                         0x0000d814   Section        0  gap.o(i.gapFreeEstLink)
    i.gapFreeScanRecs                        0x0000d82c   Section        0  gap_central.o(i.gapFreeScanRecs)
    i.gapGetDevAddress                       0x0000d8ac   Section        0  gap.o(i.gapGetDevAddress)
    i.gapGetDevAddressMode                   0x0000d8cc   Section        0  gap.o(i.gapGetDevAddressMode)
    i.gapGetIRK                              0x0000d8d8   Section        0  gap.o(i.gapGetIRK)
    i.gapGetSRK                              0x0000d8e4   Section        0  gap.o(i.gapGetSRK)
    i.gapGetSignCounter                      0x0000d8f0   Section        0  gap.o(i.gapGetSignCounter)
    i.gapIncSignCounter                      0x0000d8fc   Section        0  gap.o(i.gapIncSignCounter)
    i.gapL2capConnParamUpdateReq             0x0000d91c   Section        0  gap.o(i.gapL2capConnParamUpdateReq)
    i.gapPairingCompleteCB                   0x0000d948   Section        0  gap.o(i.gapPairingCompleteCB)
    i.gapPasskeyNeededCB                     0x0000da56   Section        0  gap.o(i.gapPasskeyNeededCB)
    i.gapPeriProcessConnEvt                  0x0000dabc   Section        0  gap_peripheral.o(i.gapPeriProcessConnEvt)
    gapPeriProcessConnEvt                    0x0000dabd   Thumb Code   132  gap_peripheral.o(i.gapPeriProcessConnEvt)
    i.gapPeriProcessHCICmdCompleteEvt        0x0000db4c   Section        0  gap_peripheral.o(i.gapPeriProcessHCICmdCompleteEvt)
    gapPeriProcessHCICmdCompleteEvt          0x0000db4d   Thumb Code   130  gap_peripheral.o(i.gapPeriProcessHCICmdCompleteEvt)
    i.gapProcessAdvertisingEvt               0x0000dbdc   Section        0  gap_peripheral.o(i.gapProcessAdvertisingEvt)
    gapProcessAdvertisingEvt                 0x0000dbdd   Thumb Code   112  gap_peripheral.o(i.gapProcessAdvertisingEvt)
    i.gapProcessConnEvt                      0x0000dc64   Section        0  gap.o(i.gapProcessConnEvt)
    i.gapProcessConnectionCompleteEvt        0x0000dca4   Section        0  gap.o(i.gapProcessConnectionCompleteEvt)
    gapProcessConnectionCompleteEvt          0x0000dca5   Thumb Code   194  gap.o(i.gapProcessConnectionCompleteEvt)
    i.gapProcessDisconnectCompleteEvt        0x0000dd70   Section        0  gap.o(i.gapProcessDisconnectCompleteEvt)
    i.gapProcessEnhancedConnectionCompleteEvt 0x0000dde4   Section        0  gap.o(i.gapProcessEnhancedConnectionCompleteEvt)
    gapProcessEnhancedConnectionCompleteEvt  0x0000dde5   Thumb Code   196  gap.o(i.gapProcessEnhancedConnectionCompleteEvt)
    i.gapProcessNewAddr                      0x0000deb0   Section        0  gap.o(i.gapProcessNewAddr)
    i.gapProcessRandomAddrComplete           0x0000dee0   Section        0  gap.o(i.gapProcessRandomAddrComplete)
    i.gapProcessRemoteConnParamReqEvt        0x0000df4c   Section        0  gap.o(i.gapProcessRemoteConnParamReqEvt)
    gapProcessRemoteConnParamReqEvt          0x0000df4d   Thumb Code    90  gap.o(i.gapProcessRemoteConnParamReqEvt)
    i.gapProcessScanningDirectEvt            0x0000dfac   Section        0  gap_central.o(i.gapProcessScanningDirectEvt)
    i.gapProcessScanningEvt                  0x0000e050   Section        0  gap_central.o(i.gapProcessScanningEvt)
    i.gapProcessTMOSMsg                      0x0000e2dc   Section        0  gap.o(i.gapProcessTMOSMsg)
    gapProcessTMOSMsg                        0x0000e2dd   Thumb Code   470  gap.o(i.gapProcessTMOSMsg)
    i.gapRole_PeripheralProcessGAPMsg        0x0000e4d0   Section        0  peripheral.o(i.gapRole_PeripheralProcessGAPMsg)
    gapRole_PeripheralProcessGAPMsg          0x0000e4d1   Thumb Code   398  peripheral.o(i.gapRole_PeripheralProcessGAPMsg)
    i.gapRole_PeripheralProcessTMOSMsg       0x0000e69c   Section        0  peripheral.o(i.gapRole_PeripheralProcessTMOSMsg)
    gapRole_PeripheralProcessTMOSMsg         0x0000e69d   Thumb Code    72  peripheral.o(i.gapRole_PeripheralProcessTMOSMsg)
    i.gapSendBondCompleteEvent               0x0000e6ec   Section        0  gap.o(i.gapSendBondCompleteEvent)
    i.gapSendDevDiscEvent                    0x0000e734   Section        0  gap_central.o(i.gapSendDevDiscEvent)
    i.gapSendDeviceInitDoneEvent             0x0000e804   Section        0  gap.o(i.gapSendDeviceInitDoneEvent)
    i.gapSendEstLinkEvent                    0x0000e848   Section        0  gap.o(i.gapSendEstLinkEvent)
    i.gapSendLinkUpdateEvent                 0x0000e8a8   Section        0  gap.o(i.gapSendLinkUpdateEvent)
    i.gapSendMakeDiscEvent                   0x0000e8f4   Section        0  gap_peripheral.o(i.gapSendMakeDiscEvent)
    i.gapSendPairingReqEvent                 0x0000e92c   Section        0  gap.o(i.gapSendPairingReqEvent)
    i.gapSendScanEnable                      0x0000e988   Section        0  gap_central.o(i.gapSendScanEnable)
    gapSendScanEnable                        0x0000e989   Thumb Code    28  gap_central.o(i.gapSendScanEnable)
    i.gapSendSlaveSecurityReqEvent           0x0000e9a4   Section        0  gap.o(i.gapSendSlaveSecurityReqEvent)
    i.gapSetAdvParams                        0x0000e9e0   Section        0  gap_peripheral.o(i.gapSetAdvParams)
    gapSetAdvParams                          0x0000e9e1   Thumb Code   116  gap_peripheral.o(i.gapSetAdvParams)
    i.gapSetScanParamStatus                  0x0000ea60   Section        0  gap_central.o(i.gapSetScanParamStatus)
    gapSetScanParamStatus                    0x0000ea61   Thumb Code    64  gap_central.o(i.gapSetScanParamStatus)
    i.gapUpdateConnSignCounter               0x0000eaa8   Section        0  gap.o(i.gapUpdateConnSignCounter)
    i.gapValidADType                         0x0000eaf6   Section        0  gap.o(i.gapValidADType)
    i.gapWriteAdvEnableStatus                0x0000eb0c   Section        0  gap_peripheral.o(i.gapWriteAdvEnableStatus)
    gapWriteAdvEnableStatus                  0x0000eb0d   Thumb Code   184  gap_peripheral.o(i.gapWriteAdvEnableStatus)
    i.gattFindServerInfo                     0x0000ebe0   Section        0  gattservapp.o(i.gattFindServerInfo)
    i.gattFindService                        0x0000ec04   Section        0  gattservapp.o(i.gattFindService)
    i.gattGetPayload                         0x0000ec24   Section        0  gatt.o(i.gattGetPayload)
    i.gattGetServerStatus                    0x0000ec8c   Section        0  gattservapp.o(i.gattGetServerStatus)
    gattGetServerStatus                      0x0000ec8d   Thumb Code    44  gattservapp.o(i.gattGetServerStatus)
    i.gattNotifyEvent                        0x0000ecb8   Section        0  gatt.o(i.gattNotifyEvent)
    i.gattProcessExchangeMTUReq              0x0000ed12   Section        0  gattservapp.o(i.gattProcessExchangeMTUReq)
    gattProcessExchangeMTUReq                0x0000ed13   Thumb Code     4  gattservapp.o(i.gattProcessExchangeMTUReq)
    i.gattProcessExecuteWriteReq             0x0000ed16   Section        0  gattservapp.o(i.gattProcessExecuteWriteReq)
    gattProcessExecuteWriteReq               0x0000ed17   Thumb Code     4  gattservapp.o(i.gattProcessExecuteWriteReq)
    i.gattProcessFindByTypeValueReq          0x0000ed1a   Section        0  gattservapp.o(i.gattProcessFindByTypeValueReq)
    gattProcessFindByTypeValueReq            0x0000ed1b   Thumb Code    44  gattservapp.o(i.gattProcessFindByTypeValueReq)
    i.gattProcessFindInfoReq                 0x0000ed48   Section        0  gattservapp.o(i.gattProcessFindInfoReq)
    gattProcessFindInfoReq                   0x0000ed49   Thumb Code   288  gattservapp.o(i.gattProcessFindInfoReq)
    i.gattProcessPrepareWriteReq             0x0000ee6c   Section        0  gattservapp.o(i.gattProcessPrepareWriteReq)
    gattProcessPrepareWriteReq               0x0000ee6d   Thumb Code    38  gattservapp.o(i.gattProcessPrepareWriteReq)
    i.gattProcessReadByGrpTypeReq            0x0000ee94   Section        0  gattservapp.o(i.gattProcessReadByGrpTypeReq)
    gattProcessReadByGrpTypeReq              0x0000ee95   Thumb Code    68  gattservapp.o(i.gattProcessReadByGrpTypeReq)
    i.gattProcessReadByTypeReq               0x0000eedc   Section        0  gattservapp.o(i.gattProcessReadByTypeReq)
    gattProcessReadByTypeReq                 0x0000eedd   Thumb Code    44  gattservapp.o(i.gattProcessReadByTypeReq)
    i.gattProcessReadMultiReq                0x0000ef08   Section        0  gattservapp.o(i.gattProcessReadMultiReq)
    gattProcessReadMultiReq                  0x0000ef09   Thumb Code   102  gattservapp.o(i.gattProcessReadMultiReq)
    i.gattProcessReadReq                     0x0000ef6e   Section        0  gattservapp.o(i.gattProcessReadReq)
    gattProcessReadReq                       0x0000ef6f   Thumb Code    34  gattservapp.o(i.gattProcessReadReq)
    i.gattProcessWriteReq                    0x0000ef90   Section        0  gattservapp.o(i.gattProcessWriteReq)
    gattProcessWriteReq                      0x0000ef91   Thumb Code    38  gattservapp.o(i.gattProcessWriteReq)
    i.gattRegisterServer                     0x0000efb8   Section        0  gatt.o(i.gattRegisterServer)
    i.gattResetServerInfo                    0x0000efc4   Section        0  gattservapp.o(i.gattResetServerInfo)
    i.gattSendFlowCtrlEvt                    0x0000efd4   Section        0  gatt.o(i.gattSendFlowCtrlEvt)
    i.gattServApp_ClearPrepareWriteQ         0x0000f010   Section        0  gattservapp.o(i.gattServApp_ClearPrepareWriteQ)
    i.gattServApp_FindAuthorizeAttrCB        0x0000f04c   Section        0  gattservapp.o(i.gattServApp_FindAuthorizeAttrCB)
    i.gattServApp_FindCharCfgItem            0x0000f05a   Section        0  gattservapp.o(i.gattServApp_FindCharCfgItem)
    gattServApp_FindCharCfgItem              0x0000f05b   Thumb Code    26  gattservapp.o(i.gattServApp_FindCharCfgItem)
    i.gattServApp_FindPrepareWriteQ          0x0000f074   Section        0  gattservapp.o(i.gattServApp_FindPrepareWriteQ)
    i.gattServApp_FindServiceCBs             0x0000f098   Section        0  gattservapp.o(i.gattServApp_FindServiceCBs)
    i.gattServApp_HandleConnStatusCB         0x0000f0b8   Section        0  gattservapp.o(i.gattServApp_HandleConnStatusCB)
    i.gattServApp_IsWriteLong                0x0000f114   Section        0  gattservapp.o(i.gattServApp_IsWriteLong)
    i.gattServApp_ProcessExecuteWriteReq     0x0000f1d0   Section        0  gattservapp.o(i.gattServApp_ProcessExecuteWriteReq)
    i.gattServApp_ProcessFindByTypeValueReq  0x0000f2ac   Section        0  gattservapp.o(i.gattServApp_ProcessFindByTypeValueReq)
    i.gattServApp_ProcessMsg                 0x0000f3e8   Section        0  gattservapp.o(i.gattServApp_ProcessMsg)
    gattServApp_ProcessMsg                   0x0000f3e9   Thumb Code   570  gattservapp.o(i.gattServApp_ProcessMsg)
    i.gattServApp_ProcessPrepareWriteReq     0x0000f63c   Section        0  gattservapp.o(i.gattServApp_ProcessPrepareWriteReq)
    i.gattServApp_ProcessReadByGrpTypeReq    0x0000f71c   Section        0  gattservapp.o(i.gattServApp_ProcessReadByGrpTypeReq)
    i.gattServApp_ProcessReadByTypeReq       0x0000f8b0   Section        0  gattservapp.o(i.gattServApp_ProcessReadByTypeReq)
    i.gattServApp_ProcessReadMultiReq        0x0000f9f0   Section        0  gattservapp.o(i.gattServApp_ProcessReadMultiReq)
    i.gattServApp_ProcessWriteReq            0x0000fb00   Section        0  gattservapp.o(i.gattServApp_ProcessWriteReq)
    i.gattServApp_WriteAttrCB                0x0000fb90   Section        0  gattservapp.o(i.gattServApp_WriteAttrCB)
    i.gattServerHandleConnStatusCB           0x0000fbc0   Section        0  gattservapp.o(i.gattServerHandleConnStatusCB)
    i.gattServerHandleTimerCB                0x0000fc40   Section        0  gattservapp.o(i.gattServerHandleTimerCB)
    gattServerHandleTimerCB                  0x0000fc41   Thumb Code    42  gattservapp.o(i.gattServerHandleTimerCB)
    i.gattServerNotifyTxCB                   0x0000fc6a   Section        0  gattservapp.o(i.gattServerNotifyTxCB)
    gattServerNotifyTxCB                     0x0000fc6b   Thumb Code    28  gattservapp.o(i.gattServerNotifyTxCB)
    i.gattServerProcessMsgCB                 0x0000fc88   Section        0  gattservapp.o(i.gattServerProcessMsgCB)
    i.gattServiceLastHandle                  0x0000fdd8   Section        0  gattservapp.o(i.gattServiceLastHandle)
    gattServiceLastHandle                    0x0000fdd9   Thumb Code    22  gattservapp.o(i.gattServiceLastHandle)
    i.gattStartTimer                         0x0000fdee   Section        0  gatt.o(i.gattStartTimer)
    i.gattStopTimer                          0x0000fdfc   Section        0  gatt.o(i.gattStopTimer)
    i.generate_subkey                        0x0000fe18   Section        0  sm.o(i.generate_subkey)
    i.ggs_ReadAttrCB                         0x0000feb4   Section        0  gapgattserver.o(i.ggs_ReadAttrCB)
    ggs_ReadAttrCB                           0x0000feb5   Thumb Code   206  gapgattserver.o(i.ggs_ReadAttrCB)
    i.ggs_SetAttrWPermit                     0x0000ff8c   Section        0  gapgattserver.o(i.ggs_SetAttrWPermit)
    ggs_SetAttrWPermit                       0x0000ff8d   Thumb Code   110  gapgattserver.o(i.ggs_SetAttrWPermit)
    i.ggs_WriteAttrCB                        0x0000fffc   Section        0  gapgattserver.o(i.ggs_WriteAttrCB)
    ggs_WriteAttrCB                          0x0000fffd   Thumb Code   260  gapgattserver.o(i.ggs_WriteAttrCB)
    i.l2capAllocConnChannel                  0x0001010c   Section        0  l2cap.o(i.l2capAllocConnChannel)
    i.l2capBuildCmdReject                    0x000101b4   Section        0  l2cap_sdu.o(i.l2capBuildCmdReject)
    i.l2capBuildConnectRsp                   0x000101f4   Section        0  l2cap_sdu.o(i.l2capBuildConnectRsp)
    l2capBuildConnectRsp                     0x000101f5   Thumb Code    54  l2cap_sdu.o(i.l2capBuildConnectRsp)
    i.l2capBuildDisconnectReq                0x0001022a   Section        0  l2cap_sdu.o(i.l2capBuildDisconnectReq)
    l2capBuildDisconnectReq                  0x0001022b   Thumb Code    24  l2cap_sdu.o(i.l2capBuildDisconnectReq)
    i.l2capBuildDisconnectRsp                0x00010242   Section        0  l2cap_sdu.o(i.l2capBuildDisconnectRsp)
    i.l2capBuildParamUpdateReq               0x0001025a   Section        0  l2cap_sdu.o(i.l2capBuildParamUpdateReq)
    l2capBuildParamUpdateReq                 0x0001025b   Thumb Code    44  l2cap_sdu.o(i.l2capBuildParamUpdateReq)
    i.l2capBuildParamUpdateRsp               0x00010286   Section        0  l2cap_sdu.o(i.l2capBuildParamUpdateRsp)
    l2capBuildParamUpdateRsp                 0x00010287   Thumb Code    14  l2cap_sdu.o(i.l2capBuildParamUpdateRsp)
    i.l2capDisconnectAllChannels             0x00010294   Section        0  l2cap.o(i.l2capDisconnectAllChannels)
    i.l2capDisconnectChannel                 0x0001032c   Section        0  l2cap.o(i.l2capDisconnectChannel)
    i.l2capEncapSendData                     0x0001034c   Section        0  l2cap_output.o(i.l2capEncapSendData)
    i.l2capFindLocalCID                      0x00010400   Section        0  l2cap.o(i.l2capFindLocalCID)
    i.l2capFindLocalId                       0x0001042c   Section        0  l2cap.o(i.l2capFindLocalId)
    i.l2capFindPsm                           0x0001045c   Section        0  l2cap.o(i.l2capFindPsm)
    i.l2capFindRemoteCID                     0x0001048c   Section        0  l2cap.o(i.l2capFindRemoteCID)
    i.l2capFreeChannel                       0x000104c8   Section        0  l2cap.o(i.l2capFreeChannel)
    i.l2capFreePendingPkt                    0x000104fc   Section        0  l2cap.o(i.l2capFreePendingPkt)
    i.l2capFreeTxSDU                         0x0001052c   Section        0  l2cap_output.o(i.l2capFreeTxSDU)
    i.l2capGetCoChannelInfo                  0x000105a0   Section        0  l2cap.o(i.l2capGetCoChannelInfo)
    i.l2capHandleConnStatusCB                0x000105f8   Section        0  l2cap.o(i.l2capHandleConnStatusCB)
    i.l2capHandleRxError                     0x00010624   Section        0  l2cap.o(i.l2capHandleRxError)
    i.l2capHandleTimerCB                     0x0001062e   Section        0  l2cap.o(i.l2capHandleTimerCB)
    i.l2capNotifyChannelEstEvt               0x0001064a   Section        0  l2cap_output.o(i.l2capNotifyChannelEstEvt)
    i.l2capNotifyChannelTermEvt              0x0001069e   Section        0  l2cap_output.o(i.l2capNotifyChannelTermEvt)
    i.l2capNotifyCreditEvt                   0x000106d8   Section        0  l2cap_output.o(i.l2capNotifyCreditEvt)
    i.l2capNotifyData                        0x00010758   Section        0  l2cap_output.o(i.l2capNotifyData)
    i.l2capNotifyEvent                       0x0001079e   Section        0  l2cap_output.o(i.l2capNotifyEvent)
    i.l2capNotifySignal                      0x000107ec   Section        0  l2cap_output.o(i.l2capNotifySignal)
    i.l2capNumActiveChannnels                0x0001083c   Section        0  l2cap.o(i.l2capNumActiveChannnels)
    i.l2capParseCmdReject                    0x0001087c   Section        0  l2cap_input.o(i.l2capParseCmdReject)
    i.l2capParseConnectRsp                   0x000108bc   Section        0  l2cap_input.o(i.l2capParseConnectRsp)
    i.l2capParseDisconnectReq                0x000108fa   Section        0  l2cap_input.o(i.l2capParseDisconnectReq)
    i.l2capParseDisconnectRsp                0x0001091a   Section        0  l2cap_input.o(i.l2capParseDisconnectRsp)
    i.l2capParsePacket                       0x0001093a   Section        0  l2cap_input.o(i.l2capParsePacket)
    i.l2capParseParamUpdateRsp               0x0001099a   Section        0  l2cap_input.o(i.l2capParseParamUpdateRsp)
    i.l2capParseSignalHdr                    0x000109b0   Section        0  l2cap_input.o(i.l2capParseSignalHdr)
    i.l2capProcessConnectReq                 0x000109c4   Section        0  l2cap_input.o(i.l2capProcessConnectReq)
    i.l2capProcessReq                        0x00010a84   Section        0  l2cap_input.o(i.l2capProcessReq)
    i.l2capProcessRsp                        0x00010bb8   Section        0  l2cap_input.o(i.l2capProcessRsp)
    i.l2capProcessRxData                     0x00010cc8   Section        0  l2cap_input.o(i.l2capProcessRxData)
    i.l2capReassembleSegment                 0x00010dac   Section        0  l2cap_output.o(i.l2capReassembleSegment)
    i.l2capSendCmd                           0x00010ecc   Section        0  l2cap_output.o(i.l2capSendCmd)
    i.l2capSendConnectRsp                    0x00010f34   Section        0  l2cap_sdu.o(i.l2capSendConnectRsp)
    i.l2capSendFCPkt                         0x00010fbc   Section        0  l2cap_output.o(i.l2capSendFCPkt)
    i.l2capSendNextSegment                   0x0001100c   Section        0  l2cap_output.o(i.l2capSendNextSegment)
    i.l2capSendPkt                           0x000110a4   Section        0  l2cap_output.o(i.l2capSendPkt)
    i.l2capSendReq                           0x000110e4   Section        0  l2cap_output.o(i.l2capSendReq)
    i.l2capSendSegment                       0x00011180   Section        0  l2cap_output.o(i.l2capSendSegment)
    i.l2capStartTimer                        0x00011240   Section        0  l2cap.o(i.l2capStartTimer)
    i.l2capStopTimer                         0x0001126c   Section        0  l2cap.o(i.l2capStopTimer)
    i.l2capStoreFCPkt                        0x0001127c   Section        0  l2cap_output.o(i.l2capStoreFCPkt)
    i.leftshift_onebit                       0x000112a4   Section        0  sm.o(i.leftshift_onebit)
    i.linkDB_Add                             0x000112c0   Section        0  linkdb.o(i.linkDB_Add)
    i.linkDB_Authen                          0x00011330   Section        0  linkdb.o(i.linkDB_Authen)
    i.linkDB_Find                            0x00011388   Section        0  linkdb.o(i.linkDB_Find)
    i.linkDB_FindFirst                       0x000113b8   Section        0  linkdb.o(i.linkDB_FindFirst)
    i.linkDB_GetHandleFromSMEvtID            0x000113f4   Section        0  linkdb.o(i.linkDB_GetHandleFromSMEvtID)
    i.linkDB_GetPairingParam                 0x0001142c   Section        0  linkdb.o(i.linkDB_GetPairingParam)
    i.linkDB_GetSMEvtID                      0x00011484   Section        0  linkdb.o(i.linkDB_GetSMEvtID)
    i.linkDB_Init                            0x000114d0   Section        0  linkdb.o(i.linkDB_Init)
    i.linkDB_MTU                             0x00011534   Section        0  linkdb.o(i.linkDB_MTU)
    i.linkDB_NeedSendKey                     0x00011544   Section        0  linkdb.o(i.linkDB_NeedSendKey)
    i.linkDB_NumActive                       0x0001158c   Section        0  linkdb.o(i.linkDB_NumActive)
    i.linkDB_NumConns                        0x000115b8   Section        0  linkdb.o(i.linkDB_NumConns)
    i.linkDB_PerformFunc                     0x000115c4   Section        0  linkdb.o(i.linkDB_PerformFunc)
    i.linkDB_PeripheralLinkNum               0x000115f4   Section        0  linkdb.o(i.linkDB_PeripheralLinkNum)
    i.linkDB_Register                        0x0001162c   Section        0  linkdb.o(i.linkDB_Register)
    i.linkDB_Remove                          0x00011650   Section        0  linkdb.o(i.linkDB_Remove)
    i.linkDB_Role                            0x00011686   Section        0  linkdb.o(i.linkDB_Role)
    i.linkDB_State                           0x00011694   Section        0  linkdb.o(i.linkDB_State)
    i.linkDB_UpdateMTU                       0x000116b4   Section        0  linkdb.o(i.linkDB_UpdateMTU)
    i.llAdvTraverseallChannel                0x000116d0   Section        0  ll_advertise.o(i.llAdvTraverseallChannel)
    i.llAdvertiseCreateCore                  0x00011724   Section        0  ll_advertise.o(i.llAdvertiseCreateCore)
    llAdvertiseCreateCore                    0x00011725   Thumb Code    76  ll_advertise.o(i.llAdvertiseCreateCore)
    i.llAdvertiseSet                         0x00011784   Section        0  ll_advertise.o(i.llAdvertiseSet)
    i.llAdvertiseStart                       0x00011890   Section        0  ll_advertise.o(i.llAdvertiseStart)
    i.llSlaveCreateCore                      0x0001191c   Section        0  ll_slave.o(i.llSlaveCreateCore)
    llSlaveCreateCore                        0x0001191d   Thumb Code   156  ll_slave.o(i.llSlaveCreateCore)
    i.llSlaveSetFirstTimer                   0x000119c4   Section        0  ll_slave.o(i.llSlaveSetFirstTimer)
    llSlaveSetFirstTimer                     0x000119c5   Thumb Code   260  ll_slave.o(i.llSlaveSetFirstTimer)
    i.ll_advertise_process                   0x00011ae8   Section        0  ll_advertise.o(i.ll_advertise_process)
    i.ll_advertise_tx                        0x00011eec   Section        0  ll_advertise.o(i.ll_advertise_tx)
    ll_advertise_tx                          0x00011eed   Thumb Code   352  ll_advertise.o(i.ll_advertise_tx)
    i.ll_connect_action_in_connintervaltimeout 0x00012078   Section        0  ll_connect.o(i.ll_connect_action_in_connintervaltimeout)
    i.ll_connect_auth_timeout                0x00012304   Section        0  ll_connect.o(i.ll_connect_auth_timeout)
    i.ll_connect_calculate_effective_len     0x0001231e   Section        0  ll_connect.o(i.ll_connect_calculate_effective_len)
    i.ll_connect_change_connect_point        0x000123a0   Section        0  ll_connect.o(i.ll_connect_change_connect_point)
    i.ll_connect_event_continue              0x0001254c   Section        0  ll_connect.o(i.ll_connect_event_continue)
    i.ll_connect_flowcontrol_init            0x000125fc   Section        0  ll_connect.o(i.ll_connect_flowcontrol_init)
    i.ll_connect_get_master_number           0x00012608   Section        0  ll_connect.o(i.ll_connect_get_master_number)
    i.ll_connect_get_slave_number            0x00012624   Section        0  ll_connect.o(i.ll_connect_get_slave_number)
    i.ll_connect_get_update_point            0x00012640   Section        0  ll_connect.o(i.ll_connect_get_update_point)
    i.ll_connect_init_dataLen                0x000126c8   Section        0  ll_connect.o(i.ll_connect_init_dataLen)
    i.ll_connect_init_pingOffset             0x0001274c   Section        0  ll_connect.o(i.ll_connect_init_pingOffset)
    i.ll_connect_parse_datapdu_head          0x00012776   Section        0  ll_connect.o(i.ll_connect_parse_datapdu_head)
    i.ll_connect_procedure_timeout           0x0001279c   Section        0  ll_connect.o(i.ll_connect_procedure_timeout)
    i.ll_connect_recv_data                   0x000127bc   Section        0  ll_connect.o(i.ll_connect_recv_data)
    i.ll_connect_send_data                   0x00012870   Section        0  ll_connect.o(i.ll_connect_send_data)
    i.ll_connect_set_auth_timeout            0x00012970   Section        0  ll_connect.o(i.ll_connect_set_auth_timeout)
    i.ll_connect_set_connect_timeout         0x000129b0   Section        0  ll_connect.o(i.ll_connect_set_connect_timeout)
    i.ll_connect_set_procedure_timeout       0x000129dc   Section        0  ll_connect.o(i.ll_connect_set_procedure_timeout)
    i.ll_connect_supervision_timeout         0x00012a08   Section        0  ll_connect.o(i.ll_connect_supervision_timeout)
    i.ll_connect_update_get_offset           0x00012a30   Section        0  ll_connect.o(i.ll_connect_update_get_offset)
    i.ll_get_prime_number                    0x00012adc   Section        0  ll.o(i.ll_get_prime_number)
    i.ll_hw_api_rx_set_txlen                 0x00012b04   Section        0  ip.o(i.ll_hw_api_rx_set_txlen)
    i.ll_hw_api_set_pkt_dec                  0x00012b68   Section        0  ip.o(i.ll_hw_api_set_pkt_dec)
    i.ll_hw_api_set_pkt_enc                  0x00012b88   Section        0  ip.o(i.ll_hw_api_set_pkt_enc)
    i.ll_hw_temp_sample                      0x00012ba8   Section        0  tmos_hw.o(i.ll_hw_temp_sample)
    i.ll_hw_timer_slave_recv_timeout         0x00012c1c   Section        0  ll_slave.o(i.ll_hw_timer_slave_recv_timeout)
    ll_hw_timer_slave_recv_timeout           0x00012c1d   Thumb Code    22  ll_slave.o(i.ll_hw_timer_slave_recv_timeout)
    i.ll_hw_timer_window_widening            0x00012c34   Section        0  ll_connect.o(i.ll_hw_timer_window_widening)
    i.ll_resolvinglist_checkRPA              0x00012c68   Section        0  ll_resolvinglist.o(i.ll_resolvinglist_checkRPA)
    ll_resolvinglist_checkRPA                0x00012c69   Thumb Code    82  ll_resolvinglist.o(i.ll_resolvinglist_checkRPA)
    i.ll_resolvinglist_renew_rpa             0x00012cbc   Section        0  ll_resolvinglist.o(i.ll_resolvinglist_renew_rpa)
    i.ll_resolvinglist_renew_set             0x00012d04   Section        0  ll_resolvinglist.o(i.ll_resolvinglist_renew_set)
    i.ll_resolvinglist_timeout_renew_rpa     0x00012d18   Section        0  ll_resolvinglist.o(i.ll_resolvinglist_timeout_renew_rpa)
    i.ll_slave_check_connect_point           0x00012d68   Section        0  ll_connect.o(i.ll_slave_check_connect_point)
    i.ll_slave_process                       0x00012f10   Section        0  ll_slave.o(i.ll_slave_process)
    i.ll_slave_process_after_tx              0x00013bf0   Section        0  ll_slave.o(i.ll_slave_process_after_tx)
    ll_slave_process_after_tx                0x00013bf1   Thumb Code   644  ll_slave.o(i.ll_slave_process_after_tx)
    i.ll_slave_process_event                 0x00013e7c   Section        0  ll_slave.o(i.ll_slave_process_event)
    ll_slave_process_event                   0x00013e7d   Thumb Code   588  ll_slave.o(i.ll_slave_process_event)
    i.lwns_addr_cmp                          0x000140e0   Section        0  lwns_addr.o(i.lwns_addr_cmp)
    i.lwns_addr_copy                         0x000140f0   Section        0  lwns_addr.o(i.lwns_addr_copy)
    i.lwns_addr_set                          0x00014100   Section        0  lwns_addr.o(i.lwns_addr_set)
    i.lwns_broadcast_input                   0x00014130   Section        0  lwns_broadcast.o(i.lwns_broadcast_input)
    i.lwns_buffer_addr                       0x00014154   Section        0  lwns_buffer.o(i.lwns_buffer_addr)
    i.lwns_buffer_attr                       0x00014164   Section        0  lwns_buffer.o(i.lwns_buffer_attr)
    i.lwns_buffer_compact                    0x00014170   Section        0  lwns_buffer.o(i.lwns_buffer_compact)
    i.lwns_buffer_datalen                    0x0001419c   Section        0  lwns_buffer.o(i.lwns_buffer_datalen)
    i.lwns_buffer_dataptr                    0x000141a8   Section        0  lwns_buffer.o(i.lwns_buffer_dataptr)
    i.lwns_buffer_hdralloc                   0x000141b8   Section        0  lwns_buffer.o(i.lwns_buffer_hdralloc)
    i.lwns_buffer_hdrptr                     0x000141ec   Section        0  lwns_buffer.o(i.lwns_buffer_hdrptr)
    i.lwns_buffer_hdrreduce                  0x000141fc   Section        0  lwns_buffer.o(i.lwns_buffer_hdrreduce)
    i.lwns_buffer_set_addr                   0x0001421c   Section        0  lwns_buffer.o(i.lwns_buffer_set_addr)
    i.lwns_buffer_set_attr                   0x00014234   Section        0  lwns_buffer.o(i.lwns_buffer_set_attr)
    i.lwns_buffer_set_bufferlen              0x00014240   Section        0  lwns_buffer.o(i.lwns_buffer_set_bufferlen)
    i.lwns_buffer_totlen                     0x0001424c   Section        0  lwns_buffer.o(i.lwns_buffer_totlen)
    i.lwns_packetassembly_create             0x00014268   Section        0  lwns_packetassembly.o(i.lwns_packetassembly_create)
    i.lwns_packetassembly_hdrsize            0x00014288   Section        0  lwns_packetassembly.o(i.lwns_packetassembly_hdrsize)
    i.lwns_qbuf_datalen                      0x0001429c   Section        0  lwns_buffer.o(i.lwns_qbuf_datalen)
    i.lwns_rgossip_close                     0x000142a2   Section        0  lwns_rgossip.o(i.lwns_rgossip_close)
    i.lwns_rgossip_open                      0x000142c4   Section        0  lwns_rgossip.o(i.lwns_rgossip_open)
    i.lwns_route_discovery_open              0x000142e4   Section        0  lwns_route.o(i.lwns_route_discovery_open)
    i.padding                                0x00014334   Section        0  sm.o(i.padding)
    i.reportStatusChange                     0x0001435c   Section        0  linkdb.o(i.reportStatusChange)
    reportStatusChange                       0x0001435d   Thumb Code    32  linkdb.o(i.reportStatusChange)
    i.rf_hop_heart_beat                      0x00014380   Section        0  rf_fh.o(i.rf_hop_heart_beat)
    i.sendAuthEvent                          0x000143fc   Section        0  gap.o(i.sendAuthEvent)
    i.sendTerminateEvent                     0x000144cc   Section        0  gap.o(i.sendTerminateEvent)
    i.setupInitiatorKeys                     0x000144fc   Section        0  sm.o(i.setupInitiatorKeys)
    i.smDetermineKeySize                     0x0001454a   Section        0  sm.o(i.smDetermineKeySize)
    i.smEndPairing                           0x00014568   Section        0  sm.o(i.smEndPairing)
    i.smFreePairingParams                    0x000145b0   Section        0  sm.o(i.smFreePairingParams)
    i.smGenerateConfirm                      0x00014600   Section        0  sm.o(i.smGenerateConfirm)
    i.smGeneratePairingReqRsp                0x00014624   Section        0  sm.o(i.smGeneratePairingReqRsp)
    i.smGenerateRandBuf                      0x00014658   Section        0  gap.o(i.smGenerateRandBuf)
    i.smGenerateRandMsg                      0x00014680   Section        0  sm.o(i.smGenerateRandMsg)
    i.smInitiatorSendNextKeyInfo             0x000146a4   Section        0  sm.o(i.smInitiatorSendNextKeyInfo)
    i.smLinkCheck                            0x00014804   Section        0  sm.o(i.smLinkCheck)
    i.smNextPairingState                     0x00014824   Section        0  sm.o(i.smNextPairingState)
    i.smPairingSendEncInfo                   0x00014864   Section        0  sm.o(i.smPairingSendEncInfo)
    i.smPairingSendIdentityAddrInfo          0x00014878   Section        0  sm.o(i.smPairingSendIdentityAddrInfo)
    i.smPairingSendIdentityInfo              0x000148a0   Section        0  sm.o(i.smPairingSendIdentityInfo)
    i.smPairingSendMasterID                  0x000148b4   Section        0  sm.o(i.smPairingSendMasterID)
    i.smPairingSendSingingInfo               0x000148dc   Section        0  sm.o(i.smPairingSendSingingInfo)
    i.smProcessDataMsg                       0x000148f0   Section        0  sm.o(i.smProcessDataMsg)
    i.smProcessEncryptChange                 0x000149b8   Section        0  sm.o(i.smProcessEncryptChange)
    i.smProcessPairingReq                    0x00014a74   Section        0  sm.o(i.smProcessPairingReq)
    i.smProcessRandComplete                  0x00014ac0   Section        0  sm.o(i.smProcessRandComplete)
    i.smProcessTMOSMsg                       0x00014b38   Section        0  sm.o(i.smProcessTMOSMsg)
    i.smResponderProcessLTKReq               0x00014bc0   Section        0  sm.o(i.smResponderProcessLTKReq)
    i.smResponderSendNextKeyInfo             0x00014d40   Section        0  sm.o(i.smResponderSendNextKeyInfo)
    i.smSavePairInfo                         0x00014ef8   Section        0  sm.o(i.smSavePairInfo)
    i.smSendFailAndEnd                       0x0001505c   Section        0  sm.o(i.smSendFailAndEnd)
    i.smSendSMMsg                            0x00015080   Section        0  sm.o(i.smSendSMMsg)
    i.smSetPairingReqRsp                     0x000150ca   Section        0  sm.o(i.smSetPairingReqRsp)
    i.smStartEncryption                      0x00015104   Section        0  sm.o(i.smStartEncryption)
    i.smStartRspTimer                        0x00015124   Section        0  sm.o(i.smStartRspTimer)
    i.smStopRspTimer                         0x00015150   Section        0  sm.o(i.smStopRspTimer)
    i.smTimedOut                             0x00015164   Section        0  sm.o(i.smTimedOut)
    i.smUint8ToAuthReq                       0x0001517c   Section        0  sm.o(i.smUint8ToAuthReq)
    i.sm_CMAC                                0x00015180   Section        0  sm.o(i.sm_CMAC)
    i.sm_ah                                  0x000152a6   Section        0  sm.o(i.sm_ah)
    i.sm_c1                                  0x00015300   Section        0  sm.o(i.sm_c1)
    i.sm_c1new                               0x00015382   Section        0  sm.o(i.sm_c1new)
    i.sm_s1                                  0x00015462   Section        0  sm.o(i.sm_s1)
    i.sm_xor                                 0x000154c4   Section        0  sm.o(i.sm_xor)
    i.smpBuildEncInfo                        0x000154da   Section        0  sm.o(i.smpBuildEncInfo)
    i.smpBuildIdentityAddrInfo               0x000154fa   Section        0  sm.o(i.smpBuildIdentityAddrInfo)
    i.smpBuildIdentityInfo                   0x0001551e   Section        0  sm.o(i.smpBuildIdentityInfo)
    i.smpBuildMasterID                       0x0001553e   Section        0  sm.o(i.smpBuildMasterID)
    i.smpBuildPairingConfirm                 0x00015568   Section        0  sm.o(i.smpBuildPairingConfirm)
    i.smpBuildPairingFailed                  0x00015588   Section        0  sm.o(i.smpBuildPairingFailed)
    i.smpBuildPairingRandom                  0x000155a0   Section        0  sm.o(i.smpBuildPairingRandom)
    i.smpBuildPairingReq                     0x000155c0   Section        0  sm.o(i.smpBuildPairingReq)
    i.smpBuildPairingReqRsp                  0x000155ce   Section        0  sm.o(i.smpBuildPairingReqRsp)
    i.smpBuildPairingRsp                     0x00015660   Section        0  sm.o(i.smpBuildPairingRsp)
    i.smpBuildSecurityReq                    0x0001566e   Section        0  sm.o(i.smpBuildSecurityReq)
    i.smpBuildSigningInfo                    0x00015686   Section        0  sm.o(i.smpBuildSigningInfo)
    i.smpInitiatorProcessIncoming            0x000156a6   Section        0  sm.o(i.smpInitiatorProcessIncoming)
    i.smpInitiatorProcessPairingRsp          0x0001586e   Section        0  sm.o(i.smpInitiatorProcessPairingRsp)
    i.smpParseEncInfo                        0x0001592c   Section        0  sm.o(i.smpParseEncInfo)
    i.smpParseIdentityAddrInfo               0x0001594a   Section        0  sm.o(i.smpParseIdentityAddrInfo)
    i.smpParseIdentityInfo                   0x0001596c   Section        0  sm.o(i.smpParseIdentityInfo)
    i.smpParseMasterID                       0x0001598a   Section        0  sm.o(i.smpParseMasterID)
    i.smpParsePairingConfirm                 0x000159b2   Section        0  sm.o(i.smpParsePairingConfirm)
    i.smpParsePairingFailed                  0x000159d0   Section        0  sm.o(i.smpParsePairingFailed)
    i.smpParsePairingRandom                  0x000159f0   Section        0  sm.o(i.smpParsePairingRandom)
    i.smpParsePairingReq                     0x00015a10   Section        0  sm.o(i.smpParsePairingReq)
    i.smpParseSecurityReq                    0x00015b0c   Section        0  sm.o(i.smpParseSecurityReq)
    i.smpParseSigningInfo                    0x00015b20   Section        0  sm.o(i.smpParseSigningInfo)
    i.smpResponderProcessIncoming            0x00015b3e   Section        0  sm.o(i.smpResponderProcessIncoming)
    i.smpResponderProcessPairingReq          0x00015d0c   Section        0  sm.o(i.smpResponderProcessPairingReq)
    i.tmosFindTask                           0x00015dac   Section        0  tmos.o(i.tmosFindTask)
    tmosFindTask                             0x00015dad   Thumb Code    28  tmos.o(i.tmosFindTask)
    i.tmos_bm_adjust_header                  0x00015dcc   Section        0  memory.o(i.tmos_bm_adjust_header)
    i.tmos_clear_event                       0x00015e00   Section        0  tmos.o(i.tmos_clear_event)
    i.tmos_get_task_timer                    0x00015e24   Section        0  tmos.o(i.tmos_get_task_timer)
    i.tmos_isbufset                          0x00015e36   Section        0  tmos.o(i.tmos_isbufset)
    i.tmos_memcmp                            0x00015e54   Section        0  tmos.o(i.tmos_memcmp)
    i.tmos_memcpy                            0x00015e70   Section        0  tmos.o(i.tmos_memcpy)
    i.tmos_memdup                            0x00015e88   Section        0  tmos.o(i.tmos_memdup)
    i.tmos_memory_allocate                   0x00015ea8   Section        0  memory.o(i.tmos_memory_allocate)
    i.tmos_memory_free                       0x00015f54   Section        0  memory.o(i.tmos_memory_free)
    i.tmos_memory_init                       0x00016000   Section        0  memory.o(i.tmos_memory_init)
    i.tmos_memset                            0x00016060   Section        0  tmos.o(i.tmos_memset)
    i.tmos_msg_allocate                      0x00016070   Section        0  message.o(i.tmos_msg_allocate)
    i.tmos_msg_deallocate                    0x00016098   Section        0  message.o(i.tmos_msg_deallocate)
    i.tmos_msg_enqueue                       0x000160b8   Section        0  message.o(i.tmos_msg_enqueue)
    i.tmos_msg_init                          0x000160dc   Section        0  message.o(i.tmos_msg_init)
    i.tmos_msg_receive                       0x000160e8   Section        0  message.o(i.tmos_msg_receive)
    i.tmos_msg_send                          0x00016158   Section        0  message.o(i.tmos_msg_send)
    i.tmos_rand                              0x000161b0   Section        0  tmos.o(i.tmos_rand)
    i.tmos_revmemcpy                         0x000161e8   Section        0  tmos.o(i.tmos_revmemcpy)
    i.tmos_set_event                         0x000161fc   Section        0  tmos.o(i.tmos_set_event)
    i.tmos_snv_clear                         0x00016220   Section        0  tmos_snv.o(i.tmos_snv_clear)
    i.tmos_snv_compact                       0x00016264   Section        0  tmos_snv.o(i.tmos_snv_compact)
    i.tmos_snv_init                          0x00016268   Section        0  tmos_snv.o(i.tmos_snv_init)
    i.tmos_snv_notify                        0x0001629c   Section        0  tmos_snv.o(i.tmos_snv_notify)
    i.tmos_snv_read                          0x000162dc   Section        0  tmos_snv.o(i.tmos_snv_read)
    i.tmos_snv_write                         0x00016364   Section        0  tmos_snv.o(i.tmos_snv_write)
    i.tmos_start_callback_task               0x00016410   Section        0  tmos.o(i.tmos_start_callback_task)
    i.tmos_start_reload_task                 0x0001647c   Section        0  tmos.o(i.tmos_start_reload_task)
    i.tmos_start_task                        0x000164a0   Section        0  tmos.o(i.tmos_start_task)
    i.tmos_stop_callback_task                0x00016514   Section        0  tmos.o(i.tmos_stop_callback_task)
    i.tmos_stop_task                         0x0001655c   Section        0  tmos.o(i.tmos_stop_task)
    i.tmos_strlen                            0x00016582   Section        0  tmos.o(i.tmos_strlen)
    i.tmos_update_callback_timer             0x00016594   Section        0  tmos.o(i.tmos_update_callback_timer)
    i.xor_128                                0x000165f8   Section        0  sm.o(i.xor_128)
    .constdata                               0x0001660e   Section        3  lwns_adapter_blemesh_mac.o(.constdata)
    ble_phy_channelmap                       0x0001660e   Data           3  lwns_adapter_blemesh_mac.o(.constdata)
    .constdata                               0x00016614   Section       92  lwns_mesh_example.o(.constdata)
    device_addr                              0x00016614   Data          78  lwns_mesh_example.o(.constdata)
    callbacks                                0x00016664   Data          12  lwns_mesh_example.o(.constdata)
    .constdata                               0x00016670   Section       20  ip.o(.constdata)
    .constdata                               0x00016684   Section       19  lwns.o(.constdata)
    LWNS_LIB_VER                             0x00016684   Data          19  lwns.o(.constdata)
    .constdata                               0x00016697   Section        6  lwns_addr.o(.constdata)
    .constdata                               0x0001669d   Section        6  lwns_broadcast.o(.constdata)
    lwns_lib_broadcast_attrs                 0x0001669d   Data           6  lwns_broadcast.o(.constdata)
    .constdata                               0x000166a4   Section       38  lwns_mesh.o(.constdata)
    lwns_lib_multihop_callbacks              0x000166a4   Data           8  lwns_mesh.o(.constdata)
    lwns_lib_mesh_multihop_callbacks         0x000166ac   Data           8  lwns_mesh.o(.constdata)
    lwns_lib_mesh_route_callbacks            0x000166b4   Data           8  lwns_mesh.o(.constdata)
    lwns_lib_multihop_attrs                  0x000166bc   Data          14  lwns_mesh.o(.constdata)
    .constdata                               0x000166cc   Section       12  lwns_netflood.o(.constdata)
    lwns_lib_netflood_callbacks              0x000166cc   Data          12  lwns_netflood.o(.constdata)
    .constdata                               0x000166d8   Section       20  lwns_route.o(.constdata)
    rrep_callbacks                           0x000166d8   Data           8  lwns_route.o(.constdata)
    rreq_callbacks                           0x000166e0   Data          12  lwns_route.o(.constdata)
    .constdata                               0x000166ec   Section       24  lwns_unicast.o(.constdata)
    lwns_lib_unicast_attrs                   0x000166ec   Data           8  lwns_unicast.o(.constdata)
    lwns_lib_uc_callbacks                    0x000166f4   Data           8  lwns_unicast.o(.constdata)
    lwns_lib_suc_callbacks                   0x000166fc   Data           8  lwns_unicast.o(.constdata)
    .constdata                               0x00016704   Section       16  ll_slave.o(.constdata)
    .constdata                               0x00016714   Section       96  gattservapp.o(.constdata)
    .constdata                               0x00016774   Section       41  sm.o(.constdata)
    .constdata                               0x000167a0   Section        8  lwns_rgossip.o(.constdata)
    lwns_lib_rgossip_callbacks               0x000167a0   Data           8  lwns_rgossip.o(.constdata)
    .constdata                               0x000167a8   Section       23  ll.o(.constdata)
    .constdata                               0x000167bf   Section       16  att.o(.constdata)
    .constdata                               0x000167d0   Section        8  gapgattserver.o(.constdata)
    gapService                               0x000167d0   Data           8  gapgattserver.o(.constdata)
    .constdata                               0x000167d8   Section       42  gatt_uuid.o(.constdata)
    .constdata                               0x00016802   Section        2  gatt_uuid.o(.constdata)
    .data                                    0x20000000   Section        1  mcu.o(.data)
    .data                                    0x20000004   Section        4  rtc.o(.data)
    .data                                    0x20000008   Section        2  ch57x_flash.o(.data)
    .data                                    0x2000000c   Section       36  lwns_adapter_blemesh_mac.o(.data)
    ble_phy_channelmap_send_seq              0x2000000c   Data           1  lwns_adapter_blemesh_mac.o(.data)
    ble_phy_channelmap_receive_seq           0x2000000d   Data           1  lwns_adapter_blemesh_mac.o(.data)
    ble_phy_send_cnt                         0x2000000e   Data           1  lwns_adapter_blemesh_mac.o(.data)
    lwns_adapter_taskid                      0x2000000f   Data           1  lwns_adapter_blemesh_mac.o(.data)
    lwns_phyoutput_taskid                    0x20000010   Data           1  lwns_adapter_blemesh_mac.o(.data)
    blemesh_phy_manage_list_head             0x20000014   Data           4  lwns_adapter_blemesh_mac.o(.data)
    ble_lwns_fuc_interface                   0x20000018   Data          24  lwns_adapter_blemesh_mac.o(.data)
    .data                                    0x20000030   Section       16  lwns_sec.o(.data)
    lwns_sec_key                             0x20000030   Data          16  lwns_sec.o(.data)
    .data                                    0x20000040   Section       12  lwns_mesh_example.o(.data)
    mesh_test_send_dst                       0x20000040   Data           1  lwns_mesh_example.o(.data)
    lwns_mesh_test_taskID                    0x20000041   Data           1  lwns_mesh_example.o(.data)
    TX_DATA                                  0x20000042   Data          10  lwns_mesh_example.o(.data)
    .data                                    0x2000004c   Section       24  tmos.o(.data)
    holdrand                                 0x2000004c   Data           4  tmos.o(.data)
    .data                                    0x20000064   Section        4  message.o(.data)
    .data                                    0x20000068   Section        4  tmos_hw.o(.data)
    .data                                    0x2000006c   Section        4  aes.o(.data)
    .data                                    0x20000070   Section        4  lle.o(.data)
    .data                                    0x20000074   Section        8  ip.o(.data)
    .data                                    0x2000007c   Section       67  role.o(.data)
    .data                                    0x200000c0   Section        8  lwns.o(.data)
    lwns_lib_mac_seqno                       0x200000c0   Data           1  lwns.o(.data)
    .data                                    0x200000c8   Section        6  lwns_addr.o(.data)
    .data                                    0x200000d0   Section       28  lwns_buffer.o(.data)
    lwns_lib_hdrptr                          0x200000d0   Data           1  lwns_buffer.o(.data)
    lwns_lib_buflen                          0x200000d2   Data           2  lwns_buffer.o(.data)
    lwns_lib_bufptr                          0x200000d4   Data           2  lwns_buffer.o(.data)
    lwns_lib_buffer                          0x200000d8   Data           4  lwns_buffer.o(.data)
    lwns_lib_bufferptr                       0x200000dc   Data           4  lwns_buffer.o(.data)
    lwns_lib_bufmem                          0x200000e0   Data          12  lwns_buffer.o(.data)
    .data                                    0x200000ec   Section        4  lwns_route.o(.data)
    lwns_lib_route_table_list                0x200000ec   Data           4  lwns_route.o(.data)
    .data                                    0x200000f0   Section       20  lwns_route.o(.data)
    lwns_lib_route_max_time                  0x200000f0   Data           1  lwns_route.o(.data)
    lwns_lib_route_entry_duplicated          0x200000f1   Data           1  lwns_route.o(.data)
    lwns_lib_route_table                     0x200000f4   Data           4  lwns_route.o(.data)
    lwns_lib_route_mem                       0x200000f8   Data          12  lwns_route.o(.data)
    .data                                    0x20000104   Section       12  memory.o(.data)
    .data                                    0x20000110   Section        4  bb.o(.data)
    .data                                    0x20000114   Section        4  dma.o(.data)
    .data                                    0x20000118   Section        4  rfend.o(.data)
    .data                                    0x2000011c   Section        4  ll_connect.o(.data)
    .data                                    0x20000120   Section       42  gap.o(.data)
    terminateReason                          0x20000120   Data           1  gap.o(.data)
    terminateAllTaskID                       0x20000121   Data           1  gap.o(.data)
    pfnCentralCBs                            0x20000124   Data           4  gap.o(.data)
    pfnCentralConnCBs                        0x20000128   Data           4  gap.o(.data)
    pfnPeripheralCBs                         0x2000012c   Data           4  gap.o(.data)
    pfnPeripheralConnCBs                     0x20000130   Data           4  gap.o(.data)
    gapCurrentRandomAddr                     0x2000013c   Data           6  gap.o(.data)
    slaveUpdateReq                           0x20000142   Data           8  gap.o(.data)
    .data                                    0x2000014c   Section       20  gap_peripheral.o(.data)
    gapAdvAppTaskID                          0x2000014c   Data           1  gap_peripheral.o(.data)
    gapLimitedAdvertisingTimeout             0x2000014e   Data           2  gap_peripheral.o(.data)
    pGapAdData                               0x20000150   Data           4  gap_peripheral.o(.data)
    pGapAdvTokens                            0x20000154   Data           4  gap_peripheral.o(.data)
    pGapScanRspData                          0x20000158   Data           4  gap_peripheral.o(.data)
    gapPeripheralConnCBs                     0x2000015c   Data           4  gap_peripheral.o(.data)
    .data                                    0x20000160   Section       12  gatt.o(.data)
    gattPeriAppTaskID                        0x20000160   Data           1  gatt.o(.data)
    gattCentAppTaskID                        0x20000161   Data           1  gatt.o(.data)
    .data                                    0x2000016c   Section      112  gattservapp.o(.data)
    serviceChangedCharProps                  0x2000016c   Data           1  gattservapp.o(.data)
    reqTaskId                                0x2000016d   Data           1  gattservapp.o(.data)
    appTaskID                                0x2000016e   Data           1  gattservapp.o(.data)
    GATTServApp_TaskID                       0x2000016f   Data           1  gattservapp.o(.data)
    gattAddService                           0x20000170   Data           1  gattservapp.o(.data)
    nextHandle                               0x20000172   Data           2  gattservapp.o(.data)
    attrLen                                  0x20000174   Data           2  gattservapp.o(.data)
    pAttrValue                               0x20000178   Data           4  gattservapp.o(.data)
    serviceCBsList                           0x2000017c   Data           4  gattservapp.o(.data)
    pServiceList                             0x20000180   Data           4  gattservapp.o(.data)
    prepareWritesTbl                         0x20000184   Data           4  gattservapp.o(.data)
    gattService                              0x20000188   Data           8  gattservapp.o(.data)
    gattAttrTbl                              0x20000190   Data          64  gattservapp.o(.data)
    gattServiceCBs                           0x200001d0   Data          12  gattservapp.o(.data)
    .data                                    0x200001dc   Section       24  l2cap.o(.data)
    .data                                    0x200001f4   Section        8  linkdb.o(.data)
    .data                                    0x200001fc   Section       36  sm.o(.data)
    .data                                    0x20000220   Section       80  gapbondmgr.o(.data)
    gapBond_Peri_PairingMode                 0x20000220   Data           1  gapbondmgr.o(.data)
    gapBond_Peri_MITM                        0x20000221   Data           1  gapbondmgr.o(.data)
    gapBond_Peri_IOCap                       0x20000222   Data           1  gapbondmgr.o(.data)
    gapBond_Peri_OOBDataFlag                 0x20000223   Data           1  gapbondmgr.o(.data)
    gapBond_Peri_Bonding                     0x20000224   Data           1  gapbondmgr.o(.data)
    gapBond_Peri_KeyDistList                 0x20000225   Data           1  gapbondmgr.o(.data)
    gapBond_Cent_PairingMode                 0x20000226   Data           1  gapbondmgr.o(.data)
    gapBond_Cent_MITM                        0x20000227   Data           1  gapbondmgr.o(.data)
    gapBond_Cent_IOCap                       0x20000228   Data           1  gapbondmgr.o(.data)
    gapBond_Cent_OOBDataFlag                 0x20000229   Data           1  gapbondmgr.o(.data)
    gapBond_Cent_Bonding                     0x2000022a   Data           1  gapbondmgr.o(.data)
    gapBond_Cent_KeyDistList                 0x2000022b   Data           1  gapbondmgr.o(.data)
    gapBond_AutoFail                         0x2000022c   Data           1  gapbondmgr.o(.data)
    gapBond_AutoFailReason                   0x2000022d   Data           1  gapbondmgr.o(.data)
    gapBond_KeySize                          0x2000022e   Data           1  gapbondmgr.o(.data)
    gattCCFlag                               0x2000022f   Data           1  gapbondmgr.o(.data)
    gapBond_BondFailOption                   0x20000230   Data           1  gapbondmgr.o(.data)
    autoSyncWhiteList                        0x20000231   Data           1  gapbondmgr.o(.data)
    autoSyncResolveList                      0x20000232   Data           1  gapbondmgr.o(.data)
    eraseAllBonds                            0x20000233   Data           1  gapbondmgr.o(.data)
    gapBondMgr_TaskID                        0x20000237   Data           1  gapbondmgr.o(.data)
    gapBondMax                               0x20000238   Data           1  gapbondmgr.o(.data)
    bondIdx                                  0x20000239   Data           1  gapbondmgr.o(.data)
    service                                  0x2000023c   Data           2  gapbondmgr.o(.data)
    gapBond_Peri_Passcode                    0x20000240   Data           4  gapbondmgr.o(.data)
    gapBond_Cent_Passcode                    0x20000244   Data           4  gapbondmgr.o(.data)
    pGapBondCB                               0x20000248   Data           4  gapbondmgr.o(.data)
    pGapPeriBondCB                           0x2000024c   Data           4  gapbondmgr.o(.data)
    pGapCentBondCB                           0x20000250   Data           4  gapbondmgr.o(.data)
    pAuthEvt                                 0x20000254   Data           4  gapbondmgr.o(.data)
    pAttr                                    0x20000258   Data           4  gapbondmgr.o(.data)
    bonds                                    0x2000025c   Data           4  gapbondmgr.o(.data)
    gapBondCB                                0x20000268   Data           8  gapbondmgr.o(.data)
    .data                                    0x20000270   Section        4  peripheral.o(.data)
    pGapRoles_AppCGs                         0x20000270   Data           4  peripheral.o(.data)
    .data                                    0x20000274   Section        4  broadcaster.o(.data)
    .data                                    0x20000278   Section        4  lwns_neighbor.o(.data)
    lwns_lib_neighbor_table_list             0x20000278   Data           4  lwns_neighbor.o(.data)
    .data                                    0x2000027c   Section       20  lwns_neighbor.o(.data)
    lwns_lib_neighbor_mode                   0x2000027c   Data           1  lwns_neighbor.o(.data)
    lwns_lib_neighbor_table                  0x20000280   Data           4  lwns_neighbor.o(.data)
    lwns_lib_neighbor_mem                    0x20000284   Data          12  lwns_neighbor.o(.data)
    .data                                    0x20000290   Section        4  lwns_port.o(.data)
    lwns_lib_port_list_list                  0x20000290   Data           4  lwns_port.o(.data)
    .data                                    0x20000294   Section        4  lwns_port.o(.data)
    lwns_lib_port_list                       0x20000294   Data           4  lwns_port.o(.data)
    .data                                    0x20000298   Section        4  ll.o(.data)
    .data                                    0x2000029c   Section       16  host_input.o(.data)
    fragment                                 0x2000029c   Data           1  host_input.o(.data)
    .data                                    0x200002ac   Section        8  att.o(.data)
    .data                                    0x200002b4   Section       20  gap_central.o(.data)
    .data                                    0x200002c8   Section      176  gapgattserver.o(.data)
    deviceNameCharProps                      0x200002c8   Data           1  gapgattserver.o(.data)
    appearanceCharProps                      0x200002c9   Data           1  gapgattserver.o(.data)
    periConnParamCharProps                   0x200002ca   Data           1  gapgattserver.o(.data)
    centAddrResCharProps                     0x200002cb   Data           1  gapgattserver.o(.data)
    centAddrRes                              0x200002cc   Data           1  gapgattserver.o(.data)
    ggsAddService                            0x200002cd   Data           1  gapgattserver.o(.data)
    appearance                               0x200002ce   Data           2  gapgattserver.o(.data)
    ggs_AppCBs                               0x200002d0   Data           4  gapgattserver.o(.data)
    periConnParameters                       0x200002d4   Data           8  gapgattserver.o(.data)
    gapAttrTbl                               0x200002dc   Data         144  gapgattserver.o(.data)
    .data                                    0x20000378   Section        4  stdout.o(.data)
    .bss                                     0x2000037c   Section     8192  app_main.o(.bss)
    .bss                                     0x2000237c   Section     1932  lwns_adapter_blemesh_mac.o(.bss)
    qbuf_memp                                0x2000237c   Data        1092  lwns_adapter_blemesh_mac.o(.bss)
    route_entry_memp                         0x200027c0   Data         672  lwns_adapter_blemesh_mac.o(.bss)
    neighbor_memp                            0x20002a60   Data         104  lwns_adapter_blemesh_mac.o(.bss)
    blemesh_phy_manage_list                  0x20002ac8   Data          64  lwns_adapter_blemesh_mac.o(.bss)
    .bss                                     0x20002b08   Section      220  lwns_mesh_example.o(.bss)
    lwns_mesh_test                           0x20002b08   Data         220  lwns_mesh_example.o(.bss)
    .bss                                     0x20002be4   Section      112  tmos.o(.bss)
    .bss                                     0x20002c54   Section       24  ip.o(.bss)
    .bss                                     0x20002c6c   Section       64  rf_fh.o(.bss)
    .bss                                     0x20002cac   Section       63  role.o(.bss)
    .bss                                     0x20002cec   Section       34  lwns_buffer.o(.bss)
    .bss                                     0x20002d10   Section      276  lwns_buffer.o(.bss)
    lwns_lib_buffer_aligned                  0x20002d10   Data         276  lwns_buffer.o(.bss)
    .bss                                     0x20002e24   Section       20  lwns_htimer.o(.bss)
    lwns_lib_htimerlist                      0x20002e24   Data          20  lwns_htimer.o(.bss)
    .bss                                     0x20002e38   Section       20  lwns_route.o(.bss)
    .bss                                     0x20002e4c   Section       84  gap.o(.bss)
    .bss                                     0x20002ea0   Section       12  gap_peripheral.o(.bss)
    gapPeripheralCBs                         0x20002ea0   Data          12  gap_peripheral.o(.bss)
    .bss                                     0x20002eac   Section       54  gattservapp.o(.bss)
    rsp                                      0x20002eac   Data          24  gattservapp.o(.bss)
    serverInfoTbl                            0x20002ec4   Data          18  gattservapp.o(.bss)
    indCharCfg                               0x20002ed6   Data          12  gattservapp.o(.bss)
    .bss                                     0x20002ee2   Section       16  l2cap.o(.bss)
    .bss                                     0x20002ef4   Section       48  l2cap.o(.bss)
    .bss                                     0x20002f24   Section       48  linkdb.o(.bss)
    .bss                                     0x20002f54   Section       32  gapbondmgr.o(.bss)
    gapBond_Peri_OOBData                     0x20002f54   Data          16  gapbondmgr.o(.bss)
    gapBond_Cent_OOBData                     0x20002f64   Data          16  gapbondmgr.o(.bss)
    .bss                                     0x20002f74   Section       32  peripheral.o(.bss)
    gapRole_OldIRK                           0x20002f74   Data          16  peripheral.o(.bss)
    gapRole_OldSRK                           0x20002f84   Data          16  peripheral.o(.bss)
    .bss                                     0x20002f94   Section      176  ll.o(.bss)
    .bss                                     0x20003044   Section       12  gap_central.o(.bss)
    .bss                                     0x20003050   Section       22  gapgattserver.o(.bss)
    deviceName                               0x20003050   Data          22  gapgattserver.o(.bss)

    Global Symbols

    Symbol Name                              Value     Ov Type        Size  Object(Section)

    BuildAttributes$$THM_ISAv3M$S$PE$A:L22$X:L11$S22$IEEE1$IW$USESV6$~STKCKD$USESV7$~SHL$OSPACE$ROPI$EBA8$MICROLIB$REQ8$PRES8$EABIv2 0x00000000   Number         0  anon$$obj.o ABSOLUTE
    __ARM_use_no_argv                        0x00000000   Number         0  app_main.o ABSOLUTE
    __Vectors                                0x00000000   Data           4  startup_armcm0.o(RESET)
    _printf_a                                0x00000000   Number         0  stubs.o ABSOLUTE
    _printf_c                                0x00000000   Number         0  stubs.o ABSOLUTE
    _printf_charcount                        0x00000000   Number         0  stubs.o ABSOLUTE
    _printf_d                                0x00000000   Number         0  stubs.o ABSOLUTE
    _printf_e                                0x00000000   Number         0  stubs.o ABSOLUTE
    _printf_f                                0x00000000   Number         0  stubs.o ABSOLUTE
    _printf_flags                            0x00000000   Number         0  stubs.o ABSOLUTE
    _printf_fp_dec                           0x00000000   Number         0  stubs.o ABSOLUTE
    _printf_fp_hex                           0x00000000   Number         0  stubs.o ABSOLUTE
    _printf_g                                0x00000000   Number         0  stubs.o ABSOLUTE
    _printf_i                                0x00000000   Number         0  stubs.o ABSOLUTE
    _printf_int_dec                          0x00000000   Number         0  stubs.o ABSOLUTE
    _printf_l                                0x00000000   Number         0  stubs.o ABSOLUTE
    _printf_lc                               0x00000000   Number         0  stubs.o ABSOLUTE
    _printf_ll                               0x00000000   Number         0  stubs.o ABSOLUTE
    _printf_lld                              0x00000000   Number         0  stubs.o ABSOLUTE
    _printf_lli                              0x00000000   Number         0  stubs.o ABSOLUTE
    _printf_llo                              0x00000000   Number         0  stubs.o ABSOLUTE
    _printf_llu                              0x00000000   Number         0  stubs.o ABSOLUTE
    _printf_llx                              0x00000000   Number         0  stubs.o ABSOLUTE
    _printf_longlong_dec                     0x00000000   Number         0  stubs.o ABSOLUTE
    _printf_longlong_hex                     0x00000000   Number         0  stubs.o ABSOLUTE
    _printf_longlong_oct                     0x00000000   Number         0  stubs.o ABSOLUTE
    _printf_ls                               0x00000000   Number         0  stubs.o ABSOLUTE
    _printf_mbtowc                           0x00000000   Number         0  stubs.o ABSOLUTE
    _printf_n                                0x00000000   Number         0  stubs.o ABSOLUTE
    _printf_o                                0x00000000   Number         0  stubs.o ABSOLUTE
    _printf_p                                0x00000000   Number         0  stubs.o ABSOLUTE
    _printf_percent                          0x00000000   Number         0  stubs.o ABSOLUTE
    _printf_pre_padding                      0x00000000   Number         0  stubs.o ABSOLUTE
    _printf_return_value                     0x00000000   Number         0  stubs.o ABSOLUTE
    _printf_s                                0x00000000   Number         0  stubs.o ABSOLUTE
    _printf_sizespec                         0x00000000   Number         0  stubs.o ABSOLUTE
    _printf_str                              0x00000000   Number         0  stubs.o ABSOLUTE
    _printf_truncate_signed                  0x00000000   Number         0  stubs.o ABSOLUTE
    _printf_truncate_unsigned                0x00000000   Number         0  stubs.o ABSOLUTE
    _printf_u                                0x00000000   Number         0  stubs.o ABSOLUTE
    _printf_wc                               0x00000000   Number         0  stubs.o ABSOLUTE
    _printf_wctomb                           0x00000000   Number         0  stubs.o ABSOLUTE
    _printf_widthprec                        0x00000000   Number         0  stubs.o ABSOLUTE
    _printf_x                                0x00000000   Number         0  stubs.o ABSOLUTE
    __arm_fini_                               - Undefined Weak Reference
    __cpp_initialize__aeabi_                  - Undefined Weak Reference
    __cxa_finalize                            - Undefined Weak Reference
    _clock_init                               - Undefined Weak Reference
    _microlib_exit                            - Undefined Weak Reference
    __Vectors_End                            0x00000090   Data           0  startup_armcm0.o(RESET)
    __Vectors_Size                           0x00000090   Number         0  startup_armcm0.o ABSOLUTE
    __main                                   0x00000091   Thumb Code     0  entry.o(.ARM.Collect$$$$00000000)
    _main_stk                                0x00000091   Thumb Code     0  entry2.o(.ARM.Collect$$$$00000001)
    _main_scatterload                        0x00000095   Thumb Code     0  entry5.o(.ARM.Collect$$$$00000004)
    __main_after_scatterload                 0x00000099   Thumb Code     0  entry5.o(.ARM.Collect$$$$00000004)
    _main_clock                              0x00000099   Thumb Code     0  entry7b.o(.ARM.Collect$$$$00000008)
    _main_cpp_init                           0x00000099   Thumb Code     0  entry8b.o(.ARM.Collect$$$$0000000A)
    _main_init                               0x00000099   Thumb Code     0  entry9a.o(.ARM.Collect$$$$0000000B)
    __rt_lib_shutdown_fini                   0x000000a1   Thumb Code     0  entry12b.o(.ARM.Collect$$$$0000000E)
    __rt_final_cpp                           0x000000a5   Thumb Code     0  entry10a.o(.ARM.Collect$$$$0000000F)
    __rt_final_exit                          0x000000a5   Thumb Code     0  entry11a.o(.ARM.Collect$$$$00000011)
    lwns_htimer_update                       0x000000a9   Thumb Code    56  lwns_htimer.o(.highcode)
    Reset_Handler                            0x000000e5   Thumb Code     8  startup_armcm0.o(.text)
    HardFault_Handler                        0x000000ef   Thumb Code     0  startup_armcm0.o(.text)
    SVC_Handler                              0x000000ef   Thumb Code     2  startup_armcm0.o(.text)
    PendSV_Handler                           0x000000f1   Thumb Code     2  startup_armcm0.o(.text)
    SysTick_Handler                          0x000000f3   Thumb Code     2  startup_armcm0.o(.text)
    ADC_IRQHandler                           0x000000f5   Thumb Code     0  startup_armcm0.o(.text)
    BB_IRQHandler                            0x000000f5   Thumb Code     0  startup_armcm0.o(.text)
    ETH_IRQHandler                           0x000000f5   Thumb Code     0  startup_armcm0.o(.text)
    GPIO_IRQHandler                          0x000000f5   Thumb Code     0  startup_armcm0.o(.text)
    LED_IRQHandler                           0x000000f5   Thumb Code     0  startup_armcm0.o(.text)
    SLAVE_IRQHandler                         0x000000f5   Thumb Code     0  startup_armcm0.o(.text)
    SPI0_IRQHandler                          0x000000f5   Thumb Code     0  startup_armcm0.o(.text)
    SPI1_IRQHandler                          0x000000f5   Thumb Code     0  startup_armcm0.o(.text)
    TMR0_IRQHandler                          0x000000f5   Thumb Code     0  startup_armcm0.o(.text)
    TMR1_IRQHandler                          0x000000f5   Thumb Code     0  startup_armcm0.o(.text)
    TMR2_IRQHandler                          0x000000f5   Thumb Code     0  startup_armcm0.o(.text)
    TMR3_IRQHandler                          0x000000f5   Thumb Code     0  startup_armcm0.o(.text)
    UART0_IRQHandler                         0x000000f5   Thumb Code     0  startup_armcm0.o(.text)
    UART1_IRQHandler                         0x000000f5   Thumb Code     0  startup_armcm0.o(.text)
    UART2_IRQHandler                         0x000000f5   Thumb Code     0  startup_armcm0.o(.text)
    UART3_IRQHandler                         0x000000f5   Thumb Code     0  startup_armcm0.o(.text)
    USB_IRQHandler                           0x000000f5   Thumb Code     0  startup_armcm0.o(.text)
    WDT_IRQHandler                           0x000000f5   Thumb Code     0  startup_armcm0.o(.text)
    Lib_Calibration_LSI                      0x00000101   Thumb Code    16  mcu.o(.text)
    HAL_GetInterTempValue                    0x00000111   Thumb Code    38  mcu.o(.text)
    CH57X_BLEInit                            0x00000137   Thumb Code   162  mcu.o(.text)
    HAL_ProcessEvent                         0x000001d9   Thumb Code    94  mcu.o(.text)
    HAL_Init                                 0x00000237   Thumb Code    32  mcu.o(.text)
    LLE_IRQHandler                           0x00000257   Thumb Code     8  mcu.o(.text)
    RTC_SetTignTime                          0x000002d9   Thumb Code    36  rtc.o(.text)
    RTC_IRQHandler                           0x000002fd   Thumb Code    16  rtc.o(.text)
    HAL_TimeInit                             0x0000030d   Thumb Code    52  rtc.o(.text)
    ADC_DataCalib_Rough                      0x0000034d   Thumb Code    80  ch57x_adc.o(.text)
    ADC_DataCalib_Fine                       0x0000039d   Thumb Code    68  ch57x_adc.o(.text)
    ADC_ExtSingleChSampInit                  0x000003e1   Thumb Code    14  ch57x_adc.o(.text)
    ADC_ExtDiffChSampInit                    0x000003ef   Thumb Code    14  ch57x_adc.o(.text)
    ADC_InterTSSampInit                      0x000003fd   Thumb Code    20  ch57x_adc.o(.text)
    ADC_InterBATSampInit                     0x00000411   Thumb Code    12  ch57x_adc.o(.text)
    TouchKey_ChSampInit                      0x0000041d   Thumb Code    12  ch57x_adc.o(.text)
    ADC_ExcutSingleConver                    0x00000429   Thumb Code    20  ch57x_adc.o(.text)
    TouchKey_ExcutSingleConver               0x0000043d   Thumb Code    22  ch57x_adc.o(.text)
    ADC_GetCurrentTS                         0x00000453   Thumb Code    84  ch57x_adc.o(.text)
    SystemInit                               0x000004c9   Thumb Code    46  ch57x_clk.o(.text)
    SetSysClock                              0x000004f7   Thumb Code   174  ch57x_clk.o(.text)
    GetSysClock                              0x000005a5   Thumb Code    52  ch57x_clk.o(.text)
    HClk32M_Select                           0x000005d9   Thumb Code    36  ch57x_clk.o(.text)
    LClk32K_Select                           0x000005fd   Thumb Code    38  ch57x_clk.o(.text)
    HSECFG_Current                           0x00000623   Thumb Code    30  ch57x_clk.o(.text)
    HSECFG_Capacitance                       0x00000641   Thumb Code    28  ch57x_clk.o(.text)
    LSECFG_Current                           0x0000065d   Thumb Code    34  ch57x_clk.o(.text)
    LSECFG_Capacitance                       0x0000067f   Thumb Code    32  ch57x_clk.o(.text)
    Calibration_LSI                          0x0000069f   Thumb Code   322  ch57x_clk.o(.text)
    RTC_InitTime                             0x000007e1   Thumb Code   316  ch57x_clk.o(.text)
    RTC_GetTime                              0x0000091d   Thumb Code   352  ch57x_clk.o(.text)
    RTC_SetCycle32k                          0x00000a7d   Thumb Code    66  ch57x_clk.o(.text)
    RTC_GetCycle32k                          0x00000abf   Thumb Code    14  ch57x_clk.o(.text)
    RTC_TMRFunCfg                            0x00000acd   Thumb Code    40  ch57x_clk.o(.text)
    RTC_TRIGFunCfg                           0x00000af5   Thumb Code    66  ch57x_clk.o(.text)
    RTC_ModeFunDisable                       0x00000b37   Thumb Code    44  ch57x_clk.o(.text)
    RTC_GetITFlag                            0x00000b63   Thumb Code    22  ch57x_clk.o(.text)
    RTC_ClearITFlag                          0x00000b79   Thumb Code    22  ch57x_clk.o(.text)
    GetUniqueID                              0x00000b9d   Thumb Code    22  ch57x_flash.o(.text)
    GetMACAddress                            0x00000bb3   Thumb Code    22  ch57x_flash.o(.text)
    FlashBlockErase                          0x00000bc9   Thumb Code   226  ch57x_flash.o(.text)
    FlashWriteDW                             0x00000cab   Thumb Code   234  ch57x_flash.o(.text)
    FlashWriteBuf                            0x00000d95   Thumb Code   272  ch57x_flash.o(.text)
    GPIOA_ModeCfg                            0x00000eb5   Thumb Code    74  ch57x_gpio.o(.text)
    GPIOB_ModeCfg                            0x00000eff   Thumb Code    76  ch57x_gpio.o(.text)
    GPIOA_ITModeCfg                          0x00000f4b   Thumb Code    68  ch57x_gpio.o(.text)
    GPIOB_ITModeCfg                          0x00000f8f   Thumb Code    72  ch57x_gpio.o(.text)
    GPIOPinRemap                             0x00000fd7   Thumb Code    20  ch57x_gpio.o(.text)
    GPIOAGPPCfg                              0x00000feb   Thumb Code    20  ch57x_gpio.o(.text)
    NMI_Handler                              0x00001005   Thumb Code    98  ch57x_int.o(.text)
    LowPower_Halt_1                          0x00001067   Thumb Code    86  ch57x_int.o(.text)
    LowPower_Halt_2                          0x000010bd   Thumb Code   110  ch57x_int.o(.text)
    LowPower_Sleep                           0x0000112b   Thumb Code   110  ch57x_int.o(.text)
    LowPower_Shutdown                        0x00001199   Thumb Code   118  ch57x_int.o(.text)
    PWR_DCDCCfg                              0x00001221   Thumb Code    60  ch57x_pwr.o(.text)
    PWR_UnitModCfg                           0x0000125d   Thumb Code    90  ch57x_pwr.o(.text)
    PWR_PeriphClkCfg                         0x000012b7   Thumb Code    36  ch57x_pwr.o(.text)
    PWR_PeriphWakeUpCfg                      0x000012db   Thumb Code    36  ch57x_pwr.o(.text)
    PowerMonitor                             0x000012ff   Thumb Code    58  ch57x_pwr.o(.text)
    LowPower_Idle                            0x00001339   Thumb Code    14  ch57x_pwr.o(.text)
    EnterCodeUpgrade                         0x00001347   Thumb Code   102  ch57x_pwr.o(.text)
    SYS_GetInfoSta                           0x000013b9   Thumb Code    26  ch57x_sys.o(.text)
    SYS_ResetExecute                         0x000013d3   Thumb Code    24  ch57x_sys.o(.text)
    SYS_DisableAllIrq                        0x000013eb   Thumb Code    18  ch57x_sys.o(.text)
    SYS_RecoverIrq                           0x000013fd   Thumb Code     6  ch57x_sys.o(.text)
    SYS_GetSysTickCnt                        0x00001403   Thumb Code     6  ch57x_sys.o(.text)
    WWDG_ITCfg                               0x00001409   Thumb Code    34  ch57x_sys.o(.text)
    WWDG_ResetCfg                            0x0000142b   Thumb Code    34  ch57x_sys.o(.text)
    WWDG_ClearFlag                           0x0000144d   Thumb Code    24  ch57x_sys.o(.text)
    mDelayuS                                 0x00001465   Thumb Code    32  ch57x_sys.o(.text)
    mDelaymS                                 0x00001485   Thumb Code    28  ch57x_sys.o(.text)
    fputc                                    0x000014a1   Thumb Code    12  ch57x_sys.o(.text)
    UART1_BaudRateCfg                        0x000014bd   Thumb Code    34  ch57x_uart1.o(.text)
    UART1_DefInit                            0x000014df   Thumb Code    30  ch57x_uart1.o(.text)
    UART1_ByteTrigCfg                        0x000014fd   Thumb Code    16  ch57x_uart1.o(.text)
    UART1_INTCfg                             0x0000150d   Thumb Code    28  ch57x_uart1.o(.text)
    UART1_Reset                              0x00001529   Thumb Code     8  ch57x_uart1.o(.text)
    UART1_SendString                         0x00001531   Thumb Code    26  ch57x_uart1.o(.text)
    UART1_RecvString                         0x0000154b   Thumb Code    26  ch57x_uart1.o(.text)
    main                                     0x00001569   Thumb Code    62  app_main.o(.text)
    RF_Init                                  0x00001653   Thumb Code    62  lwns_adapter_blemesh_mac.o(.text)
    lwns_init                                0x00001807   Thumb Code   158  lwns_adapter_blemesh_mac.o(.text)
    lwns_shut                                0x00001969   Thumb Code   442  lwns_adapter_blemesh_mac.o(.text)
    lwns_start                               0x00001b23   Thumb Code    52  lwns_adapter_blemesh_mac.o(.text)
    lwns_msg_encrypt                         0x00001b61   Thumb Code    56  lwns_sec.o(.text)
    lwns_msg_decrypt                         0x00001b99   Thumb Code    32  lwns_sec.o(.text)
    lwns_mesh_process_init                   0x00001d15   Thumb Code    80  lwns_mesh_example.o(.text)
    lwns_lib_init                            0x00001e65   Thumb Code   198  lwns.o(.text)
    lwns_lib_deInit                          0x00001f2b   Thumb Code    16  lwns.o(.text)
    lwns_output                              0x00001f3b   Thumb Code    80  lwns.o(.text)
    lwns_input                               0x00001f8b   Thumb Code    40  lwns.o(.text)
    lwns_dataHandler                         0x00001fb3   Thumb Code    42  lwns.o(.text)
    get_lwns_object_port                     0x00001fdd   Thumb Code     4  lwns.o(.text)
    lwns_controller_lookup                   0x00001fe1   Thumb Code     8  lwns.o(.text)
    lwns_controller_pop                      0x00001fe9   Thumb Code     8  lwns.o(.text)
    get_lwns_addr                            0x00001ff1   Thumb Code    10  lwns.o(.text)
    lwns_broadcast_open                      0x0000200d   Thumb Code    22  lwns_broadcast.o(.text)
    lwns_broadcast_close                     0x00002023   Thumb Code     8  lwns_broadcast.o(.text)
    lwns_broadcast_send                      0x0000202b   Thumb Code    20  lwns_broadcast.o(.text)
    lwns_broadcast_init                      0x0000203f   Thumb Code    14  lwns_broadcast.o(.text)
    lwns_broadcast_sent                      0x0000204d   Thumb Code    12  lwns_broadcast.o(.text)
    lwns_buffer_clear                        0x00002061   Thumb Code    60  lwns_buffer.o(.text)
    lwns_buffer_load_data                    0x0000209d   Thumb Code    38  lwns_buffer.o(.text)
    lwns_buffer_save_data                    0x000020c3   Thumb Code    68  lwns_buffer.o(.text)
    lwns_buffer_set_datalen                  0x00002107   Thumb Code    12  lwns_buffer.o(.text)
    lwns_qbuf_init                           0x00002113   Thumb Code    24  lwns_buffer.o(.text)
    lwns_qbuf_numfree                        0x0000212b   Thumb Code    12  lwns_buffer.o(.text)
    lwns_qbuf_new_from_buffer                0x00002137   Thumb Code    60  lwns_buffer.o(.text)
    lwns_qbuf_update_attr_from_buffer        0x00002173   Thumb Code    40  lwns_buffer.o(.text)
    lwns_qbuf_update_from_buffer             0x0000219b   Thumb Code    48  lwns_buffer.o(.text)
    lwns_qbuf_free                           0x000021cb   Thumb Code    30  lwns_buffer.o(.text)
    lwns_qbuf_to_buffer                      0x000021e9   Thumb Code    82  lwns_buffer.o(.text)
    lwns_qbuf_dataptr                        0x0000223b   Thumb Code    22  lwns_buffer.o(.text)
    lwns_qbuf_addr                           0x00002251   Thumb Code    10  lwns_buffer.o(.text)
    lwns_qbuf_attr                           0x0000225b   Thumb Code    10  lwns_buffer.o(.text)
    lwns_htimer_init                         0x00002275   Thumb Code     8  lwns_htimer.o(.text)
    lwns_htimer_stop                         0x0000227d   Thumb Code    34  lwns_htimer.o(.text)
    lwns_htimer_restart                      0x0000229f   Thumb Code    16  lwns_htimer.o(.text)
    lwns_htimer_set                          0x000022af   Thumb Code    20  lwns_htimer.o(.text)
    lwns_htimer_flush_all                    0x000022c3   Thumb Code     8  lwns_htimer.o(.text)
    lwns_mesh_open                           0x00002491   Thumb Code    88  lwns_mesh.o(.text)
    lwns_mesh_close                          0x000024e9   Thumb Code    34  lwns_mesh.o(.text)
    lwns_mesh_send                           0x0000250b   Thumb Code   102  lwns_mesh.o(.text)
    lwns_mesh_init                           0x00002571   Thumb Code    60  lwns_mesh.o(.text)
    lwns_netflood_clean_info                 0x0000274b   Thumb Code    40  lwns_netflood.o(.text)
    lwns_netflood_open                       0x00002773   Thumb Code    80  lwns_netflood.o(.text)
    lwns_netflood_init                       0x000027c3   Thumb Code    34  lwns_netflood.o(.text)
    lwns_netflood_close                      0x000027e5   Thumb Code     8  lwns_netflood.o(.text)
    lwns_netflood_send                       0x000027ed   Thumb Code    68  lwns_netflood.o(.text)
    lwns_netflood_remove_an_info             0x00002831   Thumb Code    60  lwns_netflood.o(.text)
    lwns_netflood_seqno_set                  0x0000286d   Thumb Code     6  lwns_netflood.o(.text)
    lwns_route_lookup                        0x00002885   Thumb Code    58  lwns_route.o(.text)
    lwns_route_add                           0x000028bf   Thumb Code   104  lwns_route.o(.text)
    lwns_route_discovery_close               0x00002a5d   Thumb Code    26  lwns_route.o(.text)
    lwns_route_discovery_discover            0x00002a89   Thumb Code    98  lwns_route.o(.text)
    lwns_route_memp_init                     0x00002b29   Thumb Code    36  lwns_route.o(.text)
    lwns_route_init                          0x00002b4d   Thumb Code    62  lwns_route.o(.text)
    lwns_route_refresh                       0x00002b8b   Thumb Code    10  lwns_route.o(.text)
    lwns_route_remove                        0x00002b95   Thumb Code    26  lwns_route.o(.text)
    lwns_route_flush_all                     0x00002baf   Thumb Code    26  lwns_route.o(.text)
    lwns_route_num                           0x00002bc9   Thumb Code    28  lwns_route.o(.text)
    lwns_route_available                     0x00002be5   Thumb Code    24  lwns_route.o(.text)
    lwns_unicast_open                        0x00002c43   Thumb Code    26  lwns_unicast.o(.text)
    lwns_unicast_init                        0x00002c5d   Thumb Code    14  lwns_unicast.o(.text)
    lwns_unicast_close                       0x00002c6b   Thumb Code     8  lwns_unicast.o(.text)
    lwns_unicast_send                        0x00002c73   Thumb Code    18  lwns_unicast.o(.text)
    lwns_list_init                           0x00002cd9   Thumb Code     6  lwns_list.o(.text)
    lwns_list_head                           0x00002cdf   Thumb Code     4  lwns_list.o(.text)
    lwns_list_copy                           0x00002ce3   Thumb Code     6  lwns_list.o(.text)
    lwns_list_tail                           0x00002ce9   Thumb Code    18  lwns_list.o(.text)
    lwns_list_remove                         0x00002cfb   Thumb Code    42  lwns_list.o(.text)
    lwns_list_add                            0x00002d25   Thumb Code    32  lwns_list.o(.text)
    lwns_list_push                           0x00002d45   Thumb Code    18  lwns_list.o(.text)
    lwns_list_chop                           0x00002d57   Thumb Code    32  lwns_list.o(.text)
    lwns_list_pop                            0x00002d77   Thumb Code    14  lwns_list.o(.text)
    lwns_list_length                         0x00002d85   Thumb Code    18  lwns_list.o(.text)
    lwns_list_insert                         0x00002d97   Thumb Code    16  lwns_list.o(.text)
    lwns_list_item_next                      0x00002da7   Thumb Code     8  lwns_list.o(.text)
    lwns_memp_init                           0x00002db1   Thumb Code    42  lwns_memp.o(.text)
    lwns_memp_alloc                          0x00002ddb   Thumb Code    40  lwns_memp.o(.text)
    lwns_memp_free                           0x00002e03   Thumb Code    46  lwns_memp.o(.text)
    lwns_memp_inmemp                         0x00002e31   Thumb Code    26  lwns_memp.o(.text)
    lwns_memp_numfree                        0x00002e4b   Thumb Code    30  lwns_memp.o(.text)
    lwns_neighbor_memp_init                  0x00002e6d   Thumb Code    36  lwns_neighbor.o(.text)
    lwns_neighbor_lookup                     0x00002e91   Thumb Code    38  lwns_neighbor.o(.text)
    lwns_neighbor_check                      0x00002eb7   Thumb Code   134  lwns_neighbor.o(.text)
    lwns_neighbor_add                        0x00002f3d   Thumb Code    64  lwns_neighbor.o(.text)
    lwns_neighbor_remove                     0x00002f7d   Thumb Code    26  lwns_neighbor.o(.text)
    lwns_neighbor_flush_all                  0x00002f97   Thumb Code    26  lwns_neighbor.o(.text)
    lwns_neighbor_num                        0x00002fb1   Thumb Code    28  lwns_neighbor.o(.text)
    lwns_neighbor_mode_set                   0x00002fcd   Thumb Code    12  lwns_neighbor.o(.text)
    lwns_neighbor_get                        0x00002fd9   Thumb Code    32  lwns_neighbor.o(.text)
    lwns_packetassembly_init                 0x00003005   Thumb Code     8  lwns_packetassembly.o(.text)
    lwns_packetassembly_parse                0x000031eb   Thumb Code     2  lwns_packetassembly.o(.text)
    lwns_port_init                           0x000033d9   Thumb Code    12  lwns_port.o(.text)
    lwns_port_set_attributes                 0x000033e5   Thumb Code    18  lwns_port.o(.text)
    lwns_port_open                           0x000033f7   Thumb Code    22  lwns_port.o(.text)
    lwns_port_close                          0x0000340d   Thumb Code    14  lwns_port.o(.text)
    lwns_port_lookup                         0x0000341b   Thumb Code    30  lwns_port.o(.text)
    lwns_port_deInit                         0x00003439   Thumb Code    16  lwns_port.o(.text)
    lwns_port_pop                            0x00003449   Thumb Code    12  lwns_port.o(.text)
    lwns_rgossip_send                        0x000034dd   Thumb Code   166  lwns_rgossip.o(.text)
    lwns_rgossip_cancel                      0x00003583   Thumb Code    26  lwns_rgossip.o(.text)
    __aeabi_uidiv                            0x000035c5   Thumb Code     0  uidiv.o(.text)
    __aeabi_uidivmod                         0x000035c5   Thumb Code    44  uidiv.o(.text)
    __aeabi_idiv                             0x000035f1   Thumb Code     0  idiv.o(.text)
    __aeabi_idivmod                          0x000035f1   Thumb Code    40  idiv.o(.text)
    __aeabi_lmul                             0x00003619   Thumb Code   122  llmul.o(.text)
    _ll_mul                                  0x00003619   Thumb Code     0  llmul.o(.text)
    __aeabi_llsl                             0x00003693   Thumb Code    32  llshl.o(.text)
    _ll_shift_l                              0x00003693   Thumb Code     0  llshl.o(.text)
    __aeabi_memcpy                           0x000036b3   Thumb Code    36  memcpya.o(.text)
    __aeabi_memcpy4                          0x000036b3   Thumb Code     0  memcpya.o(.text)
    __aeabi_memcpy8                          0x000036b3   Thumb Code     0  memcpya.o(.text)
    __aeabi_uldivmod                         0x000036d7   Thumb Code    96  uldiv.o(.text)
    __scatterload                            0x00003739   Thumb Code    28  init.o(.text)
    __scatterload_rt2                        0x00003739   Thumb Code     0  init.o(.text)
    __aeabi_llsr                             0x0000375d   Thumb Code    34  llushr.o(.text)
    _ll_ushift_r                             0x0000375d   Thumb Code     0  llushr.o(.text)
    __decompress                             0x0000377f   Thumb Code     0  __dczerorl2.o(.text)
    __decompress1                            0x0000377f   Thumb Code    86  __dczerorl2.o(.text)
    AES_DecError                             0x000037d5   Thumb Code    76  aes.o(i.AES_DecError)
    AES_DevAESDec                            0x00003829   Thumb Code   196  aes.o(i.AES_DevAESDec)
    AES_DevAESEnc                            0x000038f1   Thumb Code   194  aes.o(i.AES_DevAESEnc)
    AES_DevPktDec                            0x000039b9   Thumb Code   172  aes.o(i.AES_DevPktDec)
    AES_DevPktEnc                            0x00003a6d   Thumb Code   172  aes.o(i.AES_DevPktEnc)
    API_DisconnectCmd                        0x00003b21   Thumb Code    16  api_c.o(i.API_DisconnectCmd)
    API_HostNumCompletedPktCmd               0x00003b35   Thumb Code    46  api_c.o(i.API_HostNumCompletedPktCmd)
    API_LE_AddDeviceToResolvingList          0x00003b69   Thumb Code    26  api_c.o(i.API_LE_AddDeviceToResolvingList)
    API_LE_AddWhiteListCmd                   0x00003b89   Thumb Code    26  api_c.o(i.API_LE_AddWhiteListCmd)
    API_LE_ClearResolvingList                0x00003ba9   Thumb Code    26  api_c.o(i.API_LE_ClearResolvingList)
    API_LE_ClearWhiteListCmd                 0x00003bc9   Thumb Code    26  api_c.o(i.API_LE_ClearWhiteListCmd)
    API_LE_ConnUpdateCmd                     0x00003be9   Thumb Code    26  api_c.o(i.API_LE_ConnUpdateCmd)
    API_LE_CreateConnCancelCmd               0x00003c09   Thumb Code    24  api_c.o(i.API_LE_CreateConnCancelCmd)
    API_LE_LtkReqNegReplyCmd                 0x00003c25   Thumb Code    32  api_c.o(i.API_LE_LtkReqNegReplyCmd)
    API_LE_LtkReqReplyCmd                    0x00003c49   Thumb Code    32  api_c.o(i.API_LE_LtkReqReplyCmd)
    API_LE_RandCmd                           0x00003c6d   Thumb Code    28  api_c.o(i.API_LE_RandCmd)
    API_LE_ReadBufSizeCmd                    0x00003c8d   Thumb Code    30  api_c.o(i.API_LE_ReadBufSizeCmd)
    API_LE_RemoteConnParamReqNegReplyCmd     0x00003cb1   Thumb Code    32  api_c.o(i.API_LE_RemoteConnParamReqNegReplyCmd)
    API_LE_RemoteConnParamReqReplyCmd        0x00003cd5   Thumb Code    46  api_c.o(i.API_LE_RemoteConnParamReqReplyCmd)
    API_LE_SetAddressResolvableEnableCmd     0x00003d09   Thumb Code    26  api_c.o(i.API_LE_SetAddressResolvableEnableCmd)
    API_LE_SetAdvDataCmd                     0x00003d29   Thumb Code    26  api_c.o(i.API_LE_SetAdvDataCmd)
    API_LE_SetAdvEnableCmd                   0x00003d49   Thumb Code    26  api_c.o(i.API_LE_SetAdvEnableCmd)
    API_LE_SetAdvParamCmd                    0x00003d69   Thumb Code    40  api_c.o(i.API_LE_SetAdvParamCmd)
    API_LE_SetRandomAddressCmd               0x00003d95   Thumb Code    26  api_c.o(i.API_LE_SetRandomAddressCmd)
    API_LE_SetResolvableAddressTimeoutCmd    0x00003db5   Thumb Code    26  api_c.o(i.API_LE_SetResolvableAddressTimeoutCmd)
    API_LE_SetScanEnableCmd                  0x00003dd5   Thumb Code    26  api_c.o(i.API_LE_SetScanEnableCmd)
    API_LE_SetScanRspDataCmd                 0x00003df5   Thumb Code    26  api_c.o(i.API_LE_SetScanRspDataCmd)
    API_LE_StartEncryptCmd                   0x00003e15   Thumb Code    16  api_c.o(i.API_LE_StartEncryptCmd)
    API_MD_DisconnectCmd                     0x00003e29   Thumb Code     8  api_c.o(i.API_MD_DisconnectCmd)
    API_SendDataPkt                          0x00003e31   Thumb Code     8  api_c.o(i.API_SendDataPkt)
    ATT_BuildErrorRsp                        0x00003e39   Thumb Code    22  att.o(i.ATT_BuildErrorRsp)
    ATT_BuildExchangeMTURsp                  0x00003e4f   Thumb Code    14  att_server.o(i.ATT_BuildExchangeMTURsp)
    ATT_BuildFindByTypeValueRsp              0x00003e5d   Thumb Code     8  att_server.o(i.ATT_BuildFindByTypeValueRsp)
    ATT_BuildFindInfoRsp                     0x00003e65   Thumb Code    26  att_server.o(i.ATT_BuildFindInfoRsp)
    ATT_BuildHandleValueInd                  0x00003e7f   Thumb Code    18  att_server.o(i.ATT_BuildHandleValueInd)
    ATT_BuildPrepareWriteRsp                 0x00003e91   Thumb Code    28  att_server.o(i.ATT_BuildPrepareWriteRsp)
    ATT_BuildReadBlobRsp                     0x00003ead   Thumb Code     4  att_server.o(i.ATT_BuildReadBlobRsp)
    ATT_BuildReadByGrpTypeRsp                0x00003eb1   Thumb Code    16  att_server.o(i.ATT_BuildReadByGrpTypeRsp)
    ATT_BuildReadByTypeRsp                   0x00003ec1   Thumb Code    16  att_server.o(i.ATT_BuildReadByTypeRsp)
    ATT_BuildReadMultiRsp                    0x00003ed1   Thumb Code     4  att_server.o(i.ATT_BuildReadMultiRsp)
    ATT_BuildReadRsp                         0x00003ed5   Thumb Code     4  att_server.o(i.ATT_BuildReadRsp)
    ATT_CompareUUID                          0x00003ed9   Thumb Code    74  att.o(i.ATT_CompareUUID)
    ATT_ConvertUUIDto128                     0x00003f25   Thumb Code    38  att.o(i.ATT_ConvertUUIDto128)
    ATT_ErrorRsp                             0x00003f51   Thumb Code    18  att.o(i.ATT_ErrorRsp)
    ATT_ExchangeMTURsp                       0x00003f69   Thumb Code    28  att_server.o(i.ATT_ExchangeMTURsp)
    ATT_ExecuteWriteRsp                      0x00003f89   Thumb Code    16  att_server.o(i.ATT_ExecuteWriteRsp)
    ATT_FindByTypeValueRsp                   0x00003f99   Thumb Code    44  att_server.o(i.ATT_FindByTypeValueRsp)
    ATT_FindInfoRsp                          0x00003fc9   Thumb Code    54  att_server.o(i.ATT_FindInfoRsp)
    ATT_GetMTU                               0x00004005   Thumb Code    26  att.o(i.ATT_GetMTU)
    ATT_HandleValueInd                       0x00004025   Thumb Code    38  att_server.o(i.ATT_HandleValueInd)
    ATT_ParamInit                            0x00004051   Thumb Code    10  att.o(i.ATT_ParamInit)
    ATT_ParseExchangeMTUReq                  0x00004061   Thumb Code    24  att_server.o(i.ATT_ParseExchangeMTUReq)
    ATT_ParseExecuteWriteReq                 0x00004079   Thumb Code    18  att_server.o(i.ATT_ParseExecuteWriteReq)
    ATT_ParseFindByTypeValueReq              0x0000408b   Thumb Code    72  att_server.o(i.ATT_ParseFindByTypeValueReq)
    ATT_ParseFindInfoReq                     0x000040d3   Thumb Code    34  att_server.o(i.ATT_ParseFindInfoReq)
    ATT_ParsePacket                          0x000040f5   Thumb Code   106  att.o(i.ATT_ParsePacket)
    ATT_ParsePrepareWriteReq                 0x0000415f   Thumb Code    54  att_server.o(i.ATT_ParsePrepareWriteReq)
    ATT_ParseReadBlobReq                     0x00004195   Thumb Code    34  att_server.o(i.ATT_ParseReadBlobReq)
    ATT_ParseReadByTypeReq                   0x000041b7   Thumb Code    60  att_server.o(i.ATT_ParseReadByTypeReq)
    ATT_ParseReadMultiReq                    0x000041f3   Thumb Code    24  att_server.o(i.ATT_ParseReadMultiReq)
    ATT_ParseReadReq                         0x0000420b   Thumb Code    24  att_server.o(i.ATT_ParseReadReq)
    ATT_ParseWriteReq                        0x00004223   Thumb Code    48  att_server.o(i.ATT_ParseWriteReq)
    ATT_PrepareWriteRsp                      0x00004255   Thumb Code    34  att_server.o(i.ATT_PrepareWriteRsp)
    ATT_ReadBlobRsp                          0x0000427d   Thumb Code    34  att_server.o(i.ATT_ReadBlobRsp)
    ATT_ReadByGrpTypeRsp                     0x000042a5   Thumb Code    44  att_server.o(i.ATT_ReadByGrpTypeRsp)
    ATT_ReadByTypeRsp                        0x000042d5   Thumb Code    44  att_server.o(i.ATT_ReadByTypeRsp)
    ATT_ReadMultiRsp                         0x00004305   Thumb Code    38  att_server.o(i.ATT_ReadMultiRsp)
    ATT_ReadRsp                              0x00004331   Thumb Code    38  att_server.o(i.ATT_ReadRsp)
    ATT_RegisterServer                       0x0000435d   Thumb Code     6  att.o(i.ATT_RegisterServer)
    ATT_UpdateMTU                            0x00004369   Thumb Code    38  att.o(i.ATT_UpdateMTU)
    ATT_WriteRsp                             0x00004395   Thumb Code    16  att_server.o(i.ATT_WriteRsp)
    BB_DevInit                               0x000043a5   Thumb Code    14  bb.o(i.BB_DevInit)
    BLE_ADCTune                              0x000043c1   Thumb Code    32  ip.o(i.BLE_ADCTune)
    BLE_IPCoreInit                           0x000043e9   Thumb Code   178  ip.o(i.BLE_IPCoreInit)
    BLE_IRQHandler                           0x000044e1   Thumb Code   348  lle.o(i.BLE_IRQHandler)
    BLE_LibInit                              0x00004659   Thumb Code   240  tmos.o(i.BLE_LibInit)
    BLE_RegInit                              0x00004751   Thumb Code    62  ip.o(i.BLE_RegInit)
    CreatePRBS15                             0x00004799   Thumb Code    60  ctl_input.o(i.CreatePRBS15)
    CreatePRBS9                              0x000047dd   Thumb Code    58  ctl_input.o(i.CreatePRBS9)
    DMA_DevInit                              0x00004821   Thumb Code    38  dma.o(i.DMA_DevInit)
    ErasePage                                0x00004851   Thumb Code    68  tmos_hw.o(i.ErasePage)
    GAPBondMgr_Erase                         0x0000489d   Thumb Code    68  gapbondmgr.o(i.GAPBondMgr_Erase)
    GAPBondMgr_GetParameter                  0x000048e5   Thumb Code   186  gapbondmgr.o(i.GAPBondMgr_GetParameter)
    GAPBondMgr_Init                          0x000049a9   Thumb Code    18  gapbondmgr.o(i.GAPBondMgr_Init)
    GAPBondMgr_LinkEst                       0x000049c1   Thumb Code   298  gapbondmgr.o(i.GAPBondMgr_LinkEst)
    GAPBondMgr_LinkTerm                      0x00004af1   Thumb Code   100  gapbondmgr.o(i.GAPBondMgr_LinkTerm)
    GAPBondMgr_ParamInit                     0x00004b59   Thumb Code   216  gapbondmgr.o(i.GAPBondMgr_ParamInit)
    GAPBondMgr_ProcessEvent                  0x00004c45   Thumb Code   156  gapbondmgr.o(i.GAPBondMgr_ProcessEvent)
    GAPBondMgr_ProcessGAPMsg                 0x00004ce5   Thumb Code   514  gapbondmgr.o(i.GAPBondMgr_ProcessGAPMsg)
    GAPBondMgr_ResolveAddr                   0x00004ef1   Thumb Code   186  gapbondmgr.o(i.GAPBondMgr_ResolveAddr)
    GAPBondMgr_ServiceChangeInd              0x00004fb1   Thumb Code   108  gapbondmgr.o(i.GAPBondMgr_ServiceChangeInd)
    GAPBondMgr_SetParameter                  0x00005029   Thumb Code   772  gapbondmgr.o(i.GAPBondMgr_SetParameter)
    GAPBondMgr_SlaveReqSecurity              0x0000533d   Thumb Code   102  gapbondmgr.o(i.GAPBondMgr_SlaveReqSecurity)
    GAPBondMgr_UpdateCharCfg                 0x000053a9   Thumb Code    90  gapbondmgr.o(i.GAPBondMgr_UpdateCharCfg)
    GAPRole_GetParameter                     0x0000540d   Thumb Code   164  role.o(i.GAPRole_GetParameter)
    GAPRole_ParamInit                        0x000054b9   Thumb Code    90  role.o(i.GAPRole_ParamInit)
    GAPRole_PeripheralEnable                 0x0000551d   Thumb Code   152  peripheral.o(i.GAPRole_PeripheralEnable)
    GAPRole_PeripheralInit                   0x000055ed   Thumb Code    72  role.o(i.GAPRole_PeripheralInit)
    GAPRole_PeripheralProcessEvent           0x0000564d   Thumb Code   300  peripheral.o(i.GAPRole_PeripheralProcessEvent)
    GAP_Authenticate                         0x000057b5   Thumb Code   160  gap.o(i.GAP_Authenticate)
    GAP_Bond                                 0x0000585d   Thumb Code   128  gap.o(i.GAP_Bond)
    GAP_CentralParamInit                     0x000058e1   Thumb Code    38  gap_central.o(i.GAP_CentralParamInit)
    GAP_EndDiscoverable                      0x00005925   Thumb Code    66  gap_peripheral.o(i.GAP_EndDiscoverable)
    GAP_GetParamValue                        0x00005979   Thumb Code    16  gap.o(i.GAP_GetParamValue)
    GAP_Init                                 0x00005991   Thumb Code    48  gap.o(i.GAP_Init)
    GAP_MakeDiscoverable                     0x000059c9   Thumb Code   194  gap_peripheral.o(i.GAP_MakeDiscoverable)
    GAP_NumActiveConnections                 0x00005aa5   Thumb Code     8  gap.o(i.GAP_NumActiveConnections)
    GAP_ParamInit                            0x00005aad   Thumb Code   106  gap.o(i.GAP_ParamInit)
    GAP_PasscodeUpdate                       0x00005b25   Thumb Code    68  gap.o(i.GAP_PasscodeUpdate)
    GAP_PeripheralParamInit                  0x00005b6d   Thumb Code    40  gap_peripheral.o(i.GAP_PeripheralParamInit)
    GAP_ProcessEvent                         0x00005bad   Thumb Code   216  gap.o(i.GAP_ProcessEvent)
    GAP_RegisterForMsgs                      0x00005c91   Thumb Code     6  gap.o(i.GAP_RegisterForMsgs)
    GAP_ResolvePrivateAddr                   0x00005c9d   Thumb Code     8  gap.o(i.GAP_ResolvePrivateAddr)
    GAP_SendSlaveSecurityRequest             0x00005ca5   Thumb Code    60  gap.o(i.GAP_SendSlaveSecurityRequest)
    GAP_SetParamValue                        0x00005ce5   Thumb Code    44  gap.o(i.GAP_SetParamValue)
    GAP_Signable                             0x00005d19   Thumb Code    74  gap.o(i.GAP_Signable)
    GAP_TerminateAuth                        0x00005d69   Thumb Code    32  gap.o(i.GAP_TerminateAuth)
    GAP_TerminateLinkReq                     0x00005d89   Thumb Code   128  gap.o(i.GAP_TerminateLinkReq)
    GAP_UpdateAdvertisingData                0x00005e11   Thumb Code   136  gap_peripheral.o(i.GAP_UpdateAdvertisingData)
    GATTServApp_Init                         0x00005ea1   Thumb Code    82  gattservapp.o(i.GATTServApp_Init)
    GATTServApp_InitCharCfg                  0x00005f09   Thumb Code    42  gattservapp.o(i.GATTServApp_InitCharCfg)
    GATTServApp_ParamInit                    0x00005f39   Thumb Code   124  gattservapp.o(i.GATTServApp_ParamInit)
    GATTServApp_ProcessCCCWriteReq           0x00005fd5   Thumb Code    74  gattservapp.o(i.GATTServApp_ProcessCCCWriteReq)
    GATTServApp_ProcessEvent                 0x00006021   Thumb Code    66  gattservapp.o(i.GATTServApp_ProcessEvent)
    GATTServApp_ReadAttr                     0x00006069   Thumb Code   540  gattservapp.o(i.GATTServApp_ReadAttr)
    GATTServApp_ReadCharCfg                  0x00006291   Thumb Code    14  gattservapp.o(i.GATTServApp_ReadCharCfg)
    GATTServApp_SendCCCUpdatedEvent          0x000062a1   Thumb Code    50  gattservapp.o(i.GATTServApp_SendCCCUpdatedEvent)
    GATTServApp_SendServiceChangedInd        0x000062d9   Thumb Code    30  gattservapp.o(i.GATTServApp_SendServiceChangedInd)
    GATTServApp_UpdateCharCfg                0x000062fd   Thumb Code    24  gattservapp.o(i.GATTServApp_UpdateCharCfg)
    GATTServApp_WriteAttr                    0x00006315   Thumb Code   114  gattservapp.o(i.GATTServApp_WriteAttr)
    GATTServApp_WriteCharCfg                 0x0000638d   Thumb Code    40  gattservapp.o(i.GATTServApp_WriteCharCfg)
    GATT_AppCompletedMsg                     0x000063b9   Thumb Code    42  gatt.o(i.GATT_AppCompletedMsg)
    GATT_FindHandle                          0x000063e5   Thumb Code    68  gattservapp.o(i.GATT_FindHandle)
    GATT_FindHandleUUID                      0x0000642d   Thumb Code   112  gattservapp.o(i.GATT_FindHandleUUID)
    GATT_FindNextAttr                        0x000064a1   Thumb Code   132  gattservapp.o(i.GATT_FindNextAttr)
    GATT_Indication                          0x00006535   Thumb Code    98  gattservapp.o(i.GATT_Indication)
    GATT_Init                                0x0000659d   Thumb Code    38  gatt.o(i.GATT_Init)
    GATT_InitServer                          0x000065c9   Thumb Code    60  gattservapp.o(i.GATT_InitServer)
    GATT_NotifyEvent                         0x00006619   Thumb Code    50  gatt.o(i.GATT_NotifyEvent)
    GATT_ProcessEvent                        0x00006651   Thumb Code   240  gatt.o(i.GATT_ProcessEvent)
    GATT_ServiceChangedInd                   0x00006745   Thumb Code   112  gatt.o(i.GATT_ServiceChangedInd)
    GATT_ServiceEncKeySize                   0x000067bd   Thumb Code    18  gattservapp.o(i.GATT_ServiceEncKeySize)
    GATT_ServiceNumAttrs                     0x000067cf   Thumb Code    14  gattservapp.o(i.GATT_ServiceNumAttrs)
    GATT_UpdateMTU                           0x000067dd   Thumb Code    72  gatt.o(i.GATT_UpdateMTU)
    GATT_VerifyPrepareWritePermissions       0x00006829   Thumb Code    82  gattservapp.o(i.GATT_VerifyPrepareWritePermissions)
    GATT_VerifyReadPermissions               0x0000687b   Thumb Code    86  gattservapp.o(i.GATT_VerifyReadPermissions)
    GATT_VerifyWritePermissions              0x000068d1   Thumb Code   100  gattservapp.o(i.GATT_VerifyWritePermissions)
    GATT_bm_alloc                            0x00006935   Thumb Code   134  gatt.o(i.GATT_bm_alloc)
    GATT_bm_free                             0x000069c1   Thumb Code    16  gatt.o(i.GATT_bm_free)
    GGS_ParamInit                            0x000069d1   Thumb Code   252  gapgattserver.o(i.GGS_ParamInit)
    GGS_SetParameter                         0x00006af9   Thumb Code   138  gapgattserver.o(i.GGS_SetParameter)
    GetTxPower                               0x00006b8d   Thumb Code    72  ip.o(i.GetTxPower)
    HCI_AuthenticatedPayloadTimeoutExpiredCback 0x00006bd9   Thumb Code     2  ctl_output.o(i.HCI_AuthenticatedPayloadTimeoutExpiredCback)
    HCI_CommandCompleteCback                 0x00006bdb   Thumb Code     8  ctl_output.o(i.HCI_CommandCompleteCback)
    HCI_CommandStatusCback                   0x00006be3   Thumb Code     8  ctl_output.o(i.HCI_CommandStatusCback)
    HCI_DataBufferOverflowCback              0x00006beb   Thumb Code     8  ctl_output.o(i.HCI_DataBufferOverflowCback)
    HCI_DisconnectCmd                        0x00006bf3   Thumb Code     8  host_output.o(i.HCI_DisconnectCmd)
    HCI_DisconnectionCompleteCback           0x00006bfb   Thumb Code     8  ctl_output.o(i.HCI_DisconnectionCompleteCback)
    HCI_EncryptionChangeCback                0x00006c03   Thumb Code     8  ctl_output.o(i.HCI_EncryptionChangeCback)
    HCI_EncryptionKeyRefreshCompleteCback    0x00006c0b   Thumb Code     8  ctl_output.o(i.HCI_EncryptionKeyRefreshCompleteCback)
    HCI_HostNumCompletedPktCmd               0x00006c13   Thumb Code    10  host_output.o(i.HCI_HostNumCompletedPktCmd)
    HCI_LE_AddDeviceToResolvingList          0x00006c1d   Thumb Code     8  host_output.o(i.HCI_LE_AddDeviceToResolvingList)
    HCI_LE_AddWhiteListCmd                   0x00006c25   Thumb Code     8  host_output.o(i.HCI_LE_AddWhiteListCmd)
    HCI_LE_ClearResolvingList                0x00006c2d   Thumb Code     8  host_output.o(i.HCI_LE_ClearResolvingList)
    HCI_LE_ClearWhiteListCmd                 0x00006c35   Thumb Code     8  host_output.o(i.HCI_LE_ClearWhiteListCmd)
    HCI_LE_ConnUpdateCmd                     0x00006c3d   Thumb Code    16  host_output.o(i.HCI_LE_ConnUpdateCmd)
    HCI_LE_ConnectionCompleteCback           0x00006c4d   Thumb Code    26  ctl_output.o(i.HCI_LE_ConnectionCompleteCback)
    HCI_LE_ConnectionUpdateCompleteCback     0x00006c67   Thumb Code    12  ctl_output.o(i.HCI_LE_ConnectionUpdateCompleteCback)
    HCI_LE_CreateConnCancelCmd               0x00006c73   Thumb Code     8  host_output.o(i.HCI_LE_CreateConnCancelCmd)
    HCI_LE_DataLengthChangeCback             0x00006c7b   Thumb Code    12  ctl_output.o(i.HCI_LE_DataLengthChangeCback)
    HCI_LE_EnhancedConnectionCompleteCback   0x00006c87   Thumb Code    32  ctl_output.o(i.HCI_LE_EnhancedConnectionCompleteCback)
    HCI_LE_LongTermKeyRequestCback           0x00006ca7   Thumb Code     8  ctl_output.o(i.HCI_LE_LongTermKeyRequestCback)
    HCI_LE_LtkReqNegReplyCmd                 0x00006caf   Thumb Code     8  host_output.o(i.HCI_LE_LtkReqNegReplyCmd)
    HCI_LE_LtkReqReplyCmd                    0x00006cb7   Thumb Code     8  host_output.o(i.HCI_LE_LtkReqReplyCmd)
    HCI_LE_RandCmd                           0x00006cbf   Thumb Code     8  host_output.o(i.HCI_LE_RandCmd)
    HCI_LE_ReadBufSizeCmd                    0x00006cc7   Thumb Code     8  host_output.o(i.HCI_LE_ReadBufSizeCmd)
    HCI_LE_ReadRemoteUsedFeaturesCompleteCback 0x00006ccf   Thumb Code     8  ctl_output.o(i.HCI_LE_ReadRemoteUsedFeaturesCompleteCback)
    HCI_LE_RemoteConnParamReqNegReplyCmd     0x00006cd7   Thumb Code     8  host_output.o(i.HCI_LE_RemoteConnParamReqNegReplyCmd)
    HCI_LE_RemoteConnParamReqReplyCmd        0x00006cdf   Thumb Code    16  host_output.o(i.HCI_LE_RemoteConnParamReqReplyCmd)
    HCI_LE_RemoteConnectionParameterRequestCback 0x00006cef   Thumb Code    12  ctl_output.o(i.HCI_LE_RemoteConnectionParameterRequestCback)
    HCI_LE_SetAddressResolvableEnableCmd     0x00006cfb   Thumb Code     8  host_output.o(i.HCI_LE_SetAddressResolvableEnableCmd)
    HCI_LE_SetAdvDataCmd                     0x00006d03   Thumb Code     8  host_output.o(i.HCI_LE_SetAdvDataCmd)
    HCI_LE_SetAdvEnableCmd                   0x00006d0b   Thumb Code     8  host_output.o(i.HCI_LE_SetAdvEnableCmd)
    HCI_LE_SetAdvParamCmd                    0x00006d13   Thumb Code    22  host_output.o(i.HCI_LE_SetAdvParamCmd)
    HCI_LE_SetRandomAddressCmd               0x00006d29   Thumb Code     8  host_output.o(i.HCI_LE_SetRandomAddressCmd)
    HCI_LE_SetResolvableAddressTimeoutCmd    0x00006d31   Thumb Code     8  host_output.o(i.HCI_LE_SetResolvableAddressTimeoutCmd)
    HCI_LE_SetScanEnableCmd                  0x00006d39   Thumb Code     8  host_output.o(i.HCI_LE_SetScanEnableCmd)
    HCI_LE_SetScanRspDataCmd                 0x00006d41   Thumb Code     8  host_output.o(i.HCI_LE_SetScanRspDataCmd)
    HCI_LE_StartEncyptCmd                    0x00006d49   Thumb Code    16  host_output.o(i.HCI_LE_StartEncyptCmd)
    HCI_MB_DisconnectCmd                     0x00006d59   Thumb Code     8  host_output.o(i.HCI_MB_DisconnectCmd)
    HCI_NumberOfCompletedPacketsCback        0x00006d61   Thumb Code     8  ctl_output.o(i.HCI_NumberOfCompletedPacketsCback)
    HCI_ReadRemoteVersionInfoCback           0x00006d69   Thumb Code    12  ctl_output.o(i.HCI_ReadRemoteVersionInfoCback)
    HCI_RemoteConnectionParameterRequestCback 0x00006d75   Thumb Code    12  ctl_output.o(i.HCI_RemoteConnectionParameterRequestCback)
    HCI_RxDataCompleteCback                  0x00006d81   Thumb Code     8  ctl_output.o(i.HCI_RxDataCompleteCback)
    HCI_SendDataPkt                          0x00006d89   Thumb Code     8  host_output.o(i.HCI_SendDataPkt)
    HCI_ValidConnTimeParams                  0x00006d91   Thumb Code    54  host_output.o(i.HCI_ValidConnTimeParams)
    HOST_CommandCompleteEvent                0x00006dcd   Thumb Code    58  host_input.o(i.HOST_CommandCompleteEvent)
    HOST_CommandStatusEvent                  0x00006e0d   Thumb Code    42  host_input.o(i.HOST_CommandStatusEvent)
    HOST_DataBufferOverflowEvent             0x00006e3d   Thumb Code    34  host_input.o(i.HOST_DataBufferOverflowEvent)
    HOST_DisconnectionCompleteEvent          0x00006e65   Thumb Code    42  host_input.o(i.HOST_DisconnectionCompleteEvent)
    HOST_EncryptionChangeEvent               0x00006e95   Thumb Code    46  host_input.o(i.HOST_EncryptionChangeEvent)
    HOST_EncryptionKeyRefreshCompleteEvent   0x00006ec9   Thumb Code    38  host_input.o(i.HOST_EncryptionKeyRefreshCompleteEvent)
    HOST_LE_ConnectionCompleteEvent          0x00006ef5   Thumb Code   120  host_input.o(i.HOST_LE_ConnectionCompleteEvent)
    HOST_LE_ConnectionUpdateCompleteEvent    0x00006f75   Thumb Code    54  host_input.o(i.HOST_LE_ConnectionUpdateCompleteEvent)
    HOST_LE_DataLengthChangeEvent            0x00006fb1   Thumb Code    54  host_input.o(i.HOST_LE_DataLengthChangeEvent)
    HOST_LE_EnhancedConnectionCompleteEvent  0x00006fed   Thumb Code   170  host_input.o(i.HOST_LE_EnhancedConnectionCompleteEvent)
    HOST_LE_LongTermKeyRequestEvent          0x000070a1   Thumb Code    56  host_input.o(i.HOST_LE_LongTermKeyRequestEvent)
    HOST_LE_ReadRemoteUsedFeaturesCompleteEvent 0x000070dd   Thumb Code    56  host_input.o(i.HOST_LE_ReadRemoteUsedFeaturesCompleteEvent)
    HOST_LE_RemoteConnectionParameterRequestEvent 0x00007119   Thumb Code    54  host_input.o(i.HOST_LE_RemoteConnectionParameterRequestEvent)
    HOST_NumberOfCompletedPacketsEvent       0x00007155   Thumb Code    42  host_input.o(i.HOST_NumberOfCompletedPacketsEvent)
    HOST_ReadRemoteVersionInfoEvent          0x00007185   Thumb Code    50  host_input.o(i.HOST_ReadRemoteVersionInfoEvent)
    HOST_RecvDataPackets                     0x000071bd   Thumb Code   278  host_input.o(i.HOST_RecvDataPackets)
    HOST_RemoteConnectionParameterRequestEvent 0x000072e1   Thumb Code    46  host_input.o(i.HOST_RemoteConnectionParameterRequestEvent)
    L2CAP_CmdReject                          0x00007311   Thumb Code    18  l2cap_sdu.o(i.L2CAP_CmdReject)
    L2CAP_ConnParamUpdateReq                 0x00007329   Thumb Code    24  l2cap_sdu.o(i.L2CAP_ConnParamUpdateReq)
    L2CAP_ConnParamUpdateRsp                 0x00007345   Thumb Code    18  l2cap_sdu.o(i.L2CAP_ConnParamUpdateRsp)
    L2CAP_DisconnectReq                      0x0000735d   Thumb Code    32  l2cap_sdu.o(i.L2CAP_DisconnectReq)
    L2CAP_GetMTU                             0x00007385   Thumb Code     6  l2cap.o(i.L2CAP_GetMTU)
    L2CAP_HostNumCompletedPkts               0x00007391   Thumb Code    20  l2cap.o(i.L2CAP_HostNumCompletedPkts)
    L2CAP_Init                               0x000073a9   Thumb Code   156  l2cap.o(i.L2CAP_Init)
    L2CAP_ParseConnectReq                    0x00007459   Thumb Code    62  l2cap.o(i.L2CAP_ParseConnectReq)
