:020000021000EC
:100000006FC0517600000000001801180028012878
:100010000228032800290129022903290429052986
:10002000062907290829002A012A022A032A042A64
:10003000052AA62A78D20200720E0100160F0100CE
:10004000560F0100C60E0100B40E01006C390020ED
:100050007A0F01008C120100B41201000E1401008D
:100060009A140100820D0100B20C01001C0D010068
:10007000DE0C0100C8180100A8390020740F01002F
:10008000F615010022980200DC9902004E9A020047
:100090002C5F02003C5F0200D2FC0100DEF1010097
:1000A000ACA20200241601002E640200B0AF0100D1
:1000B00036B001008EB001000A1E0100561E01007C
:1000C000CC1C0100746F0100766A01006E7801009B
:1000D0003A7C0100E27F0100EC5C01008A5C0100D7
:1000E00070600100385D0100605C0100E45C0100AB
:1000F000125C0100B45D01000C5E0100BC5D0100FA
:10010000C05D01005C5E0100145E0100465E0100FE
:100110006863010070630100B05D0100B85D01001B
:10012000585E01006C6301000C5F0100A4640100D3
:10013000DA8D0100548E0100828E0100547101009D
:100140006C710100A8710100CE56010096570100A4
:10015000EE570100083A01007E3501007E50010093
:10016000F0350100D24F01006CB70200F0B402007C
:10017000CEBE020004CB020038CA02006ECD0200DF
:100180006ACD020034A8020002CE0200A6A5020039
:1001900092CD0200D4C30200EEC3020012C40200DA
:1001A00072CE020098C802002EC80200E2CE020001
:1001B000B4A702003CA8020060A8020002A8020046
:1001C000C0790200D4670200EE6A02006C68020087
:1001D000A26C02004CA302004AA20200D6A50200B3
:1001E000381A0100D660020012640200E4640200C2
:1001F000AE8D0200DC8D0200568E02003A750100C1
:100200007E790200186D02000E7202004A6F020031
:100210008C6702000E15010026610200000000003C
:1002200000000000000000000000000000000000CE
:1002300000000000000000000000000000000000BE
:10024000A16785072A876397F50083C741C00145E9
:10025000D9EF8280014559CFD1CDB307E0408D8BD6
:10026000BA97C207C183130740036366F70203A569
:1002700001B483A681B36393A60203A781D001458D
:1002800035CB4111C20706C60545DD8D0297B24048
:1002900001454101828003A5C1B3E1BF0357650059
:1002A00029E7035745006362F704B306F740214688
:1002B0006370D6021041938687001D8FAA9661173E
:1002C00090C22392E6002393060014C12312F50086
:1002D000A1672313B50085076397F50083C741C065
:1002E000FD172382F1C021058280084169B70145CD
:1002F0002DF78280828009C903A801B483A581B348
:100300000147C28763E3B70082809443636DF506BB
:1003100063EBA60613868700E368C5FE03D5670076
:10032000216605066317C50003C641C00506238282
:10033000C1C0239307006383070303A6C1B3630F00
:10034000F6000356670019EA83D7470014C38356A3
:100350004700B697A1072312F700BA879843E30531
:10036000B7FA83A6C1B3E301D7FA83566700C9FE83
:1003700083D64700035647001843A106B29623923E
:10038000D70098C382803E87B687ADBF19CDB71717
:100390000040130770052380E704130780FA2380C9
:1003A000E7042396A70223800704828019C18147AE
:1003B00099E982803387F500834607003307F5000B
:1003C00085072300D700E397C7FEE5B719C1FD579E
:1003D00081E98280910503A7C5FF1105232EE5FE63
:1003E0007D16E319F6FEF5B7797126D283A741B5DC
:1003F00006D622D44AD04ECE938441B581C7829787
:1004000023A00400DC4089CB03D5C1B44137DC40D4
:10041000829703D5E1B49D3F9C40639D071293876B
:1004200001F103C75700058B63040710A38207007F
:1004300083C7770009476392E70CE129971002E030
:10044000E780C080938641D103A781B403C616001C
:10045000938981B4138441D1834704009396170094
:10046000BA9683D60600638F060C8347040063F2B6
:10047000C70686073E97835507002310070003D55C
:10048000C1B42EC621370345040083A741B6131714
:100490002500B245BA979C4382972A8903D5E1B4D7
:1004A000F535834704001397170083A70900BA970F
:1004B00003D707003369E90023902701834704002D
:1004C00003471400850793F7F70F2300F40063E454
:1004D000E700230004009C40B5EF03D5C1B47D358F
:1004E00097D000E0E780E04F2254B2509254025976
:1004F000F24903D5E1B4456151BD0D476398E7006A
:10050000092997D001E0E780C01E2DBF15476398E9
:10051000E7000121974002E0E78060B325B71D475F
:10052000E392E7F2FD2697B001E0E780209819BF3B
:1005300083C7C1F5918BE38707F0973002E0E7802E
:1005400060C009B7850793F7F70F2300F400E3E5D0
:10055000C7F021BFB250225492540259F24945616A
:1005600082809167B7C6004093873730411123A638
:10057000F62001000100938741D1984F83A741C520
:100580003A07F053B7071000FD17918F9983D98F61
:100590003EC6B1679387373023A6F6203245410126
:1005A00082804111B7170040985F3AC6945F324786
:1005B000E39CE6FE32454101828083A7C1C341111D
:1005C00022C406C62A84E1E34165130525F597D0C8
:1005D00001E0E78000B045C98347C5002316F50058
:1005E0008327840FC1EB232CA40E232EA40E854752
:1005F000231AF402232005008347B4005441231535
:10060000F5000347A4002304E50003A781F2138546
:10061000170215811C437D151375F50F9CC25C43B1
:10062000938606021307070223A2F6FE832787FE9E
:1006300023A4F6FE8327C7FE23A6F6FE832707FF23
:1006400023A8F6FE832747FF23AAF6FE832787FF0A
:1006500023ACF6FE8327C7FF23AEF6FE45FD938746
:1006600001E603D7870005072394E700B240224440
:10067000410182808327C40F88C383574403232EFC
:10068000A40E8507B5B783478400230804000545F9
:1006900093C747002304F400D1BF8347E50193F7D4
:1006A000E70F89CB014582800145B2402244924444
:1006B000410182808347F501F5F7411106C622C446
:1006C00026C2034705018347850019C70346650213
:1006D00083C6D1CE6367D60093F60701F1D60144F5
:1006E00009CB034405150347F514C18B2204598C2B
:1006F00081CB8347451503473515A207D98F3E9413
:1007000045D483A601EB0386C1CEFD54B705C0A82E
:1007100003A7060883D74607635A0602B307F740C4
:1007200063F39700BE849442E5F683A781B682976F
:10073000E3ECA4F61304B414158013040402338507
:10074000A440333585001345150085B7E378F7FCE1
:100750002E97E9B7411126C403A741C44AC222C655
:100760001C5F938441C49983858BB1CB9307F0FBC5
:100770001CDF83C701F1138401F193F7070489C7D4
:1007800083A781B6829708C88547A302F40083A790
:1007900041C55844B8D3930700F82302F4008307F7
:1007A000640063DE070083A701C4130700FC230372
:1007B000E4009C439983858B99E32303040083A77A
:1007C00001C4D8430583058B19C7D843759BD8C38B
:1007D000D843799BD8C398401C5F8583858BC1CB58
:1007E000F5571CDF010001000100010001000100BC
:1007F00001000100010001000100010001000100F1
:1008000001000100010001000100010001000100E0
:1008100001000100010001000100010001000100D0
:1008200001000100010001000100010001000100C0
:1008300001000100010001000100010001000100B0
:1008400001000100010001000100010001000100A0
:100850000100010001000100010001000100010090
:100860000100010083A741C513075004B8CB98408D
:100870001C5F9183858B81CFBD571CDF83A741C54A
:10088000054723A80704938701F12382E700324438
:10089000A244124941017300203037F700E083275A
:1008A00007D1CD9B2328F7D0938701F103C74700D9
:1008B000058B01EF03C73700058B01EB03C727004A
:1008C000058B01E773005010D5B7828083A741C51F
:1008D000094798C3D9B783A741C5B7C60040A8CB7D
:1008E0009305C00313062003138701F183A7862015
:1008F000C18393F7F70363E9F50083A78620C183DB
:1009000093F7F7036366F60083474700858BF9DFAB
:10091000828037F700E0832707D1CD9B2328F7D0CB
:10092000938701F103C74700058B01EF03C7070059
:10093000058B01EB03C71700058B01E7730050100F
:10094000D5B7828083A741C5B7C60040A8CBC145B3
:100950006546138701F183A78620C18393F7F703C8
:1009600063FDF50083A78620C18393F7F7036366D1
:10097000F60083474700858BF9DF82800347150027
:100980001507719B0D072A9709C68347F7FF2300B8
:10099000F60083470700054593F60701B9E68DC1C8
:1009A00003C661F19306000C09456310D60493F663
:1009B000F7060546639BC602E207E18763C70702A5
:1009C0008347E7FF0347D7FFA20793F70770D98F45
:1009D00093960701C18213F606401387C1C419C656
:1009E00093E606802310D700014582802310F7008C
:1009F000E5BF03A541C5138641C51445938701F1A1
:100A000013970601418393F81620BA85638508067B
:100A100093F60620638F060E83C62700B7080010E2
:100A200093E616002381D7009306001934D193066C
:100A300000F82382D70003A541C45455F19A93E6E8
:100A4000260054D51441B3E6160114C183A601C58E
:100A50009DC283A8460003A3860003A50800336552
:100A6000650023A0A80083A8C600D44A03A50800F7
:100A7000C98E23A0D80093F625109DCE93F50510BE
:100A8000C5C583C601F193E616002388D1F083A67D
:100A900001C523820700A382070089CE884A03A8E4
:100AA00046010C41B3E505010CC1884294460C4156
:100AB000CD8E14C12394070083C547001347F7FF69
:100AC000144213968501420761864183635F0600E5
:100AD0001316170163510606AC5209466367B60048
:100AE00005462382C700BC52FDFF8387C1CE63DD6C
:100AF000070093170701C18763D30704F0528947A2
:100B000063E4C700FC52FDFF9C467D8F98C67300CE
:100B1000203083C617002394070093E61600A380B5
:100B2000D700238207001DB783C6370093E616005F
:100B3000A381D700A9BF05462382C7007DB7DC4645
:100B400013960701635C0600B7071000FD17FCD27F
:100B5000938741D1904F050690CF7DB7A1675D8FF8
:100B600065B7938781F41386C1F20346B60183C744
:100B70005701938681F41387C1F2B29793F7F70F69
:100B80007D46636AF604A300F700834717004C4BC9
:100B9000A38AF6008546B396F600ED8EA9E60146D7
:100BA0001308000233D5D500058901C50506137663
:100BB000F60F8506E39806FF33F6C70281468147A4
:100BC0001308000233D5F500058919C96397C600DB
:100BD000A300F700828081177DB78506E206E186D3
:100BE0008507E39107FF828003A781C5B7570200FD
:100BF0009387079F832607091396560063580600BC
:100C0000832607091396660063440600FD17FDF36B
:040C100082800000DE
:100C140083A581CD938781CD1386052223A0C1B4FA
:100C240003D74700938785FFBA97056523ACF1B2D4
:100C34001D05930600206364E500935637003307CF
:100C4400D60023AEE1B223A0E522E1162312D6009A
:100C5400231306001CC3998FE1172312F7002313F3
:100C64000700828083A701B403A681B32A87B30552
:100C7400B5406314F6003A8529A8938687009C43FF
:100C8400E369D7FEE377F7FE2E85E3E4D5FEE3F2CE
:100C9400F5FE828023AC05FE1C4181E70CC18280F5
:100CA400BA8703A787FF6DFF23ACB7FE82801DC1FF
:100CB4008346E5FF1307F00F9147639EE600411159
:100CC40006C69730FF1FE78000BFB24081473E85CC
:100CD4004101828095473E85828001E901458280F9
:100CE4000145B240224441018280411122C42A8438
:100CF400210542059305D004418106C69730FF1FA4
:100D0400E78000B071DDFD57232005002312850024
:100D14002303F5002105F1B7411126C222C44AC0BC
:100D240083A741B406C601440149938441B489E7C9
:100D3400A165E12D05C401A803C7E7FF6317A70256
:100D440015C8A1650D2C9840832784FF6316E4021F
:100D54009CC0FD57232C04FE230FF4FE2285B240D1
:100D64002244924402494101828011E03E8983A7D2
:100D740087FF75BF3E84E5BF232CF9FED9BFB9C5F3
:100D840083C751D1411122C406C62A842E856368C3
:100D9400F400313F0D45B24022444101828083A7D3
:100DA40085FF99E703C7E5FF9307F00F6305F70095
:100DB400FD3D1545CDB7238F85FE138541B4D93D3F
:100DC40022852244B240A165410175A21545828065
:100DD40023A201B4828083A701B699E33E85828071
:100DE40003D727006316B70003C70700E308A7FE6D
:100DF400DC47E5B74111939705014AC006C622C4F2
:100E040026C2C1872E8963DE0700393711C14535F3
:100E140021653345A900B24022449244024941016C
:100E24008280AA860145E5D901443D47B3578940EC
:100E3400858B8DCB83A401B5BD4791E28147A297F1
:100E44008E070545BE9433158500131405019C4097
:100E5400C8404180829723A0040023A204003345A4
:100E6400240155BF0504E313E4FC0144CDBF83A76B
:100E740081CF411122C406C6138481AF85C78297EE
:100E840008C00840B74703009387D73F3305F502EE
:100E9400B7A72600938737ECB2403E9508C022449A
:100EA40041018280184083A741D2BA971CC0D1BFA8
:100EB4002A9609E582800505A30FB5FEE31DC5FE4C
:100EC400D5BF81473307F5000307070019E33E85C3
:100ED40082808507C5BF01112E8626CAAA841315F0
:100EE40006019305F004418122CC06CE32C6973028
:100EF400FF1FE780E0902A8419C53246A685973003
:100F0400FF1FE780A0A62285F2406244D244056117
:100F1400828081476314F600054582803307F5001B
:100F24008507B386F5000347070083C6F6FFE3830E
:100F3400E6FE014582809307F6FFBE952A96631369
:100F4400C5008280FD1583C715000505A30FF5FEB6
:100F5400FDB7814711E9014582803307F500034756
:100F64000700E31AB7FE8507E319F6FE05458280FC
:100F740003A541D2828083C751D1637EF5009317C4
:100F8400150003A581B43E9583570500DD8D23101C
:100F9400B500014582800D458280397126DA938738
:100FA40001F106DE22DC4AD84ED652D456D25AD0AB
:100FB4005ECE83C7B700938401F1BDC383C77400B9
:100FC400A5E303C4A400A385040089476310F40ABD
:100FD400138701E63843138401E683467700A9C2E8
:100FE40003465700B755550037C5898E9385555527
:100FF400130565EDEF50E11C03C774009307D7FF99
:1010040093F7D70F91E785472385E400A385F40080
:101014008947A383F4003C40130710FA2383E700B5
:1010240083A7C1B58DCB82972A8A15C5938741D1F1
:10103400984B938941D12A9798CB7D57D8C703A45D
:1010440001B6138B01B6138981CD814A49EC8327FC
:101054004902639E070EF2506254D2544259B25967
:10106400225A925A025BF24B216182808D47631CA3
:10107400F402138901E68327890403C777004DD35B
:1010840003C65700B755550037C5898E9385555506
:10109400130565EDEF50E11283278904A3838400CF
:1010A400130710FBA5BF9547E31CF4F6938781F45F
:1010B40003C76701118B2DD703C7C1F203C63700DD
:1010C40083C62700058B09CFC84319C9834515007A
:1010D4000905EF50912129D58547A385F40089B7E7
:1010E40081450145FDB7184481476374EA00B3079D
:1010F4004741032749021CC419C703A7C90063F465
:10110400E70023A6F90085EB8355240099ED5C44A0
:10111400639C0A022320FB00832BC40022859720B2
:10112400FF1FE78040795E8415B703450400A135AD
:101134005C4081CB1CC483572400F1DBA28A404469
:1011440031B71C44E9D7C5BF23A6FA00F1B783C65B
:10115400190003A681B4814713F7F70F6360D7081A
:1011640083C774000D47F91793F7F70FE375F7EE8C
:1011740083C7C1F5918BE39007EE6800EFE0F0259B
:101184007D576305E50C03443901B247E375F4EC7C
:1011940083A9C900834749016381E906858BB9C7DF
:1011A400D147B389F902E37834EB9730FF1FE78026
:1011B400409BB24763F3F900CE8703443901818F22
:1011C4003384A7008307490163CF0702B707C0A888
:1011D400636BF402B70740573E9435A08507139715
:1011E400170032970357E7FF25DBB5B59307900245
:1011F400B389F90293D919007DB7E207E18763DF68
:1012040007023304854003D5E1B49720FF1FE7802C
:10121400E07383274902228519E03705C0A8829725
:101224001375F50FE31905E29C4CE38607E2EF40E2
:10123400316BEF50C13CEF40515E31BDE37385FC2F
:10124400B707C0A8338487402A9475BF83A7C90011
:10125400E383A7E003474901058B0DC3514433845D
:10126400870283473901E3F887DE9730FF1FE78061
:10127400408F834739011D8C2A94A9B71304900227
:10128400338487020580F1BF83C751D16370F502AF
:101294009317150003A581B493C5F5FF3E958357B5
:1012A4000500FD8D2310B500014582800D45828027
:1012B40083C751D16364F50001458280411122C482
:1012C40026C24AC006C62A842E89B284293601C59C
:1012D40004C5054515A0936504F0C205C1814145C7
:1012E4009720FF1FE780C05111ED83A781D081C7EC
:1012F400A285114582970145B24022449244024995
:1013040041018280138701B61C4385E308C38547E6
:101314002326050004C52311250123008500A3000D
:10132400F5002322050075B7BA87D84775FFC8C7EB
:10133400F9BF5DC1397122DC26DA4AD84ED652D4BF
:101344005AD05ECE66CA6AC806DE56D262CC6EC673
:101354003689328AAE89AA840144394D854BF94CC9
:1013640003A701B5131C3400937AF40F62971C434E
:10137400938D01B5A9EF13B5FA0013451500B39782
:101384008B0063765D01930714FFB397FB0093957D
:101394000701C1815286293F1DC983A70D0001455C
:1013A400E29784C323A2370163040900230059018F
:1013B400F2506254D2544259B259225A925A025BA0
:1013C400F24B624CD24C424DB24D216182800504F5
:1013D400E31894F92145E9BF09458280411122C4EB
:1013E40026C24AC006C6AA842E893284D135CA854B
:1013F4002685D53209C940C10145B24022449244F0
:101404000249410182802145CDBF411122C426C237
:101414004AC006C6AA842E897D3A2A8419C123119A
:101424000500CA8526858D35014511E01945B24070
:10143400224492440249410182807547636BA704A8
:1014440083A601B5411126C293143500A696944291
:1014540022C406C6AA87138401B5094595C613B5E7
:10146400F7003947134515006373F700C517854521
:10147400B395F500C205C181493F1C400145A697BB
:1014840023A0070023A20700B24022449244410152
:10149400828009458280411106C6353A09C508454E
:1014A400B240410182800145E5BFF54763ECA704E2
:1014B40083A701B513173500BA979843894721C705
:1014C400011126CA06CE9334F50022CCB94793C441
:1014D400140063F3A700451505443314A400420423
:1014E40041802EC62685A2857D378947324609C5A7
:1014F400A2852685753B8147F2406244D2443E85ED
:101504000561828089473E8582802396A1B4239712
:10151400B1B48280411106C623AEA1B40295B24093
:1015240023A4A1D2014541018280854763E8B70025
:1015340093972500938541B5BE9588C1828041115A
:1015440006C622C426C2EFF0AFEC214681451385BE
:1015540041B5B93A138441D113060002814513857C
:1015640041D1B93223A001B623AE01B483C741CF20
:101574009305101013D527008D8B3E958D473305A9
:10158400F5029947938441B635051375F50F230188
:10159400A4003305F5021305050F9720FF1FE7800C
:1015A400202623A8A1B4834724001305050F88C06F
:1015B4008A073E9523A4A1B4EFF09F81A92E834707
:1015C40014009840B7160100139627003A969386A4
:1015D40086DF14C213862700850793F7F70FA3004D
:1015E400C400B24022448A07BA9794C3924441018A
:1015F4008280138741D1834717008346270063FE07
:10160400D70083A641B613861700A300C70013971B
:101614002700369708C33E8582809307F00FE5BF05
:10162400411122C4004106C626C24AC08947630F3D
:10163400040E4177618FB706002089476318D70EDF
:10164400035945006304090EAA8419469305F00F53
:101654005905EFF01F9005478D476309E50C4A864D
:1016640022858145EFF0DF841306C003814513858D
:1016740081CDEFF0FF831306C003A685138581CDCA
:101684009720FF1FE780802E138981CD0357C9005F
:10169400938781CD09E7130700202396E70003C74A
:1016A400E70001E705472387E70003C7F70001E7E1
:1016B4006D47A387E70003C7070101E715472388A0
:1016C400E70003C7170101E70547A388E70003C73D
:1016D400570109E703C70701A38AE70003C72701E6
:1016E40001E751472389E70003C7E70109E7130727
:1016F4008002238FE70003C7E7018D463357D702E3
:1017040083C637019DEA1307D7021377F70FA3891E
:10171400E70003C7D40101E70947A38EE7009C57FC
:1017240081C78297239DA1D0193D8147B2402244AD
:10173400924402493E854101828083C63401369732
:10174400E9B7411106C69720FF1FE780804103C611
:10175400C1CE058A15CA930730333307F502B33770
:10176400F5023983CA07938541D1D98FD849938625
:1017740041D101456307F7006370F7023385E74001
:10178400DCC9B24041018280E5473307F502B33733
:10179400F5022583DE07C1BF37653D0809C63785D5
:1017A4006F0813050590198D3E95DCCAD9BF011148
:1017B40022CC06CE2A842EC6EFF06FEBB245F2405F
:1017C400818D33A5A502229562441375F50F056139
:1017D4008280011122CC06CE2A842EC6EFF02FE996
:1017E400B245F240818D33A5A5022295624442059B
:1017F400418105618280011122CC06CE2A842EC645
:10180400EFF0EFE6B245F240818D33B5A5022295A3
:10181400624405618280138781CD1857011122CC5F
:1018240006CE26CA4AC84EC6138401F131CF1389A5
:1018340081CD0297138741D103576700AA84938906
:1018440041D12DCFBA876373A700AA87C207C1838A
:10185400BA8663F3E400A686C206C182958F514717
:10186400635EF7048327C90291C3829785472304E3
:10187400F400EF40F14623939900F2406244D244CD
:101884004249B24905618280834784008DE78347DA
:101894009400850793F7F70FA304F400A18BF1DFFD
:1018A40085472314F4006244F240D2444249B249C9
:1018B40005616F407148A3040400F5B783478400B1
:1018C400CDDFD5B7138781CD5857011122CC06CE71
:1018D400138481CD01C72AC602973245938781B606
:1018E40001CD88C337150100130565742531F24015
:1018F400624401450561828003074401635807007F
:1019040037470020130727B298C3E9BF37470020A1
:10191400130727B6D5BF011122CC138481CD084407
:1019240006CE26CA19E50545F2406244D244056153
:1019340082805C58EDDB185C7DD77000854582970A
:101944001844B247E301F7FE0345E4008357C4009B
:101954009305E0043305F502938441D142054181A6
:101964009720FF1FE780C0E9C8CC55DD8357C4002A
:101974000346E4009305F00F3306F602EFF04FD36D
:10198400D04C08448357C40008C28345E400B3859F
:10199400F5021C5C89818297C84C9720FF1FE78061
:1019A40080F1014523AE040041B7411122C493875D
:1019B40081CD9C4726C206C6938441D1B1CF1384FE
:1019C40081CD1C5CB1CBDC4C85E30345E40083573B
:1019D400C4009305E0043305F502420541819720D4
:1019E400FF1FE780E0E1C8CCC84C1DC58357C40085
:1019F4000346E4009305F00F3306F602EFF04FCBF5
:101A0400D04C08448357C40008C28345E400B3851E
:101A1400F5021C5C89818297C84C19C59720FF1F69
:101A2400E78060E923AE0400B240224492440145B9
:101A34004101828001114AC8938741D122CCC04F11
:101A44004EC652C456C206CE26CAAA8AAE89328A65
:101A5400138941D139E0938481CD9C4499E3A9440D
:101A6400BDA803C5E40083D7C4009305E00433058F
:101A7400F502420541819720FF1FE78060D82A8440
:101A840041C1DC58B5CF83C5E40003D7C4002A861E
:101A94008844B385E5028981829791451307A0059F
:101AA400898193972500A29783C607006396E6046D
:101AB40083C61700639F560385058A054E86A29543
:101AC40052859720FF1FE78060EA8327C90181447C
:101AD4006387870022859720FF1FE780C0DDF240DF
:101AE400624426854249D244B249224A924A056157
:101AF400828083D527006DB78327C901E38187F6E8
:101B040022859720FF1FE78000DB91BF938781CD5B
:101B14009447A9C2985F1DCF0546631DC5024111B4
:101B240022C4138441D1504C06C60DC283C5E700BC
:101B340083D7C7003685B385F50289810297484C5F
:101B44009720FF1FE78020D7232E0400B2402244B1
:101B540041018280828001114EC6938741D1DC4FBE
:101B640022CC4AC852C406CE26CA2A8A2E89328476
:101B7400938941D1B1EB938481CD03C5E40083D72C
:101B8400C4009305E0043305F50242054181972022
:101B9400FF1FE780E0C623AEA9002A8611E9294584
:101BA400F2406244D2444249B249224A05618280E9
:101BB400884419C9DC5889CB83C5E40003D7C40021
:101BC400B385E5028981829703A5C901914613086B
:101BD400A005FD5593D72600C207C183139727009C
:101BE4002A9703460700631B06038348170003561E
:101BF400270063934803B306D64063CD26018507C7
:101C04008A073E954A86A2859720FF1FE78000D663
:101C1400014579B7A300B700B2866DBF138681CDA5
:101C24008345E6000356C600B385C5023386260104
:101C34001106E3E6C5F613063900719A1106B29649
:101C440023000701A30047012311D7004DBF01451D
:101C5400828083C705002300F50083D72500A300F5
:101C6400F50083D72500A1832301F50083C7450030
:101C7400A301F5001145828023A801B623A601B66D
:101C8400828029C1411126C206C622C4AA84014504
:101C94008DC52E84B7D50200228541469385050C57
:101CA4009720FF1FE78080CC83C7040005452306E7
:101CB400F40083C71400A306F400B2402244924403
:101CC4004101828001458280011122CC26CA06CEC0
:101CD4000947AA8432846381E50441468147639BB2
:101CE400C500638FE6006397B6000DA8414781479E
:101CF400638EE600F2406244D2443E8505618280F0
:101D04008A852285BD3F41468A8519A88A85953FE3
:101D140041468A85228531A0E39AB6FC2E86A285A7
:101D24002685EFF00F9FAA87F1B723A6A1B682807C
:101D340023A8A1B68280011122CC0354650006CEEB
:101D440026CA4AC84EC641C083298500AE842A8863
:101D540003C9090081471317890161876355070285
:101D6400B147054563FA870451144204035528001A
:101D7400418033878900A2864E868545EFB01027BF
:101D8400B337A00085077D14135569004204058903
:101D94001379F90341802380F400A380A4002381F4
:101DA400240123928400014719C01387190098C4A1
:101DB40009476383E7000145F2406244D244424943
:101DC400B249056182800545C5BFC167F917630A39
:101DD400F502D94763F7B702011122CC2EC606CE0D
:101DE4002A84EF70D023B2456368B500228562442B
:101DF400F24005616F90E026F240624405450561BA
:101E0400828005458280C167F9176314F5006F70FD
:101E14001021411106C6EF90C01411E15D45B24096
:101E24004101828091476394F502834705002300B2
:101E3400F6008347250003471500A207D98F231115
:101E4400F6008347350001452302F60082801145E0
:101E540082804111814522C426C206C6AA84312D3E
:101E64002A8419E583A7C1B681C7F94526858297D7
:101E74002285B240224492444101828039714ED677
:101E840056D25AD006DE22DC26DA4AD852D4AA8A9E
:101E94002E8BB28941EF36C6BD379145EF7090273E
:101EA400AA844D492DC9B246054A2380340105440C
:101EB400630A0B00B68513851400029B05051314F1
:101EC40005014180E20993D9894163D30902C145DF
:101ED4005685EF900016654905E933868400A2858E
:101EE4002685EFB020552A8905E13104420441805A
:101EF40091472C085685231CF10026CE231D810012
:101F0400EF80902C2A8901C963070A00268597204F
:101F1400FF1FE780409AF25062544A85D2544259D6
:101F2400B259225A925A025B21618280BA84014AD0
:101F3400ADBF011122CC26CA4AC84EC606CE2A8994
:101F44003284B689253FAA8419ED83A701B781CFCE
:101F540005476317E40003C4090005041374F40F70
:101F6400A2854A858297F240624426854249D2443A
:101F7400B24905618280AE86B72501000147054656
:101F8400938565C57DB783D705002300F50083D706
:101F94000500A183A300F5000945828083D70500CD
:101FA4002300F50083D70500A183A300F50083D7A0
:101FB40025002301F50083D72500A183A301F500A3
:101FC4001145828083D705002300F50083D70500DF
:101FD400A183A300F50083D725002301F50083D74F
:101FE4002500A183A301F50083C755002302F50052
:101FF40083C76500A302F50003D5850019054205D2
:102004004181828083D705002300F50083D7050032
:10201400A183A300F5000945828083D7050023002E
:10202400F50083D70500A183A300F50083D725001D
:102034002301F50083D72500A183A301F5001145F1
:10204400828003D54500060542054181828083D7FD
:1020540005002300F50083D70500A183A300F50044
:1020640003D52500090542054181828083D70500F7
:102074002300F50083D70500A183A300F50083D7CF
:1020840025002301F50083D72500A183A301F500D2
:1020940003D54500110542054181828083C70500AF
:1020A4002300F5000545828083D70500411122C431
:1020B40006C62300F50083D705002E841105A183ED
:1020C400A30EF5FE83D725009505230FF5FE83D7D0
:1020D400D5FFA183A30FF5FE03C6F5FF9720FF1FCD
:1020E400E780C08803454400B24022441105410101
:1020F40082808947639CF5008347150003470500E8
:102104000145A207D98F2310F600828011458280F1
:1021140003D70500D94763FEE702011122CC06CE9E
:102124002EC62A84EF70A06FB24683D70600636D73
:10213400F50022856244F240B725010001470946B3
:102144009385A5F805611DBBF2406244094505610C
:1021540082800945828091479DC583460500FD150F
:10216400C2058547C1816392F60213D725008D8984
:10217400914791E9914701CB05052301D60023102E
:10218400E60048C281473E85828009479147E39C27
:10219400E6FEC94733D7F502B3F5F502D1BFAE86E3
:1021A400B725010001471146938505FAC1B993F794
:1021B400350091EB8981914789C52310B60048C247
:1021C40081473E8582809147EDBF03C7450089471B
:1021D400631AF702011122CC2A84C84506CEAE86C2
:1021E400014719C52EC69D45EFE0DFA7B2462A87F1
:1021F40022856244F240B72501001946938585FC87
:102204000561ADB90945828099E111458280834712
:10221400050005472311F600E379F7FEFD1593F554
:10222400F50F33D7F502B387E702E390F5FE050512
:1022340048C22310E6000145828083C74500094750
:10224400AE866385E70041476399E700B72501003F
:10225400014721469385C50A15B10945828023109B
:10226400B60091E1014548C201458280AE86B7259A
:102274000100014729469385850009B12310B60062
:1022840091E1014548C201458280AE86B72501002F
:10229400014731469385E501D5B62310B60091E197
:1022A400014548C20145828003D74500854763FD47
:1022B400E702011122CC2A84884106CE0DC12EC624
:1022C4008545EFE03F9A2A8722856244B246F24070
:1022D400B7250100394693856504056145B6F2408A
:1022E40062440945056182800945828091479DC504
:1022F400034705008D46914763F2E602FD15C205CA
:10230400C181B3C6E5023308D70263990501050507
:102314002310D6002311E60048C281473E858280FF
:1023240083C745000947AE866385E7004147639943
:10233400E700B7250100014741469385C50A3DBE24
:1023440009458280B335B0001395250082800111C0
:1023540022CC26CA06CE03C785008547AA842E84CC
:1023640049466310F7024534835724004915130680
:10237400200963C8A700F2406244D24409450561BC
:1023840082800347940085476314F70013660604AC
:10239400484011C58D4532C6EFE0DF8C3246A28637
:1023A4006244F2402A872685D244B72501009385EA
:1023B40025050561E1B48D4763FFB7028347150026
:1023C40003470500F115A207D98F2310F6008347B0
:1023D400350003472500C205A207C181D98F231107
:1023E400F6002312B60089C5110508C6014582808E
:1023F40023240600E5BF11458280011122CC2A84E2
:10240400884506CEAE8611C52EC69545EFE09F855C
:10241400B2462A8722856244F240B7250100594614
:102424009385050705616FF07FA5B335B00013955B
:1024340025008280AE86B725010001476146938559
:10244400050A6FF0BFA38547114563F4D70283479C
:10245400160083450600A207CD8F2310F70093874B
:10246400E6FF2311F70089476386F600090650C387
:102474000145828023220700E5BF01478146794652
:1024840081456FF0BF9F83D705002300F50083D7F4
:102494000500A183A300F5000945828083C72500B8
:1024A40005472300F50003D505006397E7000A05F7
:1024B4000505420541818280C9473305F502CDBF38
:1024C40003D505000A0542054181828083D7250092
:1024D4002300F50003D5050083D725003305F50255
:1024E400050542054181828003D50500828003D51C
:1024F4000500828003D50500828083D72500230050
:10250400F50003D5050083D725003305F50205053D
:1025140042054181828083D705002300F50083D7DB
:102524000500A183A300F50083D725002301F5004E
:1025340083D72500A183A301F50003D54500110528
:1025440042054181828083D705002300F50083D7AB
:102554000500A183A300F50003D525000905420564
:102564004181828089471145639BF60083471600A9
:10257400834606000145A207D58F2310F700828009
:1025840003D70500D947AE8663FAE700B7250100F3
:1025940001470D469385A5486FF0BF990945828090
:1025A40011456393A602834716008346060001453E
:1025B400A207D58F2310F7008347360083462600F1
:1025C400A207D58F2311F700828083C72500054712
:1025D400FD1793F7F70F6361F70483D705008DCFD9
:1025E400011122CC2A84C84106CE15C12EC68945C4
:1025F400EFE04FE72A8722856244B246F240B725CE
:10260400010015469385054A05616FF09F92F240DB
:1026140062440945056182800945828095471145D8
:1026240063F9D706411122C426C24AC006C68347AD
:102634001600BA8403470600A2073284D98F239078
:10264400F400834736000347260093054400A2079D
:10265400D98F2391F40089472382F4000946138516
:10266400540036899710FF1FE78040309307A9FF75
:102674002394F4009947631BF90023A60400B24095
:102684002244924402490145410182801904C0C494
:10269400FDB7828083D705008DCF011122CC2A8417
:1026A400C84106CE15C12EC68545EFE0AFDB2A87AB
:1026B40022856244B246F240B72501001D46938547
:1026C400454C05616FF0FF86F2406244094505619F
:1026D40082800945828099476395F60489474111B0
:1026E40006C62302F7008347160083460600B28518
:1026F400A207D58F2310F7008347360083462600B0
:1027040003464700A207D58F130557002311F7008E
:1027140091059710FF1FE7806025B24001454101F4
:102724008280D14711456394F600C1474DBF828032
:1027340083D705008DCF011122CC2A84C84106CE4F
:1027440015C12EC68945EFE0EFD12A872285624460
:10275400B246F240B725010025469385054D056133
:102764006FF02FFDF24062440945056182800945FE
:10277400828089471145639BF60083471600834690
:1027840006000145A207D58F2310F70082800111AE
:1027940022CC2A84C84106CEAE8611C52EC68545F4
:1027A400EFE04FCCB2462A8722856244F240B72537
:1027B40001002D469385C54E05616FF08FF71145D5
:1027C4006393A60283471600834606000145A207C9
:1027D400D58F2310F7008347360083462600A207CF
:1027E400D58F2311F7008280011122CC2A84C8419D
:1027F40006CEAE8611C52EC68545EFE0AFC6B246FD
:102804002A8722856244F240B72501003546938524
:10281400254F05616FF0EFF193F71600114589EB31
:1028240089476387F60085822312D70010C30145C8
:102834008280011122CC2A84C84106CE15C12EC63D
:102844008545EFE02FC22A8722856244B246F240D2
:10285400B72501003D469385854F05616FF06FED07
:10286400F240624409450561828083D705008DCF1B
:10287400011122CC2A84C84106CE15C12EC6894531
:10288400EFE04FBE2A8722856244B246F240B72564
:10289400010045469385E54F05616FF08FE9F240ED
:1028A400624409450561828009458280854763FC4D
:1028B400D7022304A700A304B70083471600834567
:1028C4000600A207CD8F2310F7009387E6FF23119C
:1028D400F70089476386F600090650C301458280E4
:1028E40023220700E5BF11458280014781464D46FA
:1028F40081456FF00FE48D47114563FBD702834791
:10290400160083450600A207CD8F2310F7008347E6
:10291400360083452600A207CD8F2311F700938745
:10292400C6FF2312F7006386A600110610C70145EF
:10293400828023240700E5BF011122CC2A84884524
:1029440006CEAE8611C52EC69545EFE0AFB1B246B0
:102954002A8722856244F240B72501005D469385AB
:10296400A55105616FF0EFDC854711456397F600CB
:102974008347060001452300F70082800147814612
:10298400654681456FF0EFDA011122CC2A84C841F3
:1029940006CEAE86014719C52EC68D45EFE08FAC35
:1029A400B2462A8722856244F240B72501006D466B
:1029B4009385A55405616FF06FCC011122CC2A8454
:1029C400C84106CEAE86014719C52EC68D45EFE037
:1029D4006FA9B2462A8722856244F240B7250100D6
:1029E40075469385A55405616FF04FC9011106CE54
:1029F4002EC6EF80A05301C9B245F240035525000D
:102A040005616FB09003F240494505618280A38E51
:102A140001B8238E01B823A201B823A401B823A6C8
:102A240001B823A801B823A001B823AE01B6938747
:102A340041D33707B40098C33747A000D8C337073A
:102A440010009306070A94C7B7065000C106D4C7FE
:102A5400930607054107D8CB3707D007410798CF1E
:102A640037070F0098D337C70700130707B8D8D321
:102A7400416794CB93060701130717F8D8D741771A
:102A840023AE070094D798DB8280011126CAAA845A
:102A9400214522CC06CE2E8432C636C43AC2EFE09B
:102AA400CFA31DC9A24612473246930700FD230057
:102AB400F5009947A30095002301F5002303D500F1
:102AC400A303E5002312C500AA8522856244F240CF
:102AD400D24405616FE0AFAAF2406244D24405617A
:102AE400828023A2A1B8828023A4A1B8828023A6D5
:102AF400A1B8828023A8A1B88280011122CC4AC83F
:102B040006CE26CA2A890144B30489006368B40046
:102B1400F2406244D2444249056182802EC6EFE00D
:102B24000FB593170501C183A183B2452380F40037
:102B34009307140093F7F70F850463F9B700CA9756
:102B440009042380A7001374F40F7DBF3E847DBF66
:102B5400411122C4138481D603556400C16706C69B
:102B6400FD17630BF50003C6C1C2938541B9EF801D
:102B7400A026FD572313F400B24022444101828071
:102B840009C925151375F50F1335850E1345150061
:102B940082800145828023800500F94763E2C708EB
:102BA400797122D426D24ECE56CA5AC806D64AD0F5
:102BB40052CC5EC63684B289AE8A2A8B814463FFC6
:102BC4003405B307940003CA07001389140013796A
:102BD400F90F63050A04B3072A0163C1F904B307B3
:102BE400240183CB07005E85613F0DC99307FAFF7B
:102BF4002380FA0063906B03130519002295B250E9
:102C0400225492540259F249624AD24A424BB24B7C
:102C140045618280D29493F4F40F55B70145C5B74A
:102C240001458280011122CC26CA4AC84EC6938728
:102C340081D606CE2E89D0CB8CCBC8C7AA84414678
:102C44009305F00F4A85EFE0CFB08549138481D610
:102C5400631735030848C1454D3541469305F00FC8
:102C64002685EFE00FAF054963132503484462440A
:102C7400F240D2444249B249C1450561BDBD414615
:102C840081454A85EFE0EFACE31935FDE1B74146F4
:102C940081452685EFE0EFABE30A25FDF24062446F
:102CA400D2444249B24905618280011122CC26CA2C
:102CB4004EC6AE84AA8913060002138581D68145C7
:102CC40006CE4AC8EFE0CF9E138981D6A38791C26E
:102CD400A3013901EFB0E057138481D6854719C1A8
:102CE400814749452300F400F2406244D2444249FA
:102CF400B24905618280814781CD19C98547631B2B
:102D0400F50083C7550093E707FCA382F5008547C8
:102D14003E85828089476317F50083C7550093F782
:102D2400F703E5B70D478547E314E5FE03C75500F0
:102D34001377F70313670704A382E500D1BF814724
:102D44008DC105C103C755009306000C8547137751
:102D5400070C6308D700930600048D476303D7006C
:102D640089473E858280411122C4005D06C626C281
:102D74001DC8AA84085009C59710FF1FE780A0B397
:102D8400485009C59710FF1FE780E0B2085409C5F1
:102D94009710FF1FE78020B222859710FF1FE7805E
:102DA40080B123AC0402B2402244924441018280A7
:102DB400938781D609E903C727001385870111C7C3
:102DC400138541B7828013858701828003C5A1D60C
:102DD400828003A541D7828003A581D7828083A7FF
:102DE400C1D788438280938781D6D44B9842050704
:102DF40098C203C537009307F00F6305F50091658A
:102E04006FE06F978280011122CC06CE2E8432C6E9
:102E1400EF80A0209147B245631EF50083A701B956
:102E240085C303A30700630D030022856244F240B7
:102E34000561028383A781B881C703A34700E5B76F
:102E4400F2406244054505618280011122CC2A8446
:102E54000355450006CE26CA4AC84EC6EF80A004D4
:102E640035C52A89834405008349C500ED3D4A855B
:102E7400EF80F07203554400EF80A0151389C1B9A7
:102E840083470900A1CB6397970483C5D1B92685ED
:102E9400EFF0DFB519E12300090003554400EF808A
:102EA400C0179147631DF500938781D6835644006C
:102EB40003D767006395E6007D572393E700F2404C
:102EC4006244D2444249B2490561828081499304F3
:102ED400F00F6DB79307F00FE381F4FC83466400B1
:102EE40003564400034524004E87A685EFF0FFB93E
:102EF4006DB779715EC6AA8B2E8552CC56CA5AC854
:102F040006D622D426D24AD04ECEAE8A328B368A08
:102F1400EF70707979CD045D2A89E1CC9C506145CC
:102F240099C3130540039C5481C75105420541814F
:102F340063050A00710542054181DC5081C75905CA
:102F440042054181EFD07FD92A8445C56146814538
:102F5400EFD01FF683C941D6639409008349090061
:102F6400930700FD2300F400A947A3007401230183
:102F7400F400230364018C502312540113058401CB
:102F840091C908C47146930A44039710FF1FE78050
:102F9400E09D56858C5491C948C45146930A450115
:102FA4009710FF1FE780809C5685630C0A0008C8B1
:102FB4007146D285930AC5019710FF1FE780009BD5
:102FC4005685CC5099C548C859469710FF1FE780CD
:102FD400E099A2854E85EFD09FDA2254B2509254E4
:102FE400F249624AD24A424BB24B4A850259456180
:102FF4009DBBB250225492540259F249624AD24AB9
:10300400424BB24B4561828001114EC6AA892E857E
:103014004AC806CE22CC26CA2E89EF70D06821C5B4
:1030240083C441D699E0834405001945EFD0FFCA13
:103034002A8415C981451946EFD09FE7930700FDFF
:103044002300F400B947A30034012301F400231240
:103054002401A2856244F2404249B2492685D24401
:1030640005616FD0DFD1F2406244D2444249B24993
:103074000561828039715ECEAA8B2E8526DA4ED602
:1030840052D456D25AD006DE22DC4AD8AE84328BD1
:10309400B68A3A8ABE8942C6EF70F06021C92A898D
:1030A4004145EFD09FC32A8431C141468145EFD0C9
:1030B4003FE003C541D619E103450900930700FD2C
:1030C4002300F400BD472301F400B247A3007401B8
:1030D4002312940023046401A3045401230544012E
:1030E400A30534015CC4A285EFD07FC9F2506254B9
:1030F400D2544259B259225A925A025BF24B21617C
:103104008280797126D2AA8439454AD04ECE06D619
:1031140022D42EC6B2893689EFD03FBC21C1B24534
:103124009307000D2310F500B1472A842312B5003C
:103134002301F500CE85190519469710FF1FE78076
:10314400E08223062401A2852254B2500259F24996
:1031540013F5F40F925445616FD07FC2B2502254DC
:1031640092540259F24945618280411126C29384E6
:1031740081D603C7340006C622C44AC09307F00FA1
:10318400630AF7042A893945EFD03FB52A8439C147
:10319400930700FD2300F500A3002501230105008A
:1031A400938584010D0519469700FF1FE780007C75
:1031B40083D78400A28503C534002315F40083C794
:1031C40014002306F4002244B2409244024941010F
:1031D4006FD0FFBAB2402244924402494101828036
:1031E400011156C2AA8A314526CA4AC84EC652C4DB
:1031F40006CE22CCAE84328AB6893A89EFD0FFADAE
:1032040039C52A842685EF70104A1DCD0345050073
:10321400930700FD2300F4009D47A30054012301FC
:10322400F4002312940023134401231434012315BE
:103234002401A2856244F240D2444249B249224A5E
:10324400924A05616FD0BFB303C5B1D6D1B7F2407E
:103254006244D2444249B249224A924A0561828078
:10326400397162CC2A8C594526DA4AD84ED652D4C2
:1032740056D25AD05ECE06DE22DCAE8432C636C4C6
:10328400BA8B3E8BC28A468A83590104034941049E
:10329400EFD0BFA435C53246930700FDA2462300F4
:1032A400F5009547A301C500A30085012301F5009E
:1032B4002A8419461105A9C2B6859700FF1FE78025
:1032C400E06A23066401230A2401231574012317E9
:1032D40054012318440123193401A2856254F25085
:1032E4004259B259225A925A025BF24B624C2685D9
:1032F400D25421616FD0BFA88145EFD07FBBD1B735
:10330400F2506254D2544259B259225A925A025B30
:10331400F24B624C21618280411122C4138481D614
:103324008347240006C626C29DC7AA85194613856D
:1033340041B79700FF1FE78060630345240093852E
:1033440041B7EFF05F9B2244B240138541B79244EA
:1033540041016FA0D070B240224492440145410122
:103364008280411126C2938781D606C622C44AC0F0
:1033740003C737009307F00F938481D66302F704E1
:103384002A892945EFD07F952A841DC9930700FD1A
:103394002300F500A147A30025012301F50083C7FD
:1033A4002400938541B7A301F50019461105970040
:1033B400FF1FE780A05B03C53400A285EFD03F9CCC
:1033C40003C7440085476315F70283A7C1B881C7C3
:1033D4009C4791C382972244B2409244024903C558
:1033E400C1C25D6613060670914541016FD01FFF8F
:1033F400B24022449244024941018280797122D42C
:1034040006D626D24AD04ECE52CC56CA09445DC9FD
:103414002A8903550500AE895144EF70D028AA8447
:1034240055C19387C1C283C737008546BA8AFD1741
:1034340093F7F70F494463F7F6080347C500A1471C
:103444006314F700639009089C5C4544A5EF9165FB
:10345400938545711305C0029700FF1FE780403A2A
:1034640088DC2A8A4D4439CD1306C0028145EFD049
:103474003FA48357090093064A0036852311FA00B6
:1034840071469305490036C69700FF1FE780004E3A
:1034940089472300FA0003C5C400B2460356090055
:1034A40083C5C1C2611513351500EFA060272A84B6
:1034B40063860900CE852685EF80503901C42685B0
:1034C400EFF07F8A2285B250225492540259F24975
:1034D400624AD24A4561828083C7F1C20547FD171B
:1034E40093F7F70F6378F708894751C6011122CC87
:1034F40026CA4AC84EC652C406CEAA89368AB2849F
:103504002E89EF70501A2A84D14729C9485509C514
:103514009700FF1FE780203AF1452685EFD0BF9B37
:1035240048D4CD4705CD8346C40021478147639FD6
:10353400E600630D0A000347A5010356050193063F
:103544002501AA854E85EF80C028AA870347440039
:10355400630F0900136767002302E400F24062442A
:10356400D2444249B249224A3E85056182801367AA
:103574004700DDB7C9473E858280E14763EAA7007B
:1035840093171500138541D33E950355050082809A
:1035940041657D158280011122CC2A842E8526CA9C
:1035A40006CEAE84EF7030100DCDB7470F00938771
:1035B400F723094563E2870281450A854146EFD036
:1035C4003F8FA685231081000A8541802301810055
:1035D400A3010100EF905077F2406244D2440561A8
:1035E40082804945D5BFA386A1C282806FA0600CAA
:1035F400797152CC2A8A328522D426D24AD04ECE30
:1036040056CA5AC85EC606D662C4AE8BB28A368B18
:10361400BA843E89C2894684EF70F00815C92A8CA1
:1036240063140A0213774B008347450015CF93E7D1
:1036340027012302FC008DEC631C0902639A090232
:1036440005E8ED9B2302FC00832B8C03639F0B0690
:10365400B250225492540259F249624AD24A424B1D
:10366400B24B224C45618280F59B93E70701D1B7A9
:1036740093E747002302FC0001CC1C484146A28585
:103684002324FC0213058C019700FF1FE780002E02
:1036940063910B02D5D80325CC0209C59700FF1FFF
:1036A400E7806021F1452685EFD0FF822326AC0216
:1036B40061BFE30B09F80325CC0209C59700FF1F7E
:1036C400E780601FF1454A85C5B79DC483A70B02F7
:1036D40099EB91659385357171459700FF1FE780DC
:1036E400201223A0AB0203A50B0219C57146A685BF
:1036F4009700FF1FE78080276388090283A74B0296
:1037040099EB91659385257159459700FF1FE780D3
:10371400200F23A2AB0203A54B0219C55946CE853F
:103724009700FF1FE78080241DC483A78B0299EBB9
:1037340091659385157151459700FF1FE780400CF3
:1037440023A4AB0203A58B0219C55146A285970099
:10375400FF1FE780A0212254B2509254F249B24B89
:10376400224CCA865A860259424BD6855285D24A81
:10377400624A45616FF0EFF7011126CA52C406CEC2
:1037840022CC4AC84EC62A8AAE84EF70C07135C1B5
:10379400AA893945EFD06FD42A8421CD03C941D6F3
:1037A4006314090003C909009307000D2310F400F2
:1037B400AD472301F40093856900130534001946CD
:1037C4009700FF1FE780801A93F71400858085888F
:1037D4002306F400A306940023154401A285624441
:1037E400F240D244B249224A4A85424905616FD027
:1037F4000FD9F2406244D2444249B249224A056197
:103804008280411122C41384C1B7084006C619C579
:103814009700FF1FE780200A23200400B2402244BF
:1038240041018280011106CE22CC26CA4AC82EC686
:10383400EF70606729CDB24503C941D60CD5AA847F
:1038440063140900034905004145EFD00FC92A84D8
:103854001DCD9307000D2310F500A5472301F500A6
:1038640083C75400938564001105A30FF5FE194620
:103874009700FF1FE780800F9C54A285F2405CC430
:103884006244D2444A85424905616FD04FCFF24029
:103894006244D244424905618280797122D406D6B9
:1038A4002A842EC6EF7020600DCD8346C5001147D3
:1038B400AA8749456393E6029C5FB24599C383C5D1
:1038C40067010808EF807001B7D601009386C6929D
:1038D400100889452285EF707074B25022544561F6
:1038E40082805145DDBF83C7F1C20547FD1793F7B9
:1038F400F70F637AF704894721CA411122C426C20B
:103904004AC006C6B2842E89EF70E0592A84D14792
:1039140005C5630809008347450093E72700230290
:10392400F5004146A685130584019700FF1FE78033
:10393400E0039C481CD48147B2402244924402498B
:103944003E8541018280C9473E858280797122D4B7
:1039540006D62A842EC6EF70005501CDB2452285C5
:10396400230EB1006C08EF80E06AB2502254456126
:1039740082805145DDBF6F704060C1671387E7FFE8
:103984006393E50283A781B891EB49458280494559
:10399400B2402244924402494101828003A30700B9
:1039A400E30503FE0283411122C426C24AC006C6AF
:1039B400FD172A892E84B2846394F50283A781B803
:1039C40091CB9C4381CB829711E5238E21B9A38EA1
:1039D40091B87DBFA6854A85EFF04F8155F9F5B7BB
:1039E4002E85EF70404C45D5834705000D45E39186
:1039F40027FB22852244B2400249A6859244410114
:103A04006FA0B003E14763E6A70441677D178947C8
:103A14006382E504411122C426C206C6C547AE84AA
:103A24002A84631AF5001305C0033385A5024205F1
:103A34004181EFA0500A13151400138441D3229539
:103A4400B240224423109500814792443E854101AF
:103A5400828089473E858280011106CE2AC6EFE026
:103A64001FFBEF1080154D2DEF809174938781D645
:103A7400130700F02391E7002382070032451387E0
:103A8400C1C2FD56A300D700F2402386A1C29545CA
:103A940005616F5070641D7193970501CAC886CE85
:103AA400A2CCA6CACEC6D2C4D6C2DAC05EDE62DC5E
:103AB40066DA6AD86ED6C1872E8963D9074603C5EC
:103AC400C1C2EFD06FA52A84138A01E2938481D600
:103AD4001DE021653345A900F6406644D6444649B5
:103AE400B649264A964A064BF25B625CD25C425D5A
:103AF400B25D25618280834704001307200A639C1A
:103B0400E70083CB340003552400C1652286FD15EC
:103B1400EFF06FAF31AA1387C1C2834B17001307AD
:103B240010096393E714834714001547639EE70065
:103B34002285EFF08FB12285EFD06F9703C5C1C204
:103B4400EFD08F9D2A8469B739476393E7140355EF
:103B540044008567A5076313F5040C4403CD0500F1
:103B6400631B0D00850581C91946138501D897008B
:103B7400FF1FE780A0DF03C7040085476316F70E25
:103B840063080D00238004006A85EFF00FDE65B73B
:103B940089472380F400EFA0406C71BF0967930745
:103BA4002700631CF504032D8400630F0D0A83476B
:103BB4000D0089EF83472D0003471D00A207D98F0D
:103BC4002394F40083473D00A380F40003C704005A
:103BD4008947631BF70883470D0091C723800400BE
:103BE40003450D005DB783C5140003D584008D47DC
:103BF4002380F400EF501051E5B793075700631882
:103C0400F5001C4403C50700EFF0AFF52DB7F977B5
:103C1400E917AA97C207C183914663EEF60083A70A
:103C2400C1B8E38A07F09C43E38707F022858297B3
:103C3400E31305F015A82D07631EE50083A741B81B
:103C4400E38B07EE9C43E38807EE0965A2852D0507
:103C54008297F9BF89671387C7006310E5021C4484
:103C640083C70700E38907EC9307F00FE385FBECB8
:103C7400A2855E85EFD0AF90D1B5B907E316F5FE06
:103C840083A781B8E38907EADC43A285F1F365B52C
:103C94003D476397E7040355440089671387D700BA
:103CA400E300E5FE13879701E30CE5FCCD07E31D74
:103CB400F5FA03D76400C167FD17631DF70083A7F6
:103CC40081B8E38A07E6DC43E38707E60965A28552
:103CD4004D05BDBF83A701B9E38F07E49C43EDB74E
:103CE4001307E003E392E7F883472400054763934F
:103CF400E70E83476400938DC1B7F1E383A70D00FA
:103D0400C5CF03CD0700A14B03457400930C840079
:103D1400E685EFF0CF8283474401A303A4008358D0
:103D240004010358E400035744002A860345340081
:103D34003EC283572401E686EA853EC0DE87EFF063
:103D44002FD28347340095E7DD4783580401035895
:103D5400E40083467400835544003EC28357240123
:103D64003EC06687DE8705466A85EF704040A30142
:103D7400A40083A70D0081C71145EFF09FA8138D00
:103D8400C1B903450D00E30805DA83C5D1B9EFE0F5
:103D9400FFC5E30205DA8346340093071003638A00
:103DA400F6000356440083450D005E873685EFE038
:103DB400DFCD238E01B841B303CD3400A9B783A767
:103DC400C1B803CD3400914BA1D3DC4395DF014549
:103DD40082971DBF29476398E70883476400938D42
:103DE400C1B7BDE783A70D00ADC303CD0700A14B49
:103DF40003457400930C4401E685EFE05FF48347C8
:103E04000402A303A4008358C4010358A401035764
:103E140044002A86034534003EC28357E401E68603
:103E2400EA853EC0DE87EFF0AFC383473400B1F3C9
:103E3400DD478358C4010358A401834674008355A5
:103E440044003EC28357E40121BF03CD340045B78B
:103E540083A7C1B803CD3400914BD9DBDC43C9DB64
:103E64000145829771B70947639CE70083A741B86E
:103E7400E38307CCDC43E38007CC2285829765B9D2
:103E84002D476398E70083A741B8E38607CA9C4798
:103E9400DDB70D476397E70022868D45035544003F
:103EA40085B919476395E706930561011305103138
:103EB400EF8051382C0813052031EF80B1370356B9
:103EC4006400835781010355440063E8C7008356A7
:103ED40084000357610163F7E60093050002EFA035
:103EE400803E91B96374E6002313E40063F4D700C1
:103EF4002314F4000357C4008356A400035684001B
:103F04008355640001488147EFA0A03B2DB11D47B4
:103F1400E39CE7D403574400E3E8E7D48357640001
:103F240006075297F1172310F7003DBB93F71500CE
:103F340099CB83A741B889C7DC4399C301458297CC
:103F44001345190051BE93F7250099CB83A7C1B837
:103F540089C7DC4399C30545829713452900ADBE43
:103F640093F745000145E38907B6938781D683C754
:103F74005700138481D6A1C7FD1793F7F70FA30247
:103F8400F40095EF83A701B899CB85472302F40089
:103F940083A7C1B889C7DC4399C3054582974844C0
:103FA4002C08EF90E0432808EFF00FB783D761D5D2
:103FB4009145A302F40003C5C1C2EFD00FC5134558
:103FC400490019BE411122C42A84554506C6EFF0A2
:103FD400CFDAB335A00022852244B24041016FA05C
:103FE4008029797122D406D68D472E84631FF5006B
:103FF40003D7A50083D6850003D6650003453400A6
:1040040083D54500EFF0CF9D09A889671387D700B2
:10401400631FE50203C5250019E58547B250225404
:104024003E854561828083A6C1B7E5DA03C63600C2
:1040340083C50600814802C202C001488147014786
:104044009106EFF0EFA10545EFF0AFFBF9B7138749
:10405400E700E304E5FC13873701631AE50003C5B1
:10406400250045DD014781460146814561BFE507DD
:10407400E305F5FA41677D178147E311E5FA03C7C4
:104084005500C947E31BF7F883D6E50003D6C500FE
:104094000355840083D5A500EFA0602421C15D45AC
:1040A400EFF0AFCD3335A000231EA10083454400BB
:1040B400035524007008EF6090538357C101B1FF8A
:1040C4000357E4008356C4000356A40083558400B8
:1040D400035524000148EFA0C01C81B78547231E67
:1040E400F100E9B7C1671387E7FF639CE50083A785
:1040F400C1B78DC383C707000D47639BA7006FA09B
:104104008019FD1749476395F50083A7C1B7E5FBFF
:104114003A8582804947EDBF238401BA23A801BAB6
:1041240023A601BA37470100938781D81307E736DE
:1041340098C3374701001307673AD8C337470100CC
:104144001307076E98C737470100938701BA13070F
:10415400870E98C337470100130767FED8C38280D0
:10416400011122CC83A701BB06CE26CA4AC84EC67B
:1041740052C48DC3138401BB2E8AAA84014908400A
:1041840063129902630C0A0497F0FE1FE780A07281
:1041940023200400F2406244D2444249B249224AF4
:1041A4000561828093194900B3073501884709C91D
:1041B40097F0FE1FE78020701C40CE9723A40700D1
:1041C4001C40CE97C84709C997F0FE1FE780A06E30
:1041D4001C40BE9923A60900050955B745DD139671
:1041E40044008145EFC0DFCC144081477D5613F76E
:1041F400F70FE37197FA1397470036972300C70028
:104204008507F5B779714AD083A7C1BA06D622D4F7
:1042140026D24ECE52CC56CA5AC85EC6D1CFAA892F
:104224001389C1BA938A81BA014411ED83A601BBF3
:1042340099CA03C60A002A8481479305F00F13F72D
:10424400F70F6366C708131534002105EFC0FFA8F4
:10425400AA8401E92145EFC05FA8AA8431C10144C1
:10426400CD49930700FD2380F4008547A3803401E2
:104274002381F400A381840055C49389840023A27C
:104284003401014A930BF00F83C70A006373FA00E9
:1042940039E883270900A68503C50700EFC03FAEB0
:1042A40003C50A0081456D3D0325090097F0FE1FF3
:1042B400E780606023200900B250225492540259CE
:1042C400F249624AD24A424BB24B4561828013970B
:1042D40047003697034707006305B70005041374C6
:1042E400F40F8507A9BF83A701BB93154A00BE95A8
:1042F40083C70500638477032380F90083C715000F
:10430400138529007D14A380F900194689051374C7
:10431400F40F97F0FE1FE7806065A109050A137A80
:10432400FA0F9DB723A20400ADB7411122C406C6FB
:104334002A8405E10945EFF04FA42A8611C503C577
:10434400C1C28545EFC0DFF60545EFF0BFC72A843B
:1043540001C903C5C1C28545EFD02F8B22855D35C8
:10436400B240224405454101828089671387B70022
:104374006319E50083A7C1BA95C39C4503C507002B
:104384006DB71387C7008147631BE5009C4503C5D0
:104394000700854709C583A7C1BAFDF381473E8558
:1043A40082801D7186CEA2CCA6CACAC8CEC6D2C48B
:1043B400D6C2DAC05EDE62DC66DA6AD86ED6630E16
:1043C400052683473500AA8985C7404115C059454C
:1043D400EFF0AF9A93178501E187116C3EC2014952
:1043E400930BF00F930DEC7183C739006361F902ED
:1043F400F6406644D6444649B649264A964A064B90
:10440400F25B625CD25C425DB25D256182808307AF
:104414008402124763CEE72A83A7C1BA138AC1BABA
:10442400938401BBADCB0347040085476309F706BA
:1044340003468400930694009305F1010545EFE0DB
:104444008FF5814719C1834705008346040011474E
:104454006381E60203270A008D4603471700630AB7
:10446400D70081CB19C705C98546631DD7028D8B3B
:104474009DC303451400930C2400E685EFE03F8CB4
:10448400A300A4009C40AA86014D95E703460400BE
:104494009147631FF60C9C40639C072215A4814737
:1044A400014565B78946E318D7FE858BD1B7130755
:1044B4001D00137DF70F83C781BA8840E378FDFCA4
:1044C40093174D003E9503460500E30276FF03462D
:1044D4001500E31ED6FC1946E68509053EC636C41A
:1044E400EFC03FA3A246B24779D198408346040067
:1044F400330DF700E30C0DF81147639EE60803251E
:10450400CD000DC503478400034605006308E60893
:104514008346040011476391E60A0325CD0019C5BB
:1045240097F0FE1FE780203923260D000345840001
:10453400EE85050597F0FE1FE780802C0DC58346A8
:10454400040011476394E6082326AD0083478400E2
:10455400930594000505A30FF5FE0346840097F028
:10456400FE1FE780A040834784006397071425B7A4
:104574009C4095D383C581BA8146E38EB6F03E87CD
:10458400C10703C507FF6304750D850693F6F60F8F
:10459400EDB708C7EDA803258D00A5B793059400D2
:1045A4000505EFC01F970547E314E5F65545EFE011
:1045B400DFFC63030510C5B503258D0025D997F0ED
:1045C400FE1FE780402F23240D008DB72324AD0068
:1045D400B5BF9307000D2310F500B5472301F5007F
:1045E40083470400194693052400A301F5008307BB
:1045F400840215052303F50083471400A30FF5FE79
:1046040097F0FE1FE7808036034684002386C400AB
:1046140015C21385440188C89305940097F0FE1FC2
:10462400E780C03483270A00A68503C50700EFC0CE
:104634000FF579A823A80400F5B783A7C1BAE389C5
:1046440007DAEFF03FBC0145EFF0DF9755B32300E5
:10465400C70083471400130527001946A300F70079
:10466400E6853AC497F0FE1FE78040300345840096
:104674009305FC71050597F0FE1FE780601822473B
:1046840005C5834604009147E395F6F048C7834780
:104694008400930594000505A30FF5FE03468400EA
:1046A40097F0FE1FE780802C8347840091E703473F
:1046B40004008547E311F7DE83270A00E38D07DC56
:1046C400034584005105EFC04FE1AA84E31305F0CC
:1046D4000509130494021379F90F39B3797106D6D5
:1046E40022D426D24AD04ECE52CC56CA5AC85EC61E
:1046F40062C479C183473500AA8995C3444185C002
:104704005945EFE09FE7931A850193DA8A410149FD
:10471400930B00FD414C83C73900636EF900B2501E
:10472400225492540259F249624AD24A424BB24B41
:10473400224C456182808387F40063CA5707138A39
:10474400C1BA83270A00A5C75145EFC00FD92A84EF
:1047540039CD23007501A30005002301850183C71A
:104764000400194693852400A301F5008387F4000F
:104774001505A306F50083C71400A30FF5FE97F0F3
:10478400FE1FE780A01E83C7840093859400130551
:10479400C400A305F400194697F0FE1FE780001D2E
:1047A40083270A00A28503C50700EFC04FDD050972
:1047B400C1041379F90F85B783A7C1BAADD3EFF05C
:1047C4007FA42254B25092540259F249624AD24A06
:1047D400424BB24B224C014545616FF0AFFE83A7BB
:1047E400C1BA95C703C707008D476313A70203C562
:1047F400C1C24111854506C6EFC03FC11305000380
:10480400EFF05FA0B240014541016FF0AFFBC94733
:104814003E858280011126CA9384C1BA9C4006CE8B
:1048240022CCB9EF83C7F1C2A98BADC391652A84A9
:104834009385D571114597F0FE1FE78060FC88C011
:1048440021C9A285114697F0FE1FE7802012154565
:10485400EFE0BFD22AC61945EFE03FD20347340048
:1048640083C6A1D62A86034524006244B245F24099
:10487400D2443337E000B336D00005616F90701F27
:104884004545F2406244D244056182804945D5BF22
:104894004D45C5BF83C7F1C2397122DC06DE26DA75
:1048A4004AD84ED652D456D25AD0A18B4944638D9D
:1048B400070C83A7C1BA41446398070C2A89EFF017
:1048C4008F8B83C781C155446370F50C83A7C1B72F
:1048D4004544DDEB91659385C571294597F0FE1F2D
:1048E400E78000F223AEA1B64D4459CD2946CA85CE
:1048F40097F0FE1FE780800783A7C1B783C717001F
:10490400D9CF2D45EFE07FC72A843145EFE0FFC6BC
:1049140083C7A1D62A894145B337F0003ECEEFE0E4
:10492400DFC52A8B3D45EFE05FC5AA8A3545EFE038
:10493400DFC42A8A3945EFE05FC4AA892145EFE044
:10494400DFC32ACC1D45EFE05FC303A7C1B72ACA62
:104954000345370093054700EFE0EFB903A7C1B75C
:10496400E248524803462700F247AA865AC62285DF
:1049740056C452C24EC01107CA85EF9010102A8443
:1049840001C50D45EFE0FFE72285F2506254D25491
:104994004259B259225A925A025B216182802545BA
:1049A400EFE0BFBD2A84294595B783C7F1C201450D
:1049B400A18B99C3138501BA6FE00F93411122C4EF
:1049C400138481BA26C2AA8403450400854506C619
:1049D400EFF00FF983C7F1C2A98BB5C72300940088
:1049E400138581D8EFE0EF8F938401BB9C4099C776
:1049F4004D45B24022449244410182800345040063
:104A040019E10145FDB791659385B571120597F0DC
:104A1400FE1FE780E0DE88C061DD034604008145B7
:104A24001206EFC0EFC88346040090408147FD554D
:104A340013F7F70FE377D7FC139747003297230058
:104A4400B7008507F5B7014523000400EFE06F893F
:104A54004DBF411122C403A501B806C619C597F07C
:104A6400FE1FE78040E523A001B8B2402244410183
:104A74008280011122CC06CE26CA8D472E84631370
:104A8400F50603C73500E94703D54500938481D66D
:104A94006316F70083D764006382A706EF60A04023
:104AA40009C5835764002317F5000357A4008356F0
:104AB4008400035664008355440003453400EFE04A
:104AC4002FF20357440083D764006309F700854736
:104AD400F2406244D2443E8505618280FD572393AF
:104AE400F400F5B78967CD07631DF50083C725007A
:104AF40031476385E7004547E39BE7FCEFE04F85DB
:104B0400F9B741677D178147E314E5FC83C6550077
:104B14004947E39FE6FA83C5450003552400300066
:104B240023140100EF6080275DB7797122D483A735
:104B340001B806D626D24AD00545ADC70D45EFE0EB
:104B4400DFA3AA841145EFE05FA32A899305F1014D
:104B54001305F041EF6091190347F101938781D662
:104B640021CB83C727000D4789466384E700B3360A
:104B7400F00083A701B836C603C537009385470004
:104B8400EFE06F9703A601B8B2462A878348B600C0
:104B94000348A6009307460003462600CA852685D7
:104BA400EF90206CB2502254925402594561828095
:104BB40083C62700B336D0006DBF7D57238EE1AE88
:104BC400239A01BA23AE01BA23A001BC23A201BCDB
:104BD40037570100938741D9130747C598C33757FF
:104BE4000100130727F3D8C3375701001307E7B2AF
:104BF40098C7B7570100938767A723ACF1BA82809F
:104C0400411126C283A701B806C622C48DCF2A84C7
:104C14000D45EFC08F8CAA8505C1930700FD2300C5
:104C2400F5008D47A30085002301F50083A701B893
:104C340003C50700EFC0AF9419C42244B2409244A4
:104C440041016FF01FE1B24022449244410182804D
:104C5400797122D403544500896706D626D24AD0F6
:104C64004ECE52CC56CA13876700631FE40283A753
:104C740001B8814489CF1845034507001DE1054764
:104C8400A380E7000545EF90805E01ED8544B250B6
:104C94002254268502599254F249624AD24A456105
:104CA4008280EFF0FFF5DDB7138797006367870411
:104CB4009384C1AF03C704009307F00FE308F7FC24
:104CC4001C45114503C90700EFC02F81AA855DDD8E
:104CD400930700FD2300F50089472301F500F977C8
:104CE400E1173E9413341400A3002501A3018500A9
:104CF40003C50400EFC0AF8851BFA9078144E3187E
:104D0400F4F883A701B8CE8AD9D3184583C4170011
:104D14008547034A0700138981D6638CF4028347CD
:104D24004900ADF70D45EFB05FFBAA8505C19307B8
:104D340000FD2300F5009147A30045012301F50080
:104D440083A701B803C50700EFC06F83EFF07FD0DE
:104D540035BF83A7C1BB91EF0145EFE01F822A86CF
:104D640011C603C5C1C28945EFC08FD483A701B85A
:104D7400A9A003C60700938617009305F100054513
:104D8400EFD07FE171D983470500858BF1D70545C5
:104D9400EFE0AFFE9307B0032A8463F9A70203C5CB
:104DA400C1C25D66130606708945EFC02FE3130484
:104DB40044FC239A81BA83A701B80947A380E7007A
:104DC4008347490089CB23020900D1B51306006447
:104DD4003306C50271B75285EFF09FE24DBD79717C
:104DE4004ECE83A701B822D406D626D24AD052CCBE
:104DF400454489EB9387C1C283C7370013F7570033
:104E040019EB49442285B250225492540259F24972
:104E1400624A4561828003A7C1BB414465D7034709
:104E240007006DD3858B2E892A8AC1C78347090061
:104E34000547F91793F7F70FE365F7FC9165938539
:104E44007571314597F0FE1FE780809B23A0A1B8C0
:104E54004D444DD923004501A30005002946CA85C8
:104E6400090597F0FE1FE78060B0138481D60347DD
:104E740024008D476317F704EFD0BFF52C00EF80B3
:104E840020562800EFE04FC9854745452302F4002A
:104E9400EFE0AFEE1375F50FA302A40001443DD17A
:104EA40003C5C1C25D66130606709145EFC00FD3FA
:104EB40091BFEFE05FAC2A84EF60E00EE378A4F6E4
:104EC400B5BFEFF09FC62A8415DDEFF09FB81DBF74
:104ED400411126C283A701B806C622C44AC0A1C391
:104EE40083C707000D44639DA70203C5C1C289455A
:104EF400EFC0AFD103C5C1C29145239A01BAEFC037
:104F0400CFD0A38601D683A701B80145A38087002B
:104F14002244B2409244024941016F9040354944D1
:104F24002285B240224492440249410182804111C7
:104F340006C622C426C285476315F506138441BB01
:104F440083570400A1C703C7C1D629E31307B003DD
:104F54006369F70203C5C1C28945EFC00FCB03568D
:104F640004009307006403C5C1C23306F6028945F1
:104F7400EFC00FB423100400B24022449244410114
:104F84008280938747FC2310F400FDB783A701B800
:104F9400E5D72244B240924403C5070041016FF0B3
:104FA4003FF383A701B8E9DB9387C1C283C7370006
:104FB400918BF9D303C5C1C28945EFC00FC5224403
:104FC400B2409244239A01BA41016FF09FA883C76B
:104FD400F1C2958BD9CFB9CD83A7C1BBD9CBFD473E
:104FE40063EBC70811C2C1CA411122C44AC006C634
:104FF40026C2238EA1AE36893284A1C19384C1BB5B
:1050040088407D4681450505EFB09FEA8840CA8502
:105014002286050597F0FE1FE78040958C40228587
:10502400238085002244B24092440249850541010F
:105034006F90602383A741BC55B7938441BC8840DB
:105044007D4681450505EFB0BFE68840CA852286C6
:10505400050597F0FE1FE78060918C402285238030
:1050640085002244B24092440249850541016F9073
:10507400C01F4945828009458280797106D622D4B1
:1050840026D24AD04ECE52CC8D4763FCA7000944A9
:105094002285B250225492540259F249624A45611F
:1050A400828003C781D64144E314F7FE938781D6F7
:1050B40083C927009307F5FF93F7F70F85462E84DE
:1050C4002A89938481D663E4F60695E199452800FC
:1050D400EFD0BFA203C5C1C2914523812401EFC013
:1050E400CFB2A382040029CC2381340155B71946D9
:1050F40081452800EFB0DFDB19462C002285EFB094
:105104005FE151F519469305F00F2800EFB05FDA1F
:1051140019462C002285EFB0DFDF35F9A285194648
:10512400280097F0FE1FE7806084014465B70144BE
:10513400E312E5FAC8442C00EF80802A2A8459BF80
:10514400631409000144A9B72800EFE0EF9C2A8406
:1051540041FD8D47E318F9FE4545EFE00FC2137595
:10516400F50FA382A40079DD03C5C1C25D661306F1
:1051740006709145EFC08FA621BF83C7F1C2918B02
:1051840089CF4111138581BB06C6EFD0BF96B240CB
:105194007D572397E1D64101828001456FD09F95C9
:1051A400411122C403A5C1BB06C626C24AC013844A
:1051B400C1BB19C597E0FE1FE780E06F2320040000
:1051C40003A541BC938441BC19C597E0FE1FE78049
:1051D400806E23A004001389C1C283473900958BD4
:1051E400ADCB138541D9EFD09F9083473900958B80
:1051F40081EB4D45B24022449244024941018280F0
:105204001169930569711305000297E0FE1FE78099
:10521400205F08C079DD130600028145EFB05FC945
:10522400930559711305000297E0FE1FE780405D66
:1052340088C001C9130600028145EFB07FC701454C
:1052440055BF084097E0FE1FE780E0662320040076
:105254004DB70145EFD0BF89DDB703C7050093768D
:1052640025009377D70F99C29367270013188501F8
:105274001358884113F7F7076354080013E7070826
:10528400937685009377770F99C293678700137796
:10529400050293F6F70D19C393E607022380D500A0
:1052A400634508009377A50281CB8347060093E703
:1052B400C7002300F60082807DFD83470600CD9B56
:1052C400CDBF2D456317071403C805000947631EA6
:1052D400E812C84103471500034505002207498F1A
:1052E40042070D654187930825A06309170B011137
:1052F40022CC26CA4AC84EC606CEBE89B68432849B
:105304002E8963CEE800930705A0630DF702130509
:1053140015A0630EA704239004000545A5A09307D8
:1053240045A06307F7086346F706130565AAE31467
:10533400A7FE85472390F600DC4583C707002300BA
:10534400F60081A0C845EFB0DFB7420541814E8623
:10535400637335012A862390C40042064182832563
:10536400C900228597E0FE1FE780406019A8DC454C
:1053740083D70700239006012300F600A183A3002E
:10538400F6000145F2406244D2444249B249056103
:10539400828099472390F6001946D1B78547239018
:1053A400F600DC45014583C707002300F600828030
:1053B400DC45A9CB21472390E60003D7070023004F
:1053C400E60003D707002183A300E60003D72700E4
:1053D4002301E60003D727002183A301E60003D7B6
:1053E40047002302E60003D747002183A302E60017
:1053F40003D767002303E60083D76700A183A303D1
:10540400F60041B723900600ADBF23900600054582
:105414008280828083C8050089476391F814DC4147
:10542400797122D406D626D24AD04ECE52CC03C8A5
:10543400170083C707002E8422083368F800420847
:105444008D6713580841138327A0630A680E2A8ABC
:105454003A89B684B285634C0301138707A0630AB3
:10546400E802938717A06303F808854711A81387F8
:1054740037A06303E80A138767AA8D47E317E8FE9A
:10548400B250225492540259F249624A3E8545610F
:105494008280484432C6EFB0DFA2420541819D4775
:1054A400E36025FFB3099900D547B24563D43701BA
:1054B400B547F9B748442686C2094A9597E0FE1FC6
:1054C400E780C04A484493D9090159463306364116
:1054D40081454E95EFB0DF9D83A7C1BC99E3814719
:1054E40045B79C438145E5DF52852DA0AD47E319BF
:1054F40009F8E39F16FB83471600834606005844C9
:10550400A207D58F2310F70083A7C1BCE9DB9C4316
:105514008545F1D78297E1B7AD47E31309F699477B
:10552400E398F6F84844194697E0FE1FE7800044E4
:1055340083A7C1BCCDD79C43DDD38D4575B7AD479B
:1055440021F38547E396F6F6034706009307000820
:10555400E3E8E6F2DC452380E70051B785473E8562
:10556400828023A601BC89472380F1B0138F01B048
:105574008147938E01DA5947B386FE0023800600E3
:105584008507E39BE7FEB707A000938541B09387A7
:1055940007059CC1B707E803DCC1238501BC37D6E6
:1055A40002009387419D1306C649D0C337D6020033
:1055B4000947138ED1AF130606472300EE00D0C768
:1055C40023AEE70123AEC70337D6020037DF02005C
:1055D40037DE0200854613060648938811B013830C
:1055E40081BC1388F1AF1385E1AF130F8F48130EFD
:1055F4008E472380E8002380E7002388E700238088
:10560400E7022388E7022380E7042300E8002384D9
:10561400D70023950700D0CB238CD700239D070008
:1056240023A2E7032384D7022395070223A6D703E3
:10563400D0DB238CD702239D070223A2C705238432
:10564400D70423950704231003002300D50023A6C1
:1056540067042388E70423AE17052380E70623881D
:10566400E7062380E708B7D8020037D702001307FC
:10567400C7479388884923A2E708F0CB238CD70433
:10568400239D070423A217072384D706239507061F
:10569400ECD7F0DB238CD706239D070623AE070740
:1056A4002384D7082395070823A6A70837570100A2
:1056B400938741A61307672C98C337570100130734
:1056C4008741D8C323A407008280A54763E1A70CC0
:1056D400B7D702009387070D0A053E951C41411177
:1056E40022C426C206C64AC0B2842E848287D54705
:1056F400614563E1B70259468145138501DAEFB08C
:105704002FFB2286A685138501DA97E0FE1FE7802A
:10571400E0250145B240224492440249410182807D
:1057240089476145E398F5FE035706002394E1BCDD
:10573400CDB7A1476145E39FF5FC2146A6851385B6
:1057440041B0EF70510CF1B785476145E394F5FC26
:105754009385419DD04D9385850203C50400EFF0E8
:10576400DFAF45BF85476145E396F5FA9385419DD3
:10577400D05D93858504D5B785476145E39CF5F8ED
:1057840003470600238FE1AE69B7094561B70945B0
:1057940082800547630AE5024111AA8706C62E8561
:1057A40099CB11476388E7022547638BE7020945D4
:1057B400B240410182805546938501DA97E0FE1F8D
:1057C400E780C01A0145EDB783D781BC014523901A
:1057D400F50082802146938541B0EF70D102DDB798
:1057E40083C7E1AF2380F500F1BF9387A1BC03C752
:1057F400070011EF05472380E700058909C993864F
:1058040041A64146A5451385419D6F30C05C0145C5
:10581400828001111388F5FF06CE22CC26CA4AC81D
:105824004EC652C41378F80FAD4563ED050BB7D5DA
:1058340002000A089385850F2E983E8A8327080064
:10584400BA893689B28482878545EFD00FC62A8407
:1058540019E1EFF0FF942285F2406244D2444249B8
:10586400B249224A056182808945EFD00FC42A8457
:105874007DF12685EFF08F94F9BF9145EFD0EFC20B
:105884002A8471F95286CE854A85EFD0AFB9EFF0FC
:105894003F91EFF09F8EEF70706775BFA145EFD019
:1058A400CFC02A844DF95286CE854A85EFD08FB772
:1058B4002685EFF0AF90EFF04F8FEF70B04761BFE8
:1058C400B145EFD08FBE2A8459F55286CE854A85DC
:1058D400EFD04FB52685EFF06F8EEFF00F8DEF70A0
:1058E400704575B7094485BF79714ECEAE896C0099
:1058F40022D426D24AD006D62A89B284EF00707503
:105904002A840DE1CE854A85EFC05F962A8419E981
:105914003245B72601002687938626262D468145E3
:10592400EF10000E2285B250225492540259F249CB
:105934004561828079714ECEAE896C0022D426D224
:105944004AD006D62A89B284EF00B0702A840DE1C9
:10595400CE854A85EFC0BF9F2A8419E93245B72610
:1059640001002687938686344D468145EF10400911
:105974002285B250225492540259F24945618280E0
:10598400397126DAAE844C0022DC4AD84ED652D481
:1059940006DEAA893289368AEF00B06B2A8431ED9B
:1059A400A6856303090283D704002C002314F100A5
:1059B40083D724002315F100930720302316F10028
:1059C400930780022307F1004E85EFC01F872A84C6
:1059D4000DE55946A6851305A1002304210197E08E
:1059E400FE1FE780A0F81245B72601005287938670
:1059F400C62025462C00EF10A0002285F2506254E8
:105A0400D2544259B259225A21618280797126D2E4
:105A1400AE846C0022D44AD04ECE06D6AA893289EE
:105A2400EF0030632A840DE1A6854E85EFC0FF8523
:105A34002A8419E93245B72601004A879386062845
:105A44003546A685EF00D07B2285B250225492546D
:105A54000259F24945618280BD47638CF50663E9CA
:105A6400B702A5476387F50663EDB7009947638CD2
:105A7400F5049D47638FF5049547638CF504014550
:105A84008280B5476387F50463E1B704AD47F5B792
:105A9400DD47638EF50263EAB700C947638BF502FD
:105AA400D9476386F502C547C9BFF5476383F50245
:105AB40063E4B700ED47D1B793072005638BF50086
:105AC4009307200D5DBF48458280084182800845C8
:105AD4008280484182809307F00F630CF506011120
:105AE40026CAAA841305000222CC4AC84EC652C450
:105AF40056C206CE3A89B689B28A2E8AEFB0EF9D95
:105B04002A844D4515C8930700FB2300F400A30025
:105B14005401231144012302340113058400614616
:105B240063050902CA8597E0FE1FE78020E4A28589
:105B34002685EFB0CFA40145F2406244D2444249E5
:105B4400B249224A924A056182808145EFB04FB63C
:105B5400F9BF09458280011122CC06CE2A8423068E
:105B6400B100A306C100EF50003419CD0347C500AE
:105B7400A147631FF70003C5C1B078009306E0078F
:105B84000146A285EFF03FF5F24062440561828050
:105B940078009306E0070146A28503C5D1B0DDB7BE
:105BA400930700643306F6026FB0AFF805C90347E4
:105BB400050085469307270093F7F70F63F0F60275
:105BC400411122C42A843A8506C6EFB01F87FD57C7
:105BD4002300F400B24022444101828082800357B2
:105BE40005009307000B6313F702834745004947F9
:105BF400639CE7000347150185476399E700035554
:105C0400250085456F3010426D47C5BF8280011164
:105C14002314B1006C0022CC26CA4AC806CE2A89B5
:105C2400B6842315C100EF00D0422A840DE12C0074
:105C34004A85EFC0CFD62A8419E93245B726010038
:105C440026879386A61515462C00EF00705B2285E7
:105C5400F2406244D24442490561828079719307DB
:105C640020302314B1002315C1002316F1002C00A9
:105C740093078002014606D62307F100EFF05FD0B8
:105C8400B25045618280C177797185073EC48947E6
:105C940026D22316F100AE84930780024C0022D44E
:105CA4004AD006D62A892307F100EF00903A2A84C5
:105CB4000DE12C004A85EFC0AFE62A8419E91245AC
:105CC400B726010026879386062F45462C00EF0051
:105CD40030532285B2502254925402594561828035
:105CE400B28605466FF0DFC9797126D2AE846C00A6
:105CF40022D44AD04ECE06D6AA893289EF00703516
:105D04002A840DE1A6854E85EFC08FC02A8419E947
:105D14003245B72601004A879386660F0D46A6854D
:105D2400EF00104E2285B250225492540259F24987
:105D3400456182807971930720202314B1002315D3
:105D4400C1002316F1002C0093078002014606D6F9
:105D54002307F100EFF0DFC2B250456182800111E8
:105D640022CC06CE2A842EC632C436C2EF50A013EB
:105D74000DC98346C500A14712472246B245639C1C
:105D8400F60003C5C1B0B2862E86A2856244F240F5
:105D940005616FF05FD4B28603C5D1B02E86A285AB
:105DA400F5B7F24062440545056182806FF0DFB3C8
:105DB4006FF09FB36FF09FC56FF05FC579714ECEE2
:105DC400AE896C0022D426D24AD006D62A89B2845F
:105DD400EF0030282A840DE1CE854A85EFC0CFCC70
:105DE4002A8419E93245B726010026879386E629D5
:105DF4003D468145EF00D0402285B2502254925452
:105E04000259F24945618280B28601466FF05FB75C
:105E1400011122CC2E846C0026CA06CEAA84EF007F
:105E24005023DD47630AF500930710102314F40090
:105E3400A2852685EFC0AFD1F2406244D244056109
:105E440082802394050083D7850099E36FF09FAE89
:105E5400094582806FF0FFFE01114AC803C921C0C1
:105E640022CC26CA06CE2A84AE84EF306111637731
:105E740025036C002285EF00D01DDD47630AF50081
:105E8400930700102394F400A6852285EFC02FCC3D
:105E9400F2406244D2444249056182805945CDBFF3
:105EA40023AAA1BC828023ACA1BC8280011122CC94
:105EB40026CA06CE2A84AE84EF40F07EA6852285CB
:105EC400EFB0BFF00DE5228523169100EF40B07DC1
:105ED40019CD0347C500A1476310F70203C5C1B03C
:105EE40078009306F0070146A285EFF0DFBEF2408A
:105EF4006244D2440561828078009306F00701462B
:105F0400A28503C5D1B0D5B7011126CA06CEB68481
:105F140022CCDD4663E2B608D94663FED50AA5461F
:105F24006381D50A63EEB6049546638CD508994619
:105F34006387D50A054441687D18631606093AC685
:105F4400EFB07FEC3306854032474206418242047B
:105F540041803305C4004205BA85418132C6EF3021
:105F6400701BAA8749C181C432462390C400B3057B
:105F740080406244F240D2443E8505616FA09FCECA
:105F8400C5466380D504C9460D44E395D5FAC16777
:105F9400FD17E31EF6FA65B7F5466380D50463E49E
:105FA400B600ED46D5B7930620056388D50293065F
:105FB400200DE391D5F8C167FD170D446319F60070
:105FC400BDBF09448DBF9306200DE392D5F8310679
:105FD40042064182ADBF15445DBF0D444DBFC1674C
:105FE400FD171D447DB7F2406244D24405618280AE
:105FF400011122CC26CA06CE03C645002E841307FF
:10600400000281469945AA84EFF01FF02AC629CDE3
:106014008357040003464400930554002310F10001
:10602400835724002311F10089472312F1009307B9
:1060340080022303F10097E0FE1FE780209383474B
:1060440044008A8526852314F100EFC00F982A8422
:1060540011C5324597E0FE1FE780E0852285F240B6
:106064006244D244056182804D44CDBF5D7186C6D1
:10607400A2C4A6C2CAC04EDE89476306F600C14761
:106084000944631AF6040144B9C52E894C0832C682
:10609400B689AA84EF00E07B2A8432460DEDC177ED
:1060A4008507CA851305D1013ECC230EC10097E0B4
:1060B400FE1FE780A08B2C082685EFF07FF32A844F
:1060C40019E95245B72601004E879386261B1D46C3
:1060D4002C08EF00F0122285B64026449644064967
:1060E400F25961618280797122D436844AD04ECECD
:1060F40052CCB2892E8A3A8981461307100222862D
:10610400D94526D206D6AA84EFF01FE02AC629C1B3
:106114002286CA85231481002312410123133101ED
:1061240097E0FE1FE78080844C002685EFC0EFAC2B
:106134002A8411C5324597D0FE1FE780C077228597
:10614400B250225492540259F249624A4561828003
:106154004D44F5B7011122CC26CA06CE4AC8DD4704
:106164002A84AE84638DF5028147035504006C00D4
:106174002306F100EFC00FAC0545638CA40803456A
:106184008400B165938505B8EFB02FB2E5472301CC
:10619400F400B72701009387E7425CC095A8034742
:1061A40055013149B2863306270318499C42329778
:1061B4001043E31BF6FA83D7460003564700E31562
:1061C400F6FA8C460847EFA0DFD459DD8347540123
:1061D40003474401850793F7F70FA30AF40063F01C
:1061E400E704B3872703184803550400BA97984770
:1061F40083D6470003D6270083D50700EFF0BFEE10
:1062040025F503458400B165938505B8EFB0EFA982
:106214005945F2406244D244424905618280834731
:106224006401A1B7011122CC26CA06CEDD472A8417
:10623400AE84639CF50603550500EFB0DFBC03563E
:10624400C40183562401035744016D162A9642065D
:106254004182B307D640C207231EC400C18363F141
:10626400E7089305C5FF3308F740635CB802BA96A4
:10627400918EC206184C8355040103550400C18253
:106284003E97EFF05FE615E103458400B165938521
:1062940005B8EFB08FA15945F2406244D24405617C
:1062A40082806D1593160501F1B7814703550400EB
:1062B4006C002306F100EFC0EF970545E38EA4FCC4
:1062C40003458400B165938505B8EFB00F9EE5479B
:1062D4002301F400B72701009387E7425CC065BF40
:1062E4008547E9B7397126DAAE842C0022DC4AD816
:1062F4004ED606DE2A89B289A92B2A8421ED4A8545
:10630400EFB07FB083D644006D1563C5A600931625
:106314000501C182984403D6240083D504004A852C
:10632400EFF07FDC2A841DE53146A68508082306A4
:10633400010097D0FE1FE780606383D724002245C5
:10634400B72601004E879386A63B5D466C00231E4C
:10635400F1007D252285F2506254D2544259B2593B
:10636400216182806FF01FF86FF0DFF7797126D218
:1063740006D622D44AD04ECE52CC56CA8944BDC980
:1063840035CA32892E84AA893A8AB68AEFB0BFA761
:106394001306440081477115035706006356A70688
:1063A400850793F7F70F3106E318F9FE8A854E85C2
:1063B4004D21AA8421E11844835644000356240045
:1063C400835504004E85EFF01FD2AA8405E50245EB
:1063D400B7260100854752879386A63B5D464C004D
:1063E4002302F10022C423062101A306010023078E
:1063F40051013925B2502254268502599254F2494A
:10640400624AD24A45618280ED44EDB779714ECE3D
:1064140037D60200AE89C16526D20147AA848946CF
:106424001306464AFD15054522D406D64AD0EF1078
:10643400D00A054431CD2A8913073002814611461A
:10644400F5452685EFF05FAC2AC6554431C1835724
:10645400A900CE8601462314F10091472315F100CB
:1064640085472300F500B2472C002685A38007004A
:106474003247FD572301F7003247A301F700EF101D
:10648400807B2A8411C5324597D0FE1FE780A04245
:106494002285B250225492540259F24945618280B5
:1064A400411106C6EFF04FDB19C5B240410117D3C5
:1064B400FE1F67004340B24041018280A386A1B021
:1064C40082802386A1B08280011106CE2AC6EFB055
:1064D400AFFAFD57A386F1B032452386F1B023AA63
:1064E40001BC23AC01BC91452388A1BCEF30C03E64
:1064F400F24005616F20D02393970501C18763D3D0
:10650400071203C501BD797122D44AD006D626D21A
:106514002E89EFA07F802A8441CD0347050093078D
:10652400000A6314F70885474C08A305F100EFB08F
:106534009F80AA841DE98347610171476373F7084B
:10654400138717FE1377F70F9306000263F2E6082A
:10655400858BD5C383A741BD994481CB03552400C2
:106564001306B1004C088297AA848347B10099C7E7
:10657400084409C597D0FE1FE780E03395E05247F1
:10658400B7070001938707F07D8FB7071200938741
:106594000710630CF70003476101ED476317F70029
:1065A400035524008545EF30E0272285EFA02FF026
:1065B400B250225421653345A900925402594561D1
:1065C40082803707301405073357F700058B49D30A
:1065D40003A781BD59DB0347510141FB2306F100A9
:1065E40099472308F100035524006C002317010088
:1065F400EFB07F989DBF83A781BD9DC30355240041
:106604001306B1004C0882972DD1AA848347510107
:10661400A9FF83476101230891002306F100E1B734
:106624009944EDB701458280397122DC26DA06DE11
:106634004AD84ED652D456D25AD0A5472A84B284C8
:106644006399F5108347450203570600835A2600D1
:1066540085072302F5029307F7FFB387FA02544232
:10666400C207C183B69703C9170083C707008346CF
:10667400C50022093369F90085476390F6023307A0
:106684005703231006008149014A130B3501931A5D
:10669400070193DA0A0163E15907C167FD17630231
:1066A400F90C83570401637EF90A050942098346FC
:1066B400C400135909012317240105470355040095
:1066C4009305E400639FE6002315F100930720304F
:1066D4002316F10093078002231421012307F100FC
:1066E4002C00EFB09FB503458400B165938505B8D0
:1066F400EFA0BFDB5945BDA083D62400DC40834511
:106704002401ED1613865900C206C1823E965A85AD
:10671400EFB08FDB05C9630C3A01C84003D62400EF
:10672400B3053501529597D0FE1FE780202483D707
:1067340024003E9A83D70400420A135A0A018507AB
:106744002390F40083D72400BE99C20993D9090188
:1067540099B703474600A9476310F70283474502E8
:1067640081CF0145F2506254D2544259B259225A4F
:10677400925A025B21618280834624011309340109
:1067840037D502004A8689451305C549EFB0CFD3F2
:1067940019C10545C1BF8346240137D502004A8685
:1067A40089451305054AEFB02FD265F583462401C8
:1067B40037D502004A86894513054549EFB0CFD045
:1067C40069F98346240137D502004A8689451305B1
:1067D4000548EFB06FCF55FD03C74400BD47E3EA5A
:1067E400E7FAA56793874712B3D7E700858BD5D31C
:1067F4008347440285072302F40203D9240071BDB0
:1068040003C681C103A7C1BD81476315F600814654
:1068140036858280BA8613078702835587FDE3890C
:10682400A5FE850793F7F70FCDB7011106CE2EC647
:10683400EFF01FFD01CD8347A500B2451387170074
:106844006396E50093F707F82305F500F240056128
:106854008280011106CE2EC6EFF09FFA05C5B2451F
:1068640091C188C1834785001307E00F5D456388A4
:10687400E7001307F00F01456383E7005945F24031
:10688400056182800945E5BF411122C42A8421059E
:1068940006C626C24AC0EFF06FB183472400A5178D
:1068A40093F7D70F91EB0347C4008547631EF704A2
:1068B4001C48814431499DEFFD5723010400A30482
:1068C400F400230204021305C4002244B24092449B
:1068D40002496146814541016FA08FDDB3872403DE
:1068E4003E95084509C597D0FE1FE780C0FC850486
:1068F40093F4F40F834744010848E3E1F4FE97D08E
:10690400FE1FE78040FB4DBF084C75F975B7411178
:1069140022C4416406C626C29307E4FF630EF50051
:10692400AA8485E1EFF0DFED01E91305F4FFEFF050
:106934003FED19C123109500B24022449244410115
:10694400828085476395F504EFF09FEB2A846DD52B
:10695400FD572310F500834784001307F00F638568
:10696400E7021307E00F638BE70083462400034527
:10697400940001475146A685EFF0EF952285EFF08C
:10698400BFF0FD572304F4002305040075B78947BD
:10699400E394F5FA8545EF40C06959FD2685EFF08B
:1069A4003FE62A844DF949BF39C903478500930757
:1069B400F00F6306F704011122CC06CE2A84834625
:1069C4002500835505000345950001475D46EFF01A
:1069D4008F9003472400E1476319F700035504002F
:1069E4006C0023060100EFB0FFA4F9572304F40060
:1069F4002285EFF07FE9F240624405618280828063
:106A04009307F00F6306F706011122CC26CA2A84E5
:106A14004EC6AE84B689AA859306850037750100F3
:106A24004AC852C43A89328A1305C59A794606CEB1
:106A3400EFF00F97A304240123014401232234011E
:106A440085C01305C4006244F2404249B249224A57
:106A5400A685D2446146056117D3FE1F670003F182
:106A6400F2406244D2444249B249224A05618280DA
:106A740082802380A1BE82809547639CF50683476C
:106A84004502854685072302F502835706005842CE
:106A940003462600FD17C207C1836318D6048A077C
:106AA400BA9703C7170083C707002207D98F035774
:106AB400E50063F9E704411106C622C485072316DD
:106AC400F5002A849305C50003550500EFB02FEDAA
:106AD40003458400B165938505B8EFA01F9DB240BE
:106AE4002244D9473E8541018280C946B387D702F3
:106AF40045BF83464600294785476396E60003471A
:106B0400450211C381473E8582809D476392F50605
:106B1400834745028356E50085072302F502835720
:106B240006005842FD178A073E978347170003471C
:106B34000700A207D98F014763F6D704411106C69F
:106B440022C485072A842316F5009305C50003553E
:106B54000500EFF0EFC903458400B165938505B8DE
:106B6400EFA0BF94B240224459473A854101828044
:106B740083464600A94705476396F6000347450246
:106B8400133717003A858280411122C406C626C2F3
:106B9400B5472A84639BF50483474502B28485077D
:106BA4002302F50203550500EFB0EFA583D70400D7
:106BB4001307F5FF014563C5E7020357E4000355D6
:106BC40004009305C400BA972317F400EFB0EFEB69
:106BD40003458400B165938505B8EFA01F8D594521
:106BE400B2402244924441018280034746009D47BB
:106BF4000545E317F7FE0345440213351500CDB7E9
:106C0400C547639EF5068357060003572600FD1704
:106C1400B387E7020347450205072302E50258420A
:106C2400C207C1833E978347370003472700A20763
:106C3400D98F41677D176395E70081473E85828040
:106C4400138717002316E5000357E500E3F7E7FE73
:106C5400411122C49305C5002A840355050006C6C4
:106C6400EFB00FEC03458400B165938505B8EFA040
:106C7400DF83B2402244D9473E8541018280834666
:106C8400460029478547E39BE6FA0347450255F743
:106C940075B7011122CC26CA4AC852C406CE4EC6C4
:106CA40083C7250015472A8AAE8432843689639DBA
:106CB400E7043686A2852685EFF01FDCAA8955E90C
:106CC40085476318F40A03474900A9476301F7029B
:106CD40003C594004A8785460146D285EFE0BFDFAD
:106CE40019E585454A85EFE03FD71334150083C67F
:106CF400240003C5940001476946D285EFE0BFDD57
:106D04002685EFF07FB851A01D476398E7003686CB
:106D1400A2852685EFF07FDF55B725476398E70006
:106D24003686A2852685EFF03F9049BF35476398A4
:106D3400E7003686A2852685EFF01FE541B7454773
:106D44006398E7003686A2852685EFF07FEBBDB712
:106D54005D47639FE70003C7C50085473686A28564
:106D64002685631DF702EFF0EFBE8547631BF5042C
:106D74008549A5476317F402835709009DE3054439
:106D8400E38709F6D947E39DF9F62285F240624488
:106D9400D2444249B249224A05618280EFF08FC849
:106DA400E9B703C594004A87A2860146D285EFE07D
:106DB4009FD271F5A2854A85EFE01FCA13341500EE
:106DC400C1B70544D9B7397122DC06DE26DA4AD8C0
:106DD4004ED652D456D25AD083D705001944A1E7CF
:106DE40083CA2500AA89328A93875AFE93F7D70F5C
:106DF400AE84D5E783C601BE1307F00F138B01BE23
:106E040019446382E602F5476395FA04EFF05F9F45
:106E14002A8929C10346A50015CE93178601E18767
:106E240063DE070001442285F2506254D254425971
:106E3400B259225A925A025B21618280F5454E85ED
:106E4400EFE07FD18347A90093E707F82305F90012
:106E5400D1BF014983D64400904483C5140003C5BF
:106E640004003800EFB02FDE2A8455FD83C62400C9
:106E740003450B0038000146CE85EFE0DFC52A84C8
:106E84005DF1B24799C323000A0083C72400754704
:106E9400E39AE7F8E30809F82305F90069B7EFF086
:106EA4003F962A8941D18547639FFA0483D54400DC
:106EB40088443000EFA01FF72A8435F503472900E2
:106EC400C54763F0E706DD47630FF70603459900FE
:106ED40083C701BD639CA7060144034729008D476E
:106EE400631FF700835781000357C90063F4E70069
:106EF4002316F9008355C9004E85EFE03FFB4A8510
:106F0400EFF09F980DB7834725001144E39D57F197
:106F14005C41E38A07F083D54400884430008297BB
:106F240061BFB72702009387072AB3D7E700858B91
:106F3400D1DF03C624003400CA854E85EFF07FD527
:106F44002300AA00CDB583270901DDB783C6240039
:106F540038000146CE85EFE01FB82A843DFD83C585
:106F640024002800EFE05FAF25D923000A00B5B75D
:106F7400011126CA03C581C19307800291653305B7
:106F8400F5029385657006CE22CC4AC84EC652C41B
:106F940097D0FE1FE780C08623AEA1BC1DCD138908
:106FA400C1BD0144130A8002FD5983C781C1636FC7
:106FB400F402377501001305A5DCEFE07FEE3775A9
:106FC40001001305E582EFA05FD6377501001305B4
:106FD4002591EF30B07D014511A04D45F24062444A
:106FE400D2444249B249224A05618280B30744032C
:106FF400032509006146814505041374F40F3E9589
:107004002310350123010500231435012305050050
:10701400230205023105EF90BFE941BF014582809B
:1070240083D705006387A70083D745006395A7002E
:1070340091052E85828083D78500A105E38BA7FE69
:107044008145C5BF0DCD834725000547890793F7C3
:10705400F70F6376F702411122C406C62A848355CA
:107064000500034535000147F9465D46EFE0BFA63C
:10707400F9572311F400B2402244410182808280F6
:10708400014582801386B1B1930700022300F60004
:10709400FD57238DF1B0A387F1B02387F1B0854567
:1070A400239CB1B0239101BE23A401BE23AA01BE37
:1070B40023A601BEB7D70200938601B1938707497F
:1070C400DCC2238201BE938701A709472380E6001F
:1070D4002380E7002388E7002380E7022388E70270
:1070E40037D70200D4C713074748B7D60200D8DB06
:1070F400938606480D47D4CB238CE70237D502008C
:10710400B7D60200138781DB1305C5499386464A27
:10711400D8DFC8C32384B70023950700238CB700A6
:10712400239D0700D0CFD4D32384070223950702DD
:1071340023A60702239D070237770100938701AB3B
:107144001307872023A00700D8C323A40700828045
:10715400411106C6EFF0DFEC11C503452500B2402E
:10716400410182800145E5BF411122C426C24AC0C3
:1071740006C6AA842E893284EFF09FEA11E941659C
:10718400CA857D15EFF0DFE9C54711C523109500C9
:10719400230185008147B2402244924402493E853E
:1071A4004101828029E78948354763931605011117
:1071B40006CE22CC26CA034716000346060093C710
:1071C400F7FF2207598EF18F32C68DE7C4452A8412
:1071D400A685EFF0FFF732460147630FA60022852C
:1071E4006244F240A685D24405616FF0FFF72D4753
:1071F4003A85828013070008F2406244D2443A85FB
:107204000561828083C8050009486395080303A8C3
:1072140045008347180003480800A207B3E70701A5
:10722400C2070D68C1871308289063950701894731
:107234006FF05FF705458280011122CC1384F1B011
:107244000347040006CE26CA4AC84EC69307F00F69
:107254006300F704AA892945B2842E89EF90FFA719
:1072640005C99307100B2310F50023020500231111
:1072740035012313250123149500AA850345040031
:107284006244F240D2444249B24905616F903FAF33
:10729400F2406244D2444249B249056182804111BC
:1072A40026C2AE84938581DB22C406C62A84EFF00D
:1072B4003FEA098909C922852244B240A68592443D
:1072C40041016FF0AF94B24022449244054541011C
:1072D4008280411122C426C24AC006C6AA8413046D
:1072E400450013090504835704008DC3084409C5E8
:1072F40097C0FE1FE780205C228531468145EF90D0
:107304003FBB3104231A04FEE31F24FDB240224490
:10731400FD572390F400024992444101828083A7DF
:1073240001BF03D707006300A70283D607041387AE
:1073340007046388A6001387070883D707086396A2
:10734400A7003A8582803E87EDBF0147DDBF83A752
:1073540041BF89CB03D747006314A70088478280C5
:107364009C43C5BF01458280411106C6EFF03FFE34
:1073740009C50845B240410182800145E5BF0111BC
:1073840026CA9384450022CC4EC606CE4AC852C4AF
:1073940056C25AC026878149014481468147154512
:1073A4000356070045CEC9E203544700835727001C
:1073B400B286A297C207C18385093107E392A9FE69
:1073C40035C42E89916593854570228597C0FE1F2B
:1073D400E78000432A8B39C9814A014A8C4485C518
:1073E40003D6440033054B0197C0FE1FE7800058C5
:1073F40083D7440088443E9A420A135A0A0197C02C
:10740400FE1FE780404B63870A003146814526858D
:10741400EF901FAA850AB104E3C23AFD232669014D
:1074240023148900054521A0630DD6000145F240CF
:107434006244D2444249B249224A924A024B05610B
:10744400828003562700E313F6FE03564700329466
:10745400B2974204C2074180C183B9BF0545E358CE
:1074640035FDB9BF83A7C1BE99E301458280984722
:107474000357A7006315A7001385470082809C4328
:10748400E5B7411106C6EFF0FFFD11C50355050030
:10749400B240410182800145E5BF411106C6EFF0CB
:1074A4007FFC11C503452500B2404101828041455E
:1074B400E5BF411122C42A842E8506C6EFF0FFFDE4
:1074C400AA8505462285EF30B02095476305F5006F
:1074D400BD476313F5002145B24022444101828037
:1074E400411122C406C603A4C1BE81469387C1BE0E
:1074F40029C018440356A70018406317A60285CA7A
:1075040098C22E8581C921469305440097C0FE1F69
:10751400E780C045228597C0FE1FE780C03901453A
:10752400B240224441018280A2863A84D1B798C3F2
:10753400C9BF0545F5B783A741BF0146138741BFBE
:10754400A9C703D847009443631CA802011106CEBF
:1075540022CC26CA0DCA14C2AA843E852E8497C0A2
:10756400FE1FE78040352C002685EFF07FF701E50C
:1075740019C0B2471CC0F2406244D2440561828003
:107584003E86B68775BF14C3C1BF054582804111CD
:1075940022C42A84090506C6EFE04FE1FD57A30182
:1075A400F400B24022444101828083D6C1DD2A879F
:1075B4009387C1DD6381A60283D66700638FA6002B
:1075C40083D6C70001456397E6000945194733058B
:1075D400E5023E9582800145D5BF0545C5BF4111F1
:1075E40022C4416406C626C29307E4FF630EF50075
:1075F400AA8485E1EFF07FFB01E91305F4FFEFF0C6
:10760400DFFA19C123109500B2402244924441018B
:10761400828085476394F504EFF03FF92A846DD5A1
:10762400FD572310F500834724001307F00F6384EC
:10763400E7021307E00F638AE700034534000147BC
:10764400F9465146A685EFE00FC92285EFF03FF4D5
:10765400FD572301F400230204007DB78947E39515
:10766400F5FA8545EF30F01C45F12685EFF0FFF380
:107674002A8455F951BF1D71A6CACEC686CEA2CCA6
:10768400CAC8D2C4D6C2DAC05EDEAE8483C52500C1
:10769400F947AA896397F504EFF03FF12A8411EDC5
:1076A40001442285F6406644D6444649B649264AF2
:1076B400964A064BF25B2561828083472500054785
:1076C400890793F7F70FE37DF7FC0345350001477E
:1076D400F9460146CE85EFE00FC02285EFF03FEB7F
:1076E400C1B703AB0400B7070001938707F037075E
:1076F4001200B377FB0013070710B28A638AE7020C
:107704002EC6EFF09FEA2A89B24505C50346450017
:107714000DC293178601E187E3C407F84E85EFE0B5
:107724008FC38347490093E707F82302F9008DBF0D
:10773400014903C7A1B19307F00F138AA1B11944FA
:10774400E301F7F6E147E3EEB7F493D71500FD172D
:1077540013973700B7D7020093878712BA9703A805
:107764000700E30008F483AB4700E38C0BF2420B01
:10777400135B0B0163050B00C947E394F5F283D651
:107784004400904483C5140003C5040038080298DB
:107794002A84E31805F02C084E85829B2A8421C98B
:1077A40083C71400E39F07EE83C72400230AA100C4
:1077B40039472308F1006399E702624783471700BA
:1077C40003470700A207D98F0C084E852319F1003F
:1077D400EFA06FFAE30605EC14080546D9454E857B
:1077E400EFE0EFD72A8475BD83578101F1BF83C6CB
:1077F40024009147E386F6EA03450A003808014667
:10780400CE85EFE04FAD2A84E31D05E883C524004F
:107814002808EFE06FA419C123800A009840B70735
:107824000001938707F07D8FB70712009387071035
:10783400E308F7E6E30609E683C724002302F90018
:107844008DB5011106CE2EC6EFF03FD601CD83478C
:107854004500B245138717006396E50093F707F8D0
:107864002302F500F2400561828003A7C1BE19E33B
:10787400014615A81C4703D8A700636B050183586C
:107884004700B38608016355D50081466394160109
:107894001843F1BF3E86C10703D3A7FF6317A300B4
:1078A40099C123900501328582808506C206C18272
:1078B400F1BF397152D42E8A4ED69305E101AA89BB
:1078C400528522DC4AD856D206DE26DA328936C6FA
:1078D4003AC4BE8AEFF07FF9054435C5AA8403553E
:1078E400E1013944EFF0BFA639CD03284500630C0C
:1078F40008042247B246D6874A86A6854E85029852
:107904002A8431E19307E00F638FFA0203C704006E
:107914008947631AF702D8408347170003470700D3
:10792400A207D98FC2070D67C18713072790639CED
:10793400E7008347190003460900D285A2075D8E3C
:107944004E85EFF07F8F2285F2506254D254425913
:10795400B259225A925A21618280797122D40354F5
:1079640025004ECEAA89228556CA06D626D24AD0EA
:1079740052CC5AC85EC662C4AE8AEFF05F9A01E97F
:107984002285EFA0BFFF594429E90144B9A003C7E8
:1079940089008547AA840144631AF702AA851385DE
:1079A4008900EFF0DF9D29CD03D7640083D68400DE
:1079B400D04483D5440003D52900E147EFF07FEF9D
:1079C400D9472A846318F50223A604002685EFF01C
:1079D4005F9049C0D947E30AF4FA2285B250225491
:1079E40092540259F249624AD24A424BB24B224C57
:1079F4004561828061DD83D744002390FA00F9B7A2
:107A040013894400014A914B594C154B8355090085
:107A1400D5DDE14763067A010357C90011C3D9478D
:107A240003572900835649000326890003D52900FA
:107A3400EFF03FE82A846319850123240900050A2D
:107A44003109E3156AFD59B77DD98357090023909D
:107A5400FA00F5B703D529002DB701112317C1008A
:107A64009307E00F1306E1000147894606CEEFF0C5
:107A74005FE4F24005618280797122D42A8403553F
:107A8400850026D2AE849305210106D64AD0EFF0B4
:107A9400DFDD6308050E8347850093F7070295CF62
:107AA4002AC603552101EFF03F8CAA87B24501EDA8
:107AB4008357840039452390F400B25022549254E1
:107AC400025945618280035524004946829711C5B5
:107AD400835784002390F400CDB7035924004A85CA
:107AE400EFF0FF8311ED41657D15EFF05F8319E53C
:107AF4008357840025452390F400C1B72310250142
:107B04001307450081479546035607002DE6314784
:107B1400B387E702130984003146CA8591073E956D
:107B240097C0FE1FE78080E43146CA85480897C0A5
:107B3400FE1FE780A0E30356C40003552400414719
:107B44008146DD45EFE04FBC2ACE19E5835784001A
:107B540045452390F40095B70C480356C40097C0DC
:107B6400FE1FE780A0E0035524004C08EFA0DFDCF3
:107B740029D5594599B785073107E397D7F825459E
:107B840081BF0545B1B7797122D42A840355850094
:107B940026D2AE849305E1014AD006D63289EFF0AD
:107BA400DFCC51C58347850093F70702A9E7034754
:107BB40014019307200519E3834744008356A40066
:107BC400504483558400035524000147EFF07FCED1
:107BD400AA8721E98347140199E703552400EFA0FC
:107BE400DFD0D94711E18147B2502254925402594F
:107BF4003E85456182802AC60355E101EFF0CFF648
:107C0400AA8705C9B2450355240049468297AA8725
:107C140059DD035784002390E4000347140161F7FE
:107C2400E1B75947E317E5FE230009006DBF854717
:107C3400CDB7B947F9BF397122DC4AD84ED652D4F0
:107C440006DE26DAAA892E8A32C63689EFF0FF9537
:107C5400094415C5834725001307E00FAA845D4432
:107C6400638FE7001307F00F5944639AE700324625
:107C740005E2D2854E85EFA05FD42A8415CD2285F6
:107C8400F2506254D2544259B259225A216182802C
:107C940003550A009305E101231F0100EFF0FFBC27
:107CA4000355E101EFF06FFFAA8505464E85EF30DD
:107CB40020222A845DDDE1B79307F00FE301F9FC8C
:107CC40037750100938624007946A685130585043B
:107CD400EFD01FEDA38124015DB7397126DA83A4A7
:107CE400C1BE52D45AD05ECE62CC06DE22DC4AD863
:107CF4004ED656D266CA2A8BAE8B328C368A99E01F
:107D04008149B9A0804483DC44000149835AA4001A
:107D1400631499018440E5B78357A400A28963F8EA
:107D2400670105094209135909014104D5B7E3EA7A
:107D3400FBFE630C0A00834504004840D286628639
:107D44003AC6EF907FF8324769DD19C32310570113
:107D5400F25062544E85D2544259B259225A925A20
:107D6400025BF24B624CD24C2161828003D7050046
:107D740083D62500854763E9E60439C7411183C6E4
:107D8400450026C237D502009384550022C42686B6
:107D94002E841305C549894506C6EF90FFF2C147F5
:107DA40011CD834644008355240003550400014744
:107DB4002686EFF09FF2814711E1A947B2402244A1
:107DC40092443E85410182803E8582802E86035501
:107DD400060083D52500854763E2A50205C18346D5
:107DE400460041110147150606C6EFF01FEF814713
:107DF40011E1A947B2403E85410182803E858280DF
:107E04002E860355060083D52500854763E2A50227
:107E140005C18346460041110147150606C6EFF029
:107E2400DFEB814711E1A947B2403E8541018280E1
:107E34003E85828039714ED683D7250083D90500CB
:107E440006DE22DC26DA4AD852D456D25AD05ECE86
:107E540062CC66CA6AC863E037198547638E091421
:107E6400416BAE8A2A8A2314010002C601440149E7
:107E74007D1B894B054CC94C054D83D52A00014710
:107E8400814601464E8523130100EFF01FE5AA84C5
:107E94006300051209EC13072002930661005A8659
:107EA40095455285EFE04F862A84630805120357EF
:107EB400810083C7040045C70347A100630CA707DB
:107EC40041476385E7022C005285EFA00FF009CDEE
:107ED40034001546D9455285EFD07FE811C53245A7
:107EE40097C0FE1FE780209D8147F9A083D7A40097
:107EF4004146130524002300F40083D7A400A18382
:107F0400A300F400CC4097C0FE1FE78020A64904DC
:107F1400835781008507C207C1832314F10063F9E5
:107F2400270983D7A400638567098509C20993D902
:107F34000901A1B7E39977F983D7A400094613058A
:107F440024002300F40083D7A400A183A300F40039
:107F5400CC4097C0FE1FE78060A1110455BF22C624
:107F64000359610003C7A400130524006382770347
:107F740033599903230571012300E40083D7A40036
:107F84004146A183A300F400CC401379F90FA5BFA7
:107F9400230581012300E40083D7A4001359290099
:107FA4001379F90FA183A300F4000946CC4055B717
:107FB4008357810089FBA947F2506254D254425935
:107FC400B259225A925A025BF24B624CD24C424D45
:107FD4003E85216182808547C5B7C547F1BF797168
:107FE4004ECE83C921C022D426D24AD006D62A84B2
:107FF400AE843289EF00D178637D35052285EFF0B8
:10800400CFDA01C9034725009307E00F5D456308F4
:10801400F700631D0900A6852285EFA0FF96B250E4
:10802400225492540259F2494561828003D50400D6
:108034009305E10023170100EFF03F830355E100AE
:10804400EFF0AFC5AA8505462285EF20706861D59B
:10805400F9B75945E9B713F7050201C7B2856FF0BF
:108064004FC5411126C24AC006C622C413F9850071
:10807400AA8463170900139785016187635D07026A
:1080840032853684EFF06FC1AA8505466313090073
:1080940001462685EF20D06301E90145B240224420
:1080A400924402494101828083479400E5DB83477F
:1080B4008400E5F7E5B793F72500E5F30D45F9BF2F
:1080C4007971AE8622D42A8403D506009305E10192
:1080D40006D636C6EFF06FF909CD83458500B24662
:1080E4000356E1012285EFF01FF7B2502254456197
:1080F40082800545DDBF13F7050201C7B2856FF025
:108104004FBB411122C426C206C693F485002A84BB
:1081140091E4139785016187635007023285EFF07C
:10812400CFB7AA85054691E0014622852244B24094
:10813400924441016F20D05993F72500014591E302
:108144000D45B24022449244410182807971AE8649
:1081540022D42A8403D506009305E10136C606D647
:10816400EFF0AFF0B24601CD834585000356E1013F
:108174002285EFF05FF8B2502254456182800545B4
:10818400DDBF797126D2AA840355A500C16722D424
:108194004AD04ECE06D623170100FD173284B68985
:1081A4000149630DF500050583C60400D04042056E
:1081B4001307E1004181EFF05FB22A8983C604000E
:1081C400D04037D5020089451305C549EF90DFAF8C
:1081D4001DC503D4A4002285EFF0AFAA09C57D1400
:1081E4002A94420441806384090023908900B25098
:1081F40022544A8592540259F2494561828083C6C9
:108204000400D04037D5020089451305054AEF9094
:10821400BFAB61F183C60400D04037D50200894565
:1082240013050548EF905FAA19C9E30609FA8357B5
:10823400E100E39287FA0354A9007D145DB703D4E7
:10824400A40055B7397122DC26DA4AD84ED652D466
:1082540056D25AD062CC06DE5ECEBE8983C7850074
:108264002A8AAE84C18B328C36843A89C28A468B80
:108274009DE783CB04008947638BFB046285EFF0A1
:108284000F8D1DC183280500638008025A88D68794
:108294004E87CA862286A6855285829839A0328561
:1082A400EFF08F8CAA8711ED3945F2506254D25405
:1082B4004259B259225A925A025BF24B624C2161E2
:1082C40082802946A6855285829745D5F9BFD84034
:1082D4008347170003470700A207D98FC2070D671A
:1082E400C187930607906380D72263CCF606930672
:1082F4002780638CD70C63C1F60213070780E3CF92
:10830400E7F62D45E39309FADC4403C60700CC43A2
:108314002310C900228559A213073780E390E7F69A
:108324002D45E39409F885472310F900DC44814581
:1083340083C707002300F40003D5A4000505420504
:108344004181EFF08FD2835709006315051291071D
:108354002310F9001146814513051400EF805FB521
:1083640029A2930627906381D71863CED712930668
:108374003790638AD71813074790E391E7F02D45A8
:10838400E39509F2DC441D472310E90003C7070005
:108394002300E40003C71700A300E40003D7270069
:1083A4002301E40003D727002183A301E40003C7CA
:1083B40047002302E40003D76700A302E40083D745
:1083C4006700A1832303F4004DA02D45E39F09EC2E
:1083D400DC446C0083C9170003C70700A209B3E992
:1083E400E90011472310E90083C707004E852300E5
:1083F400F400DC4483C71700A300F400EFF0EFC6D9
:10840400AA8435C50356C100C1659306E100FD1574
:108414008329C500EFF0FFD619ED83C60400D040D0
:1084240037D5020089451305054AEF90FF8901E518
:10843400FD572317F10003C7090089476310F702AA
:1084440083A5490009461305440097B0FE1FE78041
:10845400E0518357090089072310F9008357E1008D
:108464002301F400A183A301F40001453DBD2317BA
:108474003101EDB7034705008907BA972310F900C6
:108484008357A500A300F4008357A500A18323010B
:10849400F400034605004C411305340097B0FE1F59
:1084A400E780C04CD9B7C844EF80BFA1931705013A
:1084B400C1832A871D45E3EA37DF6399F900231056
:1084C4000900CC4403560900CE95A9B54207B386EA
:1084D4003A01418363C7E600B38737412310F900AB
:1084E400CDB723105901F1BF2D45E39009DCCC44ED
:1084F4005285EFE0FFC5231079012300A4002181F8
:10850400A300A4009DB72D45E39109DADC442310B0
:10851400790183C707002300F400DC4483C71700F4
:10852400A300F40099B71D71CAC82A890355250010
:10853400A2CCCEC6D2C4D6C2DAC05EDE62DC66DAB3
:108544006ED686CEA6CA6AD8AE8AEF90DF8B130C9D
:10855400F5FF93170C01C1832A8A8149138441DCF6
:108564003EC6C16D8357C90063F6F9008357040002
:1085740063CC870103552900938541DCEFA06FABE1
:108584002A8D15CD594D25A88327890013971900E5
:108594009305E101BA9783C4170083C70700A204B7
:1085A400DD8C2685EFF06FACAA8515E923909A003F
:1085B4004840054D09C597B0FE1FE780C02FF6401F
:1085C40066446A85D6444649B649264A964A064BC5
:1085D400F25B625CD25C425DB25D256182803248AE
:1085E4008348490083A681BE0356E101035529004F
:1085F4008147138721BEEFF0FFC42A8D138881BE03
:1086040009C523909A00484075B75C4095E303552B
:108614002900514781461386FDFFBD45EFD0DF8E0B
:1086240048C0138881BE09E523909A00454D41BF97
:108634008357040003D721BE938421BE3E9763472A
:10864400470113C7F7FF52972390E400484003D62D
:108654000400832508003E95850997B0FE1FE78036
:10866400E0308357040003D70400C20993D90901F9
:10867400BA972310F400FDB5397122DC2A8403551E
:10868400250006DE26DA4AD84ED652D45AD05ECE1B
:1086940062CC66CA2E8B56D26AC8EF90CFF62A8A6D
:1086A4008346C4008355A400035584007800130650
:1086B400D400130CBAFF651AEFF02FE2420AAA891C
:1086C4008144135A0A01138941DC6386090463D483
:1086D4008405938A81BE8348440083A60A00035616
:1086E400C1000355240052888147138721BECE85DB
:1086F400138D21BEEFF01FB515C5814A0356C10085
:108704008355A4004E859306E100EFF09FA7AA8944
:10871400639B0A065DF9F1EC835784002945231015
:10872400FB003DA883570D0003560401E317F6FC34
:1087340083A50A004848EF80CFFD61D18327490013
:10874400A1E3035524004166454781467D169D45B6
:10875400EFD08FFB05E58357840045452310FB00CC
:10876400F2506254D2544259B259225A925A025B7C
:10877400F24B624CD24C424D216182802322A900EB
:1087840083DAA900A5BF83274900A6972380570150
:10879400938714001397070183274900418393DAD1
:1087A4008A00BA972380570113872400832649003F
:1087B40093873400420791044183C207C204C183F2
:1087C400C180369711CD8356E1002300D7000327DB
:1087D4004900BA970357E10021832380E700F5B5E8
:1087E400FD562300D70003274900BA972380D700FA
:1087F4001DB7035524008980239291DC938541DCC5
:10880400EF905FE931DD5945A1BF411122C406C68D
:1088140093F705012A84328585C3EFE01FC8AA8532
:1088240005462285EF20C06A95476305F500BD47DC
:10883400631DF502214515A893F7450099CBEFE098
:10884400DFC50546AA8522852244B24041016F2036
:10885400206893F7050489C7EFE03FC40146DDB7FC
:1088640013F51500133515000605B24022444101E5
:10887400828079714AD04ECE52CC06D622D426D2EA
:108884002A8AAE89014983D749006364F900014506
:10889400A1A083A7090013141900930414003387BB
:1088A400970003470700A29703C507002207930513
:1088B400E100598DEFE07FFB05E983A70900054539
:1088C4003E94034704002380E70083A70900BE9475
:1088D40003C70400A380E700B25022549254025903
:1088E400F249624A45618280834585000356E1006E
:1088F4005285EFF09FF105C183A709003E94034719
:1089040004002380E70083A70900BE9403C7040082
:10891400A380E700D1B70509420913590901A5B796
:10892400011122CC2A8403D505009305E10006CE6B
:10893400EFE0BFF301CD834585000356E1002285B6
:10894400EFF0BFECF2406244056182800545DDBF73
:108954001D71CAC82A890355250086CEA2CCA6CA91
:10896400D2C4D6C2DAC05EDE62DC66DA2E8ACEC635
:108974006AD86ED6EF902FC92AC68346C90083559C
:10898400A9000355890078081306D900EFF0EFB465
:10899400B247416B938AA7FFC20AAA8B014493DAB8
:1089A4000A01938441DC7D1B638F0B180356C101BC
:1089B40083C58B0003552900EFF03FE5AA8D631FA3
:1089C40005168348490083A681BE0356C101035599
:1089D400290056888147138721BEDE85EFF09F86E4
:1089E400AA8D938921BE138D81BE631905141DCCF4
:1089F40003D7090083D7240011076397E7003247A0
:108A0400A2976D1763C8E706938741DC03D7270055
:108A140003552900938541DC3354E40223908700F5
:108A2400EF90BFE4AA8D15C1D94D05A003552900C7
:108A3400494781465A86C545EFD00FCDC8C015E5D4
:108A440083D7AB00C54D2310FA00F64066446E850B
:108A5400D6444649B649264A964A064BF25B625CBE
:108A6400D25C425DB25D2561828083D709009107A3
:108A74002391F400DC4003D7AB009306E101A297F5
:108A84002380E7009307140013970701DC40418318
:108A94005E85BA9703D7AB0021832380E700035692
:108AA400C1018355A900EFF0CFED13072400D44092
:108AB40093073400420711044183C2074204AA8B7E
:108AC400C1834180369721E1FD562300D700D84069
:108AD40083250D00BA972380D700C84003D6090028
:108AE400229597B0FE1FE78060E883D709003E9483
:108AF4004204418011F8835789002310FA00E39659
:108B04000DF4A94D99B78356E10183250D00230087
:108B1400D700D840BA970357E10121832380E700A7
:108B2400C84003D60900229597B0FE1FE78000E4F1
:108B340083D709003E9442044180BDB583D7AB007E
:108B44002310FA0045BF814D75B75D71A6C2CAC036
:108B5400AA840359850003552500A2C44EDE52DCC5
:108B64005AD85ED662D466D286C656DA6AD06ECE3B
:108B74002E8BEF904FA9930BD5FF7115131A050196
:108B84000144135A0A01938941DC6355741583C661
:108B9400C40083D5A4001307E1001386D4004A85DA
:108BA400EFF0AF932A8D630705120359A50083459F
:108BB40085000356E10003D52400EFF01FC56310C0
:108BC400051283C8440083A681BE0356E10003D581
:108BD400240052888147138721BEEA85EFF08FE68F
:108BE400938D21BE138881BE631B050E0DC883D7E8
:108BF4000D0003D7290089076308F706138741DCB2
:108C04008357270003D52400938541DC3354F402B1
:108C140023108700EF90DFB105C5594515A003D592
:108C2400240041664D4781467D16A545EFD0CFAD62
:108C340023A2A900138881BE1DE123102B01454501
:108C4400B640264496440649F259625AD25A425BC7
:108C5400B25B225C925C025DF24D6161828083D7DB
:108C64000D0089072391F90083D70D00A29763D3E0
:108C7400770783A749000357AD00930A2400A297FE
:108C84002380E70005049317040103A44900C1836A
:108C9400C20A3E948357AD008325080093DA0A0183
:108CA400A1832300F40003A5490003D60D005695C3
:108CB40097B0FE1FE78080CB03D40D00C167FD177A
:108CC400569442044180E302F9EC05094209135920
:108CD400090165BD29451DF023102B0195B76DDCF5
:108CE40031BF8357050099E309458280411126C2AB
:108CF400444122C406C64AC083C60400D0402A8424
:108D040037D5020089451305C549EF80FFFB59C1DA
:108D14008347240025476145E51793F7F70F6367F9
:108D2400F70803D781B10545138981B141C383573E
:108D34000400BA974167634BF706916593852570E4
:108D4400314597B0FE1FE780A0ABAA844D45B9CC4E
:108D5400835704008355090001460147B386E500A3
:108D6400C206C182634AF704AE97C207C18319C21F
:108D74002310F90023A004002146A2851385440092
:108D840097B0FE1FE78080BE9387C1BE98431DEF56
:108D940084C381A083C60400D04037D5020089452E
:108DA4001305054AEF805FF225F50945B2402244D8
:108DB400924402494101828050401315470005073F
:108DC4002A962315D600054651BF3E871C43F5FF5E
:108DD40004C30145E1BF011106CE22CC26CA4AC80C
:108DE40009E98944F240624426854249D244056136
:108DF40082802AC62A84280036892314B1002305D8
:108E0400C100EFF01FEEAA8471FDE30D09FC835746
:108E1400A400E1DB916593855570314597B0FE1F41
:108E2400E780009E05C58357A40023200500232462
:108E340025012312F500938741BF984301E788C3B6
:108E440055B73E871C43F5FF08C369BFCD4459BFDE
:108E5400938741BE03C7070011EF05472380E7004E
:108E6400058909C9938601AB41469145138501A73C
:108E74006FF07FF601458280A387A1B082804167AD
:108E84007D176310E5027D572390E50023810500DB
:108E94002392E500238305002394E5002385050040
:108EA4008280411106C6EFE0AF9711C5FD5723102C
:108EB400F50023010500B2404101828001114AC836
:108EC40006CE22CC26CA85472A896393F5044A85AF
:108ED400EFE0EFC439E9C16437D602009385F4FFAB
:108EE4001307E1008946130646480545EFE0FFDE17
:108EF4002A84FD140DC44C444A85EFF05FF80356F0
:108F0400E10022858146A685EFF0AFA72A84DDB76C
:108F140089476396F5008545EF20A0114DD9F240AD
:108F24006244D244424905618280EFE08FBA65B75A
:108F3400411106C69387C1DD7D572393E70023942F
:108F4400E7007D57D8C73775010079572385070097
:108F54002388070098C3238207001305A567EFC081
:108F64009FF43785010013056584EF807FDC377536
:108F740001001305255EEF206003B2400145410165
:108F84008280011106CE2AC622CCEFC08FDDEFE02D
:108F94006F8F3245938781DB7D5791652387A1B01D
:108FA4002390E7002392E7002394E700238107003E
:108FB4002383070023850700938515701305000C90
:108FC40097B0FE1FE780C08323A8A1BE1384E1B03D
:108FD4009307050C7D572310E50023120500232673
:108FE400050023180500232C0500231E0500232259
:108FF40005022314050223280502231A0502232E41
:10900400050213050504E398A7FC03470400624422
:10901400F240238DE1B037950100130505EC05619D
:109024006F10D07893970501C18763D2073603C5C3
:10903400E1B0397122DC5AD006DE26DA4AD84ED69F
:1090440052D456D25ECE2E8BEF701FCD2A8439C5F2
:10905400034705009307000B631FF70285479384BA
:1090640081BEA304F1009C4023150100B1E7EF0089
:10907400007B91659385357097A0FE1FE78040784B
:1090840088C01DE98347910099C7834544001305AF
:109094008400EFD0EFC02285EF707FC1F25062549C
:1090A40021653345AB00D2544259B259225A925ADF
:1090B400025BF24B2161828061468145138541DC6C
:1090C400EF701FDF034944008947938B41DCD68945
:1090D400138A41DC6318F908035524009D4763E1B2
:1090E400A70293171500138701E2BA9783D70700E5
:1090F40081EB0566130686849305B00FEF00016CBF
:10910400EF00E0712310AA0003552400938541DC8D
:10911400EF900FC70357240083570A008356840037
:1091240011ED63E4F6002314F400835584003A85BA
:10913400EFC0DFD72285EFC09FAAA9B763E4F6008A
:109144002314F40083578400D945938641DC0D46EB
:109154003A852310FA00EFC09FC08D4561DD138569
:1091640041DCD9A09947631AF9029305A10022852D
:10917400EFF08FD0AA845DDDD9476397F40E05091B
:10918400035524001379F90FD945938641DC4A86A7
:10919400EFC0FFBCCA8559DDD9B7A1476318F900F0
:1091A4009305A1002285EFF05F9AE9B7A947631000
:1091B400F908035584006C00EFE02FEBAA84630EDA
:1091C40005140355240041669306E10055477D16B6
:1091D400AD45EFC07FD323A2AB00AA8649C1834823
:1091E40044000358E1000356C10003552400A6853A
:1091F4008147138741DCEFF0EF84AA84631E050ED8
:1092040003552400938541DCEF906FD805D50355B1
:109214002400938641DC2D46D945EFC05FB4E30BAF
:1092240005F0AD45138541DCEFD08FA721B7B147D9
:10923400631BF90E035584006C00EFE00FE3AA846E
:1092440069CD0355240041669306E10059477D1614
:10925400B545EFC07FCB2322AA00AA8629E983570C
:109264008400C5442315F10003471400D147E303E8
:10927400F7EC8347440003552400938541DC230025
:10928400FA008357A10023029A002311FA00EF8009
:109294009FCEE30105EA03552400938641DC05468D
:1092A400D945EFC0DFABE30705E885454DBD8348ED
:1092B40044000358E1008357A4000356C10003553A
:1092C4002400A685138741DCEFE0DFF7AA840DE5CF
:1092D40003552400938541DCEF900FD1E30C05E4A2
:1092E40003552400D945938641DC3546EFC03FA79A
:1092F400B545E30105E4A5B5D9476393F40081447A
:1093040003254A0097A0FE1FE780E05AE38404E2A5
:10931400835784002315F10081BF8357840085445B
:109324002315F10091B7B9476318F9009305A1001B
:109334002285EFF04F9F3DBDC1476318F9009305A7
:10934400A1002285EFF0CFE035B5C947631AF900D3
:10935400130691009305A1002285EFE0DF8219BD79
:10936400D947631DF9009305A1002285EFE0CFF0F2
:10937400AA84E31305E0A30401006DBBE147E31BEA
:10938400F9DA9305A1002285EFE02FDDE5B301456D
:109394008280F9C6011152C42E8A854522CC4EC65C
:1093A40056C206CE26CA4AC8AA8AB6893284EF10A3
:1093B4005048D1470DC183C701C083C611C0814441
:1093C40019E0B684BE8603A781BF93974400BA9779
:1093D40063EDD400D547F2406244D2444249B249D5
:1093E400224A924A3E85056182803E89C10703D79D
:1093F40027FF09C7850493F4F40FD9BF21CC9565E1
:10940400938525C01305000297A0FE1FE780403F07
:109414002326A90061D11306000281459384040424
:10942400EF701FA923119900230009002313590188
:109434000DC48347940003A681C02304F900118C52
:109444008327C90011841180238E870023A029015A
:10945400814751B723260900C1BF23044901FDB741
:1094640085473E85828083C501C003A781BF8147AC
:109474006395F50081463685828003562700BA86B7
:1094840019C2E30AA6FE850793F7F70F4107CDB784
:1094940003C601C003A781BF81476315F600814657
:1094A4003685828083552700BA8689C5834547005F
:1094B400E388A5FE850793F7F70F4107F9BF83C536
:1094C40031C003A781C081476395F5008146368585
:1094D400828003560700BA8619C2E30AA6FE8507EE
:1094E40093F7F70F4107CDB703C811C083A781BF16
:1094F40001476315E80081463685828003D627003C
:10950400BE8619CA03D667006318A600D04709C6E9
:1095140003562600E302B6FE05071377F70FC107CB
:10952400C9BF411122C4404526C206C6AA8415C03B
:10953400484409C597A0FE1FE780E037484809C59D
:1095440097A0FE1FE7802037228597A0FE1FE780A3
:109554008036268541468145EF709F95B24022446E
:10956400FD57A384F400924441018280011122CC6E
:109574002A840355250006CE2EC6EF10500332462A
:1095840022858145EF00906122856244F2400561A5
:109594006FF03FF90DC503572500411122C406C6DB
:1095A4002A8411CBDD45EF00506322852244B2406A
:1095B40041016FF01FF7B240224441018280828052
:1095C400411126C2B1469304C5FFB386D402138762
:1095D40001DF06C622C436978356A7006398B602F5
:1095E40048430DC5138401DF9307F00F6306F600AB
:1095F40083470500639CC70097A0FE1FE780A02B4C
:10960400B147B387F402A29723A20700B2402244D1
:10961400924441018280411122C42E8426C24946CB
:10962400AA848145228506C6EF709F88A1CC83C792
:10963400C4011397470083A781C0BA9703D70700D3
:109644002310E40003D7270083D767002311E40025
:1096540003D7E1BF2312E40003D704002313E4007B
:1096640003D724002314E40003D744002315E400A3
:1096740003D764002316E40003D784002318F400FE
:109684002317E400B240224492444101828083C5FE
:1096940001C003A881C003A681BF01478147639429
:1096A400E5003E8582808346060081CE544691CAF9
:1096B40083C6C6019206C2966315D500850793F743
:1096C400F70F05071377F70F4106D1BF13060064A0
:1096D4003386C50293069500AA85379501001305C4
:1096E40085596F701FC5411122C406C62A840345DB
:1096F4009500EF709FD4FD57A304F400B2402244B8
:1097040041018280011122CC4AC84EC652C456C2BD
:109714005AC006CE26CA2A89AE8901441D4B83C786
:1097240011C06361F40463950902930AF00F83C7BF
:1097340001C06367F4061144A14422850504420470
:109744001306F00FCA854180EFF09FE7E31794FEFC
:10975400F2406244D2444249B249224A924A024BFC
:109764000561828083A781BF93144400BE9483C79C
:1097740004009DC383D76400639027036396690143
:1097840003D52400EF10A06226854E868145EF00A4
:10979400F0402685EFF0FFD805041374F40F41B7A9
:1097A40083A781BF93144400BE9483C704009DC360
:1097B40083C794006380570383D76400639C2701A5
:1097C4002685EFF05FF22685D145EF00104126850E
:1097D400EFF03FD505041374F40F91BF4167791777
:1097E400630BE502411122C406C685472A846399A6
:1097F400F50022852244B240814541016FF09FF07B
:1098040089476396F5008545EF10B0027DD1B240DB
:1098140022444101828082809D456FF0BFEE03D5D2
:10982400E1BF828003C7C1BF011106CE2317A10087
:109834002316B10085476318F70070009305E10013
:109844000545EF401020F24005618280A947631C62
:10985400F60483C7150003C70500A207D98F231098
:10986400F50083C7350003C72500A207D98F23114C
:10987400F50083C7550003C74500A207D98F2312FB
:10988400F50083C7750003C76500A207D98F2313AA
:10989400F50083C7950003C78500A207D98F231459
:1098A400F500014582800545828091476314F602E4
:1098B40083C7150003C70500A207D98F2310F5003D
:1098C40083C7350003C72500A207D98F2311F500EC
:1098D40001458280054582809387C5FF93960701E1
:1098E400C1820D47636ED70031473387E702938700
:1098F40001DFBA972381A7002390B7000145828036
:10990400094582807115239FA1BE2381B1C02382A2
:10991400B1C082801905956542054111938535C012
:10992400418106C697A0FE1FE78080ED11C5B240B5
:10993400E95541016F700FB3B24041018280238128
:1099440001C0238E01BEA38E01BE238901C0011173
:10995400239F01BE2386A1C052C4138501DF22CCFC
:1099640026CA4AC84EC6130600038145138A31C06D
:1099740006CE238001C0A38001C023AC01BE230016
:109984000A00938901C1EF70AFD2EF10C04A03C53A
:109994000900138401C0938411C0138981BF05C9D0
:1099A4009565938545C0120597A0FE1FE78040E5A5
:1099B40023A4A1C009CD03C6090083C719008145AA
:1099C4002300CA0012062380F400EF706FCE03C593
:1099D40081C183C704009565938555C03E95137571
:1099E400F50F2300A400120597A0FE1FE78040E1B5
:1099F4002320A90021C50346040081451206EF7007
:109A04002FCB0327090083460400814725077D5691
:109A1400639FF6006244F240D2444249B249224A6A
:109A2400379501001305057E05616F1020588507E1
:109A34002300C70093F7F70F4107D9BF23000400A1
:109A440023800400C1BF41119397050126C206C6B5
:109A540022C44AC0C187AE8463DD070803C5C1C000
:109A64001389C1C0EF704FAB2A8429C9034705008D
:109A7400930700096311F70403471500CD476318E2
:109A8400F7060348250003C581CE83C721C013060A
:109A9400640081458146138721C0AA886318D802CF
:109AA40099C12300F7008347070091C703450900C4
:109AB4008545EF704FCC2285EF706F9F2165258D12
:109AC400B240224492440249410182808345060007
:109AD400AE9793F5F70F93F7F80F63F4A50093F798
:109AE400F50F850693F6F60F0906854545BFF52B58
:109AF400D9B793F715000145E1D7EF00506909C9BB
:109B040083C721C091C703C5C1C08545EF70AFC6E7
:109B140013C5140075B785462A8763FBC60483C73B
:109B2400150003C60500A207D18F2310F500639C1E
:109B3400D70083C7350083C62500A207D58F23111C
:109B4400F50001458280894601456394D70283C7A5
:109B5400350083C62500A207D58F2311F70083C7DC
:109B6400550083C64500A207D58F2312F7008280D3
:109B74000545828091476314F60283C7150003C725
:109B84000500A207D98F2310F50083C7350003C74A
:109B94002500A207D98F2311F500014582800545D0
:109BA400828091476314F60283C7150003C705003A
:109BB400A207D98F2310F50083C7350003C72500FA
:109BC400A207D98F2311F5000145828005458280C3
:109BD400A1476314F60483C7150003C70500A20751
:109BE400D98F2310F50083C7350003C72500A207CA
:109BF400D98F2311F50083C7550003C74500A20779
:109C0400D98F2312F50083C7750003C76500A20727
:109C1400D98F2313F5000145828005458280894749
:109C2400631CF60083C7150003C70500A207D98F7C
:109C34002310F50001458280054582808357260064
:109C440079714ECE06D622D426D24AD01307F00715
:109C5400AE896372F70209473AC42316F100300053
:109C640093F5F50FEF108013B25022549254025919
:109C7400F2494561828003574600D9462A893284D5
:109C840063F8E6008357660063F4F6006379F7002F
:109C940023140100300093F5F90F4A85E1B7035509
:109CA400060002C4EFF0BF81AA8459C1EFF03F9EC1
:109CB40083C784006369F5001146A246CE854A85B0
:109CC400EF10000455B7340026869305F00F4A853B
:109CD400EFF02FEC75F1A24703578400DC47239083
:109CE400E700035724002391E7000357440023921D
:109CF400E700035764002393E70003D74400239449
:109D0400E700DC4485CB93F4F90F2286A6854A85C7
:109D14008297C167FD172A86E311F5FA2245994710
:109D2400F9452300F50023029500EFF03F9A2DBF7B
:109D3400094661B7014651B7A947631CF60483C7B6
:109D4400150003C70500A207D98F2310F50083C7A8
:109D5400350003C72500A207D98F2311F50083C757
:109D6400550003C74500A207D98F2312F50083C706
:109D7400750003C76500A207D98F2313F50083C7B5
:109D8400950003C78500A207D98F2314F500014568
:109D940082800545828083C705002300F50083C7C0
:109DA4001500A300F50083C7350003C72500A207EB
:109DB400D98F2311F50082802322050003C74500B3
:109DC40089476304F7000545828083D665000D4703
:109DD400E37BD7FE9C45011106CE22CC26CA4AC895
:109DE4004EC683C4170003C60700A204D18C138691
:109DF40044006311D60403C4370083C72700AE8927
:109E040022045D8C9307C4FFC207C1832A89636F50
:109E1400F70003A589002311990023108900F15547
:109E2400EF605FE42322A900014531A02285EFF011
:109E34008FE365F10545F2406244D2444249B24998
:109E440005618280397122DC2E84834704004AD85C
:109E540006DE26DA4ED619472A89B285639AE706C2
:109E6400034624002800EFF0FFD0AA8415E9035527
:109E74008100EFF04FDFAA898345140015C937B775
:109E840001002E861307C7CD34009D454A85EF0097
:109E9400303B4E850946814511234E85EFF06FE82E
:109EA400F250625426854259D254B25921618280BB
:109EB40089472310F100835781000A862311F1009A
:109EC4008357A1002312F1004A85EF00306DC9BF0A
:109ED4004947639BE702035624002800EFF05FCF55
:109EE400AA845DFD138501DF8357C50099E381448E
:109EF40045BF03471400834604000345E5003C00C6
:109F04000146CA85152E69BF51476390E70203567F
:109F140024002800EFF09F93AA8459F1834514008C
:109F240030004A85EFF09FD1A5BF5947639FE704EE
:109F3400035624002800EFF05F97AA8435F1835577
:109F440081004A85EFF04FDA1DC558458356A100BC
:109F540083570700B697C207C1832310F700C1DBFC
:109F64005C47D1D783C721C0D9D303C5C1C08545B8
:109F7400EF706F8035B789473EC0835781000A86EA
:109F8400834514002312F10081B7834514000A8627
:109F940023100100EF00906099BF5D71A6C256DAEC
:109FA40086C6A2C4CAC04EDE52DCAA8A03C5150006
:109FB400AE8432C6EFF0CFCDB24501ED8144B64058
:109FC4002644268506499644F259625AD25A61615A
:109FD4008280230205002311050083C904008547FC
:109FE4002A84639AF90003C624002808EFF0BFB25C
:109FF400AA8405492DA09D476394F90403470500ED
:10A004008D47E31DF7FA03C6240028080549EFF03D
:10A014005FB9AA8409E50546814522854126228542
:10A02400EFF06FEC034584003C080147CE8626869A
:10A03400D6851924E30509F82285EFF08FCE41B7C0
:10A04400CD47639DF900034705009147E318F7F6F0
:10A0540003C624002808EFF09FBC59BFD547E39FEF
:10A06400F9F4034A05008947E31AFAF403C6240005
:10A0740028080549EFF05FCCAA8455F18357010203
:10A08400BDE3035781011306F0035C44930607FC08
:10A09400C206C182636CD6000356A101D94663F798
:10A0A400C6008356C101D94563EFD500035524008A
:10A0B4002391E7000549EF00904F03560102D28532
:10A0C40022854924A9BF8355E1012391E700239206
:10A0D400C7002390B7002393D70085472300F400DB
:10A0E400014A0149D9BF014AC9BF7971AA8522D45D
:10A0F40026D203542500AA84280806D6EFF0DFCB25
:10A10400F24599E535E985452285EFF0AFF175A86B
:10A11400835781011547639BE7060357A1018D47C8
:10A1240063FCE7046800EFF01FC70357E100DD4755
:10A1340063FCE7008345D100B707170085071008C3
:10A1440022853EC8EF0090458357E1000357A101E3
:10A1540091076305F7002285EFF00FEC8347C100F8
:10A1640072466C00858B1106228591CFEFF0FFE2D9
:10A1740001C52285EFF04FEA884451D59790FE1F20
:10A18400E780607349B7EFF0FFCBDDB71147638910
:10A19400E7001387A7FF42074183854663ECE60285
:10A1A4003147F117B387E702138701DFBA9703D763
:10A1B400070079D303C527003008A2850D204DFD83
:10A1C400035781019147E310F7F4B250225492549B
:10A1D400456182802C082285052E59FDFDB70111A9
:10A1E4004AC82A89314526CA06CE22CC2EC6B28454
:10A1F400EF60BFAE21C1B2459307000A2310F500FA
:10A204002311B5002A84214611058DC0A685979097
:10A21400FE1FE780A075A2854A85EF605FB6014501
:10A22400F2406244D2444249056182808145EF6034
:10A234003FC8D5B70545EDB7797126D2AA84130571
:10A24400000206D622D42ECE32CC36CA3AC83EC636
:10A25400EF60BFA821C96246F2454247D246B247E1
:10A264002A84130520FA2300A400A300C4002311A8
:10A27400B4002302E400A302D40013058400614661
:10A2840091CFBE859790FE1FE780406EA285225431
:10A29400B2502685925445616F607FAE8145EF6070
:10A2A4003FC1EDB7B2502254925445618280584563
:10A2B400797122D406D62A84AE862DCF83572700FF
:10A2C400231DF10093072006639DF50403D6E1BF27
:10A2D400835767006373F600B28713F6F70F83554D
:10A2E4002701834707018D8F93F7F70F81E58907CE
:10A2F40093F7F70FB297FD17B3C7C702231EF100F8
:10A30400835724008355640003458400231CF10013
:10A3140001473C080146EFF03FF2B2502254456138
:10A3240082800347C70183A781C01207BA9783D7E6
:10A334006700E9B72EC6194681452808EF605FB764
:10A34400B2467DBF797122D406D626D22A848DC125
:10A3540081470147930600062E8683556400034512
:10A364008400EFF07FEDB250225492544561828014
:10A37400B28428005946EF60BFB32314910089E8E2
:10A384008357240048446C002315F100EFF0AFA874
:10A394003C000147930600060146C1B7797106D611
:10A3A400814799ED8357250058452316C10023148E
:10A3B400F1003C0011C7835727002315F1003C002E
:10A3C4002E868355650003458500014793060006E4
:10A3D400EFF09FE6B25045618280411122C406C667
:10A3E4008347050011472A846395E7022E86835527
:10A3F40065000345850081470147CD46EFF0DFE363
:10A404004946835564002244B240154541016FF02A
:10A414002F9B13F7B70F89466317D7000146EFF058
:10A424007FF25146F9BF0D476398E7002244B240DA
:10A43400014641016FF09FF6B240224441018280FF
:10A4440003D70500B14671173307D702938701DF9D
:10A45400BA97D84319EBD8412395A7000145D8C32F
:10A4640003D725002394E7008280594582807971BF
:10A4740022D4404526D24AD006D6AA842E8925C0A5
:10A48400484419C59790FE1FE780E0422326040044
:10A494008357040083D5640003C584002315F100A9
:10A4A400835724000147930640062316F10083577F
:10A4B40084004A862317F1001C483EC883D7240031
:10A4C4002314F1003C00EFF03FD7A30E240123280E
:10A4D4000400B250225492540259456182802800EB
:10A4E40031468145EF60DF9C83D7240083D5640027
:10A4F40003C584002314F10001473C009306400681
:10A504004A86EFF07FD3F1B7797152CC2A8A03D50A
:10A51400050026D206D622D44AD04ECE56CAAE84E0
:10A52400EFE07FF419E18547ADA84045AA8965DCD1
:10A5340083576500E39947FF8357840063850712B7
:10A544008346C40103A781C09206FD173697C2074C
:10A5540003576700C1832314F4006316F7009305BF
:10A564003006EFF0DFD45C48A5EFC840034915007E
:10A574008347050022093369F90083D724001307B0
:10A584002900631AF702F955EF60CFEDC8C0239193
:10A59400240103C589002686D285EFF05FC4814774
:10A5A40021E1B250225492540259F249624AD24AE9
:10A5B4003E85456182809565938515C04A8597904F
:10A5C400FE1FE780E02348C8C840231C2401F95536
:10A5D400EF604FE983D72400C8C0F9172391F40032
:10A5E400484859C503D624008356A40183578401DF
:10A5F4003308D60063C007090347C40183A781C099
:10A6040095451207BA9783D7270063CF0705CC4037
:10A6140036959790FE1FE78060350357A40183D7D2
:10A624002400BA97C20703578401C183231DF40091
:10A63400E39BE7EE03D7290003C589003000231408
:10A64400E1005848D2852315F1003AC6EFF03FB92E
:10A6540011C548489790FE1FE780E025232A04008F
:10A66400232C0400C9B599454E85EFE03FF065BD44
:10A67400A545DDBF9145CDBF03D7250079CB83D652
:10A68400E1BFED4763E8E60C011122CC2E8426CA13
:10A69400AA844840914506CEEF60CFDC835724005E
:10A6A400AA862300F50083572400A183A300F500A4
:10A6B400835704002301F50083570400A183A301F9
:10A6C400F50003562400C167F917110642064182BA
:10A6D4006394F4042AC4314532C6EF600FE0AA85BE
:10A6E400CD470DC5930700F92300F5003246F9570D
:10A6F400A2462311F50089472302F5002313C50060
:10A7040014C503C5C1C0EF608FE78147F2406244BE
:10A71400D2443E850561828081452685EF30F03B39
:10A72400AA8701E903C721C075D37D172381E1C03E
:10A73400F1BF09476302E5021D476301E50249478A
:10A744006300E5027D47E313E5FC03C721C08147AD
:10A75400E1BFED473E858280D1474DBF91477DB72C
:10A7640089476DB701114AC831471309C5FF33073B
:10A77400E90226CA938401DF06CE22CCBA94D840DB
:10A7840039C7138401DF83C621C0854795CA2314C2
:10A79400A10083D7840003D5A4002C003AC6231556
:10A7A400F100EFF07FED11C5C8409790FE1FE780E0
:10A7B4008010B147B307F902A29723A20700854787
:10A7C400F2406244D24442493E8505618280814719
:10A7D400C5BF797126D244454AD083D7640003D9D2
:10A7E400E1BF52CC06D622D44ECE56CA2A8A63F38F
:10A7F40027013E8903D7240142091359090183D74C
:10A80400040141CB998F4A8463D52701139407012E
:10A81400418089452285EFF0EF8FAA89CD4A25C171
:10A8240083D724002AC6231581002314F10083D77B
:10A83400240185E383D70401930925002300F5004F
:10A8440083D70401A183A300F5006376240503D410
:10A85400040183D72401CC4422864E85BE9597906B
:10A86400FE1FE780A01003556A002C00EFF0DFE024
:10A87400AA8A15C54E859790FE1FE780C003B25083
:10A884002254568592540259F249624AD24A456189
:10A89400828089078DBF7914420441805DBF03D74C
:10A8A400240183D704003A94FD17C207420403D756
:10A8B4000401C18341802390F400239984006377C9
:10A8C400E400D5FFFD57A38EF40055BF81455285A2
:10A8D400EFF0FFB96DB779714AD052CC03CA21C1E8
:10A8E40022D456CA5AC85EC662C406D626D24ECEF2
:10A8F4005284054B930BF00F83A781BF931444003C
:10A90400BE9483C9040063996907DC44B5C7D8477A
:10A9140025C703D7070029C783C721C089CF268548
:10A92400EFF03FEBAA8505E983C711C00504635125
:10A93400F402238981C0B25022544E8592540259A4
:10A94400F249624AD24A424BB24B224C4561828060
:10A95400238901C0CDB72685EFF07FB18149E1BFDE
:10A9640083C7D701639A7701930520062685EFF004
:10A974001F94DC44A38E070083C711C0050413741D
:10A98400F40F6363F4000144E31844F7C1BF4111B9
:10A99400154506C6EFF01FDD09C50545B240410166
:10A9A40082801945EFF01FDC6DF91145EFF09FDB54
:10A9B4006DF51D45EFF01FDB6DF103C511C079DDA9
:10A9C400B24041016FF03FF183D705000D47F11705
:10A9D400C207C183636CF704DC41A9CB411122C4D3
:10A9E4002E84854526C206C6AA84A12531C12685A2
:10A9F4008D2BC167F917638FF40009ED8357240089
:10AA040091CB835604001947639AE60203D7E1BF4A
:10AA140063F6E70283C721C0594581CFA28522444A
:10AA2400B2402685924441016FF01FC509458280DA
:10AA34005145B24022449244410182806D45D5BFC4
:10AA4400397126DA4ED6AA84AE895D4589454AD83D
:10AA540006DE22DC328936C63AC4EFE0BFEB25C5F8
:10AA640022472A84014511C7B24613054400B6851E
:10AA740002979357850023003401A3002401A30106
:10AA8400F4009547231CF10083C721C02301A400CF
:10AA94001105231DA10022CE2C08268595C3EFF0B5
:10AAA400BFBDAA8411C522859790FE1FE780A0E050
:10AAB400F250625426854259D254B259216182809F
:10AAC400EFF01F98F9BFCD44E5B7797126D24AD08B
:10AAD40052CC56CA06D6BA8A22D44ECE19472E89EB
:10AAE400B284368A639AE506035526000944EFE0EA
:10AAF4009F972AC635C95C458359650083D72700CB
:10AB04002390F400B2471547238057012391E700AF
:10AB140003C7D1BF1306F00F6312C7060547A38E00
:10AB2400E1BE2382E7005147631AE90015472391E8
:10AB3400E40083D68400D8472314D70003C6470013
:10AB44005287A686CA854E85EFF09FEF2A84324548
:10AB54001DC8EFE01F9D09A842867400BE85AA891E
:10AB6400EFE03F832A8459DD2285B2502254925467
:10AB74000259F249624AD24A45618280130617009B
:10AB8400A38EC1BE79BFF945EFE05FB4F1BF83D7AF
:10AB940005002300F50083D70500A183A300F50079
:10ABA40083D725002301F50083D72500A183A301C2
:10ABB400F5001145828083D705002300F50083D773
:10ABC4000500A183A300F50083D725002301F50028
:10ABD40083D72500A183A301F50083D74500230271
:10ABE400F50083D74500A183A302F50083D7650050
:10ABF4002303F50083D76500A183A303F500214552
:10AC0400828083D705002300F50083D70500A18344
:10AC1400A300F5000945828083D705002300F500D1
:10AC240083D70500A183A300F50083D72500230162
:10AC3400F50083D72500A183A301F50083D7450040
:10AC44002302F50083D74500A183A302F50083D72F
:10AC540065002303F50083D76500A183A303F500F2
:10AC640083D785002304F50083D78500A183A3043B
:10AC7400F5002945828003D705008546AA8723006D
:10AC8400E50003D705002183A300E50003D70500F1
:10AC9400631DD70003D725002301E50003D7250052
:10ACA4002183A301E5001145828009456315A702AC
:10ACB40003D7250019452381E70003D72500218305
:10ACC400A381E70003D745002382E70003D74500AB
:10ACD4002183A382E700828083D705002300F50047
:10ACE40083D70500A183A300F50083D725002301A2
:10ACF400F50083D72500A183A301F50011458280C7
:10AD0400797126D24AD04ECEB2842A89AE89294698
:10AD14008145480022D406D63684EF606F99231605
:10AD240091008DE8835724002312F10083D7E1BFFB
:10AD34002314F1005C4499CF83C6C70103A781C0E3
:10AD4400920683D787003697035727002315F1000F
:10AD54002313E10037B701004A851307C7C1540024
:10AD640013F6F90FD545EFF0BFCD2A8911C19DE047
:10AD740085472300F400230204000146814522850F
:10AD8400EFF04FDCB25022544A8592540259F249F2
:10AD9400456182802285EFE0CFF8EDB737B7010037
:10ADA400B2861307A7C72E8685456FF07FC90111A8
:10ADB4002317A100B7B6010041657000014893074D
:10ADC400F00F0D47938626B999457D1506CEEFF011
:10ADD400DFCFF24005618280B7B60100B287014837
:10ADE4002E8611479386A6BBC9456FF01FCE37B791
:10ADF4000100B286130767C02E86CD456FF05FC48D
:10AE0400011122CC138401E326CA4AC84EC606CED9
:10AE14002A89AE89930404031C4081C7CE854A85E0
:10AE240082971104E31A94FEF2406244D2444249E8
:10AE3400B2490561828003C541CF411122C4937791
:10AE440035000981AA97138481C106C62300F40042
:10AE54008DCF1305C0033385A702A565850597909B
:10AE6400FE1FE780E0990347040023AAA1C0FD5612
:10AE74000905814763CFE700938701E3138707033D
:10AE840023A007009107E39DE7FEB240224441015D
:10AE940082802310D50023010500232505028507A0
:10AEA4001305C503C1BF03C681C103A741C18147BF
:10AEB4006315F600814636858280BA861307C70378
:10AEC400835567FCE389A5FE850793F7F70FCDB794
:10AED400011122CC2EC632C406CE2A84EFF0BFFC68
:10AEE4002246B24511E9C167F9176303F4005145DD
:10AEF400F24062440561828054558347450095C2FF
:10AF040013F7270141456314A700154575F2C18B5A
:10AF14003D45F9DF83C7A6010145E3FBB7FC314595
:10AF2400C1BFC18B0145E9F71545D9B783C581C1B7
:10AF3400C16603A741C1FD1681476395F50001462B
:10AF440032858280035827003A866306D800034876
:10AF54000700E307A8FE850793F7F70F1307C70356
:10AF6400E9BF411106C6EFF01FF411C503554501B1
:10AF7400B240410182800145E5BF83C681C103A778
:10AF840041C10145814711076393F600828003465E
:10AF9400070001C605051375F50F850793F7F70F2D
:10AFA4001307C703D5B703C581C18280938601E324
:10AFB4008147138701E331468C4291E58A07BA97AA
:10AFC40088C30145828085079106E397C7FE4D45F6
:10AFD4008280411106C622C4EFF0FFEC0DCD2A8415
:10AFE400035525008545EFF0BFE1485409C5979006
:10AFF400FE1FE780408C22851306C0038145EF5075
:10B004003FEBFD572311F400230204000145B24035
:10B014002244410182800945DDBF411106C6EFF09B
:10B024009FE811C50345C500B24041018280014536
:10B03400E5BFC167F9176304F502411122C406C6CE
:10B044002E84EFF05FE6AA87014591C703C5470048
:10B05400698C33358000B240224441018280054529
:10B064008280011106CE2EC6EFF0FFE3854711C999
:10B0740003574501B24585476305B700231AB50058
:10B084008147F2403E850561828021C901114AC889
:10B09400416922CC26CA4EC652C456C206CE0144C9
:10B0A400AA84930AC0037D1983C781C1634BF4004A
:10B0B400F2406244D2444249B249224A924A05616A
:10B0C40082803305540383A741C13E9583572500ED
:10B0D4006383270182940504C1BF828003C681C1B2
:10B0E40083A741C1C166014589070147FD16914502
:10B0F4006313E600828003D807006309D80003C8FD
:10B10400A7006315B80005051375F50F0507137738
:10B11400F70F9387C703E9BF03C681C183A641C163
:10B124000147814791066310E602858393C7F7FFC1
:10B13400C207C18305456364E50285473395A700CB
:10B1440042054181828083C5060081C583D5C6023C
:10B15400CD8F05071377F70F9386C603E9B793F6E8
:10B164001700E1FE050585831375F50FE9B77971BD
:10B1740056CAAA8A2E8526D24AD04ECE52CC5AC856
:10B184005EC662C406D622D4AE84328B368CBA8BA9
:10B194003E8AC2894689EFF01FD149E141657D1598
:10B1A400EFF07FD02A84554531CC1946DE8513054E
:10B1B4006400A30284019780FE1FE780207B8357ED
:10B1C400010323119400230264012319F40083571B
:10B1D40041032300540123260402231AF400230606
:10B1E40044012317340123182401EFF0FFF223183C
:10B1F400A402232A04022685232C04028145EFF0AD
:10B204003FC00145B250225492540259F249624A55
:10B21400D24A424BB24B224C456182804545DDB750
:10B2240083C681C103A741C181476395F600416587
:10B234007D1582803A861307C703835547FF6395BC
:10B24400A500035526008280850793F7F70FF1BF09
:10B2540003C881C1416603A741C17D168147854862
:10B264002D43314E6314F800014582808356270034
:10B274003A856382C602545B99CE83C50600639700
:10B28400150183C616006378DE00828089E583C6D3
:10B294001600E37CD3FC850793F7F70F1307C70366
:10B2A400D1B783C581C1416603A741C17D168147DA
:10B2B40025486394F50001458280835627003A852A
:10B2C400638BC600545B81CA83C61600E51693F6E9
:10B2D400F60FE373D8FE850793F7F70F1307C70339
:10B2E400C9BF894791C909C995472380F500834798
:10B2F4000500A380F50081473E85828039714ED6D2
:10B3040052D4AE892A8A93053005414526DA4AD8B3
:10B3140056D206DE22DC32C63689BA8A9780FE1FF0
:10B32400E780004ECD4421C92A84894463800904FE
:10B3340032468145231AC1004146EF507FB75686F5
:10B34400CE8522859780FE1FE78040622146630EEA
:10B354000902CA8528089780FE1FE7802061A2861B
:10B3640050082C085285EF205074AA8422859780B7
:10B37400FE1FE7804054F250625426854259D2544D
:10B38400B259225A925A2161828081452808EF508D
:10B394003FB2F1B789478DC505C5411106C6AE87D1
:10B3A4001947AA852380E700138517004146978033
:10B3B400FE1FE780A05BB24081473E854101828049
:10B3C4003E858280894795C90DC9411106C6254726
:10B3D4002380E50003470500AE871946A380E500F6
:10B3E40093051500138527009780FE1FE7800058FA
:10B3F400B24081473E85410182803E8582808947F3
:10B404008DC505C5411106C6AE872147AA8523808F
:10B41400E7001385170041469780FE1FE78000551B
:10B42400B24081473E85410182803E8582808947C2
:10B434009DCD15CD411106C61D472380E500035758
:10B444000500AE872146A380E5000357050021834C
:10B454002381E50093052500138537009780FE1F9F
:10B46400E780C050B24081473E85410182803E85DD
:10B47400828089478DC505C5411106C6AE870D4733
:10B48400AA852380E7001385170041469780FE1F95
:10B49400E780C04DB24081473E85410182803E85B0
:10B4A400828089478DC505C5411106C6AE871147FF
:10B4B400AA852380E7001385170041469780FE1F65
:10B4C400E780C04AB24081473E85410182803E8583
:10B4D400828089478DC505C5411106C6AE872947B7
:10B4E400AA852380E7001385170041469780FE1F35
:10B4F400E780C047B24081473E85410182803E8556
:10B50400828023AE01C023A001C223A201C237D787
:10B5140001009387C1AB1307C7A598C337C70100C0
:10B5240013074798D8C337B701001307073098C7E4
:10B5340037D70100938781AC1307A71998C337C77E
:10B544000100130767B4D8C337C701001307873254
:10B5540098C78280C14709CD144DC14791CA784D1F
:10B5640001CB83C73600BD4663F4F60083478701E9
:10B574003E858280411122C426C29384C1C14AC03F
:10B584002A89884006C649C51384C1C1631E0900BF
:10B59400834705002146B1CB29059780FE1FE7802C
:10B5A400E03C1C400545B9CF4945EF500FF3AA8450
:10B5B4000DC5930710FC2300F500A30025010C40E2
:10B5C4000905414689059780FE1FE780203A1C4003
:10B5D400A68503C51700EF508FFA08409780FE1F19
:10B5E400E780602D2320040029A809059780FE1F09
:10B5F400E780C037EF20304B054945F59C40238058
:10B6040027010545B2402244924402494101828007
:10B614000145CDBF1C4D639F0716411122C426C2AC
:10B624002A84AE8441459305300506C69780FE1FE3
:10B63400E780001D08CCCD4763040510A68541466C
:10B644009780FE1FE780803283450400F9ED7C4C2F
:10B65400184CD04B5443058A858A6307D60083D699
:10B664004701F99A239AD700D04B54430582858227
:10B67400058A858A6307D60083D64701F59A239AFB
:10B68400D700D04B544309828982058A858A63078F
:10B69400D60083D64701ED9A239AD700D04B544362
:10B6A4000D828D82058A858A6307D60083D6470179
:10B6B400DD9A239AD700D04B54432182A182058A74
:10B6C400858A6308D60083D6470193F6F6EF239A5A
:10B6D400D700D04B54432582A582058A858A630806
:10B6E400D60083D6470193F6F6DF239AD700D04BD2
:10B6F40054432982A982058A858A6308D60083D6A1
:10B70400470193F6F6BF239AD700D44B5843AD8232
:10B714002D83858A058B638AE60003D74701FD766E
:10B724009386F67F758F239AE70003C714007C4C39
:10B7340011CF03C7170019CB9547A301F400814724
:10B74400B240224492443E854101828003C72400D2
:10B75400118B19E703C72701118B19E38547F1BF43
:10B7640003C7070083C6040081C5B687BA863E872F
:10B774001146E147E366E6FCE364D6FC95473307EC
:10B78400F702B7D7020093874720BA97B69783C7C3
:10B79400070065B7C5473E858280AE8715C5784DDD
:10B7A40005C7834607002380D50083461700A3807E
:10B7B400D500834627012381D50083468701584B52
:10B7C400A381D500D8C18280414681453E856F5012
:10B7D4002FEE83A701C291C703A38700630303006D
:10B7E400028309458280011122CC2A84494506CE70
:10B7F400EF70BFD805C12AC62285EFF0CFEA19C978
:10B804006244324683550503F24003C5E1C2056133
:10B814006F501FAAF240624405618280797126D27A
:10B824009947231DB100AA842E858D4522D406D6BE
:10B8340032C636C4231CF100EFE0CF8D2ACE4D442E
:10B844001DC13246A246AA85328582962A8419E50C
:10B854002C082685EFF04F972A8411C572459780EE
:10B86400FE1FE78040052685EFF0FFF72285B250E2
:10B874002254925445618280011122CC9305C50162
:10B884002A8441460A8506CE9780FE1FE780000E73
:10B8940003554400B7B601000A8693866647C5453A
:10B8A400EFF0DFF7F240624405618280011122CC9F
:10B8B4009305C5022A8441460A8506CE9780FE1F59
:10B8C400E780C00A03554400B7B601000A86938690
:10B8D400664AC545EFF09FF4F240624405618280F8
:10B8E400B7B601002E8693868639C5456FF01FF3DF
:10B8F4000111B28722CC2300B1002A84BE8513052E
:10B904001100194606CE9780FE1FE7802006B7B6C1
:10B9140001000A8622859386863CA145EFF01FF03C
:10B92400F240624405618280B7B601002E86938698
:10B934002640C5456FF09FEE0111B28722CC23103B
:10B94400B1002A84BE8513052100214606CE9780C6
:10B95400FE1FE780A001B7B601000A862285938600
:10B964002643AD45EFF09FEBF240624405618280CF
:10B97400B7B601002E869386664DC5456FF01FEA63
:10B98400011106CE22CC26CA834405008547639B59
:10B99400F4048347150019472A84639AE7041C4D6D
:10B9A40083D7470013F7071019C7784D035747018A
:10B9B4001377071021E313F7072001CB784C0357C3
:10B9C4004701137707206315071093F7074081CBCE
:10B9D4007C4C83D7470193F70740639C0714C947FE
:10B9E400A300F400F2406244D244056182803147EE
:10B9F4006392E70A3C5091EF9305300571459780B7
:10BA0400FE1FE780E0DF28D009C571468145EF506D
:10BA14002FCA2450A9C883C7A40191E72285EFF057
:10BA24007FB3238DA400814526854146EF504FC83E
:10BA340028503D478345A5019387F5FF93F7F70FFA
:10BA44006364F700EF706F8BEF506FC23C50A145F9
:10BA54002398A70013852701EF702F8A2C500355D4
:10BA64004400EFF0FFE7B54703554400A300F4009A
:10BA7400EFF06FC3414611C58357E50013D6170095
:10BA84003E966244F240D24403C5E1C28545056155
:10BA94006F501F823547639AE7023C5189CB83D5A7
:10BAA40007010355450013862701EFF0FFE81C4CFE
:10BAB40083D7470013F7072039CB784C0357470146
:10BAC4001377072029C7B94745B73947639BE70070
:10BAD400EF702FB0AA8503554400EFF0FFE4BD4793
:10BAE40061B73D476394E704EF704FAEAA85630DD9
:10BAF4009502814526852EC6EF708FAB2A86B24506
:10BB040003554400EFF0DFDE1C4C83D7470093F766
:10BB14000740E38607EC7C4C83D7470193F7074043
:10BB2400E38F07EAC14789B78144E9B74147E398FE
:10BB3400E7EAEF706FAAAA8503554400EFF05FE3CC
:10BB440079BD797106D622D426D283440500A5E4B2
:10BB54008347150019472A846394E7067C4D83D7ED
:10BB6400470113F7170011C7184D03574700058BFA
:10BB740039EB13F7270019C7184C03574700098BF3
:10BB8400631B0712918B99C71C4C83D74700918B79
:10BB9400639207187C4C83D7470113F7071063039C
:10BBA4000718184C0357470013770710630C071640
:10BBB400B147A300F400B2502254925445618280EC
:10BBC4001D47639DE70A3C5089EB93053005714599
:10BBD4009780FE1FE780C0C228D02450ADC82285BC
:10BBE400EFF05F97238DA400814526854146EF50F1
:10BBF4002FAC28503D478345A5019387F5FF93F764
:10BC0400F70F6367F70283C781C8B5C7414681450B
:10BC14000808EF50EFA91946938501D808089780C2
:10BC2400FE1FE780A0D430500C082E85EFA0C02F53
:10BC3400EF50EFA33C50A1452398A700138527019B
:10BC4400EF60BFEB2C5003554400EFF07FC9A147D0
:10BC540003554400A300F400EFF0EFA4414611C5DE
:10BC64008357E50013D617003E9603C5E1C2854508
:10BC7400EF500FE489B7EF605FE85DBF2147639938
:10BC8400E7023C5189CB83D5070103554500138650
:10BC94002701EFF07FCA7C4C83D7470113F72700B5
:10BCA40021CF184C03574700098B39C7A5474DB717
:10BCB4002547639BE700EF70CF91AA8503554400A5
:10BCC400EFF09FC6A94769B729476392E704EF706D
:10BCD400EF8F8547AA856304F50081458544268551
:10BCE4002EC6EF70EF8C2A86B24503554400EFF060
:10BCF4003FC07C4C83D74701918BE38D07E81C4CF4
:10BD040083D74700918BE38707E8AD4791B72D4769
:10BD1400E392E7E8EF704F8CAA8503554400EFF0F7
:10BD24003FC58DBD13F7072009CB184C03574700B7
:10BD34001377072019C3B947ADBD93F7074089CBE3
:10BD44001C4C83D7470093F7074099C3C14795B567
:10BD5400C94785B515CD01118A8522CC06CE2A8422
:10BD6400EFF0BFA3834704000355440089CFB7D63F
:10BD74000100938646860A869D45EFF03FAAF2406D
:10BD8400624405618280B7D601009386E686E5B7F2
:10BD940005458280AA8503C5E1C26F500FE74111B2
:10BDA40022C4405926C206C6AA8431C4084C09C517
:10BDB4009780FE1FE78020B0285009C59780FE1F9A
:10BDC400E78060AF685009C59780FE1FE780A0AE8A
:10BDD400285409C59780FE1FE780E0AD685409C563
:10BDE4009780FE1FE78020AD22859780FE1FE780A5
:10BDF40080AC23AA0402224403D50403B240924433
:10BE040041016FF03FF9411126C206C622C4AE8437
:10BE1400EFF06F8931C14C592A849DCD83A8C506A2
:10BE240003A88506FC51B85183C6650003D64500B6
:10BE340083C505002685EF70AFFB2285EFF03FF642
:10BE4400EFF02FC611C92244B240924403C5E1C2A7
:10BE5400854541016F502F92B240224492444101E2
:10BE64008280411122C4405926C206C67C4CAA8451
:10BE740083D7470113F7071019C7184C0357470016
:10BE8400137707101DE313F7072019C7184C03573E
:10BE940047001377072011EB93F707409DCB1C4C09
:10BEA40083D7470093F707408DC79947A300F40051
:10BEB4002285EFF0FFAC03471400C947631FF70066
:10BEC400224403D52400B2409244814541016FF0DD
:10BED4009FF3C947A300F400E5B7B240224492445B
:10BEE40041018280411106C622C426C2EFF04FB63A
:10BEF4001DCD4059AA8405CC8347040095C783A768
:10BF040001C289C7DC4399C3228582970347140081
:10BF1400C947631EF700224403D52400B24092446B
:10BF2400814541016FF03FEE83A741C2D9BFB240C2
:10BF34002244924441018280411126C24AC006C66D
:10BF440022C4AA842E89EFE01FF60DCD405955C0B6
:10BF540083574400639F97088347140019476391EC
:10BF6400E70883470400B5CB7C4C83D7470113F71C
:10BF7400170005C3184C03574700058B19CB9D4781
:10BF8400A300F400B2402244924402490545410111
:10BF9400828013F7270001CB184C03574700098B05
:10BFA40019C3A547F1BF918B81CB1C4C83D74700A4
:10BFB400918B99C3AD47E9B783A701C2E1D7DC43AD
:10BFC400F1D32285829703471400C9478145E31BB7
:10BFD400F7FA2685EFF03FE375B783A741C2F9BFAF
:10BFE40045476398E7006304090013092003CA85E1
:10BFF400CDB7631C09002685EFE0FFEA19C5834726
:10C00400450093E707012302F500A6854A85EF6002
:10C01400BFFF8DBF4111B7B6010022C42E862E8406
:10C024009386662E894506C626C24AC02A89EFF041
:10C03400EFFE83450400AA844A85EFF0DFDCB240BA
:10C0440022442685024992444101828083A741C249
:10C0540095CB9C4385CB797122D406D698411008A0
:10C064002A843AC8D84185453ACA829701C9230629
:10C07400A100035524006C00EFF0DFF9B250225404
:10C08400456182808280011122CC06CE2A842EC68C
:10C09400EFE07FE15C5991CF83D74700B245639AC3
:10C0A400870085476397F5006244F24005616FF0AD
:10C0B4001FCFF240624405618280411106C6EFF051
:10C0C4002F96C167FD176307F500B240DD454101B6
:10C0D4006FF07FD3B240410182802300B50082809B
:10C0E40001114AC84EC62E89AA8993053005130545
:10C0F400000326CA06CE22CCB2849770FE1FE780C6
:10C10400207021CD1306000381452A84EF405FDAB5
:10C114004146CE852285EF401FE20D46CA851305B0
:10C12400D401EF405FE11306040293050401228564
:10C13400EF90905F0D469305D4022685EF40BFDF54
:10C1440022859770FE1FE78000770145F240624424
:10C15400D2444249B249056182804D45C5BF8147F9
:10C164004146B306F5003387F5000347070003C8CB
:10C1740006008507334707012380E600E393C7FEE3
:10C1840082805D714EDE62D4AE892A8C93053005BF
:10C1940013050003A6C2CAC052DC56DA5AD85ED6CA
:10C1A40086C6A2C4B28B368BBA84BE8A4289468ABA
:10C1B4009770FE1FE780C0646301050E1306000339
:10C1C40081452A84EF40DFCE4146E2852285EF4057
:10C1D4009FD6414681450A85EF409FCD1D46DE85A9
:10C1E4000A85EF405FD51D46DA8513057100EF40DF
:10C1F4009FD433392001B334900041468145080867
:10C2040023072101A3079100EF409FCA1946D68551
:10C214004808EF405FD21946D2851305A101EF40CB
:10C224009FD1930404014146CE852685EF40BFD0BB
:10C234008A852685EFF0BFF2930904024E86A6850F
:10C244002285EF90704E2A891DE54146CE852685CC
:10C254009770FE1FE78080710C082685EFF03FF091
:10C264004E86A6852285EF90304C2A894645414664
:10C27400CE85EF405FCC22859770FE1FE780A063D8
:10C28400B64026444A8596440649F259625AD25A1F
:10C29400425BB25B225C616182804D49D5B701117A
:10C2A40026CA52C4AA842E8A1305000393053005B6
:10C2B4004AC84EC606CE22CC3289B6899770FE1F74
:10C2C400E780005431CD2A84A6854146EF40BFC69D
:10C2D400930404012146D2852685EF40DFC5CA8533
:10C2E400214613058401EF401FC513090402A685E6
:10C2F4004A862285EF905043AA844146CA854E85DA
:10C30400EF407FC322859770FE1FE780C05AF2403A
:10C31400624426854249D244B249224A0561828058
:10C32400CD44F5B75D71A2C4A6C24EDE52DC86C60A
:10C33400CAC0AE89328AAA84EFE0FFB640594146AA
:10C3440081450A85EF40DFB659C0035944006310A4
:10C35400990883470400A5EF034714009947631C19
:10C36400F70214081306C4049305C40213057400E9
:10C37400EFF0FFF229ED2285EFF0CF9D2A860C081D
:10C384000A859770FE1FE780605E8A854A85EF10F4
:10C39400D072054569A82C509DC9C54683D70501AF
:10C3A400631FD7086310FA022146C9054E85EF4082
:10C3B4005FB685476318F5002285EFF0AF992A86AA
:10C3C4002C507DBF930520032685EFF0DFA326853F
:10C3D400EFE07FAD2A8449C54C55D9C183D7050107
:10C3E400639047092146C9054E85EF409FB28547B2
:10C3F4002A896317F5064C540A8503C6A50197706C
:10C40400FE1FE780A05683C7D1B291C75C5483C78F
:10C41400B70163942705BD452685EF10506283A7B5
:10C4240081D0014589C71D45894582970145B6409C
:10C43400264496440649F259625A61618280E3189F
:10C44400FAF82146C9054E85EF40BFAC8547E31095
:10C45400F5F82C5003C6A50125B78A85268505BFA6
:10C4640003C7B1C78947138481CD631DF700BD4558
:10C474002685EF10D05C1C589145E38C07F01D45D0
:10C48400829701BF83C781C89DCB4146814508106F
:10C49400EF401FA21946938501D808109770FE1F1C
:10C4A400E780C04C0C100A862E85EF90F0278A8511
:10C4B4002685EF1090601C588D45F1F3D9BD268573
:10C4C400EF10F05F1C58E38607EC85454DBF8147AC
:10C4D400C1463307F500B388F5000347070083C856
:10C4E40008003308F6008507334717012300E800E6
:10C4F400E391D7FE82800147BD471308F00F33064E
:10C50400F50083460600B388F500FD178606558FAF
:10C514002380E8000347060093F7F70F1D83E39099
:10C5240007FF82808147930800F8414893F6F70F8C
:10C534003387F50063FCC600B306F50083C6060026
:10C544002300D7008507E39307FF82806395C60025
:10C5540023001701C5BF23000700EDB701114AC826
:10C5640056C22E89AA8A93053005414506CE22CCAF
:10C5740026CA4EC652C4328A9770FE1FE7804028EE
:10C58400AA849305300541459770FE1FE780402734
:10C594002A84CD49B5C021CD41468145EF405F9104
:10C5A4002686A2855685EF903018AA8929E18387CB
:10C5B400040063D30706A2852685EFF0DFF3B7D521
:10C5C40002004A86938505222285EFF05FF08307F7
:10C5D400090063D80704A2854A85EFF0DFF1B7D5D7
:10C5E40002005286938505222285EFF05FEE2685B0
:10C5F4009770FE1FE780202C11C422859770FE1FC0
:10C60400E780602BF24062444E85D2444249B249ED
:10C61400224A924A05618280CA852685EFF0BFEDE1
:10C624007DB7D2854A85EFF01FEDD1B739715AD065
:10C634005ECE2A8BAE8B41459305300506DE26DAA5
:10C6440052D456D262CC66CA6AC8368C328DBA8C41
:10C6540022DC4AD84ED69770FE1FE780601AAA8A59
:10C664009305300541459770FE1FE78060192A8ABB
:10C67400CD44638C0A0849C52A86D6855A85EFF0CD
:10C68400FFEDAA8435ED9305300541459770FE1FF3
:10C69400E78000172A899305300541459770FE1FEE
:10C6A400E7800016AA896308090E6304050E1304C3
:10C6B400FD0011841376FD003DCC7D1442044180BD
:10C6C40025EE131544004E86D6855E95EFF03FE0C7
:10C6D400414681454A85EF40AFFD014D93170D0159
:10C6E400C18363F48708BDC04A859770FE1FE78045
:10C6F400801C638709004E859770FE1FE780A01B8E
:10C7040056859770FE1FE780001B63070A00528559
:10C714009770FE1FE780201AF25062542685425912
:10C72400D254B259225A925A025BF24B624CD24C06
:10C73400424D216182800144131544008A855E952F
:10C74400EFF05FDE4E86D2850A8549B793154D001A
:10C754000A86DE954A85EFF09FD74A868A855A85F0
:10C76400EF90807CAA84050D95BFBDFC0A86CE851A
:10C774004A85EFF0DFD54A868A855A85EF90C07ADC
:10C78400AA846686CA8562859770FE1FE780001EAC
:10C79400A1BFCD4491BFCD44A9BF894761C2DDCDBE
:10C7A4002300A60083C70500A300F60083C7150075
:10C7B4002301F60083C72500A301F60083C73500D3
:10C7C400A30206002302F60083D74500A183858BCC
:10C7D400A302F60003D745001377072009C793E7A0
:10C7E4002700A302F60083D7450093F7074099C7B3
:10C7F4008347560093E74700A302F60083D745001A
:10C8040013974701635807008347560093E787004F
:10C81400A302F6002303060083C74500858B230388
:10C82400F60003D74500098B09C793E727002303C4
:10C83400F60083D74500918B99C78347660093E739
:10C8440047002303F60003D745008147218B19C70E
:10C8540003476600136787002303E6003E85828052
:10C864002E86AA8505456FF05FF32E86AA850945B5
:10C874006FF0BFF24DC95971A2D42A840355450003
:10C88400A6D2CAD0CECED6CA86D6D2CCDAC8DEC616
:10C89400B68AB2892E89EFE00FE1AA8439C50C1853
:10C8A4002285EFE09FEF83470400138A6400A9CB3D
:10C8B400EF60CFD12A8B014583CB5400EF604FCF7B
:10C8C400AA840C100818EFF0BFF9084C2C10EFF0F4
:10C8D400DFF9D288268A56C05E88D2875A87141018
:10C8E4003010CE854A85EFF0DF89B6502654965431
:10C8F4000659F649664AD64A464BB64B656182806C
:10C90400EF60CFCCAA8B014503CB5400EF604FCA34
:10C914002ACE084C0C10EFF0BFF42C100818EFF0DE
:10C92400DFF4F2484DBF8280894791C909C9AD47F8
:10C934002380F50083470500A380F50081473E85E9
:10C944008280011122CC4AC806CE26CA2A84EFE08E
:10C954007FCC2A8901CDE147630EF50E2149F240CF
:10C9640062444A85D2444249056182807C4C83C733
:10C974002701858B91CF1C4C054783C727008D8BDE
:10C984006398E7008347640093E717002303F400E8
:10C994008344340089476391F40203554400854578
:10C9A400EF609FDD8347640093E747002303F400AF
:10C9B4008D47A300F40065B70D476390E402035567
:10C9C40044008945EF605FDB83476400A300940063
:10C9D40093E747002303F40059B71147E38FE4FAC0
:10C9E4000547639EE40293047400A300F4004146E7
:10C9F40081452685EF40CFCB1306C4023285C1455D
:10CA040032C6EF608F8F324622859306C401A68515
:10CA1400EFF05FE62285EFE03FE631D181B71547BD
:10CA2400E39FE4F293047400A300F40041468145BB
:10CA34002685EF40EFC76C4C4146268589059770E3
:10CA4400FE1FE780A0F28347640093E747002303B7
:10CA5400F4005DB70D4921B7397122DC405926DA5B
:10CA64004AD84ED606DEAA89AE84328963060420EB
:10CA74000355250083574400638BA700A144F2505B
:10CA8400625426854259D254B25921618280834727
:10CA9400040099E39D44E5B7AD47E3EDB7FE938702
:10CAA400E5FF93F7F70F2547E366F7FE37D7020054
:10CAB4008A0713078718BA979C438287B285228511
:10CAC400EFF03FE8AA8465BF4146CA851305C40355
:10CAD4009770FE1FE78080E92285EFE03FDDAA849E
:10CAE40011C1A1449547A300F40051BF9309C404A4
:10CAF400CA8541464E859770FE1FE78020E71309DB
:10CB0400740014084E86CA852285EFF0BFD64146CC
:10CB14009305C4030808EF40CFBF8547E311F5F63A
:10CB24008A861306C402CE854A85EFF04FF711EDCD
:10CB34002285EFE03FA22A8703554400814601463F
:10CB44008A85EFE0AFFBAA8411C1A144994761BF74
:10CB5400034714009D47E31FF7F27C5089EB9305CC
:10CB6400300571459770FE1FE78080C968D0685012
:10CB740015D14146CA859770FE1FE78020DF2285C4
:10CB8400EFE05F9D7C50238DA700A147A300F40034
:10CB94008144F5B56850E30F05EE03471400A1473F
:10CBA400E31AF7EE8357060093052900214623185C
:10CBB400F50049059770FE1FE78040DB7C4C83D766
:10CBC400470113F727002DC3184C03574700098B5F
:10CBD40021CFA54765BF03471400A547E31CF7EA27
:10CBE4003C5481EB854559459770FE1FE78040C151
:10CBF40028D4285419C54146CA859770FE1FE7807A
:10CC0400E0D6A94761B703471400A947E314F7E83E
:10CC1400285419469305190041059770FE1FE780B3
:10CC2400E0D47C4C83D74701918B95CF1C4C83D7A0
:10CC34004700918B8DCBAD4791BF7C5489EB930515
:10CC4400300551459770FE1FE78080BB68D4685457
:10CC5400E30605E24146CA859770FE1FE78000D1CE
:10CC64007C547D5798CB4E85EFF0AF9F15B7834525
:10CC74000600EFF04F9929BFAD47E39BF5F08346DB
:10CC84000600835525001306650003450500EF6083
:10CC94004FC7FDBD15C1AA8709458DC141112E8518
:10CCA40041469385170006C69770FE1FE78000CCA7
:10CCB400B2400145410182800945828082808947D2
:10CCC4001DC595C5411106C603471500AE87194613
:10CCD4002380E50093052500138517009770FE1F38
:10CCE400E780C0C8B24081473E85410182803E85CD
:10CCF400828015C1AA8709458DC141112E854146FF
:10CD04009385170006C69770FE1FE78020C6B240C1
:10CD140001454101828009458280828089471DC97D
:10CD240095C9411106C60347250083461500AE8701
:10CD34002207558F2390E50021469305350013857E
:10CD440027009770FE1FE78060C2B24081473E858E
:10CD5400410182803E85828015C1AA8709458DC123
:10CD640041112E8541469385170006C69770FE1F14
:10CD7400E780C0BFB24001454101828009458280FD
:10CD84008280094711CD89CD83471500A14601470B
:10CD94002380F500FD1793F7F70F63F3F60061475F
:10CDA4003A85828015C1AA8709458DC141112E8516
:10CDB40041469385170006C69770FE1FE78000BBA7
:10CDC400B2400145410182800945828082808947C1
:10CDD4006309051063870510411106C622C426C2E3
:10CDE400834715002E842380F50083472500A38004
:10CDF400F500834735002381F50083474500A3816F
:10CE0400F50083475500858B9396870083D74500AB
:10CE140093F7F7EFD58F2392F5008346550093F7E8
:10CE2400F7DFA20693F60620DD8E2392D500034792
:10CE3400550093F6F6BF220713770740558F2392C8
:10CE4400E50083475500FD769386F67F8D83858BB9
:10CE5400758FAE07D98F2392F50083466500F99B41
:10CE6400858ADD8E2392D5000347650093772700DA
:10CE740013F7D6FF5D8F2392E5008347650093F691
:10CE840047009377B7FFD58F2392F50003476500DA
:10CE9400DD9B4D45218BD98F2392F500EF60EFED9B
:10CEA400AA845145EF606FED0347340093F4F40F07
:10CEB4001375F50FC94763609702636EE5008346F7
:10CEC40004001147E1476368D7008346140005470F
:10CED4006363D7008147B240224492443E854101B6
:10CEE40082803E85828015C1AA8709458DC1411182
:10CEF4002E8541469385170006C69770FE1FE7806E
:10CF0400E0A6B240014541018280094582808280C9
:10CF1400797122D42A84084506D626D22306010034
:10CF24008344050029479387F4FF93F7F70F636061
:10CF3400F70C37D702008A071307071BBA979C43DD
:10CF440082870C08EFF0BFE8C9476312F5029947DE
:10CF54002306F100035524006C00EFF0AF8BB250B0
:10CF640022549254456182800C08EFF0FFDE29C9F7
:10CF74008347C100E5F303552400EFE0DF86C5B71E
:10CF84000C08EFF03FE2E5B70C08EFF09FDFC5B700
:10CF94000C08EFF03FD0E1BF0C08EFF03FD8C1BF61
:10CFA4000C08EFF01FD5E1B70C08EFF05FD1C1B763
:10CFB4000C08EFF05FF365BF834715002308F10009
:10CFC40003552400EFD03FEEA14719CD0347C50018
:10CFD4006311F70203A701C29D4719C7184309C784
:10CFE4001008A6850297AA872306F10051B79D472A
:10CFF40085B703A741C2CDB7411122C406C6034772
:10D004000500930720092A84631CF7088347150049
:10D0140039476393E70283564500096761078147EF
:10D02400639DE6021C452244B24003C50700938574
:10D03400170041016FE00FD41307E0036390E70882
:10D044000347250095476310F70403554500EFD0C7
:10D05400DFFC91476308F5008547B24022443E85D2
:10D064004101828083A741C2E5DB03A38700E30576
:10D0740003FE0356E4000355440093056400224470
:10D08400B24041010283A1468147E318D7FC224400
:10D0940083456500B2400355450041016FE0DFE977
:10D0A4009306000A8147E31AD7FAEFF07FE60844B3
:10D0B40045D59770FE1FE780008079BF814771BF17
:10D0C400411122C426C206C62A84EFE0AFD4AA8442
:10D0D40019C9E147630FF50AA144B24022442685E9
:10D0E4009244410182802285EFE0DFC66C4C83C705
:10D0F4002501858B91CF1C4C054783C727008D8B59
:10D104006398E7008347640093E717002303F40060
:10D114008347340009476391E70289450355440076
:10D12400EF608FE58347640093E747002303F4002F
:10D134009147A300F40055B79386D7FF93F6F60FF3
:10D1440005466364D6008545D1BF6390C702A3003A
:10D15400E4004146814513057400EF307FD5C14595
:10D164001305C402EF507F998DBF9546E397D7F618
:10D17400A300E40041468905130574009760FE1F6F
:10D18400E780C07E8347640093E747002303F400ED
:10D19400F9B78D4499B7797122D4405926D24AD02F
:10D1A4004ECE06D6AA89AE8432896308042003557C
:10D1B400250083574400638BA700A144B250225436
:10D1C400268502599254F24945618280034704003E
:10D1D40085476314F7009D44D5B79387F5FF93F70C
:10D1E400F70F2547E369F7FE37D702008A071307CD
:10D1F400C71DBA979C438287B2852285EFF05FEC06
:10D20400AA846DBF4146CA851305C4039760FE1FF7
:10D21400E780C0750347140091476305F70293063E
:10D22400C4011306C402930574002285EFF08FE451
:10D234002285EFE06FE4AA8411C1A1449547A300BD
:10D24400F400ADBF8D47A300F400814485BF93076C
:10D25400C4043E85CA8541463E899760FE1FE78027
:10D26400E0708A864A86930574002285EFF08FE089
:10D2740041469305C4030A85EF30BFC98547E31FC0
:10D28400F5F22285EFE08FE2AA8405F9994745BFBC
:10D2940003471400B147E310F7F47C5089EB93057E
:10D2A400300571459760FE1FE780805568D068504F
:10D2B4001DD14146CA859760FE1FE780206B2285F9
:10D2C400EFE04FA97C50238DA700B547ADBF685050
:10D2D400E30305F003471400B547E31EF7EE835755
:10D2E40006009305290021462318F5004905976097
:10D2F400FE1FE780A0677C4C83D7470113F7072004
:10D304003DC3184C035747001377072029CFB9476B
:10D314001DBF03471400B947E31FF7EA3C5489EBE8
:10D324009305300559459760FE1FE780604D28D46A
:10D33400285419C54146CA859760FE1FE7800063DB
:10D34400BD4711B703471400BD47E316F7E8285457
:10D3540019469305190041059760FE1FE780006197
:10D364007C4C83D7470193F707409DCF1C4C83D750
:10D37400470093F707408DCBC147F1B57C5489EB47
:10D384009305300551459760FE1FE780604768D4D8
:10D394006854E30405E24146CA859760FE1FE780AE
:10D3A400E05C7C547D5798CB03D529008145EFE0A0
:10D3B4009FA561BD83450600DDBF8547E397F5E87A
:10D3C4000328460083473600034726008346160099
:10D3D40083552500034606000145EF50BFC9B5B586
:10D3E400011126CA06CE22CC89441DCD95CDAA842E
:10D3F4002E8468008D45EF504FF08347E100268569
:10D40400228693F7F70393E707046C002307F100E0
:10D41400EFE01FCDAA8409E90D466C001305340022
:10D424009760FE1FE7808054F24062442685D24410
:10D43400056182805D714EDE86C6A2C4A6C2CAC0E2
:10D4440052DC56DA5AD85ED6894955C54DC6138B77
:10D454004500420B135B0B01AE8A2A8A9305300503
:10D464005A85B2849760FE1FE78080392A84CD49AB
:10D4740059C1EF50DF962A895686D285935A89007E
:10D48400135A0901937BF90F1305440093FAFA0F19
:10D49400137AFA0F13598901EF30FFA9A30174011C
:10D4A40023015401A300440123002401EF50DF921F
:10D4B400AA8541460808EF301FA8214734005A8640
:10D4C400A2850808EFF08F96AA890DE121462C0069
:10D4D40023807401A380540123814401A381240186
:10D4E40013854400EF303FA5EF50FF8F22859760EE
:10D4F400FE1FE780403CB64026444E8596440649CC
:10D50400F259625AD25A425BB25B61618280011164
:10D5140006CE2AC6EFD0FFFE324599452387A1C225
:10D52400EFC08FBBF24037C501001305A5080561A4
:10D534006FD0DFA783C7F1C2A18B99C39387C1AB17
:10D5440023A0F1C201458280797152CC2A8A2E85AA
:10D5540006D622D426D24AD04ECE2EC6EFD0BF94C1
:10D5640045C5405945C4834734008949F91793F7A1
:10D57400F70F63EDF90883574400B2458944639477
:10D58400B706130974004146D2854A859760FE1F89
:10D59400E780C03D1306C4023285C14532C6EF5050
:10D5A400CFD532469306C401CA852285EFF08FACED
:10D5B40003470400834714000DC30D47814463945B
:10D5C400E702A300340122852254B2509254025936
:10D5D400F249624A45616FE02FAA1147639EE70052
:10D5E400A30094008144B2502254268502599254D7
:10D5F400F249624A456182800D478144E395E7FE22
:10D604009547A300F400C1B78944F1BFC944E1BF01
:10D6140079719397050122D406D626D24AD04ECEEC
:10D62400C1872E8463D307049384C1C203C5240035
:10D63400EF308FEE2AC611CDEFF01F9CB24519E5ED
:10D6440003C514009307F00F631EF5002E85EF3019
:10D654000FE62165218DB250225492540259F249A9
:10D6640045618280EF30AFF1EDB793F7150091C7B4
:10D67400EFE05F8713451400F9BF8DE90145E1BF71
:10D68400850493F4F40FEFD01F92E3F9A4FE3395CD
:10D6940099001319050113590901B3772401EDD336
:10D6A4004A85EFE09FA13345240175B78544854938
:10D6B400D9BF39C9011126CA06CE22CCAA8409458C
:10D6C4009DCD0D4628002E848D059760FE1FE780B2
:10D6D400E0298347A10070002C0093F7F70393E738
:10D6E400070426852305F100EFE09F9F09E90D4615
:10D6F400A2856800EF30FF817D153335A000F2402C
:10D704006244D244056182800945828083C7F1C2A4
:10D71400918B99C3938781AC23A2F1C20145828086
:10D72400011152C42A8A32854EC656C25AC006CE48
:10D7340022CC26CA4AC82E8BB28AB689EFD0AFF65D
:10D7440009ED8944F240624426854249D244B249F3
:10D75400224A924A024B056182805C592A89C54457
:10D76400F5F34D45EF507FE11374F50F5145EF503C
:10D77400DFE0E38809FC83C78901E3E487FC1375D0
:10D78400F50FE360F5FC930530051305000797607A
:10D79400FE1FE780E006232AA9022A84CD445DD136
:10D7A400130600078145EF30AFF0A3000400230007
:10D7B40044012301640123125401232E3405232C34
:10D7C4000400A301040063170A008547A300F400C2
:10D7D40081448DBF2285EFE0EFD78547A300F40095
:10D7E400AA842DD14A85EFE08FDBA9BF397122DCF1
:10D7F40006DE26DA4AD84ED652D456D25AD05ECE57
:10D8040062CC66CA0944630F060E630D070EAA8B29
:10D814003A89368BB28A2E8CEFD0EFE82A8A5144AB
:10D824006302050E9305300541459760FE1FE780AE
:10D8340020FDAA894D4479C58344190083472900F2
:10D84400A204C207BE9483470900BE9483473900EB
:10D85400E207BE9483278A0263E697007D57094452
:10D86400639DE70863070C0083474A000544898BDE
:10D87400C9C7930C4B00214681450A85C20CEF3081
:10D884002FE393DC0C019305300566859760FE1F3A
:10D89400E78000F72A8C4D442DC15A86D6851105A0
:10D8A400EF306FE91146CA856285EF30CFE8414613
:10D8B40093058A014E85EF300FE821478A866686F4
:10D8C400E2854E85EFE09FD62A841DE121468A85B4
:10D8D4002800EF304FE62146930549002800EF3039
:10D8E4004FE38547631EF502A6855E85EF509FF3DF
:10D8F40062859760FE1FE78000FC4E859760FE1FDF
:10D90400E78060FB2285F2506254D2544259B259E6
:10D91400225A925A025BF24B624CD24C21618280B1
:10D924000544F9B739715ECEAA8B594526DA4AD82F
:10D934004ED652D456D25AD006DE22DCAE84328B76
:10D94400B68A3AC63E8AC2894689EF300FB925C5E0
:10D954009167938717E92310F50085472301F500A4
:10D964002A843247210563830B0693071003A3011E
:10D97400F40019468145EF30AFD3834701042312E5
:10D98400940023036401230AF40003C5C1C2A30362
:10D994005401231744012318340123192401A285B7
:10D9A400EF30EFBD9D4763E897008604938701E25B
:10D9B400BE9423900400F2506254D2544259B25996
:10D9C400225A925A025BF24B21618280A301040025
:10D9D4001946BA859760FE1FE78040F979BF7971CF
:10D9E40056CAAA8A1305100326D24AD04ECE52CC68
:10D9F40006D622D42EC6328AB684BA893E89EF303E
:10DA0400CFAD39CDB24537460201930785001306E1
:10DA140016E92A845CC110C123045501A304B5008E
:10DA24001946D28529059760FE1FE78020F4CE852C
:10DA3400230894001305140126869760FE1FE780CF
:10DA4400E0F223082403A2852254B25092540259CE
:10DA5400F249624AD24A03C5C1C245616F302FB24E
:10DA6400B250225492540259F249624AD24A456150
:10DA74008280011122CC2A84314506CE2EC632C4BE
:10DA840036C23AC0EF306FA51DCD9167938717E971
:10DA94002310F500B2452246924602478D472301E2
:10DAA400F500A301850062442312B5002313C500C9
:10DAB4002314D5002315E500F240AA8503C5C1C28D
:10DAC40005616F30CFABF240624405618280011181
:10DAD4004AC82A89394526CA06CE22CC2EC6B28423
:10DAE400EF30AF9F21C1B2459167938727E9231097
:10DAF400F50091472301F500A30125012312B50088
:10DB04002A84A685190521469760FE1FE78000E652
:10DB1400A2856244F240D244424903C5C1C20561B0
:10DB24006F30EFA5F2406244D244424905618280DD
:10DB340001114AC82A89414526CA06CE22CC2EC6DE
:10DB4400B284EF308F991DCD9167B245938727E951
:10DB54002310F50095472A842301F500231225019B
:10DB6400214619059760FE1FE78040E0A285231730
:10DB740094006244F240D244424903C5E1C20561C3
:10DB84006F30EF9FF2406244D24442490561828083
:10DB9400011122CC2A84394506CE2EC632C436C29F
:10DBA4003AC0EF308F931DCD9167938717E9231007
:10DBB400F500B24522469246024799472301F500F3
:10DBC4002312850062442313B5002314C5002315D2
:10DBD400D5002316E500F240AA8503C5C1C205613C
:10DBE4006F30EF99F240624405618280797122D4EA
:10DBF40006D62A842EC632C436C23AC0EFD0AFAAA3
:10DC04001DC1B245224692460247231CB100231D82
:10DC1400C1002C081306F00F2285231ED100231FF8
:10DC2400E100EFD06F9BB250225445618280011114
:10DC340022CC2A84394506CE2EC632C436C23AC016
:10DC4400EF30AF891DCD9167938717E92310F50055
:10DC5400B2452246924602479D472301F50023120E
:10DC6400850062442313B5002314C5002315D50091
:10DC74002316E500F240AA8503C5C1C205616F30D1
:10DC84000F90F240624405618280397166CAAA8CA1
:10DC94001305200226DA52D456D25AD05ECE62CC74
:10DCA40006DE22DC4AD84ED6AE84328BB68A3AC619
:10DCB4003E8CC28B468AEF304F8251C59166938663
:10DCC40016E9A9472A842310D5002301F5009309F6
:10DCD400E400210513094401324763830C089307C8
:10DCE4001003A301F40019468145EF306F9C1946D7
:10DCF40081454E85EF30CF9B194681454A85EF30EB
:10DD04002F9B835701042312940023036401231ED1
:10DD1400F40083574104A3035401231D4401231F2A
:10DD2400F40083478104A2852300F40203C5C1C221
:10DD3400EF30EF849D4763E897008604938701E200
:10DD4400BE9423900400F2506254D2544259B25902
:10DD5400225A925A025BF24B624CD24C216182806D
:10DD6400BA85A301040019469760FE1FE78000C02E
:10DD7400E2854E8519469760FE1FE78020BF19464D
:10DD8400DE854A859760FE1FE78040BE9DBF79719E
:10DD94005EC6AA8B61454ECE52CC56CA5AC862C4DE
:10DDA40006D622D426D24AD02E8BB28A368ABA8993
:10DDB4003E8CEF209FF23DC937470B01130717E94B
:10DDC40013048500AA8418C140C101491305240025
:10DDD40023007401A30064011946D6859760FE1FD1
:10DDE400E780C0B813059400230444011946CE8586
:10DDF4009760FE1FE78080B7A307840103C7340040
:10DE040005091379F90F4104E362E9FC2254B25085
:10DE14000259F249624AD24A424BB24B224CA6857D
:10DE240003C5C1C2925445616F207FF5B25022549C
:10DE340092540259F249624AD24A424BB24B224CA2
:10DE440045618280011122CC2A84214506CE2EC64A
:10DE540032C4EF209FE80DC52246B24593071059FE
:10DE64002310F500230185002303C5006244231217
:10DE7400B500F240AA8503C5C1C205616F203FF019
:10DE8400F240624405618280011122CC2A8421453A
:10DE940006CE2EC632C4EF205FE40DC92246916738
:10DEA400938727E92310F500B245A1472301F50024
:10DEB40023038500A303C50062442312B500F24086
:10DEC400AA8503C5E1C205616F207FEBF24062447D
:10DED40005618280011122CC2A84314506CE2EC6EA
:10DEE40032C436C23AC0EF205FDF05CD22468567D3
:10DEF400B24592460247938717C92310F5002301C0
:10DF040085002303C50062442312B5002314D50001
:10DF14002315E500F240AA8503C5C1C205616F203F
:10DF24001FE6F240624405618280011126CAAE8474
:10DF34004AC82A891385C40006CE22CC32C6EF20F3
:10DF4400DFD90DCD8567938717E9B2452310F50016
:10DF540023019500231225012A84310508C426864D
:10DF64009760FE1FE78080A0A2856244F240D244FD
:10DF7400424903C5C1C205616F207FE0F24062449B
:10DF8400D244424905618280011122CC2A84194578
:10DF940006CE2EC6EF207FD415C58567938717F963
:10DFA4002310F500B2458547A301F5002301850040
:10DFB40062442312B500F240AA8503C5C1C20561BB
:10DFC4006F20FFDBF240624405618280411122C46C
:10DFD4002A840D4506C6EF205FD015C1930710F9BA
:10DFE4002300F500E947A300F5002301850022443E
:10DFF400B240AA8503C5C1C241016F205FD8B240B7
:10E00400224441018280011122CC2A84194506CE82
:10E014002EC6EF209FCC1DC18D67B245938717098B
:10E024002310F5002301850062442312B500F24059
:10E03400AA8503C5C1C205616F207FD4F240624442
:10E04400056182800111214506CE2EC632C4EF201F
:10E05400DFC815C58567B245224693870739231063
:10E06400F50085472301F5002312B5002313C500ED
:10E07400F240AA8503C5C1C005616F205FD0F2409C
:10E0840005618280397122DC4ED656D25ECE06DE20
:10E0940026DA4AD852D45AD0894BAA893284B68A0D
:10E0A400639D750F83C7160003C706009306C6FF5A
:10E0B400A207D98F2399F1C2138921C36395D70885
:10E0C40031452EC6EF207FC1AA8435C9B24542042A
:10E0D40041802302B50023138500930700F915043A
:10E0E400A1652310F500231135018505228597507C
:10E0F400FE1FE780E07088C415CD9385EAFF1356B0
:10E1040024009760FE1FE78060889C44A6858907E9
:10E114009CC403C5C1C0EF209FC68144F250625421
:10E1240026854259D254B259225A925A025BF24B72
:10E134002161828026859750FE1FE780C07723984F
:10E1440001C28544E1BF1307D6FFE3CAE7FE03C754
:10E1540081C2938981C2938441C319C7884009C588
:10E164009750FE1FE780207503550900A1658505BA
:10E174001105420541819750FE1FE780606888C001
:10E1840069D12286D6859750FE1FE780207E23988A
:10E1940081C285472380F90049B7138A01C3835795
:10E1A4000A00138B01C3D1DF938421C303D7040076
:10E1B400138941C3B386C7001107032509006344CB
:10E1C400D7063E95D6859750FE1FE780207A0356E2
:10E1D4000A0083D70400814432944204418023100E
:10E1E4008A009107E31CF4F23145EF201FAFAA85A2
:10E1F4000DC9930700F92310F50083570A00231172
:10E204003501230275012313F500832709001CC57A
:10E2140003C5C1C0EF20BFB623100A00238401C286
:10E22400F5BD0325090009C59750FE1FE780A068C6
:10E2340023100B00238401C229B76FA0B0056FA07F
:10E24400D006411106C6EFA07006B2400145410157
:10E2540082806FA0F0086FA0F00A6FA0100E6FA06C
:10E2640010106FA0F0116FA0D0136FA0B0156FA0A5
:10E2740090176FA070196FA0701B03530100035E09
:10E284004100835E8100035FC10072C276C47AC616
:10E294001AC06FA0F01B6FA0101F6FA0F0206FA01A
:10E2A400F0226FA0F0246FA0902683471600034647
:10E2B4000600A2075D8E6FA0D0276FA010296FA063
:10E2C400D02B6FA0F03B6FA0D03E6FA0B0416FA0E9
:10E2D400D0436FA0F0456FA010486FA0304A1307D9
:10E2E400A5FF420785672A8841831385A7C7636C06
:10E2F400E502138707C801456368B70263E60503AF
:10E304001307301F6362C702138766FF4207418306
:10E31400938767C763EAE70005063306B6028E06ED
:10E324003325D600828001458280B7D6020081471A
:10E33400938606231308F00F3387F600034607007D
:10E344001317060141836364E500631306018280A9
:10E3540003D605006365C7002390E5008280850726
:10E3640093F7F70FD1BF41119397050122C406C655
:10E3740026C2C1872E8463D50702EF20FF99AA84A1
:10E3840009CD83470500054793C707086364F70071
:10E39400EF40905B2685EF209F912165218D19A880
:10E3A40093F7150089CF83A781E9FC5F91C3829716
:10E3B40013451400B240224492444101828093F7F1
:10E3C400250091CB83A781E983A7070891C382978E
:10E3D40013452400C5B793F7450091C7EF00505982
:10E3E40013454400C1BF93F7050289CB83A701EA13
:10E3F400BC4791C38297134504026DBF93F705018F
:10E4040089CB83A701EAFC4391C382971345040196
:10E4140055B793F7052089CB83A781EABC5391C3F1
:10E4240082971345042079B793F7051089CB83A706
:10E4340081EAFC4F91C3829713450410A5BF9397BB
:10E4440025010145E3D807F6938701E683C67700E3
:10E4540003C6670083C5570003C54700EFB0D04B20
:10E4640009652DBF938701F103C71700058B05CB01
:10E47400984FA3800700834717009507F19BBA972D
:10E4840003C73700938701E6418B11E703D7870061
:10E4940005072394E70003C547006FB0304382802B
:10E4A400411126C2AA8422C41306000B138401E678
:10E4B4008145138501E623AE01C206C623AC01C221
:10E4C400EF201F9FA38B91D0938781CD03C7770142
:10E4D40083C68701232004082207C206369783C611
:10E4E4006701369758D483C6B70103C7A701C2068C
:10E4F4002207369783C6970183C7F700369718D447
:10E504001307F00F78DC79777D172315E40A2316B7
:10E51400E40A7D472307E40A13970701B9078E0726
:10E524002311F4022313F402A1472317F400B707BD
:10E5340050819387777D1CC81CCCB7074801418361
:10E54400ED072310E4022312E4025CCC3717508158
:10E55400B7071600130787809387079058C81CD8FD
:10E56400EF80A001EF20A032EF7060662244B24039
:10E57400924441016F50C055397122DC3704400088
:10E5840026DA4AD84ED606DEAA89AE841309F4FFE9
:10E59400CA850145EF302FA665DDE30B25FF498CC5
:10E5A4001317040141832183931784001359040131
:10E5B400D98F231601001379F90F10088A854E8527
:10E5C4002317F100A306210102C002C202C402C83B
:10E5D40002CA02CC02CEEF7030158347E101034733
:10E5E400D101A3818400A2074207BA970347F1012E
:10E5F400218023828400BA97F25062542380F4006D
:10E6040013D78700C183A3822401A380E40023815C
:10E61400F4004259D254B25921618280011122CCB2
:10E62400938701E603D7C70206CE26CA4AC84EC658
:10E634002396E70803D7E70211699305F9FF2387B7
:10E64400E70898570145138401E6A387E708935622
:10E65400870041832388D708A388E708EF306F97A2
:10E66400AA84FD550145EF300F99A6877D19FD5900
:10E6740033F72701B366E500C5C6631435016301AA
:10E68400270B230EF408A18393E707FC9169C16467
:10E69400232CA408A30EF408FD19FD14CE8501450E
:10E6A400EF302F932A89FD550145EF30CF94B3679E
:10E6B4002501EDD7FD576314F500E30139FF9357A6
:10E6C40005012300F40A93578501A300F40A831774
:10E6D400C408231FA4082301240B420513598900ED
:10E6E4001379F9034185A301240B658DE58F63122A
:10E6F400F5020317040A8317E408658FE58F631A8C
:10E70400F7000317240A83170409658FE58FE307CD
:10E71400F7F8F2406244D2444249B249056182802A
:10E72400CA850145EF30EF8AAA84FD550145EF30D3
:10E734008F8CA68735BF011126CA938701E622CCA8
:10E74400805F4EC606CE4AC852C403491406938954
:10E7540001E66318090019469385C1EE13052406E2
:10E7640021A885476314F90683C7290013052406E5
:10E774001946B1CB938521EF9750FE1FE780001F08
:10E7840083C7190091CF8347F4061307000493F756
:10E79400070C6397E70013058406EF50202268CC2A
:10E7A4008547A303F40003C571D18545238001E6A1
:10E7B400EF206FFC0145F2406244D2444249B24921
:10E7C400224A05618280938581EF7DB7094A6317E8
:10E7D4004905834784062300040689E78547230007
:10E7E400F40695BF13058406EF50801868CC0DC15C
:10E7F400EF40D0746C4C83C7A50099CB2300240749
:10E804001946B105130524069750FE1FE78000162C
:10E81400034704068947E305F7F6C9B78D47494519
:10E82400E31BF9F8834784062300040681EB85473C
:10E834002300F4061946938521EF0DB713058406CA
:10E84400EF50001368CC0DC1EF40506F6C4C83C780
:10E85400A50099CB230044071946B10513052406E6
:10E864009750FE1FE7808010034704068947E30999
:10E87400F7F075BF4111C5451305000922C406C64A
:10E884009750FE1FE780C0F72A8431C91306000998
:10E89400814523ACA1E8EF20AFE185472302F400D2
:10E8A400930700F92303F400938701F1D84B9C4F9D
:10E8B4002322E4082324F4088D472307F400B7E750
:10E8C40001009387A7733CDCB7F701009387C7BDAA
:10E8D4007CDCB7F70100938707B62320F408228570
:10E8E400B24022444101828083A7C1EB639707268B
:10E8F400011126CA83A741C506CE22CC98434AC833
:10E904004EC60D8B05C3B84B619BB8CB98431367B8
:10E91400870098C39C438D83858B89C701000100C0
:10E924000100010083A741C51307A005B70600F93C
:10E93400B8CB1307000AB8D37D47D8C383A741C413
:10E94400FD16984F2A84758FB7060002558F98CF0D
:10E95400984F137737F81367870198CF83A681C53B
:10E96400D856759BD8D6034755009376F707984336
:10E97400137707F8558F98C337C7898E130767ED48
:10E9840098C73757550013075755D8C3D857B706F4
:10E9940000F0FD16719BD8D79843758F98C38347B1
:10E9A4000501054783264508BD8B2304F5006396BE
:10E9B400E7183147A304E5002380F60083471506D2
:10E9C4001309A506898B8DC36C4D99CD83C7250189
:10E9D40081CF83C735011946D105A304F5064A85BD
:10E9E4009750FE1FE78080F88347940689CB03275E
:10E9F40044088347070093E707F82300F70003253B
:10EA040044081946CA8521059750FE1FE78000F681
:10EA14008347140613092406898B85C36C4C91CD56
:10EA240083C7A50099CB89472300F4061946B1058D
:10EA34004A859750FE1FE78060F383471406858B51
:10EA440091E7034704068947631AF700032744083C
:10EA54008347070093E707042300F700832744084C
:10EA6400034794001946CA85A380E7000325440898
:10EA740009059750FE1FE78060EF930720F92303F1
:10EA8400F40083A781C40327440837F501008145B6
:10EA940098CB130565CEEF205FA9EF70606A93876A
:10EAA40001F1238107000547A3810700A383E70041
:10EAB40023820700130740F92303E40003A701C5D9
:10EAC400138901F111C7144318479C42D98F9CC282
:10EAD40003A741C5930700342326F9003C53FDFFE7
:10EAE40083A781C583A707091397770063490700A4
:10EAF40083A781D089C7854513050008829783477A
:10EB0400940003A741C5A16692079386363054C783
:10EB1400938787113CD3930700F82302F9006244DA
:10EB2400B167F240D2444249B249938737305CC757
:10EB340005611753FE1F67006335034725019305DD
:10EB4400C40119071377F703A304E5002380F60033
:10EB540003254508034624017DB58280411122C462
:10EB640003A481E906C68547034774006312F706C8
:10EB74008347540013075002639AE7028347140142
:10EB840013F7270015CB93076002A302F400228534
:10EB9400EFF09FD583471401918B9DCB2244B24063
:10EBA40003C571D1894541016F20EFBC1307600291
:10EBB4006390E70283471401918B99CB930770020A
:10EBC400A302F40022852244B24041016FF0DFD158
:10EBD400B240224441018280411126C2938701E65A
:10EBE40022C4805F06C68547034774006315F70A8D
:10EBF400835684011307006483C701E63347D702B1
:10EC0400850793F7F70F2380F1E663C6E700EF204B
:10EC14009FC0238001E683471401938641D103C535
:10EC2400360093F61700938441D199CA1307500212
:10EC3400A302E400998B91CF8945EF20CFB311A8AB
:10EC440013F74700898B95CB93076002A302F40066
:10EC540065F703470401854783C434006315F7024D
:10EC64000356840126858545EF208FE422852244BE
:10EC7400B240924441016FF03FC761DF93077002D5
:10EC8400A302F400F9B7B9450545EF205FB2035676
:10EC940084012A96C1BFB240224492444101828039
:10ECA400411122C403A481E906C6EF706049EF70E4
:10ECB400404C2313040023020400138441D1034570
:10ECC40034008545EF206FF4034534008945EF2077
:10ECD400CFF3034534002244B240914541016F20F3
:10ECE400CFF239714ED6938701E622DC805F26DAB3
:10ECF40052D456D2216AB16A5AD05ECE06DE4AD8C0
:10ED040062CC938901E6938401F1130A3A30938A21
:10ED14003A3083476400130750096395E7389750E6
:10ED2400FE1FE780801383C73400858B638E073210
:10ED3400032584081306F4008145A3810400975039
:10ED4400FE1FE780A01F45ED832584087D4783C708
:10ED5400150093F7F7032305F400E91793F7F70F6A
:10ED6400636FF70883C70500BD8BA305F400F5178F
:10ED740093F7D70FC9E7130924061946A1054A8555
:10ED8400EF202F992DCD83258408130C24071946D1
:10ED940083C70500628589059987858BA308F406D6
:10EDA4009750FE1FE78080BC83C71900638B071A46
:10EDB400834714076387071A8347740713070004FC
:10EDC40093F7070C639FE7187C4CA9C703C7270177
:10EDD40031C303C73700628613672700A308E4061C
:10EDE40003D5270003D7470083D5670083D787005F
:10EDF4004207598DC207DD8DEF40104331E5A384EE
:10EE040004000347640093076009E304F7F0EF701C
:10EE1400403661A4834784000547BD8B6399E700AE
:10EE24001946E2851305A406EF20AF8EC1BF130572
:10EE34000407EF40B03868CC6305051283473500FA
:10EE440093E72700A308F4060347B4009547631526
:10EE5400F71483478400B98BDDF383A749066382E3
:10EE64000720EF70003183A749068297EF109000C6
:10EE74002A896308051E83A781B68297832584089F
:10EE8400232CA906154683C7F50003C705011305FE
:10EE94000910A2074207BA9703C7E500F905BA9714
:10EEA40003C735FF6207BA972324F90883C755FFC0
:10EEB40003C765FFA2074207BA9703C745FFBA977E
:10EEC4002326F90883C775FFA303F90283C795FFB7
:10EED40003C785FFA207D98F2314F90283C7B5FF9F
:10EEE40003C7A5FFA207D98F2315F90283C7D5FF4E
:10EEF40003C7C5FFA207D98F2316F90283C7F5FFFD
:10EF040003C7E5FFA207D98F2317F9029750FE1F05
:10EF1400E780C0A50327840883473702FD8B2302BB
:10EF2400F9028347370205679306A7C79583A302AF
:10EF3400F9028357A902E917C207C18363EEF600F9
:10EF44008356C9029307301F63E8D7008357E90249
:10EF5400130707C86373F71003558915EF10B00C36
:10EF640079BD834784000547BD8BE38BE7EA83477C
:10EF7400C4000347B40093F6170089CA8D4663178B
:10EF8400D70028586C58EF60502A8DBD898BE38DCB
:10EF940007EA9547E307F7FE83478400BD8B81C7E3
:10EFA4001947E39EE7E48347340111472304E4004F
:10EFB4009907A304F400832744082380E7008347C8
:10EFC40094000327440893F7F703A300F70083474B
:10EFD4001406858B91E7034704068947631AF700F3
:10EFE400032744088347070093E707042300F70037
:10EFF40003254408CA85194609059750FE1FE78072
:10F00400E09603254408034634019305C40321050F
:10F014009750FE1FE7808095930760F92303F4005F
:10F024008347940003A741C51305A005920723262F
:10F0340047019387C71C3CD3930700F82382F4004D
:10F04400232657019750FE1FE780E0E49750FE1FE8
:10F05400E780A0E0EF70E0115DB383A789064A85DD
:10F064008297EFF0FFC361BB03C94400854713795E
:10F07400F90FE310F9CA23820400EF70800F83C7ED
:10F08400840081EF83C79400850793F7F70FA38467
:10F09400F400A18B99C323942401930720F923033B
:10F0A400F40079A813074009639EE70283C724008C
:10F0B400858B8DC3834784002381040013F7E70005
:10F0C40009C7BD8B1947E394E7D4930750F9230389
:10F0D400F40081B183C744000547E31CF7C22382CF
:10F0E400040035B313076009E395E7C283C724001E
:10F0F400858BBDC323810400EF70A007930710F92B
:10F104002303F40083A7C1C585CFDC4395CB89478E
:10F114002302F10083471407130561001946A30273
:10F12400F1008347F400930524072306F100975068
:10F13400FE1FE780A08383A7C1C54800DC438297F4
:10F14400F2506254D2544259B259225A925A025B32
:10F15400F24B624C2161828083C744000547E31A65
:10F16400F7BA23820400EF70C000930710F905BFBB
:10F17400411106C6EFF0DFB2B24013062008930532
:10F184000008014541016F30507883C771D185E78C
:10F1940037E5010041111305A53606C6EF206FC5FA
:10F1A400EFF00FB0B240B7F701009387878723AE23
:10F1B400F1E841018280B7F701009387878723AE86
:10F1C400F1E8828011C98327050993E707402328C2
:10F1D400F508FD572300F502828023ACA1C282808A
:10F1E400011122CC06CE2A84034505029307F00FB1
:10F1F4002E866309F5002EC6EF202FA43246FD5754
:10F204002300F402834734020357A4039306040241
:10F2140093E70706A301F40283570403A285F2408F
:10F22400BA97231CF402624437F501001305851CC8
:10F2340005616F200F90011122CC06CE2A8403456C
:10F2440015029307F00F2E866309F5002EC6EF20F2
:10F25400CF9E3246FD57A300F40293061402A28502
:10F264006244F240370502001305E51D05616F2075
:10F274004F8C011122CC06CE2A8403452502930724
:10F28400F00F2E866309F5002EC6EF200F9B324641
:10F29400FD572301F40293062402A2856244F2403E
:10F2A400370502001305852005616F208F88938739
:10F2B40001E603C70702ED46A30DE51203C71702D3
:10F2C400230EE51203D72702A30EE5122183230F91
:10F2D400E51203C74702A30BE51203C7570283D7FE
:10F2E40067022311D514230CE512A30CF512A18394
:10F2F400230DF512B7071B00938787142322F514F7
:10F30400930780142314F514ED4713078004A30610
:10F31400F514854723070514A307E5142308F514FA
:10F32400A308D51423090514A309E514230AF51425
:10F3340082800357C50395470356E502B307F702D6
:10F344008356A50293D537406355B600118F9317A2
:10F354003700B3C7D702C207C183231DF5028280D9
:10F364008327C50E0D469306F00F03C707000D8BC8
:10F374002305E5006314C70083C62700A30AD5004C
:10F3840003C70700418B2308E50083C71700A305C3
:10F39400F50082800327050F19E305458280834722
:10F3A400850093F7C70F2304F50083458700835630
:10F3B400A7001396850161866355060A0326051581
:10F3C40013F81500218242064182630E080493E576
:10F3D40017002304B5006376D602A304C5000348CE
:10F3E400650283C591CE6376B80093E717012304C1
:10F3F400F500918E2315D7008547A30BF500014531
:10F404008280104319CA8345650203C691CE63F610
:10F41400C50093E717012304F500A304D500894729
:10F42400A304F700D1BF13E8270023040501E37602
:10F43400D6F6918E130810F893E51500A30407017E
:10F444002304B7002315D7008346650203C791CE72
:10F4540063F6E60093E727012304F500A304C5003F
:10F4640061BF054813E627006394050113E61700FE
:10F474002304C500A304D5008947A304F7001C4353
:10F48400A5DF0347650283C791CEE377F7F61366DA
:10F4940006012304C5008DB783478500CD9B230453
:10F4A400F50082808327C50E0347850083C70700C4
:10F4B400935637408987B58F858B99C71347870043
:10F4C4002304E50001458280054582808327C50E1B
:10F4D4000347850083C70700935627408D87B58F60
:10F4E400858B99E7134747002304E5000145828093
:10F4F400054582808327050C85072320F50C91E7B9
:10F504008327450C85072322F50C8327450C93F7A5
:10F51400070891C785472320F50C2322050C834750
:10F52400350293F7070491CF835705030357A503C7
:10F53400BA97231CF5028327450993F7F7BF232ABB
:10F54400F50882808327850C85072324F50C91E731
:10F554008327C50C85072326F50C8327C50C93F751
:10F56400070891C785472324F50C2326050C8347F8
:10F57400350213F7070409C793E70702A301F5024D
:10F58400828083A701EB014591E3828003C7770062
:10F5940011E305059C43CDBF83A701EB0145054756
:10F5A40091E3828083C677006393E60005059C435C
:10F5B400C5BF411122C491452A84014506C6EF20E6
:10F5C4000F9F938701E6B4532314A4040547637D76
:10F5D400D70283560403035704050355A40483A8E0
:10F5E4000705158F3307A7028326040885451303EF
:10F5F400F5FF130E8002369783C671CE93862602DA
:10F604008586AD0663E66500B240224441018280EE
:10F614003388C503C6877D563A9881E72314B4041A
:10F62400E5B76314F4001C40F5DB83AEC7076398A9
:10F63400AE0003A607083306C8403376A602636407
:10F64400D6009C43D9BF890575BF938701E6B4539F
:10F6540005476376D70603C771CE8345750403A3B4
:10F6640007051307270205872D07FD150546130E09
:10F6740080026363B6008280B306C603832705084D
:10F684007D58BE969A8781E72314C504828063144B
:10F69400F5001C41F5DB83AEC7078328C507639AD1
:10F6A4001E0183A807083388D84063E41601338811
:10F6B40016416364E8009C43F9B705065DBF828088
:10F6C400938701E6B8538545138881CD63F1E5023C
:10F6D4000346F8008326050803A30705130626023C
:10F6E40005862D06938686021A87FD5721E38346F5
:10F6F400480183578502385D139686018507618624
:10F70400AE97635B06049306204EB387D702BD070A
:10F714009583BA97634906003707C0A863E5E700F5
:10F7240037074057BA972320F50882806314A7004F
:10F73400184355DF032EC7078328C507631A1E0124
:10F7440083280708B387D84063E41601B3871641BA
:10F7540063E4C702184359BF858A91C693068002A1
:10F76400B387D7027DB785669386B647B387D7023A
:10F77400938707049D8371BF83477502850593862C
:10F784008602E3C3F5F6A5B7938701E6B4530547AC
:10F794006372D70C411122C4A04B06C626C2A287AD
:10F7A40089E709E8230C0500B5A003C7A7013DE3D9
:10F7B4009C43FDB76314A40000406DD483477400D8
:10F7C400C1EB785C7C5D6305F7080347850193070B
:10F7D4000008AA846315F7048357A4021946930505
:10F7E40000082313F5062314F5068357C4022316D1
:10F7F400F5048357E4022317F50403554500EF305D
:10F80400D0108547238DF40083C7840193F7F7074D
:10F81400238CF400B24022449244410182808357F5
:10F82400A5021946930500082313F4062314F406CD
:10F834008357C5022316F4048357E5020355440095
:10F844002317F404EF30700C8947230DF400D9B763
:10F85400004081BF230C05008280938701E6B453E6
:10F86400411126C206C622C40547AA84637FD7165F
:10F874000347050E098B630A0716BC4BBE85BDE51D
:10F8840003C671CE01447D581306260205862D0653
:10F894007D55B5E363000410834774008356A402C6
:10F8A400D5E38947A303F4040357040383572405CA
:10F8B4002315D40422853E9741079D8B1D8F5C54EC
:10F8C4002318E4047CC4EFF0DFCE8327440993E7D4
:10F8D4004700232AF4088547A30CF4008D47230D21
:10F8E400F400B240224492444101828003C7A5013E
:10F8F4006DFB8C4169B798436394970041DFBA87E5
:10F9040083A6070803A7040863E1E6023387E640F9
:10F91400F45C63F4E6003377D7026376A7003A8594
:10F924006373C700BE859C43ADB7158FF45F63F462
:10F93400E6003377D702E37807FF3A88E375C7FE1A
:10F944003E84D5B783D7A402B3F7D702D9FB1D47AA
:10F9540099476375D70093D716008D07056723135E
:10F96400F406130707C88A076353F700BA872314FA
:10F97400F4065C5403554400130660087CC4C9476C
:10F98400230DF4002244B24092449305000841013F
:10F994006F30A077B9C903D7A40283D7A502B3F700
:10F9A400E702A1E78387840163D107049D46994751
:10F9B40063F5E600935717008D0705672393F40654
:10F9C400130707C88A076353F700BA872394F4061A
:10F9D400DC5403D5440013066008FCC4CD47238DD2
:10F9E400F40093050008EF304072238C0400D5BD69
:10F9F400938701E6B45305476370D71E79715AC8DB
:10FA040022D44AD04ECE52CC56CA5EC662C466C216
:10FA14006AC006D626D2A04B938781CD83C4F70053
:10FA2400E54A130A3033938424028584AD04930990
:10FA34007034B38A54037D6C856BB70C0200130DCC
:10FA44008C842A89138B81CD938B0BC8130C0C40A7
:10FA54008D0C338A440393DA9A00B3893403135A1E
:10FA6400EA0093D9E90019ECB25022549254025995
:10FA7400F249624AD24A424BB24B224C924C024D5A
:10FA840045618280631589000324090071DC834782
:10FA9400A401C5EF785C8327C90763E8E70A8327D5
:10FAA40009088326040863E2D70A03464B01B38698
:10FAB400D740EA8793158601E18563C7050013756E
:10FAC4001600E28711E1E68763F1F6086374D70054
:10FAD400B3F6E60263FB96069357170063F3F4004C
:10FAE400A687B6979306703463C70500137716008C
:10FAF40039CF930630333387D702B3B7D70239836C
:10FB0400CA07D98F850785466381D70403457400E6
:10FB14000357A40229E52315E404585485832314C8
:10FB2400F40478C40947A303E40483570903A30C2A
:10FB3400D400A9072318F4048327440993E7470052
:10FB4400232AF4089147230DF400004029BFE54619
:10FB54003387D702B3B7D7022583DE075DB7835651
:10FB6400A90263FDE602B3F6E602CE8763C7050089
:10FB740013751600D28711E1D6878507858363EF55
:10FB8400F600CE8763C60500058AD68711C2D287E0
:10FB940085078583B307F740E3F9D7FA9D4699476C
:10FBA40063F5E6000583930737002313F4061397E0
:10FBB400270063D3EB005E875C5403554400231491
:10FBC400E4067CC4D147230DF400130660089305B2
:10FBD4000008EF30805395BF828083C771D14111F3
:10FBE40022C406C626C24AC07D54D1CF49CD03A73C
:10FBF40001EB51CB938781CD03C8D701838547019E
:10FC0400138981CD05080543B708C0A8930E000CDD
:10FC14008346770083270708639E6606035EE7062C
:10FC24008356C7026378DE060346D700631466066C
:10FC34000326070F25E20326470929EE0346F700AA
:10FC4400631AD605705FB386C64179163306D602A9
:10FC540083264708B356D602B297C296C206C1821B
:10FC6400231AD70663DB0502958F63F387003E846E
:10FC7400184359FF83A781B6AA8482976363A402B9
:10FC8400B307A4409CC02285B24022449244024956
:10FC94004101828083564707F1B7E3F7D7FCC69743
:10FCA400E1B7B307854063D007028307490163D6F0
:10FCB40007003305A44088C0F9B7B707C0A8A297C6
:10FCC4003385A740CDBF23A004002A846DBF411112
:10FCD40006C6EF00301A19C98327050F014581E7CD
:10FCE400B240410182809C430505D5BF7D55CDBFFF
:10FCF40003A781C301114AC806CE22CC26CA4EC628
:10FD04002A8921CFBE8903A701EC85476317F7042D
:10FD1400138781CD0307470183270508035445074B
:10FD2400938481CD635607043384874083A781B6C7
:10FD340082976365A404B307A44003C4E40103A742
:10FD440081C3014505806379F4003384874013053A
:10FD5400803E3305A40215810297F2406244930762
:10FD640000FB2306F900D2444249B249056182806E
:10FD7400E3FC87FA3707C0A8BA977DB733078540F5
:10FD84008147E35C07FA83874401E3C607FAB707B0
:10FD9400C0A83E944DB7411126C2938701E6FC4F9B
:10FDA40022C44AC006C62A842E89938401E6639439
:10FDB400A70023AE04048327840F81CB035544009A
:10FDC400014693050008EF3040348357640381CB28
:10FDD400035544004D4693051008EF300033035596
:10FDE4004400154693051008EF3020322303040025
:10FDF400A306040023032405B850854763E6E700FF
:10FE040085450145EF106FF2B24022449244024905
:10FE140001454101828083476500638E073A035799
:10FE2400050341118357E50606C622C405074207A8
:10FE340083457500418385072318E5022317F506DA
:10FE4400230F050095ED8347C5019DCB035625037C
:10FE54008D463306C74063F6F604A146B387F640E1
:10FE6400B387C7029D4663DBF6008386C1CE832732
:10FE7400050863D40602FD172320F5082319E502BB
:10FE84008347F5002A8493968701E18663CC0604B0
:10FE9400954763EEE702014591A0F1FFB707C0A8BB
:10FEA400D9BFB387C7029D46E3DAF6FC832605086B
:10FEB4000386C1CE93871600E34006FC3706C0A82C
:10FEC400E3ECC7FAB70740578507B69775B79305AC
:10FED400E003EFF05FEC2300A4040945B2402244A0
:10FEE4004101828093F60702A5CA93F7F7FDA307A1
:10FEF400F500832705092300050493E74700232819
:10FF0400F5088547639AF504938681CD03C64601B7
:10FF140083C7D601914693158601E18563C8050020
:10FF2400745D03254508B3D6A6029106B697C207A9
:10FF3400C1832319F406860793960701C182834778
:10FF4400740263D505121306204EB387C702BD079A
:10FF54009583B6972318F4068347E40093F61700B5
:10FF64006381062483570405631DF7208357C40265
:10FF74008355E404034524022319F40483477404D9
:10FF84009205A303F402835784042314F4027C44EB
:10FF94005CD4EF108FD183467400231704061386B4
:10FFA40081CD835784020357A40463930614034644
:10FFB40046018326040893158601E18563D8050C60
:10FFC4001305204EB387A702BD079583D106B697C4
:10FFD40063C90500B706C0A863E5D700B706405754
:10FFE400B6972320F4082315E40263D2050C930684
:0CFFF400204EB306D702958274DC63D95E
:020000022000DC
:10000000050C9307204EB307F70289839D8B93F766
:10001000F70F230EF4000D476374F700850674DCB8
:10002000835704032319F4028347A40181C722855F
:10003000EFF0EFE18347F40093E70702A307F40032
:100040008347E400F99B2307F4008347340293F7C6
:100050000704E38407E40357840383570403E31E80
:10006000F7E28327440993E70740232AF40835B5CC
:10007000058A11C613068002B387C702E9BD05666B
:100080001306B647B387C702938707049D83E1B57C
:100090001375160011C513058002B387A7020DBFA3
:1000A00005651305B547B387A702938707049D83AA
:1000B00005B79377160091C793068002B306D7025F
:1000C00035BF85669386B647B306D7029D823DB796
:1000D000058A81470DFE856729669387B747130612
:1000E000763DB307F7023307C70291831D830E07DE
:1000F000998F31BF0346460193158601E1859DC75F
:100100008326040863D005041305204EB387A70295
:10011000BD079583B69763C90500B706C0A863E518
:10012000D700B7064057B6972320F4082315E402FA
:1001300063DB05029307204EB307F702BD079583E3
:100140007CDCCDBD1375160011C513058002B38785
:10015000A702C9B705651305B547B387A7029387FB
:1001600007049D8345BF058A11C693078002B30724
:10017000F702F9B785679387B747B307F702938705
:1001800007049D8375BF3387E74093170701E3DEBC
:1001900007EA930580022285EFF03FC02300A40404
:1001A0001305800235BB898BE38107EA8357A410CE
:1001B000B386E74013960601E34D06FCE317F7E824
:1001C000154693055410130504109730FE1FE78061
:1001D000207A8347E400F59BBDB50545828005C5BF
:1001E00041119305200222C406C62A84EFF0FFBA0B
:1001F000FD572300A404A3060400A300F402B240A8
:1002000022444101828082800DC9411122C406C668
:100210008307F5002A849305E00363D30700A14513
:10022000EFF0BFB7FD572300A404A3060400230189
:10023000F402B2402244410182808280938701E629
:10024000B84B63060738797126D2938781CD06D6DD
:1002500022D44AD04ECE52CC56CA5AC85EC69386D5
:1002600001E683884701AC4E01457D58938481CDDA
:100270003703C0A8032607088357470763DB080E28
:10028000B307F64063F50701BA853E880545184374
:1002900075F311C1ACCEA04E8569370AC0A8B70A64
:1002A0004057054B9389B94783A781B6832B040830
:1002B0008297637E752383C7E40103574407B38B9A
:1002C000AB40BA9763E377192285A30E0400012D92
:1002D0002285EFF09FB459E1838644012303040291
:1002E000832704088359440763D90608B389374133
:1002F000785C232C3407BA9763C90600B706C0A8F8
:1003000063E5D700B7064057B697834674002320AD
:10031000F4088547639BF6068357E4060356C40238
:100320006365F6060346D4006311D6068326040FE0
:10033000A9EE83264409B1EA0346F4009306000CB3
:100340006315D604B387E70203274408B3D7E7024F
:1003500003C7D4010507BA97231AF406B2502254F2
:1003600092540259F249624AD24A424BB24B456119
:100370008280E377F6F01A9621B7E3F937F737056D
:10038000C0A83E95B3093541A5B783A781B682972A
:100390008387440163D10706B389A940638C0906AA
:1003A0007C5C63F9F906EF50F059EF50D05C83A7FD
:1003B00041C5216713073730D8C79A0923A03707EB
:1003C000138701F1930600F82302D7003167130762
:1003D0003730D8C703477400854781456313F70258
:1003E00037550200130585A5EF106F94930700FDA4
:1003F0002306F400A5B7E3F1A9FAB707C0A8BE9990
:1004000061BF372502001305E5B3EF104F92930744
:1004100010FCF9BF03477400854703A30403631767
:10042000F7009545E30C03F2154529A0E30803F214
:10043000954519452254B25092540259F249624AE4
:10044000D24A424BB24B4561028303C74401931623
:100450008701E18663D50B0483270408785CBA978B
:1004600063C5060063E34701D6972320F40822857D
:10047000BD212285EFF07F9A834774006395670161
:100480002285EF40A05B8347D40185458507A30EF5
:10049000F4009C58E38A07E01545829731B58357ED
:1004A000E4028E0763D506021307204EB387E702E6
:1004B0009583E3F577EBA1452285EFF01F8E03A32B
:1004C00004032300A4048945E31003F641BD058B12
:1004D00011C713078002B387E702E1BF056713075F
:1004E000B747B387E702938707049D83D9B703C74C
:1004F00044018357E402B30B754193168701E186EB
:100500008E0763D106081307204EB387E702958351
:1005100063F1FB0A83A781B68297AA8B2285C12645
:100520002285EFF09F8FE31B05E2785C83270408A8
:10053000BA97038744016345070063E34701D697F1
:100540002320F4088347D40113F7070F29CB228512
:10055000EFF04FCAA30E040083270408E3FCFBFA64
:1005600083477400639167050357E4068357C40209
:10057000E3FCE7D22285EF40604C9C58E38607D22B
:100580008D4519BF058B11C713078002B387E7029A
:1005900041B7B3873703938707049D8395BF8507CA
:1005A000A30EF40055BF9C58E38007D08D45194534
:1005B000EDB5E3C50BDAA1452285EFF00FFE03A3ED
:1005C00004032300A404E30B03D89145B1BD82804A
:1005D000411122C406C62A848327040FB5EB832762
:1005E000840FC9E30325840E09C59730FE1FE780F9
:1005F000C02C034514029307F00F6304F500EF00CD
:100600001FE4034504029307F00F6304F500EF00B5
:100610001FE3034524029307F00F6304F500EF0086
:100620001FE203554400112483A701CE91CF83A775
:1006300001EC99EB138441D1484C19C59730FE1F4A
:10064000E780A027232E0400B2402244410182808B
:1006500003D7C700136707F02396E7009C432328BE
:10066000F40E9DBF03D7C700136707F02396E7007A
:100670009C43232CF40EA5B783A701EB99E33E8599
:10068000828003D78715E30CA7FE9C43C5BF83A7D1
:1006900041E9C16683C581CEFD16014703D6C70077
:1006A000630BA6006309D60005071377F70FC10790
:1006B000E3F6E5FE81473E858280411122C4138422
:1006C00001E65C5806C626C2B9E7035504029384C6
:1006D00081CD83C70401130515021585850716050D
:1006E00092073E9542054181ED459730FE1FE78018
:1006F000601115C183C6040148D8814713871600CD
:100700001207939506012A97C181130840F59308B3
:1007100020F563D7F600B240224492444101828022
:100720008DE32316150158C1A304050041052A864F
:1007300063E3B70001468507C2072328C5FEC183CE
:10074000C9BF2316050123220500F9BF4111C14588
:100750001305C01506C622C426C29730FE1FE780C7
:10076000600A1306C01581452A84EF00AFF40145E5
:1007700041C0938701E6B04B938401E615CEF4485F
:1007800083D7861513871700931707019315070161
:10079000C18363D305008547328783558715E3837B
:1007A000F5FE18437DFB231CF41485CFBC5080C29A
:1007B000E0C88507BCD011A88547231CF4148547E1
:1007C000A0C8E0C8BCD0EFF05FEFFC4823A0070052
:1007D0008357841523030400230604002312F40026
:1007E00031A022859730FE1FE780200D035544007D
:1007F000B24022449244410182804111138701E6B4
:1008000026C2445B22C406C6138401E681E8232A7B
:100810000402B240224492444101828026859730EE
:10082000FE1FE78080098440D5B7411122C4938719
:1008300001E6B44B06C60147B687138401E6A1C79B
:1008400003D687156314A6040DE7984238C83E8581
:100850009730FE1FE78060067C4823A007003C50CD
:100860008DE3EFF09FF923280404B24022444101B4
:10087000828074486394F60078C8D1BF944314C34F
:10088000F9B7FD173CD03C50EDF3E1BF3E879C43E8
:100890007DB751468145138501EB6F00AFE183477A
:1008A000450081460147FD8B2302F500054881473D
:1008B00095453306F5000346060009C6638F060119
:1008C000328785468507E396B7FE014581CA130541
:1008D000F7FF798D3335A0008280054582800111B4
:1008E00026CA4AC806CE22CC4EC652C456C25AC0E8
:1008F0002A89930745109306F50F81440147931900
:10090000870003C7070013D68401B3693601A20428
:10091000FD17D98C4E87E394D7FE834749020344E1
:1009200039013E941374F40F9307400263F6870075
:100930001304B4FD1374F40FA309890022862685DD
:10094000CE85EFC0C069058909CD23098900F24031
:100950006244D2444249B249224A924A024B05615A
:100960008280814A014A130B500256862685CE8525
:10097000EFC0E066058901C5050A137AFA0F850AFA
:10098000E3956AFF33744403814A014A130B500212
:1009900052862685CE85EFC08064058911C963958E
:1009A0008A002309490165B7850AE20A93DA8A4178
:1009B000050AE31F6AFD61BFA3090500828041119A
:1009C00022C4938701E6FC4F06C626C2A9EF138412
:1009D00001E624449307F00B03C764006304F700A7
:1009E000EF50607903D6A40103C571D193050020AF
:1009F000EF005F8C93075002A382F4003C44B7558C
:100A0000550037C5898E03C6570093855555130584
:100A100065EDEF50407B0D47A38BE1F03C4413079D
:100A200010FB2383E700B2402244924441018280BC
:100A3000011126CA4EC6938901E622CC03A489047B
:100A400006CE4AC883474400A9CF03475400930702
:100A50006002138941D163EDE7040356A401034505
:100A6000390093050020EF00FF8483475400B755F9
:100A7000550037C5898E8507A302F40083A7890432
:100A800093855555130565ED03C65700EF50A073C8
:100A90000D47A38BE1F083A78904130710FB238381
:100AA000E700F2406244D2444249B2490561828083
:100AB000EF50606C8356C4011307006483C701E6DE
:100AC0003347D702850793F7F70F2380F1E663D505
:100AD000E70083C781F189C7EF003FD4238001E697
:100AE0009307F0FB2303F400624403453900F2400E
:100AF000D2444249B2499305002005616F003F91FD
:100B00000111938701E622CCA04752C406CE26CA23
:100B10004AC84EC6834454033A8A99E419469385D9
:100B2000C1EE1305640321A805496392240983C714
:100B30002700130564031946A5CB938521EF973051
:100B4000FE1FE780E0E2B7050001FD150145EF005B
:100B5000DFCA48D4EF50B00D08D4C1451545EF00A9
:100B60005FC5938441D12306A40085470356C40181
:100B700003C53400A303F4008D472302F40093055A
:100B80000010EF00FF8503C5340093050010EF004F
:100B9000CFBE0145238001E6F2406244D24442497F
:100BA000B249224A05618280938581EF49BF83C79C
:100BB00017004945F5D38949639234051305C403E9
:100BC000EF20505B68C8EF20B0376C4899CD83C7E1
:100BD000A500639C2701230A94021946B105130559
:100BE00064039730FE1FE780A0D80347440389477A
:100BF000E30BF7F48547230AF4020DB78D47E3941E
:100C0000F4F41305C403EF20F05668C8EF20503306
:100C10006C4899CD83C7A500639C2701230A340340
:100C20001946B105130564039730FE1FE78040D4D1
:100C3000034744038947E308F7F08547230AF40292
:100C40001946938521EFF1BD4111D14513050007E8
:100C500022C406C69730FE1FE780C0BA2A8439C175
:100C6000130600078145EF00EFA423A481EA9387D0
:100C700001F1D84B9C4FA302040078D03CD49307D9
:100C8000000B2313F400B7170200938707B03CCC86
:100C9000B71702009387E79B7CCCB71702009387B6
:100CA00007A33CD02285B240224441018280797161
:100CB00026D2938701E622D4A0474AD04ECE85693A
:100CC00052CC56CA06D65AC85EC6938401E69389AA
:100CD000B947938A01F1834764001307100B6394AB
:100CE000E75283C701F1138B01F1858B638D075A9E
:100CF00028541306B4008145238801F09730FE1F65
:100D0000E780002471E92C547D4783C7150093F7D1
:100D1000F7032305F400E91793F7F70F636EF70A5B
:100D200083C7050013F7F700A304E400B98BCDE7F0
:100D300083C70500130B640419469987858BA302AA
:100D4000F40489055A859730FE1FE78060C2034787
:100D5000940085476310F7022C5419461305E404E8
:100D600083C70500A1059D83A306F4049730FE1FE9
:100D7000E78000C0834794000547BD8B638CE70084
:100D80007C48CDE38347D40005476392E73268404F
:100D90002C44D5A8034744038947631DF7068347BE
:100DA000D4049DCB834734051307000493F7070C45
:100DB0006394E7027C481306E40403D5270003D7B5
:100DC000470083D5670083D787004207598DC20744
:100DD000DD8DEF20F04A4DF5034764009307100BBB
:100DE000E31BF7EEBC44B755550037C5898E03C6E3
:100DF000570093855555130565EDEF50C03C138999
:100E000001F18D47A303F900BC44130710FB2383B2
:100E1000E700BDA919469305E40413056403EF0038
:100E20008F8F55BF0347540431DF0347B404930643
:100E300000041377070CE317D7F403D5270003D773
:100E4000470083D5670083D7870042075A86C207C9
:100E5000DD8D598DEF20903D85476317F524894737
:100E60002302F4048347D4006390A7227C4803D56F
:100E7000270003D7470083D5670083D78700420741
:100E8000598DC207DD8DEF40903A39D578509307E0
:100E900020022304F40095462300D7007850930BDA
:100EA0006403A300F700034744038947631AF7006C
:100EB0006C4819465E85B1059730FE1FE78040AB50
:100EC00083475403858B91E703474403894763199C
:100ED000F70078508347070093E707042300F700E3
:100EE00068501946DE8509059730FE1FE78040A847
:100EF00083475404858B81CB78508347070093E761
:100F000007F82300F70068501946DA852105973065
:100F1000FE1FE780E0A583A781B68297835F440226
:100F20003D0593D73F0095072311F402BC5008D824
:100F3000138881CD639A07187C5018542387E700E3
:100F40001C547850A183A307F7007C500357A402D8
:100F50002388E7007C500347B402A388E7007C5055
:100F600058542389E7005C547850A183A309F70003
:100F70007C500357E402238AE7007C5003570402A5
:100F8000A38AE7007C5003572402238BE700835792
:100F900024027850A183A30BF7007C50035744022E
:100FA000238CE700835744027850A183A30CF700F9
:100FB0007C5003572401238DE70083572401785088
:100FC000A183A30DF7007C5003574401238EE70053
:100FD000835744017850A183A30EF7007C5003C7C8
:100FE000A40A238FE7007C5003C7B40AA38FE7004D
:100FF0007C5003C7C40A2380E7027C5003C7D40A8D
:10100000A380E7027C5003C7E40A2381E7028347F9
:10101000C4007850FD8BA301F70283474801785044
:1010200093968701E18663DC061A8347370293E7CC
:1010300007FEA301F702785083A781C4A1669386B7
:101040003630D8CB8347840003A741C592079387E6
:10105000C71C54C73CD3930700F82382FA00B1673A
:10106000938737305CC71305A0059730FE1FE780D4
:10107000A0E99730FE1FE78000E6EF50C00F93070E
:1010800030FB2303F40081B9E39807D46848834711
:10109000D40303473500E311F7D419469305E4035D
:1010A0001105EFF05EE7D5B32302040435B3E395F1
:1010B00007D20347D40383475404E31FF7D01946EC
:1010C000DA851305E403F1BF8346F80003464801BF
:1010D0009307E00493862602931586018586E185B1
:1010E000AD0663C90500137716009307000519E3E1
:1010F0009307200583A304053E95058A930E80027D
:101100009302204EB708C0A8370F40571E837D5E5C
:10111000631E0300E3E2C6E3835724028507C20788
:10112000C1832311F402E3E3F7FF39B50327030872
:10113000035B240263D80504B3005B02BD0093D0B7
:101140005000AA9063C9051863E31001FA90637513
:101150001704B307DB0311E6B3073B0393870704C8
:101160009D83AA97B380E74063C5050663E3170133
:10117000FA97B380E74063FEE7043387E840B300A3
:10118000F70081A8B300DB034DFEB3003B0393805F
:10119000000493D0700075B7B307DB0311E6B30703
:1011A0003B03938707049D83AA97B300F74063CC62
:1011B000050063E31701FA97B300F7406375F70082
:1011C0004697B300F74063F6D00093071B00231146
:1011D000F40263F3C001068E0323030015BF13F668
:1011E000070793F6370009CAE39706E483463702F8
:1011F0008607819BD58F35BDE39F06E28347370283
:1012000093E707FA3DB51307300B6393E708138B99
:1012100001F183471B00858BD9C7A3000B00EF109A
:10122000603FEFF06FC539C1185838DD18542324DA
:10123000E50858542326E50803570402A303E502F2
:10124000035724022314E502035744022315E50241
:10125000035724012316E502035744012317E5022F
:101260000347C4002302E502EF10A02A938441D172
:1012700003C5340093050010EF006F9903C53400D7
:1012800093050020EF00AF9823020400231304000D
:10129000B250225492540259F249624AD24A424B05
:1012A000B24B4561828083474B000547E315F7A2A7
:1012B00023020B00BC44B755550037C5898E03C6C1
:1012C000570093855555130565EDEF40D06F8D4759
:1012D000A303FB0015BEB3075B02BD079583E36262
:1012E00017E8D9B5411126C283A481EA138701F119
:1012F00006C622C40347B700938701F101CB83C61A
:10130000A7000D476394E600A385070003C7770095
:1013100095466305D70089466317D7002385E70004
:101320000547A385E700EF401065138441D10345CD
:10133000340093050010EF008F8D034534009305B2
:101340000020EF00CF8C238204002393040022446A
:10135000B24092441306100893050008014541016C
:101360006F10F05AB7170200938787C423A6F1EADB
:10137000828083270509411122C406C62A84638915
:10138000071813F7270019CBF59B2328F5080355F9
:101390004500194693050008EF107057832704098C
:1013A00013F7470021CBED9B2328F4088347340231
:1013B00093F7070491CB83274409228593E70740DD
:1013C000232AF408EFD03FF78347940199E7834736
:1013D000340293E71700A301F402035544000D46BD
:1013E00093050008EF10B05293070004231CF4008B
:1013F000230D04008327040913F7070139C7BD9B98
:101400002328F4088347F40303554400214689C781
:10141000A30F04021306000393051008EF10304FCA
:101420008347340293E71700A301F4028347E403E0
:1014300089CF8347040EC18B89CB8355C403228592
:101440009205C205C181EFD0FFD98327040913F7A4
:10145000072001CF0355440093F7F7DF2328F40852
:10146000314693051008EF10904A8327040913F7BB
:10147000070415C30355440093F7F7FB2328F4082A
:10148000114693050008EF1090488347340293E714
:101490001700A301F402832704091397470163553A
:1014A00007027D771307F77F03554400F98F232840
:1014B000F4081D4693050008EF1070458347340279
:1014C00093E71700A301F4028327040913F70740E9
:1014D00009CF0355440093F7F7BF2328F4081306F8
:1014E000700593051008EF109042832704091397A5
:1014F0002701635F07008347340283456404228524
:1015000093E71700A301F402EFE03F892300A4044E
:101510008347640085CF8327840F99CF8347640175
:1015200081EF03554400014693050008EF10303E5B
:1015300001E58547230BF4008357640381CB0355F2
:1015400044004D4693051008EF10703C8347340269
:10155000F1C7918B91CF0346D400C165938505A057
:101560002285EFD09FCD83473402ED9BA301F40287
:1015700083473402858B8DC3034514029307F00F14
:101580006307F500EFF0BEEBFD57A300F4028347BD
:101590003402F99BA301F40283473402898B89CF7B
:1015A0008355E402034524029205EFF05EF0834781
:1015B0003402F59BA301F40283473402A18B99CF37
:1015C0008355E4020D4622859205C205C181EFD004
:1015D000DFC683473402DD9BA301F4028347340254
:1015E00013F7070101CF0345040293F7F7F8A301AE
:1015F000F402EFF0DEE4FD572300F40283473402E7
:1016000013F7070201CF8355C4030345040293F780
:10161000F7FDA301F4029205EFF07EE98347840110
:1016200093F7070C99C722852244B24041016FE02D
:10163000EF95B240224441018280411122C426C26A
:1016400006C64AC0834765022A8485072303F5023C
:1016500083471501A1E38347850013070004A30B0B
:101660000500B19B93E737002304F5008347D500BD
:10167000A308E50005496397272583274509638B60
:10168000072213F7070829C793F7F7F7232AF50866
:10169000EF10603483477401638307148327040FBA
:1016A00003478400DC432380E7008327040F0347BC
:1016B0009400DC43A380E7000327040F83A781C4C1
:1016C0005843B240224498CB92440249410182805F
:1016D00013F7072015C78307B50163DC0700EF1078
:1016E000A03D8347B401858B89C7930720F8A306E3
:1016F000F4008327440993F7F7DF232AF40859BF3E
:1017000013F7270019C7F59B232AF508EF10604748
:1017100051B713F7470019C7ED9B232AF508EF10BF
:10172000C0018DBF13F7870019C7DD9B232AF50879
:10173000EF10C00B85B713F7074001CB93F7F7BF46
:10174000232AF508EF10C05AB1B713973701635A2F
:1017500007007D777D17F98F232AF508EF10C05D0C
:1017600015BF13F7070201CBEF10003083274409A0
:1017700093F7F7FD59B713F7070401CBEF10C0102B
:101780008327440993F7F7FB8DBF13F7071001CBAD
:10179000EF1060298327440993F7F7EFB9BF139738
:1017A00017016355070271777D17F98F232AF50812
:1017B0008347040E918B99C7BD452285EF10E050F9
:1017C000854749A02285EF106034DDBF13970701DC
:1017D0006358070261777D17F98F232AF50883275D
:1017E000840E034784002380E7008327840E034789
:1017F0009400A380E70083A781C40327840ED1B59A
:101800001397F700635E070041777D17F98F232A4E
:10181000F5088327050993E727002328F508C1B7B2
:101820001397E7006356070201777D17F98F232A84
:10183000F5088347050E918B89CBBD45EF10E04835
:10184000930720F9A306F400B1B5EF10202CCDBF0B
:101850001397D700635307023707FCFF7D17F98FF3
:10186000232AF5088347050E918B89C7BD45EF10E4
:10187000C0450DB5EF10802931BD13974701635B5B
:101880000700EF10C049832744097D771307F77FCE
:10189000F98FA5B51397C700635B07003707F8FFFB
:1018A0007D17F98F232AF508EF102051E5B3232A7D
:1018B000050835B7EFD05FAEE30E05DC2285EF10EB
:1018C000A056C9BBE5DF13075007638EE718636AAC
:1018D000F70813079004638CE7166369F70413078E
:1018E00030036386E716636CF70013070003E39782
:1018F000E7FCEF003076D9472303F40461BB1307FC
:101900005004E38DE7FA13078004E399E7FA228590
:10191000EF1080518347E400DD9B2307F400832709
:10192000040993E707012328F40859BD130730067B
:10193000638CE7146369F700130730056388E712C7
:1019400013075005D9B7130750066384E71413072C
:101950004007E395E7F68547A30FF502EF00D07245
:1019600015BB1307300A638EE7186362F706130787
:101970009009636FF7021307800963F1E70C1307FF
:1019800050086389E71413073009E399E7F28347A6
:1019900005047947E38EE7E00549639527078357F8
:1019A000650603578506BA9785872315F50485BB19
:1019B0001307A009E394E7F003470504F947631E02
:1019C000F704EF10A0148547A306F4008DA01307B9
:1019D000300B638BE7126369F7001307500AE36F5C
:1019E000F7ECEF106044C5B71307400B638BE712A9
:1019F0001307500BE394E7ECEF1000438547A30671
:101A0000F4003DA2EF10404283270409A3062401FD
:101A100093E727002328F408B5B9835765060357D1
:101A20008506BA9785872315F504EF001051834783
:101A3000340293E71700A301F402A9B9835765069E
:101A400003578506BA9785872315F504F9BF2285C4
:101A5000EF10803D832704090967A3060400D98F8E
:101A60002328F40805B9EF1000032DB18D47230F8B
:101A7000F5022320050C2322050C2324050C232624
:101A8000050CEF00D07039B1EF00F079A306240106
:101A900011B18347C5130347B513A207D98F6D470B
:101AA000637DF7008347050E93F7070299C78327E5
:101AB00045090567D98F232AF5082285EF10C0361E
:101AC0008547A306F400832704092300040493E751
:101AD000070489B7EF1040358347B401858B99CB54
:101AE0008327040923000404A30D040093E70720BF
:101AF0002328F4088347340293E71700A301F40274
:101B0000C1B1EF10C02159B7EF10202B8327040972
:101B1000056713070780D98F230004042328F408DE
:101B2000B5B7EF1060308547A306F4002300040426
:101B300083270409056713070780D98FE1BD7971F1
:101B40004ECE938701E622D4A04F26D252CC56CA5D
:101B5000A16A316A4AD05AC85EC606D6938901E6A0
:101B6000938401F1138B3A30130A3A308347C4004F
:101B70001307100C6397E71283C74400858BFDD7CA
:101B800083A741C598430D8B05C3B84B619BB8CB68
:101B900098431367870098C39C438D83858B89C7BF
:101BA000010001000100010083A741C51307A00542
:101BB000B70600F9B8CB1307000AB8D37D47D8C3DE
:101BC00083A741C4FD162285984F758FB706000282
:101BD000558F98CF984F137737F81367870198CFB1
:101BE00083A681C5D856759BD8D603472401937622
:101BF000F7079843137707F8558F98C3032784088E
