:020000021000EC
:100000006F50127E0000000000180118002801281F
:100010000228032800290129022903290429052986
:10002000062907290829002A012A022A032A042A64
:10003000052AA62A686A0300101F01003603002063
:10004000DC1F0100701F01005E1F0100FE02002086
:10005000162101004221010084210100F823010042
:1000600080240100AC1D0100D81C0100421D0100CC
:10007000041D0100C62801008E0400200C2101008F
:100080001C2601006616030038180300B018030090
:10009000D2D20200E2D20200183F02006A3402000B
:1000A000BA1003005226010038DB0200E2D301003F
:1000B0006CD40100C4D401000E2E01005A2E0100A0
:1000C000C42C01005A910100508C0100B89A010023
:1000D000889E010034A20100807E01001E7E010086
:1000E00012820100CC7E0100F47D0100787E0100C7
:1000F000A67D0100507F0100A87F0100587F01000C
:100100005C7F0100F67F0100B07F0100E27F01000B
:100110000E850100168501004C7F0100547F01000F
:10012000F47F010012850100AE8001004A860100C3
:1001300078B00100F6B0010034B101007A930100FB
:1001400092930100CE930100267801000679010008
:100150006E790100504C01009E470100626E010063
:1001600018480100D6690100E6430300F840030087
:100170002A4C0300085B0300E2590300E25D030020
:10018000CA5D0300DA5D03007A5E03008C2F030072
:100190000A5E0300A8510300CE510300F65103008C
:1001A000EA5E0300F45703008A5703005A5F030016
:1001B000EE3103008E320300B632030058320300E2
:1001C000AEF402007EE102000AE5020048E202000D
:1001D00066EA02005A11030040100300C02F03001A
:1001E000C82901008ED4020018DB020010DC0200D6
:1001F00060090300000A0300E00A03007897010089
:100200005CF40200E6EA020018F1020072ED02005E
:1002100036E10200FE240100A0D40200065E0300C5
:10022000CE5D0300D65D0300D25D0300862301008E
:10023000CC94010062F60200B4F7020014F8020048
:1002400021670507AA876399E50037270020034740
:1002500087B3014569EB82800145E9CBE1C98D0790
:10026000C207C183F19BC207C18313074003636CBC
:10027000F70237270020032547C5372700208326AC
:10028000C7C46397A60237270020032747CD01453F
:1002900051CF4111C20706C60545DD8D0297B24018
:1002A00001454101828037270020032507C5F1B7AA
:1002B000035765003DE7035745006364F706B3063F
:1002C000F7402148372600206378D80283280500AC
:1002D000032886C5938687001D8FAA96611723A0E1
:1002E00016012392E6002393060014C1130788FF2A
:1002F0002312F500232CE6C421672313B50005075C
:100300006399E500B726002003C786B37D17238CC9
:10031000E6B2832586C52105B387F540232CF6C4B4
:1003200082800841B9BF01459DFB8280828009CD52
:10033000B727002003A347C5B727002083A8C7C459
:1003400081469A8763E31701828003A807006363ED
:10035000F50A6361A80A13878700E367E5FE03D601
:100360006700216705076319E60037260020034769
:1003700086B30507230CE6B237270020032687C57E
:1003800083D54700239307002E96232CC7C4638789
:10039000670237250020032505C56301F50203D553
:1003A000660009ED83D7460023A006012106BE950D
:1003B000A1052392B600232CC7C4B6879443E385D6
:1003C00016F937260020032606C5E38FC6F603D6A6
:1003D00066003DFA03D6470083D5460094422106C5
:1003E0002E9694C32392C700832787C5A107232C89
:1003F000F7C48280BE86C287B1B701114AC83729C7
:100400000020930789F606CE22CC26CA03C77700C0
:10041000914763E0E710B727002083C747F9918B26
:10042000EDEBB7240020938704C683C61700B727D7
:10043000002003A6C7C9130989F68147938404C61F
:1004400063C2D70637240020930744CA83C7370105
:10045000D844130444CA636EF70A6800974002E068
:10046000E780E0BCFD576304F50C83473401324755
:1004700063F1E70AD844634F070209213247DC449D
:100480006373F700BA8703473401998F3E9583075A
:10049000440163C60702B707C0A86362F502B70745
:1004A000405761A01397170032970357070035E3B1
:1004B000850779B703074401635307061D8D83271A
:1004C000890199CBB727002083A687FA3707CDFF8C
:1004D0007D179C46F98F9CC619E13705C0A85C5072
:1004E000829701ED832789018DC797E002E0E780BD
:1004F00040CC97D002E0E78080128327890191CB1E
:10050000B727002003A787FAB70633001C47D58F0B
:100510001CC7F2406244D244424905618280E37FB5
:10052000F5F83707C0A8B307F7403E9549BFDC444C
:10053000E3C107FEA12603473401DC44B9B719CD56
:1005400091CD09CE81473387F500834607003307F5
:10055000F50085072300D700E397C7FE828019C9FD
:1005600091C909CA910583A7C5FF11057D16232EE0
:10057000F5FEC5BF8280854715C18DC105C2814783
:10058000B306F5003387F50083C60600034707006E
:100590006398E6008507E315F6FE85473E85828071
:1005A0008147EDBF797152CC372A002022D4032431
:1005B0000ACA06D626D24AD04ECE56CA5AC85EC6F7
:1005C00062C479C4B7290020372900208144B72BA1
:1005D0000020938949CA130909C6B70AC0A8370B76
:1005E00040578357240089EF5C4489E82320FACAE6
:1005F000032CC4002285253B628441A0DCC4CDBF0E
:1006000083A78BCE82971C44636DF5023307F540B8
:10061000635C070203A7490209CF03874901635DB1
:1006200007003387A7408327C9006374F700232698
:10063000E900A284404491A00147E386A7FED69733
:10064000CDB7898F63D80706232609008355240078
:1006500003450400972001E0E78020D05C40584427
:10066000A1C71444B6978386490163C5060063E3B6
:100670005701DA971CC4A2843A8425F4B7270020D6
:10068000938707C6D847914663F0E6047117D8C729
:10069000B250225492540259F249624AD24A424B11
:1006A000B24B224C4561828081E42320EACA89B79B
:1006B000D8C43DBF03A749022DDF0327C900E3FAD1
:1006C000E7F62326F900B5B723A60700D1B7011135
:1006D0004AC837290020832749C806CE22CC26CA1B
:1006E0004EC652C481C78297232209C8930749C8BE
:1006F000DC4391C38297832749C863900714B724CA
:100700000020938784F683C75700938484F6858BF3
:10071000DDCB03C77400A3820400914763F0E702B6
:10072000EF00B06C83C77400F51713972700B72745
:100730000020938747C8BA979C43829737240020AC
:10074000B7270020930604C603A7C7C903C616002F
:100750003E8A930904C6834704C693961700BA9647
:1007600083D60600B5CA834704C663EFC70683274E
:1007700049C8230004C6F1E383C7940091CB83C723
:10078000740099E7A384040097D002E0E780002A70
:10079000B727002083A787CECDC3FD5723A6F90036
:1007A0001135B727002083A787CC91C3B931B7276C
:1007B000002083A747CED1C3829783A709013E9526
:1007C00023A8A9009DA8B727002083C747F9918BCC
:1007D000B5D7EF10E0319DB7850793F7F70F2300EA
:1007E000F4C6E3EAC7F641B786073E97835507008C
:1007F00023100700034504C6B727002083A707C8B6
:1008000013172500BA979C438297834704C6139712
:1008100017008327CAC9BA9703D70700598D2390B9
:10082000A700834704C681C785072300F4C6034792
:1008300004C683C71900E37CF7F2F2406244D24455
:100840004249B249224A05618280AD6737C70040FC
:10085000BD072326F7200F100000B727002093873D
:1008600007C6884F83278726BD66BD0693C7F7FF57
:1008700099836A052326D7205D8D82804111B717A1
:100880000040985F3AC6945F3247E39CE6FE3245EB
:10089000410182800327850F19E305458280834744
:1008A000C50093F7C70F2306F5000346870083565C
:1008B000C70093158601E18563D8050A13781600F1
:1008C0008355E5186302080613E617002306C500E2
:1008D00063F8D502372600200348A502034656CB0D
:1008E000A30AB5006376C80093E717012306F50055
:1008F0008D8E2316D7008547A30CF5000145828015
:10090000104309CE372600208345A502034656CB67
:1009100063F6C50093E717012306F500A30AD50087
:100920008947A304F700C1BF13E827002306050188
:10093000E3F5D5F68D8E130810F813661600A304A0
:1009400007012304C7002316D7003727002083465A
:10095000A502034757CB63F6E60093E7270123067A
:10096000F500A30AB50041BF054893E527006314CD
:10097000060193E517002306B500A30AD5008947B1
:10098000A304F7001C43A5DBB72700200347A502FB
:1009900083C757CBE371F7F693E505012306B5004E
:1009A00099BFB727002083A707F3411122C406C6C9
:1009B000858B2A84C5EB4165130525F5974002E038
:1009C000E780403F45C18347A5002315F5008327F5
:1009D0000410BDE32320A4102322A4108547231C68
:1009E000F402232005008347640154412316F500D7
:1009F0000347D4002304E50037270020032707F826
:100A00001385170215811C437D151375F50F9CC2C4
:100A10005C43DCC21C479CC65C47DCC61C4B9CCAC2
:100A20005C4BDCCA1C4F9CCE5C4FDCCE19CD938650
:100A3000060213070702C1BF8327441088C38357E8
:100A400084032322A410850759BFB727002093876A
:100A500007E403D7070205072390E702B2402244C8
:100A6000410182808347C40023090400054593C7E0
:100A700047002306F400DDB78347E50193F7E70F4E
:100A800091CB014582800145B24022449244024903
:100A9000410182808347F501EDF783462501034735
:100AA000C50089CAB72700200346A50283C797CB94
:100AB0006367F60093770701E9D7814789C6418BC1
:100AC0008357C51801C703570519BA97DDDB4111D4
:100AD00037270020930647CA06C622C426C24AC04A
:100AE00083C64601130747CA139686016186635B76
:100AF00006049387C71313D45700B72700208344F5
:100B0000E70183A687EC7D59B705C0A883A74608EF
:100B100003D78607635A06043387E74063732701C8
:100B20003A899442E5F6B727002083A787CE8297BB
:100B3000E36BA9F43305A9402694333485001345AB
:100B4000140099B7858A9387C71289CA8A071384C4
:100B5000F7039307D0073354F40245B7860713848D
:100B6000F7019307D003C5BFE3F8E7FAAE976DB777
:100B7000B7260020938706E403A78708630C074481
:100B8000797126D2B7240020938744CA06D622D48E
:100B90004AD04ECE52CC56CA5AC85EC6938606E498
:100BA0008388470183A5060901457D58938444CA7B
:100BB0003703C0A8032647088357870763DA08105E
:100BC000B307F64063F50701BA853E88054518432B
:100BD00075F319C123A8B60803A406098569372946
:100BE0000020370AC0A8B70A4057054B9389B94778
:100BF000832789CE832B44088297637A752D83C718
:100C0000E40103578407B38BAB40BA9763EC771FBB
:100C100083574403A30E040022858507231AF40298
:100C200083470412D5CB99292285973002E0E780CB
:100C3000E06841E5838644012305040283274408D4
:100C40000355840763DC0608B389A740032704081B
:100C5000232E3407BA9763C90600B706C0A863E518
:100C6000D700B7064057B6978346B4002322F4084E
:100C70008547639DF606835724070356040363677D
:100C8000F606034604016313D6068326840FB9EEE5
:100C900083268409A1EE0346F4009306000C631733
:100CA000D604B387E70203278408B3D7E70203C754
:100CB000D4010507BA97231CF406B250225492546B
:100CC0000259F249624AD24A424BB24B4561828094
:100CD000E378F6EE1A96EDB5FD2CB9B7E3F6A7F674
:100CE000B709C0A8BE99B389A9408DB7832789CE1B
:100CF000829783C74401139787016187635A070866
:100D00003385A94069C5832604086372D50C6357EF
:100D100007081605B717004083C7F702E207E18707
:100D200063C30700411537270020832647F8B567BE
:100D3000BD07DCC60F100000832747F806050967CA
:100D4000E8D398C737270020930600F8130787F6E3
:100D50002302D7003D673D07D8C797D002E0E78060
:100D600020CA97D002E0E78020D60347B400854729
:100D700081456313F70437C502001305A53C97208E
:100D800001E0E780009E930700FD2307F40035B7DC
:100D9000E3F8A9F6B706C0A8B6999DB7858B99C7A1
:100DA0009307803E3305F5021581ADB79307D00355
:100DB0003305F5020581B9BF377502001305C5B6C5
:100DC000972001E0E780E099930710FC7DBF03477F
:100DD000B400854703A304036317F7009545E30EAA
:100DE00003EC154529A0E30A03EC95451945225467
:100DF000B25092540259F249624AD24A424BB24B23
:100E00004561028363D60B06835744032285850719
:100E1000231AF40283470412B1CB8D242285973024
:100E200002E0E780A0490327040883274408BA9713
:100E3000038744016345070063E34701D6972322F4
:100E4000F4088347B40063976701228597B002E0F6
:100E5000E78060278347D40185458507A30EF4000A
:100E60009C58E38707D81545829759B3AD227DB7C3
:100E700003C744018357240393168701E1868E0735
:100E800063D706021307204EB387E7029583E3F684
:100E900077E3A1452285973002E0E780A03923025D
:100EA000A40203A304038945E31D03F239B5058BAE
:100EB00011C713078002B387E702D1BF0567130785
:100EC000B747B387E702938707049D83C9B703C772
:100ED000440183572403B30B754193168701E186C0
:100EE0008E0763D0060A1307204EB387E702958367
:100EF00063F2FB0C832789CE829783574403AA8B26
:100F000022858507231AF40283470412C1CBBD2230
:100F10002285973002E0E780603AE31005DA032784
:100F2000040883274408BA970387440163450700F0
:100F300063E34701D6972322F4088347D40113F7CC
:100F4000070F39CF2285973002E0E78060EDA30ECE
:100F5000040083274408E3FFFBF88347B40063954C
:100F600067050357240783570403E3F3E7C8228583
:100F700097B002E0E78020159C58E38B07C68D45AB
:100F8000DDB5058B11C713078002B387E7028DB764
:100F9000B3873703938707049D8399BF2D288DBF9F
:100FA0008507A30EF40075B79C58E38307C48D45ED
:100FB00019455DBDE3C30BD0A1452285973002E002
:100FC000E78040272302A40203A30403E30703CE20
:100FD000914501BD8280797126D206D622D44AD0AD
:100FE0004ECE52CC56CA5AC85EC6834785020344C9
:100FF0007511AA843E941374F40F9307400263F6AC
:1010000087001304B4FD1374F40F03AA841183AA98
:10101000C411A38B841022865285D685975003E095
:10102000E780E028058915E503CBD4100149814903
:10103000337B6403930B50024A865285D6859750C2
:1010400003E0E780C026058915C563916903137421
:10105000F90F238B8410B250225492540259F24952
:10106000624AD24A424BB24B456182808509E2090D
:1010700093D989410509E31179FDE1BF8327C508AB
:1010800003564503797193D60701BD8EC206C1820E
:10109000358E1357764093575640898B058B5D8F5D
:1010A00093573640918B5D8F93571640A18B5D8F80
:1010B00093171600C18B5D8F9317360093F70702C5
:1010C0005D8F931756009355860093F707041E060D
:1010D0005D8F1376F60F518F93D7554013D6354059
:1010E000118A898BD18F13D67540D18F13D61540B5
:1010F000218AD18F13961500418AD18F139635001E
:1011000013760602D18F13965500137606049E05BA
:10111000D18F93F5F50FCD8FA20745465D8F33072D
:10112000C70222D42A8426D252CC56CA032A84115A
:10113000832AC4115AC806D636974207418393576B
:101140007740135557400989858BC98F1355374010
:101150001189C98F135517402189C98F131517009D
:101160004189C98F1315370013750502C98F1315EF
:10117000570093558700137505041E07C98F137711
:10118000F70FD98F13D5354013D755401189098BE7
:10119000498F13D57540498F13D515402189498F43
:1011A000139515004189498F139535001375050274
:1011B000498F13955500137505049E05498F93F5C6
:1011C000F50F4D8F2207D98FB387C7024AD04ECE75
:1011D0005EC662C4B697C207C18313D7774013D5E2
:1011E00057400989058B498F13D537401189498F9D
:1011F00013D517402189498F139517004189498FCD
:101200001395370013750502498F1395570093D531
:101210008700137505049E07498F93F7F70FD98F41
:1012200013D5354013D755401189098B498F13D5F4
:101230007540498F13D515402189498F13951500A5
:101240004189498F1395350013750502498F139510
:101250005500137505049E05498F93F5F50F4D8FC5
:101260002207D98FB387C702130650025285D6854D
:10127000B697BD8E93940601C18033F6C402137BEA
:10128000F60F975003E0E780800205890DED834754
:10129000D41001498149B3849702130C5002C180D4
:1012A0004A865285D685975003E0E780400005893D
:1012B000937BF90F11C563863403850993F9F90F00
:1012C0000509E31F89FD230B6411B2502254925487
:1012D0000259F249624AD24A424BB24B224C456112
:1012E00082805E8BCDB70111B727002022CC03A4EA
:1012F00047EF26CA4AC84EC606CEAA84130925005F
:10130000854915C083C7140003473400858B6304E7
:10131000F700405CFDB71946930544004A85EFF09D
:101320008FA5E31835FF2285F2406244D24442493A
:10133000B249056182804111B727002022C403A46D
:1013400047EF26C24AC006C693042500054901E8B6
:101350002285B24022449244024941018280A685FE
:101360001305A402978002E0E780C065E30225FF31
:10137000405CF1BF4111B727002022C403A447EF0E
:1013800026C24AC006C693042500054901E8228505
:10139000B24022449244024941018280A68513054D
:1013A000A401978002E0E780E061E30225FF405C52
:1013B000F1BF0111B727002022CC03A447EF26CAB2
:1013C0004AC806CE2AC42EC6B284054919E0014592
:1013D0003DA003479100834734006318F702194684
:1013E000930544001305A100EFF0EF98631F25015A
:1013F000A6851305A402978002E0E780A05CF24076
:101400006244D244424905618280405CC1B7011107
:1014100022CC405D26CA4AC84EC652C406CEAA8413
:101420001D499309E504054ABC406364F400054581
:10143000B9A003C7D40083474400631A2705638417
:1014400027010040D5B70347540083C7D404E31AEB
:10145000F7FE1946CE8513056400EFF0CF91E31235
:1014600045FF8357E4000357C400C207D98FD85003
:1014700093F707F0137707F0E395E7FC0145F24097
:101480006244D2444249B249224A05618280E31A49
:10149000F7FA0347540083C7D404E314F7FA194654
:1014A000CE8513056400EFF00F8DE31C45F9F9B705
:1014B0000111B727002022CC03A4C7EE26CA06CE0E
:1014C0002AC42EC6854419E40145F2406244D24440
:1014D0000561828003471400834791006304F7008D
:1014E0000044D5B719469305A10013052400EFF079
:1014F0008F88E31795FE0545C9BFB726002003A7CF
:1015000006F4411126C41C5F4AC222C69983858B0A
:101510003689B7240020A5C71C5F3724002093F725
:10152000F7F91CDF834784F6130484F693F7070466
:1015300099C7B727002083A787CE829708C8854719
:10154000A302F4008347440093F7070499EBB727FD
:10155000002083A747F85844F8D3930700FC2302E0
:10156000F4008347640013070008631AF70083A799
:10157000C4F39C439983858BA5E723030400832749
:1015800009F4985F1183058B19CB985F85463D9BC5
:1015900098DF37270020130787F62302D700985FCC
:1015A0001D83058B01CF985F1377F7F798DFB72777
:1015B0000020938787F605472382E70083A7C4F3BB
:1015C000D8430583058B19C7D843759BD8C3D84327
:1015D000799BD8C33244A2441249410173002030A0
:1015E000930700FC2303F40059BFB726002013879C
:1015F00086F683C786F6858B89EB83471700858B34
:1016000089E783474700858BEDD782803727002005
:10161000832607F49C5E9583858BDDEB09C69C5A77
:10162000BD832300F600DDC583461500C5C6411104
:10163000B727002006C6938787F603C66700930581
:10164000000C638FC50083C56700B727002083A700
:1016500047CD1305300882970945B2404101828089
:10166000369583479500854613F6F7066309D6003D
:10167000B727002083A747CD9305D00FD9BFE20736
:10168000E1870945E3CB07FC832707F4985B46070E
:1016900093576701635B070293E707C01387970FB0
:1016A000420741839306201F0145E3E8E6FAB72687
:1016B00000209386A6B40397060009C7BA97094786
:1016C000B3C7E7022390F60049BFC207C187F9B745
:1016D00005458280832707F4985B46079357670187
:1016E000635B070293E707C01387970F42074183A5
:1016F0009306201F014563EFE600B726002093867E
:10170000A6B40397060009C7BA970947B3C7E7020B
:101710002390F6008280C207C187F9B741E5B72759
:10172000002083A647F8411122C406C62E873E84B6
:10173000FC52FDFF3A85B28597C002E0E780800A3F
:10174000B727002083A707F4B70680009843558F7A
:1017500098C3D857719BD8D7832744F8094798C3B3
:10176000B7F700E003A707D16D9B23A8E7D003A735
:1017700007D15D9B23A8E7D073005010B727002046
:10178000938787F603C72700058B09EB03C737004C
:10179000058B09E703C74700058B6DD7B24022448C
:1017A000410182808D47631FF502B727002083A780
:1017B00007F4B70680009843558F98C3D857719B9C
:1017C000D8D7B7270020938787F603C72700058B54
:1017D00051E303C73700058B35EF03C74700058B7F
:1017E0006DD782808547E31EF5FCB727002083A6CE
:1017F00047F835673D07D8C60F100000372700208F
:10180000832607F40946984231830D8B6317C7027C
:1018100003A747F89306E04374D303A747F8896703
:10182000930600F81CC7B7270020938787F623820A
:10183000D700BD67BD075CC769B7984283A647F864
:1018400031830D8B09E713076019F8D2F9B7130735
:10185000E01BE5BF82805D712AC62EC486C697C094
:1018600002E0E780E01997C002E0E780E025B728B2
:10187000002083A708F4372300203706330023A471
:101880000700984B370EFCFF370F04001367F70370
:1018900098CB9843914F7D1E1377F7E798C39843F1
:1018A0008542930E80021377F7E71367071098C3FA
:1018B000832683FA32459846518F98C637270020F1
:1018C000032747F89306900D014634CB1377F51F95
:1018D000E84FF576FD16137505E0598DE8CF98436E
:1018E000758F98C3A245814703A708F4032883FA9C
:1018F0009376F60F231C0704231007060325C8025E
:1019000075992326A802032807001375F607137894
:1019100008F83365A80008C348533365E50148D388
:1019200003558705E3FEAFFE48533375C50148D321
:1019300003570706280832951377F70F2300E500B1
:1019400019EF13D736002E97034507009D8AB396EB
:10195000D2008507C98E93F7F70F2300D70005063D
:10196000E314D6F985461148854813038002636362
:10197000F80401468147280832950345050013778E
:10198000F60F63E1A602135537002E95034E0500AE
:101990001D8B3397E80085073367C70193F7F70F6F
:1019A0002300E5000506E31866FC850693F6F60FAE
:1019B000E39F06FBB64061618280B726002037278F
:1019C0000020938786F8130687F40346B60183C781
:1019D000D700938686F8130787F4B29793F7F70F2B
:1019E0007D466361F604A300F70083471700484B68
:1019F00005463316F600A386F600698E05EE03C68B
:101A0000160113080002814633F6C7028147B35519
:101A1000F500858993F8F70F99C96317D600A300DD
:101A2000170182808117C1B7850693F6F60F8507E7
:101A3000E39F07FD8280B727002083A787CE01118F
:101A400022CC26CA52C406CE4AC84EC656C25AC076
:101A50008297B7240020938784F88047014A630661
:101A6000A406B7270020138747CA030747019384BA
:101A700084F8138947CA63550706018D372700206C
:101A8000930787F483C7A70113545500137AF50110
:101A9000930987F46368F402B70AC0A8370B40576C
:101AA000293F83C6A9019C44139756003E9783079C
:101AB0004901158C63C50700636357015A9798C4A1
:101AC000E370D4FE1604336A4401F2406244528546
:101AD000D2444249B249224A924A024B056182806D
:101AE000E37D85F8B707C0A833848740229579B78E
:101AF000B727002083A787CE411122C44AC006C65B
:101B000026C2829737290020930789F88047630807
:101B1000A406B7270020838787CB130989F863D8E9
:101B20000704018DB7240020938784F483C7A7019D
:101B300013545500938484F46363F404BD3D83C758
:101B4000A401032789009396570036971D8C232400
:101B5000E900E375F4FE224403C51400B240924448
:101B600002498145410117F302E0670083C8E37A27
:101B700085FAB707C0A833848740229565B7B2407D
:101B800022449244024941018280B727002003A7E2
:101B900087FAB75702009387079F83260709139692
:101BA00056006358060083260709139666006344AF
:081BB0000600FD17FDF3828021
:101BB800B72700203727002083A747C50327C7C4B6
:101BC80001456313F700828083D6670081E683D6D8
:101BD800470036959C43F5B7B727002083A547CA29
:101BE80037270020938747CA13860522232AC7C4AC
:101BF80003D74700938785FFB72600204111BA977E
:101C0800056523A6F6C406C61D05935637006374FA
:101C1800E500930600203307D60037250020232847
:101C2800E5C423A0E522E1162312D60023130600FB
:101C38001CC3998FE1172312F700231307008D3F68
:101C4800B240B727002023ACA7C441018280B72740
:101C580000203727002083A747C58326C7C401452E
:101C68006393F600828003D7670011E703D7470024
:101C78006373E5003A859C43E5B7B7270020B7268C
:101C8800002083A747C503A6C6C42A87B305B54065
:101C98006314F6003A8529A8938687009C43E36974
:101CA800D7FEE377F7FE2E85E3E4D5FEE3F2F5FEF3
:101CB800828023AC05FE1C4191E7010001000CC1A4
:101CC8008280BA8703A787FF6DFF23ACB7FE8280A7
:101CD8001DC18346E5FF1307F00F9147639EE60099
:101CE800411106C697E0FE1FE7802040B2408147B9
:101CF8003E854101828095473E85828001E9014504
:101D080082800145B240224441018280411122C4AF
:101D18002A84210542059305D004418106C697E02F
:101D2800FE1FE780A02D71DDFD572320050023123B
:101D380085002303F5002105F1B7411126C2B72418
:101D4800002083A7C4C522C44AC006C6014401496D
:101D580089E7A165712D15C401A803C7E7FF6319B9
:101D6800A70205CCA165652603A7C4C5832784FF00
:101D78006317E40223AEF4C4FD57232C04FE230F9B
:101D8800F4FE2285B24022449244024941018280F5
:101D980011E03E8983A787FF65BF3E84E5BF232CFA
:101DA800F9FED9BFB1CDB727002083C717C64111A7
:101DB80022C406C62A842E856375F400894763E821
:101DC800870039370D45B24022444101828083A7FC
:101DD80085FF99E703C7E5FF9307F00F6305F70051
:101DE800C53D1545CDB737250020238F85FE130542
:101DF800C5C5C13522852244B240A165410101AE65
:101E080015458280B727002023AE07C48280B727F4
:101E1800002083A707CA99E33E85828003D727005D
:101E28006316B70003C70700E308A7FEDC47E5B75A
:101E3800B1CD011106CE22CC26CA8147C14633D77F
:101E4800F540058B1DCF372700201205832407CEC8
:101E58003E950E05AA9405443314F4009C404204B0
:101E6800418089C7C8402EC68297B24523A0040086
:101E780023A20400A18DF2406244D2442E8505615C
:101E880082808507E39DD7FA0144EDB72E858280CD
:101E980041111397050122C406C626C24AC04187CC
:101EA8002E84635E0700513D11C11D35A1673D8C2D
:101EB8002285B24022449244024941018280EDD9F0
:101EC800AA8701474146B356E440858A8DCAB7269A
:101ED800002003A906CE9207BA978E073E9985443B
:101EE8008327090003254900B394E400C2048297BC
:101EF800C1802320090023220900258C55BF05072E
:101F0800E313C7FC8144D5BFB727002083A747CC7C
:101F1800411122C406C637240020130484A785C7AC
:101F2800829708C00840B74703009387D73F330517
:101F3800F502B7A72600938737ECB2403E9508C054
:101F4800224441018280B7270020184083A707C791
:101F5800BA971CC0C1BF01C919C62A960505A30FA7
:101F6800B5FEE31DA6FE828081473307F50003070F
:101F7800070019E33E8582808507C5BF01112E86BB
:101F880026CAAA84131506019305F004418122CCC0
:101F980006CE32C697E0FE1FE78040062A8419C5A0
:101FA8003246A68597E0FE1FE78020352285F2405D
:101FB8006244D244056182809307F6FFBE952A9653
:101FC8006313C5008280FD1583C715000505A30F9F
:101FD800F5FEFDB7AA87014581CF09CE3E96850754
:101FE80003C7F7FF6317B700E31BF6FE05458280BA
:101FF80082800145828063050510B727002083A7EA
:1020080087CE797122D44AD04ECE52CC56CA5AC8FD
:1020180006D626D25EC662C466C23A8B368A328437
:10202800AE8AAA898297B7270020138747CA030771
:102038004701138947CA635707003305A440635B08
:10204800050001A0E37BA4FEB707C0A8A2973385CB
:10205800A740F5B7B727002003A707CEBE8B81445A
:10206800C147139C3400B3068701944293FCF40FD4
:10207800D9E2C165938505F0414597E0FE1FE780E9
:10208800E0F715E58327090399EF0145B25022547B
:1020980092540259F249624AD24A424BB24B224CFC
:1020A800924C45618280814511458297F9BFB727D7
:1020B800002003A707CA05EF23A0A7CA230005002D
:1020C80083A70BCE0547B31497002326050000C548
:1020D8002311950023226501E29723A0370123A24B
:1020E8005701E3040AFA23009A0145B73E875C4783
:1020F800F5FF48C7E1B78504E395F4F6214579B7BC
:1021080009458280B727002003A507C78280B72723
:10211800002083C717C66370F5023727002093177E
:1021280015000325C7C93E9583570500DD8D23108B
:10213800B500014582800D458280B727002083C7FE
:1021480017C66372F5023727002093171500032579
:10215800C7C993C5F5FF3E9583570500FD8D23102C
:10216800B500014582800D458280B727002083A7EE
:10217800C7C90605AA9703D507008280B72700209C
:1021880083C717C66364F50001458280B72700201E
:1021980083A787CE011122CC26CA4AC84EC652C48C
:1021A80056C206CE372A00203284AE89AA84829786
:1021B80093074ACA83C747012A89130A4ACA939AC6
:1021C800870193DA8A4163DD0A02930510273305F4
:1021D800B4023334B40215816E04418D2A9963C95F
:1021E8000A00B707C0A86365F900B70740573E99CA
:1021F800CE852685293905C523242501054589A0CD
:10220800858B89C751453305A402C9BF65468146F8
:102218001315940093557401EF30326AC1B793E5F2
:1022280004F0C205C181414597E0FE1FE78000DD4B
:102238000DE183270A0381C7A685114582970145C9
:10224800F2406244D2444249B249224A924A056164
:10225800828037270020832707CA95E32320A7CA4F
:102268008547232605002324250123113501230052
:102278009500A300F5002322050049B7BA87D8477F
:1022880075FFC8C7F1BF9307F00263EDA704B7272E
:10229800002083A707CE13173500BA979C43094738
:1022A800B9C3011126CA9354450022CC2A84268535
:1022B80006CE2EC65D3D9377F4003355F54005896B
:1022C8000947324611E90545B317F500939507010B
:1022D800C181268565350147F2406244D2443A857A
:1022E8000561828009473A85828041C9797122D483
:1022F80026D24AD04ECE52CC56CA5AC85EC662C4FE
:1023080006D6B689B28A2E8A2A89930400084144DF
:10231800372B0020054C930B000383270BCEA69781
:102328009C43A1E79375F400B315BC00C20556861B
:10233800C1811355440099350DC983270BCE01453A
:10234800BE9423A0240123A24401638409002380AE
:102358008900B250225492540259F249624AD24A30
:10236800424BB24B224C4561828005041374F40F32
:10237800A104E31474FB2145E9BF0945828041119A
:1023880022C426C24AC006C6AA842E893284FD33D6
:10239800CA852685AD3C39C9B727002083C787CBB6
:1023A800AA8413978701618763530702930710274D
:1023B8003305F4023334F40215816E04418DC8C02C
:1023C8000145B24022449244024941018280858BF2
:1023D80089C751453305A402DDB765468146131503
:1023E800940093557401EF30524DD1BF2145D1BFB0
:1023F800411122C426C24AC006C6AA842E89013CBD
:102408002A8419C123110500CA8526853D33014553
:1024180011E01945B24022449244024941018280A8
:102428009307F00263E7A704411126C2B7240020EE
:1024380003A704CE22C41314350022971C4306C6F2
:10244800094795C39377F5008545B395F500C2050F
:10245800C1811181713F83A704CE0147A29723A0B0
:10246800070023A20700B240224492443A85410162
:10247800828009473A858280411106C622C4413AC2
:1024880011E50145B240224441018280B72700206E
:1024980083A787CE00458297B727002083C787CBBD
:1024A800139787016187635307023305A440E34A02
:1024B80005FC63530702F947B335F50213061027E5
:1024C80081463305F502EF30523F6DBFE37FA4FC30
:1024D800B706C0A83694D1BF858B89C7D147335575
:1024E800F5024DB76547B307E5023335E502A58325
:1024F8005E055D8D41BF82804111B727002006C669
:1025080023A2A7CE0295B240B727002023AAA7C6C8
:10251800014541018280954763E9B700B72700204C
:102528008A05938747C8BE9588C18280411106C62F
:1025380022C426C2EFF04FEA3725002061468145C4
:10254800130545C8093C372400201306000213056B
:1025580004C681450934B727002023A007CAB72736
:10256800002023A207CEB727002083C707CC130477
:1025780004C69305101013D527008D8B3E958D4703
:102588003305F5029947B724002039051375F50F6F
:102598002301A4003305F5021305051897E0FE1F73
:1025A800E780C0A5B727002023A0A7CE8347240033
:1025B8001305051823A0A4C88A073E95B72700204D
:1025C80023AEA7C8EFF01F848347140083A604C86E
:1025D80037260100139727003697130686E310C3A2
:1025E800138717001377F70F0A0737260100369766
:1025F800130686E910C313873700890793F7F70F87
:10260800A300E400B24022448A07B69790C39244DC
:102618004101828037270020130707C68347170028
:102628008346270063F0D702B726002083A606C892
:1026380013861700A300C70013972700369708C30F
:102648003E8582809307F00FE5BF1C41638C070E1F
:1026580041777D8FB706002089476316D70E035749
:10266800450075C3411126C21946AA849305F00F87
:10267800590506C622C4B93A05478D47630EE50ACF
:10268800372400201306C0038145130544CAE130EE
:102698001306C003A685130544CA97E0FE1FE7800A
:1026A800C0C5930744CA03D7C70009E7130700202A
:1026B8002396E70003C7E70001E705472387E700FC
:1026C80003C7F70001E76D47A387E70003C70701C2
:1026D80001E715472388E70003C7170101E7054706
:1026E800A388E70003C7570109E703C70701A38ABF
:1026F800E70003C7270101E735472389E70003C738
:10270800E70109E713078002238FE70003C73701B2
:1027180009E71307D002A389E70003C7D40101E73B
:102728000947A38EE7009C5791C78297B7270020D7
:102738002393A7C6E53B8147B240224492443E8595
:102748004101828089473E858280411106C697E013
:10275800FE1FE78060EEB727002003C687CB058AF7
:1027680005CE930730333307F502B337F5023983C3
:10277800CA07B7260020938506C6D98FD8499386FD
:1027880006C601456307F7006370F7023385E74023
:10279800DCC9B24041018280E5473307F502B3370F
:1027A800F5022583DE07F1B737653D0809C6378589
:1027B8006F0813050590198D3E95DCCAD9BF011124
:1027C80022CC06CE2A842EC6EFF00FF4B245F24092
:1027D800818D33A5A502229562441375F50F056115
:1027E8008280011122CC06CE2A842EC6EFF0CFF1CA
:1027F800B245F240818D33A5A50222956244420577
:10280800418105618280011122CC06CE2A842EC620
:10281800EFF08FEFB245F240818D33B5A5022295D6
:10282800624405618280B727002083C787CB15459E
:10283800139787016187634C070013F73700014539
:1028480019E713F70707154519C313D547408280C1
:10285800B7270020138747CA18572DC3411122C430
:1028680026C24AC006C6138947CA0297B72700205E
:10287800138707C6035767002A84938407C60DCBBE
:10288800BA876373A700AA87C207C183BA8663732E
:10289800E400A286C206C182958F5147635AF700A9
:1028A8008327C90291C38297EFB00136239384002E
:1028B800B240224492440249410182808280B72773
:1028C8000020138747CA5857011122CC06CE13841B
:1028D80047CA01C72AC602973245B727002009CD43
:1028E80023A4A7CE37250100130525753131F24001
:1028F800624401450561828003074401635407026D
:1029080037270020130707C6232C0700FD5637C7B3
:1029180000402324D726370700201307A76023A4E5
:10292800E7CEC9B7370700201307C763CDBF4111EA
:1029380022C437240020930744CA9C4726C206C6EF
:10294800B7240020938404C6B1CF130444CA1C5C86
:10295800B1CBDC4C85E30345E4008357C400930501
:10296800E0043305F5024205418197D0FE1FE78058
:10297800E068C8CCC84C1DC58357C4000346E400B2
:102988009305F00F3306F602EFF0EFDCD04C084465
:102998008357C40008C28345E400B385F5021C5C74
:1029A80089818297C84C19C597D0FE1FE780E073CC
:1029B80023AE0400B2402244924401454101828082
:1029C80001114AC837290020930709C622CCC04FF5
:1029D8004EC652C456C206CE26CAAA8AAE89328AC2
:1029E800130909C629E4B7240020938444CA9C44E7
:1029F80099E3A944BDA803C5E40083D7C40093059F
:102A0800E0043305F5024205418197D0FE1FE780B7
:102A1800E05E2A8441C1DC58B5CF83C5E40003D702
:102A2800C4002A868844B385E50289818297914546
:102A38001307A005898193972500A29783C60700ED
:102A48006396E60483C61700639F560385058A05C7
:102A58004E86A295528597E0FE1FE780008A83275D
:102A6800C901814463878700228597D0FE1FE780CC
:102A7800C067F240624426854249D244B249224A9C
:102A8800924A0561828083D527006DB78327C901E3
:102A9800E38187F6228597D0FE1FE780006591BF06
:102AA800B7270020938747CA9447B9C2985F29C3BC
:102AB8000546631FC502411122C4372400201304B0
:102AC80004C6504C06C60DC283C5E70083D7C700AD
:102AD8003685B385F50289810297484C97D0FE1F49
:102AE800E780A060232E0400B24022444101828086
:102AF800828001114EC6B7290020938709C6DC4F92
:102B080022CC4AC852C406CE26CA2A8A2E893284C2
:102B1800938909C6A1EFB7240020938444CA03C54A
:102B2800E40083D7C4009305E0043305F5024205A9
:102B3800418197D0FE1FE780604C23AEA9002A860A
:102B480011E92945F2406244D2444249B249224A35
:102B580005618280884419C9DC5889CB83C5E400A3
:102B680003D7C400B385E5028981829703A5C9010B
:102B780091461308A005FD5593D72600C207C183C7
:102B8800139727002A9703460700631B0603834809
:102B980017000356270063934803B306D64063CD56
:102BA800260185078A073E954A86A28597D0FE1F8B
:102BB800E780A074014579B7A300B700B2866DBF5E
:102BC80037260020130646CA8345E6000356C6008A
:102BD800B385C502338626011106E3E4C5F613065C
:102BE80039001376C60F1106B29623000701A30019
:102BF80047012311D70075B7B727002083A6C7C799
:102C08008DCE91471306A0059305F00F89838A0797
:102C1800B69703D7270003C5070009830A07369725
:102C2800631DC500034517006316B5000357270049
:102C38002391E70083D72700D1BF0145828083C74E
:102C480005002300F50083D72500A300F50083D7EE
:102C58002500A1832301F50083C74500A301F500E2
:102C680011458280B727002023AA07AAB72700208A
:102C780023A807AA828029C1411126C206C622C4F8
:102C8800AA8401458DC52E84B76503002285414677
:102C98009385055197D0FE1FE780206683C70400FF
:102CA80005452306F40083C71400A306F400B240C8
:102CB800224492444101828001458280011122CC44
:102CC80026CA06CE0947AA8432846381E5044146B0
:102CD8008147639BC500638FE6006397B6000DA824
:102CE80041478147638EE600F2406244D2443E8504
:102CF800056182808A852285BD3F41468A8519A85B
:102D08008A85953F41468A85228531A0E39AB6FC9B
:102D18002E86A285268597D0FE1FE7808061AA8728
:102D2800E1B7B727002023A8A7AA8280B7270020E9
:102D380023AAA7AA8280011122CC0354650006CEDB
:102D480026CA4AC84EC641C083298500AE842A884F
:102D580003C9090081471317890161876355070271
:102D6800B147054563FA8704511442040355280006
:102D7800418033878900A2864E868545EFC0B077AB
:102D8800B337A00085077D141355690042040589EF
:102D98001379F90341802380F400A380A4002381E0
:102DA800240123928400014719C01387190098C48D
:102DB80009476383E7000145F2406244D24442492F
:102DC800B249056182800545C5BFC167F917630A25
:102DD800F502D94763F7B702011122CC2EC606CEF9
:102DE8002A84EF803057B2456368B5002285624473
:102DF800F24005616FA0006AF24062440545056132
:102E0800828005458280C167F9176314F5006F80D9
:102E18007054411106C6EFA0E05611E15D45B2407D
:102E28004101828091476394F5028347050023009E
:102E3800F6008347250003471500A207D98F231101
:102E4800F6008347350001452302F60082801145CC
:102E580082804111814522C426C206C6AA8405255E
:102E68002A8409E9B727002083A707AB81C7F9455A
:102E7800268582972285B24022449244410182806D
:102E880039714ED656D25AD006DE22DC26DA4AD816
:102E980052D4AA8A2E8BB28941EF36C6AD379145F6
:102EA800EF80305CAA844D492DC9B246054A23807B
:102EB80034010544630A0B00B68513851400029B90
:102EC8000505131405014180E20993D9894163D3AB
:102ED8000902C1455685EFA0E058654905E93386E2
:102EE8008400A2852685EFC050232A8905E1310494
:102EF8004204418091472C085685231CF10026CEB8
:102F0800231D8100EF90F06A2A8901C963070A002E
:102F1800268597D0FE1FE780401DF25062544A85EF
:102F2800D2544259B259225A925A025B2161828084
:102F3800BA84014AADBF011122CC26CA4AC84EC67E
:102F480006CE2A893284B689253FAA840DE1B7279F
:102F5800002083A747AB81CF05476317E40003C46C
:102F6800090005041374F40FA2854A858297F2407C
:102F7800624426854249D244B24905618280AE86C0
:102F8800B735010001470546938565C46DB783D7FA
:102F980005002300F50083D70500A183A300F500F1
:102FA8000945828083D705002300F50083D70500F3
:102FB800A183A300F50083D725002301F50083D75B
:102FC8002500A183A301F5001145828083D7050060
:102FD8002300F50083D70500A183A300F50083D75C
:102FE80025002301F50083D72500A183A301F5005F
:102FF80083C755002302F50083C76500A302F500C7
:1030080003D58500190542054181828083D70500D3
:103018002300F50083D70500A183A300F500094527
:10302800828083D705002300F50083D70500A1839C
:10303800A300F50083D725002301F50083D72500D9
:10304800A183A301F5001145828003D5450006053B
:1030580042054181828083D705002300F50083D78C
:103068000500A183A300F50003D525000905420545
:103078004181828083D705002300F50083D70500AE
:10308800A183A300F50083D725002301F50083D78A
:103098002500A183A301F50003D5450011054205CC
:1030A8004181828083C705002300F50005458280A1
:1030B80083D70500411122C406C62300F50083D733
:1030C80005002E841105A183A30EF5FE83D72500E4
:1030D8009505230FF5FE83D7D5FFA183A30FF5FE32
:1030E80003C6F5FF97D0FE1FE78020210345440063
:1030F800B24022441105410182808947639CF50052
:1031080083471500034705000145A207D98F2310FF
:10311800F60082801145828003D70500D94763FEF7
:10312800E702011122CC06CE2EC62A84EF80902217
:10313800B24683D70600636DF50022856244F240EB
:10314800B735010001470946938565F905610DBB4F
:10315800F2406244094505618280094582809147B1
:103168009DC583460500FD15C2058547C18163924B
:10317800F60213D725008D89914791E9914701CB34
:1031880005052301D6002310E60048C281473E8585
:10319800828009479147E39CE6FEC94733D7F50289
:1031A800B3F5F502D1BFAE86B73501000147114628
:1031B8009385C5FAF1B193F7350091EB8981914771
:1031C80089C52310B60048C281473E858280914751
:1031D800EDBF03C745008947631AF702011122CCE6
:1031E8002A84C84506CEAE86014719C52EC69D4518
:1031F800EFE0BFA8B2462A8722856244F240B7357D
:1032080001001946938545FD05619DB909458280F0
:1032180099E1114582808347050005472311F6008F
:10322800E379F7FEFD1593F5F50F33D7F502B3876C
:10323800E702E390F5FE050548C22310E6000145C4
:10324800828083C745000947AE866385E70041470A
:103258006399E700B7350100014721469385850B3F
:1032680005B1094582802310B60091E1014548C2A5
:1032780001458280AE86B73501000147294693850E
:103288004501FDBE2310B60091E1014548C2014544
:103298008280AE86B7350100014731469385A50285
:1032A800C5B62310B60091E1014548C201458280A8
:1032B80003D74500854763FDE702011122CC2A8424
:1032C800884106CE0DC12EC68545EFE01F9B2A8793
:1032D80022856244B246F240B735010039469385EB
:1032E8002505056171BEF240624409450561828089
:1032F8000945828091479DC5034705008D46914742
:1033080063F2E602FD15C205C181B3C6E5023308C2
:10331800D7026399050105052310D6002311E6009D
:1033280048C281473E85828083C745000947AE86EB
:103338006385E70041476399E700B7350100014716
:1033480041469385850B2DBE09458280B335B00073
:10335800139525008280011122CC26CA06CE03C708
:1033680085008547AA842E8449466310F702613C8C
:103378008357240049151306200963C8A700F240A3
:103388006244D24409450561828003479400854719
:103398006314F70013660604484011C58D4532C60C
:1033A800EFE0BF8D3246A2866244F2402A87268526
:1033B800D244B73501009385E5050561D1B48D4741
:1033C80063FFB7028347150003470500F115A207FD
:1033D800D98F2310F6008347350003472500C2051F
:1033E800A207C181D98F2311F6002312B60089C51F
:1033F800110508C60145828023240600E5BF114552
:103408008280011122CC2A84884506CEAE8611C559
:103418002EC69545EFE07F86B2462A87228562440C
:10342800F240B735010059469385C507056189BC47
:10343800B335B000139525008280AE86B7350100FC
:10344800014761469385C50A25BC8547114563F444
:10345800D7028347160083450600A207CD8F2310A5
:10346800F7009387E6FF2311F70089476386F60084
:10347800090650C30145828023220700E5BF0147A2
:10348800814679468145EDBA83D705002300F500CA
:1034980083D70500A183A300F5000945828083C76F
:1034A800250005472300F50003D505006397E700CD
:1034B8000A050505420541818280C9473305F502A1
:1034C800CDBF03D505000A0542054181828083D717
:1034D80025002300F50003D5050083D72500330513
:1034E800F502050542054181828003D505008280E9
:1034F80003D50500828003D50500828083D7250087
:103508002300F50003D5050083D725003305F50210
:10351800050542054181828083D705002300F50017
:1035280083D70500A183A300F50083D725002301D5
:10353800F50083D72500A183A301F50003D5450035
:10354800110542054181828083D705002300F500DB
:1035580083D70500A183A300F50003D5250009053D
:1035680042054181828089471145639BF600834764
:103578001600834606000145A207D58F2310F700E1
:10358800828003D70500D947AE8663F9E700B735CF
:10359800010001470D469385054971BA09458280A6
:1035A80011456393A602834716008346060001452A
:1035B800A207D58F2310F7008347360083462600DD
:1035C800A207D58F2311F700828083C725000547FE
:1035D800FD1793F7F70F6361F70483D705008DCFC5
:1035E800011122CC2A84C84106CE15C12EC68945B0
:1035F800EFE0AFE82A8722856244B246F240B73549
:10360800010015469385654A05616FF0DF92F24027
:1036180062440945056182800945828095471145C4
:1036280063F9D706411122C426C24AC006C6834799
:103638001600BA8403470600A2073284D98F239064
:10364800F400834736000347260093054400A20789
:10365800D98F2391F40089472382F4000946138502
:103668005400368997D0FE1FE78020C99307A9FF29
:103678002394F4009947631BF90023A60400B24081
:103688002244924402490145410182801904C0C480
:10369800FDB7828083D705008DCF011122CC2A8403
:1036A800C84106CE15C12EC68545EFE00FDD2A8735
:1036B80022856244B246F240B73501001D46938523
:1036C800A54C05616FF03F87F240624409450561EA
:1036D80082800945828099476395F604894741119C
:1036E80006C62302F7008347160083460600B28504
:1036F800A207D58F2310F70083473600834626009C
:1037080003464700A207D58F130557002311F7007A
:10371800910597D0FE1FE78040BEB24001454101A8
:103728008280D14711456394F600C1474DBF82801E
:1037380083D705008DCF011122CC2A84C84106CE3B
:1037480015C12EC68945EFE04FD32A8722856244EA
:10375800B246F240B735010025469385654D0561AF
:103768006FF06FFDF24062440945056182800945AA
:10377800828089471145639BF6008347160083467C
:1037880006000145A207D58F2310F700828001119A
:1037980022CC2A84C84106CEAE86014719C52EC65A
:1037A8008545EFE08FCDB2462A8722856244F240F4
:1037B800B73501002D469385254F05616FF0AFF7AA
:1037C80011456393A6028347160083460600014508
:1037D800A207D58F2310F7008347360083462600BB
:1037E800A207D58F2311F7008280011122CC2A84E9
:1037F800C84106CEAE8611C52EC68545EFE0EFC797
:10380800B2462A8722856244F240B7350100354620
:103818009385854F05616FF00FF293F716001145F8
:1038280089EB89476387F60085822312D70010C386
:1038380001458280011122CC2A84C84106CE15C1D7
:103848002EC68545EFE06FC32A8722856244B246BB
:10385800F240B73501003D469385E54F05616FF0AD
:103868008FEDF240624409450561828083D70500E7
:103878008DCF011122CC2A84C84106CE15C12EC68F
:103888008945EFE08FBF2A8722856244B246F2401D
:10389800B735010045469385455005616FF0AFE99E
:1038A800F240624409450561828009458280854766
:1038B80063FCD7022304A700A304B70083471600BC
:1038C80083450600A207CD8F2310F7009387E6FFF4
:1038D8002311F70089476386F600090650C301459E
:1038E800828023220700E5BF114582800147814677
:1038F8004D4681456FF02FE48D47114563FBD70294
:103908008347160083450600A207CD8F2310F700D2
:103918008347360083452600A207CD8F2311F70081
:103928009387C6FF2312F7006386A600110610C707
:103938000145828023240700E5BF011122CC2A8497
:10394800884506CEAE8611C52EC69545EFE0EFB286
:10395800B2462A8722856244F240B73501005D46A7
:103968009385055205616FF00FDD85471145639713
:10397800F6008347060001452300F70082800147CF
:103988008146654681456FF00FDB011122CC2A8400
:10399800C84106CEAE86014719C52EC68D45EFE053
:1039A800CFADB2462A8722856244F240B73501007E
:1039B8006D469385055505616FF08FCC011122CCBA
:1039C8002A84C84106CEAE86014719C52EC68D4544
:1039D800EFE0AFAAB2462A8722856244F240B735A3
:1039E800010075469385055505616FF06FC9011192
:1039F80006CE2EC6EF90301501C9B245F2400355E8
:103A0800250005616FD0A01AF24049450561828002
:103A1800B7270020A38007AEB7270020238007AE72
:103A2800B727002023A407ACB727002023A607AC9C
:103A3800B727002023A807ACB727002023AA07AC84
:103A4800B727002023A207ACB727002023A007AC84
:103A5800B7270020239607D03D469387C7D02391E8
:103A6800C70271761307400B130606B82391E700C7
:103A78002392C70211671D46930600059305000AA5
:103A88001305007D2392E7002393C70241470546AB
:103A9800130810F82395E7002396E7002399E70019
:103AA800239AE700239BE700239CE7002394E7027F
:103AB800239607032393B7002394B7002397D700CF
:103AC8002398D700239DA700239E0700239F070064
:103AD800239007022395C702239707021308F007CC
:103AE800239807022392E7042393E704239FE7041C
:103AF8002390E7062391E7062392E7062399070315
:103B0800239AC702239BC702239C0702239D07020F
:103B1800239E0702239F0702239007042391C704CB
:103B280023940704239507042396C7042397D704EF
:103B38002398D7042399A704239A0704239B0704EF
:103B4800239C0704239DD704239ED7042393A70609
:103B58002394070623950706239607062397B70697
:103B68002398B7067D5723990706239AE70682808C
:103B7800011126CAAA84214522CC06CE2E8432C63B
:103B880036C43AC2EFE08F971DC9A24612473246A3
:103B9800930700FD2300F5009947A3009500230132
:103BA800F5002303D500A303E5002312C500AA8569
:103BB80022856244F240D24405616FE0AF9EF24034
:103BC8006244D24405618280B727002023A4A7ACB1
:103BD8008280B727002023A6A7AC8280B7270020C1
:103BE80023A8A7AC8280B727002023AAA7AC82808D
:103BF800011122CC4AC806CE26CA2A890144B30438
:103C080089006368B400F2406244D24442490561C5
:103C180082802EC6EFE04FAF93170501C183A183C1
:103C2800B2452380F4009307140093F7F70F850437
:103C380063F9B700CA9709042380A7001374F40F27
:103C48007DBF3E847DBF411122C437240020130468
:103C5800C4CE03556400C16706C6FD17630FF5009F
:103C6800B727002003C687E2B7250020938585ADD6
:103C7800EF90A056FD572313F400B24022444101AF
:103C8800828009C925151375F50F1335850E13455F
:103C98001500828001458280797122D452CC06D6E3
:103CA80026D24AD04ECE2A8A2380050001442EC649
:103CB8006371C406B387860003C907009304140020
:103CC80093F4F40F63070904B307990032C46342FD
:103CD800F604B387960083C9070036C24E85553768
:103CE8000DC9B2459307F9FF92462380F500224695
:103CF800639D4901138514003695B250225492549D
:103D08000259F249624A456182804A941374F40F59
:103D180079BF0145DDB7011122CC3724002026CA1E
:103D28004AC84EC69307C4CE06CE2E89D0CB8CCBBC
:103D3800C8C7AA8441469305F00F4A85EFE08FA9CA
:103D480085491304C4CE631735030848C1454D356A
:103D580041469305F00F2685EFE0CFA70549631389
:103D6800250348446244F240D2444249B249C1451D
:103D78000561BDBD414681454A85EFE0AFA5E31920
:103D880035FDE1B7414681452685EFE0AFA4E30A5A
:103D980025FDF2406244D2444249B249056182801D
:103DA800411122C43724002026C24AC0AE842A8981
:103DB8001306000281451305C4CE06C6EFE0AF998D
:103DC8009307C4CEA3812701B7270020A38597E2D4
:103DD800EFC0705F854719C1814749452306F4CE76
:103DE800B24022449244024941018280814781CDF8
:103DF80019C98547631BF50083C7550093E707FC7E
:103E0800A382F50085473E85828089476317F500C0
:103E180083C7550093F7F703E5B70D478547E314C4
:103E2800E5FE03C755001377F70313670704A3825A
:103E3800E500D1BF81478DC105C103C75500930671
:103E4800000C85471377070C6308D7009306000416
:103E58008D476303D70089473E858280411122C47C
:103E6800005D06C626C21DC8AA84085009C597C0A9
:103E7800FE1FE7808027485009C597C0FE1FE780CE
:103E8800C026085409C597C0FE1FE7800026228572
:103E980097C0FE1FE780602523AC0402B24022448D
:103EA80092444101828019E9B727002083C7E7CEF1
:103EB80091C737250020130585AB82803725002060
:103EC800130545D08280B727002003C5E7CE82803E
:103ED800B727002003A587CF8280B727002003A536
:103EE800C7CF8280B727002083A707D08843828066
:103EF800B72700209387C7CED44B9842050798C2AE
:103F080003C537009307F00F6305F50091656FE06F
:103F18000FA08280011122CC06CE2E8432C6EF90EB
:103F2800E0529147B2456310F502B727002083A7F6
:103F380047AD95C303A30700630F030022856244BE
:103F4800F24005610283B727002083A7C7AC81C769
:103F580003A34700D5B7F240624405450561828056
:103F6800011122CC2A840355450006CE26CA4AC828
:103F78004EC6EF9060343DC92A89834405008349C1
:103F8800C500E93D4A85EFA0E02A03554400EF90BB
:103F9800604737290020130909AE83470900B9CBC8
:103FA800639A9704B727002083C517AE2685813406
:103FB80019E12300090003554400EF902049914777
:103FC800631FF500B72700209387C7CE83564400A8
:103FD80003D767006395E6007D572393E700F24017
:103FE8006244D2444249B2490561828081499304BE
:103FF800F00F45B79307F00FE38FF4FA8346640098
:1040080003564400034524004E87A685953665B7B8
:1040180079715EC6AA8B2E8552CC56CA5AC806D666
:1040280022D426D24AD04ECEAE8A328B368AEF9030
:10403800A0286DC1045D2A89F1CC9C50614599C3C3
:10404800130540039C5481C751054205418163050E
:104058000A00710542054181DC5081C759054205B6
:104068004181EFD0BFC92A8455C561468145EFD04B
:104078009FEEB727002083C9C7D3639409008349FB
:104088000900930700FD2300F400A947A300740169
:104098002301F400230364018C50231254011305F7
:1040A800840191C908C47146930A440397C0FE1F4E
:1040B800E780A02456858C5491C948C45146930A78
:1040C800450197C0FE1FE78040235685630C0A0010
:1040D80008C87146D285930AC50197C0FE1FE780BC
:1040E800C0215685CC5099C548C8594697C0FE1F6F
:1040F800E780A020A2854E85EFD0DFCA2254B250B7
:104108009254F249624AD24A424BB24B4A8502590A
:104118004561A9B3B250225492540259F249624AF5
:10412800D24A424BB24B4561828001114EC6AA89E0
:104138002E854AC806CE22CC26CA2E89EF90C017F3
:1041480031C5B727002083C4C7D399E0834405004D
:104158001945EFD0BFBA2A8415C981451946EFD051
:104168009FDF930700FD2300F400B947A300340143
:104178002301F40023122401A2856244F24042493B
:10418800B2492685D24405616FD0DFC1F24062444E
:10419800D2444249B2490561828039715ECEAA8B08
:1041A8002E8526DA4ED652D456D25AD006DE22DCD6
:1041B8004AD8AE84328BB68A3A8ABE8942C6EF9014
:1041C800A00F31C92A894145EFD05FB32A8421C5A0
:1041D80041468145EFD03FD8B727002003C5C7D354
:1041E80019E103450900930700FD2300F400BD47CA
:1041F8002301F400B247A30074012312940023049E
:104208006401A304540123054401A30534015CC4DB
:10421800A285EFD03FB9F2506254D2544259B259F4
:10422800225A925A025BF24B21618280797126D21E
:10423800AA8439454AD04ECE06D622D42EC6B28993
:104248003689EFD0BFAB21C1B2459307000D2310CB
:10425800F500B1472A842312B5002301F500CE8565
:104268001905194697C0FE1FE78020092306240177
:10427800A2852254B2500259F24913F5F40F925410
:1042880045616FD03FB2B250225492540259F2495C
:1042980045618280411126C2B72400209384C4CE90
:1042A80003C7340006C622C44AC09307F00F630C44
:1042B800F7042A893945EFD07FA42A8429C59307B2
:1042C80000FDB72500202300F500A30025012301E8
:1042D8000500938545D00D05194697C0FE1FE78058
:1042E800C00183D78400A28503C534002315F400D8
:1042F80083C714002306F4002244B24092440249C2
:1043080041016FD03FAAB240224492440249410180
:10431800828001115AC02A8B31454AC84EC652C400
:1043280056C206CE22CC26CA2E89B28A368ABA89C5
:10433800EFD0DF9C41C52A844A85EF80F07735C9E4
:104348000347C500A1476314F704B727002083C4B7
:10435800C7A8930700FD2300F4009D47A30064014C
:104368002301F400231224012313540123144401CC
:1043780023153401A2856244F2404249B249224AD7
:10438800924A024B2685D24405616FD0BFA1B72758
:10439800002083C4D7A8E31E0BFAB727002083A701
:1043A80047B99C47DDD7CE865286D6854A858297FF
:1043B8004DB7B727002083C4F7CE61BFF2406244EF
:1043C800D2444249B249224A924A024B056182804C
:1043D800011152C42A8A214526CA4AC84EC606CEA9
:1043E80022CCAE84B2893689EFD05F9125C12A8468
:1043F8002685EF80706C31C50347C500A147631D52
:10440800F70203450500930700FD2300F400C547A4
:104418002301F400A301440123033401A30324016D
:1044280023129400A2856244F240D2444249B24920
:10443800224A05616FD01F97B727002003C5D7A868
:10444800D9B7B727002003C5F7CE75BFF24062443D
:10445800D2444249B249224A05618280397162CC0C
:104468002A8C594526DA4AD84ED652D456D25AD032
:104478005ECE06DE22DCAE8432C636C4BA8B3E8BF4
:10448800C28A468A8359010403494104EFD01F8731
:1044980035C53246930700FDA2462300F50095472F
:1044A800A301C500A30085012301F5002A8419464C
:1044B8001105A9C2B68597C0FE1FE78000E4230650
:1044C8006401230A240123157401231754012318B6
:1044D800440123193401A2856254F2504259B25959
:1044E800225A925A025BF24B624C2685D2542161C1
:1044F8006FD05F8B8145EFD01FA6D1B7F2506254C1
:10450800D2544259B259225A925A025BF24B624C27
:1045180021618280411122C4372400201304C4CEB3
:104528008347240006C626C28DCBB7240020AA855F
:104538001946138584AB97C0FE1FE78000DC03454E
:104548002400938584ABEFF07F8A2244B240138520
:1045580084AB924441016FC0C067B2402244924488
:10456800014541018280411126C2B724002093876A
:10457800C4CE06C622C44AC003C737009307F00F4B
:104588009384C4CE6304F7042A892945EFD00FF732
:104598002A840DCD930700FD2300F500A147A30051
:1045A80025012301F50083C72400B7250020938542
:1045B80085ABA301F5001946110597C0FE1FE780DA
:1045C800C0D303C53400A285EFD0CFFD03C7440094
:1045D80085476319F702B727002083A707AD81C76E
:1045E8009C4791C382972244B7270020B240924447
:1045F800024903C587E25D661306067091454101CD
:104608006FD0FFD7B24022449244024941018280D0
:10461800797122D406D626D24AD04ECE52CC56CA6A
:1046280009444DCD2A8903550500AE895144EF80D0
:10463800B048AA8445C537270020930787E283C777
:1046480037008546BA8AFD1793F7F70F494463F791
:10465800F6080347C500A1476314F70063900908EB
:104668009C5C4544A5EF9165938545711305C0028F
:1046780097C0FE1FE780809888DC2A8A4D4439CD90
:104688001306C0028145EFD01F8D8357090093069A
:104698004A0036852311FA0071469305490036C64B
:1046A80097C0FE1FE78060C589472300FA0003C54D
:1046B800C400B2460356090083C58AE26115133562
:1046C8001500EFB080562A8463860900CE852685BA
:1046D800EF90706201C42685EFF04FF82285B25042
:1046E800225492540259F249624AD24A4561828060
:1046F800B727002083C7B7E20547FD1793F7F70FE1
:104708006378F708894751C6011122CC26CA4AC8DE
:104718004EC652C406CEAA89368AB2842E89EF8044
:10472800B0392A84D14729C9485509C597C0FE1F01
:10473800E780A09BF1452685EFD05F8448D4CD471C
:1047480005CD8346C40021478147639FE600630D7A
:104758000A000347A5010356050193062501AA850A
:104768004E85EF90A04EAA8703474400630F0900C7
:10477800136767002302E400F2406244D2444249CE
:10478800B249224A3E850561828013674700DDB73A
:10479800C9473E8582809307900363EBA700B7273C
:1047A80000209387C7D006053E95035505008280F3
:1047B80041657D158280011122CC2A842E8526CA66
:1047C80006CEAE84EF80502F0DCDB7470F009387EC
:1047D800F723094563E2870281450A854146EFD000
:1047E8008FF7A685231081000A8541802301810067
:1047F800A3010100EFB0A024F2406244D244056155
:1048080082804945D5BFB7270020A384A7E28280CC
:104818006FB0C039797152CC2A8A328522D426D217
:104828004AD04ECE56CA5AC85EC606D662C4AE8BA9
:10483800B28A368BBA843E89C2894684EF80D027F3
:1048480015C92A8C63140A0213774B008347450065
:1048580015CF93E727012302FC008DEC631C0902A6
:10486800639A090205E8ED9B2302FC00832B8C0365
:10487800639F0B06B250225492540259F249624A7D
:10488800D24A424BB24B224C45618280F59B93E75A
:104898000701D1B793E747002302FC0001CC1C486D
:1048A8004146A2852324FC0213058C0197C0FE1FF4
:1048B800E780A0A463910B02D5D80325CC0209C5D3
:1048C80097C0FE1FE7806082F1452685EFD00FEB89
:1048D8002326AC0261BFE30B09F80325CC0209C506
:1048E80097C0FE1FE7806080F1454A85C5B79DC423
:1048F80083A70B0299EB916593853571714597B044
:10490800FE1FE780A06F23A0AB0203A50B0219C509
:104918007146A68597C0FE1FE780209E638809021E
:1049280083A74B0299EB916593852571594597B0FB
:10493800FE1FE780A06C23A2AB0203A54B0219C59A
:104948005946CE8597C0FE1FE780209B1DC483A7CC
:104958008B0299EB916593851571514597B0FE1FB0
:10496800E780C06923A4AB0203A58B0219C5514691
:10497800A28597C0FE1FE78040982254B2509254F7
:10498800F249B24B224CCA865A860259424BD68506
:104998005285D24A624A45616FF08FE7011126CAF3
:1049A80052C406CE22CC4AC84EC62A8AAE84EF80AC
:1049B800B01025C5AA893945EFD04FB42A8431CD26
:1049C800B727002003C9C7D36314090003C9090026
:1049D8009307000D2310F400AD472301F4009385DD
:1049E800690013053400194697C0FE1FE780E09060
:1049F80093F71400858085882306F400A3069400A5
:104A080023154401A2856244F240D244B249224AA5
:104A18004A85424905616FD0EFB8F2406244D244FA
:104A28004249B249224A05618280411122C4372491
:104A38000020130404AC084006C619C597B0FE1F31
:104A4800E780A06A23200400B2402244410182800A
:104A5800011106CE22CC26CA4AC82EC6EF80D00540
:104A680039CDB245B727002003C9C7D30CD5AA84CE
:104A780063140900034905004145EFD02FA82A8493
:104A88001DCD9307000D2310F500A5472301F50060
:104A980083C75400938564001105A30FF5FE1946DA
:104AA80097C0FE1FE78060859C54A285F2405CC4D5
:104AB8006244D2444A85424905616FD0AFAEF240A4
:104AC8006244D244424905618280797122D406D673
:104AD8002A842EC6EF80407E0DCD8346C50011473F
:104AE800AA8749456393E6029C5FB24599C383C58B
:104AF80067010808EF905029B7F60100938626E071
:104B0800100889452285EF908019B25022544561DA
:104B180082805145DDBFB727002083C7B7E205472C
:104B2800FD1793F7F70F637AF704894721CA4111F4
:104B380022C426C24AC006C6B2842E89EF80C07736
:104B48002A84D14705C5630809008347450093E7D0
:104B580027002302F5004146A6851305840197B076
:104B6800FE1FE78080799C481CD48147B2402244CC
:104B7800924402493E8541018280C9473E85828030
:104B8800797122D406D62A842EC6EF80E07201CD30
:104B9800B2452285230EB1006C08EF905012B25036
:104BA8002254456182805145DDBF6F80207FC167F7
:104BB8001387E7FF6395E502B727002083A7C7ACF3
:104BC80091EB494582804945B240224492440249CA
:104BD8004101828003A30700E30503FE028341111C
:104BE80022C426C24AC006C6FD172A892E84B2846A
:104BF800639AF502B727002083A7C7AC91CF9C43DF
:104C080081CF829711E9B7270020238027AFB727E4
:104C18000020A38097AE4DBFA6854A85EFE03FDD13
:104C280045F5D5B72E85EF80206951DD834705000E
:104C38000D45E39B27F922852244B2400249A68507
:104C4800924441016FB0B0769307900363E8A704DC
:104C580041677D1789476384E504411122C426C250
:104C680006C6C547AE842A84631AF5001305C00337
:104C78003385A50242054181EFB0307A131514003F
:104C8800372400201304C4D02295B24022442310B4
:104C98009500814792443E854101828089473E853F
:104CA8008280011106CE2AC6EFE09FD6EF20002FA2
:104CB800EF108061EF00124BB72700209387C7CE13
:104CC800130700F02391E70023820700B72700208D
:104CD8003245138787E2FD56A300D700F2402384AC
:104CE800A7E2954505616F601073597193970501A7
:104CF800A6D286D6A2D4CAD0CECED2CCD6CADAC84C
:104D0800DEC6E2C4E6C2EAC06EDEC187AE8463D303
:104D18000756B72A002003C58AE2372C0020372916
:104D28000020EFD08F819307CCDD2A8D372B002010
:104D3800372A00203ECEB72C00201304C9CE6313B7
:104D48000D022165258DB650265496540659F6490C
:104D5800664AD64A464BB64B264C964C064DF25DF3
:104D68006561828083470D001307200A639CE70072
:104D78008349340003552D00C1656A86FD15EFF09F
:104D88006F998DA213878AE28349170013071009C8
:104D98006397E71683471D001547639EE7006A85FA
:104DA800EFF00F9C6A85EFC0BFF203C58AE2EFC03F
:104DB800DFF82A8D69B73947639DE71603554D001B
:104DC8008567A5076316F50483258D0083CB050049
:104DD800639D0B00850591C93725002019461305E9
:104DE80045D097B0FE1FE78040510347C9CE85479D
:104DF8006317F71063880B00230609CE5E85EFF072
:104E08006FC94DB789472306F9CEEFB0505C59BF3B
:104E1800896713872700631CE504832B8D00638053
:104E28000B0E83C70B0089EF83C72B0003C71B003A
:104E3800A207D98F2314F40083C73B00A300F40012
:104E48000347C9CE8947631CF70A83C70B0091C77C
:104E5800230609CE03C50B005DB78345140003552F
:104E680084008D472306F9CEEF60F05DE5B795071E
:104E78006319F50083278D0003C50700EFF0AFEE37
:104E880015B7F9771387A7FF2A97420741839146F9
:104E980063F1E6049387A7FCAA97C207C183714709
:104EA8006371F70289671387B7006310E5048327E6
:104EB8008AACE38907EE9C43EA85E38507EE82978F
:104EC80015A0370700181307F770B357F700858B3D
:104ED800B9CB83270BADE38707EC9C43E38407EC4E
:104EE8006A858297E31005EC19A81387C700631138
:104EF800E50283278D0083C70700E38507EA930748
:104F0800F00FE381F9EAEA854E85EFC0BFE971BD8C
:104F1800B907631AF500B727002083A7C7ACE38356
:104F280007E8DC4351BF896793871704E301F5F865
:104F3800F9B73D47639BE70403554D00896713871D
:104F4800D700E30AE5FC13879701E306E5FCCD07E4
:104F5800E317F5FA03576400C167FD17631FF700ED
:104F6800B727002083A7C7ACE38E07E2DC43E38BB7
:104F780007E20965EA854D0599B7B727002083A799
:104F880047ADE38107E29C43DDB71307E003E398ED
:104F9800E7F683472D0005476398E70E83476D00C2
:104FA80037270020930D07ACE1E783A70D00D5CF85
:104FB80083CB0700A14903457D00130C8D00E285D2
:104FC800EFE05FE783474D01A303AD0083580D0170
:104FD8000358ED0003574D002A8603453D003EC2A5
:104FE80083572D01E286DE853EC0CE87EFF00FC7DE
:104FF80083473D0095E7DD4783580D010358ED00D1
:1050080083467D0083554D003EC283572D013EC027
:105018006287CE8705465E85EF80005AA301AD0002
:1050280083A70D0081C71145EFF03FA0938B0CAE0D
:1050380003C50B00E30805D6B727002083C517AEC4
:10504800EFE0FF9AE30005D683463D00930710037F
:10505800638AF60003564D0083C50B004E873685DC
:10506800EFE01FB123800CAE35BB834B340099B7FA
:1050780083270BAD834B3400914995DFDC4385DFF3
:1050880081450145829705BF2947639BE708834708
:105098006D0037270020930D07ACBDE783A70D00EF
:1050A800ADC383CB0700A14903457D00130C4D0117
:1050B800E285EFE03FD883470D02A303AD00835894
:1050C800CD010358AD0103574D002A8603453D0025
:1050D8003EC28357ED01E286DE853EC0CE87EFF003
:1050E800EFB783473D008DFFDD478358CD01035857
:1050F800AD0183467D0083554D003EC28357ED01C7
:1051080039B7834B340045B783270BAD834B340045
:105118009149D9DBDC43C9DB81450145829769B7F1
:105128000947639CE70083278AACE38D07C6DC4305
:10513800E38A07C66A858297B5B12D476398E70069
:1051480083278AACE38007C69C47DDB70D47639782
:10515800E7006A868D4503554D0015B119476395DB
:10516800E7069305610213051031EF0012072C10B2
:1051780013052031EF00720603566D008357810234
:1051880003554D0063E8C70083568D00035761023D
:1051980063F7E60093050002EFB0302721B163748E
:1051A800E6002313ED0063F4D7002314FD00035732
:1051B800CD008356AD0003568D0083556D00014820
:1051C8008147EFB05024F9BE1D47639FE70003579E
:1051D8004D00E3E6E7D2F24706073E9783576D0096
:1051E800F1172310F70021BB31476395E7006A8662
:1051F800B14595B735476398E70083278AACE383C1
:1052080007BADC4735B739476395E7006A85752BD8
:1052180051BE3D476398E70083278AACE38407B80B
:105228009C4B39B741476395E7006A85FD2B9DBEC6
:1052380045476396E70013053003CD2DA5B64947CA
:10524800639DE70083270BADE38B07CADC43E38844
:1052580007CA8145054582975DB14D47E391E7CA85
:1052680083270BADE38D07C8DC43E38A07C8EA85CB
:105278000945D5B793F7150089CFB727002083A72D
:1052880087AC89C7DC4399C30145829713C51400CD
:105298005DBC93F7250091CFB727002083A707AD02
:1052A80091C7DC4381C781450545829713C5240012
:1052B80059BC93F745000145E38707A83724002028
:1052C8009307C4CE83C757001304C4CEA9CFFD17D4
:1052D80093F7F70FA302F400B9E7B727002083A7D5
:1052E80047AC91CF85472302F400B727002083A756
:1052F80007AD91C7DC4381C781450545829748447E
:105308002C10EFA0405C2810EFF0CFA0B7270020AA
:1053180083D7E7D29145A302F400B727002003C53D
:1053280087E2EFD0EF8C13C5440031BC011122CCC9
:105338002A84554506CE26CAEFF0EFC5AA84130580
:105348004002EFF04FC52AC613055002EFF0AFC474
:10535800AA86228562443246F240B3359000D24490
:1053680005616FB0F010797122D406D68D472E846E
:10537800631FF50003D7A50083D6850003D6650013
:105388000345340083D54500EFE0BFF809A88967D5
:105398001387D7006311E50403C5250019E5854780
:1053A800B25022543E8545618280B727002083A6EB
:1053B80007ACF5D603C6360083C50600814802C28D
:1053C80002C00148814701479106EFF02F89054542
:1053D800EFF0AFE5E9B71387E700E302E5FC1387D1
:1053E8003701631AE50003C5250055D901478146F1
:1053F8000146814551BFE507E303F5FAB147631D4F
:10540800F50083C6750003C665000345340083D5DF
:105418004500EFE0FFFB61B741677D178147E31166
:10542800E5F803C75500C947E31BF7F683D6E5003F
:1054380003D6C5000355840083D5A500EFB0D0047A
:1054480021C15D45EFF02FB53335A000231EA10023
:1054580083454400035524007008EF707059835742
:10546800C10195FF0357E4008356C4000356A40006
:1054780083558400035524000148EFB0C07605B772
:105488008547231EF100E9B7B727002083C637AE4A
:105498001307F00F638CE60851C9411122C426C2D4
:1054A8004AC006C6AA840345A500138937AE41053C
:1054B800EFC0DF842A842DC59307000D2310F50063
:1054C800D9472301F50083D744002312F50083C789
:1054D80064002303F50083C77400A303F50083C7A2
:1054E80084002304F50083C79400A304F50003C6D1
:1054F800A4002305C50015C2CC44410548C497B093
:10550800FE1FE78080DFA285224403450900B240E0
:105518009244024941016FC0FF8823260500E5B780
:10552800B240224492440249410182808280C1678C
:105538001387E7FF639EE500B727002083A707AC22
:105548009DC383C707000D47639DA7006FB0E06840
:10555800FD1749476397F500B727002083A707ACD5
:10556800F5F73A8582804947EDBFB727002003A7A2
:1055780047AE19E301458280397122DC26DA06DE5E
:105588004AD84ED652D456D25AD05ECE03470500DA
:10559800938447AE85472A846308F70C0346850041
:1055A800930695009305F1000545EFE0EFEE81477E
:1055B80019C1834705008346040011476380E6024A
:1055C80098408D4603471700630AD70081CB19C757
:1055D80041C18546631DD7088D8BBDCB034514009B
:1055E800130A2400D285EFE0FF8437290020A300A6
:1055F800A400832789AEAA8A130989AE8149A1C765
:10560800B7240020930BF00F83C724AE63FDF90283
:1056180003250900139B49005A9583470500638DAC
:10562800770583471500639957051946D2850905FB
:1056380097B0FE1FE780E0CF21C18324090003470C
:105648000400DA94B5E4834604009147639AF602AD
:105658000145F2506254D2544259B259225A925AD0
:10566800025BF24B2161828081470145A9B78946D7
:10567800E310D7FE858B95B7850993F9F90F69B7BC
:1056880083270900F1D737270020034627AE930563
:10569800F00F0147E30EE6FABE84C10703C507FF12
:1056A800630EB50A05071377F70FEDB788C4F5A0A1
:1056B8009147631AF706C84405C583478400034623
:1056C80005006304F606034704009147631DF706C7
:1056D800C84419C597B0FE1FE78020A123A604007F
:1056E8000345840091659385E571050597B0FE1F14
:1056F800E780C09005C5034704009147631EF7047F
:10570800C8C483478400930594000505A30FF5FEDC
:105718000346840097B0FE1FE78020BE034584003F
:105728003335A0003DB7884441BF93059400050573
:1057380097B0FE1FE780E0BF8547E316F5F85545AB
:10574800EFF06F8541A0884441DD97B0FE1FE780E8
:10575800C09923A4040069B788C465B72380D4001E
:1057680083471400D28513852400A380F4001946CA
:1057780097B0FE1FE78060B8034584009165938564
:10578800F571050597B0FE1FE780408705C50347FB
:1057980004009147E31CF7F0C8C4834784009305CD
:1057A80094000505A30FF5FE0346840097B0FE1F7D
:1057B800E780A0B4834784000545E39C07E80345D8
:1057C80004007D151335150069B5011122CC372465
:1057D8000020130434AE0347040006CE26CA9307FC
:1057E800F00F630FF7020DCD2AC65145EFC00FD158
:1057F800AA841DC5B245514697B0FE1FE780E0AFA9
:105808009307000D2390F400D5472381F400034546
:1058180004006244F240A685D24405616FC08FD867
:10582800F2406244D24405618280411122C4372487
:105838000020130434AE0347040006C626C29307AB
:10584800F00F630CF70215C9AA841945EFC00FCBF6
:10585800AA8505C59307000D2310F500DD47230130
:10586800F50083D74400B24092442312F500034563
:105878000400224441016FC0EFD2B2402244924456
:1058880041018280011122CC37240020832784AE75
:1058980006CE26CA4AC84EC652C48DC3130484AE67
:1058A8002E8AAA840149084063129902630C0A04EB
:1058B80097B0FE1FE780608323200400F240624413
:1058C800D2444249B249224A05618280931949006B
:1058D800B3073501884709C997B0FE1FE780E08004
:1058E8001C40CE9723A407001C40CE97C84709C97F
:1058F80097A0FE1FE780607F1C40BE9923A6090081
:10590800050955B745DD139644008145EFC0AFE45E
:10591800144081477D5613F7F70FE37197FA1397F1
:10592800470036972300C7008507F5B779714AD035
:1059380037290020832749AE06D622D426D24ECE58
:1059480052CC56CA5AC85EC6C5C7B72A0020AA890B
:10595800130949AE938A2AAE014405E1B72700200E
:1059680083A687AE99CA03C60A002A84814793058D
:10597800F00F13F7F70F6368C708131534002105F4
:10598800EFC0CFB7AA8401E92145EFC02FB7AA8499
:1059980021C50144CD49930700FD2380F4008547C4
:1059A800A38034012381F400A381840045C893892E
:1059B800840023A23401014A372B0020930BF00FF7
:1059C80083C70A006373FA0039E883270900A685AC
:1059D80003C50700EFC00FBD03C50A0081455D354B
:1059E8000325090097A0FE1FE780207023200900E7
:1059F800B250225492540259F249624AD24A424B56
:105A0800B24B4561828013974700369703470700DA
:105A18006305B70005041374F40F850799BF83273E
:105A28008BAE93154A00BE9583C705006384770340
:105A38002380F90083C71500138529007D14A380EE
:105A4800F900194689051374F40F97B0FE1FE78013
:105A5800C08AA109050A137AFA0F9DB723A2040088
:105A6800ADB7B727002083A747AEB1C7411122C4FD
:105A780006C62A841DE10945EFE0FFD12A8601C93F
:105A8800B727002003C587E28545EFC02FEF0545FE
:105A9800EFF0DF892A84054519C8B727002003C518
:105AA80087E28545EFC0DF94228549350545B24038
:105AB8002244410182800145828089679386B7002C
:105AC8006316D5009C4503C5070061BF9386C700D0
:105AD8006318D5009C45854603C5070019C9F5B765
:105AE80093861704E300D5FE938727048146E303D2
:105AF800F5FE36858280797106D622D426D24AD020
:105B08004ECE52CC56CA5AC85EC662C46DC18347CF
:105B18003500AA8995C7404105C45945EFE0BFC77C
:105B2800931A850193DA8A410149130B000DB54B8D
:105B3800372A0020372C002083C73900636EF9000C
:105B4800B250225492540259F249624AD24A424B04
:105B5800B24B224C456182808307840263C0570997
:105B68002285EFF09FA001C583274AAE81E78327EE
:105B78008CAEADE7034584005105EFC02F98AA8489
:105B880031CD2310650123017501834704001946AF
:105B980093052400A301F500830784021505230358
:105BA800F50083471400A30FF5FE97A0FE1FE780BA
:105BB800C074034684002386C4001DC613854401AF
:105BC80088C89305940097A0FE1FE7800073832779
:105BD8004AAEA68503C50700EFC0CF9C050913048C
:105BE80094021379F90F89BF23A80400CDB7B7270A
:105BF800002083A747AEA9D7153B2254B250925430
:105C08000259F249624AD24A424BB24B224C0145F0
:105C180045616FF0AFF1797106D622D426D24AD009
:105C28004ECE52CC56CA5AC85EC662C469C58347AE
:105C38003500AA8985C7444195C05945EFE0BFB5ED
:105C4800931A850193DA8A410149372B0020930B77
:105C580000FD414C83C73900636EF900B2502254ED
:105C680092540259F249624AD24A424BB24B224CF0
:105C7800456182808387F40063CA5707130A4BAED5
:105C880083270A00A5C75145EFC04F872A8439CD1D
:105C980023007501A30005002301850183C70400C3
:105CA800194693852400A301F5008387F4001505A0
:105CB800A306F50083C71400A30FF5FE97A0FE1FE7
:105CC800E780A06383C78400938594001305C4000C
:105CD800A305F400194697A0FE1FE78000628327FA
:105CE8000A00A28503C50700EFC0CF8B0509C104D0
:105CF8001379F90F85B7B727002083A747AEB9DF17
:105D0800EFF0DFC22254B25092540259F249624A6B
:105D1800D24A424BB24B224C014545616FF00FE12C
:105D28005D7186C6A2C4A6C2CAC04EDE52DC56DA6F
:105D38005AD85ED662D466D26AD06ECE630805168B
:105D480083473500AA848DCB8329450063860902E1
:105D58005945EFE05FA493178501E1873EC60144EA
:105D680037290020C94A1D4BA94B194CA54C214D78
:105D780083C734006361F402B6402644964406495A
:105D8800F259625AD25A425BB25B225C925C025D63
:105D9800F24D616182808387C900324763C5E70C91
:105DA800832749AE930D49AEDDCF03C579011305AD
:105DB8000502EFB0BFF42A8A5DC59307000D2310D2
:105DC800F5002301550183C6090013F686004DC26C
:105DD800AD46A301DA0083C6190019469385290048
:105DE8002302DA0013055A0097A0FE1FE780E0504F
:105DF80083C68900194693851901A305DA0083C66D
:105E0800990013053A012306DA0083C6A900A30600
:105E1800DA0083C6B9002307DA008386C900A3071E
:105E2800DA0083D6E9002318DA0083C609012309BA
:105E3800DA0097A0FE1FE780404C03C67901A30C47
:105E4800CA0035C213050A02232EAA0083A58901B8
:105E580097A0FE1FE780604A83A60D00D28503C580
:105E68000600EFB03FF40504F1091374F40F09B705
:105E780093F5160013F6460099C519C2954691BFC9
:105E8800A301A50189BF898A81CA01C6A301950119
:105E980099B7A301850181B701C6A301750125BF83
:105EA800A30165010DBF232E0A007DB7B727002087
:105EB80083A747AEE38207ECEFF05FA72644B6401E
:105EC80096440649F259625AD25A425BB25B225C46
:105ED800925C025DF24D014561616FF02FC5B727F5
:105EE800002083A747AE85CB03C707008D476315FE
:105EF800A702B727002003C587E24111854506C6DA
:105F0800EFC00FCF13050003EFF05FA2B2400145C9
:105F180041016FF0AFC1C9473E858280797126D2B1
:105F2800B7240020938444AE9C4006D622D44AD09D
:105F38004ECE52CC639A070EB727002003C7B7E2AC
:105F4800C947298B4DC791652A849385D571114519
:105F580097A0FE1FE780800A88C0CD4749C903473C
:105F68000400B72700201146A285A381E7AE97A0B9
:105F7800FE1FE7808038B72700201305100283C969
:105F8800E7CE034A3400EFE01F819374F50F93F7CF
:105F9800140013F94400ADC71545EFE0CFFF834760
:105FA80024002314A10019452302F100EFE0AFFEFD
:105FB8002316A10063020902834724001305200267
:105FC800A302F100EFE02FFD2315A1001305300215
:105FD800EFE06FFC2317A1007C00380054002686F0
:105FE800B335400133353001EFA05048AA87B2508D
:105FF800225492540259F249624A3E854561828090
:10600800E147E30609FE8347240013052002230223
:10601800F100EFE04FF82314A10013053002EFE080
:106028008FF72316A1004DBFC547D1B7B72700206A
:1060380083C7B7E25971A2D486D6A6D2CAD0CECE2B
:10604800D2CCA18B4944638B0722B727002083A7B2
:1060580047AE414463940722AA84EFE01FB5B727EF
:10606800002083C747E25544637AF520372900208A
:10607800832709ACCA8945446392072091659385B3
:10608800C571294597A0FE1FE78040F72320A9ACDA
:106098004D446305051E2946A68597A0FE1FE78087
:1060A800C02513056002EFE00FEF1379F50F937722
:1060B800590061446384071C1306000381450810D6
:1060C800EFB07FE993771900136A29000144A5C34B
:1060D8004145EFE04FEC2316A1023D45EFE0AFEB61
:1060E8002319A1023545EFE00FEB231CA102394526
:1060F800EFE06FEA231FA1022145EFE0CFE9231269
:10610800A1041D45EFE02FE983A709AC2315A104DD
:1061180083C71700638D07162D45EFE0CFE72310DF
:10612800A1023145EFE02FE72313A102054413052F
:10613800C002EFE04FE6980893171400BA97239E21
:10614800A7FC1305B002EFE00FE5930484009C0858
:106158008604BE942399A4FC13059002EFE0AFE3F4
:10616800239CA4FC1305A002EFE0EFE2239FA4FC0C
:1061780013058002EFE02FE2930404019C088604D3
:10618800BE94239AA4FC13057002EFE0CFE0239D90
:10619800A4FC137949006305090813056003EFE0BF
:1061A8008FDF05049C0893141400BE94239EA4FC5E
:1061B80013055003EFE02FDE130984009C0806093D
:1061C8003E992319A9FC13053003EFE0CFDC231C0B
:1061D800A9FC13054003EFE00FDC231FA9FC1305FE
:1061E800E002EFE04FDB41049C0806043E94231ACA
:1061F800A4FC1305D002EFE00FDA83A709AC231D36
:10620800A4FC83C71700D9CB13051003EFE0AFD860
:106218002398A4FC13052003EFE0EFD7239BA4FCED
:1062280083A709AC03C5370093854700EFD01FBC8F
:1062380083A609ACB727002083C5E7CE7C1003C32B
:1062480026003EC8930721033EC63C183EC4930768
:10625800E1033EC2DC003EC02A869308A10413086D
:1062680061021C1052879106B335B0001A85EFA061
:1062780070202A8401C50D45EFE02FFB2285B6501A
:10628800265496540659F649664A65618280254522
:10629800EFE06FD02310A102294569B51305F0027C
:1062A800EFE06FCF2398A4FC13050003B5B7B72719
:1062B800002083C7B7E20145A18B89C73725002095
:1062C800130585D96FD0FF90B72700207D5723810C
:1062D80007AEB7270020A381E7AEB727002023A485
:1062E80007AE37670100B7270020130727AC23A2A2
:1062F80007AEB727002023A2E7D8376701009387A6
:1063080047D81307E7AFD8C3376701001307E7C1BA
:1063180098C737670100130787D2D8C737570100D6
:106328001307074998CB37570100B72700201307F1
:10633800675323ACE7D837570100938787D91307EA
:10634800E736D8C38280411122C4372400201304C1
:1063580024AE26C2AA8403450400854506C6EFF08C
:106368006FD2B727002083C7B7E2A98BB5CB3725F3
:10637800002023009400130545D8B7240020EFD04F
:10638800BF84938484AE9C4099C74D45B240224453
:106398009244410182800345040019E10145FDB79B
:1063A80091659385B571120597A0FE1FE78000C51A
:1063B80088C061DD0346040081451206EFB0BFB90D
:1063C8008346040090408147FD5513F7F70FE377A4
:1063D800D7FC1397470032972300B7008507F5B716
:1063E800014523000400EFD02FFE4DBF411122C408
:1063F80037240020032544AC06C619C597A0FE1F04
:10640800E780A0CE232204ACB2402244410182801E
:1064180001111305700306CEEFE0EFB72AC6130586
:106428008003EFE04FB72AC413059003EFE0AFB63F
:106438002246B245F240AA86054505616FA0500282
:106448005971A2D437240020832744AC86D6A6D21B
:10645800CAD0CECED2CCD6CADAC8DEC6E2C405458A
:10646800638807169305F1031305F041EFD05148EF
:106478000347F103B72700209387C7CE630D070CA6
:1064880083C727000D4789446384E700B334F000CD
:10649800832744AC03C5370093854700EFD01F9589
:1064A800032744AC9147AA8A8346270063E6D70CA2
:1064B800CD4789C685476395F60AF5472301F70056
:1064C800832744AC0D4583C527002ED6EFE0AFAC3B
:1064D8002AD41145EFE02FAC032444AC2AD26545F9
:1064E8000347A400034CB4003AD0EFE0CFAA2A89AE
:1064F8006945EFE04FAAAA897145EFE0CFA92A8A3A
:106508006D45EFE04FA92A8B7545EFE0CFA8AA8B20
:106518007945EFE04FA86209025792562256B255C4
:106528001375F50F93FBFB0F137BFB0F137AFA0F11
:1065380093F9F90F135989412ACC5ECA5AC852C631
:106548004EC44AC262C0930844005688A6870545CF
:10655800EFA0606DB5A883C42700B33490000DBFC9
:1065680089476394F600C94791BF8D476394F60045
:10657800C147A9B7D54799B71546638EC6001946CE
:106588006396C60089472301F70031A09D456392B1
:10659800B602230107006545EFE0EF9F9307F00778
:1065A800E300F5F2032744AC8347270093E7070489
:1065B80031B7A1456394B6008547F1B7A545639502
:1065C800B6002301C700C1BF29460545E38DC6FAB9
:1065D800B650265496540659F649664AD64A464B4A
:1065E800B64B264C65618280011122CC06CE26CAA4
:1065F8008D472E846315F50603C73500B7240020A0
:10660800E94703D545009384C4CE6316F70083D7C2
:1066180064006382A706EF60304A09C583576400A7
:106628002317F5000357A40083568400035664001B
:106638008355440003453400EFD0BFCD03574400D1
:1066480083D764006309F7008547F2406244D24467
:106658003E8505618280FD572393F400F5B789676D
:10666800CD07631DF50083C7250031476385E70023
:106678004547E39BE7FCEFD00FDDF9B7B147631D52
:10668800F50083C6750003C665000345340083D54D
:106698004500EFD0FFD34DBF41677D178147E31613
:1066A800E5FA83C655004947E391E6FA83C54500F4
:1066B80003552400300023140100EF60502E69B701
:1066C800411122C4372400201304C4A7034704003F
:1066D80006C626C24AC09307F00F630DF702AA84C4
:1066E80011452E89EFB08FE115C5930700FD2300F2
:1066F800F5008947A30025012301F500A3019500B2
:10670800AA85034504002244B2409244024941014B
:106718006FB04FE9B240224492440249410182805D
:10672800797152CC372A002083274AAC22D406D666
:1067380026D24AD04ECE4544C1EFB72900209387D0
:1067480089E283C737004944958BD9C3B72700200E
:106758002E899165238EA7A6AA84938575713145E4
:1067680097A0FE1FE78080892322AAAC4D442DC143
:1067780023009500A30005002946CA85090537248A
:10678800002097A0FE1FE78040B71304C4CE03473C
:1067980024008D476317F704EFD08FF32C00EF9098
:1067A80080122800EFD01FD7854745452302F40003
:1067B800EFD07FFE1375F50FA302A400014409C9A9
:1067C80003C589E25D66130606709145EFB03FBBCD
:1067D8002285B250225492540259F249624A4561C4
:1067E8008280EFF0FFC52A8465D5EFF03FC0CDB7B2
:1067F800011126CAB724002083A744AC22CC06CEB8
:106808004AC84944B1CB83C707000D446396A7041F
:1068180037290020034589E28945EFB07FBD03454C
:1068280089E2B72700209145239607AEEFB05FBCF9
:10683800B7270020A38807CE83A744AC0147814629
:10684800A38087001306F100854785450145A30706
:10685800F100EFA0A0402A842285F2406244D2448D
:10686800424905618280011106CE22CC26CA85479D
:10687800631CF506372400201304C4AE83570400B4
:10688800A1CB37270020034707CF39E31307B0030D
:10689800636BF702B724002003C584E28945EFB093
:1068A8003FB5035604009307006403C584E233062A
:1068B800F6028945EFB09F8C23100400F240624431
:1068C800D24405618280938747FC2310F400FDB70A
:1068D800B727002083A747ACF5D36244F240D244DF
:1068E80003C50700056129B7B724002083A744AC76
:1068F800F1D737270020930787E283C73700918BAA
:10690800D5DF89476314F5062D452EC6EFB00FBFB6
:106918002A844DD5B245930700FD2300F500E547CD
:10692800A30005002301F50083C7350015051946A6
:10693800230FF5FE83C745009505A30FF5FE97A025
:10694800FE1FE780809BB727002003C5D7A89307C1
:10695800F00F6316F50083A744AC03C50700A285B2
:106968006244F240D24405616FB0CFC3034587E269
:106978008945EFB0FFA76244F240D244B727002010
:10698800239607AE05616FF07FA6B727002083C75F
:10699800B7E24945958B9DC3B727002083A787AFEA
:1069A800414589CF411106C6EFF09FA6B240B727EF
:1069B800002005472387E7AE410182808280B72700
:1069C800002085450145238707AE6FA0E029B7273A
:1069D800002083C7B7E2958B638807109307E00E02
:1069E80063FCC70009458280F2406244D2444249B0
:1069F800B249094505618280B727002083A747ACC3
:106A0800E5C7011122CC4AC806CE26CA4EC6368929
:106A1800328413054600ADC59165938565719790DD
:106A2800FE1FE780A05DAA8961D1B724002003A5D5
:106A380044AF938444AF09C59790FE1FE780E06A8E
:106A4800228613851900814523A03401EFB0AFD009
:106A580088402286CA85050597A0FE1FE780E08941
:106A68009840A2860546230087006244F240D2443B
:106A78004249B24905078D45054505616FA0801D4E
:106A88009165938555719790FE1FE7802057AA89D5
:106A980021DDB724002003A5C4AF9384C4AF09C582
:106AA8009790FE1FE7806064228613851900814550
:106AB80023A03401EFB02FCA88402286CA85050575
:106AC80097A0FE1FE78060839840A28605462300B2
:106AD80087006244F240D2444249B24905078D45D5
:106AE800054505616FA04017494582809307E00E70
:106AF80063FCA700094582800945F2406244D244FC
:106B08004249B249056182805DC501114AC82E8992
:106B1800916522CC938565712A8411054EC606CEEF
:106B280026CA9790FE1FE780604DAA8971D5B724C1
:106B3800002003A544AF938444AF09C59790FE1F76
:106B4800E780A05A228681451385190023A03401C5
:106B5800EFB06FC088402286CA8505059790FE1F52
:106B6800E780A0799C4023808700B727002083A76F
:106B780047AC95CFB727002083C7B7E2958B95CB55
:106B8800B727002083A747AF85C383C607001387AD
:106B980017006244F240D2444249B24905468D4545
:106BA800054505616FA0000B01478146DDB701452A
:106BB800A9B7494599B7B727002083A747AC9DC710
:106BC800B727002083C7B7E2958B9DC3B72700205E
:106BD80083A747AF89CB83C60700138717000546ED
:106BE8008D450545C1B701478146D5BF014582801E
:106BF800494582809307E00E63FCA700094582801F
:106C08000945F2406244D2444249B2490561828052
:106C18005DC501114AC82E89916522CC93855571AD
:106C28002A8411054EC606CE26CA9790FE1FE78015
:106C3800E03CAA8971D5B724002003A5C4AF93848A
:106C4800C4AF09C59790FE1FE780204A2286814578
:106C58001385190023A03401EFB0EFAF88402286D6
:106C6800CA8505059790FE1FE78020699C40238010
:106C78008700B727002083A747AC95CFB727002008
:106C880083C7B7E2958B95CBB727002083A7C7AFFB
:106C980085C383C60700138717006244F240D244B5
:106CA8004249B24905468D45054505616F90D07A40
:106CB80001478146DDB70145A9B7494599B7B727C7
:106CC800002083A747AC9DC7B727002083C7B7E23A
:106CD800958B9DC3B727002083A7C7AF89CB83C6F1
:106CE80007001387170005468D450545C1B70147BD
:106CF8008146D5BF01458280494582809307B00F00
:106D080063F4A70009458280797122D44AD006D657
:106D180026D24ECE2E892A8439C99165938555711C
:106D280011059790FE1FE780602DAA8909456383A6
:106D38000908B724002003A584AF938484AF09C54C
:106D48009790FE1FE780603A2286814513851900D7
:106D580023A03401EFB02FA088402286CA850505FC
:106D68009790FE1FE78060599C4023808700B727D3
:106D7800002083A747AC014595CFB727002083C7DC
:106D8800B7E24945958B9DC76C001305D030EFE0FD
:106D9800D144B247014593F7070F89CFB7270020A1
:106DA80083A787AF8D45054503C60700938617005F
:106DB800EF90506BB250225492540259F2494561F7
:106DC8008280B727002083A547AF91CD411106C621
:106DD80003C6050085059790FE1FE7800052B24064
:106DE80001454101828009458280B727002083A799
:106DF80047AF8DC7B727002083A5C7AF894785C18F
:106E0800411106C603C6050085059790FE1FE78059
:106E1800C04EB24081473E854101828089473E8508
:106E28008280B727002083A747AF8DC7B7270020E8
:106E380083A587AF894785C1411106C603C60500EA
:106E480085059790FE1FE780404BB24081473E85FD
:106E58004101828089473E858280797106D622D495
:106E680026D24AD04ECE52CC8D4763FCA7000944A7
:106E78002285B250225492540259F249624A45611D
:106E88008280B724002003C7C4CE4144E312F7FE32
:106E98009387C4CE83C927009307F5FF93F7F70FAD
:106EA80085462E842A899384C4CE63EAF60685E54E
:106EB80099452800EFC0DFD3372A002003458AE22E
:106EC800914523812401EFB0AFD2A38204002DC0E5
:106ED8002381340171BF194681452800EFB0AF877F
:106EE80019462C0022859790FE1FE780804441F1C7
:106EF80019469305F00F2800EFB0EF8519462C00CE
:106F080022859790FE1FE780C04235F1A285194679
:106F180028009790FE1FE780403E014471BF01445E
:106F2800E31CE5F8C8442C00EF80F0192A8469B7FF
:106F38006314090001442DBF2800EFD0AFDD2A8477
:106F480041F98D47E318F9FE4545EFD0DF84137505
:106F5800F50FA382A40079DD03458AE25D66130676
:106F680006709145EFB0AFC121B7B727002083C79E
:106F7800B7E2918B8DC3372500204111130505AF6A
:106F880006C6EFC05FC6B240B72700207D572399D9
:106F9800E7CE4101828001456FC0FFC4B7270020BA
:106FA8007D57238EE7A6B7270020238707AEB7278C
:106FB8000020239607AEB727002023AA07AEB727DD
:106FC800002023AE07AEB727002023AC07AE3777E3
:106FD8000100B7270020938787BA1307071C98C3B7
:106FE800377701001307E786D8C33767010013070F
:106FF800874498C73767010013078741D8C7B76721
:107008000100372700209387075F2328F7AE828087
:10701800411126C2B724002083A744AC06C622C467
:107028008DCF2A840D45EFA07FCDAA8505C1930792
:1070380000FD2300F5008D47A30085002301F5001E
:1070480083A744AC03C50700EFA0DFD519C42244C9
:10705800B240924441016FF06FB9B2402244924469
:1070680041018280797152CC372A002083274AACAB
:107078004AD006D622D426D24ECE56CA0149B1C726
:1070880003C91700B72400208547AA899384C4CE72
:107098006307F90483C74400054985EB0D45EFA054
:1070A800FFC5AA8505C1930700FD2300F500914798
:1070B800A30035012301F50083274AAC03C5070067
:1070C800EFA05FCEEFF08FB20549B25022544A8547
:1070D80092540259F249624AD24A45618280B727DE
:1070E800002083A747AFD28A85E30145EFD0AFEAF6
:1070F8002A8601CAB727002003C587E28945EFB071
:10710800EF8783A74AAC89A803C6070093861700B0
:107118009305F1000545EFC03FB861D983470500E5
:10712800858BE1D70545EFD00FE79307B0032A8495
:1071380063F0A704B727002003C587E25D6613063E
:1071480006708945EFB0AFA3B7270020130444FCAD
:10715800239687AE83274AAC0947A380E70083C7F5
:10716800440081C7238204008DB74E855535B1BFD1
:10717800130600643306C502ADBF411122C42A8438
:107188000D4506C6EFA09FB705C5930700FD230070
:10719800F500CD472301F500A30085002244B72759
:1071A8000020B240AA8503C5C7A741016FA09FBFB1
:1071B800B24022444101828003574500011189678A
:1071C80006CE22CC26CA938667006319D7001C45D1
:1071D800014583C50700EFF0AFCE35A89386870039
:1071E8006317D7001C45054583C50700EDB793868F
:1071F80097006314D702B727002083A747AC014440
:107208009DC718450345070059E90547A380E700CE
:107218000545EF90501C054419A89386A700631EE6
:10722800D7001C4503C50700EFF0DFE32A84228559
:10723800F2406244D2440561828093866703E30882
:10724800D7F893867703E30FD7F893868703631BF2
:10725800D704B724002083A744AC0144E9DB1C45CC
:1072680003C507000DED05447D45A3048100EFD05B
:107278008FD22315A10013050002EFD0CFD183A729
:1072880044AC2316A1007800A38087009306A100D0
:107298001306910085450545EF90501CADBFEFF0F2
:1072A8003FD795BF93869703E30DD7F69386E703F9
:1072B8006317D7001C45094583C5070029BF938775
:1072C800F7036316F7021C4503C507002DE96C0098
:1072D8001305D030EFE06170B247414793F7070FCD
:1072E800E38BE7F285450545EF9010182DB78967C0
:1072F800938707040144E31CF7F21C4583C4070085
:10730800B727002083C7E7AE268595EB0D45EFA08C
:10731800FF9EAA850544E30C05F0930700FD2300B2
:10732800F500D147A30095002301F500B7270020F9
:1073380083A747AC03C50700EFA0DFA6CDBDEFF0DC
:10734800DFE3D1BDB727002083C7B7E2411106C6E6
:10735800958B99CB37250020130585BAEFC01F8878
:107368004D45B240410182800145EFC03F8701454C
:10737800CDBF03C70500937625009377D70F99C231
:1073880093672700131885011358884113F7F707E7
:107398006354080013E70708937685009377770FFF
:1073A80099C2936787001377050293F6F70D19C3FF
:1073B80093E607022380D500634508009377A5026A
:1073C80081CB8347060093E7C7002300F60082803D
:1073D8007DFD83470600CD9BCDBF2D456317071460
:1073E80003C805000947631EE812C8410347150092
:1073F800034505002207498F42070D654187930819
:1074080025A06309170B011122CC26CA4AC84EC60B
:1074180006CEBE89B68432842E8963CEE8009307EF
:1074280005A0630DF702130515A0630EA7042390AA
:1074380004000545A5A0930745A06307F708634620
:10744800F706130565AAE314A7FE85472390F600FF
:10745800DC4583C707002300F60081A0C845EFA0DC
:10746800BFB0420541814E86637335012A86239059
:10747800C400420641828325C90022859790FE1FD9
:10748800E780A0E719A8DC4583D707002390060109
:107498002300F600A183A300F6000145F2406244F0
:1074A800D2444249B2490561828099472390F60047
:1074B8001946D1B785472390F600DC45014583C7B7
:1074C80007002300F6008280DC45A9CB21472390E2
:1074D800E60003D707002300E60003D7070021834F
:1074E800A300E60003D727002301E60003D72700FF
:1074F8002183A301E60003D747002302E60003D750
:1075080047002183A302E60003D767002303E600B0
:1075180083D76700A183A303F60041B72390060031
:10752800ADBF2390060005458280828083C8050090
:1075380089476397F814DC41797122D406D626D29C
:107548004AD04ECE52CC03C8170083C707002E84FA
:1075580022083368F80042088D67135808411383DE
:1075680027A0630068102A8A3A89B684B285634CDA
:107578000301138707A0630AE802938717A063052E
:10758800F808854711A8138737A06307E80A138707
:1075980067AA8D47E317E8FEB25022549254025965
:1075A800F249624A3E8545618280484432C6EFA06E
:1075B800BF9B420541819D47E36025FFB3099900C0
:1075C800D547B24563D43701B547F9B7484426864D
:1075D800C2094A959790FE1FE78020D2484493D964
:1075E800090159463306364181454E95EFA0BF96AD
:1075F800B727002083A747B099E3814771BF9C4311
:107608008145E5DF52853DA0AD47E31709F8E39DC5
:1076180016FB83471600834606005844A207D58FF9
:107628002310F700B727002083A747B0F9D79C435A
:107638008545E1D78297D1B7AD47E31F09F499474C
:10764800E394F6F8484419469790FE1FE780E0CA8D
:10765800B727002083A747B0CDD39C43D9DF8D45FA
:1076680055B7AD4715FB8547E390F6F60347060087
:1076780093070008E3E2E6F2DC452380E700B5BFA4
:1076880085473E858280B72700203727002023A220
:1076980007B0B72E002089472300F7A8130F07A8C3
:1076A8008147938ECEBB5947B386FE0023800600E0
:1076B8008507E39BE7FEB7250020B707A000938561
:1076C80045A8938707059CC1B707E803DCC1B7271E
:1076D8000020238107B037760300B727002093875F
:1076E8008797130606DED0C3372E002037760300AF
:1076F8000947130EDEA7130646DB2300EE00D0C7AA
:1077080023AEE70123AEC70337230020B7280020A4
:10771800372800203725002037760300377F0300FD
:10772800377E03008546130646DC938818A81303A2
:1077380003B01308F8A71305E5A7130FCFDC130E42
:10774800CEDB2380E8002380E7002388E70023803E
:10775800E7022388E7022380E7042300E800238464
:10776800D70023950700D0CB238CD700239D070093
:1077780023A2E7032384D7022395070223A6D7036E
:10778800D0DB238CD702239D070223A2C7052384BD
:10779800D70423950704231003002300D50023A64C
:1077A80067042388E70423AE17052380E7062388A8
:1077B800E7062380E708B778030037770300130745
:1077C80007DC9388C8DD23A2E708F0CB238CD70415
:1077D800239D070423A217072384D70623950706AA
:1077E800ECD7F0DB238CD706239D070623AE0707CB
:1077F8002384D7082395070823A6A708377701000D
:10780800B7270020938787A01307273E98C33777A9
:10781800010013074753D8C323A407008280A54754
:1078280063EDA70CB7670300938707520A053E95D7
:107838001C41411122C426C206C64AC0B2842E8405
:107848008287D547614563E3B70237290020594647
:1078580081451305C9BBEFA00FF02286A685130545
:10786800C9BB9790FE1FE78040A90145B24022445A
:10787800924402494101828089476145E398F5FEB7
:1078880003570600B72700202390E7B0F9BFA147A8
:107898006145E39DF5FC372500202146A6851305A3
:1078A80045A8EFE0113BD1B785476145E390F5FC6A
:1078B800B725002093858597D04D9385850203C50C
:1078C8000400EFF01FAB55B785476145E390F5FA23
:1078D800B725002093858597D05D93858504C5B726
:1078E80085476145E394F5F803470600B72700206C
:1078F800238FE7A69DBF094595BF094582800547A7
:10790800630CE5024111AA8706C62E8599CB11475B
:10791800638CE70225476381E7040945B2404101CA
:107928008280B725002055469385C5BB9790FE1FDA
:10793800E780A09C0145DDB7B727002083D707B0B3
:1079480001452390F5008280B725002021469385C4
:1079580045A8EFE01130F9BFB727002083C7E7A794
:107968002380F500C1BFB7270020938727B003C73E
:10797800070015E305472380E700058909CDB726E9
:10798800002037250020938686A04146A54513058B
:1079980085976F30E06D0145828001111388F5FFEE
:1079A80006CE22CC26CA4AC84EC652C41378F80F4F
:1079B800AD4563ED050BB76503000A08938585544B
:1079C8002E983E8A83270800BA893689B28482872E
:1079D8008545EFC0EFBC2A8419E1EFF0BF962285F8
:1079E800F2406244D2444249B249224A0561828047
:1079F8008945EFC0EFBA2A847DF12685EFE0BF9470
:107A0800F9BF9145EFC0CFB92A8471F95286CE8566
:107A18004A85EFC04FB0EFF0FF92EFF00FD5EF803F
:107A2800C01E75BFA145EFC0AFB72A844DF9528675
:107A3800CE854A85EFC02FAE2685EFE0DF90EFE0D8
:107A48001F87EF70D07D61BFB145EFC06FB52A8445
:107A580059F55286CE854A85EFC0EFAB2685EFE013
:107A68009F8EEFE0DF84EF70907B75B7094485BF88
:107A780079714ECEAE896C0022D426D24AD006D671
:107A88002A89B284EF00507A2A840DE1CE854A858E
:107A9800EFB04FFE2A8419E93245B7360100268730
:107AA8009386E6262D468145EF10E0122285B250D6
:107AB800225492540259F2494561828079714ECE1E
:107AC800AE896C0022D426D24AD006D62A89B2843E
:107AD800EF0090752A840DE1CE854A85EFB0BF8707
:107AE8002A8419E93245B736010026879386463538
:107AF8004D468145EF10200E2285B25022549254F3
:107B08000259F24945618280397126DAAE844C0007
:107B180022DC4AD84ED652D406DEAA893289368A61
:107B2800EF0090702A8431EDA6856303090283D79C
:107B380004002C002314F10083D724002315F1003E
:107B4800930720302316F100930780022307F100E2
:107B58004E85EFB00FEF2A840DE55946A68513052B
:107B6800A100230421019780FE1FE78000791245B8
:107B7800B736010052879386862125462C00EF10E0
:107B880080052285F2506254D2544259B259225A81
:107B980021618280797126D2AE846C0022D44AD0C9
:107BA8004ECE06D6AA893289EF0010682A840DE1E4
:107BB800A6854E85EFB0EFED2A8419E93245B73630
:107BC80001004A879386C6283546A685EF10A0008F
:107BD8002285B250225492540259F249456182805A
:107BE800BD47638CF50663E9B702A5476387F506C9
:107BF80063EDB7009947638CF5049D47638FF504DF
:107C08009547638CF50401458280B5476387F50481
:107C180063E1B704AD47F5B7DD47638EF50263EA64
:107C2800B700C947638BF502D9476386F502C54794
:107C3800C9BFF5476383F50263E4B700ED47D1B7E1
:107C480093072005638BF5009307200D5DBF48451A
:107C5800828008418280084582804841828093075B
:107C6800F00F630CF506011126CAAA841305000259
:107C780022CC4AC84EC652C456C206CE3A89B689E4
:107C8800B28A2E8AEFA08F872A844D4515C893079C
:107C980000FB2300F400A300540123114401230234
:107CA800340113058400614663050902CA8597807B
:107CB800FE1FE7808064A2852685EFA0AF8E014570
:107CC800F2406244D2444249B249224A924A05618A
:107CD80082808145EFA02FA8F9BF09458280011154
:107CE80022CC06CE2A842306B100A306C100EF5099
:107CF800A05C0DC10347C500A1476311F702B72770
:107D0800002003C5C7A878009306E0070146A285AE
:107D1800EFF0FFF4F240624405618280B72700204B
:107D280078009306E0070146A28503C5D7A8CDB71A
:107D3800930700643306F6026FA02FDB05C90347DB
:107D4800050085469307270093F7F70F63F0F602BF
:107D5800411122C42A843A8506C6EFA06FECFD576C
:107D68002300F400B24022444101828082800357FC
:107D780005009307000B6313F70283474500494743
:107D8800639CE7000347150185476399E70003559E
:107D9800250085456F30B05C6D47C5BF82800111F5
:107DA8002314B1006C0022CC26CA4AC806CE2A8900
:107DB800B6842315C100EF0030472A840DE12C005A
:107DC8004A85EFB04FBE2A8419E93245B73601001B
:107DD80026879386661615462C00EF00D05F22850D
:107DE800F2406244D2444249056182807971930726
:107DF80020302314B1002315C1002316F1002C00F4
:107E080093078002014606D62307F100EFF0DFCF83
:107E1800B25045618280C177797185073EC4894730
:107E280026D22316F100AE84930780024C0022D498
:107E38004AD006D62A892307F100EF00F03E2A84AB
:107E48000DE12C004A85EFB02FCE2A8419E912459E
:107E5800B736010026879386C62F45462C00EF00CB
:107E680090572285B250225492540259456182801B
:107E7800B28605466FF05FC9797126D2AE846C0070
:107E880022D44AD04ECE06D6AA893289EF00D039FC
:107E98002A840DE1A6854E85EFB00FA82A8419E93A
:107EA8003245B73601004A87938626100D46A685C7
:107EB800EF0070522285B250225492540259F2496E
:107EC800456182807971930720202314B10023151E
:107ED800C1002316F1002C0093078002014606D644
:107EE8002307F100EFF05FC2B250456182800111B3
:107EF80022CC06CE2A842EC632C436C2EF50C03BEE
:107F08000DCD8346C500A14712472246B245639E60
:107F1800F600B727002003C5C7A8B2862E86A2851B
:107F28006244F24005616FF09FD3B7270020B28604
:107F380003C5D7A82E86A285E5B7F2406244054559
:107F4800056182806FF0DFB26FF09FB26FF09FC45F
:107F58006FF05FC479714ECEAE896C0022D426D200
:107F68004AD006D62A89B284EF00102C2A840DE163
:107F7800CE854A85EFB0CFB32A8419E93245B736A2
:107F8800010026879386A62A3D468145EF00B04426
:107F98002285B250225492540259F2494561828096
:107FA800B28601466FF05FB6011122CC2E846C00B8
:107FB80026CA06CEAA84EF003027DD47630AF500FB
:107FC800930710102314F400A2852685EFB0AFB8EC
:107FD800F2406244D244056182802394050083D72D
:107FE800850099E36FF09FAD09458280FDB7B727FB
:107FF800002003C767B3854763F9E702011122CC64
:108008002E846C0026CA06CEAA84EF00F02109E966
:10801800930700102314F400A2852685EFB0AFB3B0
:10802800F2406244D2440561828059458280B72774
:10803800002023A4A7B08280B727002023A6A7B0DA
:108048008280011122CC26CA06CE2A84AE84EF5043
:10805800A026A6852285EFA05FD71DE522852316D9
:108068009100EF5060250DC10347C500A147631279
:10807800F702B727002003C5C7A878009306F007C2
:108088000146A285EFF0BFBDF2406244D2440561CB
:108098008280B727002078009306F0070146A28562
:1080A80003C5D7A8C5B7011126CA06CEB68422CC07
:1080B800DD4663E2B608D94663FED50AA546638164
:1080C800D50A63EEB6049546638CD508994663874E
:1080D800D50A054441687D18631606093AC6EFA01B
:1080E8009FD233068540324742064182420441808E
:1080F8003305C4004205BA85418132C6EF30703677
:10810800AA8749C181C432462390C400B305804080
:108118006244F240D2443E8505616F901FB6C54661
:108128006380D504C9460D44E395D5FAC167FD17A8
:10813800E31EF6FA65B7F5466380D50463E4B60036
:10814800ED46D5B7930620056388D5029306200D22
:10815800E391D5F8C167FD170D446319F600BDBF5B
:1081680009448DBF9306200DE392D5F831064206E7
:108178004182ADBF15445DBF0D444DBFC167FD17BA
:108188001D447DB7F2406244D244056182800111EA
:1081980022CC26CA06CE03C645002E841307000249
:1081A80081469945AA84EFF01FF02AC629CD835746
:1081B800040003464400930554002310F10083573C
:1081C80024002311F10089472312F100930780024C
:1081D8002303F1009780FE1FE780201283474400A5
:1081E8008A8526852314F100EFA0BFFE2A8411C5D5
:1081F80032459780FE1FE78040EF2285F2406244B7
:10820800D244056182804D44CDBF5D7186C6A2C44B
:10821800A6C2CAC04EDE89476306F600C1470944B4
:10822800631AF6040144B9C52E894C0832C6B689CA
:10823800AA84EF00607F2A8432460DEDC177850756
:10824800CA851305D1013ECC230EC1009780FE1FBD
:10825800E780A00A2C082685EFF07FF32A8419E925
:108268005245B73601004E879386E61B1D462C08FB
:10827800EF0070162285B640264496440649F25906
:1082880061618280797122D436844AD04ECE52CC34
:10829800B2892E8A3A898146130710022286D94567
:1082A80026D206D6AA84EFF01FE02AC629C1228664
:1082B800CA852314810023124101231331019780B9
:1082C800FE1FE78080034C002685EFB08F932A8439
:1082D80011C532459780FE1FE78020E12285B25004
:1082E800225492540259F249624A456182804D44AF
:1082F800F5B7011122CC26CA06CE4AC8DD472A8422
:10830800AE84638DF5028147035504006C00230693
:10831800F100EFB08F920545638EA40803458400F1
:10832800B165938505B8EF901FF6E5472301F40082
:10833800B7370100938787435CC0A5A80347550159
:108348003149B2863306270318499C4232971043B5
:10835800E31BF6FA83D7460003564700E315F6FAFF
:108368008C4608479780FE1FE780A0FC49DD8347BD
:10837800540103474401850793F7F70FA30AF40054
:1083880063F0E704B3872703184803550400BA9736
:10839800984783D6470003D6270083D50700EFF018
:1083A8007FEE35F103458400B165938505B8EF90FC
:1083B8009FED5945F2406244D244424905618280AA
:1083C8008347640191B7011122CC26CA06CEDD4746
:1083D8002A84AE84639CF50603550500EFA0BFA26E
:1083E8000356C40183562401035744016D162A9687
:1083F80042064182B307D640C207231EC400C18388
:1084080063F1E7089305C5FF3308F740635CB802DA
:10841800BA96918EC206184C835504010355040080
:10842800C1823E97EFF01FE615E103458400B16570
:10843800938505B8EF903FE55945F2406244D24430
:10844800056182806D1593160501F1B781470355C3
:1084580004006C002306F100EFA03FFE0545E38E03
:10846800A4FC03458400B165938505B8EF90BFE18E
:10847800E5472301F400B7370100938787435CC0C1
:1084880065BF8547E9B7397126DAAE842C0022DC4E
:108498004AD84ED606DE2A89B28979232A8421ED64
:1084A8004A85EFA05F9683D644006D1563C5A60084
:1084B80093160501C182984403D6240083D504008D
:1084C8004A85EFF03FDC2A841DE53146A685080879
:1084D800230601009780FE1FE78020E283D724004F
:1084E8002245B73601004E879386663C5D466C0090
:1084F800231EF100CD252285F2506254D2544259F0
:10850800B259216182806FF01FF86FF0DFF779713F
:1085180026D206D622D44AD04ECE52CC56CA894448
:10852800BDC935CA32892E84AA893A8AB68AEFA08B
:108538009F8D130644008147711503570600635643
:10854800A706850793F7F70F3106E318F9FE8A8522
:108558004E85D929AA8421E118448356440003563C
:108568002400835504004E85EFF0DFD1AA8405E589
:108578000245B7360100854752879386663C5D46BB
:108588004C002302F10022C423062101A3060100A6
:10859800230751018925B250225426850259925445
:1085A800F249624AD24A45618280ED44EDB7797159
:1085B8004ECE37760300AE89C16526D20147AA841C
:1085C8008946130686DEFD15054522D406D64AD00F
:1085D800EF105015054431CD2A8913073002814622
:1085E8001146F5452685EFF01FAC2AC6554431C122
:1085F8008357A900CE8601462314F100914723151D
:10860800F10085472300F500B2472C002685A3809A
:1086180007003247FD572301F7003247A301F7004F
:10862800EF1010062A8411C532459780FE1FE78097
:10863800C0AB2285B250225492540259F249456186
:108648008280411106C6EFF0AFD919C5B240410189
:108658001783FE1F670063A9B24041018280B727D4
:108668000020A386A7A88280B72700202386A7A872
:108678008280011106CE2AC6EFA0CFDEFD5737272C
:108688000020A306F7A83727002032452306F7A8BD
:10869800B727002023A407B0B727002023A607B0D8
:1086A8009145B72700202380A7DAEF30C056F24063
:1086B80005616F20D03293970501C18763DB0712EC
:1086C800B727002003C507DA797122D44AD006D625
:1086D80026D22E89EF906FE62A8451CD03470500F4
:1086E8009307000A6316F70885474C08A305F100AD
:1086F800EFA06FE4AA840DED8347610171476375AC
:10870800F708138717FE1377F70F9306000263F431
:10871800E608858BD5C7B727002083A787B099447B
:1087280081CB035524001306B1004C088297AA8414
:108738008347B10099C7084409C59780FE1FE780A1
:10874800C09A95E05247B7070001938707F07D8FDD
:10875800B707120093870710630CF70003476101FE
:10876800ED476317F700035524008545EF30203F98
:108778002285EF90EFD5B250225421653345A900E8
:1087880092540259456182803707301405073357E0
:10879800F700058B3DDF372700200327C7B049DBEB
:1087A8000347510151F72306F10099472308F100C7
:1087B800035524006C0023170100EFA04FFC8DBF68
:1087C800B727002083A7C7B09DC30355240013060D
:1087D800B1004C08829729DDAA8483475101A9FB7F
:1087E80083476101230891002306F100D1B799441A
:1087F800EDB701458280397122DC26DA06DE4AD8D7
:108808004ED652D456D25AD0A5472A84B2846399F8
:10881800F5108347450203570600835A260085074B
:108828002302F5029307F7FFB387FA025442C207FF
:10883800C183B69703C9170083C707008346C500DD
:1088480022093369F90085476390F6023307570315
:10885800231006008149014A130B3501931A0701B9
:1088680093DA0A0163E15907C167FD176302F90C3E
:1088780083570401637EF90A050942098346C40047
:1088880013590901231724010547035504009305CB
:10889800E400639FE6002315F100930720302316B8
:1088A800F10093078002231421012307F1002C0013
:1088B800EFA03F9903458400B165938505B8EF9013
:1088C8009F9C5945BDA083D62400DC4083452401E4
:1088D800ED1613865900C206C1823E965A85EFA04E
:1088E800EFBD05C9630C3A01C84003D62400B3059F
:1088F800350152959780FE1FE78020A083D724007A
:108908003E9A83D70400420A135A0A018507239026
:10891800F40083D72400BE99C20993D9090199B7F5
:1089280003474600A9476310F7028347450281CFF2
:108938000145F2506254D2544259B259225A925ABD
:10894800025B216182808346240113093401377553
:1089580003004A868945130505DEEFA02FB619C125
:108968000545C1BF83462401377503004A868945FA
:10897800130545DEEFA08FB465F5834624013775EE
:1089880003004A868945130585DDEFA02FB369F9F1
:1089980083462401377503004A868945130545DC5B
:1089A800EFA0CFB155FD03C74400BD47E3EAE7FA9E
:1089B800A56793874712B3D7E700858BD5D383473D
:1089C800440285072302F40203D9240071BDB727A6
:1089D800002003C647E2B727002003A707B1814755
:1089E8006315F600814636858280BA8613078702AA
:1089F800835587FDE389A5FE850793F7F70FCDB764
:108A0800011106CE2EC6EFF09FFC01CD8347A500CD
:108A1800B245138717006396E50093F707F8230517
:108A2800F500F24005618280011106CE2EC6EFF0F6
:108A38001FFA05C5B24591C188C183478500130750
:108A4800E00F5D456388E7001307F00F0145638376
:108A5800E7005945F240056182800945E5BF4111AB
:108A680022C42A84210506C626C24AC0EFF00FADEB
:108A780083472400A51793F7D70F91EB0347C4004A
:108A88008547631EF7041C48814431499DEFFD5713
:108A980023010400A304F400230204021305C40004
:108AA8002244B240924402496146814541016F9097
:108AB8008FCAB38724033E95084509C59770FE1FE2
:108AC800E780A062850493F4F40F834744010848C3
:108AD800E3E1F4FE9770FE1FE78020614DBF084C6C
:108AE80075F975B7411122C4416406C626C29307B9
:108AF800E4FF630EF500AA8485E1EFF05FED01E97C
:108B08001305F4FFEFF0BFEC19C123109500B24034
:108B1800224492444101828085476395F504EFF031
:108B28001FEB2A846DD5FD572310F5008347840079
:108B38001307F00F6385E7021307E00F638BE70065
:108B4800834624000345940001475146A685EFF06B
:108B58000F912285EFF0BFF0FD572304F4002305A1
:108B6800040075B78947E394F5FA8545EF40900FFF
:108B780059FD2685EFF0BFE52A844DF949BF39C96B
:108B8800034785009307F00F6306F704011122CC11
:108B980006CE2A84834625008355050003459500A3
:108BA80001475D46EFF0AF8B03472400E1476319A7
:108BB800F700035504006C0023060100EFA0FF87AF
:108BC800F9572304F4002285EFF07FE9F24062446C
:108BD8000561828082809307F00F6306F706011112
:108BE80022CC26CA2A844EC6AE84B689AA859306A4
:108BF8008500379501004AC852C43A89328A13055C
:108C080065B8794606CEEFF0AF92A304240123019C
:108C180044012322340185C01305C4006244F24094
:108C28004249B249224AA685D24461460561177372
:108C3800FE1F6700836CF2406244D2444249B24945
:108C4800224A056182808280B7270020238AA7B044
:108C580082809547639CF5068347450285468507CC
:108C68002302F50283570600584203462600FD17E3
:108C7800C207C1836318D6048A07BA9703C71700C7
:108C880083C707002207D98F0357E50063F9E70474
:108C9800411106C622C485072316F5002A849305C8
:108CA800C50003550500EFA00FD003458400B1654A
:108CB800938505B8EF902FDDB2402244D9473E8511
:108CC80041018280C946B387D70245BF8346460023
:108CD800294785476396E6000347450211C3814744
:108CE8003E8582809D476392F506834745028356F9
:108CF800E50085072302F502835706005842FD1751
:108D08008A073E978347170003470700A207D98FB2
:108D1800014763F6D704411106C622C485072A8491
:108D28002316F5009305C50003550500EFF02FC67F
:108D380003458400B165938505B8EF90CFD4B24060
:108D4800224459473A854101828083464600A94713
:108D580005476396F60003474502133717003A851F
:108D68008280411122C406C626C2B5472A84639B65
:108D7800F50483474502B28485072302F5020355AB
:108D88000500EFA04F8883D704001307F5FF0145BE
:108D980063C5E7020357E400035504009305C400C4
:108DA800BA972317F400EFA0CFCE03458400B1652E
:108DB800938505B8EF902FCD5945B240224492448F
:108DC80041018280034746009D470545E317F7FEAA
:108DD8000345440213351500CDB7C547639EF50614
:108DE8008357060003572600FD17B387E70203479A
:108DF800450205072302E5025842C207C1833E9790
:108E08008347370003472700A207D98F41677D179B
:108E18006395E70081473E858280138717002316F4
:108E2800E5000357E500E3F7E7FE411122C4930587
:108E3800C5002A840355050006C6EFA0EFCE0345FA
:108E48008400B165938505B8EF90EFC3B240224422
:108E5800D9473E8541018280834646002947854798
:108E6800E39BE6FA0347450255F775B7011122CC93
:108E780026CA4AC852C406CE4EC683C7250015471F
:108E88002A8AAE8432843689639DE7043686A285B1
:108E98002685EFF01FDCAA8955E985476318F40A8F
:108EA80003474900A9476301F70203C594004A87AD
:108EB80085460146D285EFE09FDA19E585454A8562
:108EC800EFE01FD21334150083C6240003C59400B5
:108ED80001476946D285EFE09FD82685EFF03FB875
:108EE80051A01D476398E7003686A2852685EFF0D6
:108EF8007FDF55B725476398E7003686A285268524
:108F0800EFF07F8F49BF35476398E7003686A28523
:108F18002685EFF01FE541B745476398E700368699
:108F2800A2852685EFF07FEBBDB75D47639FE7001D
:108F380003C7C50085473686A2852685631DF702C7
:108F4800EFF02FBB8547631BF5048549A5476317D9
:108F5800F402835709009DE30544E38709F6D947DE
:108F6800E39DF9F62285F2406244D2444249B2496F
:108F7800224A05618280EFF00FC5E9B703C5940066
:108F88004A87A2860146D285EFE07FCD71F5A2859A
:108F98004A85EFE0FFC413341500C1B70544D9B7BB
:108FA800397122DC06DE26DA4AD84ED652D456D299
:108FB8005AD083D705001944B1E783CA2500AA8986
:108FC800328A93875AFE93F7D70FAE84C5EBB7273B
:108FD800002083C647B11307F00F138B47B119441C
:108FE8006382E602F5476395FA04EFF05F9E2A89EB
:108FF80029C10346A50015CE93178601E18763DED4
:10900800070001442285F2506254D2544259B259A1
:10901800225A925A025B21618280F5454E85EFE023
:109028001FCC8347A90093E707F82305F900D1BFB0
:10903800014983D64400904483C5140003C5040045
:109048003800EFA08FC02A8455FD83C6240003454D
:109058000B0038000146CE85EFE07FC02A845DF121
:10906800B24799C323000A0083C724007547E39ACF
:10907800E7F8E30809F82305F90069B7EFF03F9529
:109088002A8941D185476391FA0683D544008844EB
:109098003000EF903FD92A8435F503472900C547AA
:1090A80063F2E706DD476301F708B72700200345A9
:1090B800990083C707DA639CA70601440347290080
:1090C8008D47631FF700835781000357C90063F476
:1090D800E7002316F9008355C9004E85EFE07FF6B7
:1090E8004A85EFF0DF9739BF834725001144E39B9A
:1090F80057F15C41E38807F083D544008844300089
:10910800829751BFB72702009387072AB3D7E70092
:10911800858BC1DF03C624003400CA854E85EFF075
:10912800FFD42300AA00F9BD83270901DDB783C650
:10913800240038000146CE85EFE07FB22A843DFD49
:1091480083C524002800EFE0BFA925D923000A0021
:10915800B5B7011126CAB724002003C544E2930716
:10916800800291653305F5029385657006CE22CCA1
:109178004AC84EC652C49770FE1FE78020E8B7273A
:10918800002023A8A7B01DCD138907B10144130AF5
:109198008002FD5983C744E2636FF40237950100EA
:1091A800130585FAEFE0BFE837950100130585A0A0
:1091B800EF903FB7379501001305C5AEEF40E021AA
:1091C800014511A04D45F2406244D2444249B2499A
:1091D800224A05618280B3074403032509006146DA
:1091E800814505041374F40F3E95231035012301BE
:1091F8000500231435012305050023020502310566
:10920800EF807FD541BF0145828083D70500638702
:10921800A70083D745006395A70091052E85828016
:1092280083D78500A105E38BA7FE8145C5BF0DCD7A
:10923800834725000547890793F7F70F6376F702F9
:10924800411122C406C62A8483550500034535000A
:109258000147F9465D46EFE09FA0F9572311F40056
:10926800B2402244410182808280014582803726B3
:1092780000201306B6A9930700022300F60037273B
:109288000020FD57230DF7A837270020A307F7A8CC
:10929800372700202307F7A88545B7270020239CF8
:1092A800B7A8B7270020239B07B0B727002023AE15
:1092B80007B0B727002023A407B2B727002023A0B0
:1092C80007B2B7260020B7770300938606A99387CD
:1092D80047DDDCC2B7270020238C07B0B727002062
:1092E800938747A109472380E6002380E700238866
:1092F800E7002380E7022388E70237770300D4C713
:10930800130787DCB7760300D8DB938646DC0D4766
:10931800D4CB238CE70237750300B77603003727D1
:109328000020130747BD130505DE938686DED8DFC8
:10933800C8C32384B70023950700238CB700239D57
:109348000700D0CFD4D3238407022395070223A68E
:109358000702239D070237970100B727002093874C
:1093680047A51307E74223A00700D8C323A4070093
:109378008280411106C6EFF05FE911C5034525005B
:10938800B240410182800145E5BF411122C426C295
:109398004AC006C6AA842E893284EFF01FE711E975
:1093A8004165CA857D15EFF05FE6C54711C52310F5
:1093B8009500230185008147B24022449244024926
:1093C8003E854101828029E7894835476393160520
:1093D800011106CE22CC26CA034716000346060012
:1093E80093C7F7FF2207598EF18F32C68DE7C44520
:1093F8002A84A685EFF0FFF732460147630FA600DF
:1094080022856244F240A685D24405616FF0FFF7D9
:109418002D473A85828013070008F2406244D244FF
:109428003A850561828083C8050009486395080369
:1094380003A845008347180003480800A207B3E7BC
:109448000701C2070D68C1871308289063950701B3
:1094580089476FF05FF705458280011122CC3724D8
:1094680000201304F4A80347040006CE26CA4AC8FD
:109478004EC69307F00F6300F704AA892945B28402
:109488002E89EF80BF8705C99307100B2310F500BD
:109498002302050023113501231325012314950008
:1094A800AA85034504006244F240D2444249B249C5
:1094B80005616F803F8FF2406244D2444249B2490D
:1094C80005618280411126C2AE84B72500209385AC
:1094D80045BD22C406C62A84EFF0BFE9098909C937
:1094E80022852244B240A685924441016FF02F8C18
:1094F800B24022449244054541018280411122C470
:1095080026C24AC006C6AA841304450013090504E6
:10951800835704008DC3084409C59770FE1FE78070
:10952800C0BC228531468145EF80FFA23104231A51
:1095380004FEE31F24FDB2402244FD572390F400AB
:109548000249924441018280B727002083A747B28D
:1095580003D707006300A70283D60704138707040D
:109568006388A6001387070883D707086396A700B0
:109578003A8582803E87EDBF0147DDBFB7270020CF
:1095880083A787B289CB03D747006314A70088470E
:1095980082809C43C5BF01458280411106C6EFF019
:1095A800FFFD09C50845B240410182800145E5BF7C
:1095B800011126CA9384450022CC4EC606CE4AC85D
:1095C80052C456C25AC02687814901448146814700
:1095D80015450356070045CEC9E203544700835793
:1095E8002700B286A297C207C18385093107E39293
:1095F800A9FE35C42E89916593854570228597709B
:10960800FE1FE780A09F2A8B39C9814A014A8C44F2
:1096180085C503D6440033054B019770FE1FE780CC
:10962800C0CD83D7440088443E9A420A135A0A019F
:109638009770FE1FE78060AB63870A00314681455B
:109648002685EF805F91850AB104E3C23AFD23269F
:10965800690123148900054521A0630DD600014541
:10966800F2406244D2444249B249224A924A024BE9
:109678000561828003562700E313F6FE0356470070
:109688003294B2974204C2074180C183B9BF0545ED
:10969800E35835FDB9BFB727002083A707B299E380
:1096A8000145828098470357A7006315A7001385D3
:1096B800470082809C43E5B7411106C6EFF0BFFD25
:1096C80011C503550500B240410182800145E5BF3F
:1096D800411106C6EFF03FFC11C503452500B24015
:1096E800410182804145E5BF411122C42A842E856B
:1096F80006C6EFF0FFFDAA8505462285EF30F03E4D
:1097080095476305F500BD476313F5002145B24051
:109718002244410182804111B727002022C406C695
:1097280003A407B28146938707B229C01844035699
:10973800A70018406317A60285CA98C22E8581C95A
:109748002146930544009770FE1FE78000BB2285E1
:109758009770FE1FE78060990145B240224441019D
:109768008280A2863A84D1B798C3C9BF0545F5B7A8
:1097780037270020832787B20146130787B2A9C776
:1097880003D847009443631CA802011106CE22CCDB
:1097980026CA0DCA14C2AA843E852E849770FE1F5D
:1097A800E780A0942C002685EFF0FFF601E519C0AC
:1097B800B2471CC0F2406244D244056182803E86B2
:1097C800B68775BF14C3C1BF05458280411122C445
:1097D8002A84090506C6EFE06FD6FD57A301F400F9
:1097E800B240224441018280B727002083D687BF38
:1097F8002A87938787BF6381A60283D66700638F12
:10980800A60083D6C70001456397E60009451947B6
:109818003305E5023E9582800145D5BF0545C5BFA4
:10982800411122C4416406C626C29307E4FF630EB1
:10983800F500AA8485E1EFF03FFB01E91305F4FF89
:10984800EFF09FFA19C123109500B24022449244C8
:109858004101828085476394F504EFF0FFF82A847C
:109868006DD5FD572310F500834724001307F00F2B
:109878006384E7021307E00F638AE70003453400B7
:109888000147F9465146A685EFE06FBD2285EFF006
:10989800FFF3FD572301F400230204007DB7894735
:1098A800E395F5FA8545EF30F03B45F12685EFF075
:1098B800BFF32A8455F951BF1D71A6CACEC686CEFC
:1098C800A2CCCAC8D2C4D6C2DAC05EDEAE8483C512
:1098D8002500F947AA896397F504EFF0FFF02A8479
:1098E80011ED01442285F6406644D6444649B649FE
:1098F800264A964A064BF25B2561828083472500FB
:109908000547890793F7F70FE37DF7FC0345350013
:109918000147F9460146CE85EFE06FB42285EFF0A6
:10992800FFEAC1B703AB0400B7070001938707F04C
:1099380037071200B377FB0013070710B28A638A50
:10994800E7022EC6EFF05FEA2A89B24505C503464D
:1099580045000DC293178601E187E3C407F84E85D9
:10996800EFE0EFB78347490093E707F82302F900D0
:109978008DBF0149372A00200347AAA99307F00F92
:10998800130AAAA91944E30FF7F4E147E3ECB7F483
:1099980093D71500FD1713973700B7670300938710
:1099A8008757BA9703A80700E30E08F283AB47006E
:1099B800E38A0BF2420B135B0B0163050B00C947EB
:1099C800E392F5F283D64400904483C5140003C59E
:1099D8000400380802982A84E31605F02C084E85FE
:1099E800829B2A8421C983C71400E39D07EE83C79D
:1099F8002400230AA10039472308F1006399E702EC
:109A080062478347170003470700A207D98F0C084E
:109A18004E852319F100EF908FD6E30405EC140866
:109A28000546D9454E85EFE08FCC2A8465BD83571E
:109A38008101F1BF83C624009147E384F6EA034518
:109A48000A0038080146CE85EFE06FA12A84E31B9F
:109A580005E883C524002808EFE08F9819C1238002
:109A68000A009840B7070001938707F07D8FB70772
:109A7800120093870710E306F7E6E30409E683C7B5
:109A880024002302F900B9BD011106CE2EC6EFF05D
:109A9800BFD501CD83474500B245138717006396AC
:109AA800E50093F707F82302F500F240056182808C
:109AB800B727002003A707B219E3014615A81C47DA
:109AC80003D8A700636B050183584700B3860801D4
:109AD8006355D5008146639416011843F1BF3E864D
:109AE800C10703D3A7FF6317A30099C123900501FA
:109AF800328582808506C206C182F1BF397152D48F
:109B08002E8A4ED69305E101AA89528522DC4AD8CD
:109B180056D206DE26DA328936C63AC4BE8AEFF055
:109B28003FF9054435C5AA840355E1013944EFF0EE
:109B3800FFA439CD03284500630C08042247B24628
:109B4800D6874A86A6854E8502982A8431E19307EE
:109B5800E00F638FFA0203C704008947631AF7020C
:109B6800D8408347170003470700A207D98FC207C9
:109B78000D67C18713072790639CE7008347190087
:109B880003460900D285A2075D8E4E85EFF0FF8C53
:109B98002285F2506254D2544259B259225A925AEA
:109BA80021618280797122D4035425004ECEAA897E
:109BB800228556CA06D626D24AD052CC5AC85EC684
:109BC80062C4AE8AEFF05F9801E92285EF903FDB2F
:109BD800594429E90144B9A003C789008547AA84E3
:109BE8000144631AF702AA8513858900EFF05F9C88
:109BF80029CD03D7640083D68400D04483D544009C
:109C080003D52900E147EFF07FEFD9472A8463188D
:109C1800F50223A604002685EFF05F8E49C0D947D8
:109C2800E30AF4FA2285B250225492540259F249B6
:109C3800624AD24A424BB24B224C4561828061DD76
:109C480083D744002390FA00F9B713894400014AE6
:109C5800914B594C154B83550900D5DDE1476306F7
:109C68007A010357C90011C3D947035729008356FE
:109C780049000326890003D52900EFF03FE82A842C
:109C88006319850123240900050A3109E3156AFDD2
:109C980059B77DD9835709002390FA00F5B703D542
:109CA80029002DB701112317C1009307E00F1306F0
:109CB800E1000147894606CEEFF05FE4F240056116
:109CC8008280797122D42A840355850026D2AE84F5
:109CD8009305210106D64AD0EFF09FDD6308050EF3
:109CE8008347850093F7070295CF2AC603552101BC
:109CF800EFF0BF8AAA87B24501ED83578400394542
:109D08002390F400B2502254925402594561828043
:109D1800035524004946829711C583578400239030
:109D2800F400CDB7035924004A85EFF0FF8111ED07
:109D380041657D15EFF05F8119E58357840025455E
:109D48002390F400C1B7231025011307450081476C
:109D58009546035607002DE63147B387E7021309F6
:109D680084003146CA8591073E959760FE1FE780BB
:109D7800C0583146CA8548089760FE1FE780E057FB
:109D88000356C4000355240041478146DD45EFE0F2
:109D98008FB12ACE19E58357840045452390F400F6
:109DA80095B70C480356C4009760FE1FE780E0543F
:109DB800035524004C08EF905FB829D5594599B749
:109DC80085073107E397D7F8254581BF0545B1B722
:109DD800797122D42A840355850026D2AE8493054E
:109DE800E1014AD006D63289EFF09FCC51C58347AE
:109DF800850093F70702A9E7034714019307200595
:109E080019E3834744008356A400504483558400D3
:109E1800035524000147EFF07FCEAA8721E9834745
:109E2800140199E703552400EF905FACD94711E17D
:109E38008147B2502254925402593E85456182802E
:109E48002AC60355E101EFF04FF5AA8705C9B245C7
:109E58000355240049468297AA8759DD0357840091
:109E68002390E4000347140161F7E1B75947E3176A
:109E7800E5FE230009006DBF8547CDB7B947F9BF97
:109E8800397122DC4AD84ED652D406DE26DAAA899F
:109E98002E8A32C63689EFF03F95094415C58347A7
:109EA80025001307E00FAA845D44638FE7001307BA
:109EB800F00F5944639AE700324605E2D2854E8591
:109EC800EF90DFAF2A8415CD2285F2506254D25428
:109ED8004259B259225A2161828003550A009305DA
:109EE800E101231F0100EFF0BFBC0355E101EFF0D2
:109EF8002FFEAA8505464E85EF30203F2A845DDD7A
:109F0800E1B79307F00FE301F9FC37950100938659
:109F180024007946A68513056523EFD07FE1A38148
:109F280024015DB73971B727002026DA83A407B268
:109F380052D45AD05ECE62CC06DE22DC4AD84ED647
:109F480056D266CA2A8BAE8B328C368A99E0814902
:109F5800B9A0804483DC44000149835AA4006314F7
:109F680099018440E5B78357A400A28963F8670183
:109F780005094209135909014104D5B7E3EAFBFE73
:109F8800630C0A00834504004840D28662863AC6BC
:109F9800EF80DFD2324769DD19C323105701F25031
:109FA80062544E85D2544259B259225A925A025B8F
:109FB800F24B624CD24C2161828003D7050083D6D4
:109FC8002500854763E9E60439C7411183C6450082
:109FD80026C2377503009384550022C426862E8432
:109FE800130505DE894506C6EF805FCDC14711CD53
:109FF8008346440083552400035504000147268600
:10A00800EFF05FF2814711E1A947B2402244924440
:10A018003E85410182803E8582802E86035506005A
:10A0280083D52500854763E2A50205C1834646001E
:10A0380041110147150606C6EFF0DFEE814711E131
:10A04800A947B2403E85410182803E8582802E86A6
:10A058000355060083D52500854763E2A50205C19F
:10A068008346460041110147150606C6EFF09FEBEF
:10A07800814711E1A947B2403E85410182803E8572
:10A08800828039714ED683D7250083D9050006DE34
:10A0980022DC26DA4AD852D456D25AD05ECE62CCC6
:10A0A80066CA6AC863E037198547638E0914416B2D
:10A0B800AE8A2A8A2314010002C6014401497D1B85
:10A0C800894B054CC94C054D83D52A00014781466B
:10A0D80001464E8523130100EFF0DFE4AA846300F4
:10A0E800051209EC13072002930661005A8695456C
:10A0F8005285EFD05FFB2A8463080512035781005D
:10A1080083C7040045C70347A100630CA70741475D
:10A118006385E7022C005285EF902FCB09CD3400E0
:10A128001546D9455285EFD09FDC11C53245976059
:10A13800FE1FE78080FB8147F9A083D7A400414632
:10A14800130524002300F40083D7A400A183A300EF
:10A15800F400CC409760FE1FE780201A490483571B
:10A1680081008507C207C1832314F10063F9270919
:10A1780083D7A400638567098509C20993D90901B2
:10A18800A1B7E39977F983D7A400094613052400FA
:10A198002300F40083D7A400A183A300F400CC40DB
:10A1A8009760FE1FE7806015110455BF22C603594A
:10A1B800610003C7A40013052400638277033359A1
:10A1C8009903230571012300E40083D7A4004146C5
:10A1D800A183A300F400CC401379F90FA5BF230590
:10A1E80081012300E40083D7A400135929001379BF
:10A1F800F90FA183A300F4000946CC4055B7835753
:10A20800810089FBA947F2506254D2544259B2598D
:10A21800225A925A025BF24B624CD24C424D3E8516
:10A22800216182808547C5B7C547F1BFB7270020A0
:10A2380003C767B3854763F3E706011122CC26CA33
:10A248004AC806CE2A843289AE84EFF0EFD901C914
:10A25800034725009307E00F5D456308F700631C7B
:10A268000900A6852285EF904FF2F2406244D2445D
:10A2780042490561828003D504009305E100231754
:10A288000100EFF0FF820355E100EFF06FC4AA85EB
:10A2980005462285EF30600569D5C1BF59458280E2
:10A2A80013F7050201C7B2856FF00FC4411126C22A
:10A2B8004AC006C622C413F98500AA846317090098
:10A2C800139785016187635D070232853684EFF055
:10A2D8002FC0AA8505466313090001462685EF307D
:10A2E800C00001E90145B2402244924402494101BB
:10A2F800828083479400E5DB83478400E5F7E5B770
:10A3080093F72500E5F30D45F9BF7971AE8622D4A0
:10A318002A8403D506009305E10106D636C6EFF078
:10A328002FF909CD83458500B2460356E101228500
:10A33800EFF01FF7B2502254456182800545DDBF1A
:10A3480013F7050201C7B2856FF00FBA411122C495
:10A3580026C206C693F485002A8491E413978501E2
:10A368006187635007023285EFF08FB6AA850546EC
:10A3780091E0014622852244B240924441016F2077
:10A38800D07693F72500014591E30D45B24022446C
:10A398009244410182807971AE8622D42A8403D501
:10A3A80006009305E10136C606D6EFF06FF0B24617
:10A3B80001CD834585000356E1012285EFF05FF862
:10A3C800B2502254456182800545DDBF797126D29D
:10A3D800AA840355A500C16722D44AD04ECE06D61A
:10A3E80023170100FD173284B6890149630DF50072
:10A3F800050583C60400D04042051307E1004181EA
:10A40800EFF05FB22A8983C60400D0403775030095
:10A418008945130505DEEF807F8A1DC503D4A40096
:10A428002285EFF06FA909C57D142A944204418062
:10A438006384090023908900B25022544A859254BB
:10A448000259F2494561828083C60400D0403775BD
:10A4580003008945130545DEEF805F8661F183C6F9
:10A468000400D040377503008945130545DCEF80AB
:10A47800FF8419C9E30609FA8357E100E39287FAD2
:10A488000354A9007D145DB703D4A40055B73971EE
:10A4980022DC26DA4AD84ED652D456D25AD062CCCA
:10A4A80006DE5ECEBE8983C785002A8AAE84C18B4C
:10A4B800328C36843A89C28A468B9DE783CB040066
:10A4C8008947638BFB046285EFF04F8B1DC183289E
:10A4D8000500638008025A88D6874E87CA86228676
:10A4E800A6855285829839A03285EFF00F8BAA870E
:10A4F80011ED3945F2506254D2544259B259225A98
:10A50800925A025BF24B624C216182802946A685F1
:10A518005285829745D5F9BFD8408347170003472E
:10A528000700A207D98FC2070D67C1879306079056
:10A538006380D72263CCF60693062780638CD70CFA
:10A5480063C1F60213070780E3CFE7F62D45E393CF
:10A5580009FADC4403C60700CC432310C90022854E
:10A5680059A213073780E390E7F62D45E39409F8DD
:10A5780085472310F900DC44814583C70700230081
:10A58800F40003D5A400050542054181EFF04FD240
:10A59800835709006315051291072310F900114626
:10A5A800814513051400EF701F9B29A2930627907D
:10A5B8006381D71863CED71293063790638AD7186A
:10A5C80013074790E391E7F02D45E39509F2DC4442
:10A5D8001D472310E90003C707002300E40003C751
:10A5E8001700A300E40003D727002301E40003D7E2
:10A5F80027002183A301E40003C747002302E400E6
:10A6080003D76700A302E40083D76700A18323036D
:10A61800F4004DA02D45E39F09ECDC446C0083C990
:10A62800170003C70700A209B3E9E900114723107F
:10A63800E90083C707004E852300F400DC4483C784
:10A648001700A300F400EFF0AFC6AA8435C503567F
:10A65800C100C1659306E100FD158329C500EFF02F
:10A66800FFD619ED83C60400D0403775030089452D
:10A67800130545DEEF808FE401E5FD572317F10050
:10A6880003C7090089476310F70283A549000946F3
:10A69800130544009760FE1FE78020C68357090012
:10A6A80089072310F9008357E1002301F400A183EF
:10A6B800A301F40001453DBD23173101EDB7034760
:10A6C80005008907BA972310F9008357A500A3004E
:10A6D800F4008357A500A1832301F4000346050075
:10A6E8004C41130534009760FE1FE78000C1D9B7BD
:10A6F800C844EF707F8793170501C1832A871D45DA
:10A70800E3EA37DF6399F90023100900CC440356C4
:10A718000900CE95A9B54207B3863A01418363C7BC
:10A72800E600B38737412310F900CDB7231059014C
:10A73800F1BF2D45E39009DCCC445285EFE07FC39F
:10A74800231079012300A4002181A300A4009DB750
:10A758002D45E39109DADC442310790183C707000A
:10A768002300F400DC4483C71700A300F40099B762
:10A778001D71CAC82A8903552500A2CCCEC6D2C4E9
:10A78800D6C2DAC05EDE62DC66DA6ED686CEA6CACD
:10A798006AD8AE8AEF802FE7130CF5FF93170C01E8
:10A7A800B72B0020C1832A8A814913840BBE3EC679
:10A7B800372B0020B72C0020C16D8357C90063F6E2
:10A7C800F9008357040063CC87010355290093855A
:10A7D8000BBEEF902F862A8D15CD594D25A88327BE
:10A7E8008900139719009305E101BA9783C41700EC
:10A7F80083C70700A204DD8C2685EFF06FABAA851E
:10A8080015E923909A004840054D09C59760FE1F39
:10A81800E780A08DF64066446A85D6444649B64925
:10A82800264A964A064BF25B625CD25C425DB25D98
:10A838002561828032488348490083A6CCB10356FB
:10A84800E10103552900814713076BB1EFF03FC4BD
:10A858002A8D1388CCB109C523909A00484075B752
:10A868005C4085E703552900514781461386FDFF63
:10A87800BD45EFD05F83B727002048C01388C7B114
:10A8880009E523909A00454D71B783570400035793
:10A898006BB193046BB13E976347470113C7F7FF4A
:10A8A80052972390E400484003D60400832508000B
:10A8B8003E9585099760FE1FE78020A48357040012
:10A8C80003D70400C20993D90901BA972310F400E9
:10A8D800EDB5397122DC2A840355250006DE26DA17
:10A8E8004AD84ED652D45AD05ECE62CC66CA2E8B87
:10A8F80056D26AC8EF802FD12A8A8346C40083556E
:10A90800A4000355840078001306D400130CBAFF82
:10A91800651AEFF02FE1420A37290020AA898144FD
:10A92800135A0A01B72B0020B72C0020130909BEBF
:10A938006386090463D48405938ACCB183484400B0
:10A9480083A60A000356C100035524005288814794
:10A9580013876BB1CE85138D6BB1EFF05FB315C55F
:10A96800814A0356C1008355A4004E859306E10031
:10A97800EFF0DFA5AA89639D0A065DF9E5E0835734
:10A98800840029452310FB0089A083570D00035636
:10A998000401E317F6FC83A50A0048489760FE1FE8
:10A9A800E780209955DD83274900A1E3035524005A
:10A9B8004166454781467D169D45EFD0CFEE05E5BA
:10A9C8008357840045452310FB00F2506254D2544B
:10A9D8004259B259225A925A025BF24B624CD24CFB
:10A9E800424D216182802322A90083DAA90095BF04
:10A9F80083274900A697238057019387140013974C
:10AA0800070183274900418393DA8A00BA97238094
:10AA1800570113872400832649009387340042078F
:10AA280091044183C207C204C183C180369711CD06
:10AA38008356E1002300D70003274900BA9703573C
:10AA4800E10021832380E700E5B5FD562300D70008
:10AA580003274900BA972380D7000DB70355240070
:10AA6800B72500208980239095BE938505BEEF8089
:10AA78007FC221DD594591BF411122C406C693F713
:10AA880005012A84328585C3EFE09FC4AA8505465F
:10AA98002285EF20900595476305F500BD47631DA6
:10AAA800F502214515A893F7450099CBEFE05FC261
:10AAB8000546AA8522852244B24041016F20F00252
:10AAC80093F7050489C7EFE0BFC00146DDB713F56A
:10AAD8001500133515000605B24022444101828055
:10AAE80079714AD04ECE52CC06D622D426D22A8AA2
:10AAF800AE89014983D749006364F9000145A1A0E3
:10AB080083A70900131419009304140033879700CE
:10AB180003470700A29703C5070022079305E10032
:10AB2800598DEFE0FFF805E983A7090005453E9434
:10AB3800034704002380E70083A70900BE9403C7E6
:10AB48000400A380E700B250225492540259F249FB
:10AB5800624A45618280834585000356E10052853B
:10AB6800EFF09FF105C183A709003E940347040055
:10AB78002380E70083A70900BE9403C70400A380CD
:10AB8800E700D1B70509420913590901A5B7011111
:10AB980022CC2A8403D505009305E10006CEEFE018
:10ABA8003FF101CD834585000356E1002285EFF092
:10ABB800BFECF2406244056182800545DDBF1D712E
:10ABC800CAC82A890355250086CEA2CCA6CAD2C4F3
:10ABD800D6C2DAC05EDE62DC66DA2E8ACEC66AD8F3
:10ABE8006ED6EF804FA22AC68346C9008355A900B6
:10ABF8000355890078081306D900EFF0AFB2B247C1
:10AC0800B7240020416B938AA7FFC20AAA8B01448C
:10AC180093DA0A01372C0020B72C0020938404BE55
:10AC28007D1B63810B1A0356C10183C58B00035535
:10AC38002900EFF07FE4AA8D6311051883484900C5
:10AC480083A6CCB10356C101035529005688814714
:10AC580013076CB1DE85EFF09F83AA8D93096CB161
:10AC6800138DCCB1631B051429C003D7090083D702
:10AC7800240011076397E7003247A2976D1763CA4C
:10AC8800E706B7250020938705BE03D7270003559D
:10AC98002900938505BE3354E40223908700EF8092
:10ACA800FFBCAA8D15C1D94D05A0035529004947F8
:10ACB80081465A86C545EFD00FBFC8C015E583D772
:10ACC800AB00C54D2310FA00F64066446E85D644A5
:10ACD8004649B649264A964A064BF25B625CD25C04
:10ACE800425DB25D2561828083D709009107239177
:10ACF800F400DC4003D7AB009306E101A297238060
:10AD0800E7009307140013970701DC4041835E8531
:10AD1800BA9703D7AB0021832380E7000356C1010C
:10AD28008355A900EFF08FEA13072400D440930756
:10AD38003400420711044183C2074204AA8BC1832D
:10AD48004180369721E1FD562300D700D84083255E
:10AD58000D00BA972380D700C84003D60900229572
:10AD68009750FE1FE780605983D709003E9442043C
:10AD7800418001F8835789002310FA00E3960DF407
:10AD8800A94D99B78356E10183250D002300D7000B
:10AD9800D840BA970357E10121832380E700C840D0
:10ADA80003D6090022959750FE1FE780005583D7E8
:10ADB80009003E9442044180ADB583D7AB0023100F
:10ADC800FA0045BF814D75B75D71A6C2CAC0AA8495
:10ADD8000359850003552500A2C44EDE52DC5AD81B
:10ADE8005ED662D466D286C656DA6AD06ECE2E8B0E
:10ADF800EF806F81930BD5FF7115131A0501B729E1
:10AE080000200144135A0A01372C0020B72C0020D7
:10AE1800938909BE6359741583C6C40083D5A400F9
:10AE28001307E1001386D4004A85EFF0AF8F2A8D0F
:10AE3800630B05120359A500834585000356E100FD
:10AE480003D52400EFF05FC36314051283C84400E0
:10AE580083A6CCB10356E10003D52400528881476C
:10AE680013076CB1EA85EFF08FE2930D6CB113888C
:10AE7800CCB1631F050E1DC883D70D0003D7290069
:10AE88008907630CF706B7250020138705BE83578B
:10AE9800270003D52400938505BE3354F4022310FC
:10AEA8008700EF80FF8815C5594525A003D52400E4
:10AEB80041664D4781467D16A545EFD0CF9EB72701
:10AEC800002023A2A9001388C7B11DE123102B017C
:10AED8004545B640264496440649F259625AD25A24
:10AEE800425BB25B225C925C025DF24D61618280E2
:10AEF80083D70D0089072391F90083D70D00A29706
:10AF080063D3770783A749000357AD00930A24004A
:10AF1800A2972380E70005049317040103A44900BE
:10AF2800C183C20A3E948357AD008325080093DA93
:10AF38000A01A1832300F40003A5490003D60D00EC
:10AF480056959750FE1FE780403B03D40D00C1671C
:10AF5800FD17569442044180E30EF9EA05094209B7
:10AF68001359090145BD294519FC23102B0195B733
:10AF78006DDC11BF8357050099E3094582804111B3
:10AF880026C2444122C406C64AC083C60400D04033
:10AF98002A84377503008945130505DEEF701FD233
:10AFA80059C58347240025476145E51793F7F70FEF
:10AFB800636BF70837290020035789A9054513094A
:10AFC80089A951C383570400BA974167634DF706AF
:10AFD80091659385257031459750FE1FE7800002E3
:10AFE800AA844D45ADC08357040083550900014626
:10AFF8000147B386E500C206C182634CF704AE97E9
:10B00800C207C18319C22310F90023A004002146F6
:10B01800A285138544009750FE1FE780002EB727AE
:10B028000020938707B298431DEF84C381A083C68D
:10B038000400D040377503008945130545DEEF70DD
:10B04800FFC725F10945B240224492440249410113
:10B05800828050401315470005072A962315D6000D
:10B06800054641BF3E871C43F5FF04C30145E1BFC8
:10B07800011106CE22CC26CA4AC809E98944F24001
:10B08800624426854249D244056182802AC62A84C0
:10B09800280036892314B1002305C100EFF09FED85
:10B0A800AA8471FDE30D09FC8357A400E1DB9165D7
:10B0B8009385557031459750FE1FE78020F415C5DC
:10B0C8008357A40023200500232425012312F5001B
:10B0D800B7270020938787B2984301E788C345B70D
:10B0E8003E871C43F5FF08C359BFCD4449BFB72766
:10B0F8000020938787B103C7070015E3054723801E
:10B10800E700058909CDB72600203725002093865A
:10B1180046A541469145130545A16FF07FF50145C8
:10B128008280B7270020A387A7A8828041677D1760
:10B138006310E5027D572390E500238105002392E3
:10B14800E500238305002394E5002385050082801C
:10B15800411106C6EFE06F8B11C5FD572310F500AE
:10B1680023010500B2404101828001114AC806CE80
:10B1780022CC26CA85472A896393F5044A85EFE0DD
:10B18800AFBC39E9C164377603009385F4FF130730
:10B19800E1008946130686DC0545EFE0BFD82A841E
:10B1A800FD140DC44C444A85EFF05FF80356E100E6
:10B1B80022858146A685EFF06FA12A84DDB78947ED
:10B1C8006396F5008545EF20E0294DD9F2406244A9
:10B1D800D244424905618280EFE04FB265B7411120
:10B1E800B727002006C6938787BF7D572393E700BC
:10B1F8002394E7007D57D8C737A5010079572385E1
:10B2080007002388070098C3238207001305058CCD
:10B21800EFC09FE237A50100130505A9EF701FB124
:10B2280037A5010013058582EF20201BB240014598
:10B2380041018280011106CE2AC622CCEFC0AFC4DC
:10B24800EFE0EF823245B7270020938747BD7D574F
:10B258003724002091652307A4A82390E7002392B0
:10B26800E7002394E7002381070023830700238551
:10B278000700938515701305000C9750FE1FE78093
:10B28800E0D7B727002023A2A7B21304E4A89307A6
:10B29800050C7D572310E500231205002326050021
:10B2A80023180500232C0500231E05002322050270
:10B2B8002314050223280502231A0502232E05025A
:10B2C80013050504E398A7FC034704006244F24011
:10B2D800B7270020238DE7A837B5010013052517E8
:10B2E80005616F20800F93970501C18763D00738E8
:10B2F800B727002003C5E7A8397122DC5AD006DE3B
:10B3080026DA4AD84ED652D456D25ECE2E8BEF606D
:10B31800DFA22A8429C9034705009307000B63119C
:10B32800F704B724002085479384C4B1A304F1002F
:10B338009C4023150100B1E7EF00D001916593858A
:10B3480035709750FE1FE78060CB88C01DE98347A2
:10B35800910099C78345440013058400EFD06FAE70
:10B368002285EF60FF96F250625421653345AB00A9
:10B37800D2544259B259225A925A025BF24B216175
:10B388008280B72A00206146814513850ABEEF6096
:10B398009FBC034944008947938B0ABED689138A08
:10B3A8000ABE6310F90A835724001D476369F70230
:10B3B8003727002086071307C7DDBA9783D707000A
:10B3C80099EFEF002079DD4763FBA70003552400C0
:10B3D8000566130686849305B00FEF600123EF001E
:10B3E80060772310AA0003552400938509BEEF80D7
:10B3F8004F990357240083570A008356840011EDA0
:10B4080063E4F6002314F400835584003A85EFC002
:10B418005FC32285EFC0BF951DBF63E4F600231408
:10B42800F40083578400D945938609BE0D463A85B2
:10B438002310FA00EFC0BFAB8D4561DD138509BE4F
:10B44800D9A09947631AF9029305A1002285EFF064
:10B458004FC8AA845DDDD9476397F40E05090355E3
:10B4680024001379F90FD945938609BE4A86EFC09F
:10B478001FA8CA8559DDD9B7A1476318F9009305F4
:10B48800A1002285EFF05F94E9B7A9476310F90896
:10B49800035584006C00EFE0AFE1AA84630E051445
:10B4A8000355240041669306E10055477D16AD45D6
:10B4B800EFC07FBF23A2AB00AA8649C183484400DE
:10B4C8000358E1000356C10003552400A6858147AF
:10B4D80013870ABEEFE0BFFBAA84631E050E03555F
:10B4E800240093850ABEEF808FAA05D50355240052
:10B4F80093860ABE2D46D945EFC07F9FE30B05F022
:10B50800AD4513850ABEEFD0CF9321B7B147631B72
:10B51800F90E035584006C00EFE08FD9AA8469CD39
:10B528000355240041669306E10059477D16B54549
:10B53800EFC07FB72322AA00AA8629E9835784008F
:10B54800C5442315F10003471400D147E303F7EC82
:10B558008347440003552400938509BE2300FA005D
:10B568008357A10023029A002311FA00EF703FA12C
:10B57800E30105EA03552400938609BE0546D9452B
:10B58800EFC0FF96E30705E885454DBD83484400B5
:10B598000358E1008357A4000356C1000355240053
:10B5A800A68513870ABEEFE09FEEAA840DE5035532
:10B5B800240093850ABEEF804FA3E30C05E40355EE
:10B5C8002400D94593860ABE3546EFC05F92B5453B
:10B5D800E30105E4A5B5D9476393F4008144032545
:10B5E8004A009750FE1FE78040B0E38404E2835787
:10B5F80084002315F10081BF8357840085442315F7
:10B60800F10091B7B9476318F9009305A1002285A5
:10B61800EFF00F963DBDC1476318F9009305A100EF
:10B628002285EFF0CFD935B5C947631AF90013065B
:10B6380091009305A1002285EFE08FF919BDD94744
:10B64800631DF9009305A1002285EFE08FE7AA8426
:10B65800E31305E0A30401006DBBE147E31BF9DA3E
:10B668009305A1002285EFE0EFD3E5B30145828081
:10B67800F9CE011152C42E8A854522CC4EC656C237
:10B6880006CE26CA4AC8AA8AB6893284EF10905DC7
:10B69800D1471DC5B72700203727002083C747B3E8
:10B6A800834657B3814419E0B684BE863727002005
:10B6B8000327C7B293974400BA9763EDD400D547E0
:10B6C800F2406244D2444249B249224A924A3E85F3
:10B6D800056182803E89C10703D727FF09C7850412
:10B6E80093F4F40FD9BF31CC9565938525C0130524
:10B6F80000029750FE1FE78060902326A90061D1C1
:10B7080013060002814593840404EF60DF8423114B
:10B71800990023000900231359011DC4372700206D
:10B7280083479400032647DA2304F900118C832702
:10B73800C90011841180238E870023A02901814725
:10B7480041B723260900F1B723044901FDB785470E
:10B758003E858280B727002083C547B3B7270020DE
:10B7680003A7C7B281476395F50081463685828075
:10B7780003562700BA8619C2E30AA6FE850793F77F
:10B78800F70F4107CDB7B727002003C647B3B72740
:10B79800002003A7C7B281476315F60081463685A6
:10B7A800828083552700BA8689C583454700E38888
:10B7B800A5FE850793F7F70F4107F9BFB7270020C4
:10B7C80083C577B3B727002003A747DA8147639576
:10B7D800F50081463685828003560700BA8619C26D
:10B7E800E30AA6FE850793F7F70F4107CDB7B727FA
:10B7F800002003C857B3B727002083A7C7B2014763
:10B808006315E80081463685828003D62700BE8608
:10B8180019CA03D667006318A600D04709C603569D
:10B828002600E302B6FE05071377F70FC107C9BF65
:10B83800411122C4404526C206C6AA8415C0484400
:10B8480009C59750FE1FE780408A484809C59750A8
:10B85800FE1FE780808922859750FE1FE780E088D9
:10B86800268541468145EF600FEFB2402244FD57DF
:10B87800A384F400924441018280011122CC2A84DD
:10B888000355250006CE2EC6EF10901232462285AB
:10B898008145EF00906B22856244F24005616FF0AC
:10B8A8003FF90DC503572500411122C406C62A8455
:10B8B80011CBDD45EF00506D22852244B240410195
:10B8C8006FF01FF7B240224441018280828041110B
:10B8D80026C2B1469304C5FFB386D402B727002019
:10B8E8001387C7DA06C622C436978356A70063981B
:10B8F800B60248430DC51384C7DA9307F00F6306F1
:10B90800F60083470500639CC7009740FE1FE78049
:10B91800C07DB147B387F402A29723A20700B240C3
:10B928002244924441018280411122C42E8426C2BD
:10B938004946AA848145228506C6EF60CFE1A5C0A5
:10B9480083C7C40113974700B727002083A747DAA6
:10B95800BA9703D707002310E40003D7270083D73B
:10B9680067002311E40037270020035727B3231269
:10B97800E40003D704002313E40003D724002314AE
:10B98800E40003D744002315E40003D7640023161A
:10B99800E40003D784002318F4002317E400B2401E
:10B9A8002244924441018280B727002083C547B3CF
:10B9B800B727002003A847DAB727002003A6C7B295
:10B9C800014781476394E5003E85828083460600EF
:10B9D80081CE544691CA83C6C6019206C2966315A3
:10B9E800D500850793F7F70F05071377F70F41067B
:10B9F800D1BF130600643386C50293069500AA8555
:10BA080037C501001305A58A6F603F8E411122C416
:10BA180006C62A8403459500EF609FA0FD57A3043E
:10BA2800F400B240224441018280011122CC4AC86C
:10BA38004EC652C456C25AC006CE26CA2A89AE89F4
:10BA48000144372A0020B72A00201D4B83475AB3E8
:10BA58006365F40463990902B7290020372A002096
:10BA6800930AF00F83C749B36367F4061144A144EE
:10BA78002285050442041306F00FCA854180EFF0C1
:10BA88001FE5E31794FEF2406244D2444249B249AA
:10BA9800224A924A024B0561828083A7CAB2931454
:10BAA8004400BE9483C704009DC383D76400639099
:10BAB80027036396690103D52400EF10606F26857C
:10BAC8004E868145EF0070482685EFF07FD6050445
:10BAD8001374F40FA5BF8327CAB293144400BE940D
:10BAE80083C704009DC383C794006380570383D72B
:10BAF8006400639C27012685EFF05FF12685D14518
:10BB0800EF0090482685EFF0BFD205041374F40FB8
:10BB180091BF41677917630BE502411122C406C63C
:10BB280085472A846399F50022852244B2408145DD
:10BB380041016FF09FEF89476396F5008545EF1047
:10BB480070127DD1B24022444101828082809D459D
:10BB58006FF0BFEDB727002003D527B38280B72742
:10BB6800002003C707B3011106CE2317A10023162F
:10BB7800B10085476318F70070009305E10005459B
:10BB8800EF506003F24005618280A947631CF60408
:10BB980083C7150003C70500A207D98F2310F50036
:10BBA80083C7350003C72500A207D98F2311F500E5
:10BBB80083C7550003C74500A207D98F2312F50094
:10BBC80083C7750003C76500A207D98F2313F50043
:10BBD80083C7950003C78500A207D98F2314F500F2
:10BBE800014582800545828091476314F60283C728
:10BBF800150003C70500A207D98F2310F50083C7D6
:10BC0800350003C72500A207D98F2311F500014588
:10BC18008280054582809387C5FF93960701C1827C
:10BC28000D476360D7023147B387E7023727002003
:10BC38001307C7DABA972381A7002390B7000145F5
:10BC4800828009458280B727002071152399A7B201
:10BC5800B7270020238BB7B2B7270020238CB7B2B1
:10BC680082801905956542054111938535C041814A
:10BC780006C69740FE1FE780603811C5B240E955F7
:10BC880041016F509FFFB24041018280B7270020D9
:10BC9800238B07B2B7270020238807B2B7270020D5
:10BCA800A38807B2B7270020A38C07B2B7270020C4
:10BCB8000111239907B2B72700202384A7DA4EC6BB
:10BCC80037250020B72900201305C5DA22CC26CA5B
:10BCD8004AC837240020B72400203729002013063B
:10BCE80000038145938979B306CE52C4230A04B26E
:10BCF800A38A04B2232609B223800900372A002028
:10BD0800EF606FA5EF1080530345CADE130444B3F8
:10BD1800938454B31309C9B205CD9565938545C07D
:10BD280012059740FE1FE780602D37270020232249
:10BD3800A7DA19CD0346CADE9307CADE83C7170000
:10BD48002380C900814512062380F400EF60AFA06C
:10BD5800B727002003C547E283C70400956593858C
:10BD680055C03E951375F50F2300A40012059740A2
:10BD7800FE1FE780A0282320A90021C50346040050
:10BD880081451206EF602F9D0327090083460400B2
:10BD9800814725077D56639FF6006244F240D244EE
:10BDA8004249B249224A37C501001305A5B10561C8
:10BDB8006F10A06285072300C70093F7F70F4107AC
:10BDC800D9BF2300040023800400C1BF4111939709
:10BDD800050126C206C622C44AC0C187AE8463D103
:10BDE800070A37290020034589DAEF501FF52A840E
:10BDF80029CD03470500930700096315F704034796
:10BE08001500CD47631CF706B72600200348250018
:10BE180003C546CB37270020834767B31306640062
:10BE280081458146130767B3AA886318D80299C168
:10BE38002300F7008347070091C7034589DA854542
:10BE4800EF60EFAC2285EF50BFE82165258DB24049
:10BE58002244924402494101828083450600AE97FC
:10BE680093F5F70F93F7F80F63F4A50093F7F50F21
:10BE7800850693F6F60F0906854545BF012DD9B706
:10BE880093F715000145E1D7EF00D06E09CDB7272C
:10BE9800002083C767B381CBB727002003C587DAA3
:10BEA8008545EF60CFA613C5140055B785462A8788
:10BEB80063FBC60483C7150003C60500A207D18F1C
:10BEC8002310F500639CD70083C7350083C625007F
:10BED800A207D58F2311F5000145828089460145C7
:10BEE8006394D70283C7350083C62500A207D58F80
:10BEF8002311F70083C7550083C64500A207D58FD5
:10BF08002312F70082800545828091476314F60268
:10BF180083C7150003C70500A207D98F2310F500B2
:10BF280083C7350003C72500A207D98F2311F50061
:10BF3800014582800545828091476314F60283C7D4
:10BF4800150003C70500A207D98F2310F50083C782
:10BF5800350003C72500A207D98F2311F500014535
:10BF6800828005458280A1476314F60483C71500C3
:10BF780003C70500A207D98F2310F50083C7350032
:10BF880003C72500A207D98F2311F50083C75500E1
:10BF980003C74500A207D98F2312F50083C7750090
:10BFA80003C76500A207D98F2313F50001458280D6
:10BFB800054582808947631CF60083C7150003C7BF
:10BFC8000500A207D98F2310F50001458280054599
:10BFD80082808357260079714ECE06D622D426D287
:10BFE8004AD01307F007AE896372F70209473AC4CB
:10BFF8002316F100300093F5F50FEF10401AB250F8
:10C00800225492540259F2494561828003574600EE
:10C01800D9462A89328463F8E6008357660063F4B8
:10C02800F6006379F70023140100300093F5F90F47
:10C038004A85E1B70355060002C4EFF02FF8AA8439
:10C0480059C1EFF07F9683C784006369F5001146F4
:10C05800A246CE854A85EF10400A55B73400268699
:10C068009305F00F4A85EFF0AFE075F1A24703574B
:10C078008400DC472390E700035724002391E7005E
:10C08800035744002392E700035764002393E70013
:10C0980003D744002394E700DC4485CB93F4F90FDD
:10C0A8002286A6854A858297C167FD172A86E311ED
:10C0B800F5FA22459947F9452300F5002302950032
:10C0C800EFF03F932DBF094661B7014651B7A94725
:10C0D800631CF60483C7150003C70500A207D98FA0
:10C0E8002310F50083C7350003C72500A207D98FA1
:10C0F8002311F50083C7550003C74500A207D98F50
:10C108002312F50083C7750003C76500A207D98FFE
:10C118002313F50083C7950003C78500A207D98FAD
:10C128002314F500014582800545828083C70500F8
:10C138002300F50083C71500A300F50083C7350069
:10C1480003C72500A207D98F2311F5008280232277
:10C15800050003C7450089476304F7000545828049
:10C1680083D665000D47E37BD7FE9C45011106CEBB
:10C1780022CC26CA4AC84EC683C4170003C6070085
:10C18800A204D18C138644006311D60403C437007B
:10C1980083C72700AE8922045D8C9307C4FFC207BA
:10C1A800C1832A89636FF70003A5890023119900C9
:10C1B80023108900F155EF505FAC2322A9000145F7
:10C1C80031A02285EFF00FD965F10545F2406244B0
:10C1D800D2444249B24905618280397122DC2E84F9
:10C1E800834704004AD806DE26DA4ED619472A893C
:10C1F800B285639AE706034624002800EFF0FFD0D3
:10C20800AA8415E903558100EFF0CFD4AA898345A4
:10C21800140015C937D701002E861307A70D34005F
:10C228009D454A85EF00F0404E8509468145312BF2
:10C238004E85EFF0EFDFF250625426854259D25412
:10C24800B2592161828089472310F1008357810008
:10C258000A862311F1008357A1002312F1004A85B1
:10C26800EF00F073C9BF4947639DE70203562400F6
:10C278002800EFF05FCFAA845DFD37250020130565
:10C28800C5DA8357C50099E3814475B7034714009D
:10C29800834604000345E5003C000146CA85812623
:10C2A80059BF51476390E702035624002800EFF076
:10C2B800DF8DAA8449F18345140030004A85EFF0E8
:10C2C8005FD195BF59476393E706035624002800BA
:10C2D800EFF09F91AA8425F1835581004A85EFF0FC
:10C2E8000FD11DC958458356A10083570700B6973B
:10C2F800C207C1832310F700C1DB5C47D1D7B7273A
:10C30800002083C767B3C9D3B727002003C587DADE
:10C318008545EF50DFDF05B789473EC08357810069
:10C328000A86834514002312F10015BF83451400C3
:10C338000A8623100100EF009066B9B75D71A6C2A6
:10C3480056DA86C6A2C4CAC04EDE52DCAA8A03C523
:10C358001500AE8432C6EFF00FC3B24501ED81443B
:10C36800B6402644268506499644F259625AD25A5E
:10C3780061618280230205002311050083C904003E
:10C3880085472A84639AF90003C624002808EFF039
:10C39800FFB1AA8405492DA09D476394F90403477A
:10C3A80005008D47E31DF7FA03C624002808054950
:10C3B800EFF09FB8AA8409E50546814522857126D4
:10C3C8002285EFF0AFE4034584003C080147CE86A0
:10C3D8002686D6852924E30509F82285EFF04FC57E
:10C3E80041B7CD47639DF900034705009147E3181E
:10C3F800F7F603C624002808EFF0DFBB59BFD5477E
:10C40800E39FF9F4034A05008947E31AFAF403C6DF
:10C41800240028080549EFF09FCBAA8455F18357DB
:10C428000102BDE3035781011306F0035C44930640
:10C4380007FCC206C182636CD6000356A101D94627
:10C4480063F7C6008356C101D94563EFD50003558C
:10C4580024002391E7000549EF0090550356010297
:10C46800D28522857924A9BF8355E1012391E7006C
:10C478002392C7002390B7002393D7008547230052
:10C48800F400014A0149D9BF014AC9BF7971AA8597
:10C4980022D426D203542500AA84280806D6EFF011
:10C4A8001FCBF24599E535E985452285EFF02FEB5D
:10C4B800C1A0835781011547639BE7060357A10174
:10C4C8008D4763FCE7046800EFF05FC60357E1009F
:10C4D800DD4763FCE7008345D100B70717008507F0
:10C4E800100822853EC8EF00904B8357E1000357A0
:10C4F800A10191076305F7002285EFF04FE5834717
:10C50800C10072466C00858B1106228591CFEFF031
:10C51800FFE201C52285EFF08FE3884451D59740AB
:10C52800FE1FE78080BC49B7EFF03FCBDDB711476E
:10C538006389E7001387A7FF42074183854663EEB7
:10C54800E6023147F117B387E702372700201307C0
:10C55800C7DABA9703D7070069D303C5270030089D
:10C56800A2850D205DF9035781019147E31EF7F27B
:10C57800B25022549254456182802C082285352E6F
:10C5880049FDFDB701114AC82A89314526CA06CE98
:10C5980022CC2EC6B284EF506FF621C1B245930764
:10C5A800000A2310F5002311B5002A84214611053D
:10C5B8008DC0A6859740FE1FE78020D4A2854A85B6
:10C5C800EF504FFE0145F2406244D24442490561B2
:10C5D80082808145EF503F98D5B70545EDB7797111
:10C5E80026D2AA841305000206D622D42ECE32CC37
:10C5F80036CA3AC83EC6EF506FF021C96246F245C6
:10C608004247D246B2472A84130520FA2300A400E1
:10C61800A300C4002311B4002302E400A302D40041
:10C6280013058400614691CFBE859740FE1FE780C1
:10C63800C0CCA2852254B2502685925445616F50D1
:10C648006FF68145EF503F91EDB7B25022549254A6
:10C65800456182805845797122D406D62A84AE86EF
:10C6680049C383572700231DF10093072006639FC2
:10C67800F504B727002003D627B3835767006373F1
:10C68800F600B28713F6F70F835527018347070192
:10C698008D8F93F7F70F81E5890793F7F70FB29717
:10C6A800FD17B3C7C702231EF10083572400835523
:10C6B800640003458400231CF10001473C0801463F
:10C6C800EFF0FFF1B2502254456182800347C70161
:10C6D800B727002083A747DA1207BA9783D76700DE
:10C6E800D9B72EC6194681452808EF50DF86B246CD
:10C6F8006DBF797122D406D626D22A848DC181478E
:10C708000147930600062E8683556400034584007E
:10C71800EFF0FFECB2502254925445618280B2840B
:10C7280028005946EF503F832314910089E8835726
:10C73800240048446C002315F100EFF0EF9E3C0004
:10C748000147930600060146C1B7797106D68147AD
:10C7580099ED8357250058452316C1002314F1008D
:10C768003C0011C7835727002315F1003C002E8693
:10C778008355650003458500014793060006EFF0E1
:10C788001FE6B25045618280411122C406C6834724
:10C79800050011472A846395E7022E8683556500B4
:10C7A8000345850081470147CD46EFF05FE34946E1
:10C7B800835564002244B240154541016FF02F9122
:10C7C80013F7B70F89466317D7000146EFF07FF2DA
:10C7D8005146F9BF0D476398E7002244B24001462D
:10C7E80041016FF09FF6B24022444101828003D795
:10C7F8000500B146B727002071173307D702938782
:10C80800C7DABA97D84319EBD8412395A700014551
:10C81800D8C303D725002394E70082805945828036
:10C82800797122D4404526D24AD006D6AA842E89C8
:10C8380025C0484419C59740FE1FE780008B232672
:10C8480004008357040083D5640003C584002315BE
:10C85800F100835724000147930640062316F10090
:10C86800835784004A862317F1001C483EC883D7A3
:10C8780024002314F1003C00EFF07FD6A30E24011E
:10C8880023280400B25022549254025945618280F0
:10C89800280031468145EF500FEC83D7240083D51B
:10C8A800640003C584002314F10001473C0093068B
:10C8B80040064A86EFF0BFD2F1B7797152CC2A8A86
:10C8C80003D5050026D206D622D44AD04ECE56CA63
:10C8D800AE84EFE03FE819E18547BDA84045AA8945
:10C8E80065DC83576500E39947FF835784006387B6
:10C8F80007128346C401B72A002003A74ADA920622
:10C90800FD173697C20703576700C1832314F40045
:10C918006316F70093053006EFF0DFD35C48A5EF08
:10C92800C840034915008347050022093369F90007
:10C9380083D7240013072900631AF702F955EF502B
:10C94800CFB3C8C02391240103C589002686D285A8
:10C95800EFF05FC3814721E1B2502254925402594B
:10C96800F249624AD24A3E8545618280956593853F
:10C9780015C04A859730FE1FE780406848C8C84000
:10C98800231C2401F955EF504FAF83D72400C8C0AA
:10C99800F9172391F400484859C503D62400835653
:10C9A800A401835784013308D60063C007090347ED
:10C9B800C40183A74ADA95451207BA9783D7270097
:10C9C80063CF0705CC4036959740FE1FE780E0927D
:10C9D8000357A40183D72400BA97C20703578401D9
:10C9E800C183231DF400E399E7EE03D7290003C5AB
:10C9F800890030002314E1005848D2852315F1003E
:10CA08003AC6EFF03FB811C548489730FE1FE78097
:10CA1800C06D232A0400232C04007DBD99454E8552
:10CA2800EFE0BFE555BDA545DDBF9145CDBF03D7B7
:10CA380025007DC3B727002083D627B3ED4763EED3
:10CA4800E60C011122CC2E8426CAAA8448409145BE
:10CA580006CEEF508FA283572400AA862300F50044
:10CA680083572400A183A300F50083570400230102
:10CA7800F50083570400A183A301F50003562400A1
:10CA8800C167F9171106420641826396F4042AC465
:10CA9800314532C6EF508FA6AA85CD471DC59307ED
:10CAA80000F92300F5003246F957A2462311F50094
:10CAB80089472302F500B72700202313C50014C5B2
:10CAC80003C587DAEF500FAE8147F2406244D24483
:10CAD8003E850561828081452685EF40A01AAA8798
:10CAE80011E9B726002003C766B365D37D17238BEA
:10CAF800E6B2E1BF09476304E5021D476303E502A7
:10CB080049476302E5027D47E311E5FCB7260020AB
:10CB180003C766B38147D1BFED473E858280D147C1
:10CB28006DB791475DB789474DB701114AC831477D
:10CB38001309C5FF3307E902B727002026CA9384E3
:10CB4800C7DA06CE22CCBA94D84029CB1384C7DAE8
:10CB5800B727002083C667B3854795CA2314A10069
:10CB680083D7840003D5A4002C003AC62315F1000E
:10CB7800EFF0FFEB11C5C8409730FE1FE780E05685
:10CB8800B147B307F902A29723A207008547F240ED
:10CB98006244D24442493E85056182808147C5BFCF
:10CBA800797126D24445372700204AD083D76400BC
:10CBB800035927B352CC06D622D44ECE56CA2A8A57
:10CBC80063F327013E8903D7240142091359090158
:10CBD80083D7040141CB998F4A8463D527011394E5
:10CBE8000701418089452285EFF0AF87AA89CD4AA0
:10CBF80025C183D724002AC6231581002314F100F8
:10CC080083D7240185E383D70401930925002300F2
:10CC1800F50083D70401A183A300F50063762405FA
:10CC280003D4040183D72401CC4422864E85BE95C3
:10CC38009730FE1FE780606C03556A002C00EFF008
:10CC48001FDFAA8A15C54E859730FE1FE780E04989
:10CC5800B2502254568592540259F249624AD24A35
:10CC68004561828089078DBF7914420441805DBF88
:10CC780003D7240183D704003A94FD17C20742045E
:10CC880003D70401C18341802390F40023998400D1
:10CC98006377E400D5FFFD57A38EF40055BF8145A7
:10CCA8005285EFF0FFB76DB779714AD03729002068
:10CCB80052CC034A99B322D456CA5AC85EC662C433
:10CCC80006D626D24ECE5284B72A0020054B930BA7
:10CCD800F00F372C002083A7CAB293144400BE94E7
:10CCE80083C90400639D6907DC44B5CBD84725CBCD
:10CCF80003D7070029CBB727002083C767B399CF8D
:10CD08002685EFF0FFE9AA8515E9B727002083C734
:10CD180057B305046351F402A30C89B2B2502254EC
:10CD28004E8592540259F249624AD24A424BB24B5A
:10CD3800224C45618280A30C09B2CDB72685EFF05D
:10CD48003FAE8149E1BF83C7D701639A7701930555
:10CD580020062685EFF01F90DC44A38E070083474A
:10CD68005CB305041374F40F6363F4000144E31423
:10CD780044F7C1BF4111154506C6EFF01FDB09C5D1
:10CD88000545B240410182801945EFF01FDA6DF97F
:10CD98001145EFF09FD96DF51D45EFF01FD96DF1E5
:10CDA800B727002003C557B369DDB24041016FF0D2
:10CDB800BFEF83D705000D47F117C207C183636032
:10CDC800F706DC41A9CF411122C42E84854526C22D
:10CDD80006C6AA84412D31C526856D23C167F9177A
:10CDE8006381F40219ED8357240081CF8356040030
:10CDF8001947639EE60237270020035727B363F8D5
:10CE0800E702B727002083C767B3594581CFA285BA
:10CE18002244B2402685924441016FF05FC1094522
:10CE280082805145B24022449244410182806D453E
:10CE3800D5BF397126DA4ED6AA84AE895D458945B3
:10CE48004AD806DE22DC328936C63AC4EFE07FE1F2
:10CE580035C522472A84014511C7B2461305440047
:10CE6800B68502979357850023003401A300240157
:10CE7800A301F4009547231CF100B727002083C7BE
:10CE880067B32301A4001105231DA10022CE2C089D
:10CE9800268595C3EFF0BFB9AA8411C522859730BE
:10CEA800FE1FE7808024F250625426854259D254EE
:10CEB800B25921618280EFF09F93F9BFCD44E5B765
:10CEC800797126D24AD052CC56CA06D6BA8A22D40A
:10CED8004ECE19472E89B284368A639CE5060355DF
:10CEE80026000944EFE01F872AC625CD5C458359F3
:10CEF800650083D727002390F400B2471547B7266B
:10CF08000020238057012391E70003C716B31306B7
:10CF1800F00F6312C7060547A388E6B22382E7002D
:10CF28005147631AE90015472391E40083D684002A
:10CF3800D8472314D70003C647005287A686CA8558
:10CF48004E85EFF01FEF2A8432451DC8EFE05F8E53
:10CF580009A842867400BE85AA89EFE06FF12A8489
:10CF680049DD2285B250225492540259F249624A4C
:10CF7800D24A4561828013061700A388C6B279BFDA
:10CF8800F945EFE01FA7F1BF83D705002300F5009F
:10CF980083D70500A183A300F50083D725002301CB
:10CFA800F50083D72500A183A301F50011458280F0
:10CFB80083D705002300F50083D70500A183A300CC
:10CFC800F50083D725002301F50083D72500A18329
:10CFD800A301F50083D745002302F50083D7450058
:10CFE800A183A302F50083D765002303F50083D747
:10CFF8006500A183A303F5002145828083D705003E
:10D008002300F50083D70500A183A300F500094597
:10D01800828083D705002300F50083D70500A1830C
:10D02800A300F50083D725002301F50083D7250049
:10D03800A183A301F50083D745002302F50083D718
:10D048004500A183A302F50083D765002303F500FB
:10D0580083D76500A183A303F50083D78500230444
:10D06800F50083D78500A183A304F50029458280B4
:10D0780003D705008546AA872300E50003D70500E6
:10D088002183A300E50003D70500631DD70003D75C
:10D0980025002301E50003D725002183A301E5002E
:10D0A8001145828009456315A70203D72500194554
:10D0B8002381E70003D725002183A381E70003D755
:10D0C80045002382E70003D745002183A382E700B8
:10D0D800828083D705002300F50083D70500A1834C
:10D0E800A300F50083D725002301F50083D7250089
:10D0F800A183A301F50011458280797126D24AD017
:10D108004ECEB2842A89AE8929468145480022D468
:10D1180006D63684EF403FE4231691008DEC835702
:10D1280024002312F100B727002083D727B3231444
:10D13800F1005C448DC383C6C7013727002003274D
:10D1480047DA920683D787003697035727002315B7
:10D15800F1002313E10037D701004A851307A7011F
:10D16800540013F6F90FD545EFF0BFCC2A8911C149
:10D178009DE085472300F400230204000146814511
:10D188002285EFF00FD7B25022544A8592540259A3
:10D19800F249456182802285EFE08FE9EDB737D704
:10D1A8000100B286130787072E8685456FF07FC872
:10D1B80001112317A100B7D601004165700001488D
:10D1C8009307F00F0D47938606F999457D1506CE0E
:10D1D800EFF01FCFF24005618280B7D60100B28719
:10D1E80001482E861147938686FBC9456FF05FCDAF
:10D1F80037D70100B286130747002E86CD456FF05A
:10D208005FC3011122CC37240020130444DF26CA4F
:10D218004AC84EC606CE2A89AE89930404031C4028
:10D2280081C7CE854A8582971104E31A94FEF2409D
:10D238006244D2444249B24905618280B72700203E
:10D2480003C507CC411122C4937735000981AA97F9
:10D258003724002006C62302F4E2A9C31305C0033D
:10D268003385A702A56585059730FE1FE78000D99D
:10D27800034744E2B727002023A8A7DEFD56090587
:10D28800814763C1E702B7270020938747DF1387E9
:10D29800070323A007009107E39DE7FEB24022445D
:10D2A800410182802310D5002301050023250502B2
:10D2B80085071305C503F1B7B727002003C647E262
:10D2C800B727002003A707DF81476315F6008146CB
:10D2D80036858280BA861307C703835567FCE389BE
:10D2E800A5FE850793F7F70FCDB7011122CC2EC6FF
:10D2F80032C406CE2A84EFF03FFC2246B24511E93B
:10D30800C167F9176303F4005145F24062440561AF
:10D31800828054558347450095C213F7270141453C
:10D328006314A700154575F2C18B3D45F9DF83C726
:10D33800A6010145E3FBB7FC3145C1BFC18B0145DF
:10D34800E9F71545D9B7B727002083C547E2C16675
:10D35800B727002003A707DFFD1681476395F5006F
:10D36800014632858280035827003A866306D80032
:10D3780003480700E307A8FE850793F7F70F13078D
:10D38800C703E9BF411106C6EFF01FF311C50355E6
:10D398004501B240410182800145E5BFB727002021
:10D3A80083C647E2B727002003A707DF0145814767
:10D3B80011076393F60082800346070001C605053E
:10D3C8001375F50F850793F7F70F1307C703D5B73D
:10D3D800B727002003C547E282803727002093063D
:10D3E80047DF8147130747DF31468C4291E58A07BB
:10D3F800BA9788C30145828085079106E397C7FEDF
:10D408004D458280411106C622C4EFF0FFEA0DCDDA
:10D418002A84035525008545EFF0BFDE485409C529
:10D428009730FE1FE78060CC22851306C003814534
:10D43800EF407FB2FD572311F40023020400014599
:10D44800B2402244410182800945DDBF411106C630
:10D45800EFF09FE611C50345C500B2404101828047
:10D468000145E5BFC167F9176304F502411122C4FC
:10D4780006C62E84EFF05FE4AA87014591C703C56D
:10D488004700698C33358000B240224441018280D4
:10D4980005458280011106CE2EC6EFF0FFE18547D3
:10D4A80011C903574501B24585476305B700231ADB
:10D4B800B5008147F2403E850561828021CD01118A
:10D4C8004AC8416922CC26CA4EC652C456C206CEA4
:10D4D8000144AA84B7290020372A0020930AC003F0
:10D4E8007D1983C749E2634BF400F2406244D24499
:10D4F8004249B249224A924A05618280330554035F
:10D5080083270ADF3E95835725006383270182948A
:10D518000504C1BF8280B727002003C647E2B727AA
:10D52800002083A707DFC166014589070147FD166B
:10D5380091456313E600828003D807006309D80089
:10D5480003C8A7006315B80005051375F50F05078F
:10D558001377F70F9387C703E9BFB727002003C6E0
:10D5680047E2B727002083A607DF014781479106D6
:10D578006310E602858393C7F7FFC207C183054599
:10D588006364E50285473395A7004205418182809F
:10D5980083C5060081C583D5C602CD8F05071377DD
:10D5A800F70F9386C603E9B793F61700E1FE050562
:10D5B80085831375F50FE9B7797156CAAA8A2E853E
:10D5C80026D24AD04ECE52CC5AC85EC662C406D6BF
:10D5D80022D4AE84328B368CBA8B3E8AC289468975
:10D5E800EFF09FCD49E141657D15EFF0FFCC2A842E
:10D5F800554531CC1946DE8513056400A302840124
:10D608009730FE1FE78060CF8357010323119400F2
:10D61800230264012319F4008357410323005401B2
:10D6280023260402231AF400230644012317340195
:10D6380023182401EFF07FF22318A402232A0402FE
:10D648002685232C04028145EFF0BFBB0145B2506B
:10D65800225492540259F249624AD24A424BB24B7E
:10D66800224C456182804545DDB7B727002083C637
:10D6780047E2B727002003A707DF81476395F60035
:10D6880041657D1582803A861307C703835547FF96
:10D698006395A500035526008280850793F7F70F49
:10D6A800F1BFB727002003C847E24166B72700202B
:10D6B80003A707DF7D16814785482D43314E631444
:10D6C800F80001458280835627003A856382C602A6
:10D6D800545B99CE83C506006397150183C616006F
:10D6E8006378DE00828089E583C61600E37CD3FC7C
:10D6F800850793F7F70F1307C703D1B7B72700209C
:10D7080083C547E24166B727002003A707DF7D16D8
:10D71800814725486394F500014582808356270098
:10D728003A85638BC600545B81CA83C61600E5162A
:10D7380093F6F60FE373D8FE850793F7F70F1307F1
:10D74800C703C9BF894791C909C995472380F5000F
:10D7580083470500A380F50081473E8582803971A3
:10D768004ED652D4AE892A8A93053005414526DA29
:10D778004AD856D206DE22DC32C63689BA8A9730B3
:10D78800FE1FE780A087CD4421C92A84894463808D
:10D79800090432468145231AC1004146EF40AFFBD8
:10D7A8005686CE8522859730FE1FE78000B5214634
:10D7B800630E0902CA8528089730FE1FE780E0B388
:10D7C800A28650082C085285EF306042AA84228530
:10D7D8009730FE1FE7806091F250625426854259C7
:10D7E800D254B259225A925A21618280814528081E
:10D7F800EF406FF6F1B789478DC505C5411106C6DB
:10D80800AE871947AA852380E7001385170041468C
:10D818009730FE1FE78060AEB24081473E854101E8
:10D8280082803E858280894795C90DC9411106C607
:10D8380025472380E50003470500AE871946A380E6
:10D84800E50093051500138527009730FE1FE78034
:10D85800C0AAB24081473E85410182803E858280D0
:10D8680089478DC505C5411106C6AE872147AA85DA
:10D878002380E7001385170041469730FE1FE78095
:10D88800C0A7B24081473E85410182803E858280A3
:10D8980089479DCD15CD411106C61D472380E5005A
:10D8A80003570500AE872146A380E500035705000E
:10D8B80021832381E50093052500138537009730E0
:10D8C800FE1FE78080A3B24081473E8541018280E8
:10D8D8003E85828089478DC505C5411106C6AE873C
:10D8E8000D47AA852380E700138517004146973026
:10D8F800FE1FE78080A0B24081473E8541018280BB
:10D908003E85828089478DC505C5411106C6AE870B
:10D918001147AA852380E7001385170041469730F1
:10D92800FE1FE780809DB24081473E85410182808D
:10D938003E85828089478DC505C5411106C6AE87DB
:10D948002947AA852380E7001385170041469730A9
:10D95800FE1FE780809AB24081473E854101828060
:10D968003E858280B727002023AE07B2B727002064
:10D9780023A007B4B727002023A207B437F7010074
:10D98800B7270020938707A6130727F398C337E71D
:10D9980001001307A7E0D8C337D70100130767763C
:10D9A80098C7B727002037F701009387C7A6130742
:10D9B800076898C337E70100130707FDD8C337E79F
:10D9C80001001307A77D98C78280C14709CD144D70
:10D9D800C14791CA784D01CB83C73600BD4663F471
:10D9E800F600834787013E858280411122C437248F
:10D9F800002026C29304C4B34AC02A89884006C6B8
:10DA080049C51304C4B3631E0900834705002146B2
:10DA1800B1CB29059730FE1FE780208E1C400545B5
:10DA2800B9CF4945EF408FADAA840DC5930710FCC7
:10DA38002300F500A30025010C400905414689058E
:10DA48009730FE1FE780608B1C40A68503C5170032
:10DA5800EF404FB508409720FE1FE780006923205C
:10DA6800040029A809059730FE1FE7800089EF30D8
:10DA7800C017054945F59C40238027010545B2405C
:10DA8800224492440249410182800145CDBF1C4D88
:10DA9800639F0716411122C426C22A84AE844145D9
:10DAA8009305300506C69720FE1FE780205508CC51
:10DAB800CD4763040510A68541469730FE1FE780D1
:10DAC800C08383450400F9ED7C4C184CD04B54437B
:10DAD800058A858A6307D60083D64701F99A239A6F
:10DAE800D700D04B544305828582058A858A63070F
:10DAF800D60083D64701F59A239AD700D04B5443D2
:10DB080009828982058A858A6307D60083D64701F8
:10DB1800ED9A239AD700D04B54430D828D82058A03
:10DB2800858A6307D60083D64701DD9A239AD700F2
:10DB3800D04B54432182A182058A858A6308D60086
:10DB480083D6470193F6F6EF239AD700D04B544378
:10DB58002582A582058A858A6308D60083D647016F
:10DB680093F6F6DF239AD700D04B54432982A98233
:10DB7800058A858A6308D60083D6470193F6F6BFDF
:10DB8800239AD700D44B5843AD822D83858A058BC1
:10DB9800638AE60003D74701FD769386F67F758F83
:10DBA800239AE70003C714007C4C11CF03C7170062
:10DBB80019CB9547A301F4008147B240224492440F
:10DBC8003E854101828003C72400118B19E703C7F2
:10DBD8002701118B19E38547F1BF03C7070083C6E7
:10DBE800040081C5B687BA863E871146E147E366D9
:10DBF800E6FCE364D6FC95473307F702B7670300F2
:10DC080093874765BA97B69783C7070065B7C5472F
:10DC18003E858280AE8715C5784D05C783460700C7
:10DC28002380D50083461700A380D50083462701AB
:10DC38002381D50083468701584BA381D500D8C1DD
:10DC48008280414681453E856F40EFB0B72700206E
:10DC580083A707B491C703A3870063030300028364
:10DC680009458280011122CC2A84494506CEEF60FD
:10DC78009FB215C12AC62285EFF00FE409CD624490
:10DC8800B7270020324683550503F24003C5A7E2B3
:10DC980005616F40AFCEF2406244056182807971C0
:10DCA80026D29947231DB100AA842E858D4522D4FA
:10DCB80006D632C636C4231CF100EFD09FFA2ACE0E
:10DCC8004D441DC13246A246AA85328582962A84D1
:10DCD80019E52C082685EFF0CF8D2A8411C57245E9
:10DCE8009720FE1FE78060402685EFF0BFF722856A
:10DCF800B2502254925445618280011122CC93057E
:10DD0800C5012A8441460A8506CE9720FE1FE78072
:10DD1800C05E03554400B7E601000A869386C68DA7
:10DD2800C545EFF0DFF7F2406244056182800111DA
:10DD380022CC9305C5022A8441460A8506CE97203F
:10DD4800FE1FE780805B03554400B7E601000A86A2
:10DD58009386C690C545EFF09FF4F2406244056192
:10DD68008280B7D601002E869386E67FC5456FF080
:10DD78001FF30111B28722CC2300B1002A84BE858B
:10DD880013051100194606CE9720FE1FE780E056BE
:10DD9800B7E601000A8622859386E682A145EFF060
:10DDA8001FF0F240624405618280B7E601002E86CA
:10DDB80093868686C5456FF09FEE0111B28722CC07
:10DDC8002310B1002A84BE8513052100214606CE02
:10DDD8009720FE1FE7806052B7E601000A86228579
:10DDE80093868689AD45EFF09FEBF240624405616A
:10DDF8008280B7E601002E869386C693C5456FF0EC
:10DE08001FEA011106CE22CC26CA834405008547A5
:10DE1800639BF4048347150019472A84639AE7042F
:10DE28001C4D83D7470013F7071019C7784D0357C0
:10DE380047011377071021E313F7072001CB784C2C
:10DE480003574701137707206317071093F7074015
:10DE580081CB7C4C83D7470193F70740639E071417
:10DE6800C947A300F400F2406244D24405618280AD
:10DE780031476394E70A3C5091EF930530057145AB
:10DE88009720FE1FE780801728D009C57146814575
:10DE9800EF406F8C2450A9C883C7A40191E722855D
:10DEA800EFF0BFB2238DA400814526854146EF409F
:10DEB8008F8A28503D478345A5019387F5FF93F73F
:10DEC800F70F6364F700EF50BFD2EF40EF833C5089
:10DED800A1452398A70013852701EF507FD12C5027
:10DEE80003554400EFF0FFE7B54703554400A3008E
:10DEF800F400EFF06FBC414611C58357E50013D617
:10DF080017003E966244B7270020F240D24403C56A
:10DF1800A7E2854505616F406FA63547639AE7021A
:10DF28003C5189CB83D5070103554500138627014A
:10DF3800EFF0BFE81C4C83D7470013F7072039CB15
:10DF4800784C035747011377072029C7B94771BF92
:10DF58003947639BE700EF50BFF7AA850355440094
:10DF6800EFF0BFE4BD4751B73D476394E704EF5076
:10DF78009FF5AA85630D9502814526852EC6EF502B
:10DF88009FF22A86B24503554400EFF09FDE1C4CF1
:10DF980083D7470093F70740E38407EC7C4C83D78B
:10DFA800470193F70740E38D07EAC1473DBF814426
:10DFB800E9B74147E396E7EAEF503FF2AA850355F0
:10DFC8004400EFF01FE369BD797106D622D426D24A
:10DFD80083440500A5E48347150019472A84639400
:10DFE800E7067C4D83D7470113F7170011C7184D73
:10DFF80003574700058B39EB13F7270019C7184C4F
:10E0080003574700098B63110714918B99C71C4C60
:10E0180083D74700918B639807187C4C83D74701B7
:10E0280013F7071063090718184C035747001377AD
:10E03800071063020718B147A300F400B250225436
:10E048009254456182801D476393E70C3C5089EBED
:10E058009305300571459720FE1FE78020FA28D0E8
:10E068002450ADCC2285EFF05F96238DA400814526
:10E0780026854146EF303FEE28503D478345A501B0
:10E088009387F5FF93F7F70F636BF702B727002025
:10E0980083C777FBB5CB414681450808EF30BFEB16
:10E0A800B72500201946938545D008089720FE1FFC
:10E0B800E780A02430500C082E85EFF00021EF30C7
:10E0C800BFE43C50A1452398A70013852701EF50D2
:10E0D8003FB22C5003554400EFF0BFC8A147035589
:10E0E8004400A300F400EFF02F9D414611C583576B
:10E0F800E50013D617003E96B727002003C5A7E210
:10E108008545EF40AF871DBFEF509FAE4DBF2147FC
:10E118006399E7023C5189CB83D507010355450034
:10E1280013862701EFF07FC97C4C83D7470113F78B
:10E13800270021CF184C03574700098B39C7A5473B
:10E1480079BF2547639BE700EF509FD8AA85035501
:10E158004400EFF09FC5A94759B729476392E704E0
:10E16800EF507FD68547AA856304F500814585442D
:10E1780026852EC6EF503FD32A86B2450355440064
:10E18800EFF03FBF7C4C83D74701918BE38707E8CB
:10E198001C4C83D74700918BE38107E8AD4781B7D3
:10E1A8002D47E39CE7E6EF505FD3AA85035544006B
:10E1B800EFF03FC49DB513F7072009CB184C035760
:10E1C80047001377072019C3B947BDB593F7074030
:10E1D80089CB1C4C83D7470093F7074099C3C147A5
:10E1E800A1BDC94791BD15CD01118A8522CC06CEA6
:10E1F8002A84EFF03FA2834704000355440089CFE7
:10E20800B7F601009386A6D30A869D45EFF03FA98D
:10E21800F240624405618280B7F60100938646D4D5
:10E22800E5B705458280B7270020AA8503C5A7E280
:10E238006F400F9C411122C4405926C206C6AA84C9
:10E2480031C4084C09C59720FE1FE78000EA285012
:10E2580009C59720FE1FE78040E9685009C5972047
:10E26800FE1FE78080E8285409C59720FE1FE78035
:10E27800C0E7685409C59720FE1FE78000E722859C
:10E288009720FE1FE78060E623AA0402224403D5F4
:10E298000403B240924441016FF0FFF8411126C2D5
:10E2A80006C622C4AE84EFF02F8121C54C592A84BA
:10E2B800A9C183A8C50603A88506FC51B85183C621
:10E2C800650003D6450083C505002685EF608FD419
:10E2D8002285EFF03FF6EFF06FC201CD2244B72759
:10E2E8000020B240924403C5A7E2854541016F3042
:10E2F8001FE2B2402244924441018280411122C46B
:10E30800405926C206C67C4CAA8483D7470113F716
:10E31800071019C7184C03574700137707101DE358
:10E3280013F7072019C7184C03574700137707201E
:10E3380011EB93F707409DCB1C4C83D7470093F70D
:10E3480007408DC79947A300F4002285EFF07FAB03
:10E3580003471400C947631FF700224403D524006C
:10E36800B2409244814541016FF05FF3C947A30071
:10E37800F400E5B7B2402244924441018280411141
:10E3880006C622C426C2EFF0CFB139C14059AA84CB
:10E3980021C08347040085CBB727002083A707B493
:10E3A80089C7DC4399C32285829703471400C9476C
:10E3B8006310F702224403D52400B24092448145F9
:10E3C80041016FF0BFEDB727002083A747B4C9BF4D
:10E3D800B2402244924441018280411126C24AC07F
:10E3E80006C622C4AA842E89EFE01FED0DCD405940
:10E3F80055C4835744006393970A83471400194709
:10E408006395E70883470400A5CF7C4C83D7470171
:10E4180013F7170005C3184C03574700058B19CB92
:10E428009D47A300F400B2402244924402490545A6
:10E438004101828013F7270001CB184C035747008E
:10E44800098B19C3A547F1BF918B81CB1C4C83D78E
:10E458004700918B99C3AD47E9B7B727002083A739
:10E4680007B4F1D3DC43E1D3228582970347140034
:10E47800C9478145E319F7FA2685EFF03FE265B70A
:10E48800B727002083A747B4E9BF45476398E7004B
:10E498006304090013092003CA85F9BF631C090036
:10E4A8002685EFE07FE119C58347450093E707011B
:10E4B8002302F500A6854A85EF503FC7ADB7411145
:10E4C800B7D6010022C42E862E849386C674894549
:10E4D80006C626C24AC02A89EFF06FFC83450400AD
:10E4E800AA844A85EFF09FDBB24022442685024980
:10E4F800924441018280B727002083A747B495CB77
:10E508009C4385CB797122D406D6984110082A8479
:10E518003AC8D84185453ACA829701C92306A1005D
:10E52800035524006C00EFF09FF9B2502254456166
:10E5380082808280011122CC06CE2A842EC6EFE08A
:10E54800BFD75C5991CF83D74700B245639A8700FC
:10E5580085476397F5006244F24005616FF09FCDEF
:10E56800F240624405618280411106C6EFF0EF8FE8
:10E57800C167FD176307F500B240DD4541016FF043
:10E58800FFD1B240410182802300B5008280011191
:10E598004AC84EC62E89AA8993053005130500037B
:10E5A80026CA06CE22CCB2849720FE1FE78000A59B
:10E5B80021CD1306000381452A84EF30DF994146B7
:10E5C800CE852285EF305F9F0D46CA851305D4019D
:10E5D800EF309F9E13060402930504012285EFE0A5
:10E5E800D04E0D469305D4022685EF30FF9C228538
:10E5F8009720FE1FE78060AF0145F2406244D24495
:10E608004249B249056182804D45C5BF81474146AF
:10E61800B306F5003387F5000347070003C8060073
:10E628008507334707012380E600E393C7FE82800E
:10E638005D714EDE62D4AE892A8C930530051305D0
:10E648000003A6C2CAC052DC56DA5AD85ED686C6BD
:10E65800A2C4B28B368BBA84BE8A4289468A972076
:10E66800FE1FE780A0996301050E1306000381458C
:10E678002A84EF305F8E4146E2852285EF30DF93B2
:10E68800414681450A85EF301F8D1D46DE850A8586
:10E69800EF309F921D46DA8513057100EF30DF9148
:10E6A80033392001B33490004146814508082307D7
:10E6B8002101A3079100EF301F8A1946D685480823
:10E6C800EF309F8F1946D2851305A101EF30DF8EF9
:10E6D800930404014146CE852685EF30FF8D8A8557
:10E6E8002685EFF0BFF2930904024E86A68522859F
:10E6F800EFE0B03D2A891DE54146CE852685972065
:10E70800FE1FE78080BF0C082685EFF03FF04E869D
:10E71800A6852285EFE0703B2A8946454146CE858D
:10E72800EF309F8922859720FE1FE780009CB64026
:10E7380026444A8596440649F259625AD25A425B9F
:10E74800B25B225C616182804D49D5B7011126CA4E
:10E7580052C4AA842E8A13050003930530054AC8BB
:10E768004EC606CE22CC3289B6899720FE1FE78096
:10E77800E08831CD2A84A6854146EF30FF83930493
:10E7880004012146D2852685EF301F83CA8521469C
:10E7980013058401EF305F8213090402A6854A86B7
:10E7A8002285EFE09032AA844146CA854E85EF3033
:10E7B800BF8022859720FE1FE7802093F2406244A5
:10E7C80026854249D244B249224A05618280CD4415
:10E7D800F5B75D71A2C4A6C24EDE52DC86C6CAC0B9
:10E7E800AE89328AAA84EFE03FAD4059414681455F
:10E7F8000A85EF304FF649C403594400631299085B
:10E8080083470400B5EF034714009947631CF702D8
:10E8180014081306C4049305C40213057400EFF02A
:10E82800FFF239ED2285EFF04F9A2A860C080A8507
:10E838009720FE1FE78060AC8A854A85EF20203C40
:10E8480005456DA02C508DCDC54683D705016317AE
:10E85800D70A6312FA022146C9054E859720FE1F82
:10E86800E78020AD85476318F5002285EFF0EF9526
:10E878002A862C506DBF930520032685EFF01FA232
:10E888002685EFE07FA32A8449CD4C55D9C983D783
:10E898000501639847092146C9054E859720FE1F43
:10E8A800E78020A985472A89631DF5064C540A8507
:10E8B80003C6A5019720FE1FE78020A4B7270020E4
:10E8C80083C7D7AA91C75C5483C7B7016398270544
:10E8D800BD452685EF20E02DB727002083A747CD2B
:10E8E800014589C71D45894582970145B64026449B
:10E8F80096440649F259625A61618280E312FAF835
:10E908002146C9054E859720FE1FE78080A28547CE
:10E91800E318F5F62C5003C6A50111BF8A85268594
:10E9280031BFB727002003C787FB3724002089475A
:10E93800130444CA631DF700BD452685EF206027F0
:10E948001C589145E38E07EE1D458297D5BDB72724
:10E95800002083C777FB8DCF414681450810EF30F3
:10E968008FDFB72500201946938545D008109720DA
:10E97800FE1FE78080980C100A862E85EFE0F014C1
:10E988008A852685EF20A0271C588D45D5FF4DBDCB
:10E998002685EF2000271C58E38407EA85456DB7D4
:10E9A8008147C1463307F500B388F50003470700E0
:10E9B80083C808003308F60085073347170123008A
:10E9C800E800E391D7FE82800147BD471308F00FA6
:10E9D8003306F50083460600B388F500FD17860662
:10E9E800558F2380E8000347060093F7F70F1D8330
:10E9F800E39007FF82808147930800F8414893F627
:10EA0800F70F3387F50063FCC600B306F50083C62D
:10EA180006002300D7008507E39307FF82806395EC
:10EA2800C60023001701C5BF23000700EDB7011179
:10EA38004AC856C22E89AA8A93053005414506CE92
:10EA480022CC26CA4EC652C4328A9710FE1FE780CF
:10EA5800E05AAA849305300541459710FE1FE780C8
:10EA6800E0592A84CD49B5C021CD41468145EF30D2
:10EA78008FCE2686A2855685EFE03005AA8929E142
:10EA88008387040063D30706A2852685EFF0DFF3AA
:10EA9800B76503004A86938505672285EFF05FF026
:10EAA8008307090063D80704A2854A85EFF0DFF1E0
:10EAB800B76503005286938505672285EFF05FEE00
:10EAC80026859710FE1FE780406211C422859710A3
:10EAD800FE1FE7808061F24062444E85D24442497D
:10EAE800B249224A924A05618280CA852685EFF09A
:10EAF800BFED7DB7D2854A85EFF01FEDD1B73971EB
:10EB08005AD05ECE2A8BAE8B41459305300506DE82
:10EB180026DA52D456D262CC66CA6AC8368C328D8E
:10EB2800BA8C22DC4AD84ED69710FE1FE780004DDB
:10EB3800AA8A9305300541459710FE1FE780004CCF
:10EB48002A8ACD44638C0A0849C52A86D6855A85FF
:10EB5800EFF0FFEDAA8435ED930530054145971098
:10EB6800FE1FE780A0492A89930530054145971083
:10EB7800FE1FE780A048AA896308090E6304050EF2
:10EB88001304FD0011841376FD003DCC7D1442046E
:10EB9800418025EE131544004E86D6855E95EFF02C
:10EBA8003FE0414681454A85EF30EFBA014D931762
:10EBB8000D01C18363F48708BDC04A859710FE1F05
:10EBC800E780A052638709004E859710FE1FE780F3
:10EBD800C05156859710FE1FE780205163070A0031
:10EBE80052859710FE1FE7804050F25062542685E8
:10EBF8004259D254B259225A925A025BF24B624C91
:10EC0800D24C424D216182800144131544008A850B
:10EC18005E95EFF05FDE4E86D2850A8549B793157B
:10EC28004D000A86DE954A85EFF09FD74A868A8589
:10EC38005A85EFE08069AA84050D95BFBDFC0A8658
:10EC4800CE854A85EFF0DFD54A868A855A85EFE07A
:10EC5800C067AA846686CA8562859710FE1FE7800A
:10EC6800C069A1BFCD4491BFCD44A9BF894761C246
:10EC7800DDCD2300A60083C70500A300F60083C7E7
:10EC880015002301F60083C72500A301F60083C7FA
:10EC98003500A30206002302F60083D74500A183AE
:10ECA800858BA302F60003D745001377072009C711
:10ECB80093E72700A302F60083D7450093F70740A0
:10ECC80099C78347560093E74700A302F60083D706
:10ECD800450013974701635807008347560093E799
:10ECE8008700A302F6002303060083C74500858B2F
:10ECF8002303F60003D74500098B09C793E72700CC
:10ED08002303F60083D74500918B99C78347660094
:10ED180093E747002303F60003D745008147218B7B
:10ED280019C703476600136787002303E6003E857B
:10ED380082802E86AA8505456FF05FF32E86AA8508
:10ED480009456FF0BFF24DC95971A2D42A84035501
:10ED58004500A6D2CAD0CECED6CA86D6D2CCDAC87C
:10ED6800DEC6B68AB2892E89EFE00FD5AA8439C5E6
:10ED78000C182285EFE01FEA83470400138A640019
:10ED8800A9CBEF504F942A8B014583CB5400EF5009
:10ED98008F91AA840C100818EFF0BFF9084C2C10BA
:10EDA800EFF0DFF9D288268A56C05E88D2875A8764
:10EDB80014103010CE854A85EFF09F87B650265440
:10EDC80096540659F649664AD64A464BB64B65618B
:10EDD8008280EF504F8FAA8B014503CB5400EF5030
:10EDE8008F8C2ACE084C0C10EFF0BFF42C100818AA
:10EDF800EFF0DFF4F2484DBF8280894791C909C915
:10EE0800AD472380F50083470500A380F5008147BF
:10EE18003E858280011122CC4AC806CE26CA2A84A1
:10EE2800EFE0FFC62A8901CDE147630EF50E2149BF
:10EE3800F24062444A85D2444249056182807C4C52
:10EE480083C72701858B91CF1C4C054783C72700B3
:10EE58008D8B6398E7008347640093E717002303CB
:10EE6800F4008344340089476391F4020355440055
:10EE78008545EF50BFB28347640093E747002303FB
:10EE8800F4008D47A300F40065B70D476390E402D2
:10EE9800035544008945EF507FB083476400A300C1
:10EEA800940093E747002303F40059B71147E38F11
:10EEB800E4FA0547639EE40293047400A300F40097
:10EEC800414681452685EF300F891306C4023285F5
:10EED800C14532C6EF40DFD1324622859306C401D0
:10EEE800A685EFF05FE62285EFE03FE131D181B7FB
:10EEF8001547E39FE4F293047400A300F40041462D
:10EF080081452685EF302F856C4C4146268589053D
:10EF18009710FE1FE780603E8347640093E7470031
:10EF28002303F4005DB70D4921B7397122DC40593C
:10EF380026DA4AD84ED606DEAA89AE843289630814
:10EF480004200355250083574400638BA700A14480
:10EF5800F250625426854259D254B25921618280B6
:10EF68008347040099E39D44E5B7AD47E3EDB7FE59
:10EF78009387E5FF93F7F70F2547E366F7FE3767B3
:10EF880003008A071307875DBA979C438287B28577
:10EF98002285EFF03FE8AA8465BF4146CA8513057C
:10EFA800C4039710FE1FE78040352285EFE03FD865
:10EFB800AA8411C1A1449547A300F40051BF930945
:10EFC800C404CA8541464E859710FE1FE780E0328B
:10EFD8001309740014084E86CA852285EFF0BFD63F
:10EFE80041469305C40308089710FE1FE780603464
:10EFF8008547E31FF5F48A861306C402CE854A8541
:10F00800EFF0CFF411ED2285EFE03F9C2A870355FE
:10F018004400814601468A85EFE06FF4AA8411C155
:10F02800A144994751BF034714009D47E31DF7F2D8
:10F038007C5089EB9305300571459710FE1FE780DA
:10F04800E0FB68D0685005D14146CA859710FE1F7D
:10F05800E780A02A2285EFE05F977C50238DA700E8
:10F06800A147A300F4008144E5B56850E30D05EE1F
:10F0780003471400A147E318F7EE835706009305EA
:10F08800290021462318F50049059710FE1FE7803F
:10F09800C0267C4C83D7470113F727002DC3184C93
:10F0A80003574700098B21CFA54765BF03471400C5
:10F0B800A547E31AF7EA3C5481EB85455945971073
:10F0C800FE1FE780A0F328D4285419C54146CA85F5
:10F0D8009710FE1FE7806022A94761B70347140015
:10F0E800A947E312F7E82854194693051900410582
:10F0F8009710FE1FE78060207C4C83D74701918BD7
:10F1080095CF1C4C83D74700918B8DCBAD4791BFD2
:10F118007C5489EB9305300551459710FE1FE78015
:10F12800E0ED68D46854E30405E24146CA859710C7
:10F13800FE1FE780801C7C547D5798CB4E85EFF0EE
:10F14800EF9B15B783450600EFF04F9529BFAD47F4
:10F15800E39BF5F0834606008355250013066500FA
:10F1680003450500EF508F8CFDBD15C1AA870945E1
:10F178008DC141112E8541469385170006C697100B
:10F18800FE1FE7808017B240014541018280094592
:10F198008280828089471DC595C5411106C60347EF
:10F1A8001500AE8719462380E500930525001385D1
:10F1B80017009710FE1FE7804014B24081473E8534
:10F1C800410182803E85828015C1AA8709458DC18B
:10F1D80041112E8541469385170006C69710FE1FDC
:10F1E800E780A011B2400145410182800945828033
:10F1F800828089471DC995C9411106C60347250064
:10F2080083461500AE872207558F2390E5002146D7
:10F2180093053500138527009710FE1FE780E00D42
:10F22800B24081473E85410182803E85828015C17A
:10F23800AA8709458DC141112E854146938517003E
:10F2480006C69710FE1FE780400BB24001454101FA
:10F258008280094582808280094711CD89CD834704
:10F268001500A14601472380F500FD1793F7F70F16
:10F2780063F3F60061473A85828015C1AA8709457C
:10F288008DC141112E8541469385170006C69710FA
:10F29800FE1FE7808006B240014541018280094592
:10F2A80082808280894763090510638705104111B0
:10F2B80006C622C426C2834715002E842380F50083
:10F2C80083472500A380F500834735002381F50097
:10F2D80083474500A381F50083475500858B9396A6
:10F2E800870083D7450093F7F7EFD58F2392F50072
:10F2F8008346550093F7F7DFA20693F60620DD8EC6
:10F308002392D5000347550093F6F6BF22071377DB
:10F318000740558F2392E50083475500FD76938675
:10F32800F67F8D83858B758FAE07D98F2392F50075
:10F3380083466500F99B858ADD8E2392D5000347B5
:10F3480065009377270013F7D6FF5D8F2392E500BA
:10F358008347650093F647009377B7FFD58F2392CD
:10F36800F50003476500DD9B4D45218BD98F23921E
:10F37800F500EF504FC2AA845145EF50CFC1034763
:10F38800340093F4F40F1375F50FC94763609702BF
:10F39800636EE500834604001147E1476368D700C0
:10F3A8008346140005476363D7008147B24022446F
:10F3B80092443E85410182803E85828015C1AA879C
:10F3C80009458DC141112E8541469385170006C612
:10F3D8009710FE1FE78060F2B2400145410182802C
:10F3E800094582808280797122D42A84084506D60C
:10F3F80026D2230601008344050029479387F4FF9A
:10F4080093F7F70F6362F70C376703008A07130750
:10F418000760BA979C4382870C08EFF0BFE8C9479A
:10F428006312F50299472306F100035524006C0086
:10F43800EFF0EF88B25022549254456182800C0854
:10F44800EFF0FFDE29C98347C100E5F30355240027
:10F45800EFE05F81C5B70C08EFF03FE2E5B70C08B5
:10F46800EFF09FDFC5B70C08EFF03FD0E1BF0C0805
:10F47800EFF03FD8C1BF0C08EFF01FD5E1B70C087B
:10F48800EFF05FD1C1B70C08EFF05FF365BF8347BA
:10F4980015002308F10003552400EFD0FFE1A14730
:10F4A8000DC10347C5006313F702B727002003A760
:10F4B80007B49D4719C7184309C71008A6850297BE
:10F4C800AA872306F10041B79D47B1BFB72700209F
:10F4D80003A747B4F9BF411122C406C60347050074
:10F4E800930720092A84631EF708834715003947C4
:10F4F8006393E70283564500096761078147639D67
:10F50800E6021C452244B24003C507009385170054
:10F5180041016FE08FCD1307E0036392E7080347CB
:10F52800250095476312F70403554500EFD01FF2F5
:10F5380091476308F5008547B24022443E85410162
:10F548008280B727002083A747B4F5D703A3870095
:10F55800E30303FE0356E4000355440093056400E7
:10F568002244B24041010283A1468147E316D7FCF9
:10F57800224483456500B2400355450041016FE0D0
:10F58800DFE59306000A8147E318D7FAEFF0BFE5F5
:10F59800084455D19710FE1FE78020B569BF814701
:10F5A80061BF411122C426C206C62A84EFE02FCECD
:10F5B800AA8419C9E147630FF50AA144B24022445D
:10F5C80026859244410182802285EFE0DFC16C4CA0
:10F5D80083C72501858B91CF1C4C054783C727001E
:10F5E8008D8B6398E7008347640093E71700230334
:10F5F800F4008347340009476391E70289450355BE
:10F608004400EF50AFB98347640093E747002303F2
:10F61800F4009147A300F40055B79386D7FF93F6FB
:10F62800F60F05466364D6008545D1BF6390C702CF
:10F63800A300E4004146814513057400EF20BF9103
:10F64800C1451305C402EF40AFDA8DBF9546E39775
:10F65800D7F6A300E4004146890513057400971006
:10F66800FE1FE78080C98347640093E747002303B0
:10F67800F400F9B78D4499B7797122D4405926D24C
:10F688004AD04ECE06D6AA89AE843289630A0420AF
:10F698000355250083574400638BA700A144B2504B
:10F6A8002254268502599254F249456182800347C3
:10F6B800040085476314F7009D44D5B79387F5FF89
:10F6C80093F7F70F2547E369F7FE376703008A07C3
:10F6D8001307C762BA979C438287B2852285EFF0E9
:10F6E8005FECAA846DBF4146CA851305C403971011
:10F6F800FE1FE78080C00347140091476305F702A7
:10F708009306C4011306C402930574002285EFF022
:10F718008FE32285EFE06FDEAA8411C1A1449547EB
:10F72800A300F400ADBF8D47A300F400814485BF5A
:10F738009307C4043E85CA8541463E899710FE1F3B
:10F74800E780A0BB8A864A86930574002285EFF07D
:10F758008FDF41469305C4030A859710FE1FE78093
:10F7680040BD8547E31DF5F22285EFE04FDCAA8412
:10F7780015F5994775B703471400B147E31EF7F22B
:10F788007C5089EB9305300571459710FE1FE78083
:10F79800E08668D068500DD14146CA859710FE1F93
:10F7A800E780A0B52285EFE04FA27C50238DA7000B
:10F7B800B5479DBF6850E30105F003471400B547FE
:10F7C800E31CF7EE8357060093052900214623180A
:10F7D800F50049059710FE1FE78020B27C4C83D7BF
:10F7E800470113F707203DC3184C03574700137709
:10F7F800072029CFB9470DBF03471400B947E31DB8
:10F80800F7EA3C5489EB9305300559459700FE1FEC
:10F81800E780C07E28D4285419C54146CA85971068
:10F82800FE1FE78080ADBD4701B703471400BD4701
:10F83800E314F7E828541946930519004105971071
:10F84800FE1FE78080AB7C4C83D7470193F70740C6
:10F858009DCF1C4C83D7470093F707408DCBC147FA
:10F86800E1B57C5489EB9305300551459700FE1F9F
:10F87800E780C07868D46854E30205E24146CA8547
:10F888009710FE1FE78060A77C547D5798CB03D55F
:10F8980029008145EFE09FA051BD83450600DDBFEB
:10F8A8008547E395F5E80328460083473600034774
:10F8B80026008346160083552500034606000145A9
:10F8C800EF40BF8DA5B5011126CA06CE22CC8944CA
:10F8D8001DCD95CDAA842E8468008D45EF404FB18B
:10F8E8008347E1002685228693F7F70393E7070409
:10F8F8006C002307F100EFE09FC9AA8409E90D46CF
:10F908006C00130534009710FE1FE780009FF2403B
:10F9180062442685D244056182805D714EDE86C6CA
:10F92800A2C4A6C2CAC052DC56DA5AD85ED68949E1
:10F9380055C54DC6138B4500420B135B0B01AE8AB0
:10F948002A8A930530055A85B2849700FE1FE780FE
:10F95800E06A2A84CD4959C1EF40CFD82A89568612
:10F96800D285935A8900135A0901937BF90F13051D
:10F97800440093FAFA0F137AFA0F13598901EF200A
:10F98800AFE3A301740123015401A3004401230040
:10F998002401EF408FD4AA8541460808EF20CFE123
:10F9A800214734005A86A2850808EFF04F95AA89A6
:10F9B8000DE121462C0023807401A380540123818A
:10F9C8004401A381240113854400EF20EFDEEF40BA
:10F9D8002FD222859700FE1FE7802071B64026446B
:10F9E8004E8596440649F259625AD25A425BB25B36
:10F9F80061618280011106CE2AC6EFD0BFF632457A
:10FA0800B727002099452385A7E2EFC0CFA0F24091
:10FA180037E501001305C55305616FD01F9CB72753
:10FA2800002083C7B7E2A18B89C7B7270020938737
:10FA380007A6372700202320F7B401458280797173
:10FA480052CC2A8A2E8506D622D426D24AD04ECE29
:10FA58002EC6EFD07F8645C5405945C4834734003C
:10FA68008949F91793F7F70F63EDF90883574400AD
:10FA7800B24589446394B706130974004146D28598
:10FA88004A859710FE1FE78040871306C402328517
:10FA9800C14532C6EF40CF9532469306C401CA85A8
:10FAA8002285EFF04FAA03470400834714000DC3D3
:10FAB8000D4781446394E702A30034012285225450
:10FAC800B25092540259F249624A45616FE0EFA27E
:10FAD8001147639EE700A30094008144B25022546A
:10FAE800268502599254F249624A456182800D473F
:10FAF8008144E395E7FE9547A300F400C1B7894424
:10FB0800F1BFC944E1BF79719397050122D406D6A4
:10FB180026D24AD04ECEC1872E8463D50704B72497
:10FB28000020938484E203C52400EF200FA12AC695
:10FB380011CDEFF05F9AB24519E503C5140093079C
:10FB4800F00F631EF5002E85EF208F982165218D1B
:10FB5800B250225492540259F24945618280EF20F2
:10FB68006FA4EDB793F7150091C7EFE05F811345D8
:10FB78001400F9BF8DE90145E1BF850493F4F40F42
:10FB8800EFD01F85E3F9A4FE3395990013190501F9
:10FB980013590901B3772401EDD34A85EFE0DF9CBF
:10FBA8003345240175B785448549D9BF29CD01114D
:10FBB80026CA06CE22CCAA840945A9C10D4628002A
:10FBC8002E848D059700FE1FE78020738347A100D0
:10FBD80070002C0093F7F70393E7070426852305A5
:10FBE800F100EFE0DF9A19E90D46A2856800970059
:10FBF800FE1FE78000747D153335A000F240624493
:10FC0800D2440561828009458280B727002083C7D6
:10FC1800B7E2918B89C7B72700209387C7A63727F4
:10FC280000202322F7B401458280011152C42A8A98
:10FC380032854EC656C25AC006CE22CC26CA4AC8FB
:10FC48002E8BB28AB689EFD02FE709ED8944F240AE
:10FC5800624426854249D244B249224A924A024B1A
:10FC6800056182805C592A89C544F5F34D45EF400A
:10FC78009FB21374F50F5145EF40FFB1E38809FCBB
:10FC880083C78901E3E487FC1375F50FE360F5FC8E
:10FC980093053005130500079700FE1FE78000361F
:10FCA800232AA9022A84CD445DD113060007814581
:10FCB800EF206FAAA300040023004401230164017C
:10FCC80023125401232E3405232C0400A30104001D
:10FCD80063170A008547A300F40081448DBF22857D
:10FCE800EFE06FD08547A300F400AA842DD14A85A0
:10FCF800EFE04FD4A9BF397122DC06DE26DA4AD8F4
:10FD08004ED652D456D25AD05ECE62CC66CA094478
:10FD180063010610630F070EAA8B3A89368BB28AE5
:10FD28002E8CEFD06FD92A8A51446304050E9305AF
:10FD3800300541459700FE1FE780402CAA894D44B5
:10FD480069C98344190083472900A204C207BE94E5
:10FD580083470900BE9483473900E207BE9483278E
:10FD68008A0263E697007D570944639FE7086307A3
:10FD78000C0083474A000544898BD9C7930C4B0074
:10FD8800214681450A85C20CEF20EF9C93DC0C01CB
:10FD98009305300566859700FE1FE78020262A8C8C
:10FDA8004D443DC15A86D6851105EF20EFA0114676
:10FDB800CA856285EF204FA0414693058A014E858A
:10FDC800EF208F9F21478A866686E2854E85EFE081
:10FDD8001FD32A840DE521468A852800EF20CF9D70
:10FDE80021469305490028009700FE1FE7806054CC
:10FDF8008547631EF502A6855E85EF407FC562854F
:10FE08009700FE1FE780602E4E859700FE1FE78053
:10FE1800C02D2285F2506254D2544259B259225A06
:10FE2800925A025BF24B624CD24C216182800544AB
:10FE3800F9B739715ECEAA8B594526DA4AD84ED61B
:10FE480052D456D25AD006DE22DCAE84328BB68A21
:10FE58003AC63E8AC2894689EF105FEA25C991678A
:10FE6800938717E92310F50085472301F5002A84B5
:10FE78003247210563870B0693071003A301F4009B
:10FE880019468145EF202F8D8347010423129400E2
:10FE980023036401230AF400B727002003C587E27F
:10FEA800A3035401231744012318340123192401FF
:10FEB800A285EF103FEF9D4763EA9700B727002020
:10FEC80086049387C7DDBE9423900400F2506254E1
:10FED800D2544259B259225A925A025BF24B2161CA
:10FEE8008280A30104001946BA859700FE1FE780A7
:10FEF800C04059BF797156CAAA8A1305100326D281
:10FF08004AD04ECE52CC06D622D42EC6328AB684D9
:10FF1800BA893E89EF109FDE2DC1B24537460201EE
:10FF280093078500130616E92A845CC110C12304CF
:10FF38005501A304B5001946D28529059700FE1F6F
:10FF4800E780A03BCE85230894001305140126867C
:10FF58009700FE1FE780603A23082403A285B7278D
:10FF680000202254B25092540259F249624AD24AAD
:10FF780003C587E245616F10FFE2B25022549254E4
:10FF88000259F249624AD24A45618280011122CC63
:10FF98002A84314506CE2EC632C436C23AC0EF1086
:10FFA800FFD529C19167938717E92310F500B2455A
:10FFB8002246924602478D472301F500A30185009A
:10FFC8006244B72700202312B5002313C500231469
:10FFD800D5002315E500F240AA8503C587E205612F
:10FFE8006F105FDCF24062440561828001114AC8EB
:08FFF8002A89394526CA06CE0C
:020000022000DC
:1000000022CC2EC6B284EF10FFCF31C1B24591672A
:10001000938727E92310F50091472301F500A301F9
:1000200025012312B5002A84A685190521469700CB
:10003000FE1FE780002DA285B72700206244F24012
:10004000D244424903C587E205616F103FD6F240B2
:100050006244D24442490561828001114AC82A891A
:10006000414526CA06CE22CC2EC6B284EF109FC9C7
:1000700029C19167B245938727E92310F500954779
:100080002A842301F5002312250121461905970032
:10009000FE1FE7800027A28523179400B7270020C2
:1000A0006244F240D244424903C5A7E205616F10A1
:1000B000FFCFF2406244D24442490561828001117F
:1000C00022CC2A84394506CE2EC632C436C23AC066
:1000D000EF105FC329C19167938717E92310F500DB
:1000E000B24522469246024799472301F500231262
:1000F0008500B727002062442313B5002314C500F0
:100100002315D5002316E500F240AA8503C587E232
:1001100005616F10BFC9F240624405618280797148
:1001200022D406D62A842EC632C436C23AC0EFD0B4
:100130002F991DC1B245224692460247231CB100A9
:10014000231DC1002C081306F00F2285231ED100A9
:10015000231FE100EFD0EF88B25022544561828026
:10016000011122CC2A84394506CE2EC632C436C2AD
:100170003AC0EF103FB929C19167938717E923105F
:10018000F500B2452246924602479D472301F500FD
:1001900023128500B727002062442313B5002314DF
:1001A000C5002315D5002316E500F240AA8503C536
:1001B00087E205616F109FBFF24062440561828053
:1001C000397166CAAA8C1305200226DA52D456D297
:1001D0005AD05ECE62CC06DE22DC4AD84ED6AE8441
:1001E000328BB68A3AC63E8CC28B468AEF109FB1DC
:1001F00051C99166938616E9A9472A842310D50030
:100200002301F5009309E400210513094401324755
:1002100063870C0893071003A301F4001946814576
:10022000EF10FFD3194681454E85EF105FD3194675
:1002300081454A85EF10BFD28357010423129400F1
:1002400023036401231EF40083574104A3035401D4
:10025000231D4401231FF40083478104A28523004A
:10026000F402B727002003C587E2EF103FB49D4793
:1002700063EA9700B727002086049387C7DDBE9402
:1002800023900400F2506254D2544259B259225A77
:10029000925A025BF24B624CD24C21618280BA8549
:1002A000A301040019469700FE1FE7808005E28540
:1002B0004E8519469700FE1FE780A0041946DE858B
:1002C0004A859700FE1FE780C003BDB779715EC6FF
:1002D000AA8B61454ECE52CC56CA5AC862C406D6C5
:1002E00022D426D24AD02E8BB28A368ABA893E8C44
:1002F000EF105FA12DCD37470B01130717E913044A
:100300008500AA8418C140C10149130524002300B7
:100310007401A30064011946D6859700FE1FE7808B
:1003200040FE13059400230444011946CE8597002E
:10033000FE1FE78000FDA307840103C73400050901
:100340001379F90F4104E362E9FC2254B727002036
:10035000B2500259F249624AD24A424BB24B224C45
:10036000A68503C587E2925445616F103FA4B25041
:10037000225492540259F249624AD24A424BB24B39
:10038000224C45618280011122CC2A84214506CE6F
:100390002EC632C436C2EF10FF9615CD22469246C5
:1003A0009167938717E92310F500B245B147230100
:1003B000F500A30185002303C500A303D500624413
:1003C000B72700202312B500F240AA8503C587E2B3
:1003D00005616F10BF9DF2406244056182805D71CE
:1003E000A6C28344C1052AC6CAC0138544024EDE94
:1003F00052DC56DA5AD85ED662D466D26AD06ECE55
:1004000086C6A2C42EC4B28D368DBA8C3E8CC28BE9
:10041000468B835A0105034A4105E6490659EF1008
:100420007F8E49CD3243A24537460D0193078500A3
:10043000130616E92A845CC12304650010C1A304D5
:10044000B5001946EE8529059700FE1FE78060EB91
:10045000CE852308A401A308940123098401A309DC
:100460007401230A6401231B5401230C4401130566
:10047000940119469700FE1FE780A0E81305440287
:10048000A30F940008D0CA8526869700FE1FE78038
:1004900040E7A285B72700202644B6409644064987
:1004A000F259625AD25A425BB25B225C925C025DA4
:1004B000F24D03C587E261616F105F8FB64026443D
:1004C00096440649F259625AD25A425BB25B225CA8
:1004D000925C025DF24D6161828001112AC6514534
:1004E00006CE22CCEF101F821DC9B24591679387BB
:1004F00017E92310F500B9472A842380F500090580
:1005000049469700FE1FE780C0DFA285B72700207D
:100510006244F24003C587E205616F103F89F240F3
:10052000624405618280797126D2AA84138507010D
:1005300006D622D42ECE32CC36CA3AC842C63EC4E3
:10054000EF104FFC25C12A841165A247F24562468F
:10055000D24642473248130515E92310A4003D4511
:100560002301A40013050401231294002303B40003
:10057000A303C4002305F40048C42304D400A30447
:10058000E4003E86C2859700FE1FE78080D7A285E3
:10059000B72700202254B250925403C587E2456128
:1005A0006F10DF80B2502254925445618280411115
:1005B00022C42A84194506C6EF10CFF40DC59167F1
:1005C000938717E92310F500C1472301F500231293
:1005D0008500B72700202244B240AA8503C587E2E0
:1005E00041016F10AFFCB2402244410182804111B1
:1005F0000D4506C6EF100FF10DC5930710F9230046
:10060000F5009307E003A300F500C5472301F500BB
:10061000B7270020B240AA8503C587E241016F10C9
:10062000EFF8B24041018280011122CC2A84294591
:1006300006CE2EC632C436C2EF10CFEC15CDB24571
:1006400092469167938717E92310F5002246C94720
:100650002301F5002302B500A30185002304D50082
:100660006244B72700202313C500F240AA8503C5C2
:1006700087E205616F108FF3F2406244056182806A
:1006800001114AC82A892D4526CA06CE22CC2EC67B
:10069000B284EF102FE729C5B245930710F9230064
:1006A000F5009307E003A300F500CD472301F50013
:1006B000A30125012302B5002A84A6851505194644
:1006C0009700FE1FE780E0C3A285B72700206244A1
:1006D000F240D244424903C587E205616F100FED35
:1006E000F2406244D244424905618280011122CC29
:1006F0002A84214506CE2EC6EF10CFE005C9B245AB
:100700009167938717E92310F500D1472301F5007E
:100710002303B50023128500B72700206244F2406E
:10072000AA8503C587E205616F104FE8F240624475
:100730000561828001112AC6614506CE22CCEF10E8
:100740006FDC1DC9B2459167938717E92310F50047
:10075000E1472A842380F500090561469700FE1FC2
:10076000E78020BAA285B72700206244F24003C583
:1007700087E205616F108FE3F24062440561828079
:10078000011122CC2A84214506CE2EC632C4EF1098
:100790006FD71DC52246B245930710592310F500A7
:1007A000230185002303C5006244B72700202312DC
:1007B000B500F240AA8503C587E205616F100FDF1F
:1007C000F240624405618280011122CC2A842145D5
:1007D00006CE2EC632C4EF10EFD21DC92246916755
:1007E000938727E92310F500B245A1472301F500BF
:1007F00023038500A303C5006244B727002023120A
:10080000B500F240AA8503C5A7E205616F100FDAB3
:10081000F240624405618280011122CC2A84314574
:1008200006CE2EC632C436C23AC0EF10AFCD15CDBB
:1008300022468567B24592460247938717C923101F
:10084000F500230185002303C5006244B72700207B
:100850002312B5002314D5002315E500F240AA8524
:1008600003C587E205616F106FD4F24062440561F1
:100870008280011126CAAE844AC82A891385C40021
:1008800006CE22CC32C6EF10EFC71DCD8567938709
:1008900017E9B2452310F500230195002312250125
:1008A0002A84310508C426869700FE1FE78060A5CC
:1008B000A285B72700206244F240D244424903C5D2
:1008C00087E205616F108FCEF2406244D244424904
:1008D00005618280011122CC2A84194506CE2EC6DC
:1008E000EF104FC205C98567938717F92310F500EC
:1008F000B2458547A301F500230185006244B7276F
:1009000000202312B500F240AA8503C587E20561E5
:100910006F10CFC9F240624405618280411122C448
:100920002A840D4506C6EF10EFBD05C5930710F9E3
:100930002300F500E947A300F500230185002244C8
:10094000B7270020B240AA8503C587E241016F1096
:10095000EFC5B240224441018280011122CC2A8499
:10096000194506CE2EC6EF10EFB90DC58D67B245FD
:10097000938717092310F500230185006244B727E8
:1009800000202312B500F240AA8503C587E2056165
:100990006F10CFC1F2406244056182800111214590
:1009A00006CE2EC632C4EF10EFB505C98567B24535
:1009B0002246938707392310F50085472301F50068
:1009C000B72700202312B5002313C500F240AA85E3
:1009D00003C587DA05616F106FBDF2400561828043
:1009E000397122DC4ED652D45AD006DE26DA4AD8E5
:1009F00056D25ECE094B2A8A3284B6896398651135
:100A000083C7160003C706009306C6FFA207D98F47
:100A1000372700202318F7E2BA846399D7083145B5
:100A20002EC6EF102FAEAA8425CDB24542044180D8
:100A30002302B50023138500930700F91504A1656F
:100A40002310F500231145018505228597F0FD1F30
:100A5000E780405B88C421C19385E9FF13562400D9
:100A60009700FE1FE780E08B9C44A68589079CC405
:100A7000B727002003C587DAEF104FB38144F25047
:100A8000625426854259D254B259225A925A025B74
:100A9000F24B21618280268597F0FD1FE78060651B
:100AA000B7270020239907E28544D1BF1307D6FF5B
:100AB000E3C8E7FEB727002003C787B4138A87B4CB
:100AC0003729002001CB0325C9E209C597F0FD1F96
:100AD000E780206203D504E3A16585051105420581
:100AE000418197F0FD1FE780E0512326A9E24DDD0B
:100AF0002286CE859700FE1FE780A080B7270020C2
:100B0000239987E285472300FA008DBF372900200B
:100B1000835729E3CA8BC9DBB724002003D704E33A
:100B2000B72A0020B386C700110703A5CAE26348AD
:100B3000D7063E95CE8597F0FD1FE780807C035653
:100B400029E383D704E3814432944204418023198A
:100B500089E29107E315F4F23145EF10AF9AAA85C7
:100B60000DCD930700F92310F500835729E32311D6
:100B70004501230265012313F50083A7CAE21CC5C2
:100B8000B727002003C587DAEF104FA2B727002050
:100B9000231909E2238407B4DDB503A5CAE209C518
:100BA00097F0FD1FE780E054B727002023990BE260
:100BB000238407B4D5BD6FF0B0366FF0F037411124
:100BC00006C6EFF0B037B2400145410182806FF0B8
:100BD000303A6FF0503C6FF0903F6FF0B0416FF0E3
:100BE000B0436FF0B0456FF090476FF090496FF0F1
:100BF000904B6FF0304D8347160003460600A20766
:100C00005D8E6FF0704E6FF0B04F6FF070526FF0FE
:100C100050726FF030756FF010786FF0307A6FF0BF
:100C2000507C6FF0707E6F0081006F00A102034363
:100C30000100030E4100834E8100034FC100834F2A
:100C4000010183424101834381017EC816CA1ECC43
:100C50007AC676C472C21AC06F00C1016F00C106A5
:100C60006F00E1086F00010B6F00210D6F00410F55
:100C70006F0061116F0081136F00A1156F00C11724
:100C80006F1091576F1051606F1051626F10F166C5
:100C90001307A5FF420785672A8841831385A7C7E5
:100CA000636CE502138707C801456368B70263E612
:100CB00005031307301F6362C702138766FF4207ED
:100CC0004183938767C763EAE70005063306B602E8
:100CD0008E063325D600828001458280B7660300E8
:100CE0008147938606681308F00F3387F6000346A2
:100CF00007001317060141836364E50063130601CF
:100D0000828003D605006365C7002390E5008280DA
:100D1000850793F7F70FD1BF41119397050122C4BF
:100D200006C626C2C1872E8463D50702EF106F81E5
:100D3000AA8409CD83470500054793C70708636464
:100D4000F700EF80007E2685EF001FF92165218DD9
:100D500021A893F7150091CFB727002083A747EA72
:100D600091C3829713451400B2402244924441013A
:100D7000828093F7250091CBB727002083A787EACD
:100D800091C3829713452400C5B793F7850099CB8B
:100D9000B727002083A707EBBC5791C38297134561
:100DA0008400D9B793F7450099CBB727002083A7D4
:100DB00007EBFC5391C382971345440075B793F733
:100DC000050281CFB727002083A707EC83A7070977
:100DD00091C382971345040241BF93F7050181CF68
:100DE000B727002083A707EC83A7C70891C3829782
:100DF0001345040195BF939725010145E3D607F6F6
:100E0000B7270020938707E483C6F70103C6E701ED
:100E100083C5D70103C5C701EF006110096505BF90
:100E2000411122C4B72700203724002026C223A85E
:100E300007F2AA84B7270020130504E41306000F65
:100E4000814506C623AC07E2EF106F9137270020DB
:100E5000130747CA8346770103468701B727002057
:100E6000A2064206B29603466701A38197C693077E
:100E700004E4B296F4C30346B7018346A7019D4537
:100E80004206A206B29603469701A381B700238AC1
:100E9000B700B29603A6870BB4C3D5669386F69FB8
:100EA000558E83A6C70B23ACC70A23A0C70C93E6B5
:100EB000060923AED70A23A2D70C835647007976BA
:100EC0007D16A982A384D70AA388D70AA38CD70644
:100ED0008546A385D700B706F6FF2395C70E239650
:100EE000C70E8D067D462387C70ED4C713067070C4
:100EF0000347F700B70641142393C7002394C700A4
:100F0000D9161306E00E2397C70694CBA3820700D9
:100F1000239CE702239EE702116713070729239DFD
:100F2000E702239FE70231472393E7023707009147
:100F30001307777D98D798DB3707900A6D07B716A8
:100F400000919386C6C0D8DB3707160013070790B9
:100F5000D4D7B8C7EFC05057EF307065EFB0B07955
:100F60002244B240924441016F80F033397122DC57
:100F70003704400026DA4AD84ED606DEAA89AE8467
:100F80001309F4FFCA850145EF107F8865DDE30B87
:100F900025FF498C13170401418321839317840093
:100FA00013590401D98F231601001379F90F100882
:100FB0008A854E852317F100A306210102C002C2D3
:100FC00002C402C802CA02CC02CEEFC080308347FE
:100FD000E1010347D101A3818400A2074207BA9728
:100FE0000347F101218023828400BA97F2506254B2
:100FF0002380F40013D78700C183A3822401A38038
:10100000E4002381F4004259D254B2592161828014
:10101000011122CC37240020930704E403D74704AE
:1010200006CE26CA4AC84EC62396E70C03D76704E5
:1010300011699305F9FF2387E70CB84301451304B1
:1010400004E4A387E70C9356870041832388D70CD9
:10105000A388E70CEF106FF9AA84FD550145EF1046
:101060000FFBA6877D19FD5933F72701B366E5000D
:10107000C5C6631435016301270B230EF40CA1834D
:1010800093E707FC9169C164232CA40CA30EF40C14
:10109000FD19FD14CE850145EF102FF52A89FD5568
:1010A0000145EF10CFF6B3672501EDD7FD57631467
:1010B000F500E30139FF935705012300F40E935720
:1010C0008501A300F40E8317C40C231FA40C230175
:1010D000240F4205135989001379F9034185A301AF
:1010E000240F658DE58F6312F5020317040E831735
:1010F000E40C658FE58F631AF7000317240E83173E
:10110000040D658FE58FE307F7F8F2406244D2449F
:101110004249B24905618280CA850145EF10EFEC72
:10112000AA84FD550145EF108FEEA68735BF41110A
:1011300026C2B724002006C622C44AC0938704E40E
:1011400003C7A70083C7B700636AF700014422857D
:10115000B240224492440249410182802A89930587
:1011600010201305800A97F0FD1FE780A0E92A846C
:1011700071DD938404E463150900C1572304F5006D
:10118000BC48B1EFE0C4A0C8E0C8232004008547F4
:101190001306800A814522852385F400EF003FDC99
:1011A0008547A304F400930700F9A305F400B727CB
:1011B0000020938787F6D84B9C4F38C47CC4FD57DA
:1011C000230BF400A30CF406B727002003C567CB5C
:1011D000230DA404EFC0E02DA30AA4008DBFFC489A
:1011E00080C3E0C82320040083C7A40085074DB74F
:1011F000B727002083A747ED6394072C01114EC643
:10120000B729002083A749F806CE22CC984326CAE6
:101210004AC80D8B05C3B84B619BB8CB9843136785
:10122000870098C39C438D83858B89C7010001008B
:101230000100010037260020832706F4B72500208F
:1012400037083300D857719B13671700D8D79843D6
:101250001377F7E798C398431377F7E713670710F7
:1012600098C383A685FA98463367070198C603A7F3
:1012700049F89306A00D3708008234CB9306000A84
:1012800074D354437D18F99A54C30347A5051377C3
:10129000F70393169701D85733770701558FD8D79F
:1012A00037170040930770052300F704930780FA6F
:1012B0002300F7048306A505B54763DBD71E8357D4
:1012C000270293E707012311F70203A785FA5C576A
:1012D000F59B5CD78347A507032706F493F6F7072A
:1012E0001C4393F707F8D58F1CC383278508244533
:1012F0001CC78327C5085CC39D472308F5002380CE
:10130000F4008547A38104002381F4007C5993F7FE
:10131000070285CFA147A381F4003C450357650828
:101320002382E70083C7240038458346B5073E97EC
:10133000835765089206A183BD8BD58F2302F700E2
:1013400083C7240089072381F40083C7340003C7BF
:1013500024002A8493E70704A381F4003C45BA974C
:1013600003475501A381E70083C724000D47850784
:1013700093F7F70F2381F40083468507639CE60407
:10138000032985048D07B72500203E99A147230036
:10139000F90093078002A300F90015469385A5F292
:1013A0001305290097F0FD1FE780A0F58357440837
:1013B0009907C207C183231FF406A303F900A18381
:1013C0002304F90083C72400A5072381F400914773
:1013D000230CF4060356040881470DC603C52400F8
:1013E000130716009306F00F2A9763CDE6003C44DE
:1013F0008325040A0D053E9597F0FD1FE78060F0F8
:101400008347040883C6240013F7F6030507BA9739
:10141000A308F4002381D40083471403858B91E74C
:101420000347040389476319F700384483470700DB
:1014300093E707042300F7003C4403471401A3800B
:10144000E700930770F93844A305F40083A749F82F
:10145000B8DBEFC0A036373502008145130505E142
:10146000EF10EF8BB7270020938787F623810700C3
:101470000947A3810700A383E70023820700B7275A
:10148000002003A747F411C7144318479C42D98F83
:101490009CC2034614018345C4076244F240D2440F
:1014A0004249B249014505611703FE1F6700430326
:1014B00083572702C207C183BD9BC207C18321B5E1
:1014C0008280FD57A30CF50683478507638D0726A9
:1014D000411122C406C626C211472A84639CE70232
:1014E0000357E507835745086316F70293048509F8
:1014F000B725002015469385A5F2268597F0FD1F98
:10150000E78020E02685EF30D0578947A30EA40658
:10151000230CF4062285EF30900A835744080347D2
:10152000840785072312F40885476317F70A89475C
:10153000230CF4067C5893E747007CD8B72700209B
:10154000938707E403C7D706098B6DDF03C7D70668
:101550001377C70FA386E706B727002083A787CE98
:1015600082972328A40837270020930647CA83C6FA
:101570004601832704090356240893958601E185D3
:10158000130747CA63D905189306204E3306D602BF
:101590003D0615823E9663C90500B707C0A863657E
:1015A000F600B70740573E962328C4088347E70153
:1015B00063D305181D8E3715020093069407A28584
:1015C00001471305254CEF009FA322852244B2401A
:1015D000924441016FF0DFC1B727002083A787CE77
:1015E000832404098297B7270020138747CA03473B
:1015F0004701938747CA93158701E18563D605069E
:1016000083C6E7013385A4409397160063E3A700E0
:1016100051E9832704090356240863DD05041307F1
:10162000204E3306E6023D0615823E9663C905004C
:10163000B707C0A86365F600B70740573E96232852
:10164000C4089387460063D705041D8E930694074C
:10165000A2852244B2409244371502000147130587
:10166000254C41016F00BF99E3FCA4F8B706C0A860
:10167000B69479B7058B11C7130780023306E602CB
:101680006DB705671307B7473306E602130606046E
:101690001D8261BFE37BF6FA3707C0A8B307F740A6
:1016A0003E966DB763DB05041605B717004083C788
:1016B000F702E207E18763C307004115B72700205F
:1016C000938607E403C7D6060605938707E41367E6
:1016D0001700A386E60637270020032747F8A166F0
:1016E00014C768D703C7D706098B6DDF03C7D706B2
:1016F0001377C70FA386E706BDB5058B19C79307F8
:10170000803E3305F50215814DB79307D0033305AD
:10171000F502058159BF858A91C69306800233067A
:10172000D6028DBD85669386B6473306D60213066C
:1017300006041D8285B5E37FF6E63707C0A8B30728
:10174000F7403E968DBD828041114AC03729002066
:10175000930709E483A7070A06C622C426C299E3B1
:1017600005450DAAAA84130909E4EFC0A011832737
:10177000090A8297EF30203E2A847DD19C50EC44A8
:101780007CDD03C7B4009307A009631BF7108547EE
:101790002300F51283C754052303F512A303F512A2
:1017A00083C7F50003C705010148A2074207BA979E
:1017B00003C7E5001546F905BA9703C735FF1305BA
:1017C00084116207BA972326F40883C755FF03C71D
:1017D00065FFA2074207BA9703C745FFBA972328B8
:1017E000F40883C775FFA305F40283C795FF03C7F9
:1017F00085FFA207D98F2316F40283C7B5FF03C75D
:10180000A5FFA207D98F2317F40283C7D5FF03C70B
:10181000C5FFA207D98F2318F40283C7F5FF03C7BA
:10182000E5FF232E0411A207D98F2319F402814763
:10183000232CF41097F0FD1FE780A0ACF8448347F9
:101840003702FD8B2304F40203473702ED1793F7A9
:10185000F70F1583A304E4022D476368F70283574B
:10186000E40205679306A7C7E917C207C18363EEC1
:10187000F600835604039307301F63E8D7008357AD
:101880002403130707C8637EF70203558400EF3073
:10189000404A0145B24022449244024941018280BB
:1018A0008327090C13971701E35C07EEBC4403C7B9
:1018B000070083C70500F98F9583858B2300F512F8
:1018C000C5B58327490A2285829783D7640681E7B5
:1018D00083D7A40691CB83C684060356840083C5B0
:1018E00084000145EF1041418327890C0355840092
:1018F000294693F7072091E3054693050008EF700A
:10190000505B8327090C13971701E35B07E403552A
:101910008400514693050008EF70B05991B5B72780
:10192000002083C717E4411122C406C62A84C5C714
:1019300083471504CDC3834775041307000493F749
:10194000070C639AE7085C559DCF03C7270105CFB5
:1019500003C737001306240413672700A300E50418
:1019600003D5270003D7470083D5670083D78700B7
:101970002244B2404207C207598DDD8D410117F361
:10198000FD1F6700437F034704018547631EF7007F
:10199000930524041305A4032244B24019464101CF
:1019A00017F3FD1F6700639983472405918B8DCF43
:1019B0001305040497F0FD1FE780207448D401CD7F
:1019C0008347350093E72700A300F404B240224484
:1019D000054541018280034704018547E30AF7FA80
:1019E00083472405918BCDF78347D40013F7170065
:1019F00019CF834634010D47639BE60028406C40B5
:101A00002244B24041011703FE1F6700A386898B61
:101A1000D5DF034734019547E31AF7FAC5B7034703
:101A2000C5058347D50505C38346A5006304D702D2
:101A30006383F6022305E500B727002003C537C6F8
:101A400089456F004FED81CB0347A50009E72305CA
:101A5000F500DDB7EDFFB7270020938707E4238665
:101A60000706930710F9A305F50082806C45411124
:101A700006C622C426C24AC083C71500314793F761
:101A8000F7032309F500638BE70093040008B240D5
:101A900022442685024992444101828083C4050084
:101AA0008D47BD88A3099500E391F4FE1309250332
:101AB0002A841946A1054A8597F0FD1FE780E08733
:101AC000630905166C4413052404194683C70500F1
:101AD00089059987858BA300F40497F0FD1FE780A3
:101AE00040822285EFF0BFE35DD124449D47230867
:101AF000F4002380F40085472381F400A381F400DF
:101B00001946CA851385440097E0FD1FE780607F72
:101B100083C7240003C73400990793F7F70F1367AF
:101B200087002381F400A381E4003844BA97035767
:101B30004406A381E70083C7240038448346340564
:101B40003E97835744069206A183BD8BD58F23020F
:101B5000F70003C72400814709071377F70F238194
:101B6000E4000356A4018346240501CA93F7060442
:101B7000DDEFF957998F93F7F70F93F6060495C2A7
:101B800003C63400344413660604A381C4003697A8
:101B900083465401A301D70003C72400050723810E
:101BA000E4000356A401014719CE63EEC70083C7C2
:101BB000240028440C548D073E9597E0FD1FE780D4
:101BC00040740347A40183C6240093F7F6038507F6
:101BD0003E97A308E4002381D40083471403858B38
:101BE00091E70347040389476319F70038448347A3
:101BF000070093E707042300F7003C4483451401E2
